{
    "contractName": "ERC721Permit",
    "abi": [
        {
            "inputs": [
                {
                    "internalType": "string",
                    "name": "name",
                    "type": "string"
                },
                {
                    "internalType": "string",
                    "name": "symbol",
                    "type": "string"
                }
            ],
            "stateMutability": "nonpayable",
            "type": "constructor"
        },
        {
            "inputs": [],
            "name": "InvalidShortString",
            "type": "error"
        },
        {
            "inputs": [
                {
                    "internalType": "string",
                    "name": "str",
                    "type": "string"
                }
            ],
            "name": "StringTooLong",
            "type": "error"
        },
        {
            "anonymous": false,
            "inputs": [
                {
                    "indexed": true,
                    "internalType": "address",
                    "name": "owner",
                    "type": "address"
                },
                {
                    "indexed": true,
                    "internalType": "address",
                    "name": "approved",
                    "type": "address"
                },
                {
                    "indexed": true,
                    "internalType": "uint256",
                    "name": "tokenId",
                    "type": "uint256"
                }
            ],
            "name": "Approval",
            "type": "event"
        },
        {
            "anonymous": false,
            "inputs": [
                {
                    "indexed": true,
                    "internalType": "address",
                    "name": "owner",
                    "type": "address"
                },
                {
                    "indexed": true,
                    "internalType": "address",
                    "name": "operator",
                    "type": "address"
                },
                {
                    "indexed": false,
                    "internalType": "bool",
                    "name": "approved",
                    "type": "bool"
                }
            ],
            "name": "ApprovalForAll",
            "type": "event"
        },
        {
            "anonymous": false,
            "inputs": [],
            "name": "EIP712DomainChanged",
            "type": "event"
        },
        {
            "anonymous": false,
            "inputs": [
                {
                    "indexed": true,
                    "internalType": "address",
                    "name": "from",
                    "type": "address"
                },
                {
                    "indexed": true,
                    "internalType": "address",
                    "name": "to",
                    "type": "address"
                },
                {
                    "indexed": true,
                    "internalType": "uint256",
                    "name": "tokenId",
                    "type": "uint256"
                }
            ],
            "name": "Transfer",
            "type": "event"
        },
        {
            "inputs": [],
            "name": "DOMAIN_SEPARATOR",
            "outputs": [
                {
                    "internalType": "bytes32",
                    "name": "",
                    "type": "bytes32"
                }
            ],
            "stateMutability": "view",
            "type": "function"
        },
        {
            "inputs": [
                {
                    "internalType": "address",
                    "name": "to",
                    "type": "address"
                },
                {
                    "internalType": "uint256",
                    "name": "tokenId",
                    "type": "uint256"
                }
            ],
            "name": "approve",
            "outputs": [],
            "stateMutability": "nonpayable",
            "type": "function"
        },
        {
            "inputs": [
                {
                    "internalType": "address",
                    "name": "owner",
                    "type": "address"
                }
            ],
            "name": "balanceOf",
            "outputs": [
                {
                    "internalType": "uint256",
                    "name": "",
                    "type": "uint256"
                }
            ],
            "stateMutability": "view",
            "type": "function"
        },
        {
            "inputs": [],
            "name": "eip712Domain",
            "outputs": [
                {
                    "internalType": "bytes1",
                    "name": "fields",
                    "type": "bytes1"
                },
                {
                    "internalType": "string",
                    "name": "name",
                    "type": "string"
                },
                {
                    "internalType": "string",
                    "name": "version",
                    "type": "string"
                },
                {
                    "internalType": "uint256",
                    "name": "chainId",
                    "type": "uint256"
                },
                {
                    "internalType": "address",
                    "name": "verifyingContract",
                    "type": "address"
                },
                {
                    "internalType": "bytes32",
                    "name": "salt",
                    "type": "bytes32"
                },
                {
                    "internalType": "uint256[]",
                    "name": "extensions",
                    "type": "uint256[]"
                }
            ],
            "stateMutability": "view",
            "type": "function"
        },
        {
            "inputs": [
                {
                    "internalType": "uint256",
                    "name": "tokenId",
                    "type": "uint256"
                }
            ],
            "name": "getApproved",
            "outputs": [
                {
                    "internalType": "address",
                    "name": "",
                    "type": "address"
                }
            ],
            "stateMutability": "view",
            "type": "function"
        },
        {
            "inputs": [
                {
                    "internalType": "address",
                    "name": "owner",
                    "type": "address"
                },
                {
                    "internalType": "address",
                    "name": "operator",
                    "type": "address"
                }
            ],
            "name": "isApprovedForAll",
            "outputs": [
                {
                    "internalType": "bool",
                    "name": "",
                    "type": "bool"
                }
            ],
            "stateMutability": "view",
            "type": "function"
        },
        {
            "inputs": [],
            "name": "name",
            "outputs": [
                {
                    "internalType": "string",
                    "name": "",
                    "type": "string"
                }
            ],
            "stateMutability": "view",
            "type": "function"
        },
        {
            "inputs": [
                {
                    "internalType": "uint256",
                    "name": "tokenId",
                    "type": "uint256"
                }
            ],
            "name": "nonces",
            "outputs": [
                {
                    "internalType": "uint256",
                    "name": "",
                    "type": "uint256"
                }
            ],
            "stateMutability": "view",
            "type": "function"
        },
        {
            "inputs": [
                {
                    "internalType": "uint256",
                    "name": "tokenId",
                    "type": "uint256"
                }
            ],
            "name": "ownerOf",
            "outputs": [
                {
                    "internalType": "address",
                    "name": "",
                    "type": "address"
                }
            ],
            "stateMutability": "view",
            "type": "function"
        },
        {
            "inputs": [
                {
                    "internalType": "address",
                    "name": "spender",
                    "type": "address"
                },
                {
                    "internalType": "uint256",
                    "name": "tokenId",
                    "type": "uint256"
                },
                {
                    "internalType": "uint256",
                    "name": "deadline",
                    "type": "uint256"
                },
                {
                    "internalType": "bytes",
                    "name": "signature",
                    "type": "bytes"
                }
            ],
            "name": "permit",
            "outputs": [],
            "stateMutability": "nonpayable",
            "type": "function"
        },
        {
            "inputs": [
                {
                    "internalType": "address",
                    "name": "from",
                    "type": "address"
                },
                {
                    "internalType": "address",
                    "name": "to",
                    "type": "address"
                },
                {
                    "internalType": "uint256",
                    "name": "tokenId",
                    "type": "uint256"
                }
            ],
            "name": "safeTransferFrom",
            "outputs": [],
            "stateMutability": "nonpayable",
            "type": "function"
        },
        {
            "inputs": [
                {
                    "internalType": "address",
                    "name": "from",
                    "type": "address"
                },
                {
                    "internalType": "address",
                    "name": "to",
                    "type": "address"
                },
                {
                    "internalType": "uint256",
                    "name": "tokenId",
                    "type": "uint256"
                },
                {
                    "internalType": "bytes",
                    "name": "data",
                    "type": "bytes"
                }
            ],
            "name": "safeTransferFrom",
            "outputs": [],
            "stateMutability": "nonpayable",
            "type": "function"
        },
        {
            "inputs": [
                {
                    "internalType": "address",
                    "name": "operator",
                    "type": "address"
                },
                {
                    "internalType": "bool",
                    "name": "approved",
                    "type": "bool"
                }
            ],
            "name": "setApprovalForAll",
            "outputs": [],
            "stateMutability": "nonpayable",
            "type": "function"
        },
        {
            "inputs": [
                {
                    "internalType": "bytes4",
                    "name": "interfaceId",
                    "type": "bytes4"
                }
            ],
            "name": "supportsInterface",
            "outputs": [
                {
                    "internalType": "bool",
                    "name": "",
                    "type": "bool"
                }
            ],
            "stateMutability": "view",
            "type": "function"
        },
        {
            "inputs": [],
            "name": "symbol",
            "outputs": [
                {
                    "internalType": "string",
                    "name": "",
                    "type": "string"
                }
            ],
            "stateMutability": "view",
            "type": "function"
        },
        {
            "inputs": [
                {
                    "internalType": "uint256",
                    "name": "tokenId",
                    "type": "uint256"
                }
            ],
            "name": "tokenURI",
            "outputs": [
                {
                    "internalType": "string",
                    "name": "",
                    "type": "string"
                }
            ],
            "stateMutability": "view",
            "type": "function"
        },
        {
            "inputs": [
                {
                    "internalType": "address",
                    "name": "from",
                    "type": "address"
                },
                {
                    "internalType": "address",
                    "name": "to",
                    "type": "address"
                },
                {
                    "internalType": "uint256",
                    "name": "tokenId",
                    "type": "uint256"
                }
            ],
            "name": "transferFrom",
            "outputs": [],
            "stateMutability": "nonpayable",
            "type": "function"
        }
    ],
    "bytecode": "6101806040527f49ecf333e5b8c95c40fdafc95c1ad136e8914a8fb55e9dc8bb01eaa83a2df9ad61016052348015610035575f80fd5b50604051611d87380380611d8783398101604081905261005491610259565b6040805180820190915260018152603160f81b6020820152829081835f61007b8382610342565b5060016100888282610342565b5061009891508390506006610144565b610120526100a7816007610144565b61014052815160208084019190912060e052815190820120610100524660a05261013360e05161010051604080517f8b73c3c69bb8fe3d512ecc4cf759cc79239f7b179b0ffacaa9a75d522b39400f60208201529081019290925260608201524660808201523060a08201525f9060c00160405160208183030381529060405280519060200120905090565b60805250503060c052506104549050565b5f60208351101561015f5761015883610176565b9050610170565b8161016a8482610342565b5060ff90505b92915050565b5f80829050601f815111156101a9578260405163305a27a960e01b81526004016101a091906103fc565b60405180910390fd5b80516101b482610431565b179392505050565b634e487b7160e01b5f52604160045260245ffd5b5f82601f8301126101df575f80fd5b81516001600160401b038111156101f8576101f86101bc565b604051601f8201601f19908116603f011681016001600160401b0381118282101715610226576102266101bc565b60405281815283820160200185101561023d575f80fd5b8160208501602083015e5f918101602001919091529392505050565b5f806040838503121561026a575f80fd5b82516001600160401b0381111561027f575f80fd5b61028b858286016101d0565b602085015190935090506001600160401b038111156102a8575f80fd5b6102b4858286016101d0565b9150509250929050565b600181811c908216806102d257607f821691505b6020821081036102f057634e487b7160e01b5f52602260045260245ffd5b50919050565b601f82111561033d57805f5260205f20601f840160051c8101602085101561031b5750805b601f840160051c820191505b8181101561033a575f8155600101610327565b50505b505050565b81516001600160401b0381111561035b5761035b6101bc565b61036f8161036984546102be565b846102f6565b6020601f8211600181146103a1575f831561038a5750848201515b5f19600385901b1c1916600184901b17845561033a565b5f84815260208120601f198516915b828110156103d057878501518255602094850194600190920191016103b0565b50848210156103ed57868401515f19600387901b60f8161c191681555b50505050600190811b01905550565b602081525f82518060208401528060208501604085015e5f604082850101526040601f19601f83011684010191505092915050565b805160208083015191908110156102f0575f1960209190910360031b1b16919050565b60805160a05160c05160e051610100516101205161014051610160516118d86104af5f395f610a7201525f61060e01525f6105e301525f6109bd01525f61099501525f6108f001525f61091a01525f61094401526118d85ff3fe608060405234801561000f575f80fd5b5060043610610106575f3560e01c80636352211e1161009e57806395d89b411161006e57806395d89b411461022a578063a22cb46514610232578063b88d4fde14610245578063c87b56dd14610258578063e985e9c51461026b575f80fd5b80636352211e146101d657806370a08231146101e9578063745a41bc146101fc57806384b0196e1461020f575f80fd5b8063141a468c116100d9578063141a468c1461018757806323b872dd146101a85780633644e515146101bb57806342842e0e146101c3575f80fd5b806301ffc9a71461010a57806306fdde0314610132578063081812fc14610147578063095ea7b314610172575b5f80fd5b61011d61011836600461139b565b61027e565b60405190151581526020015b60405180910390f35b61013a6102a8565b60405161012991906113e4565b61015a6101553660046113f6565b610337565b6040516001600160a01b039091168152602001610129565b610185610180366004611428565b61035c565b005b61019a6101953660046113f6565b610475565b604051908152602001610129565b6101856101b6366004611450565b610488565b61019a6104b9565b6101856101d1366004611450565b6104c7565b61015a6101e43660046113f6565b6104e1565b61019a6101f736600461148a565b610540565b61018561020a366004611542565b6105c4565b6102176105d6565b604051610129979695949392919061159f565b61013a61065d565b610185610240366004611635565b61066c565b61018561025336600461166e565b61067b565b61013a6102663660046113f6565b6106ad565b61011d6102793660046116ba565b61071d565b5f6001600160e01b03198216635604e22560e01b14806102a257506102a28261074a565b92915050565b60605f80546102b6906116eb565b80601f01602080910402602001604051908101604052809291908181526020018280546102e2906116eb565b801561032d5780601f106103045761010080835404028352916020019161032d565b820191905f5260205f20905b81548152906001019060200180831161031057829003601f168201915b5050505050905090565b5f61034182610799565b505f908152600460205260409020546001600160a01b031690565b5f610366826104e1565b9050806001600160a01b0316836001600160a01b0316036103d85760405162461bcd60e51b815260206004820152602160248201527f4552433732313a20617070726f76616c20746f2063757272656e74206f776e656044820152603960f91b60648201526084015b60405180910390fd5b336001600160a01b03821614806103f457506103f4813361071d565b6104665760405162461bcd60e51b815260206004820152603d60248201527f4552433732313a20617070726f76652063616c6c6572206973206e6f7420746f60448201527f6b656e206f776e6572206f7220617070726f76656420666f7220616c6c00000060648201526084016103cf565b61047083836107fa565b505050565b5f818152600860205260408120546102a2565b6104923382610867565b6104ae5760405162461bcd60e51b81526004016103cf90611723565b6104708383836108c5565b5f6104c26108e4565b905090565b61047083838360405180602001604052805f81525061067b565b5f818152600260205260408120546001600160a01b0316806102a25760405162461bcd60e51b8152602060048201526018602482015277115490cdcc8c4e881a5b9d985b1a59081d1bdad95b88125160421b60448201526064016103cf565b5f6001600160a01b0382166105a95760405162461bcd60e51b815260206004820152602960248201527f4552433732313a2061646472657373207a65726f206973206e6f7420612076616044820152683634b21037bbb732b960b91b60648201526084016103cf565b506001600160a01b03165f9081526003602052604090205490565b6105d084848484610a0d565b50505050565b5f606080828080836106097f00000000000000000000000000000000000000000000000000000000000000006006610b97565b6106347f00000000000000000000000000000000000000000000000000000000000000006007610b97565b604080515f80825260208201909252600f60f81b9b939a50919850469750309650945092509050565b6060600180546102b6906116eb565b610677338383610c40565b5050565b6106853383610867565b6106a15760405162461bcd60e51b81526004016103cf90611723565b6105d084848484610d0d565b60606106b882610799565b5f6106cd60408051602081019091525f815290565b90505f8151116106eb5760405180602001604052805f815250610716565b806106f584610d40565b604051602001610706929190611787565b6040516020818303038152906040525b9392505050565b6001600160a01b039182165f90815260056020908152604080832093909416825291909152205460ff1690565b5f6001600160e01b031982166380ac58cd60e01b148061077a57506001600160e01b03198216635b5e139f60e01b145b806102a257506301ffc9a760e01b6001600160e01b03198316146102a2565b5f818152600260205260409020546001600160a01b03166107f75760405162461bcd60e51b8152602060048201526018602482015277115490cdcc8c4e881a5b9d985b1a59081d1bdad95b88125160421b60448201526064016103cf565b50565b5f81815260046020526040902080546001600160a01b0319166001600160a01b038416908117909155819061082e826104e1565b6001600160a01b03167f8c5be1e5ebec7d5bd14f71427d1e84f3dd0314c0f7b2291e5b200ac8c7c3b92560405160405180910390a45050565b5f80610872836104e1565b9050806001600160a01b0316846001600160a01b031614806108995750610899818561071d565b806108bd5750836001600160a01b03166108b284610337565b6001600160a01b0316145b949350505050565b5f81815260086020526040902080546001019055610470838383610dd0565b5f306001600160a01b037f00000000000000000000000000000000000000000000000000000000000000001614801561093c57507f000000000000000000000000000000000000000000000000000000000000000046145b1561096657507f000000000000000000000000000000000000000000000000000000000000000090565b6104c2604080517f8b73c3c69bb8fe3d512ecc4cf759cc79239f7b179b0ffacaa9a75d522b39400f60208201527f0000000000000000000000000000000000000000000000000000000000000000918101919091527f000000000000000000000000000000000000000000000000000000000000000060608201524660808201523060a08201525f9060c00160405160208183030381529060405280519060200120905090565b81421115610a5d5760405162461bcd60e51b815260206004820152601e60248201527f4552433732315065726d69743a206578706972656420646561646c696e65000060448201526064016103cf565b5f8381526008602090815260408083205481517f0000000000000000000000000000000000000000000000000000000000000000818501526001600160a01b0389168184015260608101889052608081019190915260a08082018790528251808303909101815260c0909101909152805191012090610adb82610f32565b90505f610ae88285610f5e565b5090505f6001600160a01b03821615801590610b095750610b098288610867565b90508080610b255750610b25610b1e886104e1565b8487610fa0565b80610b375750610b37610b1e88610337565b610b835760405162461bcd60e51b815260206004820152601f60248201527f4552433732315065726d69743a20696e76616c6964207369676e61747572650060448201526064016103cf565b610b8d88886107fa565b5050505050505050565b606060ff8314610bb157610baa83611091565b90506102a2565b818054610bbd906116eb565b80601f0160208091040260200160405190810160405280929190818152602001828054610be9906116eb565b8015610c345780601f10610c0b57610100808354040283529160200191610c34565b820191905f5260205f20905b815481529060010190602001808311610c1757829003601f168201915b505050505090506102a2565b816001600160a01b0316836001600160a01b031603610ca15760405162461bcd60e51b815260206004820152601960248201527f4552433732313a20617070726f766520746f2063616c6c65720000000000000060448201526064016103cf565b6001600160a01b038381165f81815260056020908152604080832094871680845294825291829020805460ff191686151590811790915591519182527f17307eab39ab6107e8899845ad3d59bd9653f200f220920489ca2b5937696c31910160405180910390a3505050565b610d188484846108c5565b610d24848484846110ce565b6105d05760405162461bcd60e51b81526004016103cf9061179b565b60605f610d4c836111cb565b60010190505f8167ffffffffffffffff811115610d6b57610d6b6114a3565b6040519080825280601f01601f191660200182016040528015610d95576020820181803683370190505b5090508181016020015b5f19016f181899199a1a9b1b9c1cb0b131b232b360811b600a86061a8153600a8504945084610d9f57509392505050565b826001600160a01b0316610de3826104e1565b6001600160a01b031614610e095760405162461bcd60e51b81526004016103cf906117ed565b6001600160a01b038216610e6b5760405162461bcd60e51b8152602060048201526024808201527f4552433732313a207472616e7366657220746f20746865207a65726f206164646044820152637265737360e01b60648201526084016103cf565b826001600160a01b0316610e7e826104e1565b6001600160a01b031614610ea45760405162461bcd60e51b81526004016103cf906117ed565b5f81815260046020908152604080832080546001600160a01b03199081169091556001600160a01b038781168086526003855283862080545f1901905590871680865283862080546001019055868652600290945282852080549092168417909155905184937fddf252ad1be2c89b69c2b068fc378daa952ba7f163c4a11628f55a4df523b3ef91a4505050565b5f6102a2610f3e6108e4565b8360405161190160f01b8152600281019290925260228201526042902090565b5f808251604103610f92576020830151604084015160608501515f1a610f86878285856112a2565b94509450505050610f99565b505f905060025b9250929050565b5f805f856001600160a01b0316631626ba7e60e01b8686604051602401610fc8929190611832565b60408051601f198184030181529181526020820180516001600160e01b03166001600160e01b0319909416939093179092529051611006919061184a565b5f60405180830381855afa9150503d805f811461103e576040519150601f19603f3d011682016040523d82523d5f602084013e611043565b606091505b5091509150818015611056575080516020145b801561108757508051630b135d3f60e11b9061107b9083016020908101908401611855565b6001600160e01b031916145b9695505050505050565b60605f61109d8361135f565b6040805160208082528183019092529192505f91906020820181803683375050509182525060208101929092525090565b5f6001600160a01b0384163b156111c057604051630a85bd0160e11b81526001600160a01b0385169063150b7a0290611111903390899088908890600401611870565b6020604051808303815f875af192505050801561114b575060408051601f3d908101601f1916820190925261114891810190611855565b60015b6111a6573d808015611178576040519150601f19603f3d011682016040523d82523d5f602084013e61117d565b606091505b5080515f0361119e5760405162461bcd60e51b81526004016103cf9061179b565b805181602001fd5b6001600160e01b031916630a85bd0160e11b1490506108bd565b506001949350505050565b5f8072184f03e93ff9f4daa797ed6e38ed64bf6a1f0160401b83106112095772184f03e93ff9f4daa797ed6e38ed64bf6a1f0160401b830492506040015b6d04ee2d6d415b85acef81000000008310611235576d04ee2d6d415b85acef8100000000830492506020015b662386f26fc10000831061125357662386f26fc10000830492506010015b6305f5e100831061126b576305f5e100830492506008015b612710831061127f57612710830492506004015b60648310611291576064830492506002015b600a83106102a25760010192915050565b5f807f7fffffffffffffffffffffffffffffff5d576e7357a4501ddfe92f46681b20a08311156112d757505f90506003611356565b604080515f8082526020820180845289905260ff881692820192909252606081018690526080810185905260019060a0016020604051602081039080840390855afa158015611328573d5f803e3d5ffd5b5050604051601f1901519150506001600160a01b038116611350575f60019250925050611356565b91505f90505b94509492505050565b5f60ff8216601f8111156102a257604051632cd44ac360e21b815260040160405180910390fd5b6001600160e01b0319811681146107f7575f80fd5b5f602082840312156113ab575f80fd5b813561071681611386565b5f81518084528060208401602086015e5f602082860101526020601f19601f83011685010191505092915050565b602081525f61071660208301846113b6565b5f60208284031215611406575f80fd5b5035919050565b80356001600160a01b0381168114611423575f80fd5b919050565b5f8060408385031215611439575f80fd5b6114428361140d565b946020939093013593505050565b5f805f60608486031215611462575f80fd5b61146b8461140d565b92506114796020850161140d565b929592945050506040919091013590565b5f6020828403121561149a575f80fd5b6107168261140d565b634e487b7160e01b5f52604160045260245ffd5b5f82601f8301126114c6575f80fd5b813567ffffffffffffffff8111156114e0576114e06114a3565b604051601f8201601f19908116603f0116810167ffffffffffffffff8111828210171561150f5761150f6114a3565b604052818152838201602001851015611526575f80fd5b816020850160208301375f918101602001919091529392505050565b5f805f8060808587031215611555575f80fd5b61155e8561140d565b93506020850135925060408501359150606085013567ffffffffffffffff811115611587575f80fd5b611593878288016114b7565b91505092959194509250565b60ff60f81b8816815260e060208201525f6115bd60e08301896113b6565b82810360408401526115cf81896113b6565b606084018890526001600160a01b038716608085015260a0840186905283810360c0850152845180825260208087019350909101905f5b81811015611624578351835260209384019390920191600101611606565b50909b9a5050505050505050505050565b5f8060408385031215611646575f80fd5b61164f8361140d565b915060208301358015158114611663575f80fd5b809150509250929050565b5f805f8060808587031215611681575f80fd5b61168a8561140d565b93506116986020860161140d565b925060408501359150606085013567ffffffffffffffff811115611587575f80fd5b5f80604083850312156116cb575f80fd5b6116d48361140d565b91506116e26020840161140d565b90509250929050565b600181811c908216806116ff57607f821691505b60208210810361171d57634e487b7160e01b5f52602260045260245ffd5b50919050565b6020808252602d908201527f4552433732313a2063616c6c6572206973206e6f7420746f6b656e206f776e6560408201526c1c881bdc88185c1c1c9bdd9959609a1b606082015260800190565b5f81518060208401855e5f93019283525090919050565b5f6108bd6117958386611770565b84611770565b60208082526032908201527f4552433732313a207472616e7366657220746f206e6f6e20455243373231526560408201527131b2b4bb32b91034b6b83632b6b2b73a32b960711b606082015260800190565b60208082526025908201527f4552433732313a207472616e736665722066726f6d20696e636f72726563742060408201526437bbb732b960d91b606082015260800190565b828152604060208201525f6108bd60408301846113b6565b5f6107168284611770565b5f60208284031215611865575f80fd5b815161071681611386565b6001600160a01b03858116825284166020820152604081018390526080606082018190525f90611087908301846113b656fea26469706673582212204a3fbd831f3e732f1e234928e79e6b0d7c727117bd09986065f883cb2545e80e64736f6c634300081a0033",
    "sourcePath": "/Users/admin/workspace/50Self_project/ttswap-core/Contracts/ERC721Permit.sol",
    "compiler": {
        "name": "solc",
        "version": "0.8.26+commit.8a97fa7a"
    },
    "functionHashes": {
        "DOMAIN_SEPARATOR()": "3644e515",
        "approve(address,uint256)": "095ea7b3",
        "balanceOf(address)": "70a08231",
        "eip712Domain()": "84b0196e",
        "getApproved(uint256)": "081812fc",
        "isApprovedForAll(address,address)": "e985e9c5",
        "name()": "06fdde03",
        "nonces(uint256)": "141a468c",
        "ownerOf(uint256)": "6352211e",
        "permit(address,uint256,uint256,bytes)": "745a41bc",
        "safeTransferFrom(address,address,uint256)": "42842e0e",
        "safeTransferFrom(address,address,uint256,bytes)": "b88d4fde",
        "setApprovalForAll(address,bool)": "a22cb465",
        "supportsInterface(bytes4)": "01ffc9a7",
        "symbol()": "95d89b41",
        "tokenURI(uint256)": "c87b56dd",
        "transferFrom(address,address,uint256)": "23b872dd"
    },
    "gasEstimates": {
        "creation": {
            "codeDepositCost": "1272000",
            "executionCost": "infinite",
            "totalCost": "infinite"
        },
        "external": {
            "DOMAIN_SEPARATOR()": "infinite",
            "approve(address,uint256)": "infinite",
            "balanceOf(address)": "2630",
            "eip712Domain()": "infinite",
            "getApproved(uint256)": "4787",
            "isApprovedForAll(address,address)": "infinite",
            "name()": "infinite",
            "nonces(uint256)": "2489",
            "ownerOf(uint256)": "2558",
            "permit(address,uint256,uint256,bytes)": "infinite",
            "safeTransferFrom(address,address,uint256)": "infinite",
            "safeTransferFrom(address,address,uint256,bytes)": "infinite",
            "setApprovalForAll(address,bool)": "26724",
            "supportsInterface(bytes4)": "infinite",
            "symbol()": "infinite",
            "tokenURI(uint256)": "infinite",
            "transferFrom(address,address,uint256)": "infinite"
        },
        "internal": {
            "_isValidContractERC1271Signature(address,bytes32,bytes memory)": "infinite",
            "_permit(address,uint256,uint256,bytes memory)": "infinite",
            "_transfer(address,address,uint256)": "infinite"
        }
    }
}