{
    "contractName": "MarketManager",
    "abi": [
        {
            "inputs": [
                {
                    "internalType": "uint256",
                    "name": "_marketconfig",
                    "type": "uint256"
                },
                {
                    "internalType": "address",
                    "name": "_officialcontract",
                    "type": "address"
                }
            ],
            "stateMutability": "nonpayable",
            "type": "constructor"
        },
        {
            "inputs": [],
            "name": "ERC20TransferFailed",
            "type": "error"
        },
        {
            "inputs": [],
            "name": "InvalidShortString",
            "type": "error"
        },
        {
            "inputs": [],
            "name": "NativeTransferFailed",
            "type": "error"
        },
        {
            "inputs": [
                {
                    "internalType": "string",
                    "name": "str",
                    "type": "string"
                }
            ],
            "name": "StringTooLong",
            "type": "error"
        },
        {
            "anonymous": false,
            "inputs": [
                {
                    "indexed": true,
                    "internalType": "address",
                    "name": "owner",
                    "type": "address"
                },
                {
                    "indexed": true,
                    "internalType": "address",
                    "name": "approved",
                    "type": "address"
                },
                {
                    "indexed": true,
                    "internalType": "uint256",
                    "name": "tokenId",
                    "type": "uint256"
                }
            ],
            "name": "Approval",
            "type": "event"
        },
        {
            "anonymous": false,
            "inputs": [
                {
                    "indexed": true,
                    "internalType": "address",
                    "name": "owner",
                    "type": "address"
                },
                {
                    "indexed": true,
                    "internalType": "address",
                    "name": "operator",
                    "type": "address"
                },
                {
                    "indexed": false,
                    "internalType": "bool",
                    "name": "approved",
                    "type": "bool"
                }
            ],
            "name": "ApprovalForAll",
            "type": "event"
        },
        {
            "anonymous": false,
            "inputs": [],
            "name": "EIP712DomainChanged",
            "type": "event"
        },
        {
            "anonymous": false,
            "inputs": [
                {
                    "indexed": true,
                    "internalType": "address",
                    "name": "from",
                    "type": "address"
                },
                {
                    "indexed": true,
                    "internalType": "address",
                    "name": "to",
                    "type": "address"
                },
                {
                    "indexed": true,
                    "internalType": "uint256",
                    "name": "tokenId",
                    "type": "uint256"
                }
            ],
            "name": "Transfer",
            "type": "event"
        },
        {
            "anonymous": false,
            "inputs": [
                {
                    "indexed": false,
                    "internalType": "address",
                    "name": "_user",
                    "type": "address"
                }
            ],
            "name": "e_addbanlist",
            "type": "event"
        },
        {
            "anonymous": false,
            "inputs": [
                {
                    "indexed": false,
                    "internalType": "address",
                    "name": "referals",
                    "type": "address"
                }
            ],
            "name": "e_addreferal",
            "type": "event"
        },
        {
            "anonymous": false,
            "inputs": [
                {
                    "indexed": true,
                    "internalType": "uint256",
                    "name": "sellgood",
                    "type": "uint256"
                },
                {
                    "indexed": true,
                    "internalType": "uint256",
                    "name": "forgood",
                    "type": "uint256"
                },
                {
                    "indexed": false,
                    "internalType": "address",
                    "name": "fromer",
                    "type": "address"
                },
                {
                    "indexed": false,
                    "internalType": "uint128",
                    "name": "swapvalue",
                    "type": "uint128"
                },
                {
                    "indexed": false,
                    "internalType": "T_BalanceUINT256",
                    "name": "sellgoodstate",
                    "type": "uint256"
                },
                {
                    "indexed": false,
                    "internalType": "T_BalanceUINT256",
                    "name": "forgoodstate",
                    "type": "uint256"
                }
            ],
            "name": "e_buyGood",
            "type": "event"
        },
        {
            "anonymous": false,
            "inputs": [
                {
                    "indexed": true,
                    "internalType": "uint256",
                    "name": "buygood",
                    "type": "uint256"
                },
                {
                    "indexed": true,
                    "internalType": "uint256",
                    "name": "usegood",
                    "type": "uint256"
                },
                {
                    "indexed": false,
                    "internalType": "address",
                    "name": "fromer",
                    "type": "address"
                },
                {
                    "indexed": false,
                    "internalType": "address",
                    "name": "receipt",
                    "type": "address"
                },
                {
                    "indexed": false,
                    "internalType": "uint128",
                    "name": "swapvalue",
                    "type": "uint128"
                },
                {
                    "indexed": false,
                    "internalType": "T_BalanceUINT256",
                    "name": "buygoodstate",
                    "type": "uint256"
                },
                {
                    "indexed": false,
                    "internalType": "T_BalanceUINT256",
                    "name": "usegoodstate",
                    "type": "uint256"
                }
            ],
            "name": "e_buyGoodForPay",
            "type": "event"
        },
        {
            "anonymous": false,
            "inputs": [
                {
                    "indexed": true,
                    "internalType": "uint256",
                    "name": "_goodid",
                    "type": "uint256"
                },
                {
                    "indexed": false,
                    "internalType": "address",
                    "name": "_owner",
                    "type": "address"
                },
                {
                    "indexed": false,
                    "internalType": "address",
                    "name": "_to",
                    "type": "address"
                }
            ],
            "name": "e_changeOwner",
            "type": "event"
        },
        {
            "anonymous": false,
            "inputs": [
                {
                    "indexed": false,
                    "internalType": "uint256",
                    "name": "goodid",
                    "type": "uint256"
                },
                {
                    "indexed": false,
                    "internalType": "address",
                    "name": "to",
                    "type": "address"
                }
            ],
            "name": "e_changegoodowner",
            "type": "event"
        },
        {
            "anonymous": false,
            "inputs": [
                {
                    "indexed": true,
                    "internalType": "uint256",
                    "name": "_proofNo",
                    "type": "uint256"
                },
                {
                    "indexed": false,
                    "internalType": "uint256",
                    "name": "_normalGoodNo",
                    "type": "uint256"
                },
                {
                    "indexed": false,
                    "internalType": "uint256",
                    "name": "_valueGoodNo",
                    "type": "uint256"
                },
                {
                    "indexed": false,
                    "internalType": "T_BalanceUINT256",
                    "name": "_profit",
                    "type": "uint256"
                }
            ],
            "name": "e_collectProof",
            "type": "event"
        },
        {
            "anonymous": false,
            "inputs": [
                {
                    "indexed": false,
                    "internalType": "uint256",
                    "name": "goodid",
                    "type": "uint256"
                },
                {
                    "indexed": false,
                    "internalType": "uint256",
                    "name": "feeamount",
                    "type": "uint256"
                }
            ],
            "name": "e_collectProtocolFee",
            "type": "event"
        },
        {
            "anonymous": false,
            "inputs": [
                {
                    "indexed": false,
                    "internalType": "uint256[]",
                    "name": "_gooid",
                    "type": "uint256[]"
                },
                {
                    "indexed": false,
                    "internalType": "uint256[]",
                    "name": "_commisionamount",
                    "type": "uint256[]"
                }
            ],
            "name": "e_collectcommission",
            "type": "event"
        },
        {
            "anonymous": false,
            "inputs": [
                {
                    "indexed": true,
                    "internalType": "uint256",
                    "name": "_proofNo",
                    "type": "uint256"
                },
                {
                    "indexed": false,
                    "internalType": "T_BalanceUINT256",
                    "name": "_extendinfo",
                    "type": "uint256"
                },
                {
                    "indexed": false,
                    "internalType": "uint256",
                    "name": "_valueGoodNo",
                    "type": "uint256"
                },
                {
                    "indexed": false,
                    "internalType": "T_BalanceUINT256",
                    "name": "_value",
                    "type": "uint256"
                },
                {
                    "indexed": false,
                    "internalType": "T_BalanceUINT256",
                    "name": "_normalgood",
                    "type": "uint256"
                },
                {
                    "indexed": false,
                    "internalType": "T_BalanceUINT256",
                    "name": "_valuegood",
                    "type": "uint256"
                },
                {
                    "indexed": false,
                    "internalType": "T_BalanceUINT256",
                    "name": "_profit",
                    "type": "uint256"
                }
            ],
            "name": "e_disinvestProof",
            "type": "event"
        },
        {
            "anonymous": false,
            "inputs": [
                {
                    "indexed": false,
                    "internalType": "uint256",
                    "name": "_goodid",
                    "type": "uint256"
                },
                {
                    "indexed": false,
                    "internalType": "uint256",
                    "name": "_valuegood",
                    "type": "uint256"
                },
                {
                    "indexed": false,
                    "internalType": "uint256",
                    "name": "_quantity",
                    "type": "uint256"
                }
            ],
            "name": "e_enpower",
            "type": "event"
        },
        {
            "anonymous": false,
            "inputs": [
                {
                    "indexed": false,
                    "internalType": "uint256",
                    "name": "goodid",
                    "type": "uint256"
                },
                {
                    "indexed": false,
                    "internalType": "uint128",
                    "name": "welfare",
                    "type": "uint128"
                }
            ],
            "name": "e_goodWelfare",
            "type": "event"
        },
        {
            "anonymous": false,
            "inputs": [
                {
                    "indexed": false,
                    "internalType": "uint256",
                    "name": "_proofNo",
                    "type": "uint256"
                },
                {
                    "indexed": false,
                    "internalType": "T_BalanceUINT256",
                    "name": "_extendinfo",
                    "type": "uint256"
                },
                {
                    "indexed": false,
                    "internalType": "uint256",
                    "name": "_valuegoodNo",
                    "type": "uint256"
                },
                {
                    "indexed": false,
                    "internalType": "address",
                    "name": "_erc20address",
                    "type": "address"
                },
                {
                    "indexed": false,
                    "internalType": "uint256",
                    "name": "_goodConfig",
                    "type": "uint256"
                },
                {
                    "indexed": false,
                    "internalType": "T_BalanceUINT256",
                    "name": "_normalinitial",
                    "type": "uint256"
                },
                {
                    "indexed": false,
                    "internalType": "T_BalanceUINT256",
                    "name": "_value",
                    "type": "uint256"
                }
            ],
            "name": "e_initGood",
            "type": "event"
        },
        {
            "anonymous": false,
            "inputs": [
                {
                    "indexed": false,
                    "internalType": "uint256",
                    "name": "_proofNo",
                    "type": "uint256"
                },
                {
                    "indexed": false,
                    "internalType": "T_BalanceUINT256",
                    "name": "_extendinfo",
                    "type": "uint256"
                },
                {
                    "indexed": false,
                    "internalType": "address",
                    "name": "_erc20address",
                    "type": "address"
                },
                {
                    "indexed": false,
                    "internalType": "uint256",
                    "name": "_goodConfig",
                    "type": "uint256"
                },
                {
                    "indexed": false,
                    "internalType": "T_BalanceUINT256",
                    "name": "_initial",
                    "type": "uint256"
                }
            ],
            "name": "e_initMetaGood",
            "type": "event"
        },
        {
            "anonymous": false,
            "inputs": [
                {
                    "indexed": true,
                    "internalType": "uint256",
                    "name": "_proofNo",
                    "type": "uint256"
                },
                {
                    "indexed": false,
                    "internalType": "T_BalanceUINT256",
                    "name": "_extendinfo",
                    "type": "uint256"
                },
                {
                    "indexed": false,
                    "internalType": "uint256",
                    "name": "_valueGoodNo",
                    "type": "uint256"
                },
                {
                    "indexed": false,
                    "internalType": "T_BalanceUINT256",
                    "name": "_value",
                    "type": "uint256"
                },
                {
                    "indexed": false,
                    "internalType": "T_BalanceUINT256",
                    "name": "_invest",
                    "type": "uint256"
                },
                {
                    "indexed": false,
                    "internalType": "T_BalanceUINT256",
                    "name": "_valueinvest",
                    "type": "uint256"
                }
            ],
            "name": "e_investGood",
            "type": "event"
        },
        {
            "anonymous": false,
            "inputs": [
                {
                    "indexed": false,
                    "internalType": "uint256",
                    "name": "_goodid",
                    "type": "uint256"
                },
                {
                    "indexed": false,
                    "internalType": "uint256",
                    "name": "_goodconfig",
                    "type": "uint256"
                }
            ],
            "name": "e_modifyGoodConfig",
            "type": "event"
        },
        {
            "anonymous": false,
            "inputs": [
                {
                    "indexed": false,
                    "internalType": "address",
                    "name": "_user",
                    "type": "address"
                }
            ],
            "name": "e_removebanlist",
            "type": "event"
        },
        {
            "anonymous": false,
            "inputs": [
                {
                    "indexed": false,
                    "internalType": "uint256",
                    "name": "_marketconfig",
                    "type": "uint256"
                }
            ],
            "name": "e_setMarketConfig",
            "type": "event"
        },
        {
            "anonymous": false,
            "inputs": [
                {
                    "indexed": false,
                    "internalType": "uint256",
                    "name": "_goodid",
                    "type": "uint256"
                },
                {
                    "indexed": false,
                    "internalType": "uint256",
                    "name": "_goodConfig",
                    "type": "uint256"
                }
            ],
            "name": "e_updateGoodConfig",
            "type": "event"
        },
        {
            "inputs": [],
            "name": "DOMAIN_SEPARATOR",
            "outputs": [
                {
                    "internalType": "bytes32",
                    "name": "",
                    "type": "bytes32"
                }
            ],
            "stateMutability": "view",
            "type": "function"
        },
        {
            "inputs": [
                {
                    "internalType": "address",
                    "name": "_user",
                    "type": "address"
                }
            ],
            "name": "addbanlist",
            "outputs": [
                {
                    "internalType": "bool",
                    "name": "",
                    "type": "bool"
                }
            ],
            "stateMutability": "nonpayable",
            "type": "function"
        },
        {
            "inputs": [
                {
                    "internalType": "address",
                    "name": "to",
                    "type": "address"
                },
                {
                    "internalType": "uint256",
                    "name": "tokenId",
                    "type": "uint256"
                }
            ],
            "name": "approve",
            "outputs": [],
            "stateMutability": "nonpayable",
            "type": "function"
        },
        {
            "inputs": [
                {
                    "internalType": "address",
                    "name": "owner",
                    "type": "address"
                }
            ],
            "name": "balanceOf",
            "outputs": [
                {
                    "internalType": "uint256",
                    "name": "",
                    "type": "uint256"
                }
            ],
            "stateMutability": "view",
            "type": "function"
        },
        {
            "inputs": [
                {
                    "internalType": "address",
                    "name": "",
                    "type": "address"
                }
            ],
            "name": "banlist",
            "outputs": [
                {
                    "internalType": "uint256",
                    "name": "",
                    "type": "uint256"
                }
            ],
            "stateMutability": "view",
            "type": "function"
        },
        {
            "inputs": [
                {
                    "internalType": "uint256",
                    "name": "_goodid1",
                    "type": "uint256"
                },
                {
                    "internalType": "uint256",
                    "name": "_goodid2",
                    "type": "uint256"
                },
                {
                    "internalType": "uint128",
                    "name": "_swapQuantity",
                    "type": "uint128"
                },
                {
                    "internalType": "T_BalanceUINT256",
                    "name": "_limitPrice",
                    "type": "uint256"
                },
                {
                    "internalType": "bool",
                    "name": "_istotal",
                    "type": "bool"
                },
                {
                    "internalType": "address",
                    "name": "_referal",
                    "type": "address"
                }
            ],
            "name": "buyGood",
            "outputs": [
                {
                    "internalType": "uint128",
                    "name": "goodid2Quantity_",
                    "type": "uint128"
                },
                {
                    "internalType": "uint128",
                    "name": "goodid2FeeQuantity_",
                    "type": "uint128"
                }
            ],
            "stateMutability": "payable",
            "type": "function"
        },
        {
            "inputs": [
                {
                    "internalType": "uint256",
                    "name": "_goodid1",
                    "type": "uint256"
                },
                {
                    "internalType": "uint256",
                    "name": "_goodid2",
                    "type": "uint256"
                },
                {
                    "internalType": "uint128",
                    "name": "_swapQuantity",
                    "type": "uint128"
                },
                {
                    "internalType": "T_BalanceUINT256",
                    "name": "_limitPrice",
                    "type": "uint256"
                },
                {
                    "internalType": "address",
                    "name": "_recipent",
                    "type": "address"
                }
            ],
            "name": "buyGoodForPay",
            "outputs": [
                {
                    "internalType": "uint128",
                    "name": "goodid1Quantity_",
                    "type": "uint128"
                },
                {
                    "internalType": "uint128",
                    "name": "goodid1FeeQuantity_",
                    "type": "uint128"
                }
            ],
            "stateMutability": "payable",
            "type": "function"
        },
        {
            "inputs": [
                {
                    "internalType": "uint256",
                    "name": "_goodid",
                    "type": "uint256"
                },
                {
                    "internalType": "address",
                    "name": "_to",
                    "type": "address"
                }
            ],
            "name": "changeGoodOwner",
            "outputs": [],
            "stateMutability": "nonpayable",
            "type": "function"
        },
        {
            "inputs": [
                {
                    "internalType": "uint256[]",
                    "name": "_goodid",
                    "type": "uint256[]"
                }
            ],
            "name": "collectCommission",
            "outputs": [],
            "stateMutability": "nonpayable",
            "type": "function"
        },
        {
            "inputs": [
                {
                    "internalType": "uint256",
                    "name": "_proofid",
                    "type": "uint256"
                },
                {
                    "internalType": "address",
                    "name": "_gater",
                    "type": "address"
                }
            ],
            "name": "collectProof",
            "outputs": [
                {
                    "internalType": "T_BalanceUINT256",
                    "name": "profit_",
                    "type": "uint256"
                }
            ],
            "stateMutability": "nonpayable",
            "type": "function"
        },
        {
            "inputs": [
                {
                    "internalType": "uint256",
                    "name": "_proofid",
                    "type": "uint256"
                },
                {
                    "internalType": "uint128",
                    "name": "_goodQuantity",
                    "type": "uint128"
                },
                {
                    "internalType": "address",
                    "name": "_gater",
                    "type": "address"
                }
            ],
            "name": "disinvestProof",
            "outputs": [
                {
                    "internalType": "bool",
                    "name": "",
                    "type": "bool"
                }
            ],
            "stateMutability": "nonpayable",
            "type": "function"
        },
        {
            "inputs": [],
            "name": "eip712Domain",
            "outputs": [
                {
                    "internalType": "bytes1",
                    "name": "fields",
                    "type": "bytes1"
                },
                {
                    "internalType": "string",
                    "name": "name",
                    "type": "string"
                },
                {
                    "internalType": "string",
                    "name": "version",
                    "type": "string"
                },
                {
                    "internalType": "uint256",
                    "name": "chainId",
                    "type": "uint256"
                },
                {
                    "internalType": "address",
                    "name": "verifyingContract",
                    "type": "address"
                },
                {
                    "internalType": "bytes32",
                    "name": "salt",
                    "type": "bytes32"
                },
                {
                    "internalType": "uint256[]",
                    "name": "extensions",
                    "type": "uint256[]"
                }
            ],
            "stateMutability": "view",
            "type": "function"
        },
        {
            "inputs": [
                {
                    "internalType": "uint256",
                    "name": "tokenId",
                    "type": "uint256"
                }
            ],
            "name": "getApproved",
            "outputs": [
                {
                    "internalType": "address",
                    "name": "",
                    "type": "address"
                }
            ],
            "stateMutability": "view",
            "type": "function"
        },
        {
            "inputs": [
                {
                    "internalType": "uint256",
                    "name": "goodkey",
                    "type": "uint256"
                }
            ],
            "name": "getGoodState",
            "outputs": [
                {
                    "components": [
                        {
                            "internalType": "uint256",
                            "name": "goodConfig",
                            "type": "uint256"
                        },
                        {
                            "internalType": "address",
                            "name": "owner",
                            "type": "address"
                        },
                        {
                            "internalType": "address",
                            "name": "erc20address",
                            "type": "address"
                        },
                        {
                            "internalType": "T_BalanceUINT256",
                            "name": "currentState",
                            "type": "uint256"
                        },
                        {
                            "internalType": "T_BalanceUINT256",
                            "name": "investState",
                            "type": "uint256"
                        },
                        {
                            "internalType": "T_BalanceUINT256",
                            "name": "feeQunitityState",
                            "type": "uint256"
                        }
                    ],
                    "internalType": "struct L_Good.S_GoodTmpState",
                    "name": "",
                    "type": "tuple"
                }
            ],
            "stateMutability": "view",
            "type": "function"
        },
        {
            "inputs": [
                {
                    "internalType": "uint256",
                    "name": "proofid",
                    "type": "uint256"
                }
            ],
            "name": "getProofState",
            "outputs": [
                {
                    "components": [
                        {
                            "internalType": "uint256",
                            "name": "currentgood",
                            "type": "uint256"
                        },
                        {
                            "internalType": "uint256",
                            "name": "valuegood",
                            "type": "uint256"
                        },
                        {
                            "internalType": "T_BalanceUINT256",
                            "name": "state",
                            "type": "uint256"
                        },
                        {
                            "internalType": "T_BalanceUINT256",
                            "name": "invest",
                            "type": "uint256"
                        },
                        {
                            "internalType": "T_BalanceUINT256",
                            "name": "valueinvest",
                            "type": "uint256"
                        }
                    ],
                    "internalType": "struct L_Proof.S_ProofState",
                    "name": "",
                    "type": "tuple"
                }
            ],
            "stateMutability": "view",
            "type": "function"
        },
        {
            "inputs": [],
            "name": "goodNum",
            "outputs": [
                {
                    "internalType": "uint256",
                    "name": "",
                    "type": "uint256"
                }
            ],
            "stateMutability": "view",
            "type": "function"
        },
        {
            "inputs": [
                {
                    "internalType": "uint256",
                    "name": "goodid",
                    "type": "uint256"
                },
                {
                    "internalType": "uint128",
                    "name": "welfare",
                    "type": "uint128"
                }
            ],
            "name": "goodWelfare",
            "outputs": [],
            "stateMutability": "payable",
            "type": "function"
        },
        {
            "inputs": [
                {
                    "internalType": "uint256",
                    "name": "_valuegood",
                    "type": "uint256"
                },
                {
                    "internalType": "T_BalanceUINT256",
                    "name": "_initial",
                    "type": "uint256"
                },
                {
                    "internalType": "address",
                    "name": "_erc20address",
                    "type": "address"
                },
                {
                    "internalType": "uint256",
                    "name": "_goodConfig",
                    "type": "uint256"
                }
            ],
            "name": "initGood",
            "outputs": [
                {
                    "internalType": "bool",
                    "name": "",
                    "type": "bool"
                }
            ],
            "stateMutability": "payable",
            "type": "function"
        },
        {
            "inputs": [
                {
                    "internalType": "address",
                    "name": "_erc20address",
                    "type": "address"
                },
                {
                    "internalType": "T_BalanceUINT256",
                    "name": "_initial",
                    "type": "uint256"
                },
                {
                    "internalType": "uint256",
                    "name": "_goodConfig",
                    "type": "uint256"
                }
            ],
            "name": "initMetaGood",
            "outputs": [
                {
                    "internalType": "bool",
                    "name": "",
                    "type": "bool"
                }
            ],
            "stateMutability": "payable",
            "type": "function"
        },
        {
            "inputs": [
                {
                    "internalType": "uint256",
                    "name": "_togood",
                    "type": "uint256"
                },
                {
                    "internalType": "uint256",
                    "name": "_valuegood",
                    "type": "uint256"
                },
                {
                    "internalType": "uint128",
                    "name": "_quantity",
                    "type": "uint128"
                }
            ],
            "name": "investGood",
            "outputs": [
                {
                    "internalType": "bool",
                    "name": "",
                    "type": "bool"
                }
            ],
            "stateMutability": "payable",
            "type": "function"
        },
        {
            "inputs": [
                {
                    "internalType": "address",
                    "name": "owner",
                    "type": "address"
                },
                {
                    "internalType": "address",
                    "name": "operator",
                    "type": "address"
                }
            ],
            "name": "isApprovedForAll",
            "outputs": [
                {
                    "internalType": "bool",
                    "name": "",
                    "type": "bool"
                }
            ],
            "stateMutability": "view",
            "type": "function"
        },
        {
            "inputs": [
                {
                    "internalType": "uint256",
                    "name": "goodid",
                    "type": "uint256"
                },
                {
                    "internalType": "uint256",
                    "name": "valuegood",
                    "type": "uint256"
                },
                {
                    "internalType": "uint256",
                    "name": "compareprice",
                    "type": "uint256"
                }
            ],
            "name": "ishigher",
            "outputs": [
                {
                    "internalType": "bool",
                    "name": "",
                    "type": "bool"
                }
            ],
            "stateMutability": "view",
            "type": "function"
        },
        {
            "inputs": [],
            "name": "marketconfig",
            "outputs": [
                {
                    "internalType": "uint256",
                    "name": "",
                    "type": "uint256"
                }
            ],
            "stateMutability": "view",
            "type": "function"
        },
        {
            "inputs": [
                {
                    "internalType": "uint256",
                    "name": "_goodid",
                    "type": "uint256"
                },
                {
                    "internalType": "uint256",
                    "name": "_goodConfig",
                    "type": "uint256"
                }
            ],
            "name": "modifyGoodConfig",
            "outputs": [
                {
                    "internalType": "bool",
                    "name": "",
                    "type": "bool"
                }
            ],
            "stateMutability": "nonpayable",
            "type": "function"
        },
        {
            "inputs": [],
            "name": "name",
            "outputs": [
                {
                    "internalType": "string",
                    "name": "",
                    "type": "string"
                }
            ],
            "stateMutability": "view",
            "type": "function"
        },
        {
            "inputs": [
                {
                    "internalType": "uint256",
                    "name": "tokenId",
                    "type": "uint256"
                }
            ],
            "name": "nonces",
            "outputs": [
                {
                    "internalType": "uint256",
                    "name": "",
                    "type": "uint256"
                }
            ],
            "stateMutability": "view",
            "type": "function"
        },
        {
            "inputs": [
                {
                    "internalType": "uint256",
                    "name": "tokenId",
                    "type": "uint256"
                }
            ],
            "name": "ownerOf",
            "outputs": [
                {
                    "internalType": "address",
                    "name": "",
                    "type": "address"
                }
            ],
            "stateMutability": "view",
            "type": "function"
        },
        {
            "inputs": [
                {
                    "internalType": "uint256",
                    "name": "_goodid",
                    "type": "uint256"
                },
                {
                    "internalType": "uint256",
                    "name": "_payquanity",
                    "type": "uint256"
                },
                {
                    "internalType": "address",
                    "name": "_recipent",
                    "type": "address"
                }
            ],
            "name": "payGood",
            "outputs": [
                {
                    "internalType": "bool",
                    "name": "",
                    "type": "bool"
                }
            ],
            "stateMutability": "payable",
            "type": "function"
        },
        {
            "inputs": [
                {
                    "internalType": "address",
                    "name": "spender",
                    "type": "address"
                },
                {
                    "internalType": "uint256",
                    "name": "tokenId",
                    "type": "uint256"
                },
                {
                    "internalType": "uint256",
                    "name": "deadline",
                    "type": "uint256"
                },
                {
                    "internalType": "bytes",
                    "name": "signature",
                    "type": "bytes"
                }
            ],
            "name": "permit",
            "outputs": [],
            "stateMutability": "nonpayable",
            "type": "function"
        },
        {
            "inputs": [
                {
                    "internalType": "uint256",
                    "name": "",
                    "type": "uint256"
                }
            ],
            "name": "proofmapping",
            "outputs": [
                {
                    "internalType": "uint256",
                    "name": "",
                    "type": "uint256"
                }
            ],
            "stateMutability": "view",
            "type": "function"
        },
        {
            "inputs": [
                {
                    "internalType": "uint256[]",
                    "name": "_goodid",
                    "type": "uint256[]"
                },
                {
                    "internalType": "address",
                    "name": "_recipent",
                    "type": "address"
                }
            ],
            "name": "queryCommission",
            "outputs": [
                {
                    "internalType": "uint256[]",
                    "name": "",
                    "type": "uint256[]"
                }
            ],
            "stateMutability": "view",
            "type": "function"
        },
        {
            "inputs": [
                {
                    "internalType": "address",
                    "name": "_user",
                    "type": "address"
                }
            ],
            "name": "removebanlist",
            "outputs": [
                {
                    "internalType": "bool",
                    "name": "",
                    "type": "bool"
                }
            ],
            "stateMutability": "nonpayable",
            "type": "function"
        },
        {
            "inputs": [
                {
                    "internalType": "address",
                    "name": "from",
                    "type": "address"
                },
                {
                    "internalType": "address",
                    "name": "to",
                    "type": "address"
                },
                {
                    "internalType": "uint256",
                    "name": "tokenId",
                    "type": "uint256"
                }
            ],
            "name": "safeTransferFrom",
            "outputs": [],
            "stateMutability": "nonpayable",
            "type": "function"
        },
        {
            "inputs": [
                {
                    "internalType": "address",
                    "name": "from",
                    "type": "address"
                },
                {
                    "internalType": "address",
                    "name": "to",
                    "type": "address"
                },
                {
                    "internalType": "uint256",
                    "name": "tokenId",
                    "type": "uint256"
                },
                {
                    "internalType": "bytes",
                    "name": "data",
                    "type": "bytes"
                }
            ],
            "name": "safeTransferFrom",
            "outputs": [],
            "stateMutability": "nonpayable",
            "type": "function"
        },
        {
            "inputs": [
                {
                    "internalType": "address",
                    "name": "from",
                    "type": "address"
                },
                {
                    "internalType": "address",
                    "name": "to",
                    "type": "address"
                },
                {
                    "internalType": "uint256",
                    "name": "tokenId",
                    "type": "uint256"
                },
                {
                    "internalType": "bytes",
                    "name": "_data",
                    "type": "bytes"
                },
                {
                    "internalType": "uint256",
                    "name": "deadline",
                    "type": "uint256"
                },
                {
                    "internalType": "bytes",
                    "name": "signature",
                    "type": "bytes"
                }
            ],
            "name": "safeTransferFromWithPermit",
            "outputs": [],
            "stateMutability": "nonpayable",
            "type": "function"
        },
        {
            "inputs": [
                {
                    "internalType": "address",
                    "name": "operator",
                    "type": "address"
                },
                {
                    "internalType": "bool",
                    "name": "approved",
                    "type": "bool"
                }
            ],
            "name": "setApprovalForAll",
            "outputs": [],
            "stateMutability": "nonpayable",
            "type": "function"
        },
        {
            "inputs": [
                {
                    "internalType": "uint256",
                    "name": "_marketconfig",
                    "type": "uint256"
                }
            ],
            "name": "setMarketConfig",
            "outputs": [
                {
                    "internalType": "bool",
                    "name": "",
                    "type": "bool"
                }
            ],
            "stateMutability": "nonpayable",
            "type": "function"
        },
        {
            "inputs": [
                {
                    "internalType": "bytes4",
                    "name": "interfaceId",
                    "type": "bytes4"
                }
            ],
            "name": "supportsInterface",
            "outputs": [
                {
                    "internalType": "bool",
                    "name": "",
                    "type": "bool"
                }
            ],
            "stateMutability": "view",
            "type": "function"
        },
        {
            "inputs": [],
            "name": "symbol",
            "outputs": [
                {
                    "internalType": "string",
                    "name": "",
                    "type": "string"
                }
            ],
            "stateMutability": "view",
            "type": "function"
        },
        {
            "inputs": [
                {
                    "internalType": "uint256",
                    "name": "tokenId",
                    "type": "uint256"
                }
            ],
            "name": "tokenURI",
            "outputs": [
                {
                    "internalType": "string",
                    "name": "",
                    "type": "string"
                }
            ],
            "stateMutability": "view",
            "type": "function"
        },
        {
            "inputs": [],
            "name": "totalSupply",
            "outputs": [
                {
                    "internalType": "uint256",
                    "name": "",
                    "type": "uint256"
                }
            ],
            "stateMutability": "view",
            "type": "function"
        },
        {
            "inputs": [
                {
                    "internalType": "address",
                    "name": "from",
                    "type": "address"
                },
                {
                    "internalType": "address",
                    "name": "to",
                    "type": "address"
                },
                {
                    "internalType": "uint256",
                    "name": "tokenId",
                    "type": "uint256"
                }
            ],
            "name": "transferFrom",
            "outputs": [],
            "stateMutability": "nonpayable",
            "type": "function"
        },
        {
            "inputs": [
                {
                    "internalType": "uint256",
                    "name": "_goodid",
                    "type": "uint256"
                },
                {
                    "internalType": "uint256",
                    "name": "_goodConfig",
                    "type": "uint256"
                }
            ],
            "name": "updateGoodConfig",
            "outputs": [
                {
                    "internalType": "bool",
                    "name": "",
                    "type": "bool"
                }
            ],
            "stateMutability": "nonpayable",
            "type": "function"
        }
    ],
    "bytecode": "6101a080604052346104ba5760408161651d803803809161002082856104be565b8339810103126104ba5780516020909101516001600160a01b03811681036104ba576040516100506040826104be565b600781526020810166151514c813919560ca1b8152604051906100746040836104be565b600382526254545360e81b6020830152604051926100936040856104be565b60018452603160f81b6020850190815281519093906001600160401b0381116103ce575f54600181811c911680156104b0575b60208210146103b057601f811161044e575b50806020601f82116001146103ed575f916103e2575b508160011b915f199060031b1c1916175f555b8051906001600160401b0382116103ce5760015490600182811c921680156103c4575b60208310146103b05781601f849311610342575b50602090601f83116001146102dc575f926102d1575b50508160011b915f199060031b1c1916176001555b61016c816104e1565b6101205261017984610668565b61014052519020918260e05251902080610100524660a0526040519060208201927f8b73c3c69bb8fe3d512ecc4cf759cc79239f7b179b0ffacaa9a75d522b39400f8452604083015260608201524660808201523060a082015260a081526101e260c0826104be565b5190206080523060c0527f49ecf333e5b8c95c40fdafc95c1ad136e8914a8fb55e9dc8bb01eaa83a2df9ad6101605261018052600c55604051615d7c90816107a1823960805181613df8015260a05181613eb5015260c05181613dc2015260e05181613e4701526101005181613e6d015261012051816118200152610140518161184c01526101605181613c9e0152610180518181816105cf0152818161090c01528181610b5001528181610d0a01528181610ffa015281816114b10152818161198801528181611c0401528181611e250152818161247201528181612c80015281816135e00152613b210152f35b015190505f8061014e565b60015f9081528281209350601f198516905b81811061032a5750908460019594939210610312575b505050811b01600155610163565b01515f1960f88460031b161c191690555f8080610304565b929360206001819287860151815501950193016102ee565b60015f529091507fb10e2d527612073b26eecdfd717e6a320cf44b4afac2b0732d9fcbe2b7fa0cf6601f840160051c810191602085106103a6575b90601f859493920160051c01905b8181106103985750610138565b5f815584935060010161038b565b909150819061037d565b634e487b7160e01b5f52602260045260245ffd5b91607f1691610124565b634e487b7160e01b5f52604160045260245ffd5b90508301515f6100ee565b5f8080528181209250601f198416905b8181106104365750908360019493921061041e575b5050811b015f55610101565b8501515f1960f88460031b161c191690555f80610412565b9192602060018192868a0151815501940192016103fd565b5f80527f290decd9548b62a8d60345a988386fc84ba6bc95484008f6362f93160ef3e563601f830160051c810191602084106104a6575b601f0160051c01905b81811061049b57506100d8565b5f815560010161048e565b9091508190610485565b90607f16906100c6565b5f80fd5b601f909101601f19168101906001600160401b038211908210176103ce57604052565b908151602081105f1461055b575090601f81511161051b57602081519101516020821061050c571790565b5f198260200360031b1b161790565b604460209160405192839163305a27a960e01b83528160048401528051918291826024860152018484015e5f828201840152601f01601f19168101030190fd5b6001600160401b0381116103ce57600654600181811c9116801561065e575b60208210146103b057601f811161062b575b50602092601f82116001146105ca57928192935f926105bf575b50508160011b915f199060031b1c19161760065560ff90565b015190505f806105a6565b601f1982169360065f52805f20915f5b86811061061357508360019596106105fb575b505050811b0160065560ff90565b01515f1960f88460031b161c191690555f80806105ed565b919260206001819286850151815501940192016105da565b60065f52601f60205f20910160051c810190601f830160051c015b818110610653575061058c565b5f8155600101610646565b90607f169061057a565b908151602081105f14610693575090601f81511161051b57602081519101516020821061050c571790565b6001600160401b0381116103ce57600754600181811c91168015610796575b60208210146103b057601f8111610763575b50602092601f821160011461070257928192935f926106f7575b50508160011b915f199060031b1c19161760075560ff90565b015190505f806106de565b601f1982169360075f52805f20915f5b86811061074b5750836001959610610733575b505050811b0160075560ff90565b01515f1960f88460031b161c191690555f8080610725565b91926020600181928685015181550194019201610712565b60075f52601f60205f20910160051c810190601f830160051c015b81811061078b57506106c4565b5f815560010161077e565b90607f16906106b256fe60806040526004361015610011575f80fd5b5f3560e01c806301ffc9a7146102c457806306fdde03146102bf578063081812fc146102ba578063095ea7b3146102b55780630e21a1ac146102b0578063141a468c146102ab578063144aeb83146102a657806318160ddd146102a157806318ad50d11461029c57806323b872dd1461029757806324744d54146102925780632973ada71461028d5780632a7c5a91146102885780633644e515146102835780633f1177401461027e578063402f5ab51461027957806342842e0e1461027457806345818e4c1461026f5780634ffef9071461026a578063578496ab146102655780635a5da4dd146102605780635e008cc41461025b5780636352211e146102565780636ff73c8e1461025157806370a082311461024c578063745a41bc1461024757806384b0196e14610242578063920acbb81461023d5780639551177a1461023857806395d89b411461023357806397924ead1461022e578063a22cb46514610229578063a676a60014610224578063a6f6a9801461021f578063a7e116971461021a578063a7fed92514610215578063b153b92014610210578063b88d4fde1461020b578063c87b56dd14610206578063e985e9c514610201578063f44733ad146101fc578063f4662f20146101f75763f88c3010146101f2575f80fd5b612f09565b612bc6565b612797565b612733565b612533565b6124dd565b61243a565b6123ed565b6120f1565b611f94565b611d76565b611c8e565b611a98565b6119f3565b611950565b6118c8565b611808565b6117bc565b611719565b61165e565b611588565b61155e565b611541565b61112b565b610d75565b610cdb565b610cb2565b610c95565b610bda565b610bb8565b610b15565b610ada565b610a61565b6108cd565b61076f565b610741565b61068c565b610662565b61059a565b6104c2565b610481565b6103aa565b6102df565b6001600160e01b03198116036102db57565b5f80fd5b346102db5760203660031901126102db576004356102fc816102c9565b63ffffffff60e01b16635604e22560e01b8114908115610325575b506040519015158152602090f35b6380ac58cd60e01b811491508115610357575b8115610346575b505f610317565b6301ffc9a760e01b1490505f61033f565b635b5e139f60e01b81149150610338565b5f9103126102db57565b805180835260209291819084018484015e5f828201840152601f01601f1916010190565b9060206103a7928181520190610372565b90565b346102db575f3660031901126102db576040515f80546103c981613084565b808452906001811690811561045d5750600114610401575b6103fd836103f181850382610991565b60405191829182610396565b0390f35b5f8080527f290decd9548b62a8d60345a988386fc84ba6bc95484008f6362f93160ef3e563939250905b808210610443575090915081016020016103f16103e1565b91926001816020925483858801015201910190929161042b565b60ff191660208086019190915291151560051b840190910191506103f190506103e1565b346102db5760203660031901126102db57602061049f60043561313d565b6040516001600160a01b039091168152f35b6001600160a01b038116036102db57565b346102db5760403660031901126102db576004356104df816104b1565b6024356104eb8161346d565b916001600160a01b03808416908216811461054b5761051d9361051891331490811561051f575b50613179565b6136eb565b005b6001600160a01b03165f90815260056020908152604080832033845290915281205460ff169150610512565b60405162461bcd60e51b815260206004820152602160248201527f4552433732313a20617070726f76616c20746f2063757272656e74206f776e656044820152603960f91b6064820152608490fd5b346102db5760403660031901126102db576004356024356040516394c3c33360e01b81523360048201529091906020816024817f00000000000000000000000000000000000000000000000000000000000000006001600160a01b03165afa801561065d576002915f9161062e575b50036102db576103fd9161061c9161320c565b60405190151581529081906020820190565b610650915060203d602011610656575b6106488183610991565b8101906131eb565b5f610609565b503d61063e565b6131fa565b346102db5760203660031901126102db576004355f526008602052602060405f2054604051908152f35b346102db5760403660031901126102db576004356024355f828152600e60205260409020600101546001600160a01b031633036102db57815f52600e60205260405f20916401ffffffff60df1b83541660018060df1b038316810180911161073c577fc360eef79f1e7d7e7564e3cd446a9839f5a632a38a4d34b507c08e1ceef46147935561072d6040519283928360209093929193604081019481520152565b0390a160405160018152602090f35b613278565b346102db575f3660031901126102db576020600954604051908152f35b6001600160801b038116036102db57565b60403660031901126102db5760043560243561078a8161075e565b5f80516020615d278339815191525c6001600160a01b03166102db57335f80516020615d278339815191525d815f52600e6020526001606d1b6001600160801b036107df83600560405f20015460801c61328c565b16116102db578161084161082f60026108217f54fe3e24ce316357354d8b9553364de253d61c742d913dfd419149ddf696947a965f52600e60205260405f2090565b01546001600160a01b031690565b6001600160801b038416903390613784565b61086a6005610858835f52600e60205260405f2090565b01546108648460801b90565b90613790565b600561087e835f52600e60205260405f2090565b0155604080519182526001600160801b03929092166020820152a161051d613772565b60609060031901126102db576004356108b9816104b1565b906024356108c6816104b1565b9060443590565b346102db5761051d6108de366108a1565b6108f36108ee82949394336137bf565b6132ac565b805f52600a602052610930600260405f20015460801c837f0000000000000000000000000000000000000000000000000000000000000000613841565b505061093d8184846138de565b613a58565b634e487b7160e01b5f52604160045260245ffd5b60a081019081106001600160401b0382111761097157604052565b610942565b60c081019081106001600160401b0382111761097157604052565b90601f801991011681019081106001600160401b0382111761097157604052565b604051906109c1604083610991565b565b604051906109c1606083610991565b604051906109c160a083610991565b604051906109c161010083610991565b604051906109c160c083610991565b6001600160401b03811161097157601f01601f191660200190565b81601f820112156102db57803590610a3282610a00565b92610a406040519485610991565b828452602083830101116102db57815f926020809301838601378301015290565b346102db5760c03660031901126102db57600435610a7e816104b1565b60243590610a8b826104b1565b6044356064356001600160401b0381116102db57610aad903690600401610a1b565b6084359160a435946001600160401b0386116102db57610ad461051d963690600401610a1b565b9461330e565b346102db5760203660031901126102db57600435610af7816104b1565b60018060a01b03165f52600f602052602060405f2054604051908152f35b346102db5760403660031901126102db57600435602435610b35816104b1565b6040516394c3c33360e01b81523360048201526020816024817f00000000000000000000000000000000000000000000000000000000000000006001600160a01b03165afa801561065d576002915f91610b99575b50036102db5761051d91613326565b610bb2915060203d602011610656576106488183610991565b5f610b8a565b346102db575f3660031901126102db576020610bd2613dbf565b604051908152f35b346102db5760203660031901126102db576004355f6080604051610bfd81610956565b82815282602082015282604082015282606082015201525f52600a6020526103fd60405f20600460405191610c3183610956565b80548352600181015460208401526002810154604084015260038101546060840152015460808201526040519182918291909160808060a0830194805184526020810151602085015260408101516040850152606081015160608501520151910152565b346102db575f3660031901126102db576020600c54604051908152f35b346102db5761051d610cc3366108a1565b9060405192610cd3602085610991565b5f84526135b3565b346102db5760203660031901126102db576004356040516394c3c33360e01b81523360048201526020816024817f00000000000000000000000000000000000000000000000000000000000000006001600160a01b03165afa801561065d576002915f91610d56575b50036102db5761061c6103fd9161338c565b610d6f915060203d602011610656576106488183610991565b5f610d44565b60803660031901126102db57600435602435604435610d93816104b1565b606435905f80516020615d278339815191525c6001600160a01b03166102db57335f80516020615d278339815191525d610de5610dce6109b2565b3381526001600160a01b0383166020820152613edb565b9160018060a01b03610e046001610821865f52600e60205260405f2090565b1615806110e7575b610e1590613205565b608084901c93610e26853385613784565b610e38865f52600e60205260405f2090565b600201546001600160a01b03166001600160801b03821633610e5992613784565b610e6b865f52600e60205260405f2090565b90610e7591613f1e565b90600d54610e82906133c0565b600d55610e97845f52600e60205260405f2090565b9460408301958285838951610eb2906001600160801b031690565b60801b6001600160801b0390911617610eca93614072565b600954610ed6906133c0565b600955610ee16109c3565b338152856020820152876040820152610ef9906140c8565b60095490610f0f905f52600b60205260405f2090565b55600954610f1d9033614149565b85516001600160801b031660801b906001600160801b038116916020850151610f4c906001600160801b031690565b9260608601938451610f64906001600160801b031690565b610f7a91906001600160801b03169060801b1790565b90610f836109d2565b928984528b6020850152604084015260608301526080820152600954610fb1905f52600a60205260405f2090565b8151815560208201516001820155604082015160028201556060820151600382015560809091015160049091015586516001600160801b0316610ff3906133ce565b61101e90337f0000000000000000000000000000000000000000000000000000000000000000614240565b6009549661102b906142c3565b9751608098891b6001600160801b039283161798911691901b1792516001600160801b031690516001600160801b031661107191906001600160801b03169060801b1790565b604080519586526020860196909652948401959095526001600160a01b03919091166060830152608082019390935260a081019290925260c08201527fd5b1190461e8b8cebdd658c8dd4f092c64be24d6dae8d80a4174dad7899a814e9060e090a16110db613772565b60405160018152602090f35b50610e15611106611100875f52600e60205260405f2090565b54613f0b565b9050610e0c565b6084359081151582036102db57565b6024359081151582036102db57565b60c03660031901126102db576004356044356024356111498261075e565b6064359261115561110d565b9360a43590611163826104b1565b5f80516020615d278339815191525c6001600160a01b03166102db57335f80516020615d278339815191525d6001600160a01b0382166114af575b611236915060036111b7845f52600e60205260405f2090565b01546111cb845f52600e60205260405f2090565b5460036111e0875f52600e60205260405f2090565b01546111f4875f52600e60205260405f2090565b54916111fe6109e1565b6001600160801b038a168152935f60208601525f60408601525f6060860152608085015260a084015260c083015260e082015261432f565b936001600160801b03841690811515918261148f575b5081611484575b8161144d575b5061126390613205565b7fa79c43e220b5faf022716b06e757294b799a25f33d3c8b0121e614f7b5d988c4611296835f52600e60205260405f2090565b54946113f86112d76112d06112b560208501516001600160801b031690565b986001600160801b038a165b607f6127109260cc1c16020490565b8098613401565b956113e76113d96112f0875f52600e60205260405f2090565b92611316608087015194604088019561131087516001600160801b031690565b9161466d565b6113378b61132c8b5f52600e60205260405f2090565b60c08901519061466d565b61138261135160026108218b5f52600e60205260405f2090565b61137a61136e6113688a516001600160801b031690565b85613401565b6001600160801b031690565b903390613784565b6113ae61139c60026108218c5f52600e60205260405f2090565b6001600160801b038c16903390614687565b6113d36113c560608801516001600160801b031690565b96516001600160801b031690565b90613401565b91516001600160801b031690565b6001600160801b03169060801b1790565b604080513381526001600160801b03938416602082015290810191909152608086811b928816929092176060820152a3611430613772565b604080516001600160801b03928316815292909116602083015290f35b6001915015151480611463575b15611263611259565b5061126361147b61136e86516001600160801b031690565b1515905061145a565b828414159150611253565b9091506114a661136e87516001600160801b031690565b1415905f61124c565b7f00000000000000000000000000000000000000000000000000000000000000006001600160a01b0316803b156102db576040516301ad369b60e01b81523360048201526001600160a01b039390931660248401525f908390604490829084905af191821561065d5761123692611527575b5061119e565b806115355f61153b93610991565b80610368565b5f611521565b346102db575f3660031901126102db576020600d54604051908152f35b346102db5760203660031901126102db576004355f52600b602052602060405f2054604051908152f35b346102db5760203660031901126102db57602061049f60043561346d565b6001600160401b0381116109715760051b60200190565b9080601f830112156102db5781356115d4816115a6565b926115e26040519485610991565b81845260208085019260051b8201019283116102db57602001905b82821061160a5750505090565b81358152602091820191016115fd565b90602080835192838152019201905f5b8181106116375750505090565b825184526020938401939092019160010161162a565b9060206103a792818152019061161a565b346102db5760403660031901126102db576004356001600160401b0381116102db5761168e9036906004016115bd565b6024359061169b826104b1565b805160648110156102db576116af906134aa565b915f5b825181101561170b57806116c8600192856134dc565b515f52600e6020526001600160801b036116f884600660405f20019060018060a01b03165f5260205260405f2090565b541661170482876134dc565b52016116b2565b604051806103fd868261164d565b346102db5760203660031901126102db57600435611736816104b1565b6001600160a01b03168015611765575f5260036020526103fd60405f2054604051918291829190602083019252565b60405162461bcd60e51b815260206004820152602960248201527f4552433732313a2061646472657373207a65726f206973206e6f7420612076616044820152683634b21037bbb732b960b91b6064820152608490fd5b346102db5760803660031901126102db576004356117d9816104b1565b606435906044356024356001600160401b0384116102db5761180261051d943690600401610a1b565b92613c6b565b346102db575f3660031901126102db5761189a6118447f0000000000000000000000000000000000000000000000000000000000000000614708565b6103fd6118707f0000000000000000000000000000000000000000000000000000000000000000614759565b6118a861187b61348f565b91604051958695600f60f81b875260e0602088015260e0870190610372565b908582036040870152610372565b904660608501523060808501525f60a085015283820360c085015261161a565b60603660031901126102db576004356024356044356118e6816104b1565b5f838152600e60205260409020600201546001600160a01b0316611929575f928352600e6020526040909220600201546110db92906001600160a01b0316614687565b61194b925f52600e60205260018060a01b03600260405f200154163390614789565b6110db565b346102db5760203660031901126102db5760043561196d816104b1565b6040516394c3c33360e01b81523360048201526020816024817f00000000000000000000000000000000000000000000000000000000000000006001600160a01b03165afa801561065d576002915f916119d4575b50036102db5761061c6103fd91613504565b6119ed915060203d602011610656576106488183610991565b5f6119c2565b346102db575f3660031901126102db576040515f600154611a1381613084565b808452906001811690811561045d5750600114611a3a576103fd836103f181850382610991565b60015f9081527fb10e2d527612073b26eecdfd717e6a320cf44b4afac2b0732d9fcbe2b7fa0cf6939250905b808210611a7e575090915081016020016103f16103e1565b919260018160209254838588010152019101909291611a66565b60603660031901126102db577f9f234216268c7b4b9373c01c9d1cc757d055e68b6440edbaaf229c63a0313bc7600435611ad1816104b1565b60243561072d60443591600d541580611c7a575b611aee90613205565b611b026001600160801b0382163386613784565b611b15611b10600d546133c0565b600d55565b611b37611b206109b2565b3381526001600160a01b0386166020820152613edb565b92611b55818684611b50885f52600e60205260405f2090565b614072565b611b6f611b6a855f52600e60205260405f2090565b613755565b611b82611b7d6009546133c0565b600955565b611ba1611b8d6109c3565b3381528560208201525f60408201526140c8565b611bb6600954915f52600b60205260405f2090565b55611bc360095433614149565b611c46611c28611bdd6009545f52600a60205260405f2090565b611c015f8660801c92611bf08460801b90565b8a6001600160801b038a16926147f9565b337f0000000000000000000000000000000000000000000000000000000000000000614240565b611c34600954966142c3565b906001600160801b03169060801b1790565b94604051958695869192608093969594919660a08401978452602084015260018060a01b0316604083015260608201520152565b50611aee611c8784613f0b565b9050611ae5565b346102db5760403660031901126102db57600435611cab816104b1565b611cb361111c565b6001600160a01b03821691338314611d315781611cee611cff92335f52600560205260405f209060018060a01b03165f5260205260405f2090565b9060ff801983541691151516179055565b604051901515815233907f17307eab39ab6107e8899845ad3d59bd9653f200f220920489ca2b5937696c3190602090a3005b60405162461bcd60e51b815260206004820152601960248201527f4552433732313a20617070726f766520746f2063616c6c6572000000000000006044820152606490fd5b346102db5760403660031901126102db57600435602435611d96816104b1565b5f80516020615d278339815191525c6001600160a01b03166102db57335f80516020615d278339815191525d611dd4611dcf83336137bf565b613205565b6001611de8835f52600a60205260405f2090565b015491611dfd815f52600a60205260405f2090565b5460408051635d7b72cf60e11b81523360048201529491939190856024816001600160a01b037f0000000000000000000000000000000000000000000000000000000000000000165afa91821561065d576103fd957f172f458c2c853ed38b0114381270db7647bc1f9b612a42852353261a7e3379be93611f1c925f925f92611f60575b506001600160a01b0381165f908152600f60205260409020545f1901611f5a575081905b6001600160a01b0382811690821603611f555750815b6001600160a01b0381165f908152600f60205260409020545f1901611f4e575b611eed885f52600e60205260405f2090565b91611f00865f52600e60205260405f2090565b611f12895f52600a60205260405f2090565b90600c549461489d565b60408051958652602086019290925290840181905292606090a2611f3e613772565b6040519081529081906020820190565b5081611edb565b611ebb565b90611ea5565b909250611f85915060403d604011611f8d575b611f7d8183610991565b810190613548565b90915f611e81565b503d611f73565b346102db5760203660031901126102db576103fd6004355f60a0604051611fba81610976565b8281528260208201528260408201528260608201528260808201520152611fe9815f52600e60205260405f2090565b54906120026001610821835f52600e60205260405f2090565b9061201a6002610821835f52600e60205260405f2090565b61208f6003612031845f52600e60205260405f2090565b01549161207f60056120616004612050885f52600e60205260405f2090565b0154965f52600e60205260405f2090565b01549561206c6109f1565b9788526001600160a01b03166020880152565b6001600160a01b03166040860152565b6060840152608083015260a08201526040519182918291909160a08060c083019480518452600180831b036020820151166020850152600180831b03604082015116604085015260608101516060850152608081015160808501520151910152565b60a03660031901126102db5760443560043560243561210f8361075e565b6084359160643561211f846104b1565b5f80516020615d278339815191525c6001600160a01b03166102db576121e290335f80516020615d278339815191525d6003612163845f52600e60205260405f2090565b0154612177845f52600e60205260405f2090565b54600361218c875f52600e60205260405f2090565b01546121a0875f52600e60205260405f2090565b54916121aa6109e1565b6001600160801b038b168152935f60208601525f60408601525f6060860152608085015260a084015260c083015260e082015261498b565b9282821415806123cd575b6121f690613205565b612208825f52600e60205260405f2090565b5493602081015161221f906001600160801b031690565b946001600160801b03861661271060c59290921c607f16020494856122439161328c565b95612256855f52600e60205260405f2090565b9160c08101519260408201938451612274906001600160801b031690565b9061227e9261466d565b612290855f52600e60205260405f2090565b87608083015161229f9261466d565b6122b1865f52600e60205260405f2090565b600201546001600160a01b0316835185906001600160801b03166122d59085613401565b6001600160801b0316906122e892614687565b6122fa855f52600e60205260405f2090565b600201546001600160a01b03166001600160801b0389163361231b92613784565b606001516001600160801b031691516001600160801b031661234991906001600160801b03169060801b1790565b604080513381526001600160a01b0390941660208501526001600160801b039283169084015260608301528416608086811b91909117908201527f3de590341c976ea6fce618ef4a768a15441201ad3ed7c9b438d82c3951de7ced9060a090a36123b1613772565b604080516001600160801b039384168152919092166020820152f35b506121f66123e561136e86516001600160801b031690565b1590506121ed565b346102db5760603660031901126102db576020612430600435602435604435915f52600e8452600360405f200154905f52600e8452600360405f20015490614bd8565b6040519015158152f35b346102db5760203660031901126102db57600435612457816104b1565b6040516394c3c33360e01b81523360048201526020816024817f00000000000000000000000000000000000000000000000000000000000000006001600160a01b03165afa801561065d576002915f916124be575b50036102db5761061c6103fd9161356d565b6124d7915060203d602011610656576106488183610991565b5f6124ac565b346102db5760803660031901126102db576004356124fa816104b1565b60243590612507826104b1565b604435606435926001600160401b0384116102db5761252d61051d943690600401610a1b565b926135b3565b346102db5760203660031901126102db576004355f81815260026020526040902054612569906001600160a01b03161515613421565b604051612577606082610991565b602381527f687474703a2f2f7777772e74742d737761702e636f6d2f6e66743f70726f6f6660208201526269643d60e81b604082015281825f9372184f03e93ff9f4daa797ed6e38ed64bf6a1f0160401b81101561270d575b50806d04ee2d6d415b85acef8100000000600a9210156126f1575b662386f26fc100008110156126dc575b6305f5e1008110156126ca575b6127108110156126ba575b60648110156126ab575b10156126a0575b612660602161263560018601614c9c565b948501015b5f1901916f181899199a1a9b1b9c1cb0b131b232b360811b600a82061a8353600a900490565b908115612670576126609061263a565b6040516103fd906103f1816126928861268c602084018a613644565b90613644565b03601f198101835282610991565b600190920191612624565b6002906064900494019361261d565b6004906127109004940193612613565b6008906305f5e1009004940193612608565b601090662386f26fc1000090049401936125fb565b6020906d04ee2d6d415b85acef810000000090049401936125eb565b6040945072184f03e93ff9f4daa797ed6e38ed64bf6a1f0160401b90049050600a6125d0565b346102db5760403660031901126102db57602060ff61278b600435612757816104b1565b60243590612764826104b1565b60018060a01b03165f526005845260405f209060018060a01b03165f5260205260405f2090565b54166040519015158152f35b60603660031901126102db576044356004356024356127b58361075e565b5f80516020615d278339815191525c6001600160a01b03166102db57335f80516020615d278339815191525d6127e9613656565b506127f2613656565b916001606d1b6001600160801b0361281f866003612818865f52600e60205260405f2090565b015461328c565b16111580612bbc575b80612b81575b61283790613205565b61287f61285585612850845f52600e60205260405f2090565b613f1e565b946001600160801b036128756002610821865f52600e60205260405f2090565b9116903390613784565b8115908115612a9f575b6128a86128946109c3565b3381528260208201528460408201526140c8565b946128bb865f52600b60205260405f2090565b54958615612a62575b506128d7865f52600a60205260405f2090565b9460408201809481516128f0906001600160801b031690565b6128fa8160801b90565b916020860151612910906001600160801b031690565b9987606088019b8c51612929906001600160801b031690565b61293f91906001600160801b03169060801b1790565b60208801516001600160801b0316958c60608a01978851612966906001600160801b031690565b61297c91906001600160801b03169060801b1790565b9361298695614836565b5f14612a0e7f54327712026ec7eff19c69f41b88780daaa74a97ae2dcfa56a1de52fb0e07fcd9a6113e76113d9612a006129fa6129ec612a489d611c346129e6612a1c9d6113e79c6113d99c612a535750516001600160801b0316611c01565b916142c3565b9d516001600160801b031690565b60801b90565b99516001600160801b031690565b94516001600160801b031690565b91604051958695869192608093969594919660a084019784526020840152604083015260608201520152565b0390a26110db613772565b612a5d91506133ce565b611c01565b909550612a73611b7d6009546133c0565b612a7f60095433614149565b612a94600954915f52600b60205260405f2090565b55600954945f6128c4565b92612b7b90612ae66060612ad66003612ac0885f52600e60205260405f2090565b015460408a01516001600160801b031690614cc4565b6001600160801b03169201918252565b612b32612b25612afe865f52600e60205260405f2090565b54612b1361136e85516001600160801b031690565b603f6127109260d91c16820390040290565b6001600160801b03168252565b612b60612b4c6002610821875f52600e60205260405f2090565b61137a61136e84516001600160801b031690565b612b756113d9855f52600e60205260405f2090565b90613f1e565b92612889565b50612b97611100825f52600e60205260405f2090565b8061282e5750612837612bb5611100845f52600e60205260405f2090565b905061282e565b5081811415612828565b346102db5760603660031901126102db57600435602435612be68161075e565b60443590612bf3826104b1565b5f80516020615d278339815191525c6001600160a01b03166102db57335f80516020615d278339815191525d612c2c611dcf84336137bf565b612c3461368a565b50612c3d61368a565b50612c50835f52600a60205260405f2090565b54906001612c66855f52600a60205260405f2090565b015460408051635d7b72cf60e11b815233600482015291937f000000000000000000000000000000000000000000000000000000000000000093909291826024816001600160a01b0388165afa91821561065d5787612ddd937f4741de4d43f1462a092cdf2a25cfc5d5bdf2c96f169d5e64121e800b6fc417ee985f935f92612ee5575b506001600160a01b0381165f908152600f60205260409020545f1901612edd57905b6001600160a01b0382811690821603612ed85750825b6001600160a01b0381165f908152600f60205260409020545f1901612ece57612dd890935b612d59885f52600e60205260405f2090565b92612dc3612d81612d728d5f52600e60205260405f2090565b965f52600a60205260405f2090565b96612db3600c5493612da3612d946109d2565b6001600160801b03909c168c52565b6001600160a01b031660208b0152565b6001600160a01b03166040890152565b60608701526001600160a01b03166080860152565b614d45565b929091908386612ea8575b50612e1e90612e0b611c34612e0387612a4898993390613841565b9190936142c3565b95906001600160801b03169060801b1790565b91612e78612e4c612e3960208501516001600160801b031690565b60408501516001600160801b03166113e7565b916113e76113d9612e6a612e3960208501516001600160801b031690565b95516001600160801b031690565b92604051968796879260a094919796959260c0850198855260208501526040840152606083015260808201520152565b612a48945090612e0b611c34612e03612ec3612e1e956133ce565b975050505090612de8565b50612dd883612d47565b612d22565b508290612d0c565b909350612f01915060403d604011611f8d57611f7d8183610991565b90925f612cea565b346102db5760203660031901126102db576004356001600160401b0381116102db57612f399036906004016115bd565b612f4f8151612f4a60648210613205565b6134aa565b5f5b825181101561304d57600190612fa861136e612f9b336006612f85612f76878b6134dc565b515f52600e60205260405f2090565b019060018060a01b03165f5260205260405f2090565b546001600160801b031690565b612fb282856134dc565b526002612fbf82856134dc565b511015612fd9575f612fd182856134dc565b525b01612f51565b612fec612fe682856134dc565b516136b8565b612ff682856134dc565b5261302061300d336006612f85612f76868a6134dc565b80546001600160801b0319166001179055565b6130486130356002610821612f7685896134dc565b61303f83866134dc565b51903390614687565b612fd3565b507f8124a8d085ceb98e89ac6906c6e138dca5fdbc28a91438e33d7a2ab6c75742fd9161307f604051928392836136c6565b0390a1005b90600182811c921680156130b2575b602083101461309e57565b634e487b7160e01b5f52602260045260245ffd5b91607f1691613093565b5f92918154916130cb83613084565b808352926001811690811561312057506001146130e757505050565b5f9081526020812093945091925b838310613106575060209250010190565b6001816020929493945483858701015201910191906130f5565b915050602093945060ff929192191683830152151560051b010190565b5f8181526002602052604090205461315f906001600160a01b03161515613421565b5f908152600460205260409020546001600160a01b031690565b1561318057565b60405162461bcd60e51b815260206004820152603d60248201527f4552433732313a20617070726f76652063616c6c6572206973206e6f7420746f60448201527f6b656e206f776e6572206f7220617070726f76656420666f7220616c6c0000006064820152608490fd5b908160209103126102db575190565b6040513d5f823e3d90fd5b156102db57565b90815f52600e60205260405f209160018060df1b038354168260df1b8101809111613278577f5af113730f9ee4153f120c893809feafa233584bbe5e93b5d78e0699c9c8ca5693556132706040519283928360209093929193604081019481520152565b0390a1600190565b634e487b7160e01b5f52601160045260245ffd5b906001600160801b03809116911601906001600160801b03821161073c57565b156132b357565b60405162461bcd60e51b815260206004820152602d60248201527f4552433732313a2063616c6c6572206973206e6f7420746f6b656e206f776e6560448201526c1c881bdc88185c1c1c9bdd9959609a1b6064820152608490fd5b909192936109c195613321918533613c6b565b6135b3565b5f818152600e60205260409081902060010180546001600160a01b0319166001600160a01b0385161790557f0dccb79e09923e42093e54de6132ceba9b88b094d10632520f6eeb8058a6721c9290919082519182526001600160a01b03166020820152a1565b60207fbd209961024f2694b0afb3c8badd20b6477abb77b336b16892c3fa4b906d323c9180600c55604051908152a1600190565b906001820180921161073c57565b60011b907001fffffffffffffffffffffffffffffffe6ffffffffffffffffffffffffffffffffe83169216820361073c57565b906001600160801b03809116911603906001600160801b03821161073c57565b1561342857565b60405162461bcd60e51b815260206004820152601860248201527f4552433732313a20696e76616c696420746f6b656e20494400000000000000006044820152606490fd5b5f908152600260205260409020546001600160a01b03166103a7811515613421565b6040519061349e602083610991565b5f808352366020840137565b906134b4826115a6565b6134c16040519182610991565b82815280926134d2601f19916115a6565b0190602036910137565b80518210156134f05760209160051b010190565b634e487b7160e01b5f52603260045260245ffd5b60207e4ba2ca448db089eb9fb0b25431f0d57664d46141171fed2476281b578d96d49160018060a01b0316805f52600f82525f6040812055604051908152a1600190565b91908260409103126102db5760208251613561816104b1565b9201516103a7816104b1565b60207f8e1c2d1a5dce36a56a9dfcb96e5816e793c16d6c897b4e3c0b1f99588bb88a1c9160018060a01b0316805f52600f8252600160405f2055604051908152a1600190565b909192613619906135c76108ee86336137bf565b845f52600a602052613604600260405f20015460801c847f0000000000000000000000000000000000000000000000000000000000000000613841565b50506136118585856138de565b848484615aee565b15613627576109c192613a58565b60405162461bcd60e51b81528061364060048201614c24565b0390fd5b805191908290602001825e015f815290565b60405190608082018281106001600160401b03821117610971576040525f6060838281528260208201528260408201520152565b60405190606082018281106001600160401b03821117610971576040525f6040838281528260208201520152565b5f1981019190821161073c57565b90916136dd6103a79360408452604084019061161a565b91602081840391015261161a565b5f82815260046020526040902080546001600160a01b0319166001600160a01b0383161790556001600160a01b036137228361346d565b6001600160a01b0390921691167f8c5be1e5ebec7d5bd14f71427d1e84f3dd0314c0f7b2291e5b200ac8c7c3b9255f80a4565b80546001600160df1b0316600160ff1b81019190821061073c5755565b5f5f80516020615d278339815191525d565b6109c192913091614789565b6113e7906137a58360801d8260801d016142c3565b926001600160801b0316906001600160801b0316016142c3565b6001600160a01b036137d08361346d565b6001600160a01b0383169116818114939192908415613811575b505082156137f757505090565b9091506001600160a01b039061380c9061313d565b161490565b5f9081526005602090815260408083206001600160a01b039490941683529290529081205460ff169350806137ea565b60408051637bd3ca3560e01b81526001600160a01b0393841660048201526001600160801b0394909416602485015292939291849160449183915f91165af191821561065d575f905f9361389457509190565b9250506040823d6040116138d6575b816138b060409383610991565b810103126102db5760208251926138c68461075e565b0151916138d28361075e565b9190565b3d91506138a3565b825f52600860205260405f20600181540190556138fa8361346d565b6001600160a01b038083169291613913911683146152bb565b6001600160a01b038316928315613a075761398b6139e19261394d8561394761393b8a61346d565b6001600160a01b031690565b146152bb565b613972613962885f52600460205260405f2090565b80546001600160a01b0319169055565b6001600160a01b03165f90815260036020526040902090565b80545f190190556001600160a01b0381165f908152600360205260409020600181540190556139c2855f52600260205260405f2090565b80546001600160a01b0319166001600160a01b03909216919091179055565b7fddf252ad1be2c89b69c2b068fc378daa952ba7f163c4a11628f55a4df523b3ef5f80a4565b60405162461bcd60e51b8152602060048201526024808201527f4552433732313a207472616e7366657220746f20746865207a65726f206164646044820152637265737360e01b6064820152608490fd5b5f92613ab4613b9593613a73845f52600a60205260405f2090565b546001613a88865f52600a60205260405f2090565b015490613aa5613a966109c3565b6001600160a01b039094168452565b602083015260408201526140c8565b91613b45613afe613acd835f52600a60205260405f2090565b546001613ae2855f52600a60205260405f2090565b0154613aec6109c3565b6001600160a01b038716815291613aa5565b92613b1e6002613b16855f52600a60205260405f2090565b015460801c90565b907f0000000000000000000000000000000000000000000000000000000000000000614240565b50613b58825f52600b60205260405f2090565b54158514613b985750613b86613b76835f52600b60205260405f2090565b54915f52600b60205260405f2090565b555f52600b60205260405f2090565b55565b613bda613bc2613bb3613c11945f52600b60205260405f2090565b545f52600a60205260405f2090565b613bd4835f52600a60205260405f2090565b90615315565b613c0c613bef825f52600a60205260405f2090565b60045f918281558260018201558260028201558260038201550155565b615356565b5f52600b60205260405f2090565b15613c2657565b60405162461bcd60e51b815260206004820152601f60248201527f4552433732315065726d69743a20696e76616c6964207369676e6174757265006044820152606490fd5b9091804211613d7a576109c193613cfe61051892612692613cf6613c97885f52600860205260405f2090565b54604080517f0000000000000000000000000000000000000000000000000000000000000000602082019081526001600160a01b038b1692820192909252606081018b9052608081019290925260a082019490945291829060c0820190565b5190206153ec565b90613d098183615412565b506001600160a01b03811615159290869084613d67575b50508215613d51575b8215613d37575b5050613c1f565b613d4a9250613d458661313d565b61548b565b5f80613d30565b9150613d618183613d458861346d565b91613d29565b613d729294506137bf565b91855f613d20565b60405162461bcd60e51b815260206004820152601e60248201527f4552433732315065726d69743a206578706972656420646561646c696e6500006044820152606490fd5b307f00000000000000000000000000000000000000000000000000000000000000006001600160a01b03161480613eb2575b15613e1a577f000000000000000000000000000000000000000000000000000000000000000090565b60405160208101907f8b73c3c69bb8fe3d512ecc4cf759cc79239f7b179b0ffacaa9a75d522b39400f82527f000000000000000000000000000000000000000000000000000000000000000060408201527f000000000000000000000000000000000000000000000000000000000000000060608201524660808201523060a082015260a08152613eac60c082610991565b51902090565b507f00000000000000000000000000000000000000000000000000000000000000004614613df1565b6040805182516001600160a01b039081166020808401918252909401511681830152908152613eac606082610991565b60ff1c600103613f1a57600190565b5f90565b919091613f29613656565b9281546001600160801b038216613f4a9190603f6127109260d91c16020490565b6001600160801b0316808552613f5f91613401565b6001600160801b03166060840190815260038201805482516001600160801b0316613f8991615510565b6001600160801b03166040860190815291600584018054613faa8160801c90565b95600401958654613fc791906001600160801b03169060801b1790565b83516001600160801b0316613fdb91615510565b6001600160801b03166020890190815288516001600160801b031681516001600160801b031661400a9161328c565b90516001600160801b031660809190911b1761402591613790565b9055815492516001600160801b031690516001600160801b031661405591906001600160801b03169060801b1790565b918261406091613790565b905581549061406e91613790565b9055565b6003810182905560048101919091556001600160df1b0390921682556002820180546001600160a01b0319166001600160a01b039092169190911790556109c19060010180546001600160a01b03191633179055565b6040516040602082019260018060a01b0381511684526020810151828401520151606082015260608152613eac608082610991565b1561410457565b60405162461bcd60e51b815260206004820152601c60248201527f4552433732313a20746f6b656e20616c7265616479206d696e746564000000006044820152606490fd5b6001600160a01b0381169081156141fc575f838152600260205260409020546141d59190614183906001600160a01b031615155b156140fd565b5f848152600260205260409020546141a5906001600160a01b0316151561417d565b6001600160a01b0381165f908152600360205260409020600181540190556139c2845f52600260205260405f2090565b5f7fddf252ad1be2c89b69c2b068fc378daa952ba7f163c4a11628f55a4df523b3ef8180a4565b606460405162461bcd60e51b815260206004820152602060248201527f4552433732313a206d696e7420746f20746865207a65726f20616464726573736044820152fd5b60405163067e356d60e21b81526001600160a01b0392831660048201526001600160801b03939093166024840152602091839160449183915f91165af190811561065d575f9161428e575090565b90506020813d6020116142bb575b816142a960209383610991565b810103126102db57516103a78161075e565b3d915061429c565b6001600160801b0381116142dd576001600160801b031690565b505f90565b6040519061010082018281106001600160401b03821117610971576040525f60e0838281528260208201528260408201528260608201528260808201528260a08201528260c08201520152565b6143376142e2565b5060808101918251906143586143548260c0860194855190614bd8565b1590565b6146665760a0830190614389825161437a61136e87516001600160801b031690565b607f6127109260c51c16020490565b6001600160801b03166040850181815291906143c5906143b89087516001600160801b0316613401565b613401565b6001600160801b03168652565b6143d961136e86516001600160801b031690565b151580614652575b156145c5576143fc83516143f6885160801c90565b9061555f565b60e08601906001600160801b0361441c61136e84516143f68a5160801c90565b9116106145ac5761443661453c91516143f6875160801c90565b87516144428282614cc4565b9061445489516001600160801b031690565b906001600160801b0383166001600160801b038316115f146145415750508061449b61448e6144f3936143b38c516001600160801b031690565b6001600160801b03168a52565b6144d46144a9848a51614cc4565b6144c760208c01916144c283516001600160801b031690565b61328c565b6001600160801b03169052565b6144ed8a519184906001600160801b03169060801b1790565b90615580565b8852614520865161451a6145078483614cc4565b84906001600160801b03169060801b1790565b90615595565b86525b6144c760608801916144c283516001600160801b031690565b6143c5565b90915061454e9250615510565b61457561455c828851614cc4565b6144c760208a01916144c283516001600160801b031690565b61458e88516144ed6145078a516001600160801b031690565b88526145a2865161451a6145078483614cc4565b86525f8752614523565b5061453c6145c084516143f6895160801c90565b614436565b5091509192506145df61136e84516001600160801b031690565b91826145ec575b50505090565b61461f612b25926144c761460f61464a96855190607f6127109260c51c16020490565b82516001600160801b0316613401565b5161464461463485516001600160801b031690565b916001600160801b03831661437a565b9061328c565b5f80806145e6565b50614661818751865190614bd8565b6143e1565b5050905090565b60059061406e926003820155019182549060801b90613790565b9091906001600160a01b0381166146bd57505f808080936146a8955af11590565b6146ae57565b633d2cec6f60e21b5f5260045ffd5b60445f8080936020956040519763a9059cbb60e01b84526004526024525af13d15601f3d1160015f5114161716905f606052604052156146f957565b633c9fd93960e21b5f5260045ffd5b60ff811461473f5760ff811690601f821161473057614725614c77565b918252602082015290565b632cd44ac360e21b5f5260045ffd5b506040516103a7816147528160066130bc565b0382610991565b60ff81146147765760ff811690601f821161473057614725614c77565b506040516103a7816147528160076130bc565b90916001600160a01b0382166147a45750505034036146ae57565b6040516323b872dd60e01b81526001600160a01b0393841660048201529216602483015260448201929092526147f3916020915f916064919083905af15f51600114601f3d11163d1517161590565b6146f957565b935061406e9291614827600260038701968754946001600160801b0386161561482e575b5001918254613790565b9055613790565b81555f61481d565b936148719193929360038601938454916001600160801b03831615614895575b50851515958661488a575b5061482760028801918254613790565b905561487b575050565b600461406e9101918254613790565b60018801555f614861565b87555f614856565b94939092969591966005860195838383888a548d60048701546001600160801b03166001600160801b0319831617906003015490816148db91615510565b9060801c6148e891613401565b9b8c91826001600160801b03166148fe91613790565b9055614909956155c4565b60058401805460048601549196916001600160801b03166001600160801b031982161760048b0154908161493c91615510565b9060801c61494991613401565b9687916001600160801b03831661495f91613790565b905561496a956155c4565b61498091906001600160801b03169060801b1790565b91826109c191615a80565b6149936142e2565b50608081018051926149ac8160c0850195865190614bd8565b6146665760e08301906149e16149d183516112c161136e88516001600160801b031690565b6001600160801b03166040860152565b6149f561136e85516001600160801b031690565b151580614bb1575b15614ba95760a08401614a1681516143f6865160801c90565b6001600160801b03614a3161136e86516143f68b5160801c90565b911610614b915750614b21614a4c83516143f6885160801c90565b8651614a588282614cc4565b90614a6a88516001600160801b031690565b906001600160801b0383166001600160801b038316115f14614b2657505080614ab1614aa4614af1936143b38b516001600160801b031690565b6001600160801b03168952565b614ad8614abf848951614cc4565b6144c760208b01916144c283516001600160801b031690565b61451a89519184906001600160801b03169060801b1790565b8752614b0585516144ed6145078483614cc4565b85525b6144c760608701916144c283516001600160801b031690565b6149e1565b909150614b339250615510565b614b5a614b41828751614cc4565b6144c760208901916144c283516001600160801b031690565b614b73875161451a61450789516001600160801b031690565b8752614b8785516144ed6145078483614cc4565b85525f8652614b08565b614ba4614b2191516143f6865160801c90565b614a4c565b505050905090565b50614bc0818451875190614bd8565b6149fd565b8181029291811591840414171561073c57565b91614c0f614c1992936001600160801b03614c04614bfb8288168460801c614bc5565b82861690614bc5565b9560801c9116614bc5565b9060801c90614bc5565b1015613f1a57600190565b60809060208152603260208201527f4552433732313a207472616e7366657220746f206e6f6e20455243373231526560408201527131b2b4bb32b91034b6b83632b6b2b73a32b960711b60608201520190565b60408051909190614c888382610991565b60208152918290601f190190369060200137565b90614ca682610a00565b614cb36040519182610991565b82815280926134d2601f1991610a00565b906103a7916001600160801b03808260801c9316911602046142c3565b15614ce857565b606460405162461bcd60e51b81526020600482015260046024820152634730313160e01b6044820152fd5b15614d1a57565b606460405162461bcd60e51b81526020600482015260046024820152632398189960e11b6044820152fd5b91939092614d5161368a565b50614d5a61368a565b93614d69600287015460801c90565b6003870154969060801b6001600160801b0388161794614e1d614d9d614d9686516001600160801b031690565b8098615510565b96614e0d614de382614dd3614dd882614dd3614dbd60058b015460801c90565b60048b01546001600160801b03169060801b1790565b615510565b9d611c348160801c90565b614dfd614dee6109c3565b6001600160801b03909d168d52565b6001600160801b031660208c0152565b6001600160801b031660408a0152565b614fa2602089614e4b8454614e3181613f0b565b9081156152a9575b81615282575b8161524c575b50614ce1565b614e8360038501805490614e77614e708d6113e760408801516001600160801b031690565b8093615bcc565b90556004860154615bcc565b6004850155614ee1612b256005860154614ea484516001600160801b031690565b614ed2614eba878701516001600160801b031690565b92608083901b6001600160801b038516175b90615bcc565b60058901556143b38d8a615be1565b614f1e614f0f8554614f0061136e60408601516001600160801b031690565b603f6127109260d31c16020490565b6001600160801b031682840152565b614f94614f3282516001600160801b031690565b6060890151848a01516001600160a01b031660408b01516001600160a01b031660808c01519091906001600160a01b031692614f8d614f7b60408901516001600160801b031690565b888a01516001600160801b03166113d3565b948a6158c4565b01516001600160801b031690565b6001600160801b03811661522e575b50506001810154614fc157505050565b6109c1929550615065614ff586614dd3614fdf600587015460801c90565b60048701546001600160801b03169060801b1790565b9161505561502a886150256004850154611c34600261501c85614dd385611c348160801c90565b97015460801c90565b614cc4565b916150456150366109c3565b6001600160801b039096168652565b6001600160801b03166020850152565b6001600160801b03166040830152565b80956150e683546150a360038601549161508b61136e6150858560801c90565b83615bb6565b6001600160801b038b161090816151fa575b50614d13565b6150d76150d06150bd60408701516001600160801b031690565b8a906001600160801b03169060801b1790565b8092615bcc565b60038601556004850154615bcc565b6004840155615135615128600585015461510785516001600160801b031690565b61511e614eba60208801516001600160801b031690565b6005880155613401565b6001600160801b03168352565b6151646151548454614f0061136e60408701516001600160801b031690565b6001600160801b03166020840152565b60208201516001600160801b0316806151de575b82516001600160801b0316606083015160208401519091906151d8906001600160a01b0316936143b360406151c960806151ba838b015160018060a01b031690565b9901516001600160a01b031690565b9801516001600160801b031690565b956158c4565b6151f060058501546108648360801b90565b6005850155615178565b90506001600160801b0361522561136e8561521f60408b01516001600160801b031690565b94615bb6565b9116105f61509d565b615242600591610864838501549160801b90565b9101555f80614fb1565b90506001600160801b0361527961136e61526d8c516001600160801b031690565b9360038a015490615bb6565b9116105f614e45565b905061529861136e615085600389015460801c90565b6001600160801b038c161090614e3f565b90506152b58854613f0b565b90614e39565b156152c257565b60405162461bcd60e51b815260206004820152602560248201527f4552433732313a207472616e736665722066726f6d20696e636f72726563742060448201526437bbb732b960d91b6064820152608490fd5b600461406e916002810161532f8154600287015490613790565b9055600381016153458154600387015490613790565b905501916004835491015490613790565b61535f8161346d565b505f61536a8261346d565b8282526004602052604082206bffffffffffffffffffffffff60a01b815416905560018060a01b0316808252600360205260408220821981540190556153b8835f52600260205260405f2090565b80546001600160a01b03191690557fddf252ad1be2c89b69c2b068fc378daa952ba7f163c4a11628f55a4df523b3ef8280a4565b6042906153f7613dbf565b906040519161190160f01b8352600283015260228201522090565b9060418151145f1461543e5761543a91602082015190606060408401519301515f1a90615cab565b9091565b50505f90600290565b3d15615471573d9061545882610a00565b916154666040519384610991565b82523d5f602084013e565b606090565b908160209103126102db57516103a7816102c9565b5f92916126926154c185946040519283916020830195630b135d3f60e11b87526024840152604060448401526064830190610372565b51915afa6154cd615447565b81615504575b816154dc575090565b8051630b135d3f60e11b92506001600160e01b03199161380c91810160209081019101615476565b805160201491506154d3565b906103a7916001600160801b0380821692169060801c02046142c3565b906001600160801b031690811561554b576001600160801b03160490565b634e487b7160e01b5f52601260045260245ffd5b60bb1c6103ff81161561557c5760061b61ffc0166103a79161552d565b5090565b6113e7906137a58360801d8260801d036142c3565b6113e7906155aa8360801d8260801d016142c3565b926001600160801b0316906001600160801b0316036142c3565b919092936155ef6155e86001600160801b0386168490601f60649260dd1c16020490565b8095613401565b906001600160a01b03811690816156fb5750506156b9936144c26156e9946143b36109c19995856143b36156a4600661568b6001600160801b036156d39b169561464461564388839060649160fa1c020490565b60028b015490989061566d906001600160a01b031661566561136e5f8d61328c565b903390614687565b606460f484901c603f168202045b9290603f60649260e21c16020490565b96019c8d9060018060a01b03165f5260205260405f2090565b6156b9866144c283546001600160801b031690565b6001600160801b03166001600160801b0319825416179055565b939060018060a01b03165f5260205260405f2090565b916144c283546001600160801b031690565b6001600160801b036157e16002876108216109c19c899789614644986144c29b9f9c6156659f61136e9f9e5f9f61573b600182015460018060a01b031690565b6001600160a01b038981169491908116850361587e575061576c906146448f89168790603f60649260f41c16020490565b915b6001600160a01b038116840361583b5750615799919050606460ee85901c603f16878f160204614644565b945b148e146157f25750506157c46156b9926146448a6156e994168d90603f60649260e81c16020490565b925b6001600160a01b03165f908152600686016020526040902090565b9716606460fa84901c82020461567b565b6156b99394916156b96156e9615819615836948e6156e99816603f60649260e81c16020490565b6001600160a01b039093165f90815260068b016020526040902090565b6157c6565b906156b96156e98f936006615862615879968c9d989d168a90603f60649260ee1c16020490565b94019060018060a01b03165f5260205260405f2090565b61579b565b6158bf908f6156e96158a26156b9928c989698168a90603f60649260f41c16020490565b6001600160a01b039093165f908152600687016020526040902090565b61576e565b9190929493956158ea6155e86001600160801b0386168490601f60649260dd1c16020490565b966001600160a01b0381169081615965575050926144c2836143b36156b997958a6143b36156a4600661568b6109c19f9a6146446156e99e61566d6001600160801b036156d39f169161566561136e61595e600261594f878a9060649160fa1c020490565b9e01546001600160a01b031690565b928d61328c565b6157e16002866108216156659a614644968e6109c19f9e978b61136e9e6001600160801b039a6144c29e9d9f6159a4600182015460018060a01b031690565b6001600160a01b0389811694919081168503615a5757506159d5906146448f89168790603f60649260f41c16020490565b915b6001600160a01b0381168403615a2b5750615a02919050606460ee85901c603f16878f160204614644565b945b036157f25750506157c46156b9926146448a6156e994168d90603f60649260e81c16020490565b906156b96156e98f936006615862615a52968c9d989d168a90603f60649260ee1c16020490565b615a04565b615a7b908f6156e96158a26156b9928c989698168a90603f60649260f41c16020490565b6159d7565b60038101615a9a81546001600160801b0319851690613790565b90556001810154615aa9575050565b600461406e91019182549060801b90613790565b6001600160a01b0391821681529116602082015260408101919091526080606082018190526103a792910190610372565b919290803b15615bad57615b1e935f60209460405196879586948593630a85bd0160e11b85523360048601615abd565b03926001600160a01b03165af15f9181615b7c575b50615b6657615b40615447565b80519081615b615760405162461bcd60e51b81528061364060048201614c24565b602001fd5b6001600160e01b031916630a85bd0160e11b1490565b615b9f91925060203d602011615ba6575b615b978183610991565b810190615476565b905f615b33565b503d615b8d565b50505050600190565b60b11c6103ff16801561557c576103a79161552d565b6113e7906155aa8360801d8260801d036142c3565b9061406e9060038301615c528154946001600160801b03615c028760801c90565b91615c3d60028201986113e784615c1a8c5460801c90565b81615c34818d16998a998a94169a8b9586921602046142c3565b941602046142c3565b926001820154615c5f575b5050508254615bcc565b905582549060801b614ecc565b614ecc6004615ca19301936113e7855493615c8f81846001600160801b03615c878960801c90565b1602046142c3565b926001600160801b03861602046142c3565b90555f8080615c48565b7f7fffffffffffffffffffffffffffffff5d576e7357a4501ddfe92f46681b20a08411615d1b576020935f9360ff60809460405194855216868401526040830152606082015282805260015afa1561065d575f516001600160a01b03811615615d1357905f90565b505f90600190565b505050505f9060039056fecfdbe78f31bc5efa50605e8b11a7b6843971370ea97eb24de6e1a1eb9d235645a26469706673582212201e31dce6dc1cf69d119ffbd2d0240d3f21b32d6e2d60bb1db846668dacba1fb364736f6c634300081a0033",
    "sourcePath": "/Users/admin/workspace/50Self_project/ttswap-core/Contracts/MarketManager.sol",
    "compiler": {
        "name": "solc",
        "version": "0.8.26+commit.8a97fa7a"
    },
    "functionHashes": {
        "DOMAIN_SEPARATOR()": "3644e515",
        "addbanlist(address)": "b153b920",
        "approve(address,uint256)": "095ea7b3",
        "balanceOf(address)": "70a08231",
        "banlist(address)": "2973ada7",
        "buyGood(uint256,uint256,uint128,uint256,bool,address)": "578496ab",
        "buyGoodForPay(uint256,uint256,uint128,uint256,address)": "a7e11697",
        "changeGoodOwner(uint256,address)": "2a7c5a91",
        "collectCommission(uint256[])": "f88c3010",
        "collectProof(uint256,address)": "a676a600",
        "disinvestProof(uint256,uint128,address)": "f4662f20",
        "eip712Domain()": "84b0196e",
        "getApproved(uint256)": "081812fc",
        "getGoodState(uint256)": "a6f6a980",
        "getProofState(uint256)": "3f117740",
        "goodNum()": "5a5da4dd",
        "goodWelfare(uint256,uint128)": "18ad50d1",
        "initGood(uint256,uint256,address,uint256)": "4ffef907",
        "initMetaGood(address,uint256,uint256)": "97924ead",
        "investGood(uint256,uint256,uint128)": "f44733ad",
        "isApprovedForAll(address,address)": "e985e9c5",
        "ishigher(uint256,uint256,uint256)": "a7fed925",
        "marketconfig()": "402f5ab5",
        "modifyGoodConfig(uint256,uint256)": "0e21a1ac",
        "name()": "06fdde03",
        "nonces(uint256)": "141a468c",
        "ownerOf(uint256)": "6352211e",
        "payGood(uint256,uint256,address)": "920acbb8",
        "permit(address,uint256,uint256,bytes)": "745a41bc",
        "proofmapping(uint256)": "5e008cc4",
        "queryCommission(uint256[],address)": "6ff73c8e",
        "removebanlist(address)": "9551177a",
        "safeTransferFrom(address,address,uint256)": "42842e0e",
        "safeTransferFrom(address,address,uint256,bytes)": "b88d4fde",
        "safeTransferFromWithPermit(address,address,uint256,bytes,uint256,bytes)": "24744d54",
        "setApprovalForAll(address,bool)": "a22cb465",
        "setMarketConfig(uint256)": "45818e4c",
        "supportsInterface(bytes4)": "01ffc9a7",
        "symbol()": "95d89b41",
        "tokenURI(uint256)": "c87b56dd",
        "totalSupply()": "18160ddd",
        "transferFrom(address,address,uint256)": "23b872dd",
        "updateGoodConfig(uint256,uint256)": "144aeb83"
    },
    "gasEstimates": {
        "creation": {
            "codeDepositCost": "4786400",
            "executionCost": "infinite",
            "totalCost": "infinite"
        },
        "external": {
            "DOMAIN_SEPARATOR()": "infinite",
            "addbanlist(address)": "infinite",
            "approve(address,uint256)": "infinite",
            "balanceOf(address)": "2993",
            "banlist(address)": "2649",
            "buyGood(uint256,uint256,uint128,uint256,bool,address)": "infinite",
            "buyGoodForPay(uint256,uint256,uint128,uint256,address)": "infinite",
            "changeGoodOwner(uint256,address)": "infinite",
            "collectCommission(uint256[])": "infinite",
            "collectProof(uint256,address)": "infinite",
            "disinvestProof(uint256,uint128,address)": "infinite",
            "eip712Domain()": "infinite",
            "getApproved(uint256)": "4677",
            "getGoodState(uint256)": "infinite",
            "getProofState(uint256)": "infinite",
            "goodNum()": "2700",
            "goodWelfare(uint256,uint128)": "infinite",
            "initGood(uint256,uint256,address,uint256)": "infinite",
            "initMetaGood(address,uint256,uint256)": "infinite",
            "investGood(uint256,uint256,uint128)": "infinite",
            "isApprovedForAll(address,address)": "infinite",
            "ishigher(uint256,uint256,uint256)": "infinite",
            "marketconfig()": "2590",
            "modifyGoodConfig(uint256,uint256)": "infinite",
            "name()": "infinite",
            "nonces(uint256)": "2435",
            "ownerOf(uint256)": "2956",
            "payGood(uint256,uint256,address)": "infinite",
            "permit(address,uint256,uint256,bytes)": "infinite",
            "proofmapping(uint256)": "2787",
            "queryCommission(uint256[],address)": "infinite",
            "removebanlist(address)": "infinite",
            "safeTransferFrom(address,address,uint256)": "infinite",
            "safeTransferFrom(address,address,uint256,bytes)": "infinite",
            "safeTransferFromWithPermit(address,address,uint256,bytes,uint256,bytes)": "infinite",
            "setApprovalForAll(address,bool)": "27203",
            "setMarketConfig(uint256)": "infinite",
            "supportsInterface(bytes4)": "431",
            "symbol()": "infinite",
            "tokenURI(uint256)": "infinite",
            "totalSupply()": "2414",
            "transferFrom(address,address,uint256)": "infinite",
            "updateGoodConfig(uint256,uint256)": "28195"
        }
    }
}