{
    "contractName": "TTS",
    "abi": [
        {
            "inputs": [
                {
                    "internalType": "address",
                    "name": "_usdt",
                    "type": "address"
                },
                {
                    "internalType": "address",
                    "name": "_dao_admin",
                    "type": "address"
                },
                {
                    "internalType": "uint256",
                    "name": "_ttsconfig",
                    "type": "uint256"
                }
            ],
            "stateMutability": "nonpayable",
            "type": "constructor"
        },
        {
            "inputs": [],
            "name": "InvalidShortString",
            "type": "error"
        },
        {
            "inputs": [
                {
                    "internalType": "string",
                    "name": "str",
                    "type": "string"
                }
            ],
            "name": "StringTooLong",
            "type": "error"
        },
        {
            "anonymous": false,
            "inputs": [
                {
                    "indexed": true,
                    "internalType": "address",
                    "name": "owner",
                    "type": "address"
                },
                {
                    "indexed": true,
                    "internalType": "address",
                    "name": "spender",
                    "type": "address"
                },
                {
                    "indexed": false,
                    "internalType": "uint256",
                    "name": "value",
                    "type": "uint256"
                }
            ],
            "name": "Approval",
            "type": "event"
        },
        {
            "anonymous": false,
            "inputs": [],
            "name": "EIP712DomainChanged",
            "type": "event"
        },
        {
            "anonymous": false,
            "inputs": [
                {
                    "indexed": true,
                    "internalType": "address",
                    "name": "from",
                    "type": "address"
                },
                {
                    "indexed": true,
                    "internalType": "address",
                    "name": "to",
                    "type": "address"
                },
                {
                    "indexed": false,
                    "internalType": "uint256",
                    "name": "value",
                    "type": "uint256"
                }
            ],
            "name": "Transfer",
            "type": "event"
        },
        {
            "anonymous": false,
            "inputs": [
                {
                    "indexed": false,
                    "internalType": "address",
                    "name": "auths",
                    "type": "address"
                },
                {
                    "indexed": false,
                    "internalType": "uint256",
                    "name": "priv",
                    "type": "uint256"
                }
            ],
            "name": "e_addauths",
            "type": "event"
        },
        {
            "anonymous": false,
            "inputs": [
                {
                    "indexed": false,
                    "internalType": "address",
                    "name": "recipent",
                    "type": "address"
                },
                {
                    "indexed": false,
                    "internalType": "uint256",
                    "name": "leftamount",
                    "type": "uint256"
                },
                {
                    "indexed": false,
                    "internalType": "uint8",
                    "name": "metric",
                    "type": "uint8"
                },
                {
                    "indexed": false,
                    "internalType": "uint8",
                    "name": "chips",
                    "type": "uint8"
                },
                {
                    "indexed": false,
                    "internalType": "uint8",
                    "name": "index",
                    "type": "uint8"
                }
            ],
            "name": "e_addmint",
            "type": "event"
        },
        {
            "anonymous": false,
            "inputs": [
                {
                    "indexed": false,
                    "internalType": "address",
                    "name": "users",
                    "type": "address"
                },
                {
                    "indexed": false,
                    "internalType": "address",
                    "name": "referal",
                    "type": "address"
                }
            ],
            "name": "e_addreferal",
            "type": "event"
        },
        {
            "anonymous": false,
            "inputs": [
                {
                    "indexed": false,
                    "internalType": "uint8",
                    "name": "index",
                    "type": "uint8"
                }
            ],
            "name": "e_burnmint",
            "type": "event"
        },
        {
            "anonymous": false,
            "inputs": [
                {
                    "indexed": false,
                    "internalType": "uint256",
                    "name": "mintamount",
                    "type": "uint256"
                },
                {
                    "indexed": false,
                    "internalType": "uint8",
                    "name": "index",
                    "type": "uint8"
                }
            ],
            "name": "e_daomint",
            "type": "event"
        },
        {
            "anonymous": false,
            "inputs": [
                {
                    "indexed": false,
                    "internalType": "uint256",
                    "name": "usdtamount",
                    "type": "uint256"
                },
                {
                    "indexed": false,
                    "internalType": "uint256",
                    "name": "ttsamount",
                    "type": "uint256"
                }
            ],
            "name": "e_publicsell",
            "type": "event"
        },
        {
            "anonymous": false,
            "inputs": [
                {
                    "indexed": false,
                    "internalType": "address",
                    "name": "auths",
                    "type": "address"
                }
            ],
            "name": "e_rmauths",
            "type": "event"
        },
        {
            "anonymous": false,
            "inputs": [
                {
                    "indexed": false,
                    "internalType": "address",
                    "name": "recipent",
                    "type": "address"
                }
            ],
            "name": "e_setdaoadmin",
            "type": "event"
        },
        {
            "anonymous": false,
            "inputs": [
                {
                    "indexed": false,
                    "internalType": "uint256",
                    "name": "normalgoodid",
                    "type": "uint256"
                },
                {
                    "indexed": false,
                    "internalType": "uint256",
                    "name": "valuegoodid",
                    "type": "uint256"
                },
                {
                    "indexed": false,
                    "internalType": "address",
                    "name": "marketcontract",
                    "type": "address"
                }
            ],
            "name": "e_setenv",
            "type": "event"
        },
        {
            "anonymous": false,
            "inputs": [
                {
                    "indexed": false,
                    "internalType": "uint256",
                    "name": "stakeid",
                    "type": "uint256"
                },
                {
                    "indexed": false,
                    "internalType": "address",
                    "name": "marketcontract",
                    "type": "address"
                },
                {
                    "indexed": false,
                    "internalType": "uint256",
                    "name": "proofid",
                    "type": "uint256"
                },
                {
                    "indexed": false,
                    "internalType": "uint256",
                    "name": "stakevalue",
                    "type": "uint256"
                },
                {
                    "indexed": false,
                    "internalType": "uint256",
                    "name": "stakecontruct",
                    "type": "uint256"
                }
            ],
            "name": "e_stake",
            "type": "event"
        },
        {
            "anonymous": false,
            "inputs": [
                {
                    "indexed": false,
                    "internalType": "uint256",
                    "name": "chain",
                    "type": "uint256"
                },
                {
                    "indexed": false,
                    "internalType": "uint256",
                    "name": "poolvalue",
                    "type": "uint256"
                },
                {
                    "indexed": false,
                    "internalType": "uint256",
                    "name": "proolcontruct",
                    "type": "uint256"
                },
                {
                    "indexed": false,
                    "internalType": "uint256",
                    "name": "poolasset",
                    "type": "uint256"
                }
            ],
            "name": "e_synchainstake",
            "type": "event"
        },
        {
            "anonymous": false,
            "inputs": [
                {
                    "indexed": false,
                    "internalType": "address",
                    "name": "recipent",
                    "type": "address"
                },
                {
                    "indexed": false,
                    "internalType": "uint128",
                    "name": "proofvalue",
                    "type": "uint128"
                },
                {
                    "indexed": false,
                    "internalType": "T_BalanceUINT256",
                    "name": "unstakestate",
                    "type": "uint256"
                },
                {
                    "indexed": false,
                    "internalType": "T_BalanceUINT256",
                    "name": "stakestate",
                    "type": "uint256"
                }
            ],
            "name": "e_unstake",
            "type": "event"
        },
        {
            "anonymous": false,
            "inputs": [
                {
                    "indexed": false,
                    "internalType": "uint256",
                    "name": "poolstate",
                    "type": "uint256"
                },
                {
                    "indexed": false,
                    "internalType": "uint256",
                    "name": "stakestate",
                    "type": "uint256"
                }
            ],
            "name": "e_updatepool",
            "type": "event"
        },
        {
            "inputs": [],
            "name": "DOMAIN_SEPARATOR",
            "outputs": [
                {
                    "internalType": "bytes32",
                    "name": "",
                    "type": "bytes32"
                }
            ],
            "stateMutability": "view",
            "type": "function"
        },
        {
            "inputs": [
                {
                    "components": [
                        {
                            "internalType": "address",
                            "name": "recipent",
                            "type": "address"
                        },
                        {
                            "internalType": "uint256",
                            "name": "leftamount",
                            "type": "uint256"
                        },
                        {
                            "internalType": "uint8",
                            "name": "metric",
                            "type": "uint8"
                        },
                        {
                            "internalType": "uint8",
                            "name": "chips",
                            "type": "uint8"
                        }
                    ],
                    "internalType": "struct TTS.s_share",
                    "name": "_share",
                    "type": "tuple"
                }
            ],
            "name": "addMint",
            "outputs": [],
            "stateMutability": "nonpayable",
            "type": "function"
        },
        {
            "inputs": [
                {
                    "internalType": "address",
                    "name": "_auths",
                    "type": "address"
                },
                {
                    "internalType": "uint256",
                    "name": "_priv",
                    "type": "uint256"
                }
            ],
            "name": "addauths",
            "outputs": [],
            "stateMutability": "nonpayable",
            "type": "function"
        },
        {
            "inputs": [
                {
                    "internalType": "address",
                    "name": "user",
                    "type": "address"
                },
                {
                    "internalType": "address",
                    "name": "referal",
                    "type": "address"
                }
            ],
            "name": "addreferal",
            "outputs": [],
            "stateMutability": "nonpayable",
            "type": "function"
        },
        {
            "inputs": [
                {
                    "internalType": "address",
                    "name": "owner",
                    "type": "address"
                },
                {
                    "internalType": "address",
                    "name": "spender",
                    "type": "address"
                }
            ],
            "name": "allowance",
            "outputs": [
                {
                    "internalType": "uint256",
                    "name": "",
                    "type": "uint256"
                }
            ],
            "stateMutability": "view",
            "type": "function"
        },
        {
            "inputs": [
                {
                    "internalType": "address",
                    "name": "spender",
                    "type": "address"
                },
                {
                    "internalType": "uint256",
                    "name": "amount",
                    "type": "uint256"
                }
            ],
            "name": "approve",
            "outputs": [
                {
                    "internalType": "bool",
                    "name": "",
                    "type": "bool"
                }
            ],
            "stateMutability": "nonpayable",
            "type": "function"
        },
        {
            "inputs": [
                {
                    "internalType": "address",
                    "name": "account",
                    "type": "address"
                }
            ],
            "name": "balanceOf",
            "outputs": [
                {
                    "internalType": "uint256",
                    "name": "",
                    "type": "uint256"
                }
            ],
            "stateMutability": "view",
            "type": "function"
        },
        {
            "inputs": [
                {
                    "internalType": "address",
                    "name": "account",
                    "type": "address"
                },
                {
                    "internalType": "uint256",
                    "name": "value",
                    "type": "uint256"
                }
            ],
            "name": "burn",
            "outputs": [],
            "stateMutability": "nonpayable",
            "type": "function"
        },
        {
            "inputs": [
                {
                    "internalType": "uint8",
                    "name": "index",
                    "type": "uint8"
                }
            ],
            "name": "burnMint",
            "outputs": [],
            "stateMutability": "nonpayable",
            "type": "function"
        },
        {
            "inputs": [
                {
                    "internalType": "uint256",
                    "name": "chainid",
                    "type": "uint256"
                },
                {
                    "internalType": "uint128",
                    "name": "asset",
                    "type": "uint128"
                }
            ],
            "name": "chain_deposit",
            "outputs": [],
            "stateMutability": "nonpayable",
            "type": "function"
        },
        {
            "inputs": [
                {
                    "internalType": "uint256",
                    "name": "chainid",
                    "type": "uint256"
                },
                {
                    "internalType": "uint128",
                    "name": "asset",
                    "type": "uint128"
                }
            ],
            "name": "chain_withdraw",
            "outputs": [],
            "stateMutability": "nonpayable",
            "type": "function"
        },
        {
            "inputs": [
                {
                    "internalType": "address",
                    "name": "_recipent",
                    "type": "address"
                }
            ],
            "name": "changedaoadmin",
            "outputs": [],
            "stateMutability": "nonpayable",
            "type": "function"
        },
        {
            "inputs": [
                {
                    "internalType": "uint8",
                    "name": "index",
                    "type": "uint8"
                }
            ],
            "name": "daoMint",
            "outputs": [],
            "stateMutability": "nonpayable",
            "type": "function"
        },
        {
            "inputs": [],
            "name": "decimals",
            "outputs": [
                {
                    "internalType": "uint8",
                    "name": "",
                    "type": "uint8"
                }
            ],
            "stateMutability": "pure",
            "type": "function"
        },
        {
            "inputs": [
                {
                    "internalType": "address",
                    "name": "spender",
                    "type": "address"
                },
                {
                    "internalType": "uint256",
                    "name": "subtractedValue",
                    "type": "uint256"
                }
            ],
            "name": "decreaseAllowance",
            "outputs": [
                {
                    "internalType": "bool",
                    "name": "",
                    "type": "bool"
                }
            ],
            "stateMutability": "nonpayable",
            "type": "function"
        },
        {
            "inputs": [],
            "name": "eip712Domain",
            "outputs": [
                {
                    "internalType": "bytes1",
                    "name": "fields",
                    "type": "bytes1"
                },
                {
                    "internalType": "string",
                    "name": "name",
                    "type": "string"
                },
                {
                    "internalType": "string",
                    "name": "version",
                    "type": "string"
                },
                {
                    "internalType": "uint256",
                    "name": "chainId",
                    "type": "uint256"
                },
                {
                    "internalType": "address",
                    "name": "verifyingContract",
                    "type": "address"
                },
                {
                    "internalType": "bytes32",
                    "name": "salt",
                    "type": "bytes32"
                },
                {
                    "internalType": "uint256[]",
                    "name": "extensions",
                    "type": "uint256[]"
                }
            ],
            "stateMutability": "view",
            "type": "function"
        },
        {
            "inputs": [
                {
                    "internalType": "address",
                    "name": "_customer",
                    "type": "address"
                }
            ],
            "name": "getreferal",
            "outputs": [
                {
                    "internalType": "address",
                    "name": "",
                    "type": "address"
                }
            ],
            "stateMutability": "view",
            "type": "function"
        },
        {
            "inputs": [
                {
                    "internalType": "address",
                    "name": "_customer",
                    "type": "address"
                }
            ],
            "name": "getreferalanddaoamdin",
            "outputs": [
                {
                    "internalType": "address",
                    "name": "",
                    "type": "address"
                },
                {
                    "internalType": "address",
                    "name": "",
                    "type": "address"
                }
            ],
            "stateMutability": "view",
            "type": "function"
        },
        {
            "inputs": [
                {
                    "internalType": "address",
                    "name": "spender",
                    "type": "address"
                },
                {
                    "internalType": "uint256",
                    "name": "addedValue",
                    "type": "uint256"
                }
            ],
            "name": "increaseAllowance",
            "outputs": [
                {
                    "internalType": "bool",
                    "name": "",
                    "type": "bool"
                }
            ],
            "stateMutability": "nonpayable",
            "type": "function"
        },
        {
            "inputs": [
                {
                    "internalType": "address",
                    "name": "recipent",
                    "type": "address"
                }
            ],
            "name": "isauths",
            "outputs": [
                {
                    "internalType": "uint256",
                    "name": "",
                    "type": "uint256"
                }
            ],
            "stateMutability": "view",
            "type": "function"
        },
        {
            "inputs": [],
            "name": "left_share",
            "outputs": [
                {
                    "internalType": "uint256",
                    "name": "",
                    "type": "uint256"
                }
            ],
            "stateMutability": "view",
            "type": "function"
        },
        {
            "inputs": [],
            "name": "name",
            "outputs": [
                {
                    "internalType": "string",
                    "name": "",
                    "type": "string"
                }
            ],
            "stateMutability": "view",
            "type": "function"
        },
        {
            "inputs": [
                {
                    "internalType": "address",
                    "name": "owner",
                    "type": "address"
                }
            ],
            "name": "nonces",
            "outputs": [
                {
                    "internalType": "uint256",
                    "name": "",
                    "type": "uint256"
                }
            ],
            "stateMutability": "view",
            "type": "function"
        },
        {
            "inputs": [
                {
                    "internalType": "address",
                    "name": "owner",
                    "type": "address"
                },
                {
                    "internalType": "address",
                    "name": "spender",
                    "type": "address"
                },
                {
                    "internalType": "uint256",
                    "name": "value",
                    "type": "uint256"
                },
                {
                    "internalType": "uint256",
                    "name": "deadline",
                    "type": "uint256"
                },
                {
                    "internalType": "uint8",
                    "name": "v",
                    "type": "uint8"
                },
                {
                    "internalType": "bytes32",
                    "name": "r",
                    "type": "bytes32"
                },
                {
                    "internalType": "bytes32",
                    "name": "s",
                    "type": "bytes32"
                }
            ],
            "name": "permit",
            "outputs": [],
            "stateMutability": "nonpayable",
            "type": "function"
        },
        {
            "inputs": [
                {
                    "internalType": "uint256",
                    "name": "usdtamount",
                    "type": "uint256"
                }
            ],
            "name": "publicSell",
            "outputs": [],
            "stateMutability": "nonpayable",
            "type": "function"
        },
        {
            "inputs": [],
            "name": "publicsell",
            "outputs": [
                {
                    "internalType": "uint256",
                    "name": "",
                    "type": "uint256"
                }
            ],
            "stateMutability": "view",
            "type": "function"
        },
        {
            "inputs": [
                {
                    "internalType": "address",
                    "name": "_auths",
                    "type": "address"
                }
            ],
            "name": "rmauths",
            "outputs": [],
            "stateMutability": "nonpayable",
            "type": "function"
        },
        {
            "inputs": [
                {
                    "internalType": "uint256",
                    "name": "_normalgoodid",
                    "type": "uint256"
                },
                {
                    "internalType": "uint256",
                    "name": "_valuegoodid",
                    "type": "uint256"
                },
                {
                    "internalType": "address",
                    "name": "_marketcontract",
                    "type": "address"
                }
            ],
            "name": "setEnv",
            "outputs": [],
            "stateMutability": "nonpayable",
            "type": "function"
        },
        {
            "inputs": [
                {
                    "internalType": "address",
                    "name": "_staker",
                    "type": "address"
                },
                {
                    "internalType": "uint128",
                    "name": "proofvalue",
                    "type": "uint128"
                }
            ],
            "name": "stake",
            "outputs": [
                {
                    "internalType": "uint128",
                    "name": "netcontruct",
                    "type": "uint128"
                }
            ],
            "stateMutability": "nonpayable",
            "type": "function"
        },
        {
            "inputs": [
                {
                    "internalType": "uint256",
                    "name": "chainid",
                    "type": "uint256"
                },
                {
                    "internalType": "uint128",
                    "name": "asset",
                    "type": "uint128"
                },
                {
                    "internalType": "address",
                    "name": "recipent",
                    "type": "address"
                }
            ],
            "name": "subchain_deposit",
            "outputs": [],
            "stateMutability": "nonpayable",
            "type": "function"
        },
        {
            "inputs": [
                {
                    "internalType": "uint256",
                    "name": "chainid",
                    "type": "uint256"
                },
                {
                    "internalType": "uint128",
                    "name": "asset",
                    "type": "uint128"
                },
                {
                    "internalType": "address",
                    "name": "recipent",
                    "type": "address"
                }
            ],
            "name": "subchain_withdraw",
            "outputs": [],
            "stateMutability": "nonpayable",
            "type": "function"
        },
        {
            "inputs": [],
            "name": "symbol",
            "outputs": [
                {
                    "internalType": "string",
                    "name": "",
                    "type": "string"
                }
            ],
            "stateMutability": "view",
            "type": "function"
        },
        {
            "inputs": [
                {
                    "internalType": "uint256",
                    "name": "chainid",
                    "type": "uint256"
                },
                {
                    "internalType": "uint128",
                    "name": "chainvalue",
                    "type": "uint128"
                }
            ],
            "name": "synchainstake",
            "outputs": [
                {
                    "internalType": "uint128",
                    "name": "poolasset",
                    "type": "uint128"
                }
            ],
            "stateMutability": "nonpayable",
            "type": "function"
        },
        {
            "inputs": [
                {
                    "internalType": "uint128",
                    "name": "amount",
                    "type": "uint128"
                }
            ],
            "name": "syncpoolasset",
            "outputs": [],
            "stateMutability": "nonpayable",
            "type": "function"
        },
        {
            "inputs": [],
            "name": "totalSupply",
            "outputs": [
                {
                    "internalType": "uint256",
                    "name": "",
                    "type": "uint256"
                }
            ],
            "stateMutability": "view",
            "type": "function"
        },
        {
            "inputs": [
                {
                    "internalType": "address",
                    "name": "to",
                    "type": "address"
                },
                {
                    "internalType": "uint256",
                    "name": "amount",
                    "type": "uint256"
                }
            ],
            "name": "transfer",
            "outputs": [
                {
                    "internalType": "bool",
                    "name": "",
                    "type": "bool"
                }
            ],
            "stateMutability": "nonpayable",
            "type": "function"
        },
        {
            "inputs": [
                {
                    "internalType": "address",
                    "name": "from",
                    "type": "address"
                },
                {
                    "internalType": "address",
                    "name": "to",
                    "type": "address"
                },
                {
                    "internalType": "uint256",
                    "name": "amount",
                    "type": "uint256"
                }
            ],
            "name": "transferFrom",
            "outputs": [
                {
                    "internalType": "bool",
                    "name": "",
                    "type": "bool"
                }
            ],
            "stateMutability": "nonpayable",
            "type": "function"
        },
        {
            "inputs": [],
            "name": "ttstokenconfig",
            "outputs": [
                {
                    "internalType": "uint256",
                    "name": "",
                    "type": "uint256"
                }
            ],
            "stateMutability": "view",
            "type": "function"
        },
        {
            "inputs": [
                {
                    "internalType": "address",
                    "name": "_staker",
                    "type": "address"
                },
                {
                    "internalType": "uint128",
                    "name": "proofvalue",
                    "type": "uint128"
                }
            ],
            "name": "unstake",
            "outputs": [],
            "stateMutability": "nonpayable",
            "type": "function"
        },
        {
            "inputs": [],
            "name": "usdt",
            "outputs": [
                {
                    "internalType": "address",
                    "name": "",
                    "type": "address"
                }
            ],
            "stateMutability": "view",
            "type": "function"
        },
        {
            "inputs": [
                {
                    "internalType": "uint256",
                    "name": "amount",
                    "type": "uint256"
                },
                {
                    "internalType": "address",
                    "name": "recipent",
                    "type": "address"
                }
            ],
            "name": "withdrawpublicsell",
            "outputs": [],
            "stateMutability": "nonpayable",
            "type": "function"
        }
    ],
    "bytecode": "61018080604052346104c557606081612db6803803809161002082856104c9565b8339810103126104c557610033816104ec565b906040610042602083016104ec565b910151916040516100546040826104c9565b600c8152602081016b2a2a29b0bbb8102a37b5b2b760a11b81526040519061007d6040836104c9565b600c82526b2a2a29b0bbb8102a37b5b2b760a11b6020830152604051926100a56040856104c9565b600384526254545360e81b6020850152604051936100c46040866104c9565b60018552603160f81b60208601908152845190946001600160401b0382116103c85760035490600182811c921680156104bb575b60208310146103aa5781601f84931161044d575b50602090601f83116001146103e7575f926103dc575b50508160011b915f199060031b1c1916176003555b8051906001600160401b0382116103c85760045490600182811c921680156103be575b60208310146103aa5781601f84931161033c575b50602090601f83116001146102d6575f926102cb575b50508160011b915f199060031b1c1916176004555b6101a281610500565b610120526101af84610687565b61014052519020918260e05251902080610100524660a0526040519060208201927f8b73c3c69bb8fe3d512ecc4cf759cc79239f7b179b0ffacaa9a75d522b39400f8452604083015260608201524660808201523060a082015260a0815261021860c0826104c9565b51902060809081523060c0526601c6bf526340006018556101609190915242901b6001600160801b031916600c55601380546001600160a01b0319166001600160a01b03929092169190911790556009556040516125f690816107c0823960805181612291015260a0518161234e015260c0518161225b015260e051816122e00152610100518161230601526101205181610dd701526101405181610e000152610160518181816114f401526115920152f35b015190505f80610184565b60045f9081528281209350601f198516905b818110610324575090846001959493921061030c575b505050811b01600455610199565b01515f1960f88460031b161c191690555f80806102fe565b929360206001819287860151815501950193016102e8565b60045f529091507f8a35acfbc15ff81a39ae7d344fd709f28e8600b4aa8c65c6b64bfe7fe36bd19b601f840160051c810191602085106103a0575b90601f859493920160051c01905b818110610392575061016e565b5f8155849350600101610385565b9091508190610377565b634e487b7160e01b5f52602260045260245ffd5b91607f169161015a565b634e487b7160e01b5f52604160045260245ffd5b015190505f80610122565b60035f9081528281209350601f198516905b818110610435575090846001959493921061041d575b505050811b01600355610137565b01515f1960f88460031b161c191690555f808061040f565b929360206001819287860151815501950193016103f9565b60035f529091507fc2575a0e9e593c00f959f8c92f12db2869c3395a3b0502d05e2516446f71f85b601f840160051c810191602085106104b1575b90601f859493920160051c01905b8181106104a3575061010c565b5f8155849350600101610496565b9091508190610488565b91607f16916100f8565b5f80fd5b601f909101601f19168101906001600160401b038211908210176103c857604052565b51906001600160a01b03821682036104c557565b908151602081105f1461057a575090601f81511161053a57602081519101516020821061052b571790565b5f198260200360031b1b161790565b604460209160405192839163305a27a960e01b83528160048401528051918291826024860152018484015e5f828201840152601f01601f19168101030190fd5b6001600160401b0381116103c857600554600181811c9116801561067d575b60208210146103aa57601f811161064a575b50602092601f82116001146105e957928192935f926105de575b50508160011b915f199060031b1c19161760055560ff90565b015190505f806105c5565b601f1982169360055f52805f20915f5b868110610632575083600195961061061a575b505050811b0160055560ff90565b01515f1960f88460031b161c191690555f808061060c565b919260206001819286850151815501940192016105f9565b60055f52601f60205f20910160051c810190601f830160051c015b81811061067257506105ab565b5f8155600101610665565b90607f1690610599565b908151602081105f146106b2575090601f81511161053a57602081519101516020821061052b571790565b6001600160401b0381116103c857600654600181811c911680156107b5575b60208210146103aa57601f8111610782575b50602092601f821160011461072157928192935f92610716575b50508160011b915f199060031b1c19161760065560ff90565b015190505f806106fd565b601f1982169360065f52805f20915f5b86811061076a5750836001959610610752575b505050811b0160065560ff90565b01515f1960f88460031b161c191690555f8080610744565b91926020600181928685015181550194019201610731565b60065f52601f60205f20910160051c810190601f830160051c015b8181106107aa57506106e3565b5f815560010161079d565b90607f16906106d156fe6080806040526004361015610012575f80fd5b5f3560e01c90816301ad369b14611a6d5750806306fdde03146119c8578063095ea7b3146119a25780630fffe72f1461196b57806318160ddd1461194e57806319f8d5b41461180f5780631cbd0a4c1461175757806323b872dd1461169a5780632554301a146115e0578063293b596d146115235780632f48ab7d146114df578063313ce567146114c45780633644e515146114a257806339509351146114545780633958e408146113185780633f6b6c20146112d857806345fda707146112bb578063542128dd14611236578063623059a51461121957806369a5ac32146111d557806370a082311461119e5780637bd3ca3514610f925780637ecebe0014610f5a5780637ff6e23514610eb757806384b0196e14610dbf57806388d0893814610d495780638a6ed3f114610ce057806394c3c33314610ca857806395d89b4114610bca5780639bc69afc14610b105780639dc29fac14610aeb578063a457c2d714610a48578063a9059cbb14610a17578063baf6e59e146109c7578063d35ff866146107f3578063d505accf14610654578063da623a4b1461057d578063dd62ed3e1461052d578063de5712d414610510578063e7bfc21f146102775763f6f9b80d146101df575f80fd5b34610273576060366003190112610273576044356001600160a01b038116906024359060043590839003610273576013546001600160a01b03163303610273577f2c13ec80363c5c6acca850e78e87c50c5f15ae0398a319963393eeb01c11045d926060928260115580601255816001600160601b0360a01b601454161760145560405192835260208301526040820152a1005b5f80fd5b3461027357604036600319011261027357600435610293611b80565b61029e600954611e4d565b1561027357815f92335f526016602052620186a560405f205414806104cd575b1561027357806103ab575050601054600181018091116103975760806001600160801b0360209481847f43642a6caf9071443f539a455cb89967ba49ba6c768cfa1303a9104d1253396295601055818197600d549261032483851684841681020461240e565b936103378585169182878c1b1790611f6d565b600d55815f52600f8c5282891b17600160405f2001555f52600f8a52600260405f200160018060a01b0333166001600160601b0360a01b8254161790555b60405198895216888801521660408601521692836060820152a1604051908152f35b634e487b7160e01b5f52601160045260245ffd5b602093506001600160801b03608091817f43642a6caf9071443f539a455cb89967ba49ba6c768cfa1303a9104d12533962949581600d5491845f52600f8a52610405600160405f200154881c83851690858a1c020461240e565b94805f52600f8b52610427600160405f200154841694878a1b95861790611fad565b9384600d55610449600c54835f52600f8e52600160405f2001548b1c90611fad565b9461047f610460868816878716888516020461240e565b9661047388881693848a8f1b1790611f6d565b600d5585871690611f6d565b600c55825f52600f8d52838a1b17600160405f200155815f52600f8c528684161760405f20555f52600f8a526104c860018060a01b03600260405f200154168387169033611fdc565b610375565b505f818152600f60205260409020600201546001600160a01b03163314806102be57505f818152600f60205260409020600201546001600160a01b0316156102be565b34610273575f366003190112610273576020601754604051908152f35b3461027357604036600319011261027357610546611b30565b61054e611b46565b6001600160a01b039182165f908152600160209081526040808320949093168252928352819020549051908152f35b3461027357604036600319011261027357600435610599611b80565b6105a4600954611e4d565b1561027357335f526016602052620186a560405f20541480610611575b15610273576105e190825f52600f60205260405f20549060801b90611f6d565b815f52600f60205260405f2055335f525f60205260405f2054905f52600f60205260405f205460801c1161027357005b505f828152600f60205260409020600201546001600160a01b03163314806105c157505f828152600f60205260409020600201546001600160a01b0316156105c1565b346102735760e03660031901126102735761066d611b30565b610675611b46565b6044359060643560843560ff81168103610273578142116107ae576107486107509160018060a01b03871693845f52600760205260405f20908154916001830190556040519060208201927f6e71edae12b1b97f4d1f60370fef10105fa2faae0126114a169c64845d6126c9845287604084015260018060a01b038916606084015289608084015260a083015260c082015260c0815261071660e082611c99565b519020610721612258565b906040519161190160f01b83526002830152602282015260c43591604260a435922061242d565b9190916124a8565b6001600160a01b0316036107695761076792611d49565b005b60405162461bcd60e51b815260206004820152601e60248201527f45524332305065726d69743a20696e76616c6964207369676e617475726500006044820152606490fd5b60405162461bcd60e51b815260206004820152601d60248201527f45524332305065726d69743a206578706972656420646561646c696e650000006044820152606490fd5b346102735760203660031901126102735761080c611bd0565b610817600954611e4d565b156102735760018060a01b036014541660115460ff601254931692835f52600a60205260ff600260405f200154169260ff841161039757600160801b80851b946001811b159086901c9091141715610397576001840180941161039757602092606491604051958694859363a7fed92560e01b85526004850152602484015260448301525afa9081156109bc575f9161098d575b501580610970575b15610273575f818152600a60205260409020600181015460029091015460081c60ff1691821561095c577faa1296f4b3f6523e3a0bfd9d5d3c4b03368451d888933da6f4bd4ded568e4249926040920490805f52600a6020526001835f200161091d838254611cf4565b9055805f52600a6020526002835f200160ff61093b81835416611d01565b1660ff1982541617905561094f8233611e60565b82519182526020820152a1005b634e487b7160e01b5f52601260045260245ffd5b50805f52600a60205260018060a01b0360405f20541633146108b3565b6109af915060203d6020116109b5575b6109a78183611c99565b810190611cdc565b826108ab565b503d61099d565b6040513d5f823e3d90fd5b34610273576020366003190112610273576109e0611b30565b6013546001600160a01b039182165f90815260156020908152604091829020548251938516845290931692820192909252f35b0390f35b3461027357604036600319011261027357610a3d610a33611b30565b6024359033611fdc565b602060405160018152f35b3461027357604036600319011261027357610a61611b30565b60243590335f52600160205260405f2060018060a01b0382165f5260205260405f205491808310610a9857610a3d92039033611d49565b60405162461bcd60e51b815260206004820152602560248201527f45524332303a2064656372656173656420616c6c6f77616e63652062656c6f77604482015264207a65726f60d81b6064820152608490fd5b3461027357604036600319011261027357610767610b07611b30565b60243590612152565b3461027357610b1e36611b96565b9091610b2b600954611e4d565b61027357335f526016602052620186a560405f20541480610b87575b156102735761076792816001600160801b03925f52600f602052610b7360405f20548360801b90611f6d565b905f52600f60205260405f20551690611e60565b505f818152600f60205260409020600201546001600160a01b0316331480610b4757505f818152600f60205260409020600201546001600160a01b031615610b47565b34610273575f366003190112610273576040515f600454610bea81611be0565b8084529060018116908115610c845750600114610c26575b610a1383610c1281850382611c99565b604051918291602083526020830190611b5c565b60045f9081527f8a35acfbc15ff81a39ae7d344fd709f28e8600b4aa8c65c6b64bfe7fe36bd19b939250905b808210610c6a57509091508101602001610c12610c02565b919260018160209254838588010152019101909291610c52565b60ff191660208086019190915291151560051b84019091019150610c129050610c02565b34610273576020366003190112610273576001600160a01b03610cc9611b30565b165f526016602052602060405f2054604051908152f35b34610273576020366003190112610273576004356001600160801b038116810361027357610d0f600954611e4d565b61027357335f526016602052600560405f20540361027357610d4490600d5490806001600160801b03169060801b1790611f6d565b600d55005b3461027357602036600319011261027357610d62611b30565b601354906001600160a01b0382163303610273576001600160a01b03166001600160a01b03199190911681176013556040519081527f853baecd5c22fcf8a4d994474a066771c51cfe6022b046e92a09874610cd128190602090a1005b34610273575f36600319011261027357610e5b610dfb7f0000000000000000000000000000000000000000000000000000000000000000612374565b610e247f00000000000000000000000000000000000000000000000000000000000000006123d7565b6020610e6960405192610e378385611c99565b5f84525f368137604051958695600f60f81b875260e08588015260e0870190611b5c565b908582036040870152611b5c565b4660608501523060808501525f60a085015283810360c08501528180845192838152019301915f5b828110610ea057505050500390f35b835185528695509381019392810192600101610e91565b3461027357602036600319011261027357610ed0611bd0565b610edb600954611e4d565b15610273576013546001600160a01b031633036102735760ff16805f52600a602052610f10600160405f200154601854611ccf565b6018557fe9eb8b3eaa515bc853ddfbcc70a35c0ac3c246c8053243b1925e5324e40da6196020604051838152a15f52600a6020525f60026040822082815582600182015501555f80f35b34610273576020366003190112610273576001600160a01b03610f7b611b30565b165f526007602052602060405f2054604051908152f35b3461027357604036600319011261027357610fab611b30565b610fb3611b80565b335f526016602052600160405f20540361027357610fcf611f02565b604080516001600160a01b03841660208201908152339282019290925261100381606081015b03601f198101835282611c99565b51902090815f52600e602052600160405f20015460801c6001600160801b038216908110155f1461113a5750505f818152600e602052604081206001810180549183905591909155608081901c92906001600160801b03905b81600d549161109f600c549361108e611084868616868c1681881986161760801c020461240e565b958a861690611fad565b600c558284168560801b1790611fad565b600d55169182911603936001600160801b03851161039757846080946001600160801b037fcd22d1cb8932396ecce835a81db9f8f268ec6f820ba46a7d202f275064de27c497168061112a575b505f52600e602052600160405f200154926040519460018060a01b0316855260208501526001600160801b031690841b1760408301526060820152a1005b6111349086611e60565b876110ec565b6111686001600160801b0391845f96949652600e602052600160405f20015490838260801c9216020461240e565b835f52600e602052611189600160405f2001548284168760801b1790611fad565b845f52600e602052600160405f20015561105c565b34610273576020366003190112610273576001600160a01b036111bf611b30565b165f525f602052602060405f2054604051908152f35b34610273576020366003190112610273576111ee611b30565b6013546001600160a01b03163303610273576001600160a01b03165f90815260166020526040812055005b34610273575f366003190112610273576020600954604051908152f35b346102735760403660031901126102735761124f611b30565b601354602435906001600160a01b03163303610273576001600160a01b039091165f8181526016602090815260409182902084905581519283528201929092527f967d50df84a5ebb45902fa277d5c3b0bc6403497c9fd6da2ecbd9ed420038f1491819081015b0390a1005b34610273575f366003190112610273576020601854604051908152f35b34610273576020366003190112610273576001600160a01b036112f9611b30565b165f526015602052602060018060a01b0360405f205416604051908152f35b3461027357608036600319011261027357611334600954611e4d565b15610273576018546024359061134a8282611cf4565b506013546001600160a01b03163303610273578161138b7f877ed6da5834ccc204b30cbf5d6dee192e221a56b7d0f4985a62d6849ba0a94c9360a093611cf4565b601855600b5460ff61139e818316611d01565b16809160ff191617600b555f52600a602052600260405f20600180851b036113c4611d13565b166001600160601b03851b8254161781558260018201550160ff6113e6611d29565b1660ff198254161781556113f8611d39565b61ff0082549160081b169061ff001916179055611413611d13565b9060ff61141e611d29565b81611427611d39565b9181600b541694604051966001808a1b0316875260208701521660408501521660608301526080820152a1005b3461027357604036600319011261027357610a3d611470611b30565b335f52600160205260405f2060018060a01b0382165f5260205261149b60405f206024359054611ccf565b9033611d49565b34610273575f3660031901126102735760206114bc612258565b604051908152f35b34610273575f36600319011261027357602060405160068152f35b34610273575f366003190112610273576040517f00000000000000000000000000000000000000000000000000000000000000006001600160a01b03168152602090f35b346102735760403660031901126102735761153c611b46565b611547600954611e4d565b15610273576013546001600160a01b031633036102735760405163a9059cbb60e01b81526001600160a01b03909116600480830191909152356024820152602081806044810103815f7f00000000000000000000000000000000000000000000000000000000000000006001600160a01b03165af180156109bc576115c857005b6107679060203d6020116109b5576109a78183611c99565b34610273576115ee36611b96565b90916115fb600954611e4d565b61027357335f526016602052620186a560405f20541480611657575b156102735761076792816001600160801b03925f52600f60205261164360405f20548360801b90611fad565b905f52600f60205260405f20551690612152565b505f818152600f60205260409020600201546001600160a01b031633148061161757505f818152600f60205260409020600201546001600160a01b031615611617565b34610273576060366003190112610273576116b3611b30565b6116bb611b46565b6001600160a01b0382165f9081526001602081815260408084203385529091529091205492604435929184016116f6575b610a3d9350611fdc565b8284106117125761170d83610a3d95033383611d49565b6116ec565b60405162461bcd60e51b815260206004820152601d60248201527f45524332303a20696e73756666696369656e7420616c6c6f77616e63650000006044820152606490fd5b3461027357604036600319011261027357600435611773611b80565b61177e600954611e4d565b1561027357335f526016602052620186a560405f205414806117cc575b15610273576117bb90825f52600f60205260405f20549060801b90611fad565b905f52600f60205260405f20555f80f35b505f828152600f60205260409020600201546001600160a01b031633148061179b57505f828152600f60205260409020600201546001600160a01b03161561179b565b3461027357604036600319011261027357611828611b30565b611830611b80565b335f526016602052600160405f2054036102735760209161184f611f02565b604080516001600160a01b0390921684830190815233602082015291906118799082908401610ff5565b519020611906600d54926001600160801b03841680155f1461192657505f935b6118b3856001600160801b031691828760801b1790611f6d565b600d556118cc600c54836001600160801b031690611f6d565b600c555f848152600e808852604080832080546001600160a01b0319163317905586835290885290206001015460809290921b1790611f6d565b905f52600e8352600160405f2001556001600160801b0360405191168152f35b611948906001600160801b03600c5416906001600160801b038416020461240e565b93611899565b34610273575f366003190112610273576020600254604051908152f35b3461027357602036600319011261027357611987600954611e4d565b156102735761199a600435601754611ccf565b601755610397565b3461027357604036600319011261027357610a3d6119be611b30565b6024359033611d49565b34610273575f366003190112610273576040515f6003546119e881611be0565b8084529060018116908115610c845750600114611a0f57610a1383610c1281850382611c99565b60035f9081527fc2575a0e9e593c00f959f8c92f12db2869c3395a3b0502d05e2516446f71f85b939250905b808210611a5357509091508101602001610c12610c02565b919260018160209254838588010152019101909291611a3b565b3461027357604036600319011261027357611a86611b30565b90611a8f611b46565b335f526016602052600160405f20541480611b0f575b611aab57005b6001600160a01b039283165f8181526015602090815260409182902080546001600160a01b03191694909616938417909555908352928201527f7e2c61ec322afd7c176ef5e26147c19f1720a9673c47042c84ea7458b3e0690091819081016112b6565b506001600160a01b038381165f908152601560205260409020541615611aa5565b600435906001600160a01b038216820361027357565b602435906001600160a01b038216820361027357565b805180835260209291819084018484015e5f828201840152601f01601f1916010190565b602435906001600160801b038216820361027357565b606090600319011261027357600435906024356001600160801b038116810361027357906044356001600160a01b03811681036102735790565b6004359060ff8216820361027357565b90600182811c92168015611c0e575b6020831014611bfa57565b634e487b7160e01b5f52602260045260245ffd5b91607f1691611bef565b5f9291815491611c2783611be0565b8083529260018116908115611c7c5750600114611c4357505050565b5f9081526020812093945091925b838310611c62575060209250010190565b600181602092949394548385870101520191019190611c51565b915050602093945060ff929192191683830152151560051b010190565b90601f8019910116810190811067ffffffffffffffff821117611cbb57604052565b634e487b7160e01b5f52604160045260245ffd5b9190820180921161039757565b90816020910312610273575180151581036102735790565b9190820391821161039757565b60ff60019116019060ff821161039757565b6004356001600160a01b03811681036102735790565b60443560ff811681036102735790565b60643560ff811681036102735790565b6001600160a01b0316908115611dfc576001600160a01b0316918215611dac5760207f8c5be1e5ebec7d5bd14f71427d1e84f3dd0314c0f7b2291e5b200ac8c7c3b92591835f526001825260405f20855f5282528060405f2055604051908152a3565b60405162461bcd60e51b815260206004820152602260248201527f45524332303a20617070726f766520746f20746865207a65726f206164647265604482015261737360f01b6064820152608490fd5b60405162461bcd60e51b8152602060048201526024808201527f45524332303a20617070726f76652066726f6d20746865207a65726f206164646044820152637265737360e01b6064820152608490fd5b60ff1c600103611e5c57600190565b5f90565b6001600160a01b0316908115611ebd577fddf252ad1be2c89b69c2b068fc378daa952ba7f163c4a11628f55a4df523b3ef602082611ea15f94600254611ccf565b60025584845283825260408420818154019055604051908152a3565b60405162461bcd60e51b815260206004820152601f60248201527f45524332303a206d696e7420746f20746865207a65726f2061646472657373006044820152606490fd5b600c54620151808160801c016001600160801b038111610397576001600160801b0342911610611f2f5750565b611f57611f486102a360871b60801d8360801d0161240e565b916001600160801b031661240e565b6001600160801b03169060801b17600c55610397565b611f9c90611f828360801d8260801d0161240e565b926001600160801b0316906001600160801b03160161240e565b6001600160801b03169060801b1790565b611f9c90611fc28360801d8260801d0361240e565b926001600160801b0316906001600160801b03160361240e565b6001600160a01b03169081156120ff576001600160a01b03169182156120ae57815f525f60205260405f205481811061205a57817fddf252ad1be2c89b69c2b068fc378daa952ba7f163c4a11628f55a4df523b3ef92602092855f525f84520360405f2055845f525f825260405f20818154019055604051908152a3565b60405162461bcd60e51b815260206004820152602660248201527f45524332303a207472616e7366657220616d6f756e7420657863656564732062604482015265616c616e636560d01b6064820152608490fd5b60405162461bcd60e51b815260206004820152602360248201527f45524332303a207472616e7366657220746f20746865207a65726f206164647260448201526265737360e81b6064820152608490fd5b60405162461bcd60e51b815260206004820152602560248201527f45524332303a207472616e736665722066726f6d20746865207a65726f206164604482015264647265737360d81b6064820152608490fd5b6001600160a01b0316801561220957805f525f60205260405f2054918083106121b9576020817fddf252ad1be2c89b69c2b068fc378daa952ba7f163c4a11628f55a4df523b3ef925f958587528684520360408620558060025403600255604051908152a3565b60405162461bcd60e51b815260206004820152602260248201527f45524332303a206275726e20616d6f756e7420657863656564732062616c616e604482015261636560f01b6064820152608490fd5b60405162461bcd60e51b815260206004820152602160248201527f45524332303a206275726e2066726f6d20746865207a65726f206164647265736044820152607360f81b6064820152608490fd5b307f00000000000000000000000000000000000000000000000000000000000000006001600160a01b0316148061234b575b156122b3577f000000000000000000000000000000000000000000000000000000000000000090565b60405160208101907f8b73c3c69bb8fe3d512ecc4cf759cc79239f7b179b0ffacaa9a75d522b39400f82527f000000000000000000000000000000000000000000000000000000000000000060408201527f000000000000000000000000000000000000000000000000000000000000000060608201524660808201523060a082015260a0815261234560c082611c99565b51902090565b507f0000000000000000000000000000000000000000000000000000000000000000461461228a565b60ff81146123ba5760ff811690601f82116123ab5760405191612398604084611c99565b6020808452838101919036833783525290565b632cd44ac360e21b5f5260045ffd5b506040516123d4816123cd816005611c18565b0382611c99565b90565b60ff81146123fb5760ff811690601f82116123ab5760405191612398604084611c99565b506040516123d4816123cd816006611c18565b6001600160801b038111612428576001600160801b031690565b505f90565b7f7fffffffffffffffffffffffffffffff5d576e7357a4501ddfe92f46681b20a0841161249d576020935f9360ff60809460405194855216868401526040830152606082015282805260015afa156109bc575f516001600160a01b0381161561249557905f90565b505f90600190565b505050505f90600390565b60058110156125ac57806124b95750565b600181036125065760405162461bcd60e51b815260206004820152601860248201527f45434453413a20696e76616c6964207369676e617475726500000000000000006044820152606490fd5b600281036125535760405162461bcd60e51b815260206004820152601f60248201527f45434453413a20696e76616c6964207369676e6174757265206c656e677468006044820152606490fd5b60031461255c57565b60405162461bcd60e51b815260206004820152602260248201527f45434453413a20696e76616c6964207369676e6174757265202773272076616c604482015261756560f01b6064820152608490fd5b634e487b7160e01b5f52602160045260245ffdfea2646970667358221220a19120fb2b508916c2d3ab1ad6bdfbb48b29d7fc15c3b3f00b718e02d8891fe464736f6c634300081a0033",
    "sourcePath": "/Users/admin/workspace/50Self_project/ttswap-core/Contracts/TTS_Layer1.sol",
    "compiler": {
        "name": "solc",
        "version": "0.8.26+commit.8a97fa7a"
    },
    "functionHashes": {
        "DOMAIN_SEPARATOR()": "3644e515",
        "addMint((address,uint256,uint8,uint8))": "3958e408",
        "addauths(address,uint256)": "542128dd",
        "addreferal(address,address)": "01ad369b",
        "allowance(address,address)": "dd62ed3e",
        "approve(address,uint256)": "095ea7b3",
        "balanceOf(address)": "70a08231",
        "burn(address,uint256)": "9dc29fac",
        "burnMint(uint8)": "7ff6e235",
        "chain_deposit(uint256,uint128)": "1cbd0a4c",
        "chain_withdraw(uint256,uint128)": "da623a4b",
        "changedaoadmin(address)": "88d08938",
        "daoMint(uint8)": "d35ff866",
        "decimals()": "313ce567",
        "decreaseAllowance(address,uint256)": "a457c2d7",
        "eip712Domain()": "84b0196e",
        "getreferal(address)": "3f6b6c20",
        "getreferalanddaoamdin(address)": "baf6e59e",
        "increaseAllowance(address,uint256)": "39509351",
        "isauths(address)": "94c3c333",
        "left_share()": "45fda707",
        "name()": "06fdde03",
        "nonces(address)": "7ecebe00",
        "permit(address,address,uint256,uint256,uint8,bytes32,bytes32)": "d505accf",
        "publicSell(uint256)": "0fffe72f",
        "publicsell()": "de5712d4",
        "rmauths(address)": "69a5ac32",
        "setEnv(uint256,uint256,address)": "f6f9b80d",
        "stake(address,uint128)": "19f8d5b4",
        "subchain_deposit(uint256,uint128,address)": "9bc69afc",
        "subchain_withdraw(uint256,uint128,address)": "2554301a",
        "symbol()": "95d89b41",
        "synchainstake(uint256,uint128)": "e7bfc21f",
        "syncpoolasset(uint128)": "8a6ed3f1",
        "totalSupply()": "18160ddd",
        "transfer(address,uint256)": "a9059cbb",
        "transferFrom(address,address,uint256)": "23b872dd",
        "ttstokenconfig()": "623059a5",
        "unstake(address,uint128)": "7bd3ca35",
        "usdt()": "2f48ab7d",
        "withdrawpublicsell(uint256,address)": "293b596d"
    },
    "gasEstimates": {
        "creation": {
            "codeDepositCost": "1943600",
            "executionCost": "infinite",
            "totalCost": "infinite"
        },
        "external": {
            "DOMAIN_SEPARATOR()": "infinite",
            "addMint((address,uint256,uint8,uint8))": "2618",
            "addauths(address,uint256)": "26264",
            "addreferal(address,address)": "30372",
            "allowance(address,address)": "3387",
            "approve(address,uint256)": "24394",
            "balanceOf(address)": "2845",
            "burn(address,uint256)": "51296",
            "burnMint(uint8)": "2877",
            "chain_deposit(uint256,uint128)": "2521",
            "chain_withdraw(uint256,uint128)": "3181",
            "changedaoadmin(address)": "26094",
            "daoMint(uint8)": "3119",
            "decimals()": "395",
            "decreaseAllowance(address,uint256)": "27308",
            "eip712Domain()": "infinite",
            "getreferal(address)": "2754",
            "getreferalanddaoamdin(address)": "5296",
            "increaseAllowance(address,uint256)": "26939",
            "isauths(address)": "3000",
            "left_share()": "2608",
            "name()": "infinite",
            "nonces(address)": "2890",
            "permit(address,address,uint256,uint256,uint8,bytes32,bytes32)": "infinite",
            "publicSell(uint256)": "2376",
            "publicsell()": "3092",
            "rmauths(address)": "7846",
            "setEnv(uint256,uint256,address)": "73245",
            "stake(address,uint128)": "infinite",
            "subchain_deposit(uint256,uint128,address)": "infinite",
            "subchain_withdraw(uint256,uint128,address)": "infinite",
            "symbol()": "infinite",
            "synchainstake(uint256,uint128)": "3247",
            "syncpoolasset(uint128)": "infinite",
            "totalSupply()": "2344",
            "transfer(address,uint256)": "51458",
            "transferFrom(address,address,uint256)": "77436",
            "ttstokenconfig()": "2652",
            "unstake(address,uint128)": "infinite",
            "usdt()": "infinite",
            "withdrawpublicsell(uint256,address)": "2581"
        },
        "internal": {
            "_stakefee()": "infinite"
        }
    }
}