{
    "contractName": "MarketManager",
    "abi": [
        {
            "inputs": [
                {
                    "internalType": "uint256",
                    "name": "_marketconfig",
                    "type": "uint256"
                },
                {
                    "internalType": "address",
                    "name": "_officialTokenContract",
                    "type": "address"
                },
                {
                    "internalType": "address",
                    "name": "_officialNFTContract",
                    "type": "address"
                }
            ],
            "stateMutability": "nonpayable",
            "type": "constructor"
        },
        {
            "inputs": [],
            "name": "ERC20TransferFailed",
            "type": "error"
        },
        {
            "inputs": [],
            "name": "NativeTransferFailed",
            "type": "error"
        },
        {
            "anonymous": false,
            "inputs": [
                {
                    "indexed": false,
                    "internalType": "address",
                    "name": "_user",
                    "type": "address"
                }
            ],
            "name": "e_addbanlist",
            "type": "event"
        },
        {
            "anonymous": false,
            "inputs": [
                {
                    "indexed": false,
                    "internalType": "address",
                    "name": "referals",
                    "type": "address"
                }
            ],
            "name": "e_addreferal",
            "type": "event"
        },
        {
            "anonymous": false,
            "inputs": [
                {
                    "indexed": true,
                    "internalType": "uint256",
                    "name": "sellgood",
                    "type": "uint256"
                },
                {
                    "indexed": true,
                    "internalType": "uint256",
                    "name": "forgood",
                    "type": "uint256"
                },
                {
                    "indexed": false,
                    "internalType": "address",
                    "name": "fromer",
                    "type": "address"
                },
                {
                    "indexed": false,
                    "internalType": "uint128",
                    "name": "swapvalue",
                    "type": "uint128"
                },
                {
                    "indexed": false,
                    "internalType": "T_BalanceUINT256",
                    "name": "sellgoodstate",
                    "type": "uint256"
                },
                {
                    "indexed": false,
                    "internalType": "T_BalanceUINT256",
                    "name": "forgoodstate",
                    "type": "uint256"
                }
            ],
            "name": "e_buyGood",
            "type": "event"
        },
        {
            "anonymous": false,
            "inputs": [
                {
                    "indexed": true,
                    "internalType": "uint256",
                    "name": "buygood",
                    "type": "uint256"
                },
                {
                    "indexed": true,
                    "internalType": "uint256",
                    "name": "usegood",
                    "type": "uint256"
                },
                {
                    "indexed": false,
                    "internalType": "address",
                    "name": "fromer",
                    "type": "address"
                },
                {
                    "indexed": false,
                    "internalType": "address",
                    "name": "receipt",
                    "type": "address"
                },
                {
                    "indexed": false,
                    "internalType": "uint128",
                    "name": "swapvalue",
                    "type": "uint128"
                },
                {
                    "indexed": false,
                    "internalType": "T_BalanceUINT256",
                    "name": "buygoodstate",
                    "type": "uint256"
                },
                {
                    "indexed": false,
                    "internalType": "T_BalanceUINT256",
                    "name": "usegoodstate",
                    "type": "uint256"
                }
            ],
            "name": "e_buyGoodForPay",
            "type": "event"
        },
        {
            "anonymous": false,
            "inputs": [
                {
                    "indexed": true,
                    "internalType": "uint256",
                    "name": "_goodid",
                    "type": "uint256"
                },
                {
                    "indexed": false,
                    "internalType": "address",
                    "name": "_owner",
                    "type": "address"
                },
                {
                    "indexed": false,
                    "internalType": "address",
                    "name": "_to",
                    "type": "address"
                }
            ],
            "name": "e_changeOwner",
            "type": "event"
        },
        {
            "anonymous": false,
            "inputs": [
                {
                    "indexed": false,
                    "internalType": "uint256",
                    "name": "goodid",
                    "type": "uint256"
                },
                {
                    "indexed": false,
                    "internalType": "address",
                    "name": "to",
                    "type": "address"
                }
            ],
            "name": "e_changegoodowner",
            "type": "event"
        },
        {
            "anonymous": false,
            "inputs": [
                {
                    "indexed": true,
                    "internalType": "uint256",
                    "name": "_proofNo",
                    "type": "uint256"
                },
                {
                    "indexed": false,
                    "internalType": "uint256",
                    "name": "_normalGoodNo",
                    "type": "uint256"
                },
                {
                    "indexed": false,
                    "internalType": "uint256",
                    "name": "_valueGoodNo",
                    "type": "uint256"
                },
                {
                    "indexed": false,
                    "internalType": "T_BalanceUINT256",
                    "name": "_profit",
                    "type": "uint256"
                }
            ],
            "name": "e_collectProof",
            "type": "event"
        },
        {
            "anonymous": false,
            "inputs": [
                {
                    "indexed": false,
                    "internalType": "uint256",
                    "name": "goodid",
                    "type": "uint256"
                },
                {
                    "indexed": false,
                    "internalType": "uint256",
                    "name": "feeamount",
                    "type": "uint256"
                }
            ],
            "name": "e_collectProtocolFee",
            "type": "event"
        },
        {
            "anonymous": false,
            "inputs": [
                {
                    "indexed": false,
                    "internalType": "uint256[]",
                    "name": "_gooid",
                    "type": "uint256[]"
                },
                {
                    "indexed": false,
                    "internalType": "uint256[]",
                    "name": "_commisionamount",
                    "type": "uint256[]"
                }
            ],
            "name": "e_collectcommission",
            "type": "event"
        },
        {
            "anonymous": false,
            "inputs": [
                {
                    "indexed": true,
                    "internalType": "uint256",
                    "name": "_proofNo",
                    "type": "uint256"
                },
                {
                    "indexed": false,
                    "internalType": "uint256",
                    "name": "_normalGoodNo",
                    "type": "uint256"
                },
                {
                    "indexed": false,
                    "internalType": "uint256",
                    "name": "_valueGoodNo",
                    "type": "uint256"
                },
                {
                    "indexed": false,
                    "internalType": "T_BalanceUINT256",
                    "name": "_value",
                    "type": "uint256"
                },
                {
                    "indexed": false,
                    "internalType": "T_BalanceUINT256",
                    "name": "_normalgood",
                    "type": "uint256"
                },
                {
                    "indexed": false,
                    "internalType": "T_BalanceUINT256",
                    "name": "_valuegood",
                    "type": "uint256"
                },
                {
                    "indexed": false,
                    "internalType": "T_BalanceUINT256",
                    "name": "_profit",
                    "type": "uint256"
                }
            ],
            "name": "e_disinvestProof",
            "type": "event"
        },
        {
            "anonymous": false,
            "inputs": [
                {
                    "indexed": false,
                    "internalType": "uint256",
                    "name": "_goodid",
                    "type": "uint256"
                },
                {
                    "indexed": false,
                    "internalType": "uint256",
                    "name": "_valuegood",
                    "type": "uint256"
                },
                {
                    "indexed": false,
                    "internalType": "uint256",
                    "name": "_quantity",
                    "type": "uint256"
                }
            ],
            "name": "e_enpower",
            "type": "event"
        },
        {
            "anonymous": false,
            "inputs": [
                {
                    "indexed": false,
                    "internalType": "uint256",
                    "name": "goodid",
                    "type": "uint256"
                },
                {
                    "indexed": false,
                    "internalType": "uint128",
                    "name": "welfare",
                    "type": "uint128"
                }
            ],
            "name": "e_goodWelfare",
            "type": "event"
        },
        {
            "anonymous": false,
            "inputs": [
                {
                    "indexed": false,
                    "internalType": "uint256",
                    "name": "_proofNo",
                    "type": "uint256"
                },
                {
                    "indexed": false,
                    "internalType": "T_BalanceUINT256",
                    "name": "_extendinfo",
                    "type": "uint256"
                },
                {
                    "indexed": false,
                    "internalType": "uint256",
                    "name": "_valuegoodNo",
                    "type": "uint256"
                },
                {
                    "indexed": false,
                    "internalType": "address",
                    "name": "_erc20address",
                    "type": "address"
                },
                {
                    "indexed": false,
                    "internalType": "uint256",
                    "name": "_goodConfig",
                    "type": "uint256"
                },
                {
                    "indexed": false,
                    "internalType": "T_BalanceUINT256",
                    "name": "_normalinitial",
                    "type": "uint256"
                },
                {
                    "indexed": false,
                    "internalType": "T_BalanceUINT256",
                    "name": "_value",
                    "type": "uint256"
                }
            ],
            "name": "e_initGood",
            "type": "event"
        },
        {
            "anonymous": false,
            "inputs": [
                {
                    "indexed": false,
                    "internalType": "uint256",
                    "name": "_proofNo",
                    "type": "uint256"
                },
                {
                    "indexed": false,
                    "internalType": "T_BalanceUINT256",
                    "name": "_extendinfo",
                    "type": "uint256"
                },
                {
                    "indexed": false,
                    "internalType": "address",
                    "name": "_erc20address",
                    "type": "address"
                },
                {
                    "indexed": false,
                    "internalType": "uint256",
                    "name": "_goodConfig",
                    "type": "uint256"
                },
                {
                    "indexed": false,
                    "internalType": "T_BalanceUINT256",
                    "name": "_initial",
                    "type": "uint256"
                }
            ],
            "name": "e_initMetaGood",
            "type": "event"
        },
        {
            "anonymous": false,
            "inputs": [
                {
                    "indexed": true,
                    "internalType": "uint256",
                    "name": "_proofNo",
                    "type": "uint256"
                },
                {
                    "indexed": false,
                    "internalType": "T_BalanceUINT256",
                    "name": "_extendinfo",
                    "type": "uint256"
                },
                {
                    "indexed": false,
                    "internalType": "uint256",
                    "name": "_valueGoodNo",
                    "type": "uint256"
                },
                {
                    "indexed": false,
                    "internalType": "T_BalanceUINT256",
                    "name": "_value",
                    "type": "uint256"
                },
                {
                    "indexed": false,
                    "internalType": "T_BalanceUINT256",
                    "name": "_invest",
                    "type": "uint256"
                },
                {
                    "indexed": false,
                    "internalType": "T_BalanceUINT256",
                    "name": "_valueinvest",
                    "type": "uint256"
                }
            ],
            "name": "e_investGood",
            "type": "event"
        },
        {
            "anonymous": false,
            "inputs": [
                {
                    "indexed": false,
                    "internalType": "uint256",
                    "name": "_goodid",
                    "type": "uint256"
                },
                {
                    "indexed": false,
                    "internalType": "uint256",
                    "name": "_goodconfig",
                    "type": "uint256"
                }
            ],
            "name": "e_modifyGoodConfig",
            "type": "event"
        },
        {
            "anonymous": false,
            "inputs": [
                {
                    "indexed": false,
                    "internalType": "address",
                    "name": "_user",
                    "type": "address"
                }
            ],
            "name": "e_removebanlist",
            "type": "event"
        },
        {
            "anonymous": false,
            "inputs": [
                {
                    "indexed": false,
                    "internalType": "uint256",
                    "name": "_marketconfig",
                    "type": "uint256"
                }
            ],
            "name": "e_setMarketConfig",
            "type": "event"
        },
        {
            "anonymous": false,
            "inputs": [
                {
                    "indexed": false,
                    "internalType": "uint256",
                    "name": "_goodid",
                    "type": "uint256"
                },
                {
                    "indexed": false,
                    "internalType": "uint256",
                    "name": "_goodConfig",
                    "type": "uint256"
                }
            ],
            "name": "e_updateGoodConfig",
            "type": "event"
        },
        {
            "inputs": [
                {
                    "internalType": "address",
                    "name": "_user",
                    "type": "address"
                }
            ],
            "name": "addbanlist",
            "outputs": [
                {
                    "internalType": "bool",
                    "name": "",
                    "type": "bool"
                }
            ],
            "stateMutability": "nonpayable",
            "type": "function"
        },
        {
            "inputs": [
                {
                    "internalType": "address",
                    "name": "",
                    "type": "address"
                }
            ],
            "name": "banlist",
            "outputs": [
                {
                    "internalType": "uint256",
                    "name": "",
                    "type": "uint256"
                }
            ],
            "stateMutability": "view",
            "type": "function"
        },
        {
            "inputs": [
                {
                    "internalType": "uint256",
                    "name": "_goodid1",
                    "type": "uint256"
                },
                {
                    "internalType": "uint256",
                    "name": "_goodid2",
                    "type": "uint256"
                },
                {
                    "internalType": "uint128",
                    "name": "_swapQuantity",
                    "type": "uint128"
                },
                {
                    "internalType": "T_BalanceUINT256",
                    "name": "_limitPrice",
                    "type": "uint256"
                },
                {
                    "internalType": "bool",
                    "name": "_istotal",
                    "type": "bool"
                },
                {
                    "internalType": "address",
                    "name": "_referal",
                    "type": "address"
                }
            ],
            "name": "buyGood",
            "outputs": [
                {
                    "internalType": "uint128",
                    "name": "goodid2Quantity_",
                    "type": "uint128"
                },
                {
                    "internalType": "uint128",
                    "name": "goodid2FeeQuantity_",
                    "type": "uint128"
                }
            ],
            "stateMutability": "payable",
            "type": "function"
        },
        {
            "inputs": [
                {
                    "internalType": "uint256",
                    "name": "_goodid1",
                    "type": "uint256"
                },
                {
                    "internalType": "uint256",
                    "name": "_goodid2",
                    "type": "uint256"
                },
                {
                    "internalType": "uint128",
                    "name": "_swapQuantity",
                    "type": "uint128"
                },
                {
                    "internalType": "T_BalanceUINT256",
                    "name": "_limitPrice",
                    "type": "uint256"
                },
                {
                    "internalType": "address",
                    "name": "_recipient",
                    "type": "address"
                }
            ],
            "name": "buyGoodForPay",
            "outputs": [
                {
                    "internalType": "uint128",
                    "name": "goodid1Quantity_",
                    "type": "uint128"
                },
                {
                    "internalType": "uint128",
                    "name": "goodid1FeeQuantity_",
                    "type": "uint128"
                }
            ],
            "stateMutability": "payable",
            "type": "function"
        },
        {
            "inputs": [
                {
                    "internalType": "uint256",
                    "name": "_goodid",
                    "type": "uint256"
                },
                {
                    "internalType": "address",
                    "name": "_to",
                    "type": "address"
                }
            ],
            "name": "changeGoodOwner",
            "outputs": [],
            "stateMutability": "nonpayable",
            "type": "function"
        },
        {
            "inputs": [
                {
                    "internalType": "uint256[]",
                    "name": "_goodid",
                    "type": "uint256[]"
                }
            ],
            "name": "collectCommission",
            "outputs": [],
            "stateMutability": "nonpayable",
            "type": "function"
        },
        {
            "inputs": [
                {
                    "internalType": "uint256",
                    "name": "_proofid",
                    "type": "uint256"
                },
                {
                    "internalType": "address",
                    "name": "_gater",
                    "type": "address"
                }
            ],
            "name": "collectProof",
            "outputs": [
                {
                    "internalType": "T_BalanceUINT256",
                    "name": "profit_",
                    "type": "uint256"
                }
            ],
            "stateMutability": "nonpayable",
            "type": "function"
        },
        {
            "inputs": [
                {
                    "internalType": "uint256",
                    "name": "_proofid",
                    "type": "uint256"
                },
                {
                    "internalType": "uint128",
                    "name": "_goodQuantity",
                    "type": "uint128"
                },
                {
                    "internalType": "address",
                    "name": "_gater",
                    "type": "address"
                }
            ],
            "name": "disinvestProof",
            "outputs": [
                {
                    "internalType": "bool",
                    "name": "",
                    "type": "bool"
                }
            ],
            "stateMutability": "nonpayable",
            "type": "function"
        },
        {
            "inputs": [
                {
                    "internalType": "uint256",
                    "name": "goodkey",
                    "type": "uint256"
                }
            ],
            "name": "getGoodState",
            "outputs": [
                {
                    "components": [
                        {
                            "internalType": "uint256",
                            "name": "goodConfig",
                            "type": "uint256"
                        },
                        {
                            "internalType": "address",
                            "name": "owner",
                            "type": "address"
                        },
                        {
                            "internalType": "address",
                            "name": "erc20address",
                            "type": "address"
                        },
                        {
                            "internalType": "T_BalanceUINT256",
                            "name": "currentState",
                            "type": "uint256"
                        },
                        {
                            "internalType": "T_BalanceUINT256",
                            "name": "investState",
                            "type": "uint256"
                        },
                        {
                            "internalType": "T_BalanceUINT256",
                            "name": "feeQuantityState",
                            "type": "uint256"
                        }
                    ],
                    "internalType": "struct L_Good.S_GoodTmpState",
                    "name": "",
                    "type": "tuple"
                }
            ],
            "stateMutability": "view",
            "type": "function"
        },
        {
            "inputs": [
                {
                    "internalType": "uint256",
                    "name": "proofid",
                    "type": "uint256"
                }
            ],
            "name": "getProofState",
            "outputs": [
                {
                    "components": [
                        {
                            "internalType": "uint256",
                            "name": "currentgood",
                            "type": "uint256"
                        },
                        {
                            "internalType": "uint256",
                            "name": "valuegood",
                            "type": "uint256"
                        },
                        {
                            "internalType": "T_BalanceUINT256",
                            "name": "state",
                            "type": "uint256"
                        },
                        {
                            "internalType": "T_BalanceUINT256",
                            "name": "invest",
                            "type": "uint256"
                        },
                        {
                            "internalType": "T_BalanceUINT256",
                            "name": "valueinvest",
                            "type": "uint256"
                        }
                    ],
                    "internalType": "struct L_Proof.S_ProofState",
                    "name": "",
                    "type": "tuple"
                }
            ],
            "stateMutability": "view",
            "type": "function"
        },
        {
            "inputs": [],
            "name": "goodNum",
            "outputs": [
                {
                    "internalType": "uint256",
                    "name": "",
                    "type": "uint256"
                }
            ],
            "stateMutability": "view",
            "type": "function"
        },
        {
            "inputs": [
                {
                    "internalType": "uint256",
                    "name": "goodid",
                    "type": "uint256"
                },
                {
                    "internalType": "uint128",
                    "name": "welfare",
                    "type": "uint128"
                }
            ],
            "name": "goodWelfare",
            "outputs": [],
            "stateMutability": "payable",
            "type": "function"
        },
        {
            "inputs": [
                {
                    "internalType": "uint256",
                    "name": "_valuegood",
                    "type": "uint256"
                },
                {
                    "internalType": "T_BalanceUINT256",
                    "name": "_initial",
                    "type": "uint256"
                },
                {
                    "internalType": "address",
                    "name": "_erc20address",
                    "type": "address"
                },
                {
                    "internalType": "uint256",
                    "name": "_goodConfig",
                    "type": "uint256"
                }
            ],
            "name": "initGood",
            "outputs": [
                {
                    "internalType": "bool",
                    "name": "",
                    "type": "bool"
                }
            ],
            "stateMutability": "payable",
            "type": "function"
        },
        {
            "inputs": [
                {
                    "internalType": "address",
                    "name": "_erc20address",
                    "type": "address"
                },
                {
                    "internalType": "T_BalanceUINT256",
                    "name": "_initial",
                    "type": "uint256"
                },
                {
                    "internalType": "uint256",
                    "name": "_goodConfig",
                    "type": "uint256"
                }
            ],
            "name": "initMetaGood",
            "outputs": [
                {
                    "internalType": "bool",
                    "name": "",
                    "type": "bool"
                }
            ],
            "stateMutability": "payable",
            "type": "function"
        },
        {
            "inputs": [
                {
                    "internalType": "uint256",
                    "name": "_togood",
                    "type": "uint256"
                },
                {
                    "internalType": "uint256",
                    "name": "_valuegood",
                    "type": "uint256"
                },
                {
                    "internalType": "uint128",
                    "name": "_quantity",
                    "type": "uint128"
                }
            ],
            "name": "investGood",
            "outputs": [
                {
                    "internalType": "bool",
                    "name": "",
                    "type": "bool"
                }
            ],
            "stateMutability": "payable",
            "type": "function"
        },
        {
            "inputs": [
                {
                    "internalType": "uint256",
                    "name": "goodid",
                    "type": "uint256"
                },
                {
                    "internalType": "uint256",
                    "name": "valuegood",
                    "type": "uint256"
                },
                {
                    "internalType": "uint256",
                    "name": "compareprice",
                    "type": "uint256"
                }
            ],
            "name": "ishigher",
            "outputs": [
                {
                    "internalType": "bool",
                    "name": "",
                    "type": "bool"
                }
            ],
            "stateMutability": "view",
            "type": "function"
        },
        {
            "inputs": [],
            "name": "marketconfig",
            "outputs": [
                {
                    "internalType": "uint256",
                    "name": "",
                    "type": "uint256"
                }
            ],
            "stateMutability": "view",
            "type": "function"
        },
        {
            "inputs": [
                {
                    "internalType": "uint256",
                    "name": "_goodid",
                    "type": "uint256"
                },
                {
                    "internalType": "uint256",
                    "name": "_goodConfig",
                    "type": "uint256"
                }
            ],
            "name": "modifyGoodConfig",
            "outputs": [
                {
                    "internalType": "bool",
                    "name": "",
                    "type": "bool"
                }
            ],
            "stateMutability": "nonpayable",
            "type": "function"
        },
        {
            "inputs": [
                {
                    "internalType": "uint256",
                    "name": "_goodid",
                    "type": "uint256"
                },
                {
                    "internalType": "uint256",
                    "name": "_payquanity",
                    "type": "uint256"
                },
                {
                    "internalType": "address",
                    "name": "_recipent",
                    "type": "address"
                }
            ],
            "name": "payGood",
            "outputs": [
                {
                    "internalType": "bool",
                    "name": "",
                    "type": "bool"
                }
            ],
            "stateMutability": "payable",
            "type": "function"
        },
        {
            "inputs": [
                {
                    "internalType": "uint256",
                    "name": "",
                    "type": "uint256"
                }
            ],
            "name": "proofmapping",
            "outputs": [
                {
                    "internalType": "uint256",
                    "name": "",
                    "type": "uint256"
                }
            ],
            "stateMutability": "view",
            "type": "function"
        },
        {
            "inputs": [
                {
                    "internalType": "uint256[]",
                    "name": "_goodid",
                    "type": "uint256[]"
                },
                {
                    "internalType": "address",
                    "name": "_recipent",
                    "type": "address"
                }
            ],
            "name": "queryCommission",
            "outputs": [
                {
                    "internalType": "uint256[]",
                    "name": "",
                    "type": "uint256[]"
                }
            ],
            "stateMutability": "view",
            "type": "function"
        },
        {
            "inputs": [
                {
                    "internalType": "address",
                    "name": "_user",
                    "type": "address"
                }
            ],
            "name": "removebanlist",
            "outputs": [
                {
                    "internalType": "bool",
                    "name": "",
                    "type": "bool"
                }
            ],
            "stateMutability": "nonpayable",
            "type": "function"
        },
        {
            "inputs": [
                {
                    "internalType": "uint256",
                    "name": "_marketconfig",
                    "type": "uint256"
                }
            ],
            "name": "setMarketConfig",
            "outputs": [
                {
                    "internalType": "bool",
                    "name": "",
                    "type": "bool"
                }
            ],
            "stateMutability": "nonpayable",
            "type": "function"
        },
        {
            "inputs": [],
            "name": "totalSupply",
            "outputs": [
                {
                    "internalType": "uint256",
                    "name": "",
                    "type": "uint256"
                }
            ],
            "stateMutability": "view",
            "type": "function"
        },
        {
            "inputs": [
                {
                    "internalType": "uint256",
                    "name": "_goodid",
                    "type": "uint256"
                },
                {
                    "internalType": "uint256",
                    "name": "_goodConfig",
                    "type": "uint256"
                }
            ],
            "name": "updateGoodConfig",
            "outputs": [
                {
                    "internalType": "bool",
                    "name": "",
                    "type": "bool"
                }
            ],
            "stateMutability": "nonpayable",
            "type": "function"
        }
    ],
    "bytecode": "60c03460d857601f61441538819003918201601f19168301916001600160401b0383118484101760dc5780849260609460405283398101031260d85780519060526040604c6020840160f0565b920160f0565b9060805260a052600355604051614311908161010482396080518181816101d90152818161051b0152818161068a015281816109cc01528181610e910152818161125b015281816114830152818161160a01528181611c860152612296015260a05181818161088d015281816113b90152818161158001528181611fca01526122090152f35b5f80fd5b634e487b7160e01b5f52604160045260245ffd5b51906001600160a01b038216820360d85756fe60806040526004361015610011575f80fd5b5f3560e01c80630e21a1ac146101a4578063144aeb831461019f57806318160ddd1461019a57806318ad50d1146101955780632973ada7146101905780632a7c5a911461018b5780633f11774014610186578063402f5ab51461018157806345818e4c1461017c5780634ffef90714610177578063578496ab146101725780635a5da4dd1461016d5780635e008cc4146101685780636ff73c8e14610163578063920acbb81461015e5780639551177a1461015957806397924ead14610154578063a676a6001461014f578063a6f6a9801461014a578063a7e1169714610145578063a7fed92514610140578063b153b9201461013b578063f44733ad14610136578063f4662f20146101315763f88c30101461012c575f80fd5b6124fc565b612186565b611cf1565b611c4e565b611c01565b611905565b6117a8565b611509565b6112c6565b611223565b61119b565b6110df565b610f38565b610f1b565b610b08565b6106f5565b61065b565b61063e565b610583565b6104e0565b6104a5565b610360565b610333565b610274565b3461023c57604036600319011261023c576004356024356040516394c3c33360e01b81523360048201529091906020816024817f00000000000000000000000000000000000000000000000000000000000000006001600160a01b03165afa801561026f576002915f91610240575b500361023c576102389161022691612699565b60405190151581529081906020820190565b0390f35b5f80fd5b610262915060203d602011610268575b61025a8183610fb3565b810190612678565b5f610213565b503d610250565b612687565b3461023c57604036600319011261023c576004356024355f828152600560205260409020600101546001600160a01b0316330361023c57815f52600560205260405f20916401ffffffff60df1b83541660018060df1b0383168101809111610324577fc360eef79f1e7d7e7564e3cd446a9839f5a632a38a4d34b507c08e1ceef4614793556103156040519283928360209093929193604081019481520152565b0390a160405160018152602090f35b612705565b5f91031261023c57565b3461023c575f36600319011261023c5760205f54604051908152f35b6001600160801b0381160361023c57565b604036600319011261023c5760043560243561037b8161034f565b5f805160206142bc8339815191525c6001600160a01b031661023c57335f805160206142bc8339815191525d815f5260056020526001606d1b6001600160801b036103d083600560405f20015460801c612719565b161161023c578161043261042060026104127f54fe3e24ce316357354d8b9553364de253d61c742d913dfd419149ddf696947a965f52600560205260405f2090565b01546001600160a01b031690565b6001600160801b038416903390612a18565b61045b6005610449835f52600560205260405f2090565b01546104558460801b90565b90612a24565b600561046f835f52600560205260405f2090565b0155604080519182526001600160801b03929092166020820152a1610492612a06565b005b6001600160a01b0381160361023c57565b3461023c57602036600319011261023c576004356104c281610494565b60018060a01b03165f526006602052602060405f2054604051908152f35b3461023c57604036600319011261023c5760043560243561050081610494565b6040516394c3c33360e01b81523360048201526020816024817f00000000000000000000000000000000000000000000000000000000000000006001600160a01b03165afa801561026f576002915f91610564575b500361023c5761049291612739565b61057d915060203d6020116102685761025a8183610fb3565b5f610555565b3461023c57602036600319011261023c576004355f60806040516105a681610f76565b82815282602082015282604082015282606082015201525f52600160205261023860405f206004604051916105da83610f76565b80548352600181015460208401526002810154604084015260038101546060840152015460808201526040519182918291909160808060a0830194805184526020810151602085015260408101516040850152606081015160608501520151910152565b3461023c575f36600319011261023c576020600354604051908152f35b3461023c57602036600319011261023c576004356040516394c3c33360e01b81523360048201526020816024817f00000000000000000000000000000000000000000000000000000000000000006001600160a01b03165afa801561026f576002915f916106d6575b500361023c576102266102389161279f565b6106ef915060203d6020116102685761025a8183610fb3565b5f6106c4565b608036600319011261023c5760043560243560443561071381610494565b606435905f805160206142bc8339815191525c6001600160a01b031661023c57335f805160206142bc8339815191525d61076561074e610fd5565b3381526001600160a01b0383166020820152612a53565b9160018060a01b036107846001610412865f52600560205260405f2090565b161580610ad2575b61079590612692565b6107eb8460801c946107a8863386612a18565b6107d46107c260026104128a5f52600560205260405f2090565b6001600160801b038316903390612a18565b6107e6875f52600560205260405f2090565b612a89565b906107ff6107fa6004546127d3565b600455565b610811845f52600560205260405f2090565b9461084982856040860198610843856108318c516001600160801b031690565b906001600160801b03169060801b1790565b90612bdd565b6108535f546127d3565b5f55610874610860610fe6565b338152866020820152886040820152612c33565b6108885f54915f52600260205260405f2090565b555f547f00000000000000000000000000000000000000000000000000000000000000006001600160a01b0316803b1561023c576040516340c10f1960e01b815233600482015260248101929092525f908290604490829084905af1801561026f57610ab8575b5085516001600160801b031660801b906001600160801b03811691602085015161091f906001600160801b031690565b9260608601938451610937906001600160801b031690565b61094d91906001600160801b03169060801b1790565b90610956610ff5565b928984528b60208501526040840152606083015260808201525f54610983905f52600160205260405f2090565b8151815560208201516001820155604082015160028201556060820151600382015560809091015160049091015586516001600160801b03166109c5906127e1565b6109f090337f0000000000000000000000000000000000000000000000000000000000000000612c68565b5f54966109fc90612ceb565b9751608098891b6001600160801b039283161798911691901b1792516001600160801b031690516001600160801b0316610a4291906001600160801b03169060801b1790565b604080519586526020860196909652948401959095526001600160a01b03919091166060830152608082019390935260a081019290925260c08201527fd5b1190461e8b8cebdd658c8dd4f092c64be24d6dae8d80a4174dad7899a814e9060e090a1610aac612a06565b60405160018152602090f35b80610ac65f610acc93610fb3565b80610329565b5f6108ef565b50610795610af7610aeb875f52600560205260405f2090565b54600160ff1b16151590565b905061078c565b8015150361023c57565b60c036600319011261023c57600435604435602435610b268261034f565b60843592606435610b3685610afe565b60a43590610b4382610494565b5f805160206142bc8339815191525c6001600160a01b031661023c57335f805160206142bc8339815191525d6001600160a01b038216610e8f575b610c1691506003610b97845f52600560205260405f2090565b0154610bab845f52600560205260405f2090565b546003610bc0875f52600560205260405f2090565b0154610bd4875f52600560205260405f2090565b5491610bde611004565b6001600160801b038a168152935f60208601525f60408601525f6060860152608085015260a084015260c083015260e0820152612d58565b936001600160801b038416908115159182610e6f575b5081610e64575b81610e2d575b50610c4390612692565b7fa79c43e220b5faf022716b06e757294b799a25f33d3c8b0121e614f7b5d988c4610c76835f52600560205260405f2090565b5494610dd8610cb7610cb0610c9560208501516001600160801b031690565b986001600160801b038a165b607f6127109260cc1c16020490565b8098612814565b95610dc7610db9610cd0875f52600560205260405f2090565b92610cf66080870151946040880195610cf087516001600160801b031690565b91613096565b610d178b610d0c8b5f52600560205260405f2090565b60c089015190613096565b610d62610d3160026104128b5f52600560205260405f2090565b610d5a610d4e610d488a516001600160801b031690565b85612814565b6001600160801b031690565b903390612a18565b610d8e610d7c60026104128c5f52600560205260405f2090565b6001600160801b038c169033906130b0565b610db3610da560608801516001600160801b031690565b96516001600160801b031690565b90612814565b91516001600160801b031690565b6001600160801b03169060801b1790565b604080513381526001600160801b03938416602082015290810191909152608086811b928816929092176060820152a3610e10612a06565b604080516001600160801b03928316815292909116602083015290f35b6001915015151480610e43575b15610c43610c39565b50610c43610e5b610d4e86516001600160801b031690565b15159050610e3a565b828414159150610c33565b909150610e86610d4e87516001600160801b031690565b1415905f610c2c565b7f00000000000000000000000000000000000000000000000000000000000000006001600160a01b0316803b1561023c576040516376549e6760e11b81523360048201526001600160a01b039390931660248401525f908390604490829084905af191821561026f57610c1692610f07575b50610b7e565b80610ac65f610f1593610fb3565b5f610f01565b3461023c575f36600319011261023c576020600454604051908152f35b3461023c57602036600319011261023c576004355f526002602052602060405f2054604051908152f35b634e487b7160e01b5f52604160045260245ffd5b60a0810190811067ffffffffffffffff821117610f9257604052565b610f62565b60c0810190811067ffffffffffffffff821117610f9257604052565b90601f8019910116810190811067ffffffffffffffff821117610f9257604052565b60405190610fe4604083610fb3565b565b60405190610fe4606083610fb3565b60405190610fe460a083610fb3565b60405190610fe461010083610fb3565b60405190610fe460c083610fb3565b67ffffffffffffffff8111610f925760051b60200190565b9080601f8301121561023c57813561105281611023565b926110606040519485610fb3565b81845260208085019260051b82010192831161023c57602001905b8282106110885750505090565b813581526020918201910161107b565b90602080835192838152019201905f5b8181106110b55750505090565b82518452602093840193909201916001016110a8565b9060206110dc928181520190611098565b90565b3461023c57604036600319011261023c5760043567ffffffffffffffff811161023c5761111090369060040161103b565b6024359061111d82610494565b8051606481101561023c5761113190612834565b915f5b825181101561118d578061114a60019285612866565b515f5260056020526001600160801b0361117a84600660405f20019060018060a01b03165f5260205260405f2090565b54166111868287612866565b5201611134565b6040518061023886826110cb565b606036600319011261023c576004356024356044356111b981610494565b5f838152600560205260409020600201546001600160a01b03166111fc575f9283526005602052604090922060020154610aac92906001600160a01b03166130b0565b61121e925f52600560205260018060a01b03600260405f200154163390613131565b610aac565b3461023c57602036600319011261023c5760043561124081610494565b6040516394c3c33360e01b81523360048201526020816024817f00000000000000000000000000000000000000000000000000000000000000006001600160a01b03165afa801561026f576002915f916112a7575b500361023c576102266102389161288e565b6112c0915060203d6020116102685761025a8183610fb3565b5f611295565b606036600319011261023c576004356112de81610494565b6024359060443560045415806114fa575b6112f890612692565b61130c6001600160801b0384163384612a18565b61131a6107fa6004546127d3565b61133c611325610fd5565b3381526001600160a01b0384166020820152612a53565b9061135a818486611355865f52600560205260405f2090565b612bdd565b61137461136f835f52600560205260405f2090565b6129e9565b61137e5f546127d3565b5f5561139f61138b610fe6565b3381528360208201525f6040820152612c33565b6113b35f54915f52600260205260405f2090565b555f54937f00000000000000000000000000000000000000000000000000000000000000006001600160a01b0316803b1561023c576040516340c10f1960e01b815233600482015260248101969096525f908690604490829084905af191821561026f577f9f234216268c7b4b9373c01c9d1cc757d055e68b6440edbaaf229c63a0313bc795610315936114e6575b506114b26114a761145c5f545f52600160205260405f2090565b6114805f8660801c9261146f8460801b90565b8a6001600160801b038a16926131a1565b337f0000000000000000000000000000000000000000000000000000000000000000612c68565b6108315f5496612ceb565b94604051958695869192608093969594919660a08401978452602084015260018060a01b0316604083015260608201520152565b80610ac65f6114f493610fb3565b5f611442565b50600160ff1b811615156112ef565b3461023c57604036600319011261023c5760043560243561152981610494565b5f805160206142bc8339815191525c6001600160a01b031661023c57335f805160206142bc8339815191525d604051631caef77160e01b8152336004820152602481018390526020816044815f6001600160a01b037f0000000000000000000000000000000000000000000000000000000000000000165af1801561026f576115b9915f91611779575b50612692565b60016115cd835f52600160205260405f2090565b0154916115e2815f52600160205260405f2090565b546040805163b88e6d6360e01b81523360048201529491939190856024816001600160a01b037f0000000000000000000000000000000000000000000000000000000000000000165afa91821561026f57610238957f172f458c2c853ed38b0114381270db7647bc1f9b612a42852353261a7e3379be93611701925f925f92611745575b506001600160a01b0381165f908152600660205260409020545f190161173f575081905b6001600160a01b038281169082160361173a5750815b6001600160a01b0381165f908152600660205260409020545f1901611733575b6116d2885f52600560205260405f2090565b916116e5865f52600560205260405f2090565b6116f7895f52600160205260405f2090565b9060035494613245565b60408051958652602086019290925290840181905292606090a2611723612a06565b6040519081529081906020820190565b50816116c0565b6116a0565b9061168a565b90925061176a915060403d604011611772575b6117628183610fb3565b8101906128e7565b90915f611666565b503d611758565b61179b915060203d6020116117a1575b6117938183610fb3565b8101906128d2565b5f6115b3565b503d611789565b3461023c57602036600319011261023c576102386004355f60a06040516117ce81610f97565b82815282602082015282604082015282606082015282608082015201526117fd815f52600560205260405f2090565b54906118166001610412835f52600560205260405f2090565b9061182e6002610412835f52600560205260405f2090565b6118a36003611845845f52600560205260405f2090565b01549161189360056118756004611864885f52600560205260405f2090565b0154965f52600560205260405f2090565b015495611880611014565b9788526001600160a01b03166020880152565b6001600160a01b03166040860152565b6060840152608083015260a08201526040519182918291909160a08060c083019480518452600180831b036020820151166020850152600180831b03604082015116604085015260608101516060850152608081015160808501520151910152565b60a036600319011261023c576044356004356024356119238361034f565b6084359160643561193384610494565b5f805160206142bc8339815191525c6001600160a01b031661023c576119f690335f805160206142bc8339815191525d6003611977845f52600560205260405f2090565b015461198b845f52600560205260405f2090565b5460036119a0875f52600560205260405f2090565b01546119b4875f52600560205260405f2090565b54916119be611004565b6001600160801b038b168152935f60208601525f60408601525f6060860152608085015260a084015260c083015260e0820152613333565b928282141580611be1575b611a0a90612692565b611a1c825f52600560205260405f2090565b54936020810151611a33906001600160801b031690565b946001600160801b03861661271060c59290921c607f1602049485611a5791612719565b95611a6a855f52600560205260405f2090565b9160c08101519260408201938451611a88906001600160801b031690565b90611a9292613096565b611aa4855f52600560205260405f2090565b876080830151611ab392613096565b611ac5865f52600560205260405f2090565b600201546001600160a01b0316835185906001600160801b0316611ae99085612814565b6001600160801b031690611afc926130b0565b611b0e855f52600560205260405f2090565b600201546001600160a01b03166001600160801b03891633611b2f92612a18565b606001516001600160801b031691516001600160801b0316611b5d91906001600160801b03169060801b1790565b604080513381526001600160a01b0390941660208501526001600160801b039283169084015260608301528416608086811b91909117908201527f3de590341c976ea6fce618ef4a768a15441201ad3ed7c9b438d82c3951de7ced9060a090a3611bc5612a06565b604080516001600160801b039384168152919092166020820152f35b50611a0a611bf9610d4e86516001600160801b031690565b159050611a01565b3461023c57606036600319011261023c576020611c44600435602435604435915f5260058452600360405f200154905f5260058452600360405f20015490613580565b6040519015158152f35b3461023c57602036600319011261023c57600435611c6b81610494565b6040516394c3c33360e01b81523360048201526020816024817f00000000000000000000000000000000000000000000000000000000000000006001600160a01b03165afa801561026f576002915f91611cd2575b500361023c576102266102389161290c565b611ceb915060203d6020116102685761025a8183610fb3565b5f611cc0565b606036600319011261023c57604435600435602435611d0f8361034f565b5f805160206142bc8339815191525c6001600160a01b031661023c57335f805160206142bc8339815191525d611d43612952565b50611d4c612952565b916001606d1b6001600160801b03611d79866003611d72865f52600560205260405f2090565b0154612719565b1611158061217c575b80612141575b611d9190612692565b611dd4611daa856107e6845f52600560205260405f2090565b946001600160801b03611dca6002610412865f52600560205260405f2090565b9116903390612a18565b811590811561205f575b611dfd611de9610fe6565b338152826020820152846040820152612c33565b94611e10865f52600260205260405f2090565b54958615611fb7575b50611e2c865f52600160205260405f2090565b946040820180948151611e45906001600160801b031690565b611e4f8160801b90565b916020860151611e65906001600160801b031690565b9987606088019b8c51611e7e906001600160801b031690565b611e9491906001600160801b03169060801b1790565b60208801516001600160801b0316958c60608a01978851611ebb906001600160801b031690565b611ed191906001600160801b03169060801b1790565b93611edb956131de565b5f14611f637f54327712026ec7eff19c69f41b88780daaa74a97ae2dcfa56a1de52fb0e07fcd9a610dc7610db9611f55611f4f611f41611f9d9d610831611f3b611f719d610dc79c610db99c611fa85750516001600160801b0316611480565b91612ceb565b9d516001600160801b031690565b60801b90565b99516001600160801b031690565b94516001600160801b031690565b91604051958695869192608093969594919660a084019784526020840152604083015260608201520152565b0390a2610aac612a06565b611fb291506127e1565b611480565b909550611fc45f546127d3565b5f8190557f00000000000000000000000000000000000000000000000000000000000000006001600160a01b0316803b1561023c576040516340c10f1960e01b815233600482015260248101929092525f908290604490829084905af1801561026f5761204b575b506120415f54915f52600260205260405f2090565b555f54945f611e19565b80610ac65f61205993610fb3565b5f61202c565b9261213b906120a660606120966003612080885f52600560205260405f2090565b015460408a01516001600160801b0316906135d0565b6001600160801b03169201918252565b6120f26120e56120be865f52600560205260405f2090565b546120d3610d4e85516001600160801b031690565b603f6127109260d91c16820390040290565b6001600160801b03168252565b61212061210c6002610412875f52600560205260405f2090565b610d5a610d4e84516001600160801b031690565b612135610db9855f52600560205260405f2090565b90612a89565b92611dde565b50612157610aeb825f52600560205260405f2090565b80611d885750611d91612175610aeb845f52600560205260405f2090565b9050611d88565b5081811415611d82565b3461023c57606036600319011261023c576004356024356121a68161034f565b6044356121b281610494565b5f805160206142bc8339815191525c6001600160a01b031661023c57335f805160206142bc8339815191525d604051631caef77160e01b8152336004820152602481018490526020816044815f6001600160a01b037f0000000000000000000000000000000000000000000000000000000000000000165af1801561026f57612241915f916117795750612692565b612249612987565b50612252612987565b50612265835f52600160205260405f2090565b54600161227a855f52600160205260405f2090565b01546040805163b88e6d6360e01b8152336004820152919391907f000000000000000000000000000000000000000000000000000000000000000090826024816001600160a01b0385165afa801561026f577f4741de4d43f1462a092cdf2a25cfc5d5bdf2c96f169d5e64121e800b6fc417ee968589886123f161240e976123f696611f9d9a5f925f926124d8575b506001600160a01b0381165f908152600660205260409020545f19016124d057905b6001600160a01b03828116908216036124cb5750815b6001600160a01b0381165f908152600660205260409020545f19016124ae5761239a61238b61237c6123dc93995f52600560205260405f2090565b965f52600560205260405f2090565b965f52600160205260405f2090565b966123cc600354936123bc6123ad610ff5565b6001600160801b03909c168c52565b6001600160a01b031660208b0152565b6001600160a01b03166040890152565b60608701526001600160a01b03166080860152565b613651565b909391928188612498575b5081611f4f913390613bcc565b9161246861243c61242960208501516001600160801b031690565b60408501516001600160801b0316610dc7565b91610dc7610db961245a61242960208501516001600160801b031690565b95516001600160801b031690565b92604051968796879260a094919796959260c0850198855260208501526040840152606083015260808201520152565b611f4f9192506124a7906127e1565b9190612401565b506123dc61239a61238b61237c85995f52600560205260405f2090565b612341565b50819061232b565b9092506124f4915060403d604011611772576117628183610fb3565b90915f612309565b3461023c57602036600319011261023c5760043567ffffffffffffffff811161023c5761252d90369060040161103b565b612543815161253e60648210612692565b612834565b5f5b82518110156126415760019061259c610d4e61258f33600661257961256a878b612866565b515f52600560205260405f2090565b019060018060a01b03165f5260205260405f2090565b546001600160801b031690565b6125a68285612866565b5260026125b38285612866565b5110156125cd575f6125c58285612866565b525b01612545565b6125e06125da8285612866565b516129b6565b6125ea8285612866565b5261261461260133600661257961256a868a612866565b80546001600160801b0319166001179055565b61263c612629600261041261256a8589612866565b6126338386612866565b519033906130b0565b6125c7565b507f8124a8d085ceb98e89ac6906c6e138dca5fdbc28a91438e33d7a2ab6c75742fd91612673604051928392836129c4565b0390a1005b9081602091031261023c575190565b6040513d5f823e3d90fd5b1561023c57565b90815f52600560205260405f209160018060df1b038354168260df1b8101809111612705577f5af113730f9ee4153f120c893809feafa233584bbe5e93b5d78e0699c9c8ca5693556126fd6040519283928360209093929193604081019481520152565b0390a1600190565b634e487b7160e01b5f52601160045260245ffd5b906001600160801b03809116911601906001600160801b03821161032457565b5f818152600560205260409081902060010180546001600160a01b0319166001600160a01b0385161790557f0dccb79e09923e42093e54de6132ceba9b88b094d10632520f6eeb8058a6721c9290919082519182526001600160a01b03166020820152a1565b60207fbd209961024f2694b0afb3c8badd20b6477abb77b336b16892c3fa4b906d323c9180600355604051908152a1600190565b906001820180921161032457565b60011b907001fffffffffffffffffffffffffffffffe6ffffffffffffffffffffffffffffffffe83169216820361032457565b906001600160801b03809116911603906001600160801b03821161032457565b9061283e82611023565b61284b6040519182610fb3565b828152809261285c601f1991611023565b0190602036910137565b805182101561287a5760209160051b010190565b634e487b7160e01b5f52603260045260245ffd5b60207e4ba2ca448db089eb9fb0b25431f0d57664d46141171fed2476281b578d96d49160018060a01b0316805f52600682525f6040812055604051908152a1600190565b9081602091031261023c57516110dc81610afe565b919082604091031261023c576020825161290081610494565b9201516110dc81610494565b60207f8e1c2d1a5dce36a56a9dfcb96e5816e793c16d6c897b4e3c0b1f99588bb88a1c9160018060a01b0316805f5260068252600160405f2055604051908152a1600190565b604051906080820182811067ffffffffffffffff821117610f92576040525f6060838281528260208201528260408201520152565b604051906060820182811067ffffffffffffffff821117610f92576040525f6040838281528260208201520152565b5f1981019190821161032457565b90916129db6110dc93604084526040840190611098565b916020818403910152611098565b80546001600160df1b0316600160ff1b8101919082106103245755565b5f5f805160206142bc8339815191525d565b610fe492913091613131565b610dc790612a398360801d8260801d01612ceb565b926001600160801b0316906001600160801b031601612ceb565b6040805182516001600160a01b039081166020808401918252909401511681830152908152612a83606082610fb3565b51902090565b919091612a94612952565b9281546001600160801b038216612ab59190603f6127109260d91c16020490565b6001600160801b0316808552612aca91612814565b6001600160801b03166060840190815260038201805482516001600160801b0316612af491613c2e565b6001600160801b03166040860190815291600584018054612b158160801c90565b95600401958654612b3291906001600160801b03169060801b1790565b83516001600160801b0316612b4691613c2e565b6001600160801b03166020890190815288516001600160801b031681516001600160801b0316612b7591612719565b90516001600160801b031660809190911b17612b9091612a24565b9055815492516001600160801b031690516001600160801b0316612bc091906001600160801b03169060801b1790565b9182612bcb91612a24565b9055815490612bd991612a24565b9055565b6003810182905560048101919091556001600160df1b0390921682556002820180546001600160a01b0319166001600160a01b03909216919091179055610fe49060010180546001600160a01b03191633179055565b6040516040602082019260018060a01b0381511684526020810151828401520151606082015260608152612a83608082610fb3565b60405163067e356d60e21b81526001600160a01b0392831660048201526001600160801b03939093166024840152602091839160449183915f91165af190811561026f575f91612cb6575090565b90506020813d602011612ce3575b81612cd160209383610fb3565b8101031261023c57516110dc8161034f565b3d9150612cc4565b6001600160801b038111612d05576001600160801b031690565b505f90565b60405190610100820182811067ffffffffffffffff821117610f92576040525f60e0838281528260208201528260408201528260608201528260808201528260a08201528260c08201520152565b612d60612d0a565b506080810191825190612d81612d7d8260c0860194855190613580565b1590565b61308f5760a0830190612db28251612da3610d4e87516001600160801b031690565b607f6127109260c51c16020490565b6001600160801b0316604085018181529190612dee90612de19087516001600160801b0316612814565b612814565b6001600160801b03168652565b612e02610d4e86516001600160801b031690565b15158061307b575b15612fee57612e258351612e1f885160801c90565b90613c7d565b60e08601906001600160801b03612e45610d4e8451612e1f8a5160801c90565b911610612fd557612e5f612f659151612e1f875160801c90565b8751612e6b82826135d0565b90612e7d89516001600160801b031690565b906001600160801b0383166001600160801b038316115f14612f6a57505080612ec4612eb7612f1c93612ddc8c516001600160801b031690565b6001600160801b03168a52565b612efd612ed2848a516135d0565b612ef060208c0191612eeb83516001600160801b031690565b612719565b6001600160801b03169052565b612f168a519184906001600160801b03169060801b1790565b90613c9e565b8852612f498651612f43612f3084836135d0565b84906001600160801b03169060801b1790565b90613cb3565b86525b612ef06060880191612eeb83516001600160801b031690565b612dee565b909150612f779250613c2e565b612f9e612f858288516135d0565b612ef060208a0191612eeb83516001600160801b031690565b612fb78851612f16612f308a516001600160801b031690565b8852612fcb8651612f43612f3084836135d0565b86525f8752612f4c565b50612f65612fe98451612e1f895160801c90565b612e5f565b509150919250613008610d4e84516001600160801b031690565b9182613015575b50505090565b6130486120e592612ef061303861307396855190607f6127109260c51c16020490565b82516001600160801b0316612814565b5161306d61305d85516001600160801b031690565b916001600160801b038316612da3565b90612719565b5f808061300f565b5061308a818751865190613580565b612e0a565b5050905090565b600590612bd9926003820155019182549060801b90612a24565b9091906001600160a01b0381166130e657505f808080936130d1955af11590565b6130d757565b633d2cec6f60e21b5f5260045ffd5b60445f8080936020956040519763a9059cbb60e01b84526004526024525af13d15601f3d1160015f5114161716905f6060526040521561312257565b633c9fd93960e21b5f5260045ffd5b90916001600160a01b03821661314c5750505034036130d757565b6040516323b872dd60e01b81526001600160a01b03938416600482015292166024830152604482019290925261319b916020915f916064919083905af15f51600114601f3d11163d1517161590565b61312257565b9350612bd992916131cf600260038701968754946001600160801b038616156131d6575b5001918254612a24565b9055612a24565b81555f6131c5565b936132199193929360038601938454916001600160801b0383161561323d575b508515159586613232575b506131cf60028801918254612a24565b9055613223575050565b6004612bd99101918254612a24565b60018801555f613209565b87555f6131fe565b94939092969591966005860195838383888a548d60048701546001600160801b03166001600160801b03198316179060030154908161328391613c2e565b9060801c61329091612814565b9b8c91826001600160801b03166132a691612a24565b90556132b195613ce2565b60058401805460048601549196916001600160801b03166001600160801b031982161760048b015490816132e491613c2e565b9060801c6132f191612814565b9687916001600160801b03831661330791612a24565b905561331295613ce2565b61332891906001600160801b03169060801b1790565b9182610fe491614189565b61333b612d0a565b50608081018051926133548160c0850195865190613580565b61308f5760e08301906133896133798351610ca1610d4e88516001600160801b031690565b6001600160801b03166040860152565b61339d610d4e85516001600160801b031690565b151580613559575b156135515760a084016133be8151612e1f865160801c90565b6001600160801b036133d9610d4e8651612e1f8b5160801c90565b91161061353957506134c96133f48351612e1f885160801c90565b865161340082826135d0565b9061341288516001600160801b031690565b906001600160801b0383166001600160801b038316115f146134ce5750508061345961344c61349993612ddc8b516001600160801b031690565b6001600160801b03168952565b6134806134678489516135d0565b612ef060208b0191612eeb83516001600160801b031690565b612f4389519184906001600160801b03169060801b1790565b87526134ad8551612f16612f3084836135d0565b85525b612ef06060870191612eeb83516001600160801b031690565b613389565b9091506134db9250613c2e565b6135026134e98287516135d0565b612ef06020890191612eeb83516001600160801b031690565b61351b8751612f43612f3089516001600160801b031690565b875261352f8551612f16612f3084836135d0565b85525f86526134b0565b61354c6134c99151612e1f865160801c90565b6133f4565b505050905090565b50613568818451875190613580565b6133a5565b8181029291811591840414171561032457565b916135b76135c192936001600160801b036135ac6135a38288168460801c61356d565b8286169061356d565b9560801c911661356d565b9060801c9061356d565b10156135cc57600190565b5f90565b906110dc916001600160801b03808260801c931691160204612ceb565b156135f457565b606460405162461bcd60e51b81526020600482015260046024820152634730313160e01b6044820152fd5b1561362657565b606460405162461bcd60e51b81526020600482015260046024820152632398189960e11b6044820152fd5b9193909261365d612987565b50613666612987565b93613675600287015460801c90565b6003870154969060801b6001600160801b03881617946137296136a96136a286516001600160801b031690565b8098613c2e565b966137196136ef826136df6136e4826136df6136c960058b015460801c90565b60048b01546001600160801b03169060801b1790565b613c2e565b9d6108318160801c90565b6137096136fa610fe6565b6001600160801b03909d168d52565b6001600160801b031660208c0152565b6001600160801b031660408a0152565b6138b460208961375d845461374381600160ff1b16151590565b908115613bbb575b81613b94575b81613b5e575b506135ed565b613795600385018054906137896137828d610dc760408801516001600160801b031690565b80936141dc565b905560048601546141dc565b60048501556137f36120e560058601546137b684516001600160801b031690565b6137e46137cc878701516001600160801b031690565b92608083901b6001600160801b038516175b906141dc565b6005890155612ddc8d8a6141f1565b6138306138218554613812610d4e60408601516001600160801b031690565b603f6127109260d31c16020490565b6001600160801b031682840152565b6138a661384482516001600160801b031690565b6060890151848a01516001600160a01b031660408b01516001600160a01b031660808c01519091906001600160a01b03169261389f61388d60408901516001600160801b031690565b888a01516001600160801b0316610db3565b948a613fe9565b01516001600160801b031690565b6001600160801b038116613b40575b505060018101546138d357505050565b610fe4929550613977613907866136df6138f1600587015460801c90565b60048701546001600160801b03169060801b1790565b9161396761393c886139376004850154610831600261392e856136df856108318160801c90565b97015460801c90565b6135d0565b91613957613948610fe6565b6001600160801b039096168652565b6001600160801b03166020850152565b6001600160801b03166040830152565b80956139f883546139b560038601549161399d610d4e6139978560801c90565b836141c6565b6001600160801b038b16109081613b0c575b5061361f565b6139e96139e26139cf60408701516001600160801b031690565b8a906001600160801b03169060801b1790565b80926141dc565b600386015560048501546141dc565b6004840155613a47613a3a6005850154613a1985516001600160801b031690565b613a306137cc60208801516001600160801b031690565b6005880155612814565b6001600160801b03168352565b613a76613a668454613812610d4e60408701516001600160801b031690565b6001600160801b03166020840152565b60208201516001600160801b031680613af0575b82516001600160801b031660608301516020840151909190613aea906001600160a01b031693612ddc6040613adb6080613acc838b015160018060a01b031690565b9901516001600160a01b031690565b9801516001600160801b031690565b95613fe9565b613b0260058501546104558360801b90565b6005850155613a8a565b90506001600160801b03613b37610d4e85613b3160408b01516001600160801b031690565b946141c6565b9116105f6139af565b613b54600591610455838501549160801b90565b9101555f806138c3565b90506001600160801b03613b8b610d4e613b7f8c516001600160801b031690565b9360038a0154906141c6565b9116105f613757565b9050613baa610d4e613997600389015460801c90565b6001600160801b038c161090613751565b8854600160ff1b161515915061374b565b6001600160a01b031691823b1561023c57604051637bd3ca3560e01b81526001600160a01b039290921660048301526001600160801b03166024820152905f908290604490829084905af1801561026f57613c245750565b5f610fe491610fb3565b906110dc916001600160801b0380821692169060801c0204612ceb565b906001600160801b0316908115613c69576001600160801b03160490565b634e487b7160e01b5f52601260045260245ffd5b60bb1c6103ff811615613c9a5760061b61ffc0166110dc91613c4b565b5090565b610dc790612a398360801d8260801d03612ceb565b610dc790613cc88360801d8260801d01612ceb565b926001600160801b0316906001600160801b031603612ceb565b9293909291613d07606460dd83901c601f166001600160801b03871602048095612814565b906001600160801b03821693613d2485839060649160fa1c020490565b91606460f482901c603f1687020494613d62606460ee84901c603f1689020497606460e885901c603f168202045b9390603f60649260e21c16020490565b966001600160a01b0382169081613e7b575050505060028101546001600160a01b0316613d8f5f84612719565b6001600160801b031633613da2926130b0565b613dac8585612719565b9060060196613dcb90889060018060a01b03165f5260205260405f2090565b908154613dde906001600160801b031690565b90613de891612719565b81546001600160801b0319166001600160801b03909116179055613e0b91612814565b90613e1591612814565b90613e1f91612814565b90613e2991612719565b6001600160a01b039092165f90815260209190915260409020908154613e55906001600160801b031690565b90613e5f91612719565b81546001600160801b0319166001600160801b03909116179055565b612eeb965098610fe49b60029486945f9a61041295610d4e9d9a9f9e613fa69f613eb16001613fa09d015460018060a01b031690565b6001600160a01b038881169591908c9082168714613fd757613eed613f1993926006613eff93019060018060a01b03165f5260205260405f2090565b91612eeb83546001600160801b031690565b6001600160801b03166001600160801b0319825416179055565b6001600160a01b0381168414158f14613fc6576001600160a01b03165f90815260068a0160205260409020613f529190613eff90613eed565b14158b14613fae5791613f85613eed92613eff613eed613eff9660068b019060018060a01b03165f5260205260405f2090565b6001600160a01b03165f908152600686016020526040902090565b95612719565b9033906130b0565b50613fc0613eed91613eff9394612719565b92613f85565b50613fd19196612719565b94613f52565b5050613fe39198612719565b96613f19565b94959294909391614010606460dd83901c601f166001600160801b03881602048096612814565b916001600160801b0383169461402d86849060649160fa1c020490565b92606460f482901c603f168802049561405f606460ee84901c603f168a020498606460e885901c603f16820204613d52565b976001600160a01b038216908161408d575050505060028201546001600160a01b031690613d8f9084612719565b612eeb97509b8593610412936002969a610fe49f94610d4e9d9a9f95613fa69f966140c46001613fa09d015460018060a01b031690565b6001600160a01b038881169591908c908216871461417757613eed61410093926006613eff93019060018060a01b03165f5260205260405f2090565b6001600160a01b0381168414614166576001600160a01b03165f90815260068a01602052604090206141369190613eff90613eed565b14613fae5791613f85613eed92613eff613eed613eff9660068b019060018060a01b03165f5260205260405f2090565b506141719196612719565b94614136565b50506141839198612719565b96614100565b600381016141a381546001600160801b0319851690612a24565b905560018101546141b2575050565b6004612bd991019182549060801b90612a24565b60b11c6103ff168015613c9a576110dc91613c4b565b610dc790613cc88360801d8260801d03612ceb565b90612bd990600383016142628154946001600160801b036142128760801c90565b9161424d6002820198610dc78461422a8c5460801c90565b81614244818d16998a998a94169a8b958692160204612ceb565b94160204612ceb565b92600182015461426f575b50505082546141dc565b905582549060801b6137de565b6137de60046142b1930193610dc785549361429f81846001600160801b036142978960801c90565b160204612ceb565b926001600160801b0386160204612ceb565b90555f808061425856fecfdbe78f31bc5efa50605e8b11a7b6843971370ea97eb24de6e1a1eb9d235645a2646970667358221220117296305cc0e9608640616e91864db747e09ebaa2d5c66a867a3521fc05994a64736f6c634300081a0033",
    "sourcePath": "/Users/admin/workspace/50Self_project/ttswap-core/src/MarketManager.sol",
    "compiler": {
        "name": "solc",
        "version": "0.8.26+commit.8a97fa7a"
    },
    "functionHashes": {
        "addbanlist(address)": "b153b920",
        "banlist(address)": "2973ada7",
        "buyGood(uint256,uint256,uint128,uint256,bool,address)": "578496ab",
        "buyGoodForPay(uint256,uint256,uint128,uint256,address)": "a7e11697",
        "changeGoodOwner(uint256,address)": "2a7c5a91",
        "collectCommission(uint256[])": "f88c3010",
        "collectProof(uint256,address)": "a676a600",
        "disinvestProof(uint256,uint128,address)": "f4662f20",
        "getGoodState(uint256)": "a6f6a980",
        "getProofState(uint256)": "3f117740",
        "goodNum()": "5a5da4dd",
        "goodWelfare(uint256,uint128)": "18ad50d1",
        "initGood(uint256,uint256,address,uint256)": "4ffef907",
        "initMetaGood(address,uint256,uint256)": "97924ead",
        "investGood(uint256,uint256,uint128)": "f44733ad",
        "ishigher(uint256,uint256,uint256)": "a7fed925",
        "marketconfig()": "402f5ab5",
        "modifyGoodConfig(uint256,uint256)": "0e21a1ac",
        "payGood(uint256,uint256,address)": "920acbb8",
        "proofmapping(uint256)": "5e008cc4",
        "queryCommission(uint256[],address)": "6ff73c8e",
        "removebanlist(address)": "9551177a",
        "setMarketConfig(uint256)": "45818e4c",
        "totalSupply()": "18160ddd",
        "updateGoodConfig(uint256,uint256)": "144aeb83"
    },
    "gasEstimates": {
        "creation": {
            "codeDepositCost": "3433800",
            "executionCost": "infinite",
            "totalCost": "infinite"
        },
        "external": {
            "addbanlist(address)": "infinite",
            "banlist(address)": "2495",
            "buyGood(uint256,uint256,uint128,uint256,bool,address)": "infinite",
            "buyGoodForPay(uint256,uint256,uint128,uint256,address)": "infinite",
            "changeGoodOwner(uint256,address)": "infinite",
            "collectCommission(uint256[])": "infinite",
            "collectProof(uint256,address)": "infinite",
            "disinvestProof(uint256,uint128,address)": "infinite",
            "getGoodState(uint256)": "infinite",
            "getProofState(uint256)": "infinite",
            "goodNum()": "2502",
            "goodWelfare(uint256,uint128)": "infinite",
            "initGood(uint256,uint256,address,uint256)": "infinite",
            "initMetaGood(address,uint256,uint256)": "infinite",
            "investGood(uint256,uint256,uint128)": "infinite",
            "ishigher(uint256,uint256,uint256)": "infinite",
            "marketconfig()": "2414",
            "modifyGoodConfig(uint256,uint256)": "infinite",
            "payGood(uint256,uint256,address)": "infinite",
            "proofmapping(uint256)": "2589",
            "queryCommission(uint256[],address)": "infinite",
            "removebanlist(address)": "infinite",
            "setMarketConfig(uint256)": "infinite",
            "totalSupply()": "2303",
            "updateGoodConfig(uint256,uint256)": "28085"
        }
    }
}