{
    "contractName": "officialTrigge",
    "abi": [
        {
            "inputs": [
                {
                    "internalType": "address",
                    "name": "triggercontract",
                    "type": "address"
                },
                {
                    "internalType": "uint256",
                    "name": "goodid",
                    "type": "uint256"
                },
                {
                    "internalType": "uint256",
                    "name": "investstate",
                    "type": "uint256"
                },
                {
                    "internalType": "uint256",
                    "name": "feestate",
                    "type": "uint256"
                },
                {
                    "internalType": "address",
                    "name": "recipent",
                    "type": "address"
                }
            ],
            "name": "main_afterdivest",
            "outputs": [
                {
                    "internalType": "bool",
                    "name": "",
                    "type": "bool"
                }
            ],
            "stateMutability": "nonpayable",
            "type": "function"
        },
        {
            "inputs": [
                {
                    "internalType": "address",
                    "name": "triggercontract",
                    "type": "address"
                },
                {
                    "internalType": "uint256",
                    "name": "proofid",
                    "type": "uint256"
                },
                {
                    "internalType": "uint256",
                    "name": "investstate",
                    "type": "uint256"
                },
                {
                    "internalType": "uint128",
                    "name": "amount",
                    "type": "uint128"
                },
                {
                    "internalType": "address",
                    "name": "recipent",
                    "type": "address"
                }
            ],
            "name": "main_afterinitproof",
            "outputs": [
                {
                    "internalType": "bool",
                    "name": "",
                    "type": "bool"
                }
            ],
            "stateMutability": "nonpayable",
            "type": "function"
        },
        {
            "inputs": [
                {
                    "internalType": "address",
                    "name": "triggercontract",
                    "type": "address"
                },
                {
                    "internalType": "uint256",
                    "name": "goodid",
                    "type": "uint256"
                },
                {
                    "internalType": "uint256",
                    "name": "investstate",
                    "type": "uint256"
                },
                {
                    "internalType": "uint256",
                    "name": "feestate",
                    "type": "uint256"
                },
                {
                    "internalType": "address",
                    "name": "recipent",
                    "type": "address"
                }
            ],
            "name": "main_afterinvest",
            "outputs": [
                {
                    "internalType": "bool",
                    "name": "",
                    "type": "bool"
                }
            ],
            "stateMutability": "nonpayable",
            "type": "function"
        },
        {
            "inputs": [
                {
                    "internalType": "address",
                    "name": "triggercontract",
                    "type": "address"
                },
                {
                    "internalType": "uint256",
                    "name": "goodid",
                    "type": "uint256"
                },
                {
                    "internalType": "uint256",
                    "name": "state",
                    "type": "uint256"
                },
                {
                    "internalType": "uint256",
                    "name": "feestate",
                    "type": "uint256"
                },
                {
                    "internalType": "address",
                    "name": "recipent",
                    "type": "address"
                }
            ],
            "name": "main_afterswap",
            "outputs": [
                {
                    "internalType": "bool",
                    "name": "",
                    "type": "bool"
                }
            ],
            "stateMutability": "nonpayable",
            "type": "function"
        },
        {
            "inputs": [
                {
                    "internalType": "address",
                    "name": "triggercontract",
                    "type": "address"
                },
                {
                    "internalType": "uint256",
                    "name": "proofid",
                    "type": "uint256"
                },
                {
                    "internalType": "uint256",
                    "name": "investstate",
                    "type": "uint256"
                },
                {
                    "internalType": "uint128",
                    "name": "amount",
                    "type": "uint128"
                },
                {
                    "internalType": "address",
                    "name": "recipent",
                    "type": "address"
                }
            ],
            "name": "main_afterupdateproof",
            "outputs": [
                {
                    "internalType": "bool",
                    "name": "",
                    "type": "bool"
                }
            ],
            "stateMutability": "nonpayable",
            "type": "function"
        },
        {
            "inputs": [
                {
                    "internalType": "address",
                    "name": "triggercontract",
                    "type": "address"
                },
                {
                    "internalType": "uint256",
                    "name": "goodid",
                    "type": "uint256"
                },
                {
                    "internalType": "uint256",
                    "name": "investstate",
                    "type": "uint256"
                },
                {
                    "internalType": "uint256",
                    "name": "feestate",
                    "type": "uint256"
                },
                {
                    "internalType": "address",
                    "name": "recipent",
                    "type": "address"
                }
            ],
            "name": "main_beforedivest",
            "outputs": [
                {
                    "internalType": "bool",
                    "name": "",
                    "type": "bool"
                }
            ],
            "stateMutability": "nonpayable",
            "type": "function"
        },
        {
            "inputs": [
                {
                    "internalType": "address",
                    "name": "triggercontract",
                    "type": "address"
                },
                {
                    "internalType": "uint256",
                    "name": "proofid",
                    "type": "uint256"
                },
                {
                    "internalType": "uint256",
                    "name": "investstate",
                    "type": "uint256"
                },
                {
                    "internalType": "uint128",
                    "name": "amount",
                    "type": "uint128"
                },
                {
                    "internalType": "address",
                    "name": "recipent",
                    "type": "address"
                }
            ],
            "name": "main_beforeinitproof",
            "outputs": [
                {
                    "internalType": "bool",
                    "name": "",
                    "type": "bool"
                }
            ],
            "stateMutability": "nonpayable",
            "type": "function"
        },
        {
            "inputs": [
                {
                    "internalType": "address",
                    "name": "triggercontract",
                    "type": "address"
                },
                {
                    "internalType": "uint256",
                    "name": "state",
                    "type": "uint256"
                },
                {
                    "internalType": "uint256",
                    "name": "feestate",
                    "type": "uint256"
                },
                {
                    "internalType": "address",
                    "name": "recipent",
                    "type": "address"
                }
            ],
            "name": "main_beforeswap",
            "outputs": [
                {
                    "internalType": "bool",
                    "name": "",
                    "type": "bool"
                }
            ],
            "stateMutability": "nonpayable",
            "type": "function"
        },
        {
            "inputs": [
                {
                    "internalType": "address",
                    "name": "triggercontract",
                    "type": "address"
                },
                {
                    "internalType": "uint256",
                    "name": "proofid",
                    "type": "uint256"
                },
                {
                    "internalType": "uint256",
                    "name": "investstate",
                    "type": "uint256"
                },
                {
                    "internalType": "uint128",
                    "name": "amount",
                    "type": "uint128"
                },
                {
                    "internalType": "address",
                    "name": "recipent",
                    "type": "address"
                }
            ],
            "name": "main_beforeupdateproof",
            "outputs": [
                {
                    "internalType": "bool",
                    "name": "",
                    "type": "bool"
                }
            ],
            "stateMutability": "nonpayable",
            "type": "function"
        },
        {
            "inputs": [
                {
                    "internalType": "address",
                    "name": "triggercontract",
                    "type": "address"
                },
                {
                    "internalType": "uint256",
                    "name": "goodid",
                    "type": "uint256"
                },
                {
                    "internalType": "uint256",
                    "name": "investstate",
                    "type": "uint256"
                },
                {
                    "internalType": "uint256",
                    "name": "feestate",
                    "type": "uint256"
                },
                {
                    "internalType": "address",
                    "name": "recipent",
                    "type": "address"
                }
            ],
            "name": "main_beforinvest",
            "outputs": [
                {
                    "internalType": "bool",
                    "name": "",
                    "type": "bool"
                }
            ],
            "stateMutability": "nonpayable",
            "type": "function"
        }
    ],
    "bytecode": "60808060405234601557610555908161001a8239f35b5f80fdfe6080806040526004361015610012575f80fd5b5f3560e01c90816305e70b3a146103c0575080635bcad4621461038c5780638a4c5a4d146103575780639ba1ccbd14610306578063acc39b98146102b5578063bdad556a14610230578063ccbb9f32146101fb578063e7df9023146101aa578063f194d03c146101315763f40f699e1461008a575f80fd5b3461012d575f602061009b3661040c565b604051630bacc95760e21b81526004810194909452602484019290925260448301526001600160a01b03908116606483015290938492608492849291165af18015610122576020915f916100f5575b506040519015158152f35b6101159150823d841161011b575b61010d81836104a0565b8101906104d6565b5f6100ea565b503d610103565b6040513d5f823e3d90fd5b5f80fd5b3461012d575f60206101423661044e565b95909392610166604051978896879586946342d4ec8960e01b8652600486016104ee565b03926001600160a01b03165af18015610122576020915f9161018d57506040519015158152f35b6101a49150823d841161011b5761010d81836104a0565b826100ea565b3461012d575f60206101bb3661040c565b60405163f3afd70f60e01b81526004810194909452602484019290925260448301526001600160a01b031660648201529283919082908160848101610166565b3461012d575f602061020c3661044e565b9590939261016660405197889687958694630c98297560e11b8652600486016104ee565b3461012d57608036600319011261012d576004356001600160a01b0381169081900361012d576064356001600160a01b0381169081900361012d575f9160646020926040519485938492635d4b5ed560e11b84526024356004850152604435602485015260448401525af18015610122576020915f9161018d57506040519015158152f35b3461012d575f60206102c63661040c565b6040516333a7804960e01b81526004810194909452602484019290925260448301526001600160a01b031660648201529283919082908160848101610166565b3461012d575f60206103173661040c565b604051634c0d6fef60e01b81526004810194909452602484019290925260448301526001600160a01b031660648201529283919082908160848101610166565b3461012d575f60206103683661044e565b9590939261016660405197889687958694634d291f9d60e11b8652600486016104ee565b3461012d575f602061039d3661044e565b95909392610166604051978896879586946293375560e31b8652600486016104ee565b3461012d57602081610166815f816103d73661040c565b630272720960e31b86526004860193909352602485019190915260448401526001600160a01b03166064830152936084820190565b60a090600319011261012d576004356001600160a01b038116810361012d57906024359060443590606435906084356001600160a01b038116810361012d5790565b60a090600319011261012d576004356001600160a01b038116810361012d579060243590604435906064356001600160801b038116810361012d57906084356001600160a01b038116810361012d5790565b90601f8019910116810190811067ffffffffffffffff8211176104c257604052565b634e487b7160e01b5f52604160045260245ffd5b9081602091031261012d5751801515810361012d5790565b90815260208101919091526001600160801b0390911660408201526001600160a01b0390911660608201526080019056fea264697066735822122058ca673f15d19680a426577bc49920486d552114efd4186851a2e5fb5f94323264736f6c634300081a0033",
    "sourcePath": "/Users/admin/workspace/50Self_project/ttswap-core/src/TTSwap_MainTrigger.sol",
    "compiler": {
        "name": "solc",
        "version": "0.8.26+commit.8a97fa7a"
    },
    "functionHashes": {
        "main_afterdivest(address,uint256,uint256,uint256,address)": "acc39b98",
        "main_afterinitproof(address,uint256,uint256,uint128,address)": "ccbb9f32",
        "main_afterinvest(address,uint256,uint256,uint256,address)": "9ba1ccbd",
        "main_afterswap(address,uint256,uint256,uint256,address)": "e7df9023",
        "main_afterupdateproof(address,uint256,uint256,uint128,address)": "5bcad462",
        "main_beforedivest(address,uint256,uint256,uint256,address)": "05e70b3a",
        "main_beforeinitproof(address,uint256,uint256,uint128,address)": "f194d03c",
        "main_beforeswap(address,uint256,uint256,address)": "bdad556a",
        "main_beforeupdateproof(address,uint256,uint256,uint128,address)": "8a4c5a4d",
        "main_beforinvest(address,uint256,uint256,uint256,address)": "f40f699e"
    },
    "gasEstimates": {
        "creation": {
            "codeDepositCost": "273000",
            "executionCost": "319",
            "totalCost": "273319"
        },
        "external": {
            "main_afterdivest(address,uint256,uint256,uint256,address)": "infinite",
            "main_afterinitproof(address,uint256,uint256,uint128,address)": "infinite",
            "main_afterinvest(address,uint256,uint256,uint256,address)": "infinite",
            "main_afterswap(address,uint256,uint256,uint256,address)": "infinite",
            "main_afterupdateproof(address,uint256,uint256,uint128,address)": "infinite",
            "main_beforedivest(address,uint256,uint256,uint256,address)": "infinite",
            "main_beforeinitproof(address,uint256,uint256,uint128,address)": "infinite",
            "main_beforeswap(address,uint256,uint256,address)": "infinite",
            "main_beforeupdateproof(address,uint256,uint256,uint128,address)": "infinite",
            "main_beforinvest(address,uint256,uint256,uint256,address)": "infinite"
        }
    }
}