{
    "contractName": "TTSwap_NFT",
    "abi": [
        {
            "inputs": [
                {
                    "internalType": "address",
                    "name": "_officialTokenContract",
                    "type": "address"
                }
            ],
            "stateMutability": "nonpayable",
            "type": "constructor"
        },
        {
            "inputs": [],
            "name": "InvalidShortString",
            "type": "error"
        },
        {
            "inputs": [
                {
                    "internalType": "string",
                    "name": "str",
                    "type": "string"
                }
            ],
            "name": "StringTooLong",
            "type": "error"
        },
        {
            "anonymous": false,
            "inputs": [
                {
                    "indexed": true,
                    "internalType": "address",
                    "name": "owner",
                    "type": "address"
                },
                {
                    "indexed": true,
                    "internalType": "address",
                    "name": "approved",
                    "type": "address"
                },
                {
                    "indexed": true,
                    "internalType": "uint256",
                    "name": "tokenId",
                    "type": "uint256"
                }
            ],
            "name": "Approval",
            "type": "event"
        },
        {
            "anonymous": false,
            "inputs": [
                {
                    "indexed": true,
                    "internalType": "address",
                    "name": "owner",
                    "type": "address"
                },
                {
                    "indexed": true,
                    "internalType": "address",
                    "name": "operator",
                    "type": "address"
                },
                {
                    "indexed": false,
                    "internalType": "bool",
                    "name": "approved",
                    "type": "bool"
                }
            ],
            "name": "ApprovalForAll",
            "type": "event"
        },
        {
            "anonymous": false,
            "inputs": [],
            "name": "EIP712DomainChanged",
            "type": "event"
        },
        {
            "anonymous": false,
            "inputs": [
                {
                    "indexed": true,
                    "internalType": "address",
                    "name": "from",
                    "type": "address"
                },
                {
                    "indexed": true,
                    "internalType": "address",
                    "name": "to",
                    "type": "address"
                },
                {
                    "indexed": true,
                    "internalType": "uint256",
                    "name": "tokenId",
                    "type": "uint256"
                }
            ],
            "name": "Transfer",
            "type": "event"
        },
        {
            "inputs": [],
            "name": "DOMAIN_SEPARATOR",
            "outputs": [
                {
                    "internalType": "bytes32",
                    "name": "",
                    "type": "bytes32"
                }
            ],
            "stateMutability": "view",
            "type": "function"
        },
        {
            "inputs": [
                {
                    "internalType": "address",
                    "name": "to",
                    "type": "address"
                },
                {
                    "internalType": "uint256",
                    "name": "tokenId",
                    "type": "uint256"
                }
            ],
            "name": "approve",
            "outputs": [],
            "stateMutability": "nonpayable",
            "type": "function"
        },
        {
            "inputs": [
                {
                    "internalType": "address",
                    "name": "owner",
                    "type": "address"
                }
            ],
            "name": "balanceOf",
            "outputs": [
                {
                    "internalType": "uint256",
                    "name": "",
                    "type": "uint256"
                }
            ],
            "stateMutability": "view",
            "type": "function"
        },
        {
            "inputs": [
                {
                    "internalType": "uint256",
                    "name": "tokenId",
                    "type": "uint256"
                }
            ],
            "name": "burn",
            "outputs": [],
            "stateMutability": "nonpayable",
            "type": "function"
        },
        {
            "inputs": [],
            "name": "eip712Domain",
            "outputs": [
                {
                    "internalType": "bytes1",
                    "name": "fields",
                    "type": "bytes1"
                },
                {
                    "internalType": "string",
                    "name": "name",
                    "type": "string"
                },
                {
                    "internalType": "string",
                    "name": "version",
                    "type": "string"
                },
                {
                    "internalType": "uint256",
                    "name": "chainId",
                    "type": "uint256"
                },
                {
                    "internalType": "address",
                    "name": "verifyingContract",
                    "type": "address"
                },
                {
                    "internalType": "bytes32",
                    "name": "salt",
                    "type": "bytes32"
                },
                {
                    "internalType": "uint256[]",
                    "name": "extensions",
                    "type": "uint256[]"
                }
            ],
            "stateMutability": "view",
            "type": "function"
        },
        {
            "inputs": [
                {
                    "internalType": "uint256",
                    "name": "tokenId",
                    "type": "uint256"
                }
            ],
            "name": "getApproved",
            "outputs": [
                {
                    "internalType": "address",
                    "name": "",
                    "type": "address"
                }
            ],
            "stateMutability": "view",
            "type": "function"
        },
        {
            "inputs": [
                {
                    "internalType": "address",
                    "name": "owner",
                    "type": "address"
                },
                {
                    "internalType": "address",
                    "name": "operator",
                    "type": "address"
                }
            ],
            "name": "isApprovedForAll",
            "outputs": [
                {
                    "internalType": "bool",
                    "name": "",
                    "type": "bool"
                }
            ],
            "stateMutability": "view",
            "type": "function"
        },
        {
            "inputs": [
                {
                    "internalType": "address",
                    "name": "spender",
                    "type": "address"
                },
                {
                    "internalType": "uint256",
                    "name": "tokenId",
                    "type": "uint256"
                }
            ],
            "name": "isApprovedOrOwner",
            "outputs": [
                {
                    "internalType": "bool",
                    "name": "",
                    "type": "bool"
                }
            ],
            "stateMutability": "view",
            "type": "function"
        },
        {
            "inputs": [
                {
                    "internalType": "address",
                    "name": "recipent",
                    "type": "address"
                },
                {
                    "internalType": "uint256",
                    "name": "tokenid",
                    "type": "uint256"
                }
            ],
            "name": "mint",
            "outputs": [],
            "stateMutability": "nonpayable",
            "type": "function"
        },
        {
            "inputs": [],
            "name": "name",
            "outputs": [
                {
                    "internalType": "string",
                    "name": "",
                    "type": "string"
                }
            ],
            "stateMutability": "view",
            "type": "function"
        },
        {
            "inputs": [
                {
                    "internalType": "uint256",
                    "name": "tokenId",
                    "type": "uint256"
                }
            ],
            "name": "nonces",
            "outputs": [
                {
                    "internalType": "uint256",
                    "name": "",
                    "type": "uint256"
                }
            ],
            "stateMutability": "view",
            "type": "function"
        },
        {
            "inputs": [
                {
                    "internalType": "uint256",
                    "name": "tokenId",
                    "type": "uint256"
                }
            ],
            "name": "ownerOf",
            "outputs": [
                {
                    "internalType": "address",
                    "name": "",
                    "type": "address"
                }
            ],
            "stateMutability": "view",
            "type": "function"
        },
        {
            "inputs": [
                {
                    "internalType": "address",
                    "name": "spender",
                    "type": "address"
                },
                {
                    "internalType": "uint256",
                    "name": "tokenId",
                    "type": "uint256"
                },
                {
                    "internalType": "uint256",
                    "name": "deadline",
                    "type": "uint256"
                },
                {
                    "internalType": "bytes",
                    "name": "signature",
                    "type": "bytes"
                }
            ],
            "name": "permit",
            "outputs": [],
            "stateMutability": "nonpayable",
            "type": "function"
        },
        {
            "inputs": [
                {
                    "internalType": "address",
                    "name": "from",
                    "type": "address"
                },
                {
                    "internalType": "address",
                    "name": "to",
                    "type": "address"
                },
                {
                    "internalType": "uint256",
                    "name": "tokenId",
                    "type": "uint256"
                }
            ],
            "name": "safeTransferFrom",
            "outputs": [],
            "stateMutability": "nonpayable",
            "type": "function"
        },
        {
            "inputs": [
                {
                    "internalType": "address",
                    "name": "from",
                    "type": "address"
                },
                {
                    "internalType": "address",
                    "name": "to",
                    "type": "address"
                },
                {
                    "internalType": "uint256",
                    "name": "tokenId",
                    "type": "uint256"
                },
                {
                    "internalType": "bytes",
                    "name": "data",
                    "type": "bytes"
                }
            ],
            "name": "safeTransferFrom",
            "outputs": [],
            "stateMutability": "nonpayable",
            "type": "function"
        },
        {
            "inputs": [
                {
                    "internalType": "address",
                    "name": "from",
                    "type": "address"
                },
                {
                    "internalType": "address",
                    "name": "to",
                    "type": "address"
                },
                {
                    "internalType": "uint256",
                    "name": "tokenId",
                    "type": "uint256"
                },
                {
                    "internalType": "bytes",
                    "name": "_data",
                    "type": "bytes"
                },
                {
                    "internalType": "uint256",
                    "name": "deadline",
                    "type": "uint256"
                },
                {
                    "internalType": "bytes",
                    "name": "signature",
                    "type": "bytes"
                }
            ],
            "name": "safeTransferFromWithPermit",
            "outputs": [],
            "stateMutability": "nonpayable",
            "type": "function"
        },
        {
            "inputs": [
                {
                    "internalType": "address",
                    "name": "operator",
                    "type": "address"
                },
                {
                    "internalType": "bool",
                    "name": "approved",
                    "type": "bool"
                }
            ],
            "name": "setApprovalForAll",
            "outputs": [],
            "stateMutability": "nonpayable",
            "type": "function"
        },
        {
            "inputs": [
                {
                    "internalType": "bytes4",
                    "name": "interfaceId",
                    "type": "bytes4"
                }
            ],
            "name": "supportsInterface",
            "outputs": [
                {
                    "internalType": "bool",
                    "name": "",
                    "type": "bool"
                }
            ],
            "stateMutability": "view",
            "type": "function"
        },
        {
            "inputs": [],
            "name": "symbol",
            "outputs": [
                {
                    "internalType": "string",
                    "name": "",
                    "type": "string"
                }
            ],
            "stateMutability": "view",
            "type": "function"
        },
        {
            "inputs": [
                {
                    "internalType": "uint256",
                    "name": "tokenId",
                    "type": "uint256"
                }
            ],
            "name": "tokenURI",
            "outputs": [
                {
                    "internalType": "string",
                    "name": "",
                    "type": "string"
                }
            ],
            "stateMutability": "view",
            "type": "function"
        },
        {
            "inputs": [
                {
                    "internalType": "address",
                    "name": "from",
                    "type": "address"
                },
                {
                    "internalType": "address",
                    "name": "to",
                    "type": "address"
                },
                {
                    "internalType": "uint256",
                    "name": "tokenId",
                    "type": "uint256"
                }
            ],
            "name": "transferFrom",
            "outputs": [],
            "stateMutability": "nonpayable",
            "type": "function"
        }
    ],
    "bytecode": "6101a08060405234610466576020816123158038038091610020828561046a565b83398101031261046657516001600160a01b03811681036104665760405161004960408261046a565b600a81526020810169151514ddd85c0813919560b21b81526040519061007060408361046a565b600382526254545360e81b60208301526040519261008f60408561046a565b60018452603160f81b6020850190815281519093906001600160401b03811161037a575f54600181811c9116801561045c575b602082101461035c57601f81116103fa575b50806020601f8211600114610399575f9161038e575b508160011b915f199060031b1c1916175f555b8051906001600160401b03821161037a5760015490600182811c92168015610370575b602083101461035c5781601f8493116102ee575b50602090601f8311600114610288575f9261027d575b50508160011b915f199060031b1c1916176001555b6101688161048d565b6101205261017584610614565b61014052519020918260e05251902080610100524660a0526040519060208201927f8b73c3c69bb8fe3d512ecc4cf759cc79239f7b179b0ffacaa9a75d522b39400f8452604083015260608201524660808201523060a082015260a081526101de60c08261046a565b5190206080523060c0527f49ecf333e5b8c95c40fdafc95c1ad136e8914a8fb55e9dc8bb01eaa83a2df9ad6101605261018052604051611bc8908161074d8239608051816116a6015260a05181611763015260c05181611670015260e051816116f50152610100518161171b015261012051816105b1015261014051816105db015261016051816114ed01526101805181818161080b01526109850152f35b015190505f8061014a565b60015f9081528281209350601f198516905b8181106102d657509084600195949392106102be575b505050811b0160015561015f565b01515f1960f88460031b161c191690555f80806102b0565b9293602060018192878601518155019501930161029a565b60015f529091507fb10e2d527612073b26eecdfd717e6a320cf44b4afac2b0732d9fcbe2b7fa0cf6601f840160051c81019160208510610352575b90601f859493920160051c01905b8181106103445750610134565b5f8155849350600101610337565b9091508190610329565b634e487b7160e01b5f52602260045260245ffd5b91607f1691610120565b634e487b7160e01b5f52604160045260245ffd5b90508301515f6100ea565b5f8080528181209250601f198416905b8181106103e2575090836001949392106103ca575b5050811b015f556100fd565b8501515f1960f88460031b161c191690555f806103be565b9192602060018192868a0151815501940192016103a9565b5f80527f290decd9548b62a8d60345a988386fc84ba6bc95484008f6362f93160ef3e563601f830160051c81019160208410610452575b601f0160051c01905b81811061044757506100d4565b5f815560010161043a565b9091508190610431565b90607f16906100c2565b5f80fd5b601f909101601f19168101906001600160401b0382119082101761037a57604052565b908151602081105f14610507575090601f8151116104c75760208151910151602082106104b8571790565b5f198260200360031b1b161790565b604460209160405192839163305a27a960e01b83528160048401528051918291826024860152018484015e5f828201840152601f01601f19168101030190fd5b6001600160401b03811161037a57600654600181811c9116801561060a575b602082101461035c57601f81116105d7575b50602092601f821160011461057657928192935f9261056b575b50508160011b915f199060031b1c19161760065560ff90565b015190505f80610552565b601f1982169360065f52805f20915f5b8681106105bf57508360019596106105a7575b505050811b0160065560ff90565b01515f1960f88460031b161c191690555f8080610599565b91926020600181928685015181550194019201610586565b60065f52601f60205f20910160051c810190601f830160051c015b8181106105ff5750610538565b5f81556001016105f2565b90607f1690610526565b908151602081105f1461063f575090601f8151116104c75760208151910151602082106104b8571790565b6001600160401b03811161037a57600754600181811c91168015610742575b602082101461035c57601f811161070f575b50602092601f82116001146106ae57928192935f926106a3575b50508160011b915f199060031b1c19161760075560ff90565b015190505f8061068a565b601f1982169360075f52805f20915f5b8681106106f757508360019596106106df575b505050811b0160075560ff90565b01515f1960f88460031b161c191690555f80806106d1565b919260206001819286850151815501940192016106be565b60075f52601f60205f20910160051c810190601f830160051c015b8181106107375750610670565b5f815560010161072a565b90607f169061065e56fe6080806040526004361015610012575f80fd5b5f905f3560e01c90816301ffc9a714610e8d5750806306fdde0314610dc6578063081812fc14610da8578063095ea7b314610c72578063141a468c14610c4857806323b872dd14610b9c57806324744d5414610b185780633644e51514610af557806340c10f191461094957806342842e0e1461091f57806342966c68146107d8578063430c2081146107a65780636352211e1461077557806370a08231146106df578063745a41bc1461069357806384b0196e1461059757806395d89b41146104c8578063a22cb465146103f4578063b88d4fde1461039d578063c87b56dd1461015f5763e985e9c514610105575f80fd5b3461015c57604036600319011261015c576040610120610f36565b91610129610f4c565b9260018060a01b031681526005602052209060018060a01b03165f52602052602060ff60405f2054166040519015158152f35b80fd5b503461015c57602036600319011261015c576004355f81815260026020526040902054610196906001600160a01b0316151561118b565b604051906101a5606083610f9c565b6021825260208201917f687474703a2f2f7777772e7474737761702e696f2f6e66743f70726f6f6669648352603d60f81b6040820152819382819372184f03e93ff9f4daa797ed6e38ed64bf6a1f0160401b811015610377575b50806d04ee2d6d415b85acef8100000000600a92101561035c575b662386f26fc10000811015610348575b6305f5e100811015610337575b612710811015610328575b606481101561031a575b1015610310575b6001830194600a602161027e61026889610fd2565b986102766040519a8b610f9c565b808a52610fd2565b602089019690601f19013688378801015b5f1901916f181899199a1a9b1b9c1cb0b131b232b360811b8282061a8353049081156102bd57600a9061028f565b505060206102f89361030c966040519687955180918588015e85019083820190858252519283915e010190815203601f198101835282610f9c565b604051918291602083526020830190610f12565b0390f35b9160010191610253565b60646002910494019361024c565b61271060049104940193610242565b6305f5e10060089104940193610237565b662386f26fc100006010910494019361022a565b6d04ee2d6d415b85acef81000000006020910494019361021a565b6040945072184f03e93ff9f4daa797ed6e38ed64bf6a1f0160401b90049050600a6101ff565b503461015c57608036600319011261015c576103b7610f36565b6103bf610f4c565b6064359167ffffffffffffffff83116103f0576103e36103ed933690600401610fee565b91604435916111fc565b80f35b8380fd5b503461015c57604036600319011261015c5761040e610f36565b602435908115158092036104c4576001600160a01b03169033821461047f57338352600560205260408320825f5260205260405f2060ff1981541660ff83161790556040519081527f17307eab39ab6107e8899845ad3d59bd9653f200f220920489ca2b5937696c3160203392a380f35b60405162461bcd60e51b815260206004820152601960248201527f4552433732313a20617070726f766520746f2063616c6c6572000000000000006044820152606490fd5b8280fd5b503461015c578060031936011261015c576040519080600154906104eb82611034565b80855291600181169081156105705750600114610513575b61030c846102f881860382610f9c565b600181527fb10e2d527612073b26eecdfd717e6a320cf44b4afac2b0732d9fcbe2b7fa0cf6939250905b808210610556575090915081016020016102f882610503565b91926001816020925483858801015201910190929161053d565b60ff191660208087019190915292151560051b850190920192506102f89150839050610503565b503461015c578060031936011261015c57610637906105d57f00000000000000000000000000000000000000000000000000000000000000006117d5565b906105ff7f0000000000000000000000000000000000000000000000000000000000000000611835565b906020610645604051936106138386610f9c565b8385525f368137604051968796600f60f81b885260e08589015260e0880190610f12565b908682036040880152610f12565b904660608601523060808601528260a086015284820360c08601528080855193848152019401925b82811061067c57505050500390f35b83518552869550938101939281019260010161066d565b503461015c57608036600319011261015c576106ad610f36565b6064359067ffffffffffffffff82116104c4576106d16103ed923690600401610fee565b9060443590602435906114c7565b503461015c57602036600319011261015c576001600160a01b03610701610f36565b16801561071e578160409160209352600383522054604051908152f35b60405162461bcd60e51b815260206004820152602960248201527f4552433732313a2061646472657373207a65726f206973206e6f7420612076616044820152683634b21037bbb732b960b91b6064820152608490fd5b503461015c57602036600319011261015c5760206107946004356111d7565b6040516001600160a01b039091168152f35b503461015c57604036600319011261015c5760206107ce6107c5610f36565b6024359061131b565b6040519015158152f35b503461015c57602036600319011261015c576040516394c3c33360e01b81523360048281019190915235906020816024817f00000000000000000000000000000000000000000000000000000000000000006001600160a01b03165afa80156109145783906108dd575b60019150036108d957610854816111d7565b508161085f826111d7565b8282526004602052604082206001600160601b0360a01b815416905560018060a01b03168082526003602052604082205f1981540190558282526002602052604082206001600160601b0360a01b81541690557fddf252ad1be2c89b69c2b068fc378daa952ba7f163c4a11628f55a4df523b3ef8280a480f35b5080fd5b506020813d60201161090c575b816108f760209383610f9c565b810103126109085760019051610842565b5f80fd5b3d91506108ea565b6040513d85823e3d90fd5b503461015c576103ed61093136610f62565b9060405192610941602085610f9c565b8584526111fc565b503461015c57604036600319011261015c57610963610f36565b6040516394c3c33360e01b8152336004820152602480359291906020908290817f00000000000000000000000000000000000000000000000000000000000000006001600160a01b03165afa8015610aea578490610ab7575b60019150036104c4576001600160a01b03168015610a73575f828152600260205260409020546109f8906001600160a01b031615155b15611789565b5f82815260026020526040902054610a1a906001600160a01b031615156109f2565b80835260036020526040832060018154019055818352600260205260408320816001600160601b0360a01b825416179055827fddf252ad1be2c89b69c2b068fc378daa952ba7f163c4a11628f55a4df523b3ef8180a480f35b606460405162461bcd60e51b815260206004820152602060248201527f4552433732313a206d696e7420746f20746865207a65726f20616464726573736044820152fd5b506020813d602011610ae2575b81610ad160209383610f9c565b8101031261090857600190516109bc565b3d9150610ac4565b6040513d86823e3d90fd5b503461015c578060031936011261015c576020610b1061166d565b604051908152f35b503461015c5760c036600319011261015c57610b32610f36565b610b3a610f4c565b60443560643567ffffffffffffffff8111610b9857610b5d903690600401610fee565b9160a4359367ffffffffffffffff8511610b9457610b8f610b856103ed963690600401610fee565b60843585336114c7565b6111fc565b8580fd5b8480fd5b503461090857610bab36610f62565b90610bbe610bb9833361131b565b611129565b610bc9828285611390565b5f828152600960205260409020546001600160a01b0316803b1561090857604051630fd52d2b60e11b815260048101939093526001600160a01b03938416602484015292166044820152905f908290606490829084905af18015610c3d57610c2f575080f35b610c3b91505f90610f9c565b005b6040513d5f823e3d90fd5b34610908576020366003190112610908576004355f526008602052602060405f2054604051908152f35b3461090857604036600319011261090857610c8b610f36565b6024356001600160a01b03610c9f826111d7565b166001600160a01b0383168114610d5957803314908115610d35575b5015610cca57610c3b916112b4565b60405162461bcd60e51b815260206004820152603d60248201527f4552433732313a20617070726f76652063616c6c6572206973206e6f7420746f60448201527f6b656e206f776e6572206f7220617070726f76656420666f7220616c6c0000006064820152608490fd5b5f90815260056020908152604080832033845290915290205460ff16905083610cbb565b60405162461bcd60e51b815260206004820152602160248201527f4552433732313a20617070726f76616c20746f2063757272656e74206f776e656044820152603960f91b6064820152608490fd5b346109085760203660031901126109085760206107946004356110ed565b34610908575f366003190112610908576040515f8054610de581611034565b8084529060018116908115610e695750600114610e0d575b61030c836102f881850382610f9c565b5f8080527f290decd9548b62a8d60345a988386fc84ba6bc95484008f6362f93160ef3e563939250905b808210610e4f575090915081016020016102f8610dfd565b919260018160209254838588010152019101909291610e37565b60ff191660208086019190915291151560051b840190910191506102f89050610dfd565b34610908576020366003190112610908576004359063ffffffff60e01b821680920361090857602091635604e22560e01b8114908115610ecf575b5015158152f35b6380ac58cd60e01b811491508115610f01575b8115610ef0575b5083610ec8565b6301ffc9a760e01b14905083610ee9565b635b5e139f60e01b81149150610ee2565b805180835260209291819084018484015e5f828201840152601f01601f1916010190565b600435906001600160a01b038216820361090857565b602435906001600160a01b038216820361090857565b6060906003190112610908576004356001600160a01b038116810361090857906024356001600160a01b0381168103610908579060443590565b90601f8019910116810190811067ffffffffffffffff821117610fbe57604052565b634e487b7160e01b5f52604160045260245ffd5b67ffffffffffffffff8111610fbe57601f01601f191660200190565b81601f820112156109085780359061100582610fd2565b926110136040519485610f9c565b8284526020838301011161090857815f926020809301838601378301015290565b90600182811c92168015611062575b602083101461104e57565b634e487b7160e01b5f52602260045260245ffd5b91607f1691611043565b5f929181549161107b83611034565b80835292600181169081156110d0575060011461109757505050565b5f9081526020812093945091925b8383106110b6575060209250010190565b6001816020929493945483858701015201910191906110a5565b915050602093945060ff929192191683830152151560051b010190565b5f8181526002602052604090205461110f906001600160a01b0316151561118b565b5f908152600460205260409020546001600160a01b031690565b1561113057565b60405162461bcd60e51b815260206004820152602d60248201527f4552433732313a2063616c6c6572206973206e6f7420746f6b656e206f776e6560448201526c1c881bdc88185c1c1c9bdd9959609a1b6064820152608490fd5b1561119257565b60405162461bcd60e51b815260206004820152601860248201527f4552433732313a20696e76616c696420746f6b656e20494400000000000000006044820152606490fd5b5f908152600260205260409020546001600160a01b03166111f981151561118b565b90565b926112219061120e610bb9853361131b565b611219848487611390565b838386611a30565b15611297575f828152600960205260409020546001600160a01b0316803b1561090857604051630fd52d2b60e11b815260048101939093526001600160a01b03938416602484015292166044820152905f908290606490829084905af18015610c3d5761128b5750565b5f61129591610f9c565b565b60405162461bcd60e51b8152806112b06004820161186c565b0390fd5b5f82815260046020526040902080546001600160a01b0319166001600160a01b03838116919091179091556112e8836111d7565b6001600160a01b0390921691167f8c5be1e5ebec7d5bd14f71427d1e84f3dd0314c0f7b2291e5b200ac8c7c3b9255f80a4565b906001600160a01b0361132d826111d7565b6001600160a01b039093169216828114929190831561136d575b50821561135357505090565b9091506001600160a01b0390611368906110ed565b161490565b9092505f52600560205260405f20815f5260205260ff60405f205416915f611347565b90825f52600860205260405f20600181540190556113c46113b0846111d7565b6001600160a01b03938416931683146118bf565b6001600160a01b0316908115611476576113f0816001600160a01b036113e9866111d7565b16146118bf565b825f52600460205260405f206001600160601b0360a01b8154169055805f52600360205260405f205f198154019055815f52600360205260405f2060018154019055825f52600260205260405f20826001600160601b0360a01b8254161790557fddf252ad1be2c89b69c2b068fc378daa952ba7f163c4a11628f55a4df523b3ef5f80a4565b60405162461bcd60e51b8152602060048201526024808201527f4552433732313a207472616e7366657220746f20746865207a65726f206164646044820152637265737360e01b6064820152608490fd5b92909180421161162857604290835f52600860205260405f2054906040519060208201927f0000000000000000000000000000000000000000000000000000000000000000845260018060a01b0388166040840152866060840152608083015260a082015260a0815261153b60c082610f9c565b51902061154661166d565b906040519161190160f01b83526002830152602282015220906115698183611919565b506001600160a01b03811615159290849084611615575b505082156115ff575b82156115e5575b5050156115a057611295916112b4565b60405162461bcd60e51b815260206004820152601f60248201527f4552433732315065726d69743a20696e76616c6964207369676e6174757265006044820152606490fd5b6115f892506115f3846110ed565b61199d565b5f80611590565b915061160f81836115f3866111d7565b91611589565b61162092945061131b565b91835f611580565b60405162461bcd60e51b815260206004820152601e60248201527f4552433732315065726d69743a206578706972656420646561646c696e6500006044820152606490fd5b307f00000000000000000000000000000000000000000000000000000000000000006001600160a01b03161480611760575b156116c8577f000000000000000000000000000000000000000000000000000000000000000090565b60405160208101907f8b73c3c69bb8fe3d512ecc4cf759cc79239f7b179b0ffacaa9a75d522b39400f82527f000000000000000000000000000000000000000000000000000000000000000060408201527f000000000000000000000000000000000000000000000000000000000000000060608201524660808201523060a082015260a0815261175a60c082610f9c565b51902090565b507f0000000000000000000000000000000000000000000000000000000000000000461461169f565b1561179057565b60405162461bcd60e51b815260206004820152601c60248201527f4552433732313a20746f6b656e20616c7265616479206d696e746564000000006044820152606490fd5b60ff811461181b5760ff811690601f821161180c57604051916117f9604084610f9c565b6020808452838101919036833783525290565b632cd44ac360e21b5f5260045ffd5b506040516111f98161182e81600661106c565b0382610f9c565b60ff81146118595760ff811690601f821161180c57604051916117f9604084610f9c565b506040516111f98161182e81600761106c565b60809060208152603260208201527f4552433732313a207472616e7366657220746f206e6f6e20455243373231526560408201527131b2b4bb32b91034b6b83632b6b2b73a32b960711b60608201520190565b156118c657565b60405162461bcd60e51b815260206004820152602560248201527f4552433732313a207472616e736665722066726f6d20696e636f72726563742060448201526437bbb732b960d91b6064820152608490fd5b9060418151145f146119455761194191602082015190606060408401519301515f1a90611b17565b9091565b50505f90600290565b3d15611978573d9061195f82610fd2565b9161196d6040519384610f9c565b82523d5f602084013e565b606090565b9081602091031261090857516001600160e01b0319811681036109085790565b5f92916119d36119e185946040519283916020830195630b135d3f60e11b87526024840152604060448401526064830190610f12565b03601f198101835282610f9c565b51915afa6119ed61194e565b81611a24575b816119fc575090565b8051630b135d3f60e11b92506001600160e01b0319916113689181016020908101910161197d565b805160201491506119f3565b919290803b15611b0e57611a7f935f60209460405196879586948593630a85bd0160e11b855233600486015260018060a01b031660248501526044840152608060648401526084830190610f12565b03926001600160a01b03165af15f9181611add575b50611ac757611aa161194e565b80519081611ac25760405162461bcd60e51b8152806112b06004820161186c565b602001fd5b6001600160e01b031916630a85bd0160e11b1490565b611b0091925060203d602011611b07575b611af88183610f9c565b81019061197d565b905f611a94565b503d611aee565b50505050600190565b7f7fffffffffffffffffffffffffffffff5d576e7357a4501ddfe92f46681b20a08411611b87576020935f9360ff60809460405194855216868401526040830152606082015282805260015afa15610c3d575f516001600160a01b03811615611b7f57905f90565b505f90600190565b505050505f9060039056fea2646970667358221220666b4159d4348e38ecc8ded870c456ec25777a68708cb6e0ef4698e74b220a8a64736f6c634300081a0033",
    "sourcePath": "/Users/admin/workspace/50Self_project/ttswap-core/src/TTSwap_NFT.sol",
    "compiler": {
        "name": "solc",
        "version": "0.8.26+commit.8a97fa7a"
    },
    "functionHashes": {
        "DOMAIN_SEPARATOR()": "3644e515",
        "approve(address,uint256)": "095ea7b3",
        "balanceOf(address)": "70a08231",
        "burn(uint256)": "42966c68",
        "eip712Domain()": "84b0196e",
        "getApproved(uint256)": "081812fc",
        "isApprovedForAll(address,address)": "e985e9c5",
        "isApprovedOrOwner(address,uint256)": "430c2081",
        "mint(address,uint256)": "40c10f19",
        "name()": "06fdde03",
        "nonces(uint256)": "141a468c",
        "ownerOf(uint256)": "6352211e",
        "permit(address,uint256,uint256,bytes)": "745a41bc",
        "safeTransferFrom(address,address,uint256)": "42842e0e",
        "safeTransferFrom(address,address,uint256,bytes)": "b88d4fde",
        "safeTransferFromWithPermit(address,address,uint256,bytes,uint256,bytes)": "24744d54",
        "setApprovalForAll(address,bool)": "a22cb465",
        "supportsInterface(bytes4)": "01ffc9a7",
        "symbol()": "95d89b41",
        "tokenURI(uint256)": "c87b56dd",
        "transferFrom(address,address,uint256)": "23b872dd"
    },
    "gasEstimates": {
        "creation": {
            "codeDepositCost": "1422400",
            "executionCost": "infinite",
            "totalCost": "infinite"
        },
        "external": {
            "DOMAIN_SEPARATOR()": "infinite",
            "approve(address,uint256)": "infinite",
            "balanceOf(address)": "2723",
            "burn(uint256)": "infinite",
            "eip712Domain()": "infinite",
            "getApproved(uint256)": "4678",
            "isApprovedForAll(address,address)": "3017",
            "isApprovedOrOwner(address,uint256)": "infinite",
            "mint(address,uint256)": "infinite",
            "name()": "infinite",
            "nonces(uint256)": "2414",
            "ownerOf(uint256)": "2739",
            "permit(address,uint256,uint256,bytes)": "infinite",
            "safeTransferFrom(address,address,uint256)": "infinite",
            "safeTransferFrom(address,address,uint256,bytes)": "infinite",
            "safeTransferFromWithPermit(address,address,uint256,bytes,uint256,bytes)": "infinite",
            "setApprovalForAll(address,bool)": "26810",
            "supportsInterface(bytes4)": "384",
            "symbol()": "infinite",
            "tokenURI(uint256)": "infinite",
            "transferFrom(address,address,uint256)": "infinite"
        },
        "internal": {
            "_baseURI()": "infinite"
        }
    }
}