{
    "contractName": "TTSwap_Market",
    "abi": [
        {
            "inputs": [
                {
                    "internalType": "uint256",
                    "name": "_marketconfig",
                    "type": "uint256"
                },
                {
                    "internalType": "address",
                    "name": "_officialTokenContract",
                    "type": "address"
                },
                {
                    "internalType": "address",
                    "name": "_officialNFTContract",
                    "type": "address"
                },
                {
                    "internalType": "address",
                    "name": "_officialTrigger",
                    "type": "address"
                }
            ],
            "stateMutability": "nonpayable",
            "type": "constructor"
        },
        {
            "inputs": [],
            "name": "ERC20TransferFailed",
            "type": "error"
        },
        {
            "inputs": [],
            "name": "NativeTransferFailed",
            "type": "error"
        },
        {
            "anonymous": false,
            "inputs": [
                {
                    "indexed": false,
                    "internalType": "address",
                    "name": "_user",
                    "type": "address"
                }
            ],
            "name": "e_addbanlist",
            "type": "event"
        },
        {
            "anonymous": false,
            "inputs": [
                {
                    "indexed": true,
                    "internalType": "uint256",
                    "name": "sellgood",
                    "type": "uint256"
                },
                {
                    "indexed": true,
                    "internalType": "uint256",
                    "name": "forgood",
                    "type": "uint256"
                },
                {
                    "indexed": false,
                    "internalType": "address",
                    "name": "fromer",
                    "type": "address"
                },
                {
                    "indexed": false,
                    "internalType": "uint128",
                    "name": "swapvalue",
                    "type": "uint128"
                },
                {
                    "indexed": false,
                    "internalType": "uint256",
                    "name": "sellgoodstate",
                    "type": "uint256"
                },
                {
                    "indexed": false,
                    "internalType": "uint256",
                    "name": "forgoodstate",
                    "type": "uint256"
                }
            ],
            "name": "e_buyGood",
            "type": "event"
        },
        {
            "anonymous": false,
            "inputs": [
                {
                    "indexed": true,
                    "internalType": "uint256",
                    "name": "buygood",
                    "type": "uint256"
                },
                {
                    "indexed": true,
                    "internalType": "uint256",
                    "name": "usegood",
                    "type": "uint256"
                },
                {
                    "indexed": false,
                    "internalType": "address",
                    "name": "fromer",
                    "type": "address"
                },
                {
                    "indexed": false,
                    "internalType": "address",
                    "name": "receipt",
                    "type": "address"
                },
                {
                    "indexed": false,
                    "internalType": "uint128",
                    "name": "swapvalue",
                    "type": "uint128"
                },
                {
                    "indexed": false,
                    "internalType": "uint256",
                    "name": "buygoodstate",
                    "type": "uint256"
                },
                {
                    "indexed": false,
                    "internalType": "uint256",
                    "name": "usegoodstate",
                    "type": "uint256"
                }
            ],
            "name": "e_buyGoodForPay",
            "type": "event"
        },
        {
            "anonymous": false,
            "inputs": [
                {
                    "indexed": true,
                    "internalType": "uint256",
                    "name": "_goodid",
                    "type": "uint256"
                },
                {
                    "indexed": false,
                    "internalType": "address",
                    "name": "_owner",
                    "type": "address"
                },
                {
                    "indexed": false,
                    "internalType": "address",
                    "name": "_to",
                    "type": "address"
                }
            ],
            "name": "e_changeOwner",
            "type": "event"
        },
        {
            "anonymous": false,
            "inputs": [
                {
                    "indexed": false,
                    "internalType": "uint256",
                    "name": "goodid",
                    "type": "uint256"
                },
                {
                    "indexed": false,
                    "internalType": "address",
                    "name": "to",
                    "type": "address"
                }
            ],
            "name": "e_changegoodowner",
            "type": "event"
        },
        {
            "anonymous": false,
            "inputs": [
                {
                    "indexed": true,
                    "internalType": "uint256",
                    "name": "_proofNo",
                    "type": "uint256"
                },
                {
                    "indexed": false,
                    "internalType": "uint256",
                    "name": "_normalGoodNo",
                    "type": "uint256"
                },
                {
                    "indexed": false,
                    "internalType": "uint256",
                    "name": "_valueGoodNo",
                    "type": "uint256"
                },
                {
                    "indexed": false,
                    "internalType": "uint256",
                    "name": "_profit",
                    "type": "uint256"
                }
            ],
            "name": "e_collectProof",
            "type": "event"
        },
        {
            "anonymous": false,
            "inputs": [
                {
                    "indexed": false,
                    "internalType": "uint256",
                    "name": "goodid",
                    "type": "uint256"
                },
                {
                    "indexed": false,
                    "internalType": "uint256",
                    "name": "feeamount",
                    "type": "uint256"
                }
            ],
            "name": "e_collectProtocolFee",
            "type": "event"
        },
        {
            "anonymous": false,
            "inputs": [
                {
                    "indexed": false,
                    "internalType": "uint256[]",
                    "name": "_gooid",
                    "type": "uint256[]"
                },
                {
                    "indexed": false,
                    "internalType": "uint256[]",
                    "name": "_commisionamount",
                    "type": "uint256[]"
                }
            ],
            "name": "e_collectcommission",
            "type": "event"
        },
        {
            "anonymous": false,
            "inputs": [
                {
                    "indexed": true,
                    "internalType": "uint256",
                    "name": "_proofNo",
                    "type": "uint256"
                },
                {
                    "indexed": false,
                    "internalType": "uint256",
                    "name": "_normalGoodNo",
                    "type": "uint256"
                },
                {
                    "indexed": false,
                    "internalType": "uint256",
                    "name": "_valueGoodNo",
                    "type": "uint256"
                },
                {
                    "indexed": false,
                    "internalType": "uint256",
                    "name": "_value",
                    "type": "uint256"
                },
                {
                    "indexed": false,
                    "internalType": "uint256",
                    "name": "_normalgood",
                    "type": "uint256"
                },
                {
                    "indexed": false,
                    "internalType": "uint256",
                    "name": "_valuegood",
                    "type": "uint256"
                },
                {
                    "indexed": false,
                    "internalType": "uint256",
                    "name": "_profit",
                    "type": "uint256"
                }
            ],
            "name": "e_disinvestProof",
            "type": "event"
        },
        {
            "anonymous": false,
            "inputs": [
                {
                    "indexed": false,
                    "internalType": "uint256",
                    "name": "_goodid",
                    "type": "uint256"
                },
                {
                    "indexed": false,
                    "internalType": "uint256",
                    "name": "_valuegood",
                    "type": "uint256"
                },
                {
                    "indexed": false,
                    "internalType": "uint256",
                    "name": "_quantity",
                    "type": "uint256"
                }
            ],
            "name": "e_enpower",
            "type": "event"
        },
        {
            "anonymous": false,
            "inputs": [
                {
                    "indexed": false,
                    "internalType": "uint256",
                    "name": "goodid",
                    "type": "uint256"
                },
                {
                    "indexed": false,
                    "internalType": "uint128",
                    "name": "welfare",
                    "type": "uint128"
                }
            ],
            "name": "e_goodWelfare",
            "type": "event"
        },
        {
            "anonymous": false,
            "inputs": [
                {
                    "indexed": false,
                    "internalType": "uint256",
                    "name": "_proofNo",
                    "type": "uint256"
                },
                {
                    "indexed": false,
                    "internalType": "uint256",
                    "name": "_goodid",
                    "type": "uint256"
                },
                {
                    "indexed": false,
                    "internalType": "uint256",
                    "name": "_valuegoodNo",
                    "type": "uint256"
                },
                {
                    "indexed": false,
                    "internalType": "address",
                    "name": "_erc20address",
                    "type": "address"
                },
                {
                    "indexed": false,
                    "internalType": "uint256",
                    "name": "_goodConfig",
                    "type": "uint256"
                },
                {
                    "indexed": false,
                    "internalType": "uint256",
                    "name": "_construct",
                    "type": "uint256"
                },
                {
                    "indexed": false,
                    "internalType": "uint256",
                    "name": "_normalinitial",
                    "type": "uint256"
                },
                {
                    "indexed": false,
                    "internalType": "uint256",
                    "name": "_value",
                    "type": "uint256"
                }
            ],
            "name": "e_initGood",
            "type": "event"
        },
        {
            "anonymous": false,
            "inputs": [
                {
                    "indexed": false,
                    "internalType": "uint256",
                    "name": "_proofNo",
                    "type": "uint256"
                },
                {
                    "indexed": false,
                    "internalType": "uint256",
                    "name": "_goodid",
                    "type": "uint256"
                },
                {
                    "indexed": false,
                    "internalType": "uint256",
                    "name": "_construct",
                    "type": "uint256"
                },
                {
                    "indexed": false,
                    "internalType": "address",
                    "name": "_erc20address",
                    "type": "address"
                },
                {
                    "indexed": false,
                    "internalType": "uint256",
                    "name": "_goodConfig",
                    "type": "uint256"
                },
                {
                    "indexed": false,
                    "internalType": "uint256",
                    "name": "_initial",
                    "type": "uint256"
                }
            ],
            "name": "e_initMetaGood",
            "type": "event"
        },
        {
            "anonymous": false,
            "inputs": [
                {
                    "indexed": true,
                    "internalType": "uint256",
                    "name": "_proofNo",
                    "type": "uint256"
                },
                {
                    "indexed": false,
                    "internalType": "uint256",
                    "name": "_normalgoodid",
                    "type": "uint256"
                },
                {
                    "indexed": false,
                    "internalType": "uint256",
                    "name": "_valueGoodNo",
                    "type": "uint256"
                },
                {
                    "indexed": false,
                    "internalType": "uint256",
                    "name": "_value",
                    "type": "uint256"
                },
                {
                    "indexed": false,
                    "internalType": "uint256",
                    "name": "_invest",
                    "type": "uint256"
                },
                {
                    "indexed": false,
                    "internalType": "uint256",
                    "name": "_valueinvest",
                    "type": "uint256"
                }
            ],
            "name": "e_investGood",
            "type": "event"
        },
        {
            "anonymous": false,
            "inputs": [
                {
                    "indexed": false,
                    "internalType": "uint256",
                    "name": "_goodid",
                    "type": "uint256"
                },
                {
                    "indexed": false,
                    "internalType": "uint256",
                    "name": "_goodconfig",
                    "type": "uint256"
                }
            ],
            "name": "e_modifyGoodConfig",
            "type": "event"
        },
        {
            "anonymous": false,
            "inputs": [
                {
                    "indexed": false,
                    "internalType": "address",
                    "name": "_user",
                    "type": "address"
                }
            ],
            "name": "e_removebanlist",
            "type": "event"
        },
        {
            "anonymous": false,
            "inputs": [
                {
                    "indexed": false,
                    "internalType": "uint256",
                    "name": "goodid",
                    "type": "uint256"
                },
                {
                    "indexed": false,
                    "internalType": "address",
                    "name": "triggeraddress",
                    "type": "address"
                },
                {
                    "indexed": false,
                    "internalType": "uint256",
                    "name": "goodconfig",
                    "type": "uint256"
                }
            ],
            "name": "e_setGoodTrigger",
            "type": "event"
        },
        {
            "anonymous": false,
            "inputs": [
                {
                    "indexed": false,
                    "internalType": "uint256",
                    "name": "_marketconfig",
                    "type": "uint256"
                }
            ],
            "name": "e_setMarketConfig",
            "type": "event"
        },
        {
            "anonymous": false,
            "inputs": [
                {
                    "indexed": false,
                    "internalType": "uint256",
                    "name": "delproofid",
                    "type": "uint256"
                },
                {
                    "indexed": false,
                    "internalType": "uint256",
                    "name": "existsproofid",
                    "type": "uint256"
                }
            ],
            "name": "e_transferdel",
            "type": "event"
        },
        {
            "anonymous": false,
            "inputs": [
                {
                    "indexed": false,
                    "internalType": "uint256",
                    "name": "_goodid",
                    "type": "uint256"
                },
                {
                    "indexed": false,
                    "internalType": "uint256",
                    "name": "_goodConfig",
                    "type": "uint256"
                }
            ],
            "name": "e_updateGoodConfig",
            "type": "event"
        },
        {
            "inputs": [
                {
                    "internalType": "address",
                    "name": "_user",
                    "type": "address"
                }
            ],
            "name": "addbanlist",
            "outputs": [
                {
                    "internalType": "bool",
                    "name": "",
                    "type": "bool"
                }
            ],
            "stateMutability": "nonpayable",
            "type": "function"
        },
        {
            "inputs": [
                {
                    "internalType": "address",
                    "name": "",
                    "type": "address"
                }
            ],
            "name": "banlist",
            "outputs": [
                {
                    "internalType": "uint256",
                    "name": "",
                    "type": "uint256"
                }
            ],
            "stateMutability": "view",
            "type": "function"
        },
        {
            "inputs": [
                {
                    "internalType": "uint256",
                    "name": "_goodid1",
                    "type": "uint256"
                },
                {
                    "internalType": "uint256",
                    "name": "_goodid2",
                    "type": "uint256"
                },
                {
                    "internalType": "uint128",
                    "name": "_swapQuantity",
                    "type": "uint128"
                },
                {
                    "internalType": "uint256",
                    "name": "_limitPrice",
                    "type": "uint256"
                },
                {
                    "internalType": "bool",
                    "name": "_istotal",
                    "type": "bool"
                },
                {
                    "internalType": "address",
                    "name": "_referal",
                    "type": "address"
                }
            ],
            "name": "buyGood",
            "outputs": [
                {
                    "internalType": "uint128",
                    "name": "goodid2Quantity_",
                    "type": "uint128"
                },
                {
                    "internalType": "uint128",
                    "name": "goodid2FeeQuantity_",
                    "type": "uint128"
                }
            ],
            "stateMutability": "payable",
            "type": "function"
        },
        {
            "inputs": [
                {
                    "internalType": "uint256",
                    "name": "_goodid1",
                    "type": "uint256"
                },
                {
                    "internalType": "uint256",
                    "name": "_goodid2",
                    "type": "uint256"
                },
                {
                    "internalType": "uint128",
                    "name": "_swapQuantity",
                    "type": "uint128"
                },
                {
                    "internalType": "uint256",
                    "name": "_limitPrice",
                    "type": "uint256"
                },
                {
                    "internalType": "address",
                    "name": "_recipient",
                    "type": "address"
                }
            ],
            "name": "buyGoodForPay",
            "outputs": [
                {
                    "internalType": "uint128",
                    "name": "goodid1Quantity_",
                    "type": "uint128"
                },
                {
                    "internalType": "uint128",
                    "name": "goodid1FeeQuantity_",
                    "type": "uint128"
                }
            ],
            "stateMutability": "payable",
            "type": "function"
        },
        {
            "inputs": [
                {
                    "internalType": "uint256",
                    "name": "_goodid",
                    "type": "uint256"
                },
                {
                    "internalType": "address",
                    "name": "_to",
                    "type": "address"
                }
            ],
            "name": "changeGoodOwner",
            "outputs": [],
            "stateMutability": "nonpayable",
            "type": "function"
        },
        {
            "inputs": [
                {
                    "internalType": "uint256[]",
                    "name": "_goodid",
                    "type": "uint256[]"
                }
            ],
            "name": "collectCommission",
            "outputs": [],
            "stateMutability": "nonpayable",
            "type": "function"
        },
        {
            "inputs": [
                {
                    "internalType": "uint256",
                    "name": "_proofid",
                    "type": "uint256"
                },
                {
                    "internalType": "address",
                    "name": "_gater",
                    "type": "address"
                }
            ],
            "name": "collectProof",
            "outputs": [
                {
                    "internalType": "uint256",
                    "name": "profit_",
                    "type": "uint256"
                }
            ],
            "stateMutability": "nonpayable",
            "type": "function"
        },
        {
            "inputs": [
                {
                    "internalType": "uint256",
                    "name": "proofid",
                    "type": "uint256"
                },
                {
                    "internalType": "address",
                    "name": "from",
                    "type": "address"
                },
                {
                    "internalType": "address",
                    "name": "to",
                    "type": "address"
                }
            ],
            "name": "delproofdata",
            "outputs": [],
            "stateMutability": "nonpayable",
            "type": "function"
        },
        {
            "inputs": [
                {
                    "internalType": "uint256",
                    "name": "_proofid",
                    "type": "uint256"
                },
                {
                    "internalType": "uint128",
                    "name": "_goodQuantity",
                    "type": "uint128"
                },
                {
                    "internalType": "address",
                    "name": "_gater",
                    "type": "address"
                }
            ],
            "name": "disinvestProof",
            "outputs": [
                {
                    "internalType": "bool",
                    "name": "",
                    "type": "bool"
                }
            ],
            "stateMutability": "nonpayable",
            "type": "function"
        },
        {
            "inputs": [
                {
                    "internalType": "uint256",
                    "name": "goodkey",
                    "type": "uint256"
                }
            ],
            "name": "getGoodState",
            "outputs": [
                {
                    "components": [
                        {
                            "internalType": "uint256",
                            "name": "goodConfig",
                            "type": "uint256"
                        },
                        {
                            "internalType": "address",
                            "name": "owner",
                            "type": "address"
                        },
                        {
                            "internalType": "address",
                            "name": "erc20address",
                            "type": "address"
                        },
                        {
                            "internalType": "address",
                            "name": "trigger",
                            "type": "address"
                        },
                        {
                            "internalType": "uint256",
                            "name": "currentState",
                            "type": "uint256"
                        },
                        {
                            "internalType": "uint256",
                            "name": "investState",
                            "type": "uint256"
                        },
                        {
                            "internalType": "uint256",
                            "name": "feeQuantityState",
                            "type": "uint256"
                        }
                    ],
                    "internalType": "struct L_Good.S_GoodTmpState",
                    "name": "",
                    "type": "tuple"
                }
            ],
            "stateMutability": "view",
            "type": "function"
        },
        {
            "inputs": [
                {
                    "internalType": "uint256",
                    "name": "proofid",
                    "type": "uint256"
                }
            ],
            "name": "getProofState",
            "outputs": [
                {
                    "components": [
                        {
                            "internalType": "uint256",
                            "name": "currentgood",
                            "type": "uint256"
                        },
                        {
                            "internalType": "uint256",
                            "name": "valuegood",
                            "type": "uint256"
                        },
                        {
                            "internalType": "uint256",
                            "name": "state",
                            "type": "uint256"
                        },
                        {
                            "internalType": "uint256",
                            "name": "invest",
                            "type": "uint256"
                        },
                        {
                            "internalType": "uint256",
                            "name": "valueinvest",
                            "type": "uint256"
                        }
                    ],
                    "internalType": "struct L_Proof.S_ProofState",
                    "name": "",
                    "type": "tuple"
                }
            ],
            "stateMutability": "view",
            "type": "function"
        },
        {
            "inputs": [
                {
                    "internalType": "uint256",
                    "name": "goodid",
                    "type": "uint256"
                },
                {
                    "internalType": "uint128",
                    "name": "welfare",
                    "type": "uint128"
                }
            ],
            "name": "goodWelfare",
            "outputs": [],
            "stateMutability": "payable",
            "type": "function"
        },
        {
            "inputs": [
                {
                    "internalType": "uint256",
                    "name": "_valuegood",
                    "type": "uint256"
                },
                {
                    "internalType": "uint256",
                    "name": "_initial",
                    "type": "uint256"
                },
                {
                    "internalType": "address",
                    "name": "_erc20address",
                    "type": "address"
                },
                {
                    "internalType": "uint256",
                    "name": "_goodConfig",
                    "type": "uint256"
                }
            ],
            "name": "initGood",
            "outputs": [
                {
                    "internalType": "bool",
                    "name": "",
                    "type": "bool"
                }
            ],
            "stateMutability": "payable",
            "type": "function"
        },
        {
            "inputs": [
                {
                    "internalType": "address",
                    "name": "_erc20address",
                    "type": "address"
                },
                {
                    "internalType": "uint256",
                    "name": "_initial",
                    "type": "uint256"
                },
                {
                    "internalType": "uint256",
                    "name": "_goodConfig",
                    "type": "uint256"
                }
            ],
            "name": "initMetaGood",
            "outputs": [
                {
                    "internalType": "bool",
                    "name": "",
                    "type": "bool"
                }
            ],
            "stateMutability": "payable",
            "type": "function"
        },
        {
            "inputs": [
                {
                    "internalType": "uint256",
                    "name": "_togood",
                    "type": "uint256"
                },
                {
                    "internalType": "uint256",
                    "name": "_valuegood",
                    "type": "uint256"
                },
                {
                    "internalType": "uint128",
                    "name": "_quantity",
                    "type": "uint128"
                }
            ],
            "name": "investGood",
            "outputs": [
                {
                    "internalType": "bool",
                    "name": "",
                    "type": "bool"
                }
            ],
            "stateMutability": "payable",
            "type": "function"
        },
        {
            "inputs": [
                {
                    "internalType": "uint256",
                    "name": "goodid",
                    "type": "uint256"
                },
                {
                    "internalType": "uint256",
                    "name": "valuegood",
                    "type": "uint256"
                },
                {
                    "internalType": "uint256",
                    "name": "compareprice",
                    "type": "uint256"
                }
            ],
            "name": "ishigher",
            "outputs": [
                {
                    "internalType": "bool",
                    "name": "",
                    "type": "bool"
                }
            ],
            "stateMutability": "view",
            "type": "function"
        },
        {
            "inputs": [],
            "name": "marketconfig",
            "outputs": [
                {
                    "internalType": "uint256",
                    "name": "",
                    "type": "uint256"
                }
            ],
            "stateMutability": "view",
            "type": "function"
        },
        {
            "inputs": [
                {
                    "internalType": "uint256",
                    "name": "_goodid",
                    "type": "uint256"
                },
                {
                    "internalType": "uint256",
                    "name": "_goodConfig",
                    "type": "uint256"
                }
            ],
            "name": "modifyGoodConfig",
            "outputs": [
                {
                    "internalType": "bool",
                    "name": "",
                    "type": "bool"
                }
            ],
            "stateMutability": "nonpayable",
            "type": "function"
        },
        {
            "inputs": [
                {
                    "internalType": "uint256",
                    "name": "_goodid",
                    "type": "uint256"
                },
                {
                    "internalType": "uint256",
                    "name": "_payquanity",
                    "type": "uint256"
                },
                {
                    "internalType": "address",
                    "name": "_recipent",
                    "type": "address"
                }
            ],
            "name": "payGood",
            "outputs": [
                {
                    "internalType": "bool",
                    "name": "",
                    "type": "bool"
                }
            ],
            "stateMutability": "payable",
            "type": "function"
        },
        {
            "inputs": [
                {
                    "internalType": "uint256",
                    "name": "proofkey",
                    "type": "uint256"
                }
            ],
            "name": "proofmapping",
            "outputs": [
                {
                    "internalType": "uint256",
                    "name": "proofid",
                    "type": "uint256"
                }
            ],
            "stateMutability": "view",
            "type": "function"
        },
        {
            "inputs": [
                {
                    "internalType": "uint256[]",
                    "name": "_goodid",
                    "type": "uint256[]"
                },
                {
                    "internalType": "address",
                    "name": "_recipent",
                    "type": "address"
                }
            ],
            "name": "queryCommission",
            "outputs": [
                {
                    "internalType": "uint256[]",
                    "name": "",
                    "type": "uint256[]"
                }
            ],
            "stateMutability": "view",
            "type": "function"
        },
        {
            "inputs": [
                {
                    "internalType": "address",
                    "name": "_user",
                    "type": "address"
                }
            ],
            "name": "removebanlist",
            "outputs": [
                {
                    "internalType": "bool",
                    "name": "",
                    "type": "bool"
                }
            ],
            "stateMutability": "nonpayable",
            "type": "function"
        },
        {
            "inputs": [
                {
                    "internalType": "uint256",
                    "name": "goodid",
                    "type": "uint256"
                },
                {
                    "internalType": "address",
                    "name": "apptrigeraddress",
                    "type": "address"
                },
                {
                    "internalType": "uint256",
                    "name": "config",
                    "type": "uint256"
                }
            ],
            "name": "setGoodTrigger",
            "outputs": [],
            "stateMutability": "nonpayable",
            "type": "function"
        },
        {
            "inputs": [
                {
                    "internalType": "uint256",
                    "name": "_marketconfig",
                    "type": "uint256"
                }
            ],
            "name": "setMarketConfig",
            "outputs": [
                {
                    "internalType": "bool",
                    "name": "",
                    "type": "bool"
                }
            ],
            "stateMutability": "nonpayable",
            "type": "function"
        },
        {
            "inputs": [
                {
                    "internalType": "uint256",
                    "name": "_goodid",
                    "type": "uint256"
                },
                {
                    "internalType": "uint256",
                    "name": "_goodConfig",
                    "type": "uint256"
                }
            ],
            "name": "updateGoodConfig",
            "outputs": [
                {
                    "internalType": "bool",
                    "name": "",
                    "type": "bool"
                }
            ],
            "stateMutability": "nonpayable",
            "type": "function"
        }
    ],
    "bytecode": "60e03461010b57601f614b9c38819003918201601f19168301916001600160401b0383118484101761010f5780849260809460405283398101031261010b57805161004c60208301610123565b91610065606061005e60408401610123565b9201610123565b9260805260a0525f5560c052604051614a64908161013882396080518181816102fa015281816105f30152818161088b01528181610a0301528181610dad0152818161129f0152818161161b01528181611985015281816120ab01526126ff015260a0518181816105bb01528181610c010152818161176c015281816118fb015281816124010152612672015260c051818181610f3b01528181611d0f01526121750152f35b5f80fd5b634e487b7160e01b5f52604160045260245ffd5b51906001600160a01b038216820361010b5756fe60806040526004361015610011575f80fd5b5f3560e01c806306e27369146101a45780630e21a1ac1461019f578063144aeb831461019a57806318ad50d1146101955780631faa5a56146101905780632973ada71461018b5780632a7c5a91146101865780633f11774014610181578063402f5ab51461017c57806345818e4c146101775780634ffef90714610172578063578496ab1461016d5780635e008cc4146101685780636ff73c8e14610163578063920acbb81461015e5780639551177a1461015957806397924ead14610154578063a676a6001461014f578063a6f6a9801461014a578063a7e1169714610145578063a7fed92514610140578063b153b9201461013b578063f44733ad14610136578063f4662f20146101315763f88c30101461012c575f80fd5b612964565b6125ef565b612116565b612073565b612026565b611c9a565b611b22565b611884565b611686565b6115e3565b611560565b6114a9565b61131e565b610eaa565b610a6e565b6109d4565b6109b8565b6108f3565b610850565b610815565b61058c565b610458565b610391565b6102c5565b6101be565b6001600160a01b038116036101ba57565b5f80fd5b346101ba5760603660031901126101ba576004356024356101de816101a9565b60443591805f52600160205260018060a01b03600160405f2001541633036101ba577ff9c8db0c5294b561be909ddf03e9adcd15b0240463d521d6a0a88082a43db13f92610234825f52600160205260405f2090565b545f83815260016020526040902060df9290921b600f60df1b16600f60df1b1990911601815561028290839060030180546001600160a01b0319166001600160a01b03909216919091179055565b6102c0610297825f52600160205260405f2090565b54604080519384526001600160a01b039094166020840152928201929092529081906060820190565b0390a1005b346101ba5760403660031901126101ba576004356024356040516394c3c33360e01b81523360048201529091906020816024817f00000000000000000000000000000000000000000000000000000000000000006001600160a01b03165afa801561038c576002915f9161035d575b50036101ba576103599161034791612afc565b60405190151581529081906020820190565b0390f35b61037f915060203d602011610385575b610377818361137d565b810190612ae2565b5f610334565b503d61036d565b612af1565b346101ba5760403660031901126101ba576004356024355f82815260016020819052604090912001546001600160a01b031633036101ba57815f52600160205260405f20916401ffffffff60df1b83541660018060df1b0383168101809111610442577fc360eef79f1e7d7e7564e3cd446a9839f5a632a38a4d34b507c08e1ceef4614793556104336040519283928360209093929193604081019481520152565b0390a160405160018152602090f35b612b68565b6001600160801b038116036101ba57565b60403660031901126101ba5760043560243561047381610447565b5f80516020614a0f8339815191525c6001600160a01b03166101ba57335f80516020614a0f8339815191525d815f5260016020526001606d1b6001600160801b036104c883600660405f20015460801c612b7c565b16116101ba578161052a610518600261050a7f54fe3e24ce316357354d8b9553364de253d61c742d913dfd419149ddf696947a965f52600160205260405f2090565b01546001600160a01b031690565b6001600160801b038416903390612eef565b6105536006610541835f52600160205260405f2090565b015461054d8460801b90565b90612efb565b6006610567835f52600160205260405f2090565b0155604080519182526001600160801b03929092166020820152a161058a612edd565b005b346101ba5760603660031901126101ba576004356024356105ac816101a9565b604435916105b9836101a9565b7f00000000000000000000000000000000000000000000000000000000000000006001600160a01b03166105ee338214612adb565b6106cb7f000000000000000000000000000000000000000000000000000000000000000061063b610634600261062c875f52600360205260405f2090565b015460801c90565b8683612f2a565b610655610650855f52600360205260405f2090565b612b9c565b956106c560406106bc6106948a519960208c019a8b519061068661067761139f565b6001600160a01b039094168452565b602083015284820152612f8c565b988a5190516106a161139f565b6001600160a01b038716815291602083015283820152612f8c565b98015160801c90565b91612fc7565b506106de845f52600260205260405f2090565b548061072457505050805f92610712610702610721945f52600260205260405f2090565b54915f52600260205260405f2090565b555f52600260205260405f2090565b55005b909291935061075661073e825f52600360205260405f2090565b610750865f52600360205260405f2090565b9061304a565b61078861076b855f52600360205260405f2090565b60045f918281558260018201558260028201558260038201550155565b823b156101ba57604051630852cd8d60e31b815260048101859052925f908490602490829084905af190811561038c575f94610721947f335d27656e7f9578ae51244b214940ee63a03fbed3788497ee4237a186aad1e4936107fb575b50604080519182526020820192909252a1610d7b565b806108098861080f9361137d565b806109ae565b5f6107e5565b346101ba5760203660031901126101ba57600435610832816101a9565b60018060a01b03165f526004602052602060405f2054604051908152f35b346101ba5760403660031901126101ba57600435602435610870816101a9565b6040516394c3c33360e01b81523360048201526020816024817f00000000000000000000000000000000000000000000000000000000000000006001600160a01b03165afa801561038c576002915f916108d4575b50036101ba5761058a91612bd8565b6108ed915060203d60201161038557610377818361137d565b5f6108c5565b346101ba5760203660031901126101ba576004355f60806040516109168161135c565b82815282602082015282604082015282606082015201525f52600360205261035960405f2060046040519161094a8361135c565b80548352600181015460208401526002810154604084015260038101546060840152015460808201526040519182918291909160808060a0830194805184526020810151602085015260408101516040850152606081015160608501520151910152565b5f9103126101ba57565b346101ba575f3660031901126101ba5760205f54604051908152f35b346101ba5760203660031901126101ba576004356040516394c3c33360e01b81523360048201526020816024817f00000000000000000000000000000000000000000000000000000000000000006001600160a01b03165afa801561038c576002915f91610a4f575b50036101ba5761034761035991612c3e565b610a68915060203d60201161038557610377818361137d565b5f610a3d565b60803660031901126101ba57604435600435602435610a8c836101a9565b6064355f80516020614a0f8339815191525c6001600160a01b03166101ba57335f80516020614a0f8339815191525d610add610ac66113b0565b3381526001600160a01b038616602082015261308f565b9260018060a01b03610afc600161050a875f52600160205260405f2090565b161580610e74575b610b0d90612adb565b610b638360801c93610b20853389612eef565b610b4c610b3a600261050a865f52600160205260405f2090565b6001600160801b038316903390612eef565b610b5e835f52600160205260405f2090565b6130bf565b610b75855f52600160205260405f2090565b610bac84886040850193610ba689610b9487516001600160801b031690565b906001600160801b03169060801b1790565b9061320f565b610bcb610bb761139f565b338152876020820152846040820152612f8c565b93610bd585613265565b610be7865f52600260205260405f2090565b555f85815260026020526040902054976001600160a01b037f000000000000000000000000000000000000000000000000000000000000000016803b156101ba576040516340c10f1960e01b8152336004820152602481019a909a525f908a90604490829084905af195861561038c5784610cf7610ded610ddf610d89610dfb957f7f24d62c59fa0f0a64c80fbbd1fce113d877d6c18a97ad6dffe701f290f123849f8f8f610e499f8f91610d088f610ce36020610cd48f96610cc1606095610d7b9c610cc793610e60575b50516001600160801b031690565b60801b90565b956001600160801b031690565b9501516001600160801b031690565b9c019b610cf78d516001600160801b031690565b6001600160801b03169060801b1790565b92610d116113bf565b9485526020850152604084015260608301526080820152610d4c610d3d845f52600260205260405f2090565b545f52600360205260405f2090565b906080600491805184556020810151600185015560408101516002850155606081015160038501550151910155565b5f52600260205260405f2090565b549b610cf7610dd1610daa610da58c516001600160801b031690565b612c71565b337f0000000000000000000000000000000000000000000000000000000000000000612fc7565b99516001600160801b031690565b97516001600160801b031690565b91516001600160801b031690565b94604051988998899490989796936001600160801b039360e0979361010088019b88526020880152604087015260018060a01b0316606086015260808501521660a083015260c08201520152565b0390a1610e54612edd565b60405160018152602090f35b806108095f610e6e9361137d565b5f610cb3565b50610b0d610e99610e8d835f52600160205260405f2090565b54600160ff1b16151590565b9050610b04565b801515036101ba57565b60c03660031901126101ba57600435604435602435610ec882610447565b60843592606435610ed885610ea0565b60a435610ee4816101a9565b5f80516020614a0f8339815191525c6001600160a01b03166101ba57335f80516020614a0f8339815191525d6001600160a01b03811661129d575b5061104e610f35835f52600160205260405f2090565b91610fbb7f0000000000000000000000000000000000000000000000000000000000000000610f896004610f71895f52600160205260405f2090565b0154956001600160801b038a1696878a85339461328f565b610f9b875f52600160205260405f2090565b858733936004610fb3835f52600160205260405f2090565b015493613366565b6004610fcf855f52600160205260405f2090565b0154610fe3855f52600160205260405f2090565b546004610ff8885f52600160205260405f2090565b015461100c885f52600160205260405f2090565b54916110166113ce565b6001600160801b038b168152935f60208601525f60408601525f6060860152608085015260a084015260c083015260e0820152613440565b94811515918261127d575b5081611272575b8161123b575b5061107090612adb565b7fa79c43e220b5faf022716b06e757294b799a25f33d3c8b0121e614f7b5d988c46110a3835f52600160205260405f2090565b54946111e66110e46110dd6110c260208501516001600160801b031690565b986001600160801b038a165b607f6127109260cc1c16020490565b8098612ca4565b95610cf7610ded6110fd875f52600160205260405f2090565b92611123608087015194604088019561111d87516001600160801b031690565b9161378b565b6111448b6111398b5f52600160205260405f2090565b60c08901519061378b565b61118f61115e600261050a8b5f52600160205260405f2090565b61118761117b6111758a516001600160801b031690565b85612ca4565b6001600160801b031690565b903390612eef565b6111bb6111a9600261050a8c5f52600160205260405f2090565b6001600160801b038c169033906137a5565b6111e06111d260608801516001600160801b031690565b96516001600160801b031690565b90612ca4565b604080513381526001600160801b03938416602082015290810191909152608086811b928816929092176060820152a361121e612edd565b604080516001600160801b03928316815292909116602083015290f35b6001915015151480611251575b15611070611066565b5061107061126961117b86516001600160801b031690565b15159050611248565b828414159150611060565b90915061129461117b87516001600160801b031690565b1415905f611059565b7f00000000000000000000000000000000000000000000000000000000000000006001600160a01b0316803b156101ba576040516376549e6760e11b81523360048201526001600160a01b039290921660248301525f908290604490829084905af1801561038c5715610f1f57806108095f6113189361137d565b5f610f1f565b346101ba5760203660031901126101ba576004355f526002602052602060405f2054604051908152f35b634e487b7160e01b5f52604160045260245ffd5b60a0810190811067ffffffffffffffff82111761137857604052565b611348565b90601f8019910116810190811067ffffffffffffffff82111761137857604052565b604051906113ae60608361137d565b565b604051906113ae60408361137d565b604051906113ae60a08361137d565b604051906113ae6101008361137d565b604051906113ae60e08361137d565b67ffffffffffffffff81116113785760051b60200190565b9080601f830112156101ba57813561141c816113ed565b9261142a604051948561137d565b81845260208085019260051b8201019283116101ba57602001905b8282106114525750505090565b8135815260209182019101611445565b90602080835192838152019201905f5b81811061147f5750505090565b8251845260209384019390920191600101611472565b9060206114a6928181520190611462565b90565b346101ba5760403660031901126101ba5760043567ffffffffffffffff81116101ba576114da903690600401611405565b602435906114e7826101a9565b805160648110156101ba576114fb90612cc4565b915f5b8251811015611552578061151460019285612cf6565b515f908152602083815260408083206001600160a01b03871684526007019091529020546001600160801b031661154b8287612cf6565b52016114fe565b604051806103598682611495565b60603660031901126101ba5760043560243560443561157e816101a9565b5f838152600160205260409020600201546001600160a01b03166115bc57610e54925f52600160205260018060a01b03600260405f200154166137a5565b6115de925f52600160205260018060a01b03600260405f200154163390613826565b610e54565b346101ba5760203660031901126101ba57600435611600816101a9565b6040516394c3c33360e01b81523360048201526020816024817f00000000000000000000000000000000000000000000000000000000000000006001600160a01b03165afa801561038c576002915f91611667575b50036101ba5761034761035991612d1e565b611680915060203d60201161038557610377818361137d565b5f611655565b60603660031901126101ba5760043561169e816101a9565b604435906024356116b6600160ff1b84161515612adb565b6116ca6001600160801b0382163384612eef565b6116ec6116d56113b0565b3381526001600160a01b038416602082015261308f565b9161170a848284611705875f52600160205260405f2090565b61320f565b61172461171f845f52600160205260405f2090565b612ec0565b61174361172f61139f565b3381528460208201525f6040820152612f8c565b9161174d83613265565b9261176961175a82613265565b915f52600260205260405f2090565b557f00000000000000000000000000000000000000000000000000000000000000006001600160a01b031694853b156101ba576040516340c10f1960e01b815233600482015260248101859052955f908790604490829084905af192831561038c577f1c22db4272b2564e441961f166415a2651ae43c8d8992212cb4cac04e81f54cc9661043394611870575b5061183061180c865f52600360205260405f2090565b610daa5f8660801c9261181f8460801b90565b8b6001600160801b038a1692613896565b60405196879687926001600160801b039060a095929897969360c086019986526020860152166040840152600180851b0316606083015260808201520152565b806108095f61187e9361137d565b5f6117f6565b346101ba5760403660031901126101ba576004356024356118a4816101a9565b5f80516020614a0f8339815191525c6001600160a01b03166101ba57335f80516020614a0f8339815191525d60405163430c208160e01b8152336004820152602481018390526020816044815f6001600160a01b037f0000000000000000000000000000000000000000000000000000000000000000165af1801561038c57611934915f91611af3575b50612adb565b6001611948835f52600360205260405f2090565b01549161195d815f52600360205260405f2090565b546040805163b88e6d6360e01b81523360048201529491939190856024816001600160a01b037f0000000000000000000000000000000000000000000000000000000000000000165afa91821561038c57610359957f172f458c2c853ed38b0114381270db7647bc1f9b612a42852353261a7e3379be93611a7b925f925f92611abf575b506001600160a01b0381165f908152600460205260409020545f1901611ab9575081905b6001600160a01b0382811690821603611ab45750815b6001600160a01b0381165f908152600460205260409020545f1901611aad575b611a4d885f52600160205260405f2090565b91611a60865f52600160205260405f2090565b611a72895f52600360205260405f2090565b905f549461393a565b60408051958652602086019290925290840181905292606090a2611a9d612edd565b6040519081529081906020820190565b5081611a3b565b611a1b565b90611a05565b909250611ae4915060403d604011611aec575b611adc818361137d565b810190612d77565b90915f6119e1565b503d611ad2565b611b15915060203d602011611b1b575b611b0d818361137d565b810190612d62565b5f61192e565b503d611b03565b346101ba5760203660031901126101ba57610359600435611b41612d9c565b50611b54815f52600160205260405f2090565b5490611b6d600161050a835f52600160205260405f2090565b90611b85600261050a835f52600160205260405f2090565b611c24611b9f600361050a855f52600160205260405f2090565b611c146004611bb6865f52600160205260405f2090565b015493611c046006611be66005611bd58a5f52600160205260405f2090565b0154985f52600160205260405f2090565b015497611bf16113de565b998a526001600160a01b031660208a0152565b6001600160a01b03166040880152565b6001600160a01b03166060860152565b608084015260a083015260c08201526040519182918291909160c08060e08301948051845260018060a01b03602082015116602085015260018060a01b03604082015116604085015260018060a01b0360608201511660608501526080810151608085015260a081015160a08501520151910152565b60a03660031901126101ba57604435600435602435611cb883610447565b60843591606435611cc8846101a9565b5f80516020614a0f8339815191525c6001600160a01b03166101ba57611e1b90335f80516020614a0f8339815191525d611d88611d0d845f52600160205260405f2090565b7f000000000000000000000000000000000000000000000000000000000000000090611d5e6004611d46895f52600160205260405f2090565b0154916001600160801b038b1692838a86339461328f565b611d70875f52600160205260405f2090565b908633936004610fb3835f52600160205260405f2090565b6004611d9c845f52600160205260405f2090565b0154611db0845f52600160205260405f2090565b546004611dc5875f52600160205260405f2090565b0154611dd9875f52600160205260405f2090565b5491611de36113ce565b6001600160801b038b168152935f60208601525f60408601525f6060860152608085015260a084015260c083015260e0820152613a28565b928282141580612006575b611e2f90612adb565b611e41825f52600160205260405f2090565b54936020810151611e58906001600160801b031690565b946001600160801b03861661271060c59290921c607f1602049485611e7c91612b7c565b95611e8f855f52600160205260405f2090565b9160c08101519260408201938451611ead906001600160801b031690565b90611eb79261378b565b611ec9855f52600160205260405f2090565b876080830151611ed89261378b565b611eea865f52600160205260405f2090565b600201546001600160a01b0316835185906001600160801b0316611f0e9085612ca4565b6001600160801b031690611f21926137a5565b611f33855f52600160205260405f2090565b600201546001600160a01b03166001600160801b03891633611f5492612eef565b606001516001600160801b031691516001600160801b0316611f8291906001600160801b03169060801b1790565b604080513381526001600160a01b0390941660208501526001600160801b039283169084015260608301528416608086811b91909117908201527f3de590341c976ea6fce618ef4a768a15441201ad3ed7c9b438d82c3951de7ced9060a090a3611fea612edd565b604080516001600160801b039384168152919092166020820152f35b50611e2f61201e61117b86516001600160801b031690565b159050611e26565b346101ba5760603660031901126101ba576020612069600435602435604435915f5260018452600460405f200154905f5260018452600460405f20015490613c75565b6040519015158152f35b346101ba5760203660031901126101ba57600435612090816101a9565b6040516394c3c33360e01b81523360048201526020816024817f00000000000000000000000000000000000000000000000000000000000000006001600160a01b03165afa801561038c576002915f916120f7575b50036101ba5761034761035991612de3565b612110915060203d60201161038557610377818361137d565b5f6120e5565b60603660031901126101ba5760043560443560243561213482610447565b5f80516020614a0f8339815191525c6001600160a01b03166101ba57335f80516020614a0f8339815191525d612172835f52600160205260405f2090565b927f00000000000000000000000000000000000000000000000000000000000000006121ab6001600160801b0385169586833392613cc5565b6121b3612e29565b506122376122196121c2612e29565b956001606d1b6001600160801b036121ef8360046121e88a5f52600160205260405f2090565b0154612b7c565b161115806125e5575b806125aa575b61220790612adb565b610b5e855f52600160205260405f2090565b9533612232600261050a875f52600160205260405f2090565b612eef565b8215908115612495575b5061226161224d61139f565b338152836020820152846040820152612f8c565b94612274865f52600260205260405f2090565b549586156123f3575b50612290865f52600360205260405f2090565b94604082019283516122a8906001600160801b031690565b906122b38260801b90565b9060208501516122c9906001600160801b031690565b9887606087019a8b516122e2906001600160801b031690565b6122f891906001600160801b03169060801b1790565b60208701516001600160801b0316948b6060890196875161231f906001600160801b031690565b61233591906001600160801b03169060801b1790565b9361233f956138d3565b5f14610ded61239a7f54327712026ec7eff19c69f41b88780daaa74a97ae2dcfa56a1de52fb0e07fcd9a610cf7610ded610dd16123d49b6123a899610cf7986123df5750610b94610ded610daa83516001600160801b031690565b94516001600160801b031690565b91604051958695869192608093969594919660a084019784526020840152604083015260608201520152565b0390a2610e54612edd565b610ded6123ee610b9492612c71565b610daa565b95506123fe86613265565b957f00000000000000000000000000000000000000000000000000000000000000006001600160a01b031690813b156101ba576040516340c10f1960e01b815233600482015260248101899052915f908390604490829084905af190811561038c57889261247a92612481575b505f52600260205260405f2090565b555f61227d565b806108095f61248f9361137d565b5f61246b565b9361255a6125a392956124e060606124d060046124ba8a5f52600160205260405f2090565b015460408c01516001600160801b031690613d66565b6001600160801b03169401938452565b61252c61251f6124f8885f52600160205260405f2090565b5461250d61117b87516001600160801b031690565b603f6127109260d91c16820390040290565b6001600160801b03168452565b61253e865f52600160205260405f2090565b339161255461117b86516001600160801b031690565b91613cc5565b612588612574600261050a875f52600160205260405f2090565b61118761117b84516001600160801b031690565b61259d610ded855f52600160205260405f2090565b906130bf565b925f612241565b506125c0610e8d865f52600160205260405f2090565b806121fe57506122076125de610e8d885f52600160205260405f2090565b90506121fe565b50858514156121f8565b346101ba5760603660031901126101ba5760043560243561260f81610447565b60443561261b816101a9565b5f80516020614a0f8339815191525c6001600160a01b03166101ba57335f80516020614a0f8339815191525d60405163430c208160e01b8152336004820152602481018490526020816044815f6001600160a01b037f0000000000000000000000000000000000000000000000000000000000000000165af1801561038c576126aa915f91611af35750612adb565b6126b2612e5e565b506126bb612e5e565b506126ce835f52600360205260405f2090565b5460016126e3855f52600360205260405f2090565b01546040805163b88e6d6360e01b8152336004820152919391907f000000000000000000000000000000000000000000000000000000000000000090826024816001600160a01b0385165afa801561038c577f4741de4d43f1462a092cdf2a25cfc5d5bdf2c96f169d5e64121e800b6fc417ee968589886128596128769761285e966123d49a5f925f92612940575b506001600160a01b0381165f908152600460205260409020545f190161293857905b6001600160a01b03828116908216036129335750815b6001600160a01b0381165f908152600460205260409020545f1901612916576128036127f46127e561284493995f52600160205260405f2090565b965f52600160205260405f2090565b965f52600360205260405f2090565b966128345f54936128246128156113bf565b6001600160801b03909c168c52565b6001600160a01b031660208b0152565b6001600160a01b03166040890152565b60608701526001600160a01b03166080860152565b613de7565b909391928188612900575b5081610cc1913390612f2a565b916128d06128a461289160208501516001600160801b031690565b60408501516001600160801b0316610cf7565b91610cf7610ded6128c261289160208501516001600160801b031690565b95516001600160801b031690565b92604051968796879260a094919796959260c0850198855260208501526040840152606083015260808201520152565b610cc191925061290f90612c71565b9190612869565b506128446128036127f46127e585995f52600160205260405f2090565b6127aa565b508190612794565b90925061295c915060403d604011611aec57611adc818361137d565b90915f612772565b346101ba5760203660031901126101ba5760043567ffffffffffffffff81116101ba57612995903690600401611405565b6129ab81516129a660648210612adb565b612cc4565b5f5b8251811015612aa957600190612a0461117b6129f73360076129e16129d2878b612cf6565b515f52600160205260405f2090565b019060018060a01b03165f5260205260405f2090565b546001600160801b031690565b612a0e8285612cf6565b526002612a1b8285612cf6565b511015612a35575f612a2d8285612cf6565b525b016129ad565b612a48612a428285612cf6565b51612e8d565b612a528285612cf6565b52612a7c612a693360076129e16129d2868a612cf6565b80546001600160801b0319166001179055565b612aa4612a91600261050a6129d28589612cf6565b612a9b8386612cf6565b519033906137a5565b612a2f565b507f8124a8d085ceb98e89ac6906c6e138dca5fdbc28a91438e33d7a2ab6c75742fd916102c060405192839283612e9b565b156101ba57565b908160209103126101ba575190565b6040513d5f823e3d90fd5b90815f52600160205260405f209160018060df1b038354168260df1b8101809111612b68577f5af113730f9ee4153f120c893809feafa233584bbe5e93b5d78e0699c9c8ca569355612b606040519283928360209093929193604081019481520152565b0390a1600190565b634e487b7160e01b5f52601160045260245ffd5b906001600160801b03809116911601906001600160801b03821161044257565b90604051612ba98161135c565b608060048294805484526001810154602085015260028101546040850152600381015460608501520154910152565b5f818152600160208190526040918290200180546001600160a01b0319166001600160a01b0385161790557f0dccb79e09923e42093e54de6132ceba9b88b094d10632520f6eeb8058a6721c9290919082519182526001600160a01b03166020820152a1565b60207fbd209961024f2694b0afb3c8badd20b6477abb77b336b16892c3fa4b906d323c91805f55604051908152a1600190565b60011b907001fffffffffffffffffffffffffffffffe6ffffffffffffffffffffffffffffffffe83169216820361044257565b906001600160801b03809116911603906001600160801b03821161044257565b90612cce826113ed565b612cdb604051918261137d565b8281528092612cec601f19916113ed565b0190602036910137565b8051821015612d0a5760209160051b010190565b634e487b7160e01b5f52603260045260245ffd5b60207e4ba2ca448db089eb9fb0b25431f0d57664d46141171fed2476281b578d96d49160018060a01b0316805f52600482525f6040812055604051908152a1600190565b908160209103126101ba57516114a681610ea0565b91908260409103126101ba5760208251612d90816101a9565b9201516114a6816101a9565b6040519060e0820182811067ffffffffffffffff821117611378576040525f60c0838281528260208201528260408201528260608201528260808201528260a08201520152565b60207f8e1c2d1a5dce36a56a9dfcb96e5816e793c16d6c897b4e3c0b1f99588bb88a1c9160018060a01b0316805f5260048252600160405f2055604051908152a1600190565b604051906080820182811067ffffffffffffffff821117611378576040525f6060838281528260208201528260408201520152565b604051906060820182811067ffffffffffffffff821117611378576040525f6040838281528260208201520152565b5f1981019190821161044257565b9091612eb26114a693604084526040840190611462565b916020818403910152611462565b80546001600160df1b0316600160ff1b8101919082106104425755565b5f5f80516020614a0f8339815191525d565b6113ae92913091613826565b610cf790612f108360801d8260801d01614362565b926001600160801b0316906001600160801b031601614362565b6001600160a01b031691823b156101ba57604051637bd3ca3560e01b81526001600160a01b039290921660048301526001600160801b03166024820152905f908290604490829084905af1801561038c57612f825750565b5f6113ae9161137d565b6040516040602082019260018060a01b0381511684526020810151828401520151606082015260608152612fc160808261137d565b51902090565b60405163067e356d60e21b81526001600160a01b0392831660048201526001600160801b03939093166024840152602091839160449183915f91165af190811561038c575f91613015575090565b90506020813d602011613042575b816130306020938361137d565b810103126101ba57516114a681610447565b3d9150613023565b600461308b91600281016130648154600287015490612efb565b90556003810161307a8154600387015490612efb565b905501916004835491015490612efb565b9055565b6040805182516001600160a01b039081166020808401918252909401511681830152908152612fc160608261137d565b9190916130ca612e29565b9281546001600160801b0382166130eb9190603f6127109260d91c16020490565b6001600160801b031680855261310091612ca4565b6001600160801b03166060840190815260048201805482516001600160801b031661312a91614381565b6001600160801b0316604086019081529160068401805461314b8160801c90565b9560050195865461316891906001600160801b03169060801b1790565b83516001600160801b031661317c91614381565b6001600160801b03166020890190815288516001600160801b031681516001600160801b03166131ab91612b7c565b90516001600160801b031660809190911b176131c691612efb565b9055815492516001600160801b031690516001600160801b03166131f691906001600160801b03169060801b1790565b918261320191612efb565b905581549061308b91612efb565b6004810182905560058101919091556001600160df1b0390921682556002820180546001600160a01b0319166001600160a01b039092169190911790556113ae9060010180546001600160a01b03191633179055565b60408051602081019283523091810191909152426060808301919091528152612fc160808261137d565b9394919091600160e21b8554166132a9575b505050505050565b8461331c5f9260046132c6600360209a015460018060a01b031690565b930154604051635eb77ef360e11b81526001600160a01b039485166004820152602481019690965260448601979097526064850196909652608484019790975290931660a48201529384928391829060c4820190565b03926001600160a01b03165af190811561038c575f91613347575b506101ba575f80808080806132a1565b613360915060203d602011611b1b57611b0d818361137d565b5f613337565b9394919091600160e11b85541661337f57505050505050565b8461331c5f92600461339c600360209a015460018060a01b031690565b93015460405163010be28560e61b81526001600160a01b039485166004820152602481019690965260448601979097526064850196909652608484019790975290931660a48201529384928391829060c4820190565b60405190610100820182811067ffffffffffffffff821117611378576040525f60e0838281528260208201528260408201528260608201528260808201528260a08201528260c08201520152565b6134486133f2565b5060808101918251906134696134658260c0860194855190613c75565b1590565b6137845760a083019061349a825161348b61117b87516001600160801b031690565b607f6127109260c51c16020490565b6001600160801b03166040850181815291906134d6906134c99087516001600160801b0316612ca4565b612ca4565b6001600160801b03168652565b6134ea61117b86516001600160801b031690565b151580613770575b156136d65761350d8351613507885160801c90565b906143d0565b60e08601906001600160801b0361352d61117b84516135078a5160801c90565b9116106136bd5761354761364d9151613507875160801c90565b87516135538282613d66565b9061356589516001600160801b031690565b906001600160801b0383166001600160801b038316115f14613652575050806135ac61359f613604936134c48c516001600160801b031690565b6001600160801b03168a52565b6135e56135ba848a51613d66565b6135d860208c01916135d383516001600160801b031690565b612b7c565b6001600160801b03169052565b6135fe8a519184906001600160801b03169060801b1790565b906143f1565b8852613631865161362b6136188483613d66565b84906001600160801b03169060801b1790565b90614406565b86525b6135d860608801916135d383516001600160801b031690565b6134d6565b90915061365f9250614381565b61368661366d828851613d66565b6135d860208a01916135d383516001600160801b031690565b61369f88516135fe6136188a516001600160801b031690565b88526136b3865161362b6136188483613d66565b86525f8752613634565b5061364d6136d18451613507895160801c90565b613547565b5091509192506136f061117b84516001600160801b031690565b91826136fd575b50505090565b61373061375b926135d861372061376896855190607f6127109260c51c16020490565b82516001600160801b0316612ca4565b5161375561374585516001600160801b031690565b916001600160801b03831661348b565b90612b7c565b6001600160801b03168252565b5f80806136f7565b5061377f818751865190613c75565b6134f2565b5050905090565b60069061308b926004820155019182549060801b90612efb565b9091906001600160a01b0381166137db57505f808080936137c6955af11590565b6137cc57565b633d2cec6f60e21b5f5260045ffd5b60445f8080936020956040519763a9059cbb60e01b84526004526024525af13d15601f3d1160015f5114161716905f6060526040521561381757565b633c9fd93960e21b5f5260045ffd5b90916001600160a01b0382166138415750505034036137cc57565b6040516323b872dd60e01b81526001600160a01b039384166004820152921660248301526044820192909252613890916020915f916064919083905af15f51600114601f3d11163d1517161590565b61381757565b935061308b92916138c4600260038701968754946001600160801b038616156138cb575b5001918254612efb565b9055612efb565b81555f6138ba565b9361390e9193929360038601938454916001600160801b03831615613932575b508515159586613927575b506138c460028801918254612efb565b9055613918575050565b600461308b9101918254612efb565b60018801555f6138fe565b87555f6138f3565b94939092969591966006860195838383888a548d60058701546001600160801b03166001600160801b03198316179060030154908161397891614381565b9060801c61398591612ca4565b9b8c91826001600160801b031661399b91612efb565b90556139a695614435565b60068401805460058601549196916001600160801b03166001600160801b031982161760048b015490816139d991614381565b9060801c6139e691612ca4565b9687916001600160801b0383166139fc91612efb565b9055613a0795614435565b613a1d91906001600160801b03169060801b1790565b91826113ae916148dc565b613a306133f2565b5060808101805192613a498160c0850195865190613c75565b6137845760e0830190613a7e613a6e83516110ce61117b88516001600160801b031690565b6001600160801b03166040860152565b613a9261117b85516001600160801b031690565b151580613c4e575b15613c465760a08401613ab38151613507865160801c90565b6001600160801b03613ace61117b86516135078b5160801c90565b911610613c2e5750613bbe613ae98351613507885160801c90565b8651613af58282613d66565b90613b0788516001600160801b031690565b906001600160801b0383166001600160801b038316115f14613bc357505080613b4e613b41613b8e936134c48b516001600160801b031690565b6001600160801b03168952565b613b75613b5c848951613d66565b6135d860208b01916135d383516001600160801b031690565b61362b89519184906001600160801b03169060801b1790565b8752613ba285516135fe6136188483613d66565b85525b6135d860608701916135d383516001600160801b031690565b613a7e565b909150613bd09250614381565b613bf7613bde828751613d66565b6135d860208901916135d383516001600160801b031690565b613c10875161362b61361889516001600160801b031690565b8752613c2485516135fe6136188483613d66565b85525f8652613ba5565b613c41613bbe9151613507865160801c90565b613ae9565b505050905090565b50613c5d818451875190613c75565b613a9a565b8181029291811591840414171561044257565b91613cac613cb692936001600160801b03613ca1613c988288168460801c613c62565b82861690613c62565b9560801c9116613c62565b9060801c90613c62565b1015613cc157600190565b5f90565b90600160e01b825416613cd9575b50505050565b6003820154600492830154604051632023707d60e01b81526001600160a01b039283169481019490945260248401949094526044830193909352928216606482015291602091839160849183915f91165af190811561038c575f91613d47575b506101ba575f808080613cd3565b613d60915060203d602011611b1b57611b0d818361137d565b5f613d39565b906114a6916001600160801b03808260801c931691160204614362565b15613d8a57565b606460405162461bcd60e51b81526020600482015260046024820152634730313160e01b6044820152fd5b15613dbc57565b606460405162461bcd60e51b81526020600482015260046024820152632398189960e11b6044820152fd5b91939092613df3612e5e565b50613dfc612e5e565b93613e0b600287015460801c90565b6003870154969060801b6001600160801b0388161794613ebf613e3f613e3886516001600160801b031690565b8098614381565b96613eaf613e8582613e75613e7a82613e75613e5f60068b015460801c90565b60058b01546001600160801b03169060801b1790565b614381565b9d610b948160801c90565b613e9f613e9061139f565b6001600160801b03909d168d52565b6001600160801b031660208c0152565b6001600160801b031660408a0152565b61404a602089613ef38454613ed981600160ff1b16151590565b908115614351575b8161432a575b816142f4575b50613d83565b613f2b60048501805490613f1f613f188d610cf760408801516001600160801b031690565b809361492f565b9055600586015461492f565b6005850155613f8961375b6006860154613f4c84516001600160801b031690565b613f7a613f62878701516001600160801b031690565b92608083901b6001600160801b038516175b9061492f565b60068901556134c48d8a614944565b613fc6613fb78554613fa861117b60408601516001600160801b031690565b603f6127109260d31c16020490565b6001600160801b031682840152565b61403c613fda82516001600160801b031690565b6060890151848a01516001600160a01b031660408b01516001600160a01b031660808c01519091906001600160a01b03169261403561402360408901516001600160801b031690565b888a01516001600160801b03166111e0565b948a61473c565b01516001600160801b031690565b6001600160801b0381166142d6575b5050600181015461406957505050565b6113ae92955061410d61409d86613e75614087600687015460801c90565b60058701546001600160801b03169060801b1790565b916140fd6140d2886140cd6004850154610b9460026140c485613e7585610b948160801c90565b97015460801c90565b613d66565b916140ed6140de61139f565b6001600160801b039096168652565b6001600160801b03166020850152565b6001600160801b03166040830152565b809561418e835461414b60048601549161413361117b61412d8560801c90565b83614919565b6001600160801b038b161090816142a2575b50613db5565b61417f61417861416560408701516001600160801b031690565b8a906001600160801b03169060801b1790565b809261492f565b6004860155600585015461492f565b60058401556141dd6141d060068501546141af85516001600160801b031690565b6141c6613f6260208801516001600160801b031690565b6006880155612ca4565b6001600160801b03168352565b61420c6141fc8454613fa861117b60408701516001600160801b031690565b6001600160801b03166020840152565b60208201516001600160801b031680614286575b82516001600160801b031660608301516020840151909190614280906001600160a01b0316936134c460406142716080614262838b015160018060a01b031690565b9901516001600160a01b031690565b9801516001600160801b031690565b9561473c565b614298600685015461054d8360801b90565b6006850155614220565b90506001600160801b036142cd61117b856142c760408b01516001600160801b031690565b94614919565b9116105f614145565b6142ea60069161054d838501549160801b90565b9101555f80614059565b90506001600160801b0361432161117b6143158c516001600160801b031690565b9360048a015490614919565b9116105f613eed565b905061434061117b61412d600489015460801c90565b6001600160801b038c161090613ee7565b8854600160ff1b1615159150613ee1565b6001600160801b03811161437c576001600160801b031690565b505f90565b906114a6916001600160801b0380821692169060801c0204614362565b906001600160801b03169081156143bc576001600160801b03160490565b634e487b7160e01b5f52601260045260245ffd5b60bb1c6103ff8116156143ed5760061b61ffc0166114a69161439e565b5090565b610cf790612f108360801d8260801d03614362565b610cf79061441b8360801d8260801d01614362565b926001600160801b0316906001600160801b031603614362565b929390929161445a606460dd83901c601f166001600160801b03871602048095612ca4565b906001600160801b0382169361447785839060649160fa1c020490565b91606460f482901c603f16870204946144b5606460ee84901c603f1689020497606460e885901c603f168202045b9390603f60649260e21c16020490565b966001600160a01b03821690816145ce575050505060028101546001600160a01b03166144e25f84612b7c565b6001600160801b0316336144f5926137a5565b6144ff8585612b7c565b906007019661451e90889060018060a01b03165f5260205260405f2090565b908154614531906001600160801b031690565b9061453b91612b7c565b81546001600160801b0319166001600160801b0390911617905561455e91612ca4565b9061456891612ca4565b9061457291612ca4565b9061457c91612b7c565b6001600160a01b039092165f908152602091909152604090209081546145a8906001600160801b031690565b906145b291612b7c565b81546001600160801b0319166001600160801b03909116179055565b6135d39650986113ae9b60029486945f9a61050a9561117b9d9a9f9e6146f99f61460460016146f39d015460018060a01b031690565b6001600160a01b038881169591908c908216871461472a5761464061466c9392600761465293019060018060a01b03165f5260205260405f2090565b916135d383546001600160801b031690565b6001600160801b03166001600160801b0319825416179055565b6001600160a01b0381168414158f14614719576001600160a01b03165f90815260078a01602052604090206146a5919061465290614640565b14158b1461470157916146d8614640926146526146406146529660078b019060018060a01b03165f5260205260405f2090565b6001600160a01b03165f908152600786016020526040902090565b95612b7c565b9033906137a5565b50614713614640916146529394612b7c565b926146d8565b506147249196612b7c565b946146a5565b50506147369198612b7c565b9661466c565b94959294909391614763606460dd83901c601f166001600160801b03881602048096612ca4565b916001600160801b0383169461478086849060649160fa1c020490565b92606460f482901c603f16880204956147b2606460ee84901c603f168a020498606460e885901c603f168202046144a5565b976001600160a01b03821690816147e0575050505060028201546001600160a01b0316906144e29084612b7c565b6135d397509b859361050a936002969a6113ae9f9461117b9d9a9f956146f99f9661481760016146f39d015460018060a01b031690565b6001600160a01b038881169591908c90821687146148ca576146406148539392600761465293019060018060a01b03165f5260205260405f2090565b6001600160a01b03811684146148b9576001600160a01b03165f90815260078a0160205260409020614889919061465290614640565b1461470157916146d8614640926146526146406146529660078b019060018060a01b03165f5260205260405f2090565b506148c49196612b7c565b94614889565b50506148d69198612b7c565b96614853565b600381016148f681546001600160801b0319851690612efb565b90556001810154614905575050565b600461308b91019182549060801b90612efb565b60b11c6103ff1680156143ed576114a69161439e565b610cf79061441b8360801d8260801d03614362565b9061308b90600383016149b58154946001600160801b036149658760801c90565b916149a06002820198610cf78461497d8c5460801c90565b81614997818d16998a998a94169a8b958692160204614362565b94160204614362565b9260018201546149c2575b505050825461492f565b905582549060801b613f74565b613f746004614a04930193610cf78554936149f281846001600160801b036149ea8960801c90565b160204614362565b926001600160801b0386160204614362565b90555f80806149ab56fecfdbe78f31bc5efa50605e8b11a7b6843971370ea97eb24de6e1a1eb9d235645a264697066735822122077ac83200ec0ff85e15ab3c842dfcb5382d1870a619045cf90ee06a6a1f15f9464736f6c634300081a0033",
    "sourcePath": "/Users/admin/workspace/50Self_project/ttswap-core/src/TTSwap_Market.sol",
    "compiler": {
        "name": "solc",
        "version": "0.8.26+commit.8a97fa7a"
    },
    "functionHashes": {
        "addbanlist(address)": "b153b920",
        "banlist(address)": "2973ada7",
        "buyGood(uint256,uint256,uint128,uint256,bool,address)": "578496ab",
        "buyGoodForPay(uint256,uint256,uint128,uint256,address)": "a7e11697",
        "changeGoodOwner(uint256,address)": "2a7c5a91",
        "collectCommission(uint256[])": "f88c3010",
        "collectProof(uint256,address)": "a676a600",
        "delproofdata(uint256,address,address)": "1faa5a56",
        "disinvestProof(uint256,uint128,address)": "f4662f20",
        "getGoodState(uint256)": "a6f6a980",
        "getProofState(uint256)": "3f117740",
        "goodWelfare(uint256,uint128)": "18ad50d1",
        "initGood(uint256,uint256,address,uint256)": "4ffef907",
        "initMetaGood(address,uint256,uint256)": "97924ead",
        "investGood(uint256,uint256,uint128)": "f44733ad",
        "ishigher(uint256,uint256,uint256)": "a7fed925",
        "marketconfig()": "402f5ab5",
        "modifyGoodConfig(uint256,uint256)": "0e21a1ac",
        "payGood(uint256,uint256,address)": "920acbb8",
        "proofmapping(uint256)": "5e008cc4",
        "queryCommission(uint256[],address)": "6ff73c8e",
        "removebanlist(address)": "9551177a",
        "setGoodTrigger(uint256,address,uint256)": "06e27369",
        "setMarketConfig(uint256)": "45818e4c",
        "updateGoodConfig(uint256,uint256)": "144aeb83"
    },
    "gasEstimates": {
        "creation": {
            "codeDepositCost": "3808800",
            "executionCost": "infinite",
            "totalCost": "infinite"
        },
        "external": {
            "addbanlist(address)": "infinite",
            "banlist(address)": "2517",
            "buyGood(uint256,uint256,uint128,uint256,bool,address)": "infinite",
            "buyGoodForPay(uint256,uint256,uint128,uint256,address)": "infinite",
            "changeGoodOwner(uint256,address)": "infinite",
            "collectCommission(uint256[])": "infinite",
            "collectProof(uint256,address)": "infinite",
            "delproofdata(uint256,address,address)": "infinite",
            "disinvestProof(uint256,uint128,address)": "infinite",
            "getGoodState(uint256)": "infinite",
            "getProofState(uint256)": "infinite",
            "goodWelfare(uint256,uint128)": "infinite",
            "initGood(uint256,uint256,address,uint256)": "infinite",
            "initMetaGood(address,uint256,uint256)": "infinite",
            "investGood(uint256,uint256,uint128)": "infinite",
            "ishigher(uint256,uint256,uint256)": "infinite",
            "marketconfig()": "2435",
            "modifyGoodConfig(uint256,uint256)": "infinite",
            "payGood(uint256,uint256,address)": "infinite",
            "proofmapping(uint256)": "2589",
            "queryCommission(uint256[],address)": "infinite",
            "removebanlist(address)": "infinite",
            "setGoodTrigger(uint256,address,uint256)": "54945",
            "setMarketConfig(uint256)": "infinite",
            "updateGoodConfig(uint256,uint256)": "28113"
        }
    }
}