{
    "contractName": "TTSwap_MainTrigger",
    "abi": [
        {
            "inputs": [
                {
                    "internalType": "address",
                    "name": "_officialToken",
                    "type": "address"
                }
            ],
            "stateMutability": "nonpayable",
            "type": "constructor"
        },
        {
            "inputs": [
                {
                    "internalType": "address",
                    "name": "triggercontract",
                    "type": "address"
                },
                {
                    "internalType": "uint256",
                    "name": "divestquanity",
                    "type": "uint256"
                },
                {
                    "internalType": "uint256",
                    "name": "currentstate",
                    "type": "uint256"
                },
                {
                    "internalType": "address",
                    "name": "recipent",
                    "type": "address"
                }
            ],
            "name": "main_divest",
            "outputs": [
                {
                    "internalType": "bool",
                    "name": "",
                    "type": "bool"
                }
            ],
            "stateMutability": "nonpayable",
            "type": "function"
        },
        {
            "inputs": [
                {
                    "internalType": "address",
                    "name": "triggercontract",
                    "type": "address"
                },
                {
                    "internalType": "uint256",
                    "name": "investquanity",
                    "type": "uint256"
                },
                {
                    "internalType": "uint256",
                    "name": "currentstate",
                    "type": "uint256"
                },
                {
                    "internalType": "address",
                    "name": "recipent",
                    "type": "address"
                }
            ],
            "name": "main_invest",
            "outputs": [
                {
                    "internalType": "bool",
                    "name": "",
                    "type": "bool"
                }
            ],
            "stateMutability": "nonpayable",
            "type": "function"
        },
        {
            "inputs": [
                {
                    "internalType": "address",
                    "name": "triggercontract",
                    "type": "address"
                },
                {
                    "internalType": "uint256",
                    "name": "opgood",
                    "type": "uint256"
                },
                {
                    "internalType": "uint256",
                    "name": "trade",
                    "type": "uint256"
                },
                {
                    "internalType": "uint256",
                    "name": "currentstate",
                    "type": "uint256"
                },
                {
                    "internalType": "uint256",
                    "name": "opstate",
                    "type": "uint256"
                },
                {
                    "internalType": "address",
                    "name": "recipent",
                    "type": "address"
                }
            ],
            "name": "main_swapmake",
            "outputs": [
                {
                    "internalType": "bool",
                    "name": "",
                    "type": "bool"
                }
            ],
            "stateMutability": "nonpayable",
            "type": "function"
        },
        {
            "inputs": [
                {
                    "internalType": "address",
                    "name": "triggercontract",
                    "type": "address"
                },
                {
                    "internalType": "uint256",
                    "name": "opgood",
                    "type": "uint256"
                },
                {
                    "internalType": "uint256",
                    "name": "trade",
                    "type": "uint256"
                },
                {
                    "internalType": "uint256",
                    "name": "currentstate",
                    "type": "uint256"
                },
                {
                    "internalType": "uint256",
                    "name": "opstate",
                    "type": "uint256"
                },
                {
                    "internalType": "address",
                    "name": "recipent",
                    "type": "address"
                }
            ],
            "name": "main_swaptake",
            "outputs": [
                {
                    "internalType": "bool",
                    "name": "",
                    "type": "bool"
                }
            ],
            "stateMutability": "nonpayable",
            "type": "function"
        },
        {
            "inputs": [],
            "name": "officialMarket",
            "outputs": [
                {
                    "internalType": "address",
                    "name": "",
                    "type": "address"
                }
            ],
            "stateMutability": "view",
            "type": "function"
        },
        {
            "inputs": [],
            "name": "officialToken",
            "outputs": [
                {
                    "internalType": "address",
                    "name": "",
                    "type": "address"
                }
            ],
            "stateMutability": "view",
            "type": "function"
        },
        {
            "inputs": [
                {
                    "internalType": "address",
                    "name": "_officialMarket",
                    "type": "address"
                }
            ],
            "name": "setofficialMarket",
            "outputs": [],
            "stateMutability": "nonpayable",
            "type": "function"
        }
    ],
    "bytecode": "60a034606b57601f61047338819003918201601f19168301916001600160401b03831184841017606f57808492602094604052833981010312606b57516001600160a01b0381168103606b576080526040516103ef908161008482396080518181816082015260dd0152f35b5f80fd5b634e487b7160e01b5f52604160045260245ffdfe6080806040526004361015610012575f80fd5b5f3560e01c908162d687e914610208575080632023707d1461014c578063222419a914610125578063317b9384146100b557806342f8a14014610068578063682bae511461006d5763bd6efde614610068575f80fd5b6102a2565b346100b1575f3660031901126100b1576040517f00000000000000000000000000000000000000000000000000000000000000006001600160a01b03168152602090f35b5f80fd5b346100b15760203660031901126100b1576004356001600160a01b038116908190036100b1577f00000000000000000000000000000000000000000000000000000000000000006001600160a01b031633036100b1576bffffffffffffffffffffffff60a01b5f5416175f555f80f35b346100b1575f3660031901126100b1575f546040516001600160a01b039091168152602090f35b346100b15761015a36610264565b5f54919390916001600160a01b031633036100b1576040516319ce0a8b60e31b8152600481019390935260248301939093526001600160a01b03166044820152906020908290815f81606481015b03926001600160a01b03165af180156101fd576020915f916101d0575b506040519015158152f35b6101f09150823d84116101f6575b6101e8818361036b565b8101906103a1565b826101c5565b503d6101de565b6040513d5f823e3d90fd5b346100b15761021636610264565b5f5490939192906001600160a01b031633036100b15763bf2f96c160e01b8552600485015260248401919091526001600160a01b0390911660448301526020908290815f81606481016101a8565b60809060031901126100b1576004356001600160a01b03811681036100b1579060243590604435906064356001600160a01b03811681036100b15790565b346100b15760c03660031901126100b1576004356001600160a01b038116908181036100b157506064359060443560a4356001600160a01b0381169060243590608435908381036100b157505f546001600160a01b031633036100b15760209460a4935f92604051988997889663e12950a960e01b8852600488015260248701526044860152606485015260848401525af180156101fd576020915f9161034e57506040519015158152f35b6103659150823d84116101f6576101e8818361036b565b5f6101c5565b90601f8019910116810190811067ffffffffffffffff82111761038d57604052565b634e487b7160e01b5f52604160045260245ffd5b908160209103126100b1575180151581036100b1579056fea264697066735822122088623ec8f4249b988e3c2583feb94d517fba27646c127694f71567eab1f652eb64736f6c634300081a0033",
    "sourcePath": "/Users/admin/workspace/50Self_project/ttswap-core/src/TTSwap_MainTrigger.sol",
    "compiler": {
        "name": "solc",
        "version": "0.8.26+commit.8a97fa7a"
    },
    "functionHashes": {
        "main_divest(address,uint256,uint256,address)": "00d687e9",
        "main_invest(address,uint256,uint256,address)": "2023707d",
        "main_swapmake(address,uint256,uint256,uint256,uint256,address)": "42f8a140",
        "main_swaptake(address,uint256,uint256,uint256,uint256,address)": "bd6efde6",
        "officialMarket()": "222419a9",
        "officialToken()": "682bae51",
        "setofficialMarket(address)": "317b9384"
    },
    "gasEstimates": {
        "creation": {
            "codeDepositCost": "201400",
            "executionCost": "infinite",
            "totalCost": "infinite"
        },
        "external": {
            "main_divest(address,uint256,uint256,address)": "infinite",
            "main_invest(address,uint256,uint256,address)": "infinite",
            "main_swapmake(address,uint256,uint256,uint256,uint256,address)": "infinite",
            "main_swaptake(address,uint256,uint256,uint256,uint256,address)": "infinite",
            "officialMarket()": "2323",
            "officialToken()": "infinite",
            "setofficialMarket(address)": "infinite"
        }
    }
}