{
    "contractName": "TTSwap_Token",
    "abi": [
        {
            "inputs": [
                {
                    "internalType": "address",
                    "name": "_usdt",
                    "type": "address"
                },
                {
                    "internalType": "address",
                    "name": "_dao_admin",
                    "type": "address"
                },
                {
                    "internalType": "uint256",
                    "name": "_ttsconfig",
                    "type": "uint256"
                }
            ],
            "stateMutability": "nonpayable",
            "type": "constructor"
        },
        {
            "inputs": [],
            "name": "InvalidShortString",
            "type": "error"
        },
        {
            "inputs": [
                {
                    "internalType": "string",
                    "name": "str",
                    "type": "string"
                }
            ],
            "name": "StringTooLong",
            "type": "error"
        },
        {
            "anonymous": false,
            "inputs": [
                {
                    "indexed": true,
                    "internalType": "address",
                    "name": "owner",
                    "type": "address"
                },
                {
                    "indexed": true,
                    "internalType": "address",
                    "name": "spender",
                    "type": "address"
                },
                {
                    "indexed": false,
                    "internalType": "uint256",
                    "name": "value",
                    "type": "uint256"
                }
            ],
            "name": "Approval",
            "type": "event"
        },
        {
            "anonymous": false,
            "inputs": [],
            "name": "EIP712DomainChanged",
            "type": "event"
        },
        {
            "anonymous": false,
            "inputs": [
                {
                    "indexed": true,
                    "internalType": "address",
                    "name": "from",
                    "type": "address"
                },
                {
                    "indexed": true,
                    "internalType": "address",
                    "name": "to",
                    "type": "address"
                },
                {
                    "indexed": false,
                    "internalType": "uint256",
                    "name": "value",
                    "type": "uint256"
                }
            ],
            "name": "Transfer",
            "type": "event"
        },
        {
            "anonymous": false,
            "inputs": [
                {
                    "indexed": false,
                    "internalType": "address",
                    "name": "recipient",
                    "type": "address"
                },
                {
                    "indexed": false,
                    "internalType": "uint256",
                    "name": "leftamount",
                    "type": "uint256"
                },
                {
                    "indexed": false,
                    "internalType": "uint120",
                    "name": "metric",
                    "type": "uint120"
                },
                {
                    "indexed": false,
                    "internalType": "uint8",
                    "name": "chips",
                    "type": "uint8"
                },
                {
                    "indexed": false,
                    "internalType": "uint32",
                    "name": "index",
                    "type": "uint32"
                }
            ],
            "name": "e_addShare",
            "type": "event"
        },
        {
            "anonymous": false,
            "inputs": [
                {
                    "indexed": false,
                    "internalType": "address",
                    "name": "auths",
                    "type": "address"
                },
                {
                    "indexed": false,
                    "internalType": "uint256",
                    "name": "priv",
                    "type": "uint256"
                }
            ],
            "name": "e_addauths",
            "type": "event"
        },
        {
            "anonymous": false,
            "inputs": [
                {
                    "indexed": false,
                    "internalType": "address",
                    "name": "users",
                    "type": "address"
                },
                {
                    "indexed": false,
                    "internalType": "address",
                    "name": "referral",
                    "type": "address"
                }
            ],
            "name": "e_addreferral",
            "type": "event"
        },
        {
            "anonymous": false,
            "inputs": [
                {
                    "indexed": false,
                    "internalType": "uint32",
                    "name": "index",
                    "type": "uint32"
                }
            ],
            "name": "e_burnShare",
            "type": "event"
        },
        {
            "anonymous": false,
            "inputs": [
                {
                    "indexed": false,
                    "internalType": "uint256",
                    "name": "usdtamount",
                    "type": "uint256"
                },
                {
                    "indexed": false,
                    "internalType": "uint256",
                    "name": "ttsamount",
                    "type": "uint256"
                }
            ],
            "name": "e_publicsell",
            "type": "event"
        },
        {
            "anonymous": false,
            "inputs": [
                {
                    "indexed": false,
                    "internalType": "address",
                    "name": "auths",
                    "type": "address"
                }
            ],
            "name": "e_rmauths",
            "type": "event"
        },
        {
            "anonymous": false,
            "inputs": [
                {
                    "indexed": false,
                    "internalType": "address",
                    "name": "recipient",
                    "type": "address"
                }
            ],
            "name": "e_setdaoadmin",
            "type": "event"
        },
        {
            "anonymous": false,
            "inputs": [
                {
                    "indexed": false,
                    "internalType": "uint256",
                    "name": "normalgoodid",
                    "type": "uint256"
                },
                {
                    "indexed": false,
                    "internalType": "uint256",
                    "name": "valuegoodid",
                    "type": "uint256"
                },
                {
                    "indexed": false,
                    "internalType": "address",
                    "name": "marketcontract",
                    "type": "address"
                }
            ],
            "name": "e_setenv",
            "type": "event"
        },
        {
            "anonymous": false,
            "inputs": [
                {
                    "indexed": false,
                    "internalType": "uint128",
                    "name": "mintamount",
                    "type": "uint128"
                },
                {
                    "indexed": false,
                    "internalType": "uint32",
                    "name": "index",
                    "type": "uint32"
                }
            ],
            "name": "e_shareMint",
            "type": "event"
        },
        {
            "anonymous": false,
            "inputs": [
                {
                    "indexed": false,
                    "internalType": "uint32",
                    "name": "chain",
                    "type": "uint32"
                },
                {
                    "indexed": false,
                    "internalType": "uint128",
                    "name": "poolasset",
                    "type": "uint128"
                },
                {
                    "indexed": false,
                    "internalType": "uint256",
                    "name": "proofstate",
                    "type": "uint256"
                }
            ],
            "name": "e_syncChainStake",
            "type": "event"
        },
        {
            "anonymous": false,
            "inputs": [
                {
                    "indexed": false,
                    "internalType": "address",
                    "name": "recipient",
                    "type": "address"
                },
                {
                    "indexed": false,
                    "internalType": "uint128",
                    "name": "proofvalue",
                    "type": "uint128"
                },
                {
                    "indexed": false,
                    "internalType": "uint256",
                    "name": "unstakestate",
                    "type": "uint256"
                },
                {
                    "indexed": false,
                    "internalType": "uint256",
                    "name": "stakestate",
                    "type": "uint256"
                }
            ],
            "name": "e_unstake",
            "type": "event"
        },
        {
            "anonymous": false,
            "inputs": [
                {
                    "indexed": false,
                    "internalType": "uint256",
                    "name": "poolstate",
                    "type": "uint256"
                },
                {
                    "indexed": false,
                    "internalType": "uint256",
                    "name": "stakestate",
                    "type": "uint256"
                }
            ],
            "name": "e_updatepool",
            "type": "event"
        },
        {
            "inputs": [],
            "name": "DOMAIN_SEPARATOR",
            "outputs": [
                {
                    "internalType": "bytes32",
                    "name": "",
                    "type": "bytes32"
                }
            ],
            "stateMutability": "view",
            "type": "function"
        },
        {
            "inputs": [
                {
                    "components": [
                        {
                            "internalType": "address",
                            "name": "recipient",
                            "type": "address"
                        },
                        {
                            "internalType": "uint128",
                            "name": "leftamount",
                            "type": "uint128"
                        },
                        {
                            "internalType": "uint120",
                            "name": "metric",
                            "type": "uint120"
                        },
                        {
                            "internalType": "uint8",
                            "name": "chips",
                            "type": "uint8"
                        }
                    ],
                    "internalType": "struct s_share",
                    "name": "_share",
                    "type": "tuple"
                }
            ],
            "name": "addShare",
            "outputs": [],
            "stateMutability": "nonpayable",
            "type": "function"
        },
        {
            "inputs": [
                {
                    "internalType": "address",
                    "name": "_auths",
                    "type": "address"
                },
                {
                    "internalType": "uint256",
                    "name": "_priv",
                    "type": "uint256"
                }
            ],
            "name": "addauths",
            "outputs": [],
            "stateMutability": "nonpayable",
            "type": "function"
        },
        {
            "inputs": [
                {
                    "internalType": "address",
                    "name": "user",
                    "type": "address"
                },
                {
                    "internalType": "address",
                    "name": "referral",
                    "type": "address"
                }
            ],
            "name": "addreferral",
            "outputs": [],
            "stateMutability": "nonpayable",
            "type": "function"
        },
        {
            "inputs": [
                {
                    "internalType": "address",
                    "name": "owner",
                    "type": "address"
                },
                {
                    "internalType": "address",
                    "name": "spender",
                    "type": "address"
                }
            ],
            "name": "allowance",
            "outputs": [
                {
                    "internalType": "uint256",
                    "name": "",
                    "type": "uint256"
                }
            ],
            "stateMutability": "view",
            "type": "function"
        },
        {
            "inputs": [
                {
                    "internalType": "address",
                    "name": "spender",
                    "type": "address"
                },
                {
                    "internalType": "uint256",
                    "name": "amount",
                    "type": "uint256"
                }
            ],
            "name": "approve",
            "outputs": [
                {
                    "internalType": "bool",
                    "name": "",
                    "type": "bool"
                }
            ],
            "stateMutability": "nonpayable",
            "type": "function"
        },
        {
            "inputs": [
                {
                    "internalType": "address",
                    "name": "account",
                    "type": "address"
                }
            ],
            "name": "balanceOf",
            "outputs": [
                {
                    "internalType": "uint256",
                    "name": "",
                    "type": "uint256"
                }
            ],
            "stateMutability": "view",
            "type": "function"
        },
        {
            "inputs": [
                {
                    "internalType": "address",
                    "name": "account",
                    "type": "address"
                },
                {
                    "internalType": "uint256",
                    "name": "value",
                    "type": "uint256"
                }
            ],
            "name": "burn",
            "outputs": [],
            "stateMutability": "nonpayable",
            "type": "function"
        },
        {
            "inputs": [
                {
                    "internalType": "uint8",
                    "name": "index",
                    "type": "uint8"
                }
            ],
            "name": "burnShare",
            "outputs": [],
            "stateMutability": "nonpayable",
            "type": "function"
        },
        {
            "inputs": [
                {
                    "internalType": "uint32",
                    "name": "chainid",
                    "type": "uint32"
                },
                {
                    "internalType": "uint128",
                    "name": "asset",
                    "type": "uint128"
                }
            ],
            "name": "chain_deposit",
            "outputs": [],
            "stateMutability": "nonpayable",
            "type": "function"
        },
        {
            "inputs": [
                {
                    "internalType": "uint32",
                    "name": "chainid",
                    "type": "uint32"
                },
                {
                    "internalType": "uint128",
                    "name": "asset",
                    "type": "uint128"
                }
            ],
            "name": "chain_withdraw",
            "outputs": [],
            "stateMutability": "nonpayable",
            "type": "function"
        },
        {
            "inputs": [
                {
                    "internalType": "address",
                    "name": "_recipient",
                    "type": "address"
                }
            ],
            "name": "changeDAOAdmin",
            "outputs": [],
            "stateMutability": "nonpayable",
            "type": "function"
        },
        {
            "inputs": [],
            "name": "decimals",
            "outputs": [
                {
                    "internalType": "uint8",
                    "name": "",
                    "type": "uint8"
                }
            ],
            "stateMutability": "pure",
            "type": "function"
        },
        {
            "inputs": [
                {
                    "internalType": "address",
                    "name": "spender",
                    "type": "address"
                },
                {
                    "internalType": "uint256",
                    "name": "subtractedValue",
                    "type": "uint256"
                }
            ],
            "name": "decreaseAllowance",
            "outputs": [
                {
                    "internalType": "bool",
                    "name": "",
                    "type": "bool"
                }
            ],
            "stateMutability": "nonpayable",
            "type": "function"
        },
        {
            "inputs": [],
            "name": "eip712Domain",
            "outputs": [
                {
                    "internalType": "bytes1",
                    "name": "fields",
                    "type": "bytes1"
                },
                {
                    "internalType": "string",
                    "name": "name",
                    "type": "string"
                },
                {
                    "internalType": "string",
                    "name": "version",
                    "type": "string"
                },
                {
                    "internalType": "uint256",
                    "name": "chainId",
                    "type": "uint256"
                },
                {
                    "internalType": "address",
                    "name": "verifyingContract",
                    "type": "address"
                },
                {
                    "internalType": "bytes32",
                    "name": "salt",
                    "type": "bytes32"
                },
                {
                    "internalType": "uint256[]",
                    "name": "extensions",
                    "type": "uint256[]"
                }
            ],
            "stateMutability": "view",
            "type": "function"
        },
        {
            "inputs": [
                {
                    "internalType": "address",
                    "name": "_customer",
                    "type": "address"
                }
            ],
            "name": "getreferral",
            "outputs": [
                {
                    "internalType": "address",
                    "name": "",
                    "type": "address"
                }
            ],
            "stateMutability": "view",
            "type": "function"
        },
        {
            "inputs": [
                {
                    "internalType": "address",
                    "name": "_customer",
                    "type": "address"
                }
            ],
            "name": "getreferralanddaoadmin",
            "outputs": [
                {
                    "internalType": "address",
                    "name": "",
                    "type": "address"
                },
                {
                    "internalType": "address",
                    "name": "",
                    "type": "address"
                }
            ],
            "stateMutability": "view",
            "type": "function"
        },
        {
            "inputs": [
                {
                    "internalType": "address",
                    "name": "spender",
                    "type": "address"
                },
                {
                    "internalType": "uint256",
                    "name": "addedValue",
                    "type": "uint256"
                }
            ],
            "name": "increaseAllowance",
            "outputs": [
                {
                    "internalType": "bool",
                    "name": "",
                    "type": "bool"
                }
            ],
            "stateMutability": "nonpayable",
            "type": "function"
        },
        {
            "inputs": [
                {
                    "internalType": "address",
                    "name": "recipient",
                    "type": "address"
                }
            ],
            "name": "isauths",
            "outputs": [
                {
                    "internalType": "uint256",
                    "name": "",
                    "type": "uint256"
                }
            ],
            "stateMutability": "view",
            "type": "function"
        },
        {
            "inputs": [],
            "name": "left_share",
            "outputs": [
                {
                    "internalType": "uint128",
                    "name": "",
                    "type": "uint128"
                }
            ],
            "stateMutability": "view",
            "type": "function"
        },
        {
            "inputs": [],
            "name": "name",
            "outputs": [
                {
                    "internalType": "string",
                    "name": "",
                    "type": "string"
                }
            ],
            "stateMutability": "view",
            "type": "function"
        },
        {
            "inputs": [
                {
                    "internalType": "address",
                    "name": "owner",
                    "type": "address"
                }
            ],
            "name": "nonces",
            "outputs": [
                {
                    "internalType": "uint256",
                    "name": "",
                    "type": "uint256"
                }
            ],
            "stateMutability": "view",
            "type": "function"
        },
        {
            "inputs": [
                {
                    "internalType": "address",
                    "name": "owner",
                    "type": "address"
                },
                {
                    "internalType": "address",
                    "name": "spender",
                    "type": "address"
                },
                {
                    "internalType": "uint256",
                    "name": "value",
                    "type": "uint256"
                },
                {
                    "internalType": "uint256",
                    "name": "deadline",
                    "type": "uint256"
                },
                {
                    "internalType": "uint8",
                    "name": "v",
                    "type": "uint8"
                },
                {
                    "internalType": "bytes32",
                    "name": "r",
                    "type": "bytes32"
                },
                {
                    "internalType": "bytes32",
                    "name": "s",
                    "type": "bytes32"
                }
            ],
            "name": "permit",
            "outputs": [],
            "stateMutability": "nonpayable",
            "type": "function"
        },
        {
            "inputs": [
                {
                    "internalType": "uint256",
                    "name": "usdtamount",
                    "type": "uint256"
                }
            ],
            "name": "publicSell",
            "outputs": [],
            "stateMutability": "nonpayable",
            "type": "function"
        },
        {
            "inputs": [],
            "name": "publicsell",
            "outputs": [
                {
                    "internalType": "uint128",
                    "name": "",
                    "type": "uint128"
                }
            ],
            "stateMutability": "view",
            "type": "function"
        },
        {
            "inputs": [
                {
                    "internalType": "address",
                    "name": "_auths",
                    "type": "address"
                }
            ],
            "name": "rmauths",
            "outputs": [],
            "stateMutability": "nonpayable",
            "type": "function"
        },
        {
            "inputs": [
                {
                    "internalType": "uint256",
                    "name": "_normalgoodid",
                    "type": "uint256"
                },
                {
                    "internalType": "uint256",
                    "name": "_valuegoodid",
                    "type": "uint256"
                },
                {
                    "internalType": "address",
                    "name": "_marketcontract",
                    "type": "address"
                }
            ],
            "name": "setEnv",
            "outputs": [],
            "stateMutability": "nonpayable",
            "type": "function"
        },
        {
            "inputs": [
                {
                    "internalType": "address",
                    "name": "Maintriggeradd",
                    "type": "address"
                },
                {
                    "internalType": "address",
                    "name": "marketadd",
                    "type": "address"
                }
            ],
            "name": "setMainTriggerMarket",
            "outputs": [],
            "stateMutability": "nonpayable",
            "type": "function"
        },
        {
            "inputs": [
                {
                    "internalType": "uint8",
                    "name": "index",
                    "type": "uint8"
                }
            ],
            "name": "shareMint",
            "outputs": [],
            "stateMutability": "nonpayable",
            "type": "function"
        },
        {
            "inputs": [
                {
                    "internalType": "address",
                    "name": "_staker",
                    "type": "address"
                },
                {
                    "internalType": "uint128",
                    "name": "proofvalue",
                    "type": "uint128"
                }
            ],
            "name": "stake",
            "outputs": [
                {
                    "internalType": "uint128",
                    "name": "netconstruct",
                    "type": "uint128"
                }
            ],
            "stateMutability": "nonpayable",
            "type": "function"
        },
        {
            "inputs": [
                {
                    "internalType": "uint128",
                    "name": "asset",
                    "type": "uint128"
                },
                {
                    "internalType": "address",
                    "name": "recipient",
                    "type": "address"
                }
            ],
            "name": "subchainDeposit",
            "outputs": [],
            "stateMutability": "nonpayable",
            "type": "function"
        },
        {
            "inputs": [
                {
                    "internalType": "uint128",
                    "name": "asset",
                    "type": "uint128"
                },
                {
                    "internalType": "address",
                    "name": "recipient",
                    "type": "address"
                }
            ],
            "name": "subchainWithdraw",
            "outputs": [],
            "stateMutability": "nonpayable",
            "type": "function"
        },
        {
            "inputs": [],
            "name": "symbol",
            "outputs": [
                {
                    "internalType": "string",
                    "name": "",
                    "type": "string"
                }
            ],
            "stateMutability": "view",
            "type": "function"
        },
        {
            "inputs": [
                {
                    "internalType": "uint32",
                    "name": "chainid",
                    "type": "uint32"
                },
                {
                    "internalType": "uint128",
                    "name": "chainvalue",
                    "type": "uint128"
                }
            ],
            "name": "syncChainStake",
            "outputs": [
                {
                    "internalType": "uint128",
                    "name": "poolasset",
                    "type": "uint128"
                }
            ],
            "stateMutability": "nonpayable",
            "type": "function"
        },
        {
            "inputs": [
                {
                    "internalType": "uint128",
                    "name": "amount",
                    "type": "uint128"
                }
            ],
            "name": "syncPoolAsset",
            "outputs": [],
            "stateMutability": "nonpayable",
            "type": "function"
        },
        {
            "inputs": [],
            "name": "totalSupply",
            "outputs": [
                {
                    "internalType": "uint256",
                    "name": "",
                    "type": "uint256"
                }
            ],
            "stateMutability": "view",
            "type": "function"
        },
        {
            "inputs": [
                {
                    "internalType": "address",
                    "name": "to",
                    "type": "address"
                },
                {
                    "internalType": "uint256",
                    "name": "amount",
                    "type": "uint256"
                }
            ],
            "name": "transfer",
            "outputs": [
                {
                    "internalType": "bool",
                    "name": "",
                    "type": "bool"
                }
            ],
            "stateMutability": "nonpayable",
            "type": "function"
        },
        {
            "inputs": [
                {
                    "internalType": "address",
                    "name": "from",
                    "type": "address"
                },
                {
                    "internalType": "address",
                    "name": "to",
                    "type": "address"
                },
                {
                    "internalType": "uint256",
                    "name": "amount",
                    "type": "uint256"
                }
            ],
            "name": "transferFrom",
            "outputs": [
                {
                    "internalType": "bool",
                    "name": "",
                    "type": "bool"
                }
            ],
            "stateMutability": "nonpayable",
            "type": "function"
        },
        {
            "inputs": [],
            "name": "ttstokenconfig",
            "outputs": [
                {
                    "internalType": "uint256",
                    "name": "",
                    "type": "uint256"
                }
            ],
            "stateMutability": "view",
            "type": "function"
        },
        {
            "inputs": [
                {
                    "internalType": "address",
                    "name": "_staker",
                    "type": "address"
                },
                {
                    "internalType": "uint128",
                    "name": "proofvalue",
                    "type": "uint128"
                }
            ],
            "name": "unstake",
            "outputs": [],
            "stateMutability": "nonpayable",
            "type": "function"
        },
        {
            "inputs": [],
            "name": "usdt",
            "outputs": [
                {
                    "internalType": "address",
                    "name": "",
                    "type": "address"
                }
            ],
            "stateMutability": "view",
            "type": "function"
        },
        {
            "inputs": [
                {
                    "internalType": "uint256",
                    "name": "amount",
                    "type": "uint256"
                },
                {
                    "internalType": "address",
                    "name": "recipient",
                    "type": "address"
                }
            ],
            "name": "withdrawPublicSell",
            "outputs": [],
            "stateMutability": "nonpayable",
            "type": "function"
        }
    ],
    "bytecode": "61018080604052346104cd576060816130c2803803809161002082856104d1565b8339810103126104cd57610033816104f4565b906040610042602083016104f4565b910151916040516100546040826104d1565b600c8152602081016b2a2a29bbb0b8102a37b5b2b760a11b81526040519061007d6040836104d1565b600c82526b2a2a29bbb0b8102a37b5b2b760a11b6020830152604051926100a56040856104d1565b600384526254545360e81b6020850152604051936100c46040866104d1565b60018552603160f81b60208601908152845190946001600160401b0382116103d05760035490600182811c921680156104c3575b60208310146103b25781601f849311610455575b50602090601f83116001146103ef575f926103e4575b50508160011b915f199060031b1c1916176003555b8051906001600160401b0382116103d05760045490600182811c921680156103c6575b60208310146103b25781601f849311610344575b50602090601f83116001146102de575f926102d3575b50508160011b915f199060031b1c1916176004555b6101a281610508565b610120526101af8461068f565b61014052519020918260e05251902080610100524660a0526040519060208201927f8b73c3c69bb8fe3d512ecc4cf759cc79239f7b179b0ffacaa9a75d522b39400f8452604083015260608201524660808201523060a082015260a0815261021860c0826104d1565b51902060809081523060c052601380546001600160801b03199081166601c6bf52634000179091556101609290925242901b16600b55601180546001600160a01b0319166001600160a01b03929092169190911790556009556040516128fa90816107c8823960805181612595015260a05181612652015260c0518161255f015260e051816125e40152610100518161260a01526101205181610e1101526101405181610e3a0152610160518181816103d901526118f10152f35b015190505f80610184565b60045f9081528281209350601f198516905b81811061032c5750908460019594939210610314575b505050811b01600455610199565b01515f1960f88460031b161c191690555f8080610306565b929360206001819287860151815501950193016102f0565b60045f529091507f8a35acfbc15ff81a39ae7d344fd709f28e8600b4aa8c65c6b64bfe7fe36bd19b601f840160051c810191602085106103a8575b90601f859493920160051c01905b81811061039a575061016e565b5f815584935060010161038d565b909150819061037f565b634e487b7160e01b5f52602260045260245ffd5b91607f169161015a565b634e487b7160e01b5f52604160045260245ffd5b015190505f80610122565b60035f9081528281209350601f198516905b81811061043d5750908460019594939210610425575b505050811b01600355610137565b01515f1960f88460031b161c191690555f8080610417565b92936020600181928786015181550195019301610401565b60035f529091507fc2575a0e9e593c00f959f8c92f12db2869c3395a3b0502d05e2516446f71f85b601f840160051c810191602085106104b9575b90601f859493920160051c01905b8181106104ab575061010c565b5f815584935060010161049e565b9091508190610490565b91607f16916100f8565b5f80fd5b601f909101601f19168101906001600160401b038211908210176103d057604052565b51906001600160a01b03821682036104cd57565b908151602081105f14610582575090601f815111610542576020815191015160208210610533571790565b5f198260200360031b1b161790565b604460209160405192839163305a27a960e01b83528160048401528051918291826024860152018484015e5f828201840152601f01601f19168101030190fd5b6001600160401b0381116103d057600554600181811c91168015610685575b60208210146103b257601f8111610652575b50602092601f82116001146105f157928192935f926105e6575b50508160011b915f199060031b1c19161760055560ff90565b015190505f806105cd565b601f1982169360055f52805f20915f5b86811061063a5750836001959610610622575b505050811b0160055560ff90565b01515f1960f88460031b161c191690555f8080610614565b91926020600181928685015181550194019201610601565b60055f52601f60205f20910160051c810190601f830160051c015b81811061067a57506105b3565b5f815560010161066d565b90607f16906105a1565b908151602081105f146106ba575090601f815111610542576020815191015160208210610533571790565b6001600160401b0381116103d057600654600181811c911680156107bd575b60208210146103b257601f811161078a575b50602092601f821160011461072957928192935f9261071e575b50508160011b915f199060031b1c19161760065560ff90565b015190505f80610705565b601f1982169360065f52805f20915f5b868110610772575083600195961061075a575b505050811b0160065560ff90565b01515f1960f88460031b161c191690555f808061074c565b91926020600181928685015181550194019201610739565b60065f52601f60205f20910160051c810190601f830160051c015b8181106107b257506106eb565b5f81556001016107a5565b90607f16906106d956fe60806040526004361015610011575f80fd5b5f803560e01c806301bddf1b14611cab57806306fdde0314611c06578063095ea7b314611be05780630a4273e614611b875780630fffe72f14611b3957806318160ddd14611b1c57806319f8d5b4146119dd57806323b872dd146119205780632f48ab7d146118dc57806330fd6b29146115b0578063313ce567146115955780633644e5151461157357806339509351146115255780633b107e21146113445780633cba316b146112ce57806345fda707146112a8578063542128dd14611228578063623059a51461120b57806369a5ac32146111c75780636c0deba11461117657806370a082311461113f5780637bd3ca3514610f295780637ecebe0014610ef157806384b0196e14610df95780639241bda614610d3a57806394c3c33314610d0257806395d89b4114610c245780639dc29fac14610bff578063a457c2d714610b5c578063a9059cbb14610b2b578063a985901a14610aeb578063b3e08a6914610a4d578063b88e6d63146109fe578063c3bb7fff1461091d578063cd993b11146108bf578063d505accf1461071a578063dd62ed3e146106c7578063de5712d4146106a6578063df8765481461044c578063e7b43e7d14610369578063eca93cce146102895763f6f9b80d146101e8575f80fd5b34610286576060366003190112610286576044356001600160a01b038116906024359060043590839003610282576011546001600160a01b03163303610282577f2c13ec80363c5c6acca850e78e87c50c5f15ae0398a319963393eeb01c11045d9260609282600f5580601055816bffffffffffffffffffffffff60a01b601254161760125560405192835260208301526040820152a180f35b8380fd5b80fd5b5034610286576040366003190112610286576102a3611df2565b6102ab611e08565b338352601560205260016040842054148061034a575b80610334575b6102cf578280f35b6001600160a01b0391821680845260146020908152604080862080546001600160a01b0319169490951693841790945583519182528101919091527f0b5e322b4b5330962013e8d6519462c133d50320ee476828060995c1acadef629190a15f808280f35b506001600160a01b0382811690821614156102c7565b506001600160a01b0382811684526014602052604084205416156102c1565b503461028657604036600319011261028657610383611e08565b61038e60095461200d565b15610448576011546001600160a01b031633036104485760405163a9059cbb60e01b81526001600160a01b0390911660048083019190915235602482015260208180604481010381857f00000000000000000000000000000000000000000000000000000000000000006001600160a01b03165af1801561043d57610411575080f35b6104329060203d602011610436575b61042a8183611f08565b810190611f5e565b5080f35b503d610420565b6040513d84823e3d90fd5b5080fd5b503461028657602036600319011261028657610466611e1e565b61047160095461200d565b156104485760018060a01b0360125416600f549160ff601054911692838552600a6020526001600160781b03600160408720015460801c169260ff841161069257600160801b80851b946001811b159086901c909114171561069257600a84018094116106925760209291606491604051958694859363a7fed92560e01b85526004850152602484015260448301525afa908115610687578391610668575b50158061064a575b1561044857808252600a6020526001600160801b03600160408420015416818352600a602052600160408420015460f81c9081156106365704818352600a602052600160408420016001600160801b036105758382845416611f76565b166001600160801b0319825416179055818352600a6020526001604084200160016001600160781b03825460801c1601906001600160781b038211610622578054600160801b600160f81b03191660809290921b600160801b600160f81b03169190911790557f83592ad363894b5c4d81b2113457c5a1683230ce1c133eefa927d17f65cd5ca0916040916001600160801b031690610614823361222a565b82519182526020820152a180f35b634e487b7160e01b85526011600452602485fd5b634e487b7160e01b84526012600452602484fd5b50808252600a60205260408220546001600160a01b03163314610518565b610681915060203d6020116104365761042a8183611f08565b5f610510565b6040513d85823e3d90fd5b634e487b7160e01b86526011600452602486fd5b5034610286578060031936011261028657602060135460801c604051908152f35b50346102865760403660031901126102865760406106e3611df2565b916106ec611e08565b9260018060a01b031681526001602052209060018060a01b03165f52602052602060405f2054604051908152f35b50346102865760e036600319011261028657610734611df2565b61073c611e08565b6044359060643560843560ff811681036108bb578142116108765761080f6108179160018060a01b03871693848952600760205260408920908154916001830190556040519060208201927f6e71edae12b1b97f4d1f60370fef10105fa2faae0126114a169c64845d6126c9845287604084015260018060a01b038916606084015289608084015260a083015260c082015260c081526107dd60e082611f08565b5190206107e861255c565b906040519161190160f01b83526002830152602282015260c43591604260a4359220612731565b9190916127ac565b6001600160a01b0316036108315761082e92612020565b80f35b60405162461bcd60e51b815260206004820152601e60248201527f45524332305065726d69743a20696e76616c6964207369676e617475726500006044820152606490fd5b60405162461bcd60e51b815260206004820152601d60248201527f45524332305065726d69743a206578706972656420646561646c696e650000006044820152606490fd5b8580fd5b5034610286576040366003190112610286576108d9611d6f565b6108e1611e08565b6108ec60095461200d565b610919573383526015602052620186a5604084205403610919576001600160801b0361082e92169061222a565b8280fd5b50346102865761092c36611d9b565b9061093860095461200d565b15610919573383526015602052620186a5604084205414806109ad575b156109195763ffffffff61097c911691828452600e60205260408420549060801b906123a6565b818352600e6020526040832055338252816020526040822054908252600e602052604082205460801c116102865780f35b5063ffffffff8116808452600e60205260408420600201546001600160a01b031633149081156109de575b50610955565b845250600e60205260408320600201546001600160a01b0316155f6109d8565b503461028657602036600319011261028657610a18611df2565b6011546001600160a01b03918216835260146020908152604093849020548451928416835290921691810191909152f35b0390f35b5034610ae7576040366003190112610ae757610a67611df2565b610a6f611e08565b6011549091906001600160a01b03163303610ae7576001600160a01b031690813b15610ae757604051630c5ee4e160e21b81526001600160a01b039091166004820152905f908290602490829084905af18015610adc57610ace575080f35b610ada91505f90611f08565b005b6040513d5f823e3d90fd5b5f80fd5b34610ae7576020366003190112610ae7576001600160a01b03610b0c611df2565b165f526014602052602060018060a01b0360405f205416604051908152f35b34610ae7576040366003190112610ae757610b51610b47611df2565b60243590336123e6565b602060405160018152f35b34610ae7576040366003190112610ae757610b75611df2565b60243590335f52600160205260405f2060018060a01b0382165f5260205260405f205491808310610bac57610b5192039033612020565b60405162461bcd60e51b815260206004820152602560248201527f45524332303a2064656372656173656420616c6c6f77616e63652062656c6f77604482015264207a65726f60d81b6064820152608490fd5b34610ae7576040366003190112610ae757610ada610c1b611df2565b60243590612124565b34610ae7575f366003190112610ae7576040515f600454610c4481611e4f565b8084529060018116908115610cde5750600114610c80575b610a4983610c6c81850382611f08565b604051918291602083526020830190611dce565b60045f9081527f8a35acfbc15ff81a39ae7d344fd709f28e8600b4aa8c65c6b64bfe7fe36bd19b939250905b808210610cc457509091508101602001610c6c610c5c565b919260018160209254838588010152019101909291610cac565b60ff191660208086019190915291151560051b84019091019150610c6c9050610c5c565b34610ae7576020366003190112610ae7576001600160a01b03610d23611df2565b165f526015602052602060405f2054604051908152f35b34610ae7576020366003190112610ae757610d53611e1e565b610d5e60095461200d565b15610ae7576011546001600160a01b03163303610ae75760ff16805f52600a60205267ffffffffffffffff600160405f200154166001600160801b03610da960135492828416611f3e565b16906001600160801b031916176013557f568d364b674966bdb889933148a94e885581320f54b5d65d04bda235eea7fe486020604051838152a15f908152600a6020526040812081815560010155005b34610ae7575f366003190112610ae757610e95610e357f0000000000000000000000000000000000000000000000000000000000000000612678565b610e5e7f00000000000000000000000000000000000000000000000000000000000000006126db565b6020610ea360405192610e718385611f08565b5f84525f368137604051958695600f60f81b875260e08588015260e0870190611dce565b908582036040870152611dce565b4660608501523060808501525f60a085015283810360c08501528180845192838152019301915f5b828110610eda57505050500390f35b835185528695509381019392810192600101610ecb565b34610ae7576020366003190112610ae7576001600160a01b03610f12611df2565b165f526007602052602060405f2054604051908152f35b34610ae7576040366003190112610ae757610f42611df2565b610f4a611d85565b335f526015602052600160405f205403610ae7577fcd22d1cb8932396ecce835a81db9f8f268ec6f820ba46a7d202f275064de27c491608091610f8b6122cc565b604080516001600160a01b038416602082019081523392820192909252610fbf81606081015b03601f198101835282611f08565b5190205f818152600d60205260409020600101546001600160801b03831690851c81106110d957505f818152600d60205260408120600181018054918390559190915580851c9250905b61107a82600c5494611072600b549661105b886001600160801b03169861104b6001600160801b0386169a8b816001600160801b03198716178f1c0204612712565b946001600160801b031690611e2e565b600b55836001600160801b0316838b1b1790611e2e565b600c55611f76565b906001600160801b038216806110c9575b505f52600d602052600160405f200154926040519460018060a01b0316855260208501526001600160801b031690841b1760408301526060820152a1005b6110d3908661222a565b8761108b565b61110290825f52600d602052600160405f200154906001600160801b0382881c92160204612712565b90805f52600d60205261112a600160405f200154836001600160801b031685881b1790611e2e565b815f52600d602052600160405f200155611009565b34610ae7576020366003190112610ae7576001600160a01b03611160611df2565b165f525f602052602060405f2054604051908152f35b34610ae7576020366003190112610ae75761118f611d6f565b61119a60095461200d565b610ae757335f526015602052600560405f205403610ae757600c546111c29160801b906123a6565b600c55005b34610ae7576020366003190112610ae7576111e0611df2565b6011546001600160a01b03163303610ae7576001600160a01b03165f90815260156020526040812055005b34610ae7575f366003190112610ae7576020600954604051908152f35b34610ae7576040366003190112610ae757611241611df2565b601154602435906001600160a01b03163303610ae7576001600160a01b03919091165f8181526015602090815260409182902084905581519283528201929092527f967d50df84a5ebb45902fa277d5c3b0bc6403497c9fd6da2ecbd9ed420038f149190a1005b34610ae7575f366003190112610ae75760206001600160801b0360135416604051908152f35b34610ae7576020366003190112610ae7576112e7611df2565b601154906001600160a01b0382163303610ae7576001600160a01b03166001600160a01b03199190911681176011556040519081527f853baecd5c22fcf8a4d994474a066771c51cfe6022b046e92a09874610cd128190602090a1005b34610ae7576080366003190112610ae75761136060095461200d565b15610ae7576013546001600160801b03811661138361137d611fbb565b82611f76565b506011546001600160a01b03163303610ae7576113ba6001600160801b039167ffffffffffffffff6113b3611fbb565b1690611f76565b16906001600160801b0319161760135563ffffffff6012548160a01b6113e4838360a01c16611f96565b60a01b16908260a01b1916178060125560a01c165f52600a602052600160405f20818060a01b03611413611fd1565b82546001600160a01b0319169116178155016001600160801b03611435611fbb565b166001600160801b0319825416178155611476611450611fe7565b8254600160801b600160f81b03191660809190911b600160801b600160f81b0316178255565b61147e611ffd565b81546001600160f81b031660f89190911b6001600160f81b0319161790557f259b626a3ac57abbad46c244a9bc2a13c0b530c618e9654be9351bd104cffcae60a06114c7611fd1565b6114cf611fbb565b60ff6114d9611fe7565b6001600160781b036114e9611ffd565b916001600160801b0363ffffffff601254891c1695604051976001808b1b031688521660208701521660408501521660608301526080820152a1005b34610ae7576040366003190112610ae757610b51611541611df2565b335f52600160205260405f2060018060a01b0382165f5260205261156c60405f206024359054611fae565b9033612020565b34610ae7575f366003190112610ae757602061158d61255c565b604051908152f35b34610ae7575f366003190112610ae757602060405160068152f35b34610ae7576115be36611d9b565b6115c960095461200d565b15610ae75781905f91335f526015602052620186a560405f20541480611887575b15610ae75760209363ffffffff1680611724575050606063ffffffff7f2dbd6c60950a71a3b42582ce495af627a70477170cea6ce5bbd4017f3e93089292816012548160c01b61163e838360c01c16611f96565b60c01b16908260c01b1916178060125560c01c1690600c54906116ac600b546116996116826001600160801b0383166001600160801b0386168760801c0204612712565b94856001600160801b0316809660801b17906123a6565b600c55826001600160801b0316906123a6565b600b55825f52600e885260801b17600160405f200155805f52600e8652600260405f200160018060a01b0333166bffffffffffffffffffffffff60a01b8254161790555b16805f52600e85526001600160801b03600160405f20015494604051928352169384868301526040820152a1604051908152f35b7f2dbd6c60950a71a3b42582ce495af627a70477170cea6ce5bbd4017f3e93089292935060609163ffffffff91600c5495815f52600e88526117a7611783600160405f20015460801c6001600160801b038a16908a60801c0204612712565b97835f52600e8a52600160405f2001546001600160801b03168960801b1790611e2e565b9081600c556118136117ed6117d0600b54865f52600e8d52600160405f20015460801c90611e2e565b998a600b55855f52600e8c52600160405f20015460801c90611f76565b986116996116826001600160801b0383166001600160801b0386168760801c0204612712565b600b55825f52600e895260801b17600160405f200155805f52600e875261184d60405f2054876001600160801b03168860801b17906123a6565b815f52600e885260405f20555f52600e865261188260018060a01b03600260405f200154166001600160801b0387169061222a565b6116f0565b5063ffffffff84165f818152600e60205260409020600201546001600160a01b031633149081156118b9575b506115ea565b5f908152600e60205260409020600201546001600160a01b0316159050856118b3565b34610ae7575f366003190112610ae7576040517f00000000000000000000000000000000000000000000000000000000000000006001600160a01b03168152602090f35b34610ae7576060366003190112610ae757611939611df2565b611941611e08565b6001600160a01b0382165f90815260016020818152604080842033855290915290912054926044359291840161197c575b610b5193506123e6565b8284106119985761199383610b5195033383612020565b611972565b60405162461bcd60e51b815260206004820152601d60248201527f45524332303a20696e73756666696369656e7420616c6c6f77616e63650000006044820152606490fd5b34610ae7576040366003190112610ae7576119f6611df2565b6119fe611d85565b335f526015602052600160405f205403610ae757602091611a1d6122cc565b604080516001600160a01b039092168483019081523360208201529190611a479082908401610fb1565b519020611ad4600c54926001600160801b03841680155f14611af457505f935b611a81856001600160801b031691828760801b17906123a6565b600c55611a9a600b54836001600160801b0316906123a6565b600b555f848152600d808852604080832080546001600160a01b0319163317905586835290885290206001015460809290921b17906123a6565b905f52600d8352600160405f2001556001600160801b0360405191168152f35b611b16906001600160801b03600b5416906001600160801b0384160204612712565b93611a67565b34610ae7575f366003190112610ae7576020600254604051908152f35b34610ae7576020366003190112610ae757611b5560095461200d565b15610ae7576013546001600160801b038019611b7882600435168460801c611f3e565b60801b16911617601355611e3b565b34610ae7576040366003190112610ae757611ba0611d6f565b611ba8611e08565b611bb360095461200d565b610ae757335f526015602052620186a560405f205403610ae7576001600160801b03610ada921690612124565b34610ae7576040366003190112610ae757610b51611bfc611df2565b6024359033612020565b34610ae7575f366003190112610ae7576040515f600354611c2681611e4f565b8084529060018116908115610cde5750600114611c4d57610a4983610c6c81850382611f08565b60035f9081527fc2575a0e9e593c00f959f8c92f12db2869c3395a3b0502d05e2516446f71f85b939250905b808210611c9157509091508101602001610c6c610c5c565b919260018160209254838588010152019101909291611c79565b34610ae757611cb936611d9b565b90611cc560095461200d565b15610ae757335f526015602052620186a560405f20541480611d1a575b15610ae75763ffffffff611d09911691825f52600e60205260405f20549060801b90611e2e565b905f52600e60205260405f20555f80f35b5063ffffffff81165f818152600e60205260409020600201546001600160a01b03163314908115611d4c575b50611ce2565b5f908152600e60205260409020600201546001600160a01b031615905083611d46565b600435906001600160801b0382168203610ae757565b602435906001600160801b0382168203610ae757565b6040906003190112610ae75760043563ffffffff81168103610ae757906024356001600160801b0381168103610ae75790565b805180835260209291819084018484015e5f828201840152601f01601f1916010190565b600435906001600160a01b0382168203610ae757565b602435906001600160a01b0382168203610ae757565b6004359060ff82168203610ae757565b91908203918211611e3b57565b634e487b7160e01b5f52601160045260245ffd5b90600182811c92168015611e7d575b6020831014611e6957565b634e487b7160e01b5f52602260045260245ffd5b91607f1691611e5e565b5f9291815491611e9683611e4f565b8083529260018116908115611eeb5750600114611eb257505050565b5f9081526020812093945091925b838310611ed1575060209250010190565b600181602092949394548385870101520191019190611ec0565b915050602093945060ff929192191683830152151560051b010190565b90601f8019910116810190811067ffffffffffffffff821117611f2a57604052565b634e487b7160e01b5f52604160045260245ffd5b906001600160801b03809116911601906001600160801b038211611e3b57565b90816020910312610ae757518015158103610ae75790565b906001600160801b03809116911603906001600160801b038211611e3b57565b63ffffffff60019116019063ffffffff8211611e3b57565b91908201809211611e3b57565b6024356001600160801b0381168103610ae75790565b6004356001600160a01b0381168103610ae75790565b6044356001600160781b0381168103610ae75790565b60643560ff81168103610ae75790565b60ff1c60010361201c57600190565b5f90565b6001600160a01b03169081156120d3576001600160a01b03169182156120835760207f8c5be1e5ebec7d5bd14f71427d1e84f3dd0314c0f7b2291e5b200ac8c7c3b92591835f526001825260405f20855f5282528060405f2055604051908152a3565b60405162461bcd60e51b815260206004820152602260248201527f45524332303a20617070726f766520746f20746865207a65726f206164647265604482015261737360f01b6064820152608490fd5b60405162461bcd60e51b8152602060048201526024808201527f45524332303a20617070726f76652066726f6d20746865207a65726f206164646044820152637265737360e01b6064820152608490fd5b6001600160a01b031680156121db57805f525f60205260405f20549180831061218b576020817fddf252ad1be2c89b69c2b068fc378daa952ba7f163c4a11628f55a4df523b3ef925f958587528684520360408620558060025403600255604051908152a3565b60405162461bcd60e51b815260206004820152602260248201527f45524332303a206275726e20616d6f756e7420657863656564732062616c616e604482015261636560f01b6064820152608490fd5b60405162461bcd60e51b815260206004820152602160248201527f45524332303a206275726e2066726f6d20746865207a65726f206164647265736044820152607360f81b6064820152608490fd5b6001600160a01b0316908115612287577fddf252ad1be2c89b69c2b068fc378daa952ba7f163c4a11628f55a4df523b3ef60208261226b5f94600254611fae565b60025584845283825260408420818154019055604051908152a3565b60405162461bcd60e51b815260206004820152601f60248201527f45524332303a206d696e7420746f20746865207a65726f2061646472657373006044820152606490fd5b600b54620151808160801c016001600160801b038111611e3b576001600160801b03429116106122f95750565b60407f8288d0d3063eba413cf9eea42df98c32074b7b6d554adf408bdb0546e468c404916123456123366102a360871b60801d8360801d03612712565b916001600160801b0316612712565b6001600160801b03169060801b1780600b556002546311e1a30081115f1461239a5761477c61238891045b600c54906001600160801b03199060801b16906123a6565b9081600c5582519182526020820152a1565b50612388614038612370565b6123d5906123bb8360801d8260801d03612712565b926001600160801b0316906001600160801b031603612712565b6001600160801b03169060801b1790565b6001600160a01b0316908115612509576001600160a01b03169182156124b857815f525f60205260405f205481811061246457817fddf252ad1be2c89b69c2b068fc378daa952ba7f163c4a11628f55a4df523b3ef92602092855f525f84520360405f2055845f525f825260405f20818154019055604051908152a3565b60405162461bcd60e51b815260206004820152602660248201527f45524332303a207472616e7366657220616d6f756e7420657863656564732062604482015265616c616e636560d01b6064820152608490fd5b60405162461bcd60e51b815260206004820152602360248201527f45524332303a207472616e7366657220746f20746865207a65726f206164647260448201526265737360e81b6064820152608490fd5b60405162461bcd60e51b815260206004820152602560248201527f45524332303a207472616e736665722066726f6d20746865207a65726f206164604482015264647265737360d81b6064820152608490fd5b307f00000000000000000000000000000000000000000000000000000000000000006001600160a01b0316148061264f575b156125b7577f000000000000000000000000000000000000000000000000000000000000000090565b60405160208101907f8b73c3c69bb8fe3d512ecc4cf759cc79239f7b179b0ffacaa9a75d522b39400f82527f000000000000000000000000000000000000000000000000000000000000000060408201527f000000000000000000000000000000000000000000000000000000000000000060608201524660808201523060a082015260a0815261264960c082611f08565b51902090565b507f0000000000000000000000000000000000000000000000000000000000000000461461258e565b60ff81146126be5760ff811690601f82116126af576040519161269c604084611f08565b6020808452838101919036833783525290565b632cd44ac360e21b5f5260045ffd5b506040516126d8816126d1816005611e87565b0382611f08565b90565b60ff81146126ff5760ff811690601f82116126af576040519161269c604084611f08565b506040516126d8816126d1816006611e87565b6001600160801b03811161272c576001600160801b031690565b505f90565b7f7fffffffffffffffffffffffffffffff5d576e7357a4501ddfe92f46681b20a084116127a1576020935f9360ff60809460405194855216868401526040830152606082015282805260015afa15610adc575f516001600160a01b0381161561279957905f90565b505f90600190565b505050505f90600390565b60058110156128b057806127bd5750565b6001810361280a5760405162461bcd60e51b815260206004820152601860248201527f45434453413a20696e76616c6964207369676e617475726500000000000000006044820152606490fd5b600281036128575760405162461bcd60e51b815260206004820152601f60248201527f45434453413a20696e76616c6964207369676e6174757265206c656e677468006044820152606490fd5b60031461286057565b60405162461bcd60e51b815260206004820152602260248201527f45434453413a20696e76616c6964207369676e6174757265202773272076616c604482015261756560f01b6064820152608490fd5b634e487b7160e01b5f52602160045260245ffdfea2646970667358221220b9eedbabf0fc9f67bf10b16c46262db91273419928d2d535c36fdf84c964faf764736f6c634300081a0033",
    "sourcePath": "/Users/admin/workspace/50Self_project/ttswap-core/src/TTSwap_Token.sol",
    "compiler": {
        "name": "solc",
        "version": "0.8.26+commit.8a97fa7a"
    },
    "functionHashes": {
        "DOMAIN_SEPARATOR()": "3644e515",
        "addShare((address,uint128,uint120,uint8))": "3b107e21",
        "addauths(address,uint256)": "542128dd",
        "addreferral(address,address)": "eca93cce",
        "allowance(address,address)": "dd62ed3e",
        "approve(address,uint256)": "095ea7b3",
        "balanceOf(address)": "70a08231",
        "burn(address,uint256)": "9dc29fac",
        "burnShare(uint8)": "9241bda6",
        "chain_deposit(uint32,uint128)": "01bddf1b",
        "chain_withdraw(uint32,uint128)": "c3bb7fff",
        "changeDAOAdmin(address)": "3cba316b",
        "decimals()": "313ce567",
        "decreaseAllowance(address,uint256)": "a457c2d7",
        "eip712Domain()": "84b0196e",
        "getreferral(address)": "a985901a",
        "getreferralanddaoadmin(address)": "b88e6d63",
        "increaseAllowance(address,uint256)": "39509351",
        "isauths(address)": "94c3c333",
        "left_share()": "45fda707",
        "name()": "06fdde03",
        "nonces(address)": "7ecebe00",
        "permit(address,address,uint256,uint256,uint8,bytes32,bytes32)": "d505accf",
        "publicSell(uint256)": "0fffe72f",
        "publicsell()": "de5712d4",
        "rmauths(address)": "69a5ac32",
        "setEnv(uint256,uint256,address)": "f6f9b80d",
        "setMainTriggerMarket(address,address)": "b3e08a69",
        "shareMint(uint8)": "df876548",
        "stake(address,uint128)": "19f8d5b4",
        "subchainDeposit(uint128,address)": "cd993b11",
        "subchainWithdraw(uint128,address)": "0a4273e6",
        "symbol()": "95d89b41",
        "syncChainStake(uint32,uint128)": "30fd6b29",
        "syncPoolAsset(uint128)": "6c0deba1",
        "totalSupply()": "18160ddd",
        "transfer(address,uint256)": "a9059cbb",
        "transferFrom(address,address,uint256)": "23b872dd",
        "ttstokenconfig()": "623059a5",
        "unstake(address,uint128)": "7bd3ca35",
        "usdt()": "2f48ab7d",
        "withdrawPublicSell(uint256,address)": "e7b43e7d"
    },
    "gasEstimates": {
        "creation": {
            "codeDepositCost": "2098000",
            "executionCost": "infinite",
            "totalCost": "infinite"
        },
        "external": {
            "DOMAIN_SEPARATOR()": "infinite",
            "addShare((address,uint128,uint120,uint8))": "2591",
            "addauths(address,uint256)": "26224",
            "addreferral(address,address)": "31306",
            "allowance(address,address)": "3352",
            "approve(address,uint256)": "24389",
            "balanceOf(address)": "2840",
            "burn(address,uint256)": "51225",
            "burnShare(uint8)": "2894",
            "chain_deposit(uint32,uint128)": "2421",
            "chain_withdraw(uint32,uint128)": "3150",
            "changeDAOAdmin(address)": "25847",
            "decimals()": "368",
            "decreaseAllowance(address,uint256)": "27237",
            "eip712Domain()": "infinite",
            "getreferral(address)": "3079",
            "getreferralanddaoadmin(address)": "5266",
            "increaseAllowance(address,uint256)": "26912",
            "isauths(address)": "2951",
            "left_share()": "2599",
            "name()": "infinite",
            "nonces(address)": "2885",
            "permit(address,address,uint256,uint256,uint8,bytes32,bytes32)": "infinite",
            "publicSell(uint256)": "2393",
            "publicsell()": "3074",
            "rmauths(address)": "7819",
            "setEnv(uint256,uint256,address)": "73253",
            "setMainTriggerMarket(address,address)": "infinite",
            "shareMint(uint8)": "3204",
            "stake(address,uint128)": "infinite",
            "subchainDeposit(uint128,address)": "55800",
            "subchainWithdraw(uint128,address)": "55138",
            "symbol()": "infinite",
            "syncChainStake(uint32,uint128)": "2616",
            "syncPoolAsset(uint128)": "infinite",
            "totalSupply()": "2361",
            "transfer(address,uint256)": "51387",
            "transferFrom(address,address,uint256)": "77431",
            "ttstokenconfig()": "2625",
            "unstake(address,uint128)": "infinite",
            "usdt()": "infinite",
            "withdrawPublicSell(uint256,address)": "3238"
        },
        "internal": {
            "_stakeFee()": "infinite"
        }
    }
}