{
	"data": {
		"bytecode": {
			"linkReferences": {},
			"object": "6101a06040527f49ecf333e5b8c95c40fdafc95c1ad136e8914a8fb55e9dc8bb01eaa83a2df9ad61016052348015610035575f80fd5b5060405161647538038061647583398101604081905261005491610212565b81818060405180604001604052806007815260200166151514c813919560ca1b8152506040518060400160405280600381526020016254545360e81b81525081604051806040016040528060018152602001603160f81b8152508383815f90816100be91906102e4565b5060016100cb82826102e4565b506100db9150839050600661019a565b610120526100ea81600761019a565b61014052815160208084019190912060e052815190820120610100524660a05261017660e05161010051604080517f8b73c3c69bb8fe3d512ecc4cf759cc79239f7b179b0ffacaa9a75d522b39400f60208201529081019290925260608201524660808201523060a08201525f9060c00160405160208183030381529060405280519060200120905090565b60805250503060c05250506001600160a01b03166101805250600c55506103f69050565b5f6020835110156101b5576101ae836101cc565b90506101c6565b816101c084826102e4565b5060ff90505b92915050565b5f80829050601f815111156101ff578260405163305a27a960e01b81526004016101f6919061039e565b60405180910390fd5b805161020a826103d3565b179392505050565b5f8060408385031215610223575f80fd5b825160208401519092506001600160a01b0381168114610241575f80fd5b809150509250929050565b634e487b7160e01b5f52604160045260245ffd5b600181811c9082168061027457607f821691505b60208210810361029257634e487b7160e01b5f52602260045260245ffd5b50919050565b601f8211156102df57805f5260205f20601f840160051c810160208510156102bd5750805b601f840160051c820191505b818110156102dc575f81556001016102c9565b50505b505050565b81516001600160401b038111156102fd576102fd61024c565b6103118161030b8454610260565b84610298565b6020601f821160018114610343575f831561032c5750848201515b5f19600385901b1c1916600184901b1784556102dc565b5f84815260208120601f198516915b828110156103725787850151825560209485019460019092019101610352565b508482101561038f57868401515f19600387901b60f8161c191681555b50505050600190811b01905550565b602081525f82518060208401528060208501604085015e5f604082850101526040601f19601f83011684010191505092915050565b80516020808301519190811015610292575f1960209190910360031b1b16919050565b60805160a05160c05160e0516101005161012051610140516101605161018051615fb86104bd5f395f8181610a3d01528181610cf501528181610d6a01528181610f0901528181611223015281816113870152818161195a01528181611b4f01528181611c680152818161211d01528181612222015281816125a801528181612724015281816128c20152612f8301525f6130ab01525f61187b01525f61185001525f6132a901525f61328101525f6131dc01525f61320601525f6132300152615fb85ff3fe608060405260043610610249575f3560e01c80636352211e11610134578063a676a600116100b3578063b88d4fde11610078578063b88d4fde14610759578063c87b56dd14610778578063e985e9c514610797578063f44733ad146107de578063f4662f20146107f1578063f88c301014610810575f80fd5b8063a676a60014610675578063a6f6a98014610694578063a7e1169714610708578063a7fed9251461071b578063b153b9201461073a575f80fd5b8063920acbb8116100f9578063920acbb8146105fd5780639551177a1461061057806395d89b411461062f57806397924ead14610643578063a22cb46514610656575f80fd5b80636352211e1461054d5780636ff73c8e1461056c57806370a0823114610598578063745a41bc146105b757806384b0196e146105d6575f80fd5b806324744d54116101cb578063402f5ab511610190578063402f5ab51461048957806342842e0e1461049e57806345818e4c146104bd5780634ffef907146104dc578063578496ab146104ef5780635e008cc414610522575f80fd5b806324744d54146103ac5780632973ada7146103cb5780632a7c5a91146103f65780633644e515146104155780633f11774014610429575f80fd5b8063141a468c11610211578063141a468c14610319578063144aeb831461034657806318160ddd1461036557806318ad50d11461037a57806323b872dd1461038d575f80fd5b806301ffc9a71461024d57806306fdde0314610281578063081812fc146102a2578063095ea7b3146102d95780630e21a1ac146102fa575b5f80fd5b348015610258575f80fd5b5061026c61026736600461546b565b61082f565b60405190151581526020015b60405180910390f35b34801561028c575f80fd5b50610295610859565b60405161027891906154b4565b3480156102ad575f80fd5b506102c16102bc3660046154c6565b6108e8565b6040516001600160a01b039091168152602001610278565b3480156102e4575f80fd5b506102f86102f33660046154f1565b61090d565b005b348015610305575f80fd5b5061026c61031436600461551b565b610a26565b348015610324575f80fd5b506103386103333660046154c6565b610b13565b604051908152602001610278565b348015610351575f80fd5b5061026c61036036600461551b565b610b26565b348015610370575f80fd5b5061033860095481565b6102f861038836600461554f565b610b97565b348015610398575f80fd5b506102f86103a736600461557d565b610cb8565b3480156103b7575f80fd5b506102f86103c636600461566c565b610d35565b3480156103d6575f80fd5b506103386103e5366004615706565b600e6020525f908152604090205481565b348015610401575f80fd5b506102f8610410366004615721565b610d55565b348015610420575f80fd5b50610338610e4f565b348015610434575f80fd5b506104486104433660046154c6565b610e5d565b60405161027891905f60a082019050825182526020830151602083015260408301516040830152606083015160608301526080830151608083015292915050565b348015610494575f80fd5b50610338600c5481565b3480156104a9575f80fd5b506102f86104b836600461557d565b610ed8565b3480156104c8575f80fd5b5061026c6104d73660046154c6565b610ef2565b61026c6104ea366004615744565b610fc7565b6105026104fd36600461578f565b611327565b604080516001600160801b03938416815292909116602083015201610278565b34801561052d575f80fd5b5061033861053c3660046154c6565b600b6020525f908152604090205481565b348015610558575f80fd5b506102c16105673660046154c6565b611656565b348015610577575f80fd5b5061058b610586366004615866565b6116b5565b60405161027891906158e4565b3480156105a3575f80fd5b506103386105b2366004615706565b6117ad565b3480156105c2575f80fd5b506102f86105d13660046158f6565b611831565b3480156105e1575f80fd5b506105ea611843565b6040516102789796959493929190615955565b61026c61060b3660046159c4565b6118ca565b34801561061b575f80fd5b5061026c61062a366004615706565b611943565b34801561063a575f80fd5b50610295611a20565b61026c6106513660046159fa565b611a2f565b348015610661575f80fd5b506102f8610670366004615a2c565b611bf2565b348015610680575f80fd5b5061033861068f366004615721565b611bfd565b34801561069f575f80fd5b506106b36106ae3660046154c6565b611ddd565b60408051825181526020808401516001600160a01b0390811691830191909152838301511691810191909152606080830151908201526080808301519082015260a0918201519181019190915260c001610278565b610502610716366004615a5f565b611e87565b348015610726575f80fd5b5061026c610735366004615ab1565b6120df565b348015610745575f80fd5b5061026c610754366004615706565b612106565b348015610764575f80fd5b506102f8610773366004615ada565b6121e5565b348015610783575f80fd5b506102956107923660046154c6565b612263565b3480156107a2575f80fd5b5061026c6107b1366004615b2a565b6001600160a01b039182165f90815260056020908152604080832093909416825291909152205460ff1690565b61026c6107ec366004615b56565b6122c6565b3480156107fc575f80fd5b5061026c61080b366004615b81565b61267e565b34801561081b575f80fd5b506102f861082a366004615bb5565b61299d565b5f6001600160e01b03198216635604e22560e01b1480610853575061085382612bfe565b92915050565b60605f805461086790615be7565b80601f016020809104026020016040519081016040528092919081815260200182805461089390615be7565b80156108de5780601f106108b5576101008083540402835291602001916108de565b820191905f5260205f20905b8154815290600101906020018083116108c157829003601f168201915b5050505050905090565b5f6108f282612c4d565b505f908152600460205260409020546001600160a01b031690565b5f61091782611656565b9050806001600160a01b0316836001600160a01b0316036109895760405162461bcd60e51b815260206004820152602160248201527f4552433732313a20617070726f76616c20746f2063757272656e74206f776e656044820152603960f91b60648201526084015b60405180910390fd5b336001600160a01b03821614806109a557506109a581336107b1565b610a175760405162461bcd60e51b815260206004820152603d60248201527f4552433732313a20617070726f76652063616c6c6572206973206e6f7420746f60448201527f6b656e206f776e6572206f7220617070726f76656420666f7220616c6c0000006064820152608401610980565b610a218383612cae565b505050565b6040516394c3c33360e01b81523360048201525f907f00000000000000000000000000000000000000000000000000000000000000006001600160a01b0316906394c3c33390602401602060405180830381865afa158015610a8a573d5f803e3d5ffd5b505050506040513d601f19601f82011682018060405250810190610aae9190615c1f565b600214610ab9575f80fd5b5f838152600d60205260409020610ad09083612d1b565b60408051848152602081018490527f5af113730f9ee4153f120c893809feafa233584bbe5e93b5d78e0699c9c8ca5691015b60405180910390a150600192915050565b5f81815260086020526040812054610853565b5f828152600d60205260408120600101546001600160a01b03163314610b4a575f80fd5b5f838152600d60205260409020610b619083612d42565b60408051848152602081018490527fc360eef79f1e7d7e7564e3cd446a9839f5a632a38a4d34b507c08e1ceef461479101610b02565b6001600160a01b035f80516020615f428339815191525c1615610bb8575f80fd5b610bc133612d65565b5f828152600d60205260409020600501546001606d1b90610be690839060801c615c4a565b6001600160801b03161115610bf9575f80fd5b5f828152600d6020526040902060020154610c27906001600160a01b0316336001600160801b038416612d78565b5f828152600d6020526040902060050154610c4b90608083901b612d85565b612d85565b5f838152600d60205260409081902060050191909155517f54fe3e24ce316357354d8b9553364de253d61c742d913dfd419149ddf696947a90610ca390849084909182526001600160801b0316602082015260400190565b60405180910390a1610cb45f612d65565b5050565b610cc23382612dbd565b610cde5760405162461bcd60e51b815260040161098090615c69565b5f818152600a6020526040902060020154610d1f907f000000000000000000000000000000000000000000000000000000000000000090859060801c612e39565b610d2a838383612ea3565b610a21818484612ec2565b610d4133858484613046565b610d4d868686866121e5565b505050505050565b6040516394c3c33360e01b81523360048201527f00000000000000000000000000000000000000000000000000000000000000006001600160a01b0316906394c3c33390602401602060405180830381865afa158015610db7573d5f803e3d5ffd5b505050506040513d601f19601f82011682018060405250810190610ddb9190615c1f565b600214610de6575f80fd5b5f828152600d602090815260409182902060010180546001600160a01b0319166001600160a01b0385169081179091558251858152918201527f0dccb79e09923e42093e54de6132ceba9b88b094d10632520f6eeb8058a6721c91015b60405180910390a15050565b5f610e586131d0565b905090565b610e8a6040518060a001604052805f81526020015f81526020015f81526020015f81526020015f81525090565b505f908152600a6020908152604091829020825160a0810184528154815260018201549281019290925260028101549282019290925260038201546060820152600490910154608082015290565b610a2183838360405180602001604052805f8152506121e5565b6040516394c3c33360e01b81523360048201525f907f00000000000000000000000000000000000000000000000000000000000000006001600160a01b0316906394c3c33390602401602060405180830381865afa158015610f56573d5f803e3d5ffd5b505050506040513d601f19601f82011682018060405250810190610f7a9190615c1f565b600214610f85575f80fd5b600c8290556040518281527fbd209961024f2694b0afb3c8badd20b6477abb77b336b16892c3fa4b906d323c906020015b60405180910390a15060015b919050565b5f6001600160a01b035f80516020615f428339815191525c1615610fe9575f80fd5b610ff233612d65565b5f6110226040518060400160405280336001600160a01b03168152602001866001600160a01b03168152506132f9565b5f818152600d60205260409020600101549091506001600160a01b031615801561105e57505f868152600d6020526040902054600160ff1b1615155b611066575f80fd5b61108e336110748760801c90565b6001600160a01b03871691906001600160801b0316612d78565b5f868152600d60205260409020600201546110bc906001600160a01b0316336001600160801b038816612d78565b5f868152600d602052604081206110d39087613347565b90506111126110fd82604001516110ea8960801c90565b6001600160801b031660809190911b1790565b5f848152600d6020526040902090878761349b565b600160095f8282546111249190615cb6565b92505081905550600954600b5f61115d6040518060600160405280336001600160a01b031681526020018781526020018c8152506134e7565b81526020019081526020015f208190555061117a33600954613519565b6040805160a0810182528381526020810189905282820151909182019060801b81526020016111ad5f6110ea8a60801c90565b81526020016111d48360200151846060015160809190911b6001600160801b039091161790565b815250600a5f60095481526020019081526020015f205f820151815f0155602082015181600101556040820151816002015560608201518160030155608082015181600401559050505f6112597f000000000000000000000000000000000000000000000000000000000000000033846040015160026112549190615cc9565b6136a1565b90507f7f24d62c59fa0f0a64c80fbbd1fce113d877d6c18a97ad6dffe701f290f12384600954848a8989866112a96112918f60801c90565b60408b01516001600160801b031660809190911b1790565b895160608b01516001600160801b031660809190911b17604080519889526020890197909752958701949094526001600160a01b03909216606086015260808501526001600160801b031660a084015260c083015260e08201526101000160405180910390a16001935050505061131f5f612d65565b949350505050565b5f806001600160a01b035f80516020615f428339815191525c161561134a575f80fd5b61135333612d65565b6001600160a01b038316156113df576040516376549e6760e11b81523360048201526001600160a01b0384811660248301527f0000000000000000000000000000000000000000000000000000000000000000169063eca93cce906044015f604051808303815f87803b1580156113c8575f80fd5b505af11580156113da573d5f803e3d5ffd5b505050505b60408051610100810182526001600160801b03881681525f6020808301829052828401829052606083018290528b8252600d8082528483206003808201546080870152905460a08601528c84528183529483209485015460c0850152918b905252905460e0820152611451818761371c565b90505f876001600160801b03161180156114805750866001600160801b0316815f01516001600160801b031614155b801561148c5750878914155b80156114b0575060018515151480156114ae575080516001600160801b031615155b155b6114b8575f80fd5b6020808201515f8a8152600d9092526040909120546114eb916001600160801b031661271060cc9290921c607f16020490565b91508181602001516114fd9190615cf2565b60808201516040808401515f8d8152600d60205291909120929550611523929190613a44565b60c08101515f898152600d6020526040902061153f9184613a44565b805161157b903390611551908a615cf2565b5f8c8152600d60205260409020600201546001600160a01b031691906001600160801b0316612d78565b5f888152600d60205260409020600201546115a9906001600160a01b0316336001600160801b038616613a6b565b87897fa79c43e220b5faf022716b06e757294b799a25f33d3c8b0121e614f7b5d988c43384606001516115fc865f01518d6115e49190615cf2565b60408801516001600160801b031660809190911b1790565b6001600160801b03881660808a901b17604080516001600160a01b0390951685526001600160801b03909316602085015291830152606082015260800160405180910390a35061164b5f612d65565b965096945050505050565b5f818152600260205260408120546001600160a01b0316806108535760405162461bcd60e51b8152602060048201526018602482015277115490cdcc8c4e881a5b9d985b1a59081d1bdad95b88125160421b6044820152606401610980565b606060648351106116c4575f80fd5b5f835167ffffffffffffffff8111156116df576116df6155bb565b604051908082528060200260200182016040528015611708578160200160208202803683370190505b5090505f5b84518110156117a557600d5f86838151811061172b5761172b615d11565b602002602001015181526020019081526020015f206006015f856001600160a01b03166001600160a01b031681526020019081526020015f205f9054906101000a90046001600160801b03166001600160801b031682828151811061179257611792615d11565b602090810291909101015260010161170d565b509392505050565b5f6001600160a01b0382166118165760405162461bcd60e51b815260206004820152602960248201527f4552433732313a2061646472657373207a65726f206973206e6f7420612076616044820152683634b21037bbb732b960b91b6064820152608401610980565b506001600160a01b03165f9081526003602052604090205490565b61183d84848484613046565b50505050565b5f606080828080836118767f00000000000000000000000000000000000000000000000000000000000000006006613afd565b6118a17f00000000000000000000000000000000000000000000000000000000000000006007613afd565b604080515f80825260208201909252600f60f81b9b939a50919850469750309650945092509050565b5f838152600d60205260408120600201546001600160a01b0316611912575f848152600d602052604090206002015461190d906001600160a01b03168385613a6b565b611938565b5f848152600d6020526040902060020154611938906001600160a01b0316338486613ba6565b5060015b9392505050565b6040516394c3c33360e01b81523360048201525f907f00000000000000000000000000000000000000000000000000000000000000006001600160a01b0316906394c3c33390602401602060405180830381865afa1580156119a7573d5f803e3d5ffd5b505050506040513d601f19601f820116820180604052508101906119cb9190615c1f565b6002146119d6575f80fd5b6001600160a01b0382165f818152600e602090815260408083209290925590519182527e4ba2ca448db089eb9fb0b25431f0d57664d46141171fed2476281b578d96d49101610fb6565b60606001805461086790615be7565b5f600160ff1b8216611a3f575f80fd5b611a493384611074565b5f611a796040518060400160405280336001600160a01b03168152602001876001600160a01b03168152506132f9565b5f818152600d60205260409020909150611a959085878661349b565b5f818152600d60205260409020611ab190640100000000612d1b565b600160095f828254611ac39190615cb6565b909155505060408051606081018252338152602081018390525f918101829052611aec906134e7565b6009545f828152600b60205260409020819055909150611b0d903390613519565b611b49825f611b25611b1f8960801c90565b60801b90565b611b2f5f8a6110ea565b6009545f908152600a602052604081209493929190613c4b565b5f611b797f0000000000000000000000000000000000000000000000000000000000000000336112548960801c90565b60095460408051918252602082018690526001600160801b038316908201526001600160a01b03891660608201526080810187905260a081018890529091507f1c22db4272b2564e441961f166415a2651ae43c8d8992212cb4cac04e81f54cc9060c00160405180910390a15060019695505050505050565b610cb4338383613cb9565b5f6001600160a01b035f80516020615f428339815191525c1615611c1f575f80fd5b611c2833612d65565b611c323384612dbd565b611c3a575f80fd5b5f838152600a602052604080822060018101549054915163b88e6d6360e01b815233600482015290929081907f00000000000000000000000000000000000000000000000000000000000000006001600160a01b03169063b88e6d63906024016040805180830381865afa158015611cb4573d5f803e3d5ffd5b505050506040513d601f19601f82011682018060405250810190611cd89190615d25565b6001600160a01b0388165f908152600e60205260409020549193509150600114611d025785611d04565b815b9550806001600160a01b0316866001600160a01b031614611d255780611d27565b815b6001600160a01b0381165f908152600e6020526040902054909150600114611d4f5781611d51565b805b5f858152600d602081815260408084208c8552600a8352818520600c548a8752949093529320939450611d8a9392918a90869088613d86565b604080518581526020810187905290810182905290955087907f172f458c2c853ed38b0114381270db7647bc1f9b612a42852353261a7e3379be9060600160405180910390a2505050506108535f612d65565b611e226040518060c001604052805f81526020015f6001600160a01b031681526020015f6001600160a01b031681526020015f81526020015f81526020015f81525090565b506040805160c0810182525f838152600d60208181528483208054855260018101546001600160a01b0390811683870152600282015416958501959095526003850154606085015260048501546080850152949091529092526005015460a082015290565b5f806001600160a01b035f80516020615f428339815191525c1615611eaa575f80fd5b611eb333612d65565b60408051610100810182526001600160801b03871681525f6020808301829052828401829052606083018290528a8252600d8082528483206003808201546080870152905460a08601528b84528183529483209485015460c0850152918a905252905460e0820152611f258186613e77565b9050868814158015611f3f575080516001600160801b0316155b611f47575f80fd5b6020808201515f8a8152600d909252604090912054611f7a916001600160801b031661271060c59290921c607f16020490565b9150818160200151611f8c9190615c4a565b60c08201516040808401515f8b8152600d60205291909120929550611fb2929190613a44565b60808101515f898152600d60205260409020611fce9184613a44565b61200c84826040015188611fe29190615cf2565b5f8a8152600d60205260409020600201546001600160a01b031691906001600160801b0316613a6b565b5f888152600d602052604090206002015461203a906001600160a01b0316336001600160801b038616612d78565b86887f3de590341c976ea6fce618ef4a768a15441201ad3ed7c9b438d82c3951de7ced338785606001516120828c886040015160809190911b6001600160801b039091161790565b604080516001600160a01b0395861681529390941660208401526001600160801b03918216838501526060830152608089811b918916919091179082015290519081900360a00190a3506120d55f612d65565b9550959350505050565b5f838152600d6020526040808220600390810154858452918320015461131f9190846140c0565b6040516394c3c33360e01b81523360048201525f907f00000000000000000000000000000000000000000000000000000000000000006001600160a01b0316906394c3c33390602401602060405180830381865afa15801561216a573d5f803e3d5ffd5b505050506040513d601f19601f8201168201806040525081019061218e9190615c1f565b600214612199575f80fd5b6001600160a01b0382165f818152600e60209081526040918290206001905590519182527f8e1c2d1a5dce36a56a9dfcb96e5816e793c16d6c897b4e3c0b1f99588bb88a1c9101610fb6565b6121ef3383612dbd565b61220b5760405162461bcd60e51b815260040161098090615c69565b5f828152600a602052604090206002015461224c907f000000000000000000000000000000000000000000000000000000000000000090869060801c612e39565b6122588484848461414b565b61183d828585612ec2565b606061226e82612c4d565b5f61227761417e565b90505f8151116122955760405180602001604052805f81525061193c565b8061229f8461419e565b6040516020016122b0929190615d69565b6040516020818303038152906040529392505050565b5f6001600160a01b035f80516020615f428339815191525c16156122e8575f80fd5b6122f133612d65565b604080516080810182525f808252602082018190529181018290526060810191909152604080516080810182525f8082526020820181905291810182905260608101919091525f868152600d60205260409020600301546001606d1b90612359908690615c4a565b6001600160801b0316111580156123705750848614155b80156123aa57505f868152600d6020526040902054600160ff1b161515806123aa57505f858152600d6020526040902054600160ff1b1615155b6123b2575f80fd5b5f868152600d602052604090206123c99085613347565b5f878152600d60205260409020600201549092506123fa906001600160a01b0316336001600160801b038716612d78565b84156124a4576040808301515f878152600d60205291909120600301546124209161422e565b6001600160801b0316606082018190525f868152600d602052604090205460d91c603f16612710908103909104026001600160801b0316606082018190525f868152600d6020526040902060020154612486916001600160a01b03909116903390612d78565b60608101515f868152600d602052604090206124a191613347565b90505b5f6124d16040518060600160405280336001600160a01b03168152602001898152602001888152506134e7565b5f818152600b602052604081205491925081900361252357600160095f8282546124fb9190615cb6565b9250508190555061250e33600954613519565b506009545f828152600b602052604090208190555b604084015161257e908990899060801b602088015160608901516001600160801b031660809190911b17602088015160608901516001600160801b031660809190911b175f878152600a602052604090209493929190613c4b565b5f871561259a576040850151612595906002615cc9565b6125a0565b84604001515b90505f6125ce7f000000000000000000000000000000000000000000000000000000000000000033846136a1565b9050827f54327712026ec7eff19c69f41b88780daaa74a97ae2dcfa56a1de52fb0e07fcd8b8b6126128a604001518660809190911b6001600160801b039091161790565b8a5160608c01516001600160801b031660809190911b178a5160608c01516001600160801b031660809190911b17604080519586526020860194909452928401919091526060830152608082015260a00160405180910390a26001965050505050505061193c5f612d65565b5f6001600160a01b035f80516020615f428339815191525c16156126a0575f80fd5b6126a933612d65565b6126b33385612dbd565b6126bb575f80fd5b604080516060810182525f8082526020820181905291810191909152604080516060810182525f80825260208201819052918101919091525f868152600a60205260408082208054600190910154915163b88e6d6360e01b8152336004820152909290819081907f00000000000000000000000000000000000000000000000000000000000000006001600160a01b03169063b88e6d63906024016040805180830381865afa158015612770573d5f803e3d5ffd5b505050506040513d601f19601f820116820180604052508101906127949190615d25565b6001600160a01b038b165f908152600e602052604090205491935091506001146127be57816127c0565b885b9850806001600160a01b0316896001600160a01b0316146127e157806127e3565b815b6001600160a01b0381165f908152600e602052604090205490915060011461280b578161280d565b805b90506128a2600d5f8681526020019081526020015f20600a5f8e81526020019081526020015f206040518060a001604052808e6001600160801b031681526020018d6001600160a01b03168152602001856001600160a01b03168152602001600c548152602001866001600160a01b0316815250600d5f8a81526020019081526020015f2061425e909392919063ffffffff16565b9198509650925083156128bd576128ba836002615cc9565b92505b6128e87f00000000000000000000000000000000000000000000000000000000000000003385612e39565b8a7f4741de4d43f1462a092cdf2a25cfc5d5bdf2c96f169d5e64121e800b6fc417ee8686608087901b60208c015160408d01516001600160801b031660809190911b1760208c015160408d01516001600160801b031660809190911b178d518d516001600160801b031660809190911b17604080519687526020870195909552938501929092526060840152608083015260a082015260c00160405180910390a2600197505050505050505061193c5f612d65565b60648151106129aa575f80fd5b5f815167ffffffffffffffff8111156129c5576129c56155bb565b6040519080825280602002602001820160405280156129ee578160200160208202803683370190505b5090505f5b8251811015612bcc57600d5f848381518110612a1157612a11615d11565b60209081029190910181015182528181019290925260409081015f90812033825260060190925290205482516001600160801b0390911690839083908110612a5b57612a5b615d11565b6020026020010181815250506002828281518110612a7b57612a7b615d11565b60200260200101511015612aad575f828281518110612a9c57612a9c615d11565b602002602001018181525050612bc4565b6001828281518110612ac157612ac1615d11565b6020026020010151612ad39190615d7d565b828281518110612ae557612ae5615d11565b6020026020010181815250506001600d5f858481518110612b0857612b08615d11565b602002602001015181526020019081526020015f206006015f336001600160a01b03166001600160a01b031681526020019081526020015f205f6101000a8154816001600160801b0302191690836001600160801b03160217905550612bc433838381518110612b7a57612b7a615d11565b6020026020010151600d5f878681518110612b9757612b97615d11565b60209081029190910181015182528101919091526040015f20600201546001600160a01b03169190613a6b565b6001016129f3565b507f8124a8d085ceb98e89ac6906c6e138dca5fdbc28a91438e33d7a2ab6c75742fd8282604051610e43929190615d90565b5f6001600160e01b031982166380ac58cd60e01b1480612c2e57506001600160e01b03198216635b5e139f60e01b145b8061085357506301ffc9a760e01b6001600160e01b0319831614610853565b5f818152600260205260409020546001600160a01b0316612cab5760405162461bcd60e51b8152602060048201526018602482015277115490cdcc8c4e881a5b9d985b1a59081d1bdad95b88125160421b6044820152606401610980565b50565b5f81815260046020526040902080546001600160a01b0319166001600160a01b0384169081179091558190612ce282611656565b6001600160a01b03167f8c5be1e5ebec7d5bd14f71427d1e84f3dd0314c0f7b2291e5b200ac8c7c3b92560405160405180910390a45050565b815460df82901b90612d3290600160df1b90615dc8565b612d3c9190615cb6565b90915550565b81546001600160df1b0390911690612d3c9082906001600160df1b031916615cb6565b805f80516020615f428339815191525d50565b3061183d84848385613ba6565b5f608082811d9084901d016001600160801b0383811690851601612db4612dab83614762565b6110ea83614762565b95945050505050565b5f80612dc883611656565b9050806001600160a01b0316846001600160a01b03161480612e0e57506001600160a01b038082165f9081526005602090815260408083209388168352929052205460ff165b8061131f5750836001600160a01b0316612e27846108e8565b6001600160a01b031614949350505050565b604051637bd3ca3560e01b81526001600160a01b0383811660048301526001600160801b0383166024830152841690637bd3ca35906044015f604051808303815f87803b158015612e88575f80fd5b505af1158015612e9a573d5f803e3d5ffd5b50505050505050565b5f81815260086020526040902080546001019055610a2183838361477c565b5f600a5f8581526020019081526020015f206040518060a00160405290815f820154815260200160018201548152602001600282015481526020016003820154815260200160048201548152505090505f612f466040518060600160405280866001600160a01b03168152602001845f0151815260200184602001518152506134e7565b90505f612f7c6040518060600160405280866001600160a01b03168152602001855f0151815260200185602001518152506134e7565b9050612fb17f000000000000000000000000000000000000000000000000000000000000000085611254866040015160801c90565b505f818152600b602052604081205490819003612fe2575f838152600b602052604080822054848352912055613030565b5f878152600a60205260408082208383529120612ffe916148de565b5f878152600a602052604081208181556001810182905560028101829055600381018290556004015561303087614930565b50505f908152600b602052604081205550505050565b814211156130965760405162461bcd60e51b815260206004820152601e60248201527f4552433732315065726d69743a206578706972656420646561646c696e6500006044820152606401610980565b5f8381526008602090815260408083205481517f0000000000000000000000000000000000000000000000000000000000000000818501526001600160a01b0389168184015260608101889052608081019190915260a08082018790528251808303909101815260c0909101909152805191012090613114826149c2565b90505f61312182856149ee565b5090505f6001600160a01b0382161580159061314257506131428288612dbd565b9050808061315e575061315e61315788611656565b8487614a30565b806131705750613170613157886108e8565b6131bc5760405162461bcd60e51b815260206004820152601f60248201527f4552433732315065726d69743a20696e76616c6964207369676e6174757265006044820152606401610980565b6131c68888612cae565b5050505050505050565b5f306001600160a01b037f00000000000000000000000000000000000000000000000000000000000000001614801561322857507f000000000000000000000000000000000000000000000000000000000000000046145b1561325257507f000000000000000000000000000000000000000000000000000000000000000090565b610e58604080517f8b73c3c69bb8fe3d512ecc4cf759cc79239f7b179b0ffacaa9a75d522b39400f60208201527f0000000000000000000000000000000000000000000000000000000000000000918101919091527f000000000000000000000000000000000000000000000000000000000000000060608201524660808201523060a08201525f9060c00160405160208183030381529060405280519060200120905090565b5f81604051602001613329919081516001600160a01b039081168252602092830151169181019190915260400190565b60408051601f19818403018152919052805160209091012092915050565b604080516080810182525f808252602082018190529181018290526060810191909152825461338b906001600160801b03841661271060d99290921c603f16020490565b6001600160801b03168082526133a19083615cf2565b6001600160801b03166060820181905260038401546133bf91614b21565b6001600160801b03166040820152606081015160058401546133f391906133ed9060801c60048701546110ea565b90614b21565b6001600160801b0316602082018190526005840154825161343492610c469161341c9190615c4a565b60208501516001600160801b031660809190911b1790565b6005840155600383015460408201516060830151613461929160801b6001600160801b0390911617612d85565b600384015560048301546040820151606083015161348e929160801b6001600160801b0390911617612d85565b6004909301929092555090565b6003840183905560048401929092556001600160df1b0390911682556002820180546001600160a01b039092166001600160a01b03199283161790556001909101805490911633179055565b6040805182516001600160a01b0316602080830191909152830151818301529082015160608201525f90608001613329565b6001600160a01b03821661356f5760405162461bcd60e51b815260206004820181905260248201527f4552433732313a206d696e7420746f20746865207a65726f20616464726573736044820152606401610980565b5f818152600260205260409020546001600160a01b0316156135d35760405162461bcd60e51b815260206004820152601c60248201527f4552433732313a20746f6b656e20616c7265616479206d696e746564000000006044820152606401610980565b5f818152600260205260409020546001600160a01b0316156136375760405162461bcd60e51b815260206004820152601c60248201527f4552433732313a20746f6b656e20616c7265616479206d696e746564000000006044820152606401610980565b6001600160a01b0382165f81815260036020908152604080832080546001019055848352600290915280822080546001600160a01b0319168417905551839291907fddf252ad1be2c89b69c2b068fc378daa952ba7f163c4a11628f55a4df523b3ef908290a45050565b60405163067e356d60e21b81526001600160a01b0383811660048301526001600160801b03831660248301525f91908516906319f8d5b4906044016020604051808303815f875af11580156136f8573d5f803e3d5ffd5b505050506040513d601f19601f8201168201806040525081019061131f9190615ddb565b6137246153f5565b61373783608001518460c00151846140c0565b613742575081610853565b825160a08401515f91829161376b916001600160801b031661271060c59290921c607f16020490565b6001600160801b0316604086018190528551869061378a908390615cf2565b6001600160801b03169052505b84516001600160801b0316158015906137be57506137be85608001518660c00151866140c0565b156139ac576137df6137d48660c0015160801c90565b60e087015190614b49565b6001600160801b03166138046137f9876080015160801c90565b60a088015190614b49565b6001600160801b031610156138345761382f613824866080015160801c90565b60a087015190614b49565b613845565b6138456137d48660c0015160801c90565b6080860151909250613857908361422e565b9050806001600160801b0316855f01516001600160801b031611156139095780855f018181516138879190615cf2565b6001600160801b031690525060c08501516138a2908361422e565b856020018181516138b39190615c4a565b6001600160801b039081169091526080878101516138de93509184169085901b17614b78565b614b78565b608086015260c08501516138ff906138fa846110ea838261422e565b614b9e565b60c0860152613989565b8451608086015161391991614b21565b60c086015190925061392b908361422e565b8560200181815161393c9190615c4a565b6001600160801b03908116909152608087810151885161396494509092169085901b17614b78565b608086015260c0850151613980906138fa846110ea838261422e565b60c08601525f85525b818560600181815161399b9190615c4a565b6001600160801b0316905250613797565b84516001600160801b031615613a3b57845160a08601516139e1916001600160801b031661271060c59290921c607f16020490565b856040018181516139f29190615cf2565b6001600160801b03908116909152865160a0880151613a1f9350911661271060c59290921c607f16020490565b85518690613a2e908390615c4a565b6001600160801b03169052505b50929392505050565b600383018290556005830154613a5e90608083901b612d85565b8360050181905550505050565b5f6001600160a01b038416613aa7575f805f8085875af1905080613aa257604051633d2cec6f60e21b815260040160405180910390fd5b61183d565b60405163a9059cbb60e01b5f52836004528260245260205f60445f80895af13d15601f3d1160015f511416171691505f60605280604052508061183d57604051633c9fd93960e21b815260040160405180910390fd5b606060ff8314613b1757613b1083614bc4565b9050610853565b818054613b2390615be7565b80601f0160208091040260200160405190810160405280929190818152602001828054613b4f90615be7565b8015613b9a5780601f10613b7157610100808354040283529160200191613b9a565b820191905f5260205f20905b815481529060010190602001808311613b7d57829003601f168201915b50505050509050610853565b5f6001600160a01b038516613bda57813414613bd557604051633d2cec6f60e21b815260040160405180910390fd5b613c44565b6040516323b872dd60e01b81526001600160a01b03851660048201526001600160a01b038416602482015282604482015260205f6064835f8a5af13d15601f3d1160015f511416171691505080613c4457604051633c9fd93960e21b815260040160405180910390fd5b5050505050565b60038601546001600160801b03165f03613c63578486555b8315613c7157600186018490555b613c7f866002015484612d85565b60028701556003860154613c939083612d85565b60038701558315610d4d57613cac866004015482612d85565b6004870155505050505050565b816001600160a01b0316836001600160a01b031603613d1a5760405162461bcd60e51b815260206004820152601960248201527f4552433732313a20617070726f766520746f2063616c6c6572000000000000006044820152606401610980565b6001600160a01b038381165f81815260056020908152604080832094871680845294825291829020805460ff191686151590811790915591519182527f17307eab39ab6107e8899845ad3d59bd9653f200f220920489ca2b5937696c31910160405180910390a3505050565b5f80613d96876003015460801c90565b613dbf613da4896003015490565b6133ed613db58d6005015460801c90565b60048e01546110ea565b613dc99190615cf2565b60058a0154909150613de4906001600160801b038316612d85565b60058a0155613df88982868989885f614c01565b5f613e07886004015460801c90565b613e15613da48a6004015490565b613e1f9190615cf2565b60058a0154909150613e3a906001600160801b038316612d85565b60058a0155613e4e8982878a8a895f614c01565b6001600160801b038116608083901b179250613e6a8884614faf565b5050979650505050505050565b613e7f6153f5565b613e9283608001518460c00151846140c0565b15613e9e575081610853565b825160e08401515f918291613ec7916001600160801b031661271060cc9290921c607f16020490565b6001600160801b031660408601525b84516001600160801b031615801590613efd5750613efd85608001518660c00151866140c0565b15613a3b57613f136137d48660c0015160801c90565b6001600160801b0316613f2d6137f9876080015160801c90565b6001600160801b03161015613f5257613f4d613824866080015160801c90565b613f63565b613f636137d48660c0015160801c90565b60c0860151909250613f75908361422e565b9050806001600160801b0316855f01516001600160801b0316111561401d5780855f01818151613fa59190615cf2565b6001600160801b03169052506080850151613fc0908361422e565b85602001818151613fd19190615c4a565b6001600160801b0390811690915260c0870151613ff79250908316608085901b17614b9e565b60c08601526080850151614013906138d9846110ea838261422e565b608086015261409d565b845160c086015161402d91614b21565b608086015190925061403f908361422e565b856020018181516140509190615c4a565b6001600160801b0390811690915260c087015187516140789350909116608085901b17614b9e565b60c08601526080850151614094906138d9846110ea838261422e565b60808601525f85525b81856060018181516140af9190615c4a565b6001600160801b0316905250613ed6565b5f6140cb8260801c90565b6001600160801b03166140de8460801c90565b6001600160801b0316856001600160801b03166140fb9190615df6565b6141059190615df6565b826001600160801b0316846001600160801b03166141238760801c90565b6001600160801b03166141369190615df6565b6141409190615df6565b11611938575f61131f565b614156848484612ea3565b61416284848484614fe5565b61183d5760405162461bcd60e51b815260040161098090615e0d565b6060604051806060016040528060218152602001615f6260219139905090565b60605f6141aa836150df565b60010190505f8167ffffffffffffffff8111156141c9576141c96155bb565b6040519080825280601f01601f1916602001820160405280156141f3576020820181803683370190505b5090508181016020015b5f19016f181899199a1a9b1b9c1cb0b131b232b360811b600a86061a8153600a85049450846141fd57509392505050565b5f61193c836001600160801b0316836001600160801b03166142508660801c90565b6001600160801b03166151b6565b604080516060810182525f8082526020820181905291810191909152604080516060810182525f80825260208201819052918101919091525f6142b9845f01516133ed6142af886002015460801c90565b60038901546110ea565b905060405180606001604052806142e8865f01516133ed6142de8c6005015460801c90565b60048d01546110ea565b6001600160801b03168152602001614318865f01516133ed61430e8a6003015460801c90565b60038b01546110ea565b6001600160801b0390811682528651166020909101528754909350600160ff1b1615158061434c57508554600160ff1b1615155b8015614381575061436c614364886003015460801c90565b8854906151c7565b6001600160801b0316816001600160801b0316105b80156143ae5750614396614364886003015490565b6001600160801b0316845f01516001600160801b0316105b6143e35760405162461bcd60e51b8152600401610980906020808252600490820152634730313160e01b604082015260600190565b6003870154604084015161440691906001600160801b0316608084901b176151eb565b60038801556004870154604084015161442e91906001600160801b0316608084901b176151eb565b6004880155600587015483516020850151614458929160801b6001600160801b03909116176151eb565b60058801556144678582615211565b602083015183516144789190615cf2565b6001600160801b039081168452604084015188546144a49290911661271060d39290921c603f16020490565b6001600160801b03166020808501829052845160608701519187015160408089015160808a0151918901516144e7968e969493916144e29190615cf2565b614c01565b60208301516001600160801b0316156145175760058701546020840151614511919060801b612d85565b60058801555b60018501541561475857604051806060016040528061454b836133ed6145418b6005015460801c90565b60048c01546110ea565b6001600160801b03168152602001614578836133ed61456e8a6004015460801c90565b60048b01546110ea565b6001600160801b031681526020016145a18361459b61456e8a6002015460801c90565b9061422e565b6001600160801b031681525091506145c86145c0876003015460801c90565b8754906151c7565b6001600160801b0316816001600160801b031610801561460a57506145f16145c0876003015490565b6001600160801b031682604001516001600160801b0316105b61463f5760405162461bcd60e51b8152600401610980906020808252600490820152632398189960e11b604082015260600190565b6003860154604083015161466291906001600160801b0316608084901b176151eb565b60038701556004860154604083015161468a91906001600160801b0316608084901b176151eb565b60048701556005860154825160208401516146b4929160801b6001600160801b03909116176151eb565b6005870155602082015182516146ca9190615cf2565b6001600160801b039081168352604083015187546146f69290911661271060d39290921c603f16020490565b6001600160801b031660208301819052156147285760058601546020830151614722919060801b612d85565b60058701555b61475886835f01518660600151876020015188604001518960800151886020015189604001516144e29190615cf2565b9450945094915050565b5f6001600160801b03821115614778575f610853565b5090565b826001600160a01b031661478f82611656565b6001600160a01b0316146147b55760405162461bcd60e51b815260040161098090615e5f565b6001600160a01b0382166148175760405162461bcd60e51b8152602060048201526024808201527f4552433732313a207472616e7366657220746f20746865207a65726f206164646044820152637265737360e01b6064820152608401610980565b826001600160a01b031661482a82611656565b6001600160a01b0316146148505760405162461bcd60e51b815260040161098090615e5f565b5f81815260046020908152604080832080546001600160a01b03199081169091556001600160a01b038781168086526003855283862080545f1901905590871680865283862080546001019055868652600290945282852080549092168417909155905184937fddf252ad1be2c89b69c2b068fc378daa952ba7f163c4a11628f55a4df523b3ef91a4505050565b6148f082600201548260020154612d85565b826002018190555061490a82600301548260030154612d85565b826003018190555061492482600401548260040154612d85565b82600401819055505050565b5f61493a82611656565b905061494582611656565b5f83815260046020908152604080832080546001600160a01b03199081169091556001600160a01b0385168085526003845282852080545f190190558785526002909352818420805490911690555192935084927fddf252ad1be2c89b69c2b068fc378daa952ba7f163c4a11628f55a4df523b3ef908390a45050565b5f6108536149ce6131d0565b8360405161190160f01b8152600281019290925260228201526042902090565b5f808251604103614a22576020830151604084015160608501515f1a614a1687828585615311565b94509450505050614a29565b505f905060025b9250929050565b5f805f856001600160a01b0316631626ba7e60e01b8686604051602401614a58929190615ea4565b60408051601f198184030181529181526020820180516001600160e01b03166001600160e01b0319909416939093179092529051614a969190615ebc565b5f60405180830381855afa9150503d805f8114614ace576040519150601f19603f3d011682016040523d82523d5f602084013e614ad3565b606091505b5091509150818015614ae6575080516020145b8015614b1757508051630b135d3f60e11b90614b0b9083016020908101908401615ec7565b6001600160e01b031916145b9695505050505050565b5f61193c614b2f8460801c90565b6001600160801b0316836001600160801b03166142508690565b5f6103ff60bb84901c16808203614b635782915050610853565b614b6e816040615cc9565b61131f9084615ee2565b5f608082811d9084901d036001600160801b0383811690851601612db4612dab83614762565b5f608082811d9084901d016001600160801b0383811690851603612db4612dab83614762565b60605f614bd0836153ce565b6040805160208082528183019092529192505f91906020820181803683375050509182525060208101929092525090565b60646001600160801b03871660dd87901c601f160204614c218188615cf2565b965060646001600160801b03881660fa88901c81028290049160f489901c603f90811683028290049260ee8b901c821681028390049260e88c901c831682028190049260e28d901c16909102046001600160a01b038916614daa57614cc233614c8a8988615c4a565b6001600160801b03168f6002015f9054906101000a90046001600160a01b03166001600160a01b0316613a6b9092919063ffffffff16565b614ccc8185615c4a565b6001600160a01b038b165f90815260068f01602052604081208054909190614cfe9084906001600160801b0316615c4a565b92506101000a8154816001600160801b0302191690836001600160801b03160217905550858185878f614d319190615cf2565b614d3b9190615cf2565b614d459190615cf2565b614d4f9190615c4a565b6001600160a01b0389165f90815260068f01602052604081208054909190614d819084906001600160801b0316615c4a565b92506101000a8154816001600160801b0302191690836001600160801b03160217905550614fa0565b60018d01546001600160a01b03898116911614614e205760018d01546001600160a01b03165f90815260068e01602052604081208054869290614df79084906001600160801b0316615c4a565b92506101000a8154816001600160801b0302191690836001600160801b03160217905550614e2d565b614e2a8487615c4a565b95505b876001600160a01b03168a6001600160a01b031614614ea1576001600160a01b038a165f90815260068e01602052604081208054859290614e789084906001600160801b0316615c4a565b92506101000a8154816001600160801b0302191690836001600160801b03160217905550614eae565b614eab8387615c4a565b95505b876001600160a01b0316896001600160a01b031614614f22576001600160a01b0389165f90815260068e01602052604081208054849290614ef99084906001600160801b0316615c4a565b92506101000a8154816001600160801b0302191690836001600160801b03160217905550614f2f565b614f2c8287615c4a565b95505b6001600160a01b0388165f90815260068e01602052604081208054889290614f619084906001600160801b0316615c4a565b92506101000a8154816001600160801b0302191690836001600160801b03160217905550614fa033888388614f969190615c4a565b614c8a9190615c4a565b50505050505050505050505050565b614fc48260030154610c46611b1f8460801c90565b6003830155600182015415610cb4576149248260040154610c46611b1f8490565b5f6001600160a01b0384163b156150d757604051630a85bd0160e11b81526001600160a01b0385169063150b7a0290615028903390899088908890600401615f0f565b6020604051808303815f875af1925050508015615062575060408051601f3d908101601f1916820190925261505f91810190615ec7565b60015b6150bd573d80801561508f576040519150601f19603f3d011682016040523d82523d5f602084013e615094565b606091505b5080515f036150b55760405162461bcd60e51b815260040161098090615e0d565b805181602001fd5b6001600160e01b031916630a85bd0160e11b14905061131f565b50600161131f565b5f8072184f03e93ff9f4daa797ed6e38ed64bf6a1f0160401b831061511d5772184f03e93ff9f4daa797ed6e38ed64bf6a1f0160401b830492506040015b6d04ee2d6d415b85acef81000000008310615149576d04ee2d6d415b85acef8100000000830492506020015b662386f26fc10000831061516757662386f26fc10000830492506010015b6305f5e100831061517f576305f5e100830492506008015b612710831061519357612710830492506004015b606483106151a5576064830492506002015b600a83106108535760010192915050565b918102915f818404612db481614762565b5f6103ff60b184901c168082036151e15782915050610853565b61131f8184615ee2565b5f608082811d9084901d036001600160801b0383811690851603612db4612dab83614762565b5f615276615247615226856003015460801c90565b6001600160801b0316846001600160801b0316614250876002015460801c90565b6110ea615255866003015490565b6001600160801b0316856001600160801b0316614250886002015460801c90565b905082600101545f146152de575f6152c7615298615255866004015460801c90565b6110ea6152a6876004015490565b6001600160801b0316866001600160801b0316614250896002015460801c90565b90506152d78460040154826151eb565b6004850155505b6152ec8360030154826151eb565b6003840155600283015461530490608084901b6151eb565b8360020181905550505050565b5f807f7fffffffffffffffffffffffffffffff5d576e7357a4501ddfe92f46681b20a083111561534657505f905060036153c5565b604080515f8082526020820180845289905260ff881692820192909252606081018690526080810185905260019060a0016020604051602081039080840390855afa158015615397573d5f803e3d5ffd5b5050604051601f1901519150506001600160a01b0381166153bf575f600192509250506153c5565b91505f90505b94509492505050565b5f60ff8216601f81111561085357604051632cd44ac360e21b815260040160405180910390fd5b6040518061010001604052805f6001600160801b031681526020015f6001600160801b031681526020015f6001600160801b031681526020015f6001600160801b031681526020015f81526020015f81526020015f81526020015f81525090565b6001600160e01b031981168114612cab575f80fd5b5f6020828403121561547b575f80fd5b813561193c81615456565b5f81518084528060208401602086015e5f602082860101526020601f19601f83011685010191505092915050565b602081525f61193c6020830184615486565b5f602082840312156154d6575f80fd5b5035919050565b6001600160a01b0381168114612cab575f80fd5b5f8060408385031215615502575f80fd5b823561550d816154dd565b946020939093013593505050565b5f806040838503121561552c575f80fd5b50508035926020909101359150565b6001600160801b0381168114612cab575f80fd5b5f8060408385031215615560575f80fd5b8235915060208301356155728161553b565b809150509250929050565b5f805f6060848603121561558f575f80fd5b833561559a816154dd565b925060208401356155aa816154dd565b929592945050506040919091013590565b634e487b7160e01b5f52604160045260245ffd5b604051601f8201601f1916810167ffffffffffffffff811182821017156155f8576155f86155bb565b604052919050565b5f82601f83011261560f575f80fd5b813567ffffffffffffffff811115615629576156296155bb565b61563c601f8201601f19166020016155cf565b818152846020838601011115615650575f80fd5b816020850160208301375f918101602001919091529392505050565b5f805f805f8060c08789031215615681575f80fd5b863561568c816154dd565b9550602087013561569c816154dd565b945060408701359350606087013567ffffffffffffffff8111156156be575f80fd5b6156ca89828a01615600565b9350506080870135915060a087013567ffffffffffffffff8111156156ed575f80fd5b6156f989828a01615600565b9150509295509295509295565b5f60208284031215615716575f80fd5b813561193c816154dd565b5f8060408385031215615732575f80fd5b823591506020830135615572816154dd565b5f805f8060808587031215615757575f80fd5b84359350602085013592506040850135615770816154dd565b9396929550929360600135925050565b80358015158114610fc2575f80fd5b5f805f805f8060c087890312156157a4575f80fd5b863595506020870135945060408701356157bd8161553b565b9350606087013592506157d260808801615780565b915060a08701356157e2816154dd565b809150509295509295509295565b5f82601f8301126157ff575f80fd5b813567ffffffffffffffff811115615819576158196155bb565b8060051b615829602082016155cf565b91825260208185018101929081019086841115615844575f80fd5b6020860192505b83831015614b1757823582526020928301929091019061584b565b5f8060408385031215615877575f80fd5b823567ffffffffffffffff81111561588d575f80fd5b615899858286016157f0565b9250506020830135615572816154dd565b5f8151808452602084019350602083015f5b828110156158da5781518652602095860195909101906001016158bc565b5093949350505050565b602081525f61193c60208301846158aa565b5f805f8060808587031215615909575f80fd5b8435615914816154dd565b93506020850135925060408501359150606085013567ffffffffffffffff81111561593d575f80fd5b61594987828801615600565b91505092959194509250565b60ff60f81b8816815260e060208201525f61597360e0830189615486565b82810360408401526159858189615486565b606084018890526001600160a01b038716608085015260a0840186905283810360c085015290506159b681856158aa565b9a9950505050505050505050565b5f805f606084860312156159d6575f80fd5b833592506020840135915060408401356159ef816154dd565b809150509250925092565b5f805f60608486031215615a0c575f80fd5b8335615a17816154dd565b95602085013595506040909401359392505050565b5f8060408385031215615a3d575f80fd5b8235615a48816154dd565b9150615a5660208401615780565b90509250929050565b5f805f805f60a08688031215615a73575f80fd5b85359450602086013593506040860135615a8c8161553b565b9250606086013591506080860135615aa3816154dd565b809150509295509295909350565b5f805f60608486031215615ac3575f80fd5b505081359360208301359350604090920135919050565b5f805f8060808587031215615aed575f80fd5b8435615af8816154dd565b93506020850135615b08816154dd565b925060408501359150606085013567ffffffffffffffff81111561593d575f80fd5b5f8060408385031215615b3b575f80fd5b8235615b46816154dd565b91506020830135615572816154dd565b5f805f60608486031215615b68575f80fd5b833592506020840135915060408401356159ef8161553b565b5f805f60608486031215615b93575f80fd5b833592506020840135615ba58161553b565b915060408401356159ef816154dd565b5f60208284031215615bc5575f80fd5b813567ffffffffffffffff811115615bdb575f80fd5b61131f848285016157f0565b600181811c90821680615bfb57607f821691505b602082108103615c1957634e487b7160e01b5f52602260045260245ffd5b50919050565b5f60208284031215615c2f575f80fd5b5051919050565b634e487b7160e01b5f52601160045260245ffd5b6001600160801b03818116838216019081111561085357610853615c36565b6020808252602d908201527f4552433732313a2063616c6c6572206973206e6f7420746f6b656e206f776e6560408201526c1c881bdc88185c1c1c9bdd9959609a1b606082015260800190565b8082018082111561085357610853615c36565b6001600160801b038181168382160290811690818114615ceb57615ceb615c36565b5092915050565b6001600160801b03828116828216039081111561085357610853615c36565b634e487b7160e01b5f52603260045260245ffd5b5f8060408385031215615d36575f80fd5b8251615d41816154dd565b6020840151909250615572816154dd565b5f81518060208401855e5f93019283525090919050565b5f61131f615d778386615d52565b84615d52565b8181038181111561085357610853615c36565b604081525f615da260408301856158aa565b8281036020840152612db481856158aa565b634e487b7160e01b5f52601260045260245ffd5b5f82615dd657615dd6615db4565b500690565b5f60208284031215615deb575f80fd5b815161193c8161553b565b808202811582820484141761085357610853615c36565b60208082526032908201527f4552433732313a207472616e7366657220746f206e6f6e20455243373231526560408201527131b2b4bb32b91034b6b83632b6b2b73a32b960711b606082015260800190565b60208082526025908201527f4552433732313a207472616e736665722066726f6d20696e636f72726563742060408201526437bbb732b960d91b606082015260800190565b828152604060208201525f61131f6040830184615486565b5f61193c8284615d52565b5f60208284031215615ed7575f80fd5b815161193c81615456565b5f6001600160801b03831680615efa57615efa615db4565b806001600160801b0384160491505092915050565b6001600160a01b03858116825284166020820152604081018390526080606082018190525f90614b179083018461548656fecfdbe78f31bc5efa50605e8b11a7b6843971370ea97eb24de6e1a1eb9d235645687474703a2f2f7777772e7474737761702e696f2f6e66743f70726f6f6669643da26469706673582212208493da088a8ea2b4736ccd7b076abb7cb6a8a739861f92dca3ed80530527aed664736f6c634300081a0033",
			"opcodes": "PUSH2 0x1A0 PUSH1 0x40 MSTORE PUSH32 0x49ECF333E5B8C95C40FDAFC95C1AD136E8914A8FB55E9DC8BB01EAA83A2DF9AD PUSH2 0x160 MSTORE CALLVALUE DUP1 ISZERO PUSH2 0x35 JUMPI PUSH0 DUP1 REVERT JUMPDEST POP PUSH1 0x40 MLOAD PUSH2 0x6475 CODESIZE SUB DUP1 PUSH2 0x6475 DUP4 CODECOPY DUP2 ADD PUSH1 0x40 DUP2 SWAP1 MSTORE PUSH2 0x54 SWAP2 PUSH2 0x212 JUMP JUMPDEST DUP2 DUP2 DUP1 PUSH1 0x40 MLOAD DUP1 PUSH1 0x40 ADD PUSH1 0x40 MSTORE DUP1 PUSH1 0x7 DUP2 MSTORE PUSH1 0x20 ADD PUSH7 0x151514C8139195 PUSH1 0xCA SHL DUP2 MSTORE POP PUSH1 0x40 MLOAD DUP1 PUSH1 0x40 ADD PUSH1 0x40 MSTORE DUP1 PUSH1 0x3 DUP2 MSTORE PUSH1 0x20 ADD PUSH3 0x545453 PUSH1 0xE8 SHL DUP2 MSTORE POP DUP2 PUSH1 0x40 MLOAD DUP1 PUSH1 0x40 ADD PUSH1 0x40 MSTORE DUP1 PUSH1 0x1 DUP2 MSTORE PUSH1 0x20 ADD PUSH1 0x31 PUSH1 0xF8 SHL DUP2 MSTORE POP DUP4 DUP4 DUP2 PUSH0 SWAP1 DUP2 PUSH2 0xBE SWAP2 SWAP1 PUSH2 0x2E4 JUMP JUMPDEST POP PUSH1 0x1 PUSH2 0xCB DUP3 DUP3 PUSH2 0x2E4 JUMP JUMPDEST POP PUSH2 0xDB SWAP2 POP DUP4 SWAP1 POP PUSH1 0x6 PUSH2 0x19A JUMP JUMPDEST PUSH2 0x120 MSTORE PUSH2 0xEA DUP2 PUSH1 0x7 PUSH2 0x19A JUMP JUMPDEST PUSH2 0x140 MSTORE DUP2 MLOAD PUSH1 0x20 DUP1 DUP5 ADD SWAP2 SWAP1 SWAP2 KECCAK256 PUSH1 0xE0 MSTORE DUP2 MLOAD SWAP1 DUP3 ADD KECCAK256 PUSH2 0x100 MSTORE CHAINID PUSH1 0xA0 MSTORE PUSH2 0x176 PUSH1 0xE0 MLOAD PUSH2 0x100 MLOAD PUSH1 0x40 DUP1 MLOAD PUSH32 0x8B73C3C69BB8FE3D512ECC4CF759CC79239F7B179B0FFACAA9A75D522B39400F PUSH1 0x20 DUP3 ADD MSTORE SWAP1 DUP2 ADD SWAP3 SWAP1 SWAP3 MSTORE PUSH1 0x60 DUP3 ADD MSTORE CHAINID PUSH1 0x80 DUP3 ADD MSTORE ADDRESS PUSH1 0xA0 DUP3 ADD MSTORE PUSH0 SWAP1 PUSH1 0xC0 ADD PUSH1 0x40 MLOAD PUSH1 0x20 DUP2 DUP4 SUB SUB DUP2 MSTORE SWAP1 PUSH1 0x40 MSTORE DUP1 MLOAD SWAP1 PUSH1 0x20 ADD KECCAK256 SWAP1 POP SWAP1 JUMP JUMPDEST PUSH1 0x80 MSTORE POP POP ADDRESS PUSH1 0xC0 MSTORE POP POP PUSH1 0x1 PUSH1 0x1 PUSH1 0xA0 SHL SUB AND PUSH2 0x180 MSTORE POP PUSH1 0xC SSTORE POP PUSH2 0x3F6 SWAP1 POP JUMP JUMPDEST PUSH0 PUSH1 0x20 DUP4 MLOAD LT ISZERO PUSH2 0x1B5 JUMPI PUSH2 0x1AE DUP4 PUSH2 0x1CC JUMP JUMPDEST SWAP1 POP PUSH2 0x1C6 JUMP JUMPDEST DUP2 PUSH2 0x1C0 DUP5 DUP3 PUSH2 0x2E4 JUMP JUMPDEST POP PUSH1 0xFF SWAP1 POP JUMPDEST SWAP3 SWAP2 POP POP JUMP JUMPDEST PUSH0 DUP1 DUP3 SWAP1 POP PUSH1 0x1F DUP2 MLOAD GT ISZERO PUSH2 0x1FF JUMPI DUP3 PUSH1 0x40 MLOAD PUSH4 0x305A27A9 PUSH1 0xE0 SHL DUP2 MSTORE PUSH1 0x4 ADD PUSH2 0x1F6 SWAP2 SWAP1 PUSH2 0x39E JUMP JUMPDEST PUSH1 0x40 MLOAD DUP1 SWAP2 SUB SWAP1 REVERT JUMPDEST DUP1 MLOAD PUSH2 0x20A DUP3 PUSH2 0x3D3 JUMP JUMPDEST OR SWAP4 SWAP3 POP POP POP JUMP JUMPDEST PUSH0 DUP1 PUSH1 0x40 DUP4 DUP6 SUB SLT ISZERO PUSH2 0x223 JUMPI PUSH0 DUP1 REVERT JUMPDEST DUP3 MLOAD PUSH1 0x20 DUP5 ADD MLOAD SWAP1 SWAP3 POP PUSH1 0x1 PUSH1 0x1 PUSH1 0xA0 SHL SUB DUP2 AND DUP2 EQ PUSH2 0x241 JUMPI PUSH0 DUP1 REVERT JUMPDEST DUP1 SWAP2 POP POP SWAP3 POP SWAP3 SWAP1 POP JUMP JUMPDEST PUSH4 0x4E487B71 PUSH1 0xE0 SHL PUSH0 MSTORE PUSH1 0x41 PUSH1 0x4 MSTORE PUSH1 0x24 PUSH0 REVERT JUMPDEST PUSH1 0x1 DUP2 DUP2 SHR SWAP1 DUP3 AND DUP1 PUSH2 0x274 JUMPI PUSH1 0x7F DUP3 AND SWAP2 POP JUMPDEST PUSH1 0x20 DUP3 LT DUP2 SUB PUSH2 0x292 JUMPI PUSH4 0x4E487B71 PUSH1 0xE0 SHL PUSH0 MSTORE PUSH1 0x22 PUSH1 0x4 MSTORE PUSH1 0x24 PUSH0 REVERT JUMPDEST POP SWAP2 SWAP1 POP JUMP JUMPDEST PUSH1 0x1F DUP3 GT ISZERO PUSH2 0x2DF JUMPI DUP1 PUSH0 MSTORE PUSH1 0x20 PUSH0 KECCAK256 PUSH1 0x1F DUP5 ADD PUSH1 0x5 SHR DUP2 ADD PUSH1 0x20 DUP6 LT ISZERO PUSH2 0x2BD JUMPI POP DUP1 JUMPDEST PUSH1 0x1F DUP5 ADD PUSH1 0x5 SHR DUP3 ADD SWAP2 POP JUMPDEST DUP2 DUP2 LT ISZERO PUSH2 0x2DC JUMPI PUSH0 DUP2 SSTORE PUSH1 0x1 ADD PUSH2 0x2C9 JUMP JUMPDEST POP POP JUMPDEST POP POP POP JUMP JUMPDEST DUP2 MLOAD PUSH1 0x1 PUSH1 0x1 PUSH1 0x40 SHL SUB DUP2 GT ISZERO PUSH2 0x2FD JUMPI PUSH2 0x2FD PUSH2 0x24C JUMP JUMPDEST PUSH2 0x311 DUP2 PUSH2 0x30B DUP5 SLOAD PUSH2 0x260 JUMP JUMPDEST DUP5 PUSH2 0x298 JUMP JUMPDEST PUSH1 0x20 PUSH1 0x1F DUP3 GT PUSH1 0x1 DUP2 EQ PUSH2 0x343 JUMPI PUSH0 DUP4 ISZERO PUSH2 0x32C JUMPI POP DUP5 DUP3 ADD MLOAD JUMPDEST PUSH0 NOT PUSH1 0x3 DUP6 SWAP1 SHL SHR NOT AND PUSH1 0x1 DUP5 SWAP1 SHL OR DUP5 SSTORE PUSH2 0x2DC JUMP JUMPDEST PUSH0 DUP5 DUP2 MSTORE PUSH1 0x20 DUP2 KECCAK256 PUSH1 0x1F NOT DUP6 AND SWAP2 JUMPDEST DUP3 DUP2 LT ISZERO PUSH2 0x372 JUMPI DUP8 DUP6 ADD MLOAD DUP3 SSTORE PUSH1 0x20 SWAP5 DUP6 ADD SWAP5 PUSH1 0x1 SWAP1 SWAP3 ADD SWAP2 ADD PUSH2 0x352 JUMP JUMPDEST POP DUP5 DUP3 LT ISZERO PUSH2 0x38F JUMPI DUP7 DUP5 ADD MLOAD PUSH0 NOT PUSH1 0x3 DUP8 SWAP1 SHL PUSH1 0xF8 AND SHR NOT AND DUP2 SSTORE JUMPDEST POP POP POP POP PUSH1 0x1 SWAP1 DUP2 SHL ADD SWAP1 SSTORE POP JUMP JUMPDEST PUSH1 0x20 DUP2 MSTORE PUSH0 DUP3 MLOAD DUP1 PUSH1 0x20 DUP5 ADD MSTORE DUP1 PUSH1 0x20 DUP6 ADD PUSH1 0x40 DUP6 ADD MCOPY PUSH0 PUSH1 0x40 DUP3 DUP6 ADD ADD MSTORE PUSH1 0x40 PUSH1 0x1F NOT PUSH1 0x1F DUP4 ADD AND DUP5 ADD ADD SWAP2 POP POP SWAP3 SWAP2 POP POP JUMP JUMPDEST DUP1 MLOAD PUSH1 0x20 DUP1 DUP4 ADD MLOAD SWAP2 SWAP1 DUP2 LT ISZERO PUSH2 0x292 JUMPI PUSH0 NOT PUSH1 0x20 SWAP2 SWAP1 SWAP2 SUB PUSH1 0x3 SHL SHL AND SWAP2 SWAP1 POP JUMP JUMPDEST PUSH1 0x80 MLOAD PUSH1 0xA0 MLOAD PUSH1 0xC0 MLOAD PUSH1 0xE0 MLOAD PUSH2 0x100 MLOAD PUSH2 0x120 MLOAD PUSH2 0x140 MLOAD PUSH2 0x160 MLOAD PUSH2 0x180 MLOAD PUSH2 0x5FB8 PUSH2 0x4BD PUSH0 CODECOPY PUSH0 DUP2 DUP2 PUSH2 0xA3D ADD MSTORE DUP2 DUP2 PUSH2 0xCF5 ADD MSTORE DUP2 DUP2 PUSH2 0xD6A ADD MSTORE DUP2 DUP2 PUSH2 0xF09 ADD MSTORE DUP2 DUP2 PUSH2 0x1223 ADD MSTORE DUP2 DUP2 PUSH2 0x1387 ADD MSTORE DUP2 DUP2 PUSH2 0x195A ADD MSTORE DUP2 DUP2 PUSH2 0x1B4F ADD MSTORE DUP2 DUP2 PUSH2 0x1C68 ADD MSTORE DUP2 DUP2 PUSH2 0x211D ADD MSTORE DUP2 DUP2 PUSH2 0x2222 ADD MSTORE DUP2 DUP2 PUSH2 0x25A8 ADD MSTORE DUP2 DUP2 PUSH2 0x2724 ADD MSTORE DUP2 DUP2 PUSH2 0x28C2 ADD MSTORE PUSH2 0x2F83 ADD MSTORE PUSH0 PUSH2 0x30AB ADD MSTORE PUSH0 PUSH2 0x187B ADD MSTORE PUSH0 PUSH2 0x1850 ADD MSTORE PUSH0 PUSH2 0x32A9 ADD MSTORE PUSH0 PUSH2 0x3281 ADD MSTORE PUSH0 PUSH2 0x31DC ADD MSTORE PUSH0 PUSH2 0x3206 ADD MSTORE PUSH0 PUSH2 0x3230 ADD MSTORE PUSH2 0x5FB8 PUSH0 RETURN INVALID PUSH1 0x80 PUSH1 0x40 MSTORE PUSH1 0x4 CALLDATASIZE LT PUSH2 0x249 JUMPI PUSH0 CALLDATALOAD PUSH1 0xE0 SHR DUP1 PUSH4 0x6352211E GT PUSH2 0x134 JUMPI DUP1 PUSH4 0xA676A600 GT PUSH2 0xB3 JUMPI DUP1 PUSH4 0xB88D4FDE GT PUSH2 0x78 JUMPI DUP1 PUSH4 0xB88D4FDE EQ PUSH2 0x759 JUMPI DUP1 PUSH4 0xC87B56DD EQ PUSH2 0x778 JUMPI DUP1 PUSH4 0xE985E9C5 EQ PUSH2 0x797 JUMPI DUP1 PUSH4 0xF44733AD EQ PUSH2 0x7DE JUMPI DUP1 PUSH4 0xF4662F20 EQ PUSH2 0x7F1 JUMPI DUP1 PUSH4 0xF88C3010 EQ PUSH2 0x810 JUMPI PUSH0 DUP1 REVERT JUMPDEST DUP1 PUSH4 0xA676A600 EQ PUSH2 0x675 JUMPI DUP1 PUSH4 0xA6F6A980 EQ PUSH2 0x694 JUMPI DUP1 PUSH4 0xA7E11697 EQ PUSH2 0x708 JUMPI DUP1 PUSH4 0xA7FED925 EQ PUSH2 0x71B JUMPI DUP1 PUSH4 0xB153B920 EQ PUSH2 0x73A JUMPI PUSH0 DUP1 REVERT JUMPDEST DUP1 PUSH4 0x920ACBB8 GT PUSH2 0xF9 JUMPI DUP1 PUSH4 0x920ACBB8 EQ PUSH2 0x5FD JUMPI DUP1 PUSH4 0x9551177A EQ PUSH2 0x610 JUMPI DUP1 PUSH4 0x95D89B41 EQ PUSH2 0x62F JUMPI DUP1 PUSH4 0x97924EAD EQ PUSH2 0x643 JUMPI DUP1 PUSH4 0xA22CB465 EQ PUSH2 0x656 JUMPI PUSH0 DUP1 REVERT JUMPDEST DUP1 PUSH4 0x6352211E EQ PUSH2 0x54D JUMPI DUP1 PUSH4 0x6FF73C8E EQ PUSH2 0x56C JUMPI DUP1 PUSH4 0x70A08231 EQ PUSH2 0x598 JUMPI DUP1 PUSH4 0x745A41BC EQ PUSH2 0x5B7 JUMPI DUP1 PUSH4 0x84B0196E EQ PUSH2 0x5D6 JUMPI PUSH0 DUP1 REVERT JUMPDEST DUP1 PUSH4 0x24744D54 GT PUSH2 0x1CB JUMPI DUP1 PUSH4 0x402F5AB5 GT PUSH2 0x190 JUMPI DUP1 PUSH4 0x402F5AB5 EQ PUSH2 0x489 JUMPI DUP1 PUSH4 0x42842E0E EQ PUSH2 0x49E JUMPI DUP1 PUSH4 0x45818E4C EQ PUSH2 0x4BD JUMPI DUP1 PUSH4 0x4FFEF907 EQ PUSH2 0x4DC JUMPI DUP1 PUSH4 0x578496AB EQ PUSH2 0x4EF JUMPI DUP1 PUSH4 0x5E008CC4 EQ PUSH2 0x522 JUMPI PUSH0 DUP1 REVERT JUMPDEST DUP1 PUSH4 0x24744D54 EQ PUSH2 0x3AC JUMPI DUP1 PUSH4 0x2973ADA7 EQ PUSH2 0x3CB JUMPI DUP1 PUSH4 0x2A7C5A91 EQ PUSH2 0x3F6 JUMPI DUP1 PUSH4 0x3644E515 EQ PUSH2 0x415 JUMPI DUP1 PUSH4 0x3F117740 EQ PUSH2 0x429 JUMPI PUSH0 DUP1 REVERT JUMPDEST DUP1 PUSH4 0x141A468C GT PUSH2 0x211 JUMPI DUP1 PUSH4 0x141A468C EQ PUSH2 0x319 JUMPI DUP1 PUSH4 0x144AEB83 EQ PUSH2 0x346 JUMPI DUP1 PUSH4 0x18160DDD EQ PUSH2 0x365 JUMPI DUP1 PUSH4 0x18AD50D1 EQ PUSH2 0x37A JUMPI DUP1 PUSH4 0x23B872DD EQ PUSH2 0x38D JUMPI PUSH0 DUP1 REVERT JUMPDEST DUP1 PUSH4 0x1FFC9A7 EQ PUSH2 0x24D JUMPI DUP1 PUSH4 0x6FDDE03 EQ PUSH2 0x281 JUMPI DUP1 PUSH4 0x81812FC EQ PUSH2 0x2A2 JUMPI DUP1 PUSH4 0x95EA7B3 EQ PUSH2 0x2D9 JUMPI DUP1 PUSH4 0xE21A1AC EQ PUSH2 0x2FA JUMPI JUMPDEST PUSH0 DUP1 REVERT JUMPDEST CALLVALUE DUP1 ISZERO PUSH2 0x258 JUMPI PUSH0 DUP1 REVERT JUMPDEST POP PUSH2 0x26C PUSH2 0x267 CALLDATASIZE PUSH1 0x4 PUSH2 0x546B JUMP JUMPDEST PUSH2 0x82F JUMP JUMPDEST PUSH1 0x40 MLOAD SWAP1 ISZERO ISZERO DUP2 MSTORE PUSH1 0x20 ADD JUMPDEST PUSH1 0x40 MLOAD DUP1 SWAP2 SUB SWAP1 RETURN JUMPDEST CALLVALUE DUP1 ISZERO PUSH2 0x28C JUMPI PUSH0 DUP1 REVERT JUMPDEST POP PUSH2 0x295 PUSH2 0x859 JUMP JUMPDEST PUSH1 0x40 MLOAD PUSH2 0x278 SWAP2 SWAP1 PUSH2 0x54B4 JUMP JUMPDEST CALLVALUE DUP1 ISZERO PUSH2 0x2AD JUMPI PUSH0 DUP1 REVERT JUMPDEST POP PUSH2 0x2C1 PUSH2 0x2BC CALLDATASIZE PUSH1 0x4 PUSH2 0x54C6 JUMP JUMPDEST PUSH2 0x8E8 JUMP JUMPDEST PUSH1 0x40 MLOAD PUSH1 0x1 PUSH1 0x1 PUSH1 0xA0 SHL SUB SWAP1 SWAP2 AND DUP2 MSTORE PUSH1 0x20 ADD PUSH2 0x278 JUMP JUMPDEST CALLVALUE DUP1 ISZERO PUSH2 0x2E4 JUMPI PUSH0 DUP1 REVERT JUMPDEST POP PUSH2 0x2F8 PUSH2 0x2F3 CALLDATASIZE PUSH1 0x4 PUSH2 0x54F1 JUMP JUMPDEST PUSH2 0x90D JUMP JUMPDEST STOP JUMPDEST CALLVALUE DUP1 ISZERO PUSH2 0x305 JUMPI PUSH0 DUP1 REVERT JUMPDEST POP PUSH2 0x26C PUSH2 0x314 CALLDATASIZE PUSH1 0x4 PUSH2 0x551B JUMP JUMPDEST PUSH2 0xA26 JUMP JUMPDEST CALLVALUE DUP1 ISZERO PUSH2 0x324 JUMPI PUSH0 DUP1 REVERT JUMPDEST POP PUSH2 0x338 PUSH2 0x333 CALLDATASIZE PUSH1 0x4 PUSH2 0x54C6 JUMP JUMPDEST PUSH2 0xB13 JUMP JUMPDEST PUSH1 0x40 MLOAD SWAP1 DUP2 MSTORE PUSH1 0x20 ADD PUSH2 0x278 JUMP JUMPDEST CALLVALUE DUP1 ISZERO PUSH2 0x351 JUMPI PUSH0 DUP1 REVERT JUMPDEST POP PUSH2 0x26C PUSH2 0x360 CALLDATASIZE PUSH1 0x4 PUSH2 0x551B JUMP JUMPDEST PUSH2 0xB26 JUMP JUMPDEST CALLVALUE DUP1 ISZERO PUSH2 0x370 JUMPI PUSH0 DUP1 REVERT JUMPDEST POP PUSH2 0x338 PUSH1 0x9 SLOAD DUP2 JUMP JUMPDEST PUSH2 0x2F8 PUSH2 0x388 CALLDATASIZE PUSH1 0x4 PUSH2 0x554F JUMP JUMPDEST PUSH2 0xB97 JUMP JUMPDEST CALLVALUE DUP1 ISZERO PUSH2 0x398 JUMPI PUSH0 DUP1 REVERT JUMPDEST POP PUSH2 0x2F8 PUSH2 0x3A7 CALLDATASIZE PUSH1 0x4 PUSH2 0x557D JUMP JUMPDEST PUSH2 0xCB8 JUMP JUMPDEST CALLVALUE DUP1 ISZERO PUSH2 0x3B7 JUMPI PUSH0 DUP1 REVERT JUMPDEST POP PUSH2 0x2F8 PUSH2 0x3C6 CALLDATASIZE PUSH1 0x4 PUSH2 0x566C JUMP JUMPDEST PUSH2 0xD35 JUMP JUMPDEST CALLVALUE DUP1 ISZERO PUSH2 0x3D6 JUMPI PUSH0 DUP1 REVERT JUMPDEST POP PUSH2 0x338 PUSH2 0x3E5 CALLDATASIZE PUSH1 0x4 PUSH2 0x5706 JUMP JUMPDEST PUSH1 0xE PUSH1 0x20 MSTORE PUSH0 SWAP1 DUP2 MSTORE PUSH1 0x40 SWAP1 KECCAK256 SLOAD DUP2 JUMP JUMPDEST CALLVALUE DUP1 ISZERO PUSH2 0x401 JUMPI PUSH0 DUP1 REVERT JUMPDEST POP PUSH2 0x2F8 PUSH2 0x410 CALLDATASIZE PUSH1 0x4 PUSH2 0x5721 JUMP JUMPDEST PUSH2 0xD55 JUMP JUMPDEST CALLVALUE DUP1 ISZERO PUSH2 0x420 JUMPI PUSH0 DUP1 REVERT JUMPDEST POP PUSH2 0x338 PUSH2 0xE4F JUMP JUMPDEST CALLVALUE DUP1 ISZERO PUSH2 0x434 JUMPI PUSH0 DUP1 REVERT JUMPDEST POP PUSH2 0x448 PUSH2 0x443 CALLDATASIZE PUSH1 0x4 PUSH2 0x54C6 JUMP JUMPDEST PUSH2 0xE5D JUMP JUMPDEST PUSH1 0x40 MLOAD PUSH2 0x278 SWAP2 SWAP1 PUSH0 PUSH1 0xA0 DUP3 ADD SWAP1 POP DUP3 MLOAD DUP3 MSTORE PUSH1 0x20 DUP4 ADD MLOAD PUSH1 0x20 DUP4 ADD MSTORE PUSH1 0x40 DUP4 ADD MLOAD PUSH1 0x40 DUP4 ADD MSTORE PUSH1 0x60 DUP4 ADD MLOAD PUSH1 0x60 DUP4 ADD MSTORE PUSH1 0x80 DUP4 ADD MLOAD PUSH1 0x80 DUP4 ADD MSTORE SWAP3 SWAP2 POP POP JUMP JUMPDEST CALLVALUE DUP1 ISZERO PUSH2 0x494 JUMPI PUSH0 DUP1 REVERT JUMPDEST POP PUSH2 0x338 PUSH1 0xC SLOAD DUP2 JUMP JUMPDEST CALLVALUE DUP1 ISZERO PUSH2 0x4A9 JUMPI PUSH0 DUP1 REVERT JUMPDEST POP PUSH2 0x2F8 PUSH2 0x4B8 CALLDATASIZE PUSH1 0x4 PUSH2 0x557D JUMP JUMPDEST PUSH2 0xED8 JUMP JUMPDEST CALLVALUE DUP1 ISZERO PUSH2 0x4C8 JUMPI PUSH0 DUP1 REVERT JUMPDEST POP PUSH2 0x26C PUSH2 0x4D7 CALLDATASIZE PUSH1 0x4 PUSH2 0x54C6 JUMP JUMPDEST PUSH2 0xEF2 JUMP JUMPDEST PUSH2 0x26C PUSH2 0x4EA CALLDATASIZE PUSH1 0x4 PUSH2 0x5744 JUMP JUMPDEST PUSH2 0xFC7 JUMP JUMPDEST PUSH2 0x502 PUSH2 0x4FD CALLDATASIZE PUSH1 0x4 PUSH2 0x578F JUMP JUMPDEST PUSH2 0x1327 JUMP JUMPDEST PUSH1 0x40 DUP1 MLOAD PUSH1 0x1 PUSH1 0x1 PUSH1 0x80 SHL SUB SWAP4 DUP5 AND DUP2 MSTORE SWAP3 SWAP1 SWAP2 AND PUSH1 0x20 DUP4 ADD MSTORE ADD PUSH2 0x278 JUMP JUMPDEST CALLVALUE DUP1 ISZERO PUSH2 0x52D JUMPI PUSH0 DUP1 REVERT JUMPDEST POP PUSH2 0x338 PUSH2 0x53C CALLDATASIZE PUSH1 0x4 PUSH2 0x54C6 JUMP JUMPDEST PUSH1 0xB PUSH1 0x20 MSTORE PUSH0 SWAP1 DUP2 MSTORE PUSH1 0x40 SWAP1 KECCAK256 SLOAD DUP2 JUMP JUMPDEST CALLVALUE DUP1 ISZERO PUSH2 0x558 JUMPI PUSH0 DUP1 REVERT JUMPDEST POP PUSH2 0x2C1 PUSH2 0x567 CALLDATASIZE PUSH1 0x4 PUSH2 0x54C6 JUMP JUMPDEST PUSH2 0x1656 JUMP JUMPDEST CALLVALUE DUP1 ISZERO PUSH2 0x577 JUMPI PUSH0 DUP1 REVERT JUMPDEST POP PUSH2 0x58B PUSH2 0x586 CALLDATASIZE PUSH1 0x4 PUSH2 0x5866 JUMP JUMPDEST PUSH2 0x16B5 JUMP JUMPDEST PUSH1 0x40 MLOAD PUSH2 0x278 SWAP2 SWAP1 PUSH2 0x58E4 JUMP JUMPDEST CALLVALUE DUP1 ISZERO PUSH2 0x5A3 JUMPI PUSH0 DUP1 REVERT JUMPDEST POP PUSH2 0x338 PUSH2 0x5B2 CALLDATASIZE PUSH1 0x4 PUSH2 0x5706 JUMP JUMPDEST PUSH2 0x17AD JUMP JUMPDEST CALLVALUE DUP1 ISZERO PUSH2 0x5C2 JUMPI PUSH0 DUP1 REVERT JUMPDEST POP PUSH2 0x2F8 PUSH2 0x5D1 CALLDATASIZE PUSH1 0x4 PUSH2 0x58F6 JUMP JUMPDEST PUSH2 0x1831 JUMP JUMPDEST CALLVALUE DUP1 ISZERO PUSH2 0x5E1 JUMPI PUSH0 DUP1 REVERT JUMPDEST POP PUSH2 0x5EA PUSH2 0x1843 JUMP JUMPDEST PUSH1 0x40 MLOAD PUSH2 0x278 SWAP8 SWAP7 SWAP6 SWAP5 SWAP4 SWAP3 SWAP2 SWAP1 PUSH2 0x5955 JUMP JUMPDEST PUSH2 0x26C PUSH2 0x60B CALLDATASIZE PUSH1 0x4 PUSH2 0x59C4 JUMP JUMPDEST PUSH2 0x18CA JUMP JUMPDEST CALLVALUE DUP1 ISZERO PUSH2 0x61B JUMPI PUSH0 DUP1 REVERT JUMPDEST POP PUSH2 0x26C PUSH2 0x62A CALLDATASIZE PUSH1 0x4 PUSH2 0x5706 JUMP JUMPDEST PUSH2 0x1943 JUMP JUMPDEST CALLVALUE DUP1 ISZERO PUSH2 0x63A JUMPI PUSH0 DUP1 REVERT JUMPDEST POP PUSH2 0x295 PUSH2 0x1A20 JUMP JUMPDEST PUSH2 0x26C PUSH2 0x651 CALLDATASIZE PUSH1 0x4 PUSH2 0x59FA JUMP JUMPDEST PUSH2 0x1A2F JUMP JUMPDEST CALLVALUE DUP1 ISZERO PUSH2 0x661 JUMPI PUSH0 DUP1 REVERT JUMPDEST POP PUSH2 0x2F8 PUSH2 0x670 CALLDATASIZE PUSH1 0x4 PUSH2 0x5A2C JUMP JUMPDEST PUSH2 0x1BF2 JUMP JUMPDEST CALLVALUE DUP1 ISZERO PUSH2 0x680 JUMPI PUSH0 DUP1 REVERT JUMPDEST POP PUSH2 0x338 PUSH2 0x68F CALLDATASIZE PUSH1 0x4 PUSH2 0x5721 JUMP JUMPDEST PUSH2 0x1BFD JUMP JUMPDEST CALLVALUE DUP1 ISZERO PUSH2 0x69F JUMPI PUSH0 DUP1 REVERT JUMPDEST POP PUSH2 0x6B3 PUSH2 0x6AE CALLDATASIZE PUSH1 0x4 PUSH2 0x54C6 JUMP JUMPDEST PUSH2 0x1DDD JUMP JUMPDEST PUSH1 0x40 DUP1 MLOAD DUP3 MLOAD DUP2 MSTORE PUSH1 0x20 DUP1 DUP5 ADD MLOAD PUSH1 0x1 PUSH1 0x1 PUSH1 0xA0 SHL SUB SWAP1 DUP2 AND SWAP2 DUP4 ADD SWAP2 SWAP1 SWAP2 MSTORE DUP4 DUP4 ADD MLOAD AND SWAP2 DUP2 ADD SWAP2 SWAP1 SWAP2 MSTORE PUSH1 0x60 DUP1 DUP4 ADD MLOAD SWAP1 DUP3 ADD MSTORE PUSH1 0x80 DUP1 DUP4 ADD MLOAD SWAP1 DUP3 ADD MSTORE PUSH1 0xA0 SWAP2 DUP3 ADD MLOAD SWAP2 DUP2 ADD SWAP2 SWAP1 SWAP2 MSTORE PUSH1 0xC0 ADD PUSH2 0x278 JUMP JUMPDEST PUSH2 0x502 PUSH2 0x716 CALLDATASIZE PUSH1 0x4 PUSH2 0x5A5F JUMP JUMPDEST PUSH2 0x1E87 JUMP JUMPDEST CALLVALUE DUP1 ISZERO PUSH2 0x726 JUMPI PUSH0 DUP1 REVERT JUMPDEST POP PUSH2 0x26C PUSH2 0x735 CALLDATASIZE PUSH1 0x4 PUSH2 0x5AB1 JUMP JUMPDEST PUSH2 0x20DF JUMP JUMPDEST CALLVALUE DUP1 ISZERO PUSH2 0x745 JUMPI PUSH0 DUP1 REVERT JUMPDEST POP PUSH2 0x26C PUSH2 0x754 CALLDATASIZE PUSH1 0x4 PUSH2 0x5706 JUMP JUMPDEST PUSH2 0x2106 JUMP JUMPDEST CALLVALUE DUP1 ISZERO PUSH2 0x764 JUMPI PUSH0 DUP1 REVERT JUMPDEST POP PUSH2 0x2F8 PUSH2 0x773 CALLDATASIZE PUSH1 0x4 PUSH2 0x5ADA JUMP JUMPDEST PUSH2 0x21E5 JUMP JUMPDEST CALLVALUE DUP1 ISZERO PUSH2 0x783 JUMPI PUSH0 DUP1 REVERT JUMPDEST POP PUSH2 0x295 PUSH2 0x792 CALLDATASIZE PUSH1 0x4 PUSH2 0x54C6 JUMP JUMPDEST PUSH2 0x2263 JUMP JUMPDEST CALLVALUE DUP1 ISZERO PUSH2 0x7A2 JUMPI PUSH0 DUP1 REVERT JUMPDEST POP PUSH2 0x26C PUSH2 0x7B1 CALLDATASIZE PUSH1 0x4 PUSH2 0x5B2A JUMP JUMPDEST PUSH1 0x1 PUSH1 0x1 PUSH1 0xA0 SHL SUB SWAP2 DUP3 AND PUSH0 SWAP1 DUP2 MSTORE PUSH1 0x5 PUSH1 0x20 SWAP1 DUP2 MSTORE PUSH1 0x40 DUP1 DUP4 KECCAK256 SWAP4 SWAP1 SWAP5 AND DUP3 MSTORE SWAP2 SWAP1 SWAP2 MSTORE KECCAK256 SLOAD PUSH1 0xFF AND SWAP1 JUMP JUMPDEST PUSH2 0x26C PUSH2 0x7EC CALLDATASIZE PUSH1 0x4 PUSH2 0x5B56 JUMP JUMPDEST PUSH2 0x22C6 JUMP JUMPDEST CALLVALUE DUP1 ISZERO PUSH2 0x7FC JUMPI PUSH0 DUP1 REVERT JUMPDEST POP PUSH2 0x26C PUSH2 0x80B CALLDATASIZE PUSH1 0x4 PUSH2 0x5B81 JUMP JUMPDEST PUSH2 0x267E JUMP JUMPDEST CALLVALUE DUP1 ISZERO PUSH2 0x81B JUMPI PUSH0 DUP1 REVERT JUMPDEST POP PUSH2 0x2F8 PUSH2 0x82A CALLDATASIZE PUSH1 0x4 PUSH2 0x5BB5 JUMP JUMPDEST PUSH2 0x299D JUMP JUMPDEST PUSH0 PUSH1 0x1 PUSH1 0x1 PUSH1 0xE0 SHL SUB NOT DUP3 AND PUSH4 0x5604E225 PUSH1 0xE0 SHL EQ DUP1 PUSH2 0x853 JUMPI POP PUSH2 0x853 DUP3 PUSH2 0x2BFE JUMP JUMPDEST SWAP3 SWAP2 POP POP JUMP JUMPDEST PUSH1 0x60 PUSH0 DUP1 SLOAD PUSH2 0x867 SWAP1 PUSH2 0x5BE7 JUMP JUMPDEST DUP1 PUSH1 0x1F ADD PUSH1 0x20 DUP1 SWAP2 DIV MUL PUSH1 0x20 ADD PUSH1 0x40 MLOAD SWAP1 DUP2 ADD PUSH1 0x40 MSTORE DUP1 SWAP3 SWAP2 SWAP1 DUP2 DUP2 MSTORE PUSH1 0x20 ADD DUP3 DUP1 SLOAD PUSH2 0x893 SWAP1 PUSH2 0x5BE7 JUMP JUMPDEST DUP1 ISZERO PUSH2 0x8DE JUMPI DUP1 PUSH1 0x1F LT PUSH2 0x8B5 JUMPI PUSH2 0x100 DUP1 DUP4 SLOAD DIV MUL DUP4 MSTORE SWAP2 PUSH1 0x20 ADD SWAP2 PUSH2 0x8DE JUMP JUMPDEST DUP3 ADD SWAP2 SWAP1 PUSH0 MSTORE PUSH1 0x20 PUSH0 KECCAK256 SWAP1 JUMPDEST DUP2 SLOAD DUP2 MSTORE SWAP1 PUSH1 0x1 ADD SWAP1 PUSH1 0x20 ADD DUP1 DUP4 GT PUSH2 0x8C1 JUMPI DUP3 SWAP1 SUB PUSH1 0x1F AND DUP3 ADD SWAP2 JUMPDEST POP POP POP POP POP SWAP1 POP SWAP1 JUMP JUMPDEST PUSH0 PUSH2 0x8F2 DUP3 PUSH2 0x2C4D JUMP JUMPDEST POP PUSH0 SWAP1 DUP2 MSTORE PUSH1 0x4 PUSH1 0x20 MSTORE PUSH1 0x40 SWAP1 KECCAK256 SLOAD PUSH1 0x1 PUSH1 0x1 PUSH1 0xA0 SHL SUB AND SWAP1 JUMP JUMPDEST PUSH0 PUSH2 0x917 DUP3 PUSH2 0x1656 JUMP JUMPDEST SWAP1 POP DUP1 PUSH1 0x1 PUSH1 0x1 PUSH1 0xA0 SHL SUB AND DUP4 PUSH1 0x1 PUSH1 0x1 PUSH1 0xA0 SHL SUB AND SUB PUSH2 0x989 JUMPI PUSH1 0x40 MLOAD PUSH3 0x461BCD PUSH1 0xE5 SHL DUP2 MSTORE PUSH1 0x20 PUSH1 0x4 DUP3 ADD MSTORE PUSH1 0x21 PUSH1 0x24 DUP3 ADD MSTORE PUSH32 0x4552433732313A20617070726F76616C20746F2063757272656E74206F776E65 PUSH1 0x44 DUP3 ADD MSTORE PUSH1 0x39 PUSH1 0xF9 SHL PUSH1 0x64 DUP3 ADD MSTORE PUSH1 0x84 ADD JUMPDEST PUSH1 0x40 MLOAD DUP1 SWAP2 SUB SWAP1 REVERT JUMPDEST CALLER PUSH1 0x1 PUSH1 0x1 PUSH1 0xA0 SHL SUB DUP3 AND EQ DUP1 PUSH2 0x9A5 JUMPI POP PUSH2 0x9A5 DUP2 CALLER PUSH2 0x7B1 JUMP JUMPDEST PUSH2 0xA17 JUMPI PUSH1 0x40 MLOAD PUSH3 0x461BCD PUSH1 0xE5 SHL DUP2 MSTORE PUSH1 0x20 PUSH1 0x4 DUP3 ADD MSTORE PUSH1 0x3D PUSH1 0x24 DUP3 ADD MSTORE PUSH32 0x4552433732313A20617070726F76652063616C6C6572206973206E6F7420746F PUSH1 0x44 DUP3 ADD MSTORE PUSH32 0x6B656E206F776E6572206F7220617070726F76656420666F7220616C6C000000 PUSH1 0x64 DUP3 ADD MSTORE PUSH1 0x84 ADD PUSH2 0x980 JUMP JUMPDEST PUSH2 0xA21 DUP4 DUP4 PUSH2 0x2CAE JUMP JUMPDEST POP POP POP JUMP JUMPDEST PUSH1 0x40 MLOAD PUSH4 0x94C3C333 PUSH1 0xE0 SHL DUP2 MSTORE CALLER PUSH1 0x4 DUP3 ADD MSTORE PUSH0 SWAP1 PUSH32 0x0 PUSH1 0x1 PUSH1 0x1 PUSH1 0xA0 SHL SUB AND SWAP1 PUSH4 0x94C3C333 SWAP1 PUSH1 0x24 ADD PUSH1 0x20 PUSH1 0x40 MLOAD DUP1 DUP4 SUB DUP2 DUP7 GAS STATICCALL ISZERO DUP1 ISZERO PUSH2 0xA8A JUMPI RETURNDATASIZE PUSH0 DUP1 RETURNDATACOPY RETURNDATASIZE PUSH0 REVERT JUMPDEST POP POP POP POP PUSH1 0x40 MLOAD RETURNDATASIZE PUSH1 0x1F NOT PUSH1 0x1F DUP3 ADD AND DUP3 ADD DUP1 PUSH1 0x40 MSTORE POP DUP2 ADD SWAP1 PUSH2 0xAAE SWAP2 SWAP1 PUSH2 0x5C1F JUMP JUMPDEST PUSH1 0x2 EQ PUSH2 0xAB9 JUMPI PUSH0 DUP1 REVERT JUMPDEST PUSH0 DUP4 DUP2 MSTORE PUSH1 0xD PUSH1 0x20 MSTORE PUSH1 0x40 SWAP1 KECCAK256 PUSH2 0xAD0 SWAP1 DUP4 PUSH2 0x2D1B JUMP JUMPDEST PUSH1 0x40 DUP1 MLOAD DUP5 DUP2 MSTORE PUSH1 0x20 DUP2 ADD DUP5 SWAP1 MSTORE PUSH32 0x5AF113730F9EE4153F120C893809FEAFA233584BBE5E93B5D78E0699C9C8CA56 SWAP2 ADD JUMPDEST PUSH1 0x40 MLOAD DUP1 SWAP2 SUB SWAP1 LOG1 POP PUSH1 0x1 SWAP3 SWAP2 POP POP JUMP JUMPDEST PUSH0 DUP2 DUP2 MSTORE PUSH1 0x8 PUSH1 0x20 MSTORE PUSH1 0x40 DUP2 KECCAK256 SLOAD PUSH2 0x853 JUMP JUMPDEST PUSH0 DUP3 DUP2 MSTORE PUSH1 0xD PUSH1 0x20 MSTORE PUSH1 0x40 DUP2 KECCAK256 PUSH1 0x1 ADD SLOAD PUSH1 0x1 PUSH1 0x1 PUSH1 0xA0 SHL SUB AND CALLER EQ PUSH2 0xB4A JUMPI PUSH0 DUP1 REVERT JUMPDEST PUSH0 DUP4 DUP2 MSTORE PUSH1 0xD PUSH1 0x20 MSTORE PUSH1 0x40 SWAP1 KECCAK256 PUSH2 0xB61 SWAP1 DUP4 PUSH2 0x2D42 JUMP JUMPDEST PUSH1 0x40 DUP1 MLOAD DUP5 DUP2 MSTORE PUSH1 0x20 DUP2 ADD DUP5 SWAP1 MSTORE PUSH32 0xC360EEF79F1E7D7E7564E3CD446A9839F5A632A38A4D34B507C08E1CEEF46147 SWAP2 ADD PUSH2 0xB02 JUMP JUMPDEST PUSH1 0x1 PUSH1 0x1 PUSH1 0xA0 SHL SUB PUSH0 DUP1 MLOAD PUSH1 0x20 PUSH2 0x5F42 DUP4 CODECOPY DUP2 MLOAD SWAP2 MSTORE TLOAD AND ISZERO PUSH2 0xBB8 JUMPI PUSH0 DUP1 REVERT JUMPDEST PUSH2 0xBC1 CALLER PUSH2 0x2D65 JUMP JUMPDEST PUSH0 DUP3 DUP2 MSTORE PUSH1 0xD PUSH1 0x20 MSTORE PUSH1 0x40 SWAP1 KECCAK256 PUSH1 0x5 ADD SLOAD PUSH1 0x1 PUSH1 0x6D SHL SWAP1 PUSH2 0xBE6 SWAP1 DUP4 SWAP1 PUSH1 0x80 SHR PUSH2 0x5C4A JUMP JUMPDEST PUSH1 0x1 PUSH1 0x1 PUSH1 0x80 SHL SUB AND GT ISZERO PUSH2 0xBF9 JUMPI PUSH0 DUP1 REVERT JUMPDEST PUSH0 DUP3 DUP2 MSTORE PUSH1 0xD PUSH1 0x20 MSTORE PUSH1 0x40 SWAP1 KECCAK256 PUSH1 0x2 ADD SLOAD PUSH2 0xC27 SWAP1 PUSH1 0x1 PUSH1 0x1 PUSH1 0xA0 SHL SUB AND CALLER PUSH1 0x1 PUSH1 0x1 PUSH1 0x80 SHL SUB DUP5 AND PUSH2 0x2D78 JUMP JUMPDEST PUSH0 DUP3 DUP2 MSTORE PUSH1 0xD PUSH1 0x20 MSTORE PUSH1 0x40 SWAP1 KECCAK256 PUSH1 0x5 ADD SLOAD PUSH2 0xC4B SWAP1 PUSH1 0x80 DUP4 SWAP1 SHL PUSH2 0x2D85 JUMP JUMPDEST PUSH2 0x2D85 JUMP JUMPDEST PUSH0 DUP4 DUP2 MSTORE PUSH1 0xD PUSH1 0x20 MSTORE PUSH1 0x40 SWAP1 DUP2 SWAP1 KECCAK256 PUSH1 0x5 ADD SWAP2 SWAP1 SWAP2 SSTORE MLOAD PUSH32 0x54FE3E24CE316357354D8B9553364DE253D61C742D913DFD419149DDF696947A SWAP1 PUSH2 0xCA3 SWAP1 DUP5 SWAP1 DUP5 SWAP1 SWAP2 DUP3 MSTORE PUSH1 0x1 PUSH1 0x1 PUSH1 0x80 SHL SUB AND PUSH1 0x20 DUP3 ADD MSTORE PUSH1 0x40 ADD SWAP1 JUMP JUMPDEST PUSH1 0x40 MLOAD DUP1 SWAP2 SUB SWAP1 LOG1 PUSH2 0xCB4 PUSH0 PUSH2 0x2D65 JUMP JUMPDEST POP POP JUMP JUMPDEST PUSH2 0xCC2 CALLER DUP3 PUSH2 0x2DBD JUMP JUMPDEST PUSH2 0xCDE JUMPI PUSH1 0x40 MLOAD PUSH3 0x461BCD PUSH1 0xE5 SHL DUP2 MSTORE PUSH1 0x4 ADD PUSH2 0x980 SWAP1 PUSH2 0x5C69 JUMP JUMPDEST PUSH0 DUP2 DUP2 MSTORE PUSH1 0xA PUSH1 0x20 MSTORE PUSH1 0x40 SWAP1 KECCAK256 PUSH1 0x2 ADD SLOAD PUSH2 0xD1F SWAP1 PUSH32 0x0 SWAP1 DUP6 SWAP1 PUSH1 0x80 SHR PUSH2 0x2E39 JUMP JUMPDEST PUSH2 0xD2A DUP4 DUP4 DUP4 PUSH2 0x2EA3 JUMP JUMPDEST PUSH2 0xA21 DUP2 DUP5 DUP5 PUSH2 0x2EC2 JUMP JUMPDEST PUSH2 0xD41 CALLER DUP6 DUP5 DUP5 PUSH2 0x3046 JUMP JUMPDEST PUSH2 0xD4D DUP7 DUP7 DUP7 DUP7 PUSH2 0x21E5 JUMP JUMPDEST POP POP POP POP POP POP JUMP JUMPDEST PUSH1 0x40 MLOAD PUSH4 0x94C3C333 PUSH1 0xE0 SHL DUP2 MSTORE CALLER PUSH1 0x4 DUP3 ADD MSTORE PUSH32 0x0 PUSH1 0x1 PUSH1 0x1 PUSH1 0xA0 SHL SUB AND SWAP1 PUSH4 0x94C3C333 SWAP1 PUSH1 0x24 ADD PUSH1 0x20 PUSH1 0x40 MLOAD DUP1 DUP4 SUB DUP2 DUP7 GAS STATICCALL ISZERO DUP1 ISZERO PUSH2 0xDB7 JUMPI RETURNDATASIZE PUSH0 DUP1 RETURNDATACOPY RETURNDATASIZE PUSH0 REVERT JUMPDEST POP POP POP POP PUSH1 0x40 MLOAD RETURNDATASIZE PUSH1 0x1F NOT PUSH1 0x1F DUP3 ADD AND DUP3 ADD DUP1 PUSH1 0x40 MSTORE POP DUP2 ADD SWAP1 PUSH2 0xDDB SWAP2 SWAP1 PUSH2 0x5C1F JUMP JUMPDEST PUSH1 0x2 EQ PUSH2 0xDE6 JUMPI PUSH0 DUP1 REVERT JUMPDEST PUSH0 DUP3 DUP2 MSTORE PUSH1 0xD PUSH1 0x20 SWAP1 DUP2 MSTORE PUSH1 0x40 SWAP2 DUP3 SWAP1 KECCAK256 PUSH1 0x1 ADD DUP1 SLOAD PUSH1 0x1 PUSH1 0x1 PUSH1 0xA0 SHL SUB NOT AND PUSH1 0x1 PUSH1 0x1 PUSH1 0xA0 SHL SUB DUP6 AND SWAP1 DUP2 OR SWAP1 SWAP2 SSTORE DUP3 MLOAD DUP6 DUP2 MSTORE SWAP2 DUP3 ADD MSTORE PUSH32 0xDCCB79E09923E42093E54DE6132CEBA9B88B094D10632520F6EEB8058A6721C SWAP2 ADD JUMPDEST PUSH1 0x40 MLOAD DUP1 SWAP2 SUB SWAP1 LOG1 POP POP JUMP JUMPDEST PUSH0 PUSH2 0xE58 PUSH2 0x31D0 JUMP JUMPDEST SWAP1 POP SWAP1 JUMP JUMPDEST PUSH2 0xE8A PUSH1 0x40 MLOAD DUP1 PUSH1 0xA0 ADD PUSH1 0x40 MSTORE DUP1 PUSH0 DUP2 MSTORE PUSH1 0x20 ADD PUSH0 DUP2 MSTORE PUSH1 0x20 ADD PUSH0 DUP2 MSTORE PUSH1 0x20 ADD PUSH0 DUP2 MSTORE PUSH1 0x20 ADD PUSH0 DUP2 MSTORE POP SWAP1 JUMP JUMPDEST POP PUSH0 SWAP1 DUP2 MSTORE PUSH1 0xA PUSH1 0x20 SWAP1 DUP2 MSTORE PUSH1 0x40 SWAP2 DUP3 SWAP1 KECCAK256 DUP3 MLOAD PUSH1 0xA0 DUP2 ADD DUP5 MSTORE DUP2 SLOAD DUP2 MSTORE PUSH1 0x1 DUP3 ADD SLOAD SWAP3 DUP2 ADD SWAP3 SWAP1 SWAP3 MSTORE PUSH1 0x2 DUP2 ADD SLOAD SWAP3 DUP3 ADD SWAP3 SWAP1 SWAP3 MSTORE PUSH1 0x3 DUP3 ADD SLOAD PUSH1 0x60 DUP3 ADD MSTORE PUSH1 0x4 SWAP1 SWAP2 ADD SLOAD PUSH1 0x80 DUP3 ADD MSTORE SWAP1 JUMP JUMPDEST PUSH2 0xA21 DUP4 DUP4 DUP4 PUSH1 0x40 MLOAD DUP1 PUSH1 0x20 ADD PUSH1 0x40 MSTORE DUP1 PUSH0 DUP2 MSTORE POP PUSH2 0x21E5 JUMP JUMPDEST PUSH1 0x40 MLOAD PUSH4 0x94C3C333 PUSH1 0xE0 SHL DUP2 MSTORE CALLER PUSH1 0x4 DUP3 ADD MSTORE PUSH0 SWAP1 PUSH32 0x0 PUSH1 0x1 PUSH1 0x1 PUSH1 0xA0 SHL SUB AND SWAP1 PUSH4 0x94C3C333 SWAP1 PUSH1 0x24 ADD PUSH1 0x20 PUSH1 0x40 MLOAD DUP1 DUP4 SUB DUP2 DUP7 GAS STATICCALL ISZERO DUP1 ISZERO PUSH2 0xF56 JUMPI RETURNDATASIZE PUSH0 DUP1 RETURNDATACOPY RETURNDATASIZE PUSH0 REVERT JUMPDEST POP POP POP POP PUSH1 0x40 MLOAD RETURNDATASIZE PUSH1 0x1F NOT PUSH1 0x1F DUP3 ADD AND DUP3 ADD DUP1 PUSH1 0x40 MSTORE POP DUP2 ADD SWAP1 PUSH2 0xF7A SWAP2 SWAP1 PUSH2 0x5C1F JUMP JUMPDEST PUSH1 0x2 EQ PUSH2 0xF85 JUMPI PUSH0 DUP1 REVERT JUMPDEST PUSH1 0xC DUP3 SWAP1 SSTORE PUSH1 0x40 MLOAD DUP3 DUP2 MSTORE PUSH32 0xBD209961024F2694B0AFB3C8BADD20B6477ABB77B336B16892C3FA4B906D323C SWAP1 PUSH1 0x20 ADD JUMPDEST PUSH1 0x40 MLOAD DUP1 SWAP2 SUB SWAP1 LOG1 POP PUSH1 0x1 JUMPDEST SWAP2 SWAP1 POP JUMP JUMPDEST PUSH0 PUSH1 0x1 PUSH1 0x1 PUSH1 0xA0 SHL SUB PUSH0 DUP1 MLOAD PUSH1 0x20 PUSH2 0x5F42 DUP4 CODECOPY DUP2 MLOAD SWAP2 MSTORE TLOAD AND ISZERO PUSH2 0xFE9 JUMPI PUSH0 DUP1 REVERT JUMPDEST PUSH2 0xFF2 CALLER PUSH2 0x2D65 JUMP JUMPDEST PUSH0 PUSH2 0x1022 PUSH1 0x40 MLOAD DUP1 PUSH1 0x40 ADD PUSH1 0x40 MSTORE DUP1 CALLER PUSH1 0x1 PUSH1 0x1 PUSH1 0xA0 SHL SUB AND DUP2 MSTORE PUSH1 0x20 ADD DUP7 PUSH1 0x1 PUSH1 0x1 PUSH1 0xA0 SHL SUB AND DUP2 MSTORE POP PUSH2 0x32F9 JUMP JUMPDEST PUSH0 DUP2 DUP2 MSTORE PUSH1 0xD PUSH1 0x20 MSTORE PUSH1 0x40 SWAP1 KECCAK256 PUSH1 0x1 ADD SLOAD SWAP1 SWAP2 POP PUSH1 0x1 PUSH1 0x1 PUSH1 0xA0 SHL SUB AND ISZERO DUP1 ISZERO PUSH2 0x105E JUMPI POP PUSH0 DUP7 DUP2 MSTORE PUSH1 0xD PUSH1 0x20 MSTORE PUSH1 0x40 SWAP1 KECCAK256 SLOAD PUSH1 0x1 PUSH1 0xFF SHL AND ISZERO ISZERO JUMPDEST PUSH2 0x1066 JUMPI PUSH0 DUP1 REVERT JUMPDEST PUSH2 0x108E CALLER PUSH2 0x1074 DUP8 PUSH1 0x80 SHR SWAP1 JUMP JUMPDEST PUSH1 0x1 PUSH1 0x1 PUSH1 0xA0 SHL SUB DUP8 AND SWAP2 SWAP1 PUSH1 0x1 PUSH1 0x1 PUSH1 0x80 SHL SUB AND PUSH2 0x2D78 JUMP JUMPDEST PUSH0 DUP7 DUP2 MSTORE PUSH1 0xD PUSH1 0x20 MSTORE PUSH1 0x40 SWAP1 KECCAK256 PUSH1 0x2 ADD SLOAD PUSH2 0x10BC SWAP1 PUSH1 0x1 PUSH1 0x1 PUSH1 0xA0 SHL SUB AND CALLER PUSH1 0x1 PUSH1 0x1 PUSH1 0x80 SHL SUB DUP9 AND PUSH2 0x2D78 JUMP JUMPDEST PUSH0 DUP7 DUP2 MSTORE PUSH1 0xD PUSH1 0x20 MSTORE PUSH1 0x40 DUP2 KECCAK256 PUSH2 0x10D3 SWAP1 DUP8 PUSH2 0x3347 JUMP JUMPDEST SWAP1 POP PUSH2 0x1112 PUSH2 0x10FD DUP3 PUSH1 0x40 ADD MLOAD PUSH2 0x10EA DUP10 PUSH1 0x80 SHR SWAP1 JUMP JUMPDEST PUSH1 0x1 PUSH1 0x1 PUSH1 0x80 SHL SUB AND PUSH1 0x80 SWAP2 SWAP1 SWAP2 SHL OR SWAP1 JUMP JUMPDEST PUSH0 DUP5 DUP2 MSTORE PUSH1 0xD PUSH1 0x20 MSTORE PUSH1 0x40 SWAP1 KECCAK256 SWAP1 DUP8 DUP8 PUSH2 0x349B JUMP JUMPDEST PUSH1 0x1 PUSH1 0x9 PUSH0 DUP3 DUP3 SLOAD PUSH2 0x1124 SWAP2 SWAP1 PUSH2 0x5CB6 JUMP JUMPDEST SWAP3 POP POP DUP2 SWAP1 SSTORE POP PUSH1 0x9 SLOAD PUSH1 0xB PUSH0 PUSH2 0x115D PUSH1 0x40 MLOAD DUP1 PUSH1 0x60 ADD PUSH1 0x40 MSTORE DUP1 CALLER PUSH1 0x1 PUSH1 0x1 PUSH1 0xA0 SHL SUB AND DUP2 MSTORE PUSH1 0x20 ADD DUP8 DUP2 MSTORE PUSH1 0x20 ADD DUP13 DUP2 MSTORE POP PUSH2 0x34E7 JUMP JUMPDEST DUP2 MSTORE PUSH1 0x20 ADD SWAP1 DUP2 MSTORE PUSH1 0x20 ADD PUSH0 KECCAK256 DUP2 SWAP1 SSTORE POP PUSH2 0x117A CALLER PUSH1 0x9 SLOAD PUSH2 0x3519 JUMP JUMPDEST PUSH1 0x40 DUP1 MLOAD PUSH1 0xA0 DUP2 ADD DUP3 MSTORE DUP4 DUP2 MSTORE PUSH1 0x20 DUP2 ADD DUP10 SWAP1 MSTORE DUP3 DUP3 ADD MLOAD SWAP1 SWAP2 DUP3 ADD SWAP1 PUSH1 0x80 SHL DUP2 MSTORE PUSH1 0x20 ADD PUSH2 0x11AD PUSH0 PUSH2 0x10EA DUP11 PUSH1 0x80 SHR SWAP1 JUMP JUMPDEST DUP2 MSTORE PUSH1 0x20 ADD PUSH2 0x11D4 DUP4 PUSH1 0x20 ADD MLOAD DUP5 PUSH1 0x60 ADD MLOAD PUSH1 0x80 SWAP2 SWAP1 SWAP2 SHL PUSH1 0x1 PUSH1 0x1 PUSH1 0x80 SHL SUB SWAP1 SWAP2 AND OR SWAP1 JUMP JUMPDEST DUP2 MSTORE POP PUSH1 0xA PUSH0 PUSH1 0x9 SLOAD DUP2 MSTORE PUSH1 0x20 ADD SWAP1 DUP2 MSTORE PUSH1 0x20 ADD PUSH0 KECCAK256 PUSH0 DUP3 ADD MLOAD DUP2 PUSH0 ADD SSTORE PUSH1 0x20 DUP3 ADD MLOAD DUP2 PUSH1 0x1 ADD SSTORE PUSH1 0x40 DUP3 ADD MLOAD DUP2 PUSH1 0x2 ADD SSTORE PUSH1 0x60 DUP3 ADD MLOAD DUP2 PUSH1 0x3 ADD SSTORE PUSH1 0x80 DUP3 ADD MLOAD DUP2 PUSH1 0x4 ADD SSTORE SWAP1 POP POP PUSH0 PUSH2 0x1259 PUSH32 0x0 CALLER DUP5 PUSH1 0x40 ADD MLOAD PUSH1 0x2 PUSH2 0x1254 SWAP2 SWAP1 PUSH2 0x5CC9 JUMP JUMPDEST PUSH2 0x36A1 JUMP JUMPDEST SWAP1 POP PUSH32 0x7F24D62C59FA0F0A64C80FBBD1FCE113D877D6C18A97AD6DFFE701F290F12384 PUSH1 0x9 SLOAD DUP5 DUP11 DUP10 DUP10 DUP7 PUSH2 0x12A9 PUSH2 0x1291 DUP16 PUSH1 0x80 SHR SWAP1 JUMP JUMPDEST PUSH1 0x40 DUP12 ADD MLOAD PUSH1 0x1 PUSH1 0x1 PUSH1 0x80 SHL SUB AND PUSH1 0x80 SWAP2 SWAP1 SWAP2 SHL OR SWAP1 JUMP JUMPDEST DUP10 MLOAD PUSH1 0x60 DUP12 ADD MLOAD PUSH1 0x1 PUSH1 0x1 PUSH1 0x80 SHL SUB AND PUSH1 0x80 SWAP2 SWAP1 SWAP2 SHL OR PUSH1 0x40 DUP1 MLOAD SWAP9 DUP10 MSTORE PUSH1 0x20 DUP10 ADD SWAP8 SWAP1 SWAP8 MSTORE SWAP6 DUP8 ADD SWAP5 SWAP1 SWAP5 MSTORE PUSH1 0x1 PUSH1 0x1 PUSH1 0xA0 SHL SUB SWAP1 SWAP3 AND PUSH1 0x60 DUP7 ADD MSTORE PUSH1 0x80 DUP6 ADD MSTORE PUSH1 0x1 PUSH1 0x1 PUSH1 0x80 SHL SUB AND PUSH1 0xA0 DUP5 ADD MSTORE PUSH1 0xC0 DUP4 ADD MSTORE PUSH1 0xE0 DUP3 ADD MSTORE PUSH2 0x100 ADD PUSH1 0x40 MLOAD DUP1 SWAP2 SUB SWAP1 LOG1 PUSH1 0x1 SWAP4 POP POP POP POP PUSH2 0x131F PUSH0 PUSH2 0x2D65 JUMP JUMPDEST SWAP5 SWAP4 POP POP POP POP JUMP JUMPDEST PUSH0 DUP1 PUSH1 0x1 PUSH1 0x1 PUSH1 0xA0 SHL SUB PUSH0 DUP1 MLOAD PUSH1 0x20 PUSH2 0x5F42 DUP4 CODECOPY DUP2 MLOAD SWAP2 MSTORE TLOAD AND ISZERO PUSH2 0x134A JUMPI PUSH0 DUP1 REVERT JUMPDEST PUSH2 0x1353 CALLER PUSH2 0x2D65 JUMP JUMPDEST PUSH1 0x1 PUSH1 0x1 PUSH1 0xA0 SHL SUB DUP4 AND ISZERO PUSH2 0x13DF JUMPI PUSH1 0x40 MLOAD PUSH4 0x76549E67 PUSH1 0xE1 SHL DUP2 MSTORE CALLER PUSH1 0x4 DUP3 ADD MSTORE PUSH1 0x1 PUSH1 0x1 PUSH1 0xA0 SHL SUB DUP5 DUP2 AND PUSH1 0x24 DUP4 ADD MSTORE PUSH32 0x0 AND SWAP1 PUSH4 0xECA93CCE SWAP1 PUSH1 0x44 ADD PUSH0 PUSH1 0x40 MLOAD DUP1 DUP4 SUB DUP2 PUSH0 DUP8 DUP1 EXTCODESIZE ISZERO DUP1 ISZERO PUSH2 0x13C8 JUMPI PUSH0 DUP1 REVERT JUMPDEST POP GAS CALL ISZERO DUP1 ISZERO PUSH2 0x13DA JUMPI RETURNDATASIZE PUSH0 DUP1 RETURNDATACOPY RETURNDATASIZE PUSH0 REVERT JUMPDEST POP POP POP POP JUMPDEST PUSH1 0x40 DUP1 MLOAD PUSH2 0x100 DUP2 ADD DUP3 MSTORE PUSH1 0x1 PUSH1 0x1 PUSH1 0x80 SHL SUB DUP9 AND DUP2 MSTORE PUSH0 PUSH1 0x20 DUP1 DUP4 ADD DUP3 SWAP1 MSTORE DUP3 DUP5 ADD DUP3 SWAP1 MSTORE PUSH1 0x60 DUP4 ADD DUP3 SWAP1 MSTORE DUP12 DUP3 MSTORE PUSH1 0xD DUP1 DUP3 MSTORE DUP5 DUP4 KECCAK256 PUSH1 0x3 DUP1 DUP3 ADD SLOAD PUSH1 0x80 DUP8 ADD MSTORE SWAP1 SLOAD PUSH1 0xA0 DUP7 ADD MSTORE DUP13 DUP5 MSTORE DUP2 DUP4 MSTORE SWAP5 DUP4 KECCAK256 SWAP5 DUP6 ADD SLOAD PUSH1 0xC0 DUP6 ADD MSTORE SWAP2 DUP12 SWAP1 MSTORE MSTORE SWAP1 SLOAD PUSH1 0xE0 DUP3 ADD MSTORE PUSH2 0x1451 DUP2 DUP8 PUSH2 0x371C JUMP JUMPDEST SWAP1 POP PUSH0 DUP8 PUSH1 0x1 PUSH1 0x1 PUSH1 0x80 SHL SUB AND GT DUP1 ISZERO PUSH2 0x1480 JUMPI POP DUP7 PUSH1 0x1 PUSH1 0x1 PUSH1 0x80 SHL SUB AND DUP2 PUSH0 ADD MLOAD PUSH1 0x1 PUSH1 0x1 PUSH1 0x80 SHL SUB AND EQ ISZERO JUMPDEST DUP1 ISZERO PUSH2 0x148C JUMPI POP DUP8 DUP10 EQ ISZERO JUMPDEST DUP1 ISZERO PUSH2 0x14B0 JUMPI POP PUSH1 0x1 DUP6 ISZERO ISZERO EQ DUP1 ISZERO PUSH2 0x14AE JUMPI POP DUP1 MLOAD PUSH1 0x1 PUSH1 0x1 PUSH1 0x80 SHL SUB AND ISZERO ISZERO JUMPDEST ISZERO JUMPDEST PUSH2 0x14B8 JUMPI PUSH0 DUP1 REVERT JUMPDEST PUSH1 0x20 DUP1 DUP3 ADD MLOAD PUSH0 DUP11 DUP2 MSTORE PUSH1 0xD SWAP1 SWAP3 MSTORE PUSH1 0x40 SWAP1 SWAP2 KECCAK256 SLOAD PUSH2 0x14EB SWAP2 PUSH1 0x1 PUSH1 0x1 PUSH1 0x80 SHL SUB AND PUSH2 0x2710 PUSH1 0xCC SWAP3 SWAP1 SWAP3 SHR PUSH1 0x7F AND MUL DIV SWAP1 JUMP JUMPDEST SWAP2 POP DUP2 DUP2 PUSH1 0x20 ADD MLOAD PUSH2 0x14FD SWAP2 SWAP1 PUSH2 0x5CF2 JUMP JUMPDEST PUSH1 0x80 DUP3 ADD MLOAD PUSH1 0x40 DUP1 DUP5 ADD MLOAD PUSH0 DUP14 DUP2 MSTORE PUSH1 0xD PUSH1 0x20 MSTORE SWAP2 SWAP1 SWAP2 KECCAK256 SWAP3 SWAP6 POP PUSH2 0x1523 SWAP3 SWAP2 SWAP1 PUSH2 0x3A44 JUMP JUMPDEST PUSH1 0xC0 DUP2 ADD MLOAD PUSH0 DUP10 DUP2 MSTORE PUSH1 0xD PUSH1 0x20 MSTORE PUSH1 0x40 SWAP1 KECCAK256 PUSH2 0x153F SWAP2 DUP5 PUSH2 0x3A44 JUMP JUMPDEST DUP1 MLOAD PUSH2 0x157B SWAP1 CALLER SWAP1 PUSH2 0x1551 SWAP1 DUP11 PUSH2 0x5CF2 JUMP JUMPDEST PUSH0 DUP13 DUP2 MSTORE PUSH1 0xD PUSH1 0x20 MSTORE PUSH1 0x40 SWAP1 KECCAK256 PUSH1 0x2 ADD SLOAD PUSH1 0x1 PUSH1 0x1 PUSH1 0xA0 SHL SUB AND SWAP2 SWAP1 PUSH1 0x1 PUSH1 0x1 PUSH1 0x80 SHL SUB AND PUSH2 0x2D78 JUMP JUMPDEST PUSH0 DUP9 DUP2 MSTORE PUSH1 0xD PUSH1 0x20 MSTORE PUSH1 0x40 SWAP1 KECCAK256 PUSH1 0x2 ADD SLOAD PUSH2 0x15A9 SWAP1 PUSH1 0x1 PUSH1 0x1 PUSH1 0xA0 SHL SUB AND CALLER PUSH1 0x1 PUSH1 0x1 PUSH1 0x80 SHL SUB DUP7 AND PUSH2 0x3A6B JUMP JUMPDEST DUP8 DUP10 PUSH32 0xA79C43E220B5FAF022716B06E757294B799A25F33D3C8B0121E614F7B5D988C4 CALLER DUP5 PUSH1 0x60 ADD MLOAD PUSH2 0x15FC DUP7 PUSH0 ADD MLOAD DUP14 PUSH2 0x15E4 SWAP2 SWAP1 PUSH2 0x5CF2 JUMP JUMPDEST PUSH1 0x40 DUP9 ADD MLOAD PUSH1 0x1 PUSH1 0x1 PUSH1 0x80 SHL SUB AND PUSH1 0x80 SWAP2 SWAP1 SWAP2 SHL OR SWAP1 JUMP JUMPDEST PUSH1 0x1 PUSH1 0x1 PUSH1 0x80 SHL SUB DUP9 AND PUSH1 0x80 DUP11 SWAP1 SHL OR PUSH1 0x40 DUP1 MLOAD PUSH1 0x1 PUSH1 0x1 PUSH1 0xA0 SHL SUB SWAP1 SWAP6 AND DUP6 MSTORE PUSH1 0x1 PUSH1 0x1 PUSH1 0x80 SHL SUB SWAP1 SWAP4 AND PUSH1 0x20 DUP6 ADD MSTORE SWAP2 DUP4 ADD MSTORE PUSH1 0x60 DUP3 ADD MSTORE PUSH1 0x80 ADD PUSH1 0x40 MLOAD DUP1 SWAP2 SUB SWAP1 LOG3 POP PUSH2 0x164B PUSH0 PUSH2 0x2D65 JUMP JUMPDEST SWAP7 POP SWAP7 SWAP5 POP POP POP POP POP JUMP JUMPDEST PUSH0 DUP2 DUP2 MSTORE PUSH1 0x2 PUSH1 0x20 MSTORE PUSH1 0x40 DUP2 KECCAK256 SLOAD PUSH1 0x1 PUSH1 0x1 PUSH1 0xA0 SHL SUB AND DUP1 PUSH2 0x853 JUMPI PUSH1 0x40 MLOAD PUSH3 0x461BCD PUSH1 0xE5 SHL DUP2 MSTORE PUSH1 0x20 PUSH1 0x4 DUP3 ADD MSTORE PUSH1 0x18 PUSH1 0x24 DUP3 ADD MSTORE PUSH24 0x115490CDCC8C4E881A5B9D985B1A59081D1BDAD95B881251 PUSH1 0x42 SHL PUSH1 0x44 DUP3 ADD MSTORE PUSH1 0x64 ADD PUSH2 0x980 JUMP JUMPDEST PUSH1 0x60 PUSH1 0x64 DUP4 MLOAD LT PUSH2 0x16C4 JUMPI PUSH0 DUP1 REVERT JUMPDEST PUSH0 DUP4 MLOAD PUSH8 0xFFFFFFFFFFFFFFFF DUP2 GT ISZERO PUSH2 0x16DF JUMPI PUSH2 0x16DF PUSH2 0x55BB JUMP JUMPDEST PUSH1 0x40 MLOAD SWAP1 DUP1 DUP3 MSTORE DUP1 PUSH1 0x20 MUL PUSH1 0x20 ADD DUP3 ADD PUSH1 0x40 MSTORE DUP1 ISZERO PUSH2 0x1708 JUMPI DUP2 PUSH1 0x20 ADD PUSH1 0x20 DUP3 MUL DUP1 CALLDATASIZE DUP4 CALLDATACOPY ADD SWAP1 POP JUMPDEST POP SWAP1 POP PUSH0 JUMPDEST DUP5 MLOAD DUP2 LT ISZERO PUSH2 0x17A5 JUMPI PUSH1 0xD PUSH0 DUP7 DUP4 DUP2 MLOAD DUP2 LT PUSH2 0x172B JUMPI PUSH2 0x172B PUSH2 0x5D11 JUMP JUMPDEST PUSH1 0x20 MUL PUSH1 0x20 ADD ADD MLOAD DUP2 MSTORE PUSH1 0x20 ADD SWAP1 DUP2 MSTORE PUSH1 0x20 ADD PUSH0 KECCAK256 PUSH1 0x6 ADD PUSH0 DUP6 PUSH1 0x1 PUSH1 0x1 PUSH1 0xA0 SHL SUB AND PUSH1 0x1 PUSH1 0x1 PUSH1 0xA0 SHL SUB AND DUP2 MSTORE PUSH1 0x20 ADD SWAP1 DUP2 MSTORE PUSH1 0x20 ADD PUSH0 KECCAK256 PUSH0 SWAP1 SLOAD SWAP1 PUSH2 0x100 EXP SWAP1 DIV PUSH1 0x1 PUSH1 0x1 PUSH1 0x80 SHL SUB AND PUSH1 0x1 PUSH1 0x1 PUSH1 0x80 SHL SUB AND DUP3 DUP3 DUP2 MLOAD DUP2 LT PUSH2 0x1792 JUMPI PUSH2 0x1792 PUSH2 0x5D11 JUMP JUMPDEST PUSH1 0x20 SWAP1 DUP2 MUL SWAP2 SWAP1 SWAP2 ADD ADD MSTORE PUSH1 0x1 ADD PUSH2 0x170D JUMP JUMPDEST POP SWAP4 SWAP3 POP POP POP JUMP JUMPDEST PUSH0 PUSH1 0x1 PUSH1 0x1 PUSH1 0xA0 SHL SUB DUP3 AND PUSH2 0x1816 JUMPI PUSH1 0x40 MLOAD PUSH3 0x461BCD PUSH1 0xE5 SHL DUP2 MSTORE PUSH1 0x20 PUSH1 0x4 DUP3 ADD MSTORE PUSH1 0x29 PUSH1 0x24 DUP3 ADD MSTORE PUSH32 0x4552433732313A2061646472657373207A65726F206973206E6F742061207661 PUSH1 0x44 DUP3 ADD MSTORE PUSH9 0x3634B21037BBB732B9 PUSH1 0xB9 SHL PUSH1 0x64 DUP3 ADD MSTORE PUSH1 0x84 ADD PUSH2 0x980 JUMP JUMPDEST POP PUSH1 0x1 PUSH1 0x1 PUSH1 0xA0 SHL SUB AND PUSH0 SWAP1 DUP2 MSTORE PUSH1 0x3 PUSH1 0x20 MSTORE PUSH1 0x40 SWAP1 KECCAK256 SLOAD SWAP1 JUMP JUMPDEST PUSH2 0x183D DUP5 DUP5 DUP5 DUP5 PUSH2 0x3046 JUMP JUMPDEST POP POP POP POP JUMP JUMPDEST PUSH0 PUSH1 0x60 DUP1 DUP3 DUP1 DUP1 DUP4 PUSH2 0x1876 PUSH32 0x0 PUSH1 0x6 PUSH2 0x3AFD JUMP JUMPDEST PUSH2 0x18A1 PUSH32 0x0 PUSH1 0x7 PUSH2 0x3AFD JUMP JUMPDEST PUSH1 0x40 DUP1 MLOAD PUSH0 DUP1 DUP3 MSTORE PUSH1 0x20 DUP3 ADD SWAP1 SWAP3 MSTORE PUSH1 0xF PUSH1 0xF8 SHL SWAP12 SWAP4 SWAP11 POP SWAP2 SWAP9 POP CHAINID SWAP8 POP ADDRESS SWAP7 POP SWAP5 POP SWAP3 POP SWAP1 POP JUMP JUMPDEST PUSH0 DUP4 DUP2 MSTORE PUSH1 0xD PUSH1 0x20 MSTORE PUSH1 0x40 DUP2 KECCAK256 PUSH1 0x2 ADD SLOAD PUSH1 0x1 PUSH1 0x1 PUSH1 0xA0 SHL SUB AND PUSH2 0x1912 JUMPI PUSH0 DUP5 DUP2 MSTORE PUSH1 0xD PUSH1 0x20 MSTORE PUSH1 0x40 SWAP1 KECCAK256 PUSH1 0x2 ADD SLOAD PUSH2 0x190D SWAP1 PUSH1 0x1 PUSH1 0x1 PUSH1 0xA0 SHL SUB AND DUP4 DUP6 PUSH2 0x3A6B JUMP JUMPDEST PUSH2 0x1938 JUMP JUMPDEST PUSH0 DUP5 DUP2 MSTORE PUSH1 0xD PUSH1 0x20 MSTORE PUSH1 0x40 SWAP1 KECCAK256 PUSH1 0x2 ADD SLOAD PUSH2 0x1938 SWAP1 PUSH1 0x1 PUSH1 0x1 PUSH1 0xA0 SHL SUB AND CALLER DUP5 DUP7 PUSH2 0x3BA6 JUMP JUMPDEST POP PUSH1 0x1 JUMPDEST SWAP4 SWAP3 POP POP POP JUMP JUMPDEST PUSH1 0x40 MLOAD PUSH4 0x94C3C333 PUSH1 0xE0 SHL DUP2 MSTORE CALLER PUSH1 0x4 DUP3 ADD MSTORE PUSH0 SWAP1 PUSH32 0x0 PUSH1 0x1 PUSH1 0x1 PUSH1 0xA0 SHL SUB AND SWAP1 PUSH4 0x94C3C333 SWAP1 PUSH1 0x24 ADD PUSH1 0x20 PUSH1 0x40 MLOAD DUP1 DUP4 SUB DUP2 DUP7 GAS STATICCALL ISZERO DUP1 ISZERO PUSH2 0x19A7 JUMPI RETURNDATASIZE PUSH0 DUP1 RETURNDATACOPY RETURNDATASIZE PUSH0 REVERT JUMPDEST POP POP POP POP PUSH1 0x40 MLOAD RETURNDATASIZE PUSH1 0x1F NOT PUSH1 0x1F DUP3 ADD AND DUP3 ADD DUP1 PUSH1 0x40 MSTORE POP DUP2 ADD SWAP1 PUSH2 0x19CB SWAP2 SWAP1 PUSH2 0x5C1F JUMP JUMPDEST PUSH1 0x2 EQ PUSH2 0x19D6 JUMPI PUSH0 DUP1 REVERT JUMPDEST PUSH1 0x1 PUSH1 0x1 PUSH1 0xA0 SHL SUB DUP3 AND PUSH0 DUP2 DUP2 MSTORE PUSH1 0xE PUSH1 0x20 SWAP1 DUP2 MSTORE PUSH1 0x40 DUP1 DUP4 KECCAK256 SWAP3 SWAP1 SWAP3 SSTORE SWAP1 MLOAD SWAP2 DUP3 MSTORE PUSH31 0x4BA2CA448DB089EB9FB0B25431F0D57664D46141171FED2476281B578D96D4 SWAP2 ADD PUSH2 0xFB6 JUMP JUMPDEST PUSH1 0x60 PUSH1 0x1 DUP1 SLOAD PUSH2 0x867 SWAP1 PUSH2 0x5BE7 JUMP JUMPDEST PUSH0 PUSH1 0x1 PUSH1 0xFF SHL DUP3 AND PUSH2 0x1A3F JUMPI PUSH0 DUP1 REVERT JUMPDEST PUSH2 0x1A49 CALLER DUP5 PUSH2 0x1074 JUMP JUMPDEST PUSH0 PUSH2 0x1A79 PUSH1 0x40 MLOAD DUP1 PUSH1 0x40 ADD PUSH1 0x40 MSTORE DUP1 CALLER PUSH1 0x1 PUSH1 0x1 PUSH1 0xA0 SHL SUB AND DUP2 MSTORE PUSH1 0x20 ADD DUP8 PUSH1 0x1 PUSH1 0x1 PUSH1 0xA0 SHL SUB AND DUP2 MSTORE POP PUSH2 0x32F9 JUMP JUMPDEST PUSH0 DUP2 DUP2 MSTORE PUSH1 0xD PUSH1 0x20 MSTORE PUSH1 0x40 SWAP1 KECCAK256 SWAP1 SWAP2 POP PUSH2 0x1A95 SWAP1 DUP6 DUP8 DUP7 PUSH2 0x349B JUMP JUMPDEST PUSH0 DUP2 DUP2 MSTORE PUSH1 0xD PUSH1 0x20 MSTORE PUSH1 0x40 SWAP1 KECCAK256 PUSH2 0x1AB1 SWAP1 PUSH5 0x100000000 PUSH2 0x2D1B JUMP JUMPDEST PUSH1 0x1 PUSH1 0x9 PUSH0 DUP3 DUP3 SLOAD PUSH2 0x1AC3 SWAP2 SWAP1 PUSH2 0x5CB6 JUMP JUMPDEST SWAP1 SWAP2 SSTORE POP POP PUSH1 0x40 DUP1 MLOAD PUSH1 0x60 DUP2 ADD DUP3 MSTORE CALLER DUP2 MSTORE PUSH1 0x20 DUP2 ADD DUP4 SWAP1 MSTORE PUSH0 SWAP2 DUP2 ADD DUP3 SWAP1 MSTORE PUSH2 0x1AEC SWAP1 PUSH2 0x34E7 JUMP JUMPDEST PUSH1 0x9 SLOAD PUSH0 DUP3 DUP2 MSTORE PUSH1 0xB PUSH1 0x20 MSTORE PUSH1 0x40 SWAP1 KECCAK256 DUP2 SWAP1 SSTORE SWAP1 SWAP2 POP PUSH2 0x1B0D SWAP1 CALLER SWAP1 PUSH2 0x3519 JUMP JUMPDEST PUSH2 0x1B49 DUP3 PUSH0 PUSH2 0x1B25 PUSH2 0x1B1F DUP10 PUSH1 0x80 SHR SWAP1 JUMP JUMPDEST PUSH1 0x80 SHL SWAP1 JUMP JUMPDEST PUSH2 0x1B2F PUSH0 DUP11 PUSH2 0x10EA JUMP JUMPDEST PUSH1 0x9 SLOAD PUSH0 SWAP1 DUP2 MSTORE PUSH1 0xA PUSH1 0x20 MSTORE PUSH1 0x40 DUP2 KECCAK256 SWAP5 SWAP4 SWAP3 SWAP2 SWAP1 PUSH2 0x3C4B JUMP JUMPDEST PUSH0 PUSH2 0x1B79 PUSH32 0x0 CALLER PUSH2 0x1254 DUP10 PUSH1 0x80 SHR SWAP1 JUMP JUMPDEST PUSH1 0x9 SLOAD PUSH1 0x40 DUP1 MLOAD SWAP2 DUP3 MSTORE PUSH1 0x20 DUP3 ADD DUP7 SWAP1 MSTORE PUSH1 0x1 PUSH1 0x1 PUSH1 0x80 SHL SUB DUP4 AND SWAP1 DUP3 ADD MSTORE PUSH1 0x1 PUSH1 0x1 PUSH1 0xA0 SHL SUB DUP10 AND PUSH1 0x60 DUP3 ADD MSTORE PUSH1 0x80 DUP2 ADD DUP8 SWAP1 MSTORE PUSH1 0xA0 DUP2 ADD DUP9 SWAP1 MSTORE SWAP1 SWAP2 POP PUSH32 0x1C22DB4272B2564E441961F166415A2651AE43C8D8992212CB4CAC04E81F54CC SWAP1 PUSH1 0xC0 ADD PUSH1 0x40 MLOAD DUP1 SWAP2 SUB SWAP1 LOG1 POP PUSH1 0x1 SWAP7 SWAP6 POP POP POP POP POP POP JUMP JUMPDEST PUSH2 0xCB4 CALLER DUP4 DUP4 PUSH2 0x3CB9 JUMP JUMPDEST PUSH0 PUSH1 0x1 PUSH1 0x1 PUSH1 0xA0 SHL SUB PUSH0 DUP1 MLOAD PUSH1 0x20 PUSH2 0x5F42 DUP4 CODECOPY DUP2 MLOAD SWAP2 MSTORE TLOAD AND ISZERO PUSH2 0x1C1F JUMPI PUSH0 DUP1 REVERT JUMPDEST PUSH2 0x1C28 CALLER PUSH2 0x2D65 JUMP JUMPDEST PUSH2 0x1C32 CALLER DUP5 PUSH2 0x2DBD JUMP JUMPDEST PUSH2 0x1C3A JUMPI PUSH0 DUP1 REVERT JUMPDEST PUSH0 DUP4 DUP2 MSTORE PUSH1 0xA PUSH1 0x20 MSTORE PUSH1 0x40 DUP1 DUP3 KECCAK256 PUSH1 0x1 DUP2 ADD SLOAD SWAP1 SLOAD SWAP2 MLOAD PUSH4 0xB88E6D63 PUSH1 0xE0 SHL DUP2 MSTORE CALLER PUSH1 0x4 DUP3 ADD MSTORE SWAP1 SWAP3 SWAP1 DUP2 SWAP1 PUSH32 0x0 PUSH1 0x1 PUSH1 0x1 PUSH1 0xA0 SHL SUB AND SWAP1 PUSH4 0xB88E6D63 SWAP1 PUSH1 0x24 ADD PUSH1 0x40 DUP1 MLOAD DUP1 DUP4 SUB DUP2 DUP7 GAS STATICCALL ISZERO DUP1 ISZERO PUSH2 0x1CB4 JUMPI RETURNDATASIZE PUSH0 DUP1 RETURNDATACOPY RETURNDATASIZE PUSH0 REVERT JUMPDEST POP POP POP POP PUSH1 0x40 MLOAD RETURNDATASIZE PUSH1 0x1F NOT PUSH1 0x1F DUP3 ADD AND DUP3 ADD DUP1 PUSH1 0x40 MSTORE POP DUP2 ADD SWAP1 PUSH2 0x1CD8 SWAP2 SWAP1 PUSH2 0x5D25 JUMP JUMPDEST PUSH1 0x1 PUSH1 0x1 PUSH1 0xA0 SHL SUB DUP9 AND PUSH0 SWAP1 DUP2 MSTORE PUSH1 0xE PUSH1 0x20 MSTORE PUSH1 0x40 SWAP1 KECCAK256 SLOAD SWAP2 SWAP4 POP SWAP2 POP PUSH1 0x1 EQ PUSH2 0x1D02 JUMPI DUP6 PUSH2 0x1D04 JUMP JUMPDEST DUP2 JUMPDEST SWAP6 POP DUP1 PUSH1 0x1 PUSH1 0x1 PUSH1 0xA0 SHL SUB AND DUP7 PUSH1 0x1 PUSH1 0x1 PUSH1 0xA0 SHL SUB AND EQ PUSH2 0x1D25 JUMPI DUP1 PUSH2 0x1D27 JUMP JUMPDEST DUP2 JUMPDEST PUSH1 0x1 PUSH1 0x1 PUSH1 0xA0 SHL SUB DUP2 AND PUSH0 SWAP1 DUP2 MSTORE PUSH1 0xE PUSH1 0x20 MSTORE PUSH1 0x40 SWAP1 KECCAK256 SLOAD SWAP1 SWAP2 POP PUSH1 0x1 EQ PUSH2 0x1D4F JUMPI DUP2 PUSH2 0x1D51 JUMP JUMPDEST DUP1 JUMPDEST PUSH0 DUP6 DUP2 MSTORE PUSH1 0xD PUSH1 0x20 DUP2 DUP2 MSTORE PUSH1 0x40 DUP1 DUP5 KECCAK256 DUP13 DUP6 MSTORE PUSH1 0xA DUP4 MSTORE DUP2 DUP6 KECCAK256 PUSH1 0xC SLOAD DUP11 DUP8 MSTORE SWAP5 SWAP1 SWAP4 MSTORE SWAP4 KECCAK256 SWAP4 SWAP5 POP PUSH2 0x1D8A SWAP4 SWAP3 SWAP2 DUP11 SWAP1 DUP7 SWAP1 DUP9 PUSH2 0x3D86 JUMP JUMPDEST PUSH1 0x40 DUP1 MLOAD DUP6 DUP2 MSTORE PUSH1 0x20 DUP2 ADD DUP8 SWAP1 MSTORE SWAP1 DUP2 ADD DUP3 SWAP1 MSTORE SWAP1 SWAP6 POP DUP8 SWAP1 PUSH32 0x172F458C2C853ED38B0114381270DB7647BC1F9B612A42852353261A7E3379BE SWAP1 PUSH1 0x60 ADD PUSH1 0x40 MLOAD DUP1 SWAP2 SUB SWAP1 LOG2 POP POP POP POP PUSH2 0x853 PUSH0 PUSH2 0x2D65 JUMP JUMPDEST PUSH2 0x1E22 PUSH1 0x40 MLOAD DUP1 PUSH1 0xC0 ADD PUSH1 0x40 MSTORE DUP1 PUSH0 DUP2 MSTORE PUSH1 0x20 ADD PUSH0 PUSH1 0x1 PUSH1 0x1 PUSH1 0xA0 SHL SUB AND DUP2 MSTORE PUSH1 0x20 ADD PUSH0 PUSH1 0x1 PUSH1 0x1 PUSH1 0xA0 SHL SUB AND DUP2 MSTORE PUSH1 0x20 ADD PUSH0 DUP2 MSTORE PUSH1 0x20 ADD PUSH0 DUP2 MSTORE PUSH1 0x20 ADD PUSH0 DUP2 MSTORE POP SWAP1 JUMP JUMPDEST POP PUSH1 0x40 DUP1 MLOAD PUSH1 0xC0 DUP2 ADD DUP3 MSTORE PUSH0 DUP4 DUP2 MSTORE PUSH1 0xD PUSH1 0x20 DUP2 DUP2 MSTORE DUP5 DUP4 KECCAK256 DUP1 SLOAD DUP6 MSTORE PUSH1 0x1 DUP2 ADD SLOAD PUSH1 0x1 PUSH1 0x1 PUSH1 0xA0 SHL SUB SWAP1 DUP2 AND DUP4 DUP8 ADD MSTORE PUSH1 0x2 DUP3 ADD SLOAD AND SWAP6 DUP6 ADD SWAP6 SWAP1 SWAP6 MSTORE PUSH1 0x3 DUP6 ADD SLOAD PUSH1 0x60 DUP6 ADD MSTORE PUSH1 0x4 DUP6 ADD SLOAD PUSH1 0x80 DUP6 ADD MSTORE SWAP5 SWAP1 SWAP2 MSTORE SWAP1 SWAP3 MSTORE PUSH1 0x5 ADD SLOAD PUSH1 0xA0 DUP3 ADD MSTORE SWAP1 JUMP JUMPDEST PUSH0 DUP1 PUSH1 0x1 PUSH1 0x1 PUSH1 0xA0 SHL SUB PUSH0 DUP1 MLOAD PUSH1 0x20 PUSH2 0x5F42 DUP4 CODECOPY DUP2 MLOAD SWAP2 MSTORE TLOAD AND ISZERO PUSH2 0x1EAA JUMPI PUSH0 DUP1 REVERT JUMPDEST PUSH2 0x1EB3 CALLER PUSH2 0x2D65 JUMP JUMPDEST PUSH1 0x40 DUP1 MLOAD PUSH2 0x100 DUP2 ADD DUP3 MSTORE PUSH1 0x1 PUSH1 0x1 PUSH1 0x80 SHL SUB DUP8 AND DUP2 MSTORE PUSH0 PUSH1 0x20 DUP1 DUP4 ADD DUP3 SWAP1 MSTORE DUP3 DUP5 ADD DUP3 SWAP1 MSTORE PUSH1 0x60 DUP4 ADD DUP3 SWAP1 MSTORE DUP11 DUP3 MSTORE PUSH1 0xD DUP1 DUP3 MSTORE DUP5 DUP4 KECCAK256 PUSH1 0x3 DUP1 DUP3 ADD SLOAD PUSH1 0x80 DUP8 ADD MSTORE SWAP1 SLOAD PUSH1 0xA0 DUP7 ADD MSTORE DUP12 DUP5 MSTORE DUP2 DUP4 MSTORE SWAP5 DUP4 KECCAK256 SWAP5 DUP6 ADD SLOAD PUSH1 0xC0 DUP6 ADD MSTORE SWAP2 DUP11 SWAP1 MSTORE MSTORE SWAP1 SLOAD PUSH1 0xE0 DUP3 ADD MSTORE PUSH2 0x1F25 DUP2 DUP7 PUSH2 0x3E77 JUMP JUMPDEST SWAP1 POP DUP7 DUP9 EQ ISZERO DUP1 ISZERO PUSH2 0x1F3F JUMPI POP DUP1 MLOAD PUSH1 0x1 PUSH1 0x1 PUSH1 0x80 SHL SUB AND ISZERO JUMPDEST PUSH2 0x1F47 JUMPI PUSH0 DUP1 REVERT JUMPDEST PUSH1 0x20 DUP1 DUP3 ADD MLOAD PUSH0 DUP11 DUP2 MSTORE PUSH1 0xD SWAP1 SWAP3 MSTORE PUSH1 0x40 SWAP1 SWAP2 KECCAK256 SLOAD PUSH2 0x1F7A SWAP2 PUSH1 0x1 PUSH1 0x1 PUSH1 0x80 SHL SUB AND PUSH2 0x2710 PUSH1 0xC5 SWAP3 SWAP1 SWAP3 SHR PUSH1 0x7F AND MUL DIV SWAP1 JUMP JUMPDEST SWAP2 POP DUP2 DUP2 PUSH1 0x20 ADD MLOAD PUSH2 0x1F8C SWAP2 SWAP1 PUSH2 0x5C4A JUMP JUMPDEST PUSH1 0xC0 DUP3 ADD MLOAD PUSH1 0x40 DUP1 DUP5 ADD MLOAD PUSH0 DUP12 DUP2 MSTORE PUSH1 0xD PUSH1 0x20 MSTORE SWAP2 SWAP1 SWAP2 KECCAK256 SWAP3 SWAP6 POP PUSH2 0x1FB2 SWAP3 SWAP2 SWAP1 PUSH2 0x3A44 JUMP JUMPDEST PUSH1 0x80 DUP2 ADD MLOAD PUSH0 DUP10 DUP2 MSTORE PUSH1 0xD PUSH1 0x20 MSTORE PUSH1 0x40 SWAP1 KECCAK256 PUSH2 0x1FCE SWAP2 DUP5 PUSH2 0x3A44 JUMP JUMPDEST PUSH2 0x200C DUP5 DUP3 PUSH1 0x40 ADD MLOAD DUP9 PUSH2 0x1FE2 SWAP2 SWAP1 PUSH2 0x5CF2 JUMP JUMPDEST PUSH0 DUP11 DUP2 MSTORE PUSH1 0xD PUSH1 0x20 MSTORE PUSH1 0x40 SWAP1 KECCAK256 PUSH1 0x2 ADD SLOAD PUSH1 0x1 PUSH1 0x1 PUSH1 0xA0 SHL SUB AND SWAP2 SWAP1 PUSH1 0x1 PUSH1 0x1 PUSH1 0x80 SHL SUB AND PUSH2 0x3A6B JUMP JUMPDEST PUSH0 DUP9 DUP2 MSTORE PUSH1 0xD PUSH1 0x20 MSTORE PUSH1 0x40 SWAP1 KECCAK256 PUSH1 0x2 ADD SLOAD PUSH2 0x203A SWAP1 PUSH1 0x1 PUSH1 0x1 PUSH1 0xA0 SHL SUB AND CALLER PUSH1 0x1 PUSH1 0x1 PUSH1 0x80 SHL SUB DUP7 AND PUSH2 0x2D78 JUMP JUMPDEST DUP7 DUP9 PUSH32 0x3DE590341C976EA6FCE618EF4A768A15441201AD3ED7C9B438D82C3951DE7CED CALLER DUP8 DUP6 PUSH1 0x60 ADD MLOAD PUSH2 0x2082 DUP13 DUP9 PUSH1 0x40 ADD MLOAD PUSH1 0x80 SWAP2 SWAP1 SWAP2 SHL PUSH1 0x1 PUSH1 0x1 PUSH1 0x80 SHL SUB SWAP1 SWAP2 AND OR SWAP1 JUMP JUMPDEST PUSH1 0x40 DUP1 MLOAD PUSH1 0x1 PUSH1 0x1 PUSH1 0xA0 SHL SUB SWAP6 DUP7 AND DUP2 MSTORE SWAP4 SWAP1 SWAP5 AND PUSH1 0x20 DUP5 ADD MSTORE PUSH1 0x1 PUSH1 0x1 PUSH1 0x80 SHL SUB SWAP2 DUP3 AND DUP4 DUP6 ADD MSTORE PUSH1 0x60 DUP4 ADD MSTORE PUSH1 0x80 DUP10 DUP2 SHL SWAP2 DUP10 AND SWAP2 SWAP1 SWAP2 OR SWAP1 DUP3 ADD MSTORE SWAP1 MLOAD SWAP1 DUP2 SWAP1 SUB PUSH1 0xA0 ADD SWAP1 LOG3 POP PUSH2 0x20D5 PUSH0 PUSH2 0x2D65 JUMP JUMPDEST SWAP6 POP SWAP6 SWAP4 POP POP POP POP JUMP JUMPDEST PUSH0 DUP4 DUP2 MSTORE PUSH1 0xD PUSH1 0x20 MSTORE PUSH1 0x40 DUP1 DUP3 KECCAK256 PUSH1 0x3 SWAP1 DUP2 ADD SLOAD DUP6 DUP5 MSTORE SWAP2 DUP4 KECCAK256 ADD SLOAD PUSH2 0x131F SWAP2 SWAP1 DUP5 PUSH2 0x40C0 JUMP JUMPDEST PUSH1 0x40 MLOAD PUSH4 0x94C3C333 PUSH1 0xE0 SHL DUP2 MSTORE CALLER PUSH1 0x4 DUP3 ADD MSTORE PUSH0 SWAP1 PUSH32 0x0 PUSH1 0x1 PUSH1 0x1 PUSH1 0xA0 SHL SUB AND SWAP1 PUSH4 0x94C3C333 SWAP1 PUSH1 0x24 ADD PUSH1 0x20 PUSH1 0x40 MLOAD DUP1 DUP4 SUB DUP2 DUP7 GAS STATICCALL ISZERO DUP1 ISZERO PUSH2 0x216A JUMPI RETURNDATASIZE PUSH0 DUP1 RETURNDATACOPY RETURNDATASIZE PUSH0 REVERT JUMPDEST POP POP POP POP PUSH1 0x40 MLOAD RETURNDATASIZE PUSH1 0x1F NOT PUSH1 0x1F DUP3 ADD AND DUP3 ADD DUP1 PUSH1 0x40 MSTORE POP DUP2 ADD SWAP1 PUSH2 0x218E SWAP2 SWAP1 PUSH2 0x5C1F JUMP JUMPDEST PUSH1 0x2 EQ PUSH2 0x2199 JUMPI PUSH0 DUP1 REVERT JUMPDEST PUSH1 0x1 PUSH1 0x1 PUSH1 0xA0 SHL SUB DUP3 AND PUSH0 DUP2 DUP2 MSTORE PUSH1 0xE PUSH1 0x20 SWAP1 DUP2 MSTORE PUSH1 0x40 SWAP2 DUP3 SWAP1 KECCAK256 PUSH1 0x1 SWAP1 SSTORE SWAP1 MLOAD SWAP2 DUP3 MSTORE PUSH32 0x8E1C2D1A5DCE36A56A9DFCB96E5816E793C16D6C897B4E3C0B1F99588BB88A1C SWAP2 ADD PUSH2 0xFB6 JUMP JUMPDEST PUSH2 0x21EF CALLER DUP4 PUSH2 0x2DBD JUMP JUMPDEST PUSH2 0x220B JUMPI PUSH1 0x40 MLOAD PUSH3 0x461BCD PUSH1 0xE5 SHL DUP2 MSTORE PUSH1 0x4 ADD PUSH2 0x980 SWAP1 PUSH2 0x5C69 JUMP JUMPDEST PUSH0 DUP3 DUP2 MSTORE PUSH1 0xA PUSH1 0x20 MSTORE PUSH1 0x40 SWAP1 KECCAK256 PUSH1 0x2 ADD SLOAD PUSH2 0x224C SWAP1 PUSH32 0x0 SWAP1 DUP7 SWAP1 PUSH1 0x80 SHR PUSH2 0x2E39 JUMP JUMPDEST PUSH2 0x2258 DUP5 DUP5 DUP5 DUP5 PUSH2 0x414B JUMP JUMPDEST PUSH2 0x183D DUP3 DUP6 DUP6 PUSH2 0x2EC2 JUMP JUMPDEST PUSH1 0x60 PUSH2 0x226E DUP3 PUSH2 0x2C4D JUMP JUMPDEST PUSH0 PUSH2 0x2277 PUSH2 0x417E JUMP JUMPDEST SWAP1 POP PUSH0 DUP2 MLOAD GT PUSH2 0x2295 JUMPI PUSH1 0x40 MLOAD DUP1 PUSH1 0x20 ADD PUSH1 0x40 MSTORE DUP1 PUSH0 DUP2 MSTORE POP PUSH2 0x193C JUMP JUMPDEST DUP1 PUSH2 0x229F DUP5 PUSH2 0x419E JUMP JUMPDEST PUSH1 0x40 MLOAD PUSH1 0x20 ADD PUSH2 0x22B0 SWAP3 SWAP2 SWAP1 PUSH2 0x5D69 JUMP JUMPDEST PUSH1 0x40 MLOAD PUSH1 0x20 DUP2 DUP4 SUB SUB DUP2 MSTORE SWAP1 PUSH1 0x40 MSTORE SWAP4 SWAP3 POP POP POP JUMP JUMPDEST PUSH0 PUSH1 0x1 PUSH1 0x1 PUSH1 0xA0 SHL SUB PUSH0 DUP1 MLOAD PUSH1 0x20 PUSH2 0x5F42 DUP4 CODECOPY DUP2 MLOAD SWAP2 MSTORE TLOAD AND ISZERO PUSH2 0x22E8 JUMPI PUSH0 DUP1 REVERT JUMPDEST PUSH2 0x22F1 CALLER PUSH2 0x2D65 JUMP JUMPDEST PUSH1 0x40 DUP1 MLOAD PUSH1 0x80 DUP2 ADD DUP3 MSTORE PUSH0 DUP1 DUP3 MSTORE PUSH1 0x20 DUP3 ADD DUP2 SWAP1 MSTORE SWAP2 DUP2 ADD DUP3 SWAP1 MSTORE PUSH1 0x60 DUP2 ADD SWAP2 SWAP1 SWAP2 MSTORE PUSH1 0x40 DUP1 MLOAD PUSH1 0x80 DUP2 ADD DUP3 MSTORE PUSH0 DUP1 DUP3 MSTORE PUSH1 0x20 DUP3 ADD DUP2 SWAP1 MSTORE SWAP2 DUP2 ADD DUP3 SWAP1 MSTORE PUSH1 0x60 DUP2 ADD SWAP2 SWAP1 SWAP2 MSTORE PUSH0 DUP7 DUP2 MSTORE PUSH1 0xD PUSH1 0x20 MSTORE PUSH1 0x40 SWAP1 KECCAK256 PUSH1 0x3 ADD SLOAD PUSH1 0x1 PUSH1 0x6D SHL SWAP1 PUSH2 0x2359 SWAP1 DUP7 SWAP1 PUSH2 0x5C4A JUMP JUMPDEST PUSH1 0x1 PUSH1 0x1 PUSH1 0x80 SHL SUB AND GT ISZERO DUP1 ISZERO PUSH2 0x2370 JUMPI POP DUP5 DUP7 EQ ISZERO JUMPDEST DUP1 ISZERO PUSH2 0x23AA JUMPI POP PUSH0 DUP7 DUP2 MSTORE PUSH1 0xD PUSH1 0x20 MSTORE PUSH1 0x40 SWAP1 KECCAK256 SLOAD PUSH1 0x1 PUSH1 0xFF SHL AND ISZERO ISZERO DUP1 PUSH2 0x23AA JUMPI POP PUSH0 DUP6 DUP2 MSTORE PUSH1 0xD PUSH1 0x20 MSTORE PUSH1 0x40 SWAP1 KECCAK256 SLOAD PUSH1 0x1 PUSH1 0xFF SHL AND ISZERO ISZERO JUMPDEST PUSH2 0x23B2 JUMPI PUSH0 DUP1 REVERT JUMPDEST PUSH0 DUP7 DUP2 MSTORE PUSH1 0xD PUSH1 0x20 MSTORE PUSH1 0x40 SWAP1 KECCAK256 PUSH2 0x23C9 SWAP1 DUP6 PUSH2 0x3347 JUMP JUMPDEST PUSH0 DUP8 DUP2 MSTORE PUSH1 0xD PUSH1 0x20 MSTORE PUSH1 0x40 SWAP1 KECCAK256 PUSH1 0x2 ADD SLOAD SWAP1 SWAP3 POP PUSH2 0x23FA SWAP1 PUSH1 0x1 PUSH1 0x1 PUSH1 0xA0 SHL SUB AND CALLER PUSH1 0x1 PUSH1 0x1 PUSH1 0x80 SHL SUB DUP8 AND PUSH2 0x2D78 JUMP JUMPDEST DUP5 ISZERO PUSH2 0x24A4 JUMPI PUSH1 0x40 DUP1 DUP4 ADD MLOAD PUSH0 DUP8 DUP2 MSTORE PUSH1 0xD PUSH1 0x20 MSTORE SWAP2 SWAP1 SWAP2 KECCAK256 PUSH1 0x3 ADD SLOAD PUSH2 0x2420 SWAP2 PUSH2 0x422E JUMP JUMPDEST PUSH1 0x1 PUSH1 0x1 PUSH1 0x80 SHL SUB AND PUSH1 0x60 DUP3 ADD DUP2 SWAP1 MSTORE PUSH0 DUP7 DUP2 MSTORE PUSH1 0xD PUSH1 0x20 MSTORE PUSH1 0x40 SWAP1 KECCAK256 SLOAD PUSH1 0xD9 SHR PUSH1 0x3F AND PUSH2 0x2710 SWAP1 DUP2 SUB SWAP1 SWAP2 DIV MUL PUSH1 0x1 PUSH1 0x1 PUSH1 0x80 SHL SUB AND PUSH1 0x60 DUP3 ADD DUP2 SWAP1 MSTORE PUSH0 DUP7 DUP2 MSTORE PUSH1 0xD PUSH1 0x20 MSTORE PUSH1 0x40 SWAP1 KECCAK256 PUSH1 0x2 ADD SLOAD PUSH2 0x2486 SWAP2 PUSH1 0x1 PUSH1 0x1 PUSH1 0xA0 SHL SUB SWAP1 SWAP2 AND SWAP1 CALLER SWAP1 PUSH2 0x2D78 JUMP JUMPDEST PUSH1 0x60 DUP2 ADD MLOAD PUSH0 DUP7 DUP2 MSTORE PUSH1 0xD PUSH1 0x20 MSTORE PUSH1 0x40 SWAP1 KECCAK256 PUSH2 0x24A1 SWAP2 PUSH2 0x3347 JUMP JUMPDEST SWAP1 POP JUMPDEST PUSH0 PUSH2 0x24D1 PUSH1 0x40 MLOAD DUP1 PUSH1 0x60 ADD PUSH1 0x40 MSTORE DUP1 CALLER PUSH1 0x1 PUSH1 0x1 PUSH1 0xA0 SHL SUB AND DUP2 MSTORE PUSH1 0x20 ADD DUP10 DUP2 MSTORE PUSH1 0x20 ADD DUP9 DUP2 MSTORE POP PUSH2 0x34E7 JUMP JUMPDEST PUSH0 DUP2 DUP2 MSTORE PUSH1 0xB PUSH1 0x20 MSTORE PUSH1 0x40 DUP2 KECCAK256 SLOAD SWAP2 SWAP3 POP DUP2 SWAP1 SUB PUSH2 0x2523 JUMPI PUSH1 0x1 PUSH1 0x9 PUSH0 DUP3 DUP3 SLOAD PUSH2 0x24FB SWAP2 SWAP1 PUSH2 0x5CB6 JUMP JUMPDEST SWAP3 POP POP DUP2 SWAP1 SSTORE POP PUSH2 0x250E CALLER PUSH1 0x9 SLOAD PUSH2 0x3519 JUMP JUMPDEST POP PUSH1 0x9 SLOAD PUSH0 DUP3 DUP2 MSTORE PUSH1 0xB PUSH1 0x20 MSTORE PUSH1 0x40 SWAP1 KECCAK256 DUP2 SWAP1 SSTORE JUMPDEST PUSH1 0x40 DUP5 ADD MLOAD PUSH2 0x257E SWAP1 DUP10 SWAP1 DUP10 SWAP1 PUSH1 0x80 SHL PUSH1 0x20 DUP9 ADD MLOAD PUSH1 0x60 DUP10 ADD MLOAD PUSH1 0x1 PUSH1 0x1 PUSH1 0x80 SHL SUB AND PUSH1 0x80 SWAP2 SWAP1 SWAP2 SHL OR PUSH1 0x20 DUP9 ADD MLOAD PUSH1 0x60 DUP10 ADD MLOAD PUSH1 0x1 PUSH1 0x1 PUSH1 0x80 SHL SUB AND PUSH1 0x80 SWAP2 SWAP1 SWAP2 SHL OR PUSH0 DUP8 DUP2 MSTORE PUSH1 0xA PUSH1 0x20 MSTORE PUSH1 0x40 SWAP1 KECCAK256 SWAP5 SWAP4 SWAP3 SWAP2 SWAP1 PUSH2 0x3C4B JUMP JUMPDEST PUSH0 DUP8 ISZERO PUSH2 0x259A JUMPI PUSH1 0x40 DUP6 ADD MLOAD PUSH2 0x2595 SWAP1 PUSH1 0x2 PUSH2 0x5CC9 JUMP JUMPDEST PUSH2 0x25A0 JUMP JUMPDEST DUP5 PUSH1 0x40 ADD MLOAD JUMPDEST SWAP1 POP PUSH0 PUSH2 0x25CE PUSH32 0x0 CALLER DUP5 PUSH2 0x36A1 JUMP JUMPDEST SWAP1 POP DUP3 PUSH32 0x54327712026EC7EFF19C69F41B88780DAAA74A97AE2DCFA56A1DE52FB0E07FCD DUP12 DUP12 PUSH2 0x2612 DUP11 PUSH1 0x40 ADD MLOAD DUP7 PUSH1 0x80 SWAP2 SWAP1 SWAP2 SHL PUSH1 0x1 PUSH1 0x1 PUSH1 0x80 SHL SUB SWAP1 SWAP2 AND OR SWAP1 JUMP JUMPDEST DUP11 MLOAD PUSH1 0x60 DUP13 ADD MLOAD PUSH1 0x1 PUSH1 0x1 PUSH1 0x80 SHL SUB AND PUSH1 0x80 SWAP2 SWAP1 SWAP2 SHL OR DUP11 MLOAD PUSH1 0x60 DUP13 ADD MLOAD PUSH1 0x1 PUSH1 0x1 PUSH1 0x80 SHL SUB AND PUSH1 0x80 SWAP2 SWAP1 SWAP2 SHL OR PUSH1 0x40 DUP1 MLOAD SWAP6 DUP7 MSTORE PUSH1 0x20 DUP7 ADD SWAP5 SWAP1 SWAP5 MSTORE SWAP3 DUP5 ADD SWAP2 SWAP1 SWAP2 MSTORE PUSH1 0x60 DUP4 ADD MSTORE PUSH1 0x80 DUP3 ADD MSTORE PUSH1 0xA0 ADD PUSH1 0x40 MLOAD DUP1 SWAP2 SUB SWAP1 LOG2 PUSH1 0x1 SWAP7 POP POP POP POP POP POP POP PUSH2 0x193C PUSH0 PUSH2 0x2D65 JUMP JUMPDEST PUSH0 PUSH1 0x1 PUSH1 0x1 PUSH1 0xA0 SHL SUB PUSH0 DUP1 MLOAD PUSH1 0x20 PUSH2 0x5F42 DUP4 CODECOPY DUP2 MLOAD SWAP2 MSTORE TLOAD AND ISZERO PUSH2 0x26A0 JUMPI PUSH0 DUP1 REVERT JUMPDEST PUSH2 0x26A9 CALLER PUSH2 0x2D65 JUMP JUMPDEST PUSH2 0x26B3 CALLER DUP6 PUSH2 0x2DBD JUMP JUMPDEST PUSH2 0x26BB JUMPI PUSH0 DUP1 REVERT JUMPDEST PUSH1 0x40 DUP1 MLOAD PUSH1 0x60 DUP2 ADD DUP3 MSTORE PUSH0 DUP1 DUP3 MSTORE PUSH1 0x20 DUP3 ADD DUP2 SWAP1 MSTORE SWAP2 DUP2 ADD SWAP2 SWAP1 SWAP2 MSTORE PUSH1 0x40 DUP1 MLOAD PUSH1 0x60 DUP2 ADD DUP3 MSTORE PUSH0 DUP1 DUP3 MSTORE PUSH1 0x20 DUP3 ADD DUP2 SWAP1 MSTORE SWAP2 DUP2 ADD SWAP2 SWAP1 SWAP2 MSTORE PUSH0 DUP7 DUP2 MSTORE PUSH1 0xA PUSH1 0x20 MSTORE PUSH1 0x40 DUP1 DUP3 KECCAK256 DUP1 SLOAD PUSH1 0x1 SWAP1 SWAP2 ADD SLOAD SWAP2 MLOAD PUSH4 0xB88E6D63 PUSH1 0xE0 SHL DUP2 MSTORE CALLER PUSH1 0x4 DUP3 ADD MSTORE SWAP1 SWAP3 SWAP1 DUP2 SWAP1 DUP2 SWAP1 PUSH32 0x0 PUSH1 0x1 PUSH1 0x1 PUSH1 0xA0 SHL SUB AND SWAP1 PUSH4 0xB88E6D63 SWAP1 PUSH1 0x24 ADD PUSH1 0x40 DUP1 MLOAD DUP1 DUP4 SUB DUP2 DUP7 GAS STATICCALL ISZERO DUP1 ISZERO PUSH2 0x2770 JUMPI RETURNDATASIZE PUSH0 DUP1 RETURNDATACOPY RETURNDATASIZE PUSH0 REVERT JUMPDEST POP POP POP POP PUSH1 0x40 MLOAD RETURNDATASIZE PUSH1 0x1F NOT PUSH1 0x1F DUP3 ADD AND DUP3 ADD DUP1 PUSH1 0x40 MSTORE POP DUP2 ADD SWAP1 PUSH2 0x2794 SWAP2 SWAP1 PUSH2 0x5D25 JUMP JUMPDEST PUSH1 0x1 PUSH1 0x1 PUSH1 0xA0 SHL SUB DUP12 AND PUSH0 SWAP1 DUP2 MSTORE PUSH1 0xE PUSH1 0x20 MSTORE PUSH1 0x40 SWAP1 KECCAK256 SLOAD SWAP2 SWAP4 POP SWAP2 POP PUSH1 0x1 EQ PUSH2 0x27BE JUMPI DUP2 PUSH2 0x27C0 JUMP JUMPDEST DUP9 JUMPDEST SWAP9 POP DUP1 PUSH1 0x1 PUSH1 0x1 PUSH1 0xA0 SHL SUB AND DUP10 PUSH1 0x1 PUSH1 0x1 PUSH1 0xA0 SHL SUB AND EQ PUSH2 0x27E1 JUMPI DUP1 PUSH2 0x27E3 JUMP JUMPDEST DUP2 JUMPDEST PUSH1 0x1 PUSH1 0x1 PUSH1 0xA0 SHL SUB DUP2 AND PUSH0 SWAP1 DUP2 MSTORE PUSH1 0xE PUSH1 0x20 MSTORE PUSH1 0x40 SWAP1 KECCAK256 SLOAD SWAP1 SWAP2 POP PUSH1 0x1 EQ PUSH2 0x280B JUMPI DUP2 PUSH2 0x280D JUMP JUMPDEST DUP1 JUMPDEST SWAP1 POP PUSH2 0x28A2 PUSH1 0xD PUSH0 DUP7 DUP2 MSTORE PUSH1 0x20 ADD SWAP1 DUP2 MSTORE PUSH1 0x20 ADD PUSH0 KECCAK256 PUSH1 0xA PUSH0 DUP15 DUP2 MSTORE PUSH1 0x20 ADD SWAP1 DUP2 MSTORE PUSH1 0x20 ADD PUSH0 KECCAK256 PUSH1 0x40 MLOAD DUP1 PUSH1 0xA0 ADD PUSH1 0x40 MSTORE DUP1 DUP15 PUSH1 0x1 PUSH1 0x1 PUSH1 0x80 SHL SUB AND DUP2 MSTORE PUSH1 0x20 ADD DUP14 PUSH1 0x1 PUSH1 0x1 PUSH1 0xA0 SHL SUB AND DUP2 MSTORE PUSH1 0x20 ADD DUP6 PUSH1 0x1 PUSH1 0x1 PUSH1 0xA0 SHL SUB AND DUP2 MSTORE PUSH1 0x20 ADD PUSH1 0xC SLOAD DUP2 MSTORE PUSH1 0x20 ADD DUP7 PUSH1 0x1 PUSH1 0x1 PUSH1 0xA0 SHL SUB AND DUP2 MSTORE POP PUSH1 0xD PUSH0 DUP11 DUP2 MSTORE PUSH1 0x20 ADD SWAP1 DUP2 MSTORE PUSH1 0x20 ADD PUSH0 KECCAK256 PUSH2 0x425E SWAP1 SWAP4 SWAP3 SWAP2 SWAP1 PUSH4 0xFFFFFFFF AND JUMP JUMPDEST SWAP2 SWAP9 POP SWAP7 POP SWAP3 POP DUP4 ISZERO PUSH2 0x28BD JUMPI PUSH2 0x28BA DUP4 PUSH1 0x2 PUSH2 0x5CC9 JUMP JUMPDEST SWAP3 POP JUMPDEST PUSH2 0x28E8 PUSH32 0x0 CALLER DUP6 PUSH2 0x2E39 JUMP JUMPDEST DUP11 PUSH32 0x4741DE4D43F1462A092CDF2A25CFC5D5BDF2C96F169D5E64121E800B6FC417EE DUP7 DUP7 PUSH1 0x80 DUP8 SWAP1 SHL PUSH1 0x20 DUP13 ADD MLOAD PUSH1 0x40 DUP14 ADD MLOAD PUSH1 0x1 PUSH1 0x1 PUSH1 0x80 SHL SUB AND PUSH1 0x80 SWAP2 SWAP1 SWAP2 SHL OR PUSH1 0x20 DUP13 ADD MLOAD PUSH1 0x40 DUP14 ADD MLOAD PUSH1 0x1 PUSH1 0x1 PUSH1 0x80 SHL SUB AND PUSH1 0x80 SWAP2 SWAP1 SWAP2 SHL OR DUP14 MLOAD DUP14 MLOAD PUSH1 0x1 PUSH1 0x1 PUSH1 0x80 SHL SUB AND PUSH1 0x80 SWAP2 SWAP1 SWAP2 SHL OR PUSH1 0x40 DUP1 MLOAD SWAP7 DUP8 MSTORE PUSH1 0x20 DUP8 ADD SWAP6 SWAP1 SWAP6 MSTORE SWAP4 DUP6 ADD SWAP3 SWAP1 SWAP3 MSTORE PUSH1 0x60 DUP5 ADD MSTORE PUSH1 0x80 DUP4 ADD MSTORE PUSH1 0xA0 DUP3 ADD MSTORE PUSH1 0xC0 ADD PUSH1 0x40 MLOAD DUP1 SWAP2 SUB SWAP1 LOG2 PUSH1 0x1 SWAP8 POP POP POP POP POP POP POP POP PUSH2 0x193C PUSH0 PUSH2 0x2D65 JUMP JUMPDEST PUSH1 0x64 DUP2 MLOAD LT PUSH2 0x29AA JUMPI PUSH0 DUP1 REVERT JUMPDEST PUSH0 DUP2 MLOAD PUSH8 0xFFFFFFFFFFFFFFFF DUP2 GT ISZERO PUSH2 0x29C5 JUMPI PUSH2 0x29C5 PUSH2 0x55BB JUMP JUMPDEST PUSH1 0x40 MLOAD SWAP1 DUP1 DUP3 MSTORE DUP1 PUSH1 0x20 MUL PUSH1 0x20 ADD DUP3 ADD PUSH1 0x40 MSTORE DUP1 ISZERO PUSH2 0x29EE JUMPI DUP2 PUSH1 0x20 ADD PUSH1 0x20 DUP3 MUL DUP1 CALLDATASIZE DUP4 CALLDATACOPY ADD SWAP1 POP JUMPDEST POP SWAP1 POP PUSH0 JUMPDEST DUP3 MLOAD DUP2 LT ISZERO PUSH2 0x2BCC JUMPI PUSH1 0xD PUSH0 DUP5 DUP4 DUP2 MLOAD DUP2 LT PUSH2 0x2A11 JUMPI PUSH2 0x2A11 PUSH2 0x5D11 JUMP JUMPDEST PUSH1 0x20 SWAP1 DUP2 MUL SWAP2 SWAP1 SWAP2 ADD DUP2 ADD MLOAD DUP3 MSTORE DUP2 DUP2 ADD SWAP3 SWAP1 SWAP3 MSTORE PUSH1 0x40 SWAP1 DUP2 ADD PUSH0 SWAP1 DUP2 KECCAK256 CALLER DUP3 MSTORE PUSH1 0x6 ADD SWAP1 SWAP3 MSTORE SWAP1 KECCAK256 SLOAD DUP3 MLOAD PUSH1 0x1 PUSH1 0x1 PUSH1 0x80 SHL SUB SWAP1 SWAP2 AND SWAP1 DUP4 SWAP1 DUP4 SWAP1 DUP2 LT PUSH2 0x2A5B JUMPI PUSH2 0x2A5B PUSH2 0x5D11 JUMP JUMPDEST PUSH1 0x20 MUL PUSH1 0x20 ADD ADD DUP2 DUP2 MSTORE POP POP PUSH1 0x2 DUP3 DUP3 DUP2 MLOAD DUP2 LT PUSH2 0x2A7B JUMPI PUSH2 0x2A7B PUSH2 0x5D11 JUMP JUMPDEST PUSH1 0x20 MUL PUSH1 0x20 ADD ADD MLOAD LT ISZERO PUSH2 0x2AAD JUMPI PUSH0 DUP3 DUP3 DUP2 MLOAD DUP2 LT PUSH2 0x2A9C JUMPI PUSH2 0x2A9C PUSH2 0x5D11 JUMP JUMPDEST PUSH1 0x20 MUL PUSH1 0x20 ADD ADD DUP2 DUP2 MSTORE POP POP PUSH2 0x2BC4 JUMP JUMPDEST PUSH1 0x1 DUP3 DUP3 DUP2 MLOAD DUP2 LT PUSH2 0x2AC1 JUMPI PUSH2 0x2AC1 PUSH2 0x5D11 JUMP JUMPDEST PUSH1 0x20 MUL PUSH1 0x20 ADD ADD MLOAD PUSH2 0x2AD3 SWAP2 SWAP1 PUSH2 0x5D7D JUMP JUMPDEST DUP3 DUP3 DUP2 MLOAD DUP2 LT PUSH2 0x2AE5 JUMPI PUSH2 0x2AE5 PUSH2 0x5D11 JUMP JUMPDEST PUSH1 0x20 MUL PUSH1 0x20 ADD ADD DUP2 DUP2 MSTORE POP POP PUSH1 0x1 PUSH1 0xD PUSH0 DUP6 DUP5 DUP2 MLOAD DUP2 LT PUSH2 0x2B08 JUMPI PUSH2 0x2B08 PUSH2 0x5D11 JUMP JUMPDEST PUSH1 0x20 MUL PUSH1 0x20 ADD ADD MLOAD DUP2 MSTORE PUSH1 0x20 ADD SWAP1 DUP2 MSTORE PUSH1 0x20 ADD PUSH0 KECCAK256 PUSH1 0x6 ADD PUSH0 CALLER PUSH1 0x1 PUSH1 0x1 PUSH1 0xA0 SHL SUB AND PUSH1 0x1 PUSH1 0x1 PUSH1 0xA0 SHL SUB AND DUP2 MSTORE PUSH1 0x20 ADD SWAP1 DUP2 MSTORE PUSH1 0x20 ADD PUSH0 KECCAK256 PUSH0 PUSH2 0x100 EXP DUP2 SLOAD DUP2 PUSH1 0x1 PUSH1 0x1 PUSH1 0x80 SHL SUB MUL NOT AND SWAP1 DUP4 PUSH1 0x1 PUSH1 0x1 PUSH1 0x80 SHL SUB AND MUL OR SWAP1 SSTORE POP PUSH2 0x2BC4 CALLER DUP4 DUP4 DUP2 MLOAD DUP2 LT PUSH2 0x2B7A JUMPI PUSH2 0x2B7A PUSH2 0x5D11 JUMP JUMPDEST PUSH1 0x20 MUL PUSH1 0x20 ADD ADD MLOAD PUSH1 0xD PUSH0 DUP8 DUP7 DUP2 MLOAD DUP2 LT PUSH2 0x2B97 JUMPI PUSH2 0x2B97 PUSH2 0x5D11 JUMP JUMPDEST PUSH1 0x20 SWAP1 DUP2 MUL SWAP2 SWAP1 SWAP2 ADD DUP2 ADD MLOAD DUP3 MSTORE DUP2 ADD SWAP2 SWAP1 SWAP2 MSTORE PUSH1 0x40 ADD PUSH0 KECCAK256 PUSH1 0x2 ADD SLOAD PUSH1 0x1 PUSH1 0x1 PUSH1 0xA0 SHL SUB AND SWAP2 SWAP1 PUSH2 0x3A6B JUMP JUMPDEST PUSH1 0x1 ADD PUSH2 0x29F3 JUMP JUMPDEST POP PUSH32 0x8124A8D085CEB98E89AC6906C6E138DCA5FDBC28A91438E33D7A2AB6C75742FD DUP3 DUP3 PUSH1 0x40 MLOAD PUSH2 0xE43 SWAP3 SWAP2 SWAP1 PUSH2 0x5D90 JUMP JUMPDEST PUSH0 PUSH1 0x1 PUSH1 0x1 PUSH1 0xE0 SHL SUB NOT DUP3 AND PUSH4 0x80AC58CD PUSH1 0xE0 SHL EQ DUP1 PUSH2 0x2C2E JUMPI POP PUSH1 0x1 PUSH1 0x1 PUSH1 0xE0 SHL SUB NOT DUP3 AND PUSH4 0x5B5E139F PUSH1 0xE0 SHL EQ JUMPDEST DUP1 PUSH2 0x853 JUMPI POP PUSH4 0x1FFC9A7 PUSH1 0xE0 SHL PUSH1 0x1 PUSH1 0x1 PUSH1 0xE0 SHL SUB NOT DUP4 AND EQ PUSH2 0x853 JUMP JUMPDEST PUSH0 DUP2 DUP2 MSTORE PUSH1 0x2 PUSH1 0x20 MSTORE PUSH1 0x40 SWAP1 KECCAK256 SLOAD PUSH1 0x1 PUSH1 0x1 PUSH1 0xA0 SHL SUB AND PUSH2 0x2CAB JUMPI PUSH1 0x40 MLOAD PUSH3 0x461BCD PUSH1 0xE5 SHL DUP2 MSTORE PUSH1 0x20 PUSH1 0x4 DUP3 ADD MSTORE PUSH1 0x18 PUSH1 0x24 DUP3 ADD MSTORE PUSH24 0x115490CDCC8C4E881A5B9D985B1A59081D1BDAD95B881251 PUSH1 0x42 SHL PUSH1 0x44 DUP3 ADD MSTORE PUSH1 0x64 ADD PUSH2 0x980 JUMP JUMPDEST POP JUMP JUMPDEST PUSH0 DUP2 DUP2 MSTORE PUSH1 0x4 PUSH1 0x20 MSTORE PUSH1 0x40 SWAP1 KECCAK256 DUP1 SLOAD PUSH1 0x1 PUSH1 0x1 PUSH1 0xA0 SHL SUB NOT AND PUSH1 0x1 PUSH1 0x1 PUSH1 0xA0 SHL SUB DUP5 AND SWAP1 DUP2 OR SWAP1 SWAP2 SSTORE DUP2 SWAP1 PUSH2 0x2CE2 DUP3 PUSH2 0x1656 JUMP JUMPDEST PUSH1 0x1 PUSH1 0x1 PUSH1 0xA0 SHL SUB AND PUSH32 0x8C5BE1E5EBEC7D5BD14F71427D1E84F3DD0314C0F7B2291E5B200AC8C7C3B925 PUSH1 0x40 MLOAD PUSH1 0x40 MLOAD DUP1 SWAP2 SUB SWAP1 LOG4 POP POP JUMP JUMPDEST DUP2 SLOAD PUSH1 0xDF DUP3 SWAP1 SHL SWAP1 PUSH2 0x2D32 SWAP1 PUSH1 0x1 PUSH1 0xDF SHL SWAP1 PUSH2 0x5DC8 JUMP JUMPDEST PUSH2 0x2D3C SWAP2 SWAP1 PUSH2 0x5CB6 JUMP JUMPDEST SWAP1 SWAP2 SSTORE POP JUMP JUMPDEST DUP2 SLOAD PUSH1 0x1 PUSH1 0x1 PUSH1 0xDF SHL SUB SWAP1 SWAP2 AND SWAP1 PUSH2 0x2D3C SWAP1 DUP3 SWAP1 PUSH1 0x1 PUSH1 0x1 PUSH1 0xDF SHL SUB NOT AND PUSH2 0x5CB6 JUMP JUMPDEST DUP1 PUSH0 DUP1 MLOAD PUSH1 0x20 PUSH2 0x5F42 DUP4 CODECOPY DUP2 MLOAD SWAP2 MSTORE TSTORE POP JUMP JUMPDEST ADDRESS PUSH2 0x183D DUP5 DUP5 DUP4 DUP6 PUSH2 0x3BA6 JUMP JUMPDEST PUSH0 PUSH1 0x80 DUP3 DUP2 SAR SWAP1 DUP5 SWAP1 SAR ADD PUSH1 0x1 PUSH1 0x1 PUSH1 0x80 SHL SUB DUP4 DUP2 AND SWAP1 DUP6 AND ADD PUSH2 0x2DB4 PUSH2 0x2DAB DUP4 PUSH2 0x4762 JUMP JUMPDEST PUSH2 0x10EA DUP4 PUSH2 0x4762 JUMP JUMPDEST SWAP6 SWAP5 POP POP POP POP POP JUMP JUMPDEST PUSH0 DUP1 PUSH2 0x2DC8 DUP4 PUSH2 0x1656 JUMP JUMPDEST SWAP1 POP DUP1 PUSH1 0x1 PUSH1 0x1 PUSH1 0xA0 SHL SUB AND DUP5 PUSH1 0x1 PUSH1 0x1 PUSH1 0xA0 SHL SUB AND EQ DUP1 PUSH2 0x2E0E JUMPI POP PUSH1 0x1 PUSH1 0x1 PUSH1 0xA0 SHL SUB DUP1 DUP3 AND PUSH0 SWAP1 DUP2 MSTORE PUSH1 0x5 PUSH1 0x20 SWAP1 DUP2 MSTORE PUSH1 0x40 DUP1 DUP4 KECCAK256 SWAP4 DUP9 AND DUP4 MSTORE SWAP3 SWAP1 MSTORE KECCAK256 SLOAD PUSH1 0xFF AND JUMPDEST DUP1 PUSH2 0x131F JUMPI POP DUP4 PUSH1 0x1 PUSH1 0x1 PUSH1 0xA0 SHL SUB AND PUSH2 0x2E27 DUP5 PUSH2 0x8E8 JUMP JUMPDEST PUSH1 0x1 PUSH1 0x1 PUSH1 0xA0 SHL SUB AND EQ SWAP5 SWAP4 POP POP POP POP JUMP JUMPDEST PUSH1 0x40 MLOAD PUSH4 0x7BD3CA35 PUSH1 0xE0 SHL DUP2 MSTORE PUSH1 0x1 PUSH1 0x1 PUSH1 0xA0 SHL SUB DUP4 DUP2 AND PUSH1 0x4 DUP4 ADD MSTORE PUSH1 0x1 PUSH1 0x1 PUSH1 0x80 SHL SUB DUP4 AND PUSH1 0x24 DUP4 ADD MSTORE DUP5 AND SWAP1 PUSH4 0x7BD3CA35 SWAP1 PUSH1 0x44 ADD PUSH0 PUSH1 0x40 MLOAD DUP1 DUP4 SUB DUP2 PUSH0 DUP8 DUP1 EXTCODESIZE ISZERO DUP1 ISZERO PUSH2 0x2E88 JUMPI PUSH0 DUP1 REVERT JUMPDEST POP GAS CALL ISZERO DUP1 ISZERO PUSH2 0x2E9A JUMPI RETURNDATASIZE PUSH0 DUP1 RETURNDATACOPY RETURNDATASIZE PUSH0 REVERT JUMPDEST POP POP POP POP POP POP POP JUMP JUMPDEST PUSH0 DUP2 DUP2 MSTORE PUSH1 0x8 PUSH1 0x20 MSTORE PUSH1 0x40 SWAP1 KECCAK256 DUP1 SLOAD PUSH1 0x1 ADD SWAP1 SSTORE PUSH2 0xA21 DUP4 DUP4 DUP4 PUSH2 0x477C JUMP JUMPDEST PUSH0 PUSH1 0xA PUSH0 DUP6 DUP2 MSTORE PUSH1 0x20 ADD SWAP1 DUP2 MSTORE PUSH1 0x20 ADD PUSH0 KECCAK256 PUSH1 0x40 MLOAD DUP1 PUSH1 0xA0 ADD PUSH1 0x40 MSTORE SWAP1 DUP2 PUSH0 DUP3 ADD SLOAD DUP2 MSTORE PUSH1 0x20 ADD PUSH1 0x1 DUP3 ADD SLOAD DUP2 MSTORE PUSH1 0x20 ADD PUSH1 0x2 DUP3 ADD SLOAD DUP2 MSTORE PUSH1 0x20 ADD PUSH1 0x3 DUP3 ADD SLOAD DUP2 MSTORE PUSH1 0x20 ADD PUSH1 0x4 DUP3 ADD SLOAD DUP2 MSTORE POP POP SWAP1 POP PUSH0 PUSH2 0x2F46 PUSH1 0x40 MLOAD DUP1 PUSH1 0x60 ADD PUSH1 0x40 MSTORE DUP1 DUP7 PUSH1 0x1 PUSH1 0x1 PUSH1 0xA0 SHL SUB AND DUP2 MSTORE PUSH1 0x20 ADD DUP5 PUSH0 ADD MLOAD DUP2 MSTORE PUSH1 0x20 ADD DUP5 PUSH1 0x20 ADD MLOAD DUP2 MSTORE POP PUSH2 0x34E7 JUMP JUMPDEST SWAP1 POP PUSH0 PUSH2 0x2F7C PUSH1 0x40 MLOAD DUP1 PUSH1 0x60 ADD PUSH1 0x40 MSTORE DUP1 DUP7 PUSH1 0x1 PUSH1 0x1 PUSH1 0xA0 SHL SUB AND DUP2 MSTORE PUSH1 0x20 ADD DUP6 PUSH0 ADD MLOAD DUP2 MSTORE PUSH1 0x20 ADD DUP6 PUSH1 0x20 ADD MLOAD DUP2 MSTORE POP PUSH2 0x34E7 JUMP JUMPDEST SWAP1 POP PUSH2 0x2FB1 PUSH32 0x0 DUP6 PUSH2 0x1254 DUP7 PUSH1 0x40 ADD MLOAD PUSH1 0x80 SHR SWAP1 JUMP JUMPDEST POP PUSH0 DUP2 DUP2 MSTORE PUSH1 0xB PUSH1 0x20 MSTORE PUSH1 0x40 DUP2 KECCAK256 SLOAD SWAP1 DUP2 SWAP1 SUB PUSH2 0x2FE2 JUMPI PUSH0 DUP4 DUP2 MSTORE PUSH1 0xB PUSH1 0x20 MSTORE PUSH1 0x40 DUP1 DUP3 KECCAK256 SLOAD DUP5 DUP4 MSTORE SWAP2 KECCAK256 SSTORE PUSH2 0x3030 JUMP JUMPDEST PUSH0 DUP8 DUP2 MSTORE PUSH1 0xA PUSH1 0x20 MSTORE PUSH1 0x40 DUP1 DUP3 KECCAK256 DUP4 DUP4 MSTORE SWAP2 KECCAK256 PUSH2 0x2FFE SWAP2 PUSH2 0x48DE JUMP JUMPDEST PUSH0 DUP8 DUP2 MSTORE PUSH1 0xA PUSH1 0x20 MSTORE PUSH1 0x40 DUP2 KECCAK256 DUP2 DUP2 SSTORE PUSH1 0x1 DUP2 ADD DUP3 SWAP1 SSTORE PUSH1 0x2 DUP2 ADD DUP3 SWAP1 SSTORE PUSH1 0x3 DUP2 ADD DUP3 SWAP1 SSTORE PUSH1 0x4 ADD SSTORE PUSH2 0x3030 DUP8 PUSH2 0x4930 JUMP JUMPDEST POP POP PUSH0 SWAP1 DUP2 MSTORE PUSH1 0xB PUSH1 0x20 MSTORE PUSH1 0x40 DUP2 KECCAK256 SSTORE POP POP POP POP JUMP JUMPDEST DUP2 TIMESTAMP GT ISZERO PUSH2 0x3096 JUMPI PUSH1 0x40 MLOAD PUSH3 0x461BCD PUSH1 0xE5 SHL DUP2 MSTORE PUSH1 0x20 PUSH1 0x4 DUP3 ADD MSTORE PUSH1 0x1E PUSH1 0x24 DUP3 ADD MSTORE PUSH32 0x4552433732315065726D69743A206578706972656420646561646C696E650000 PUSH1 0x44 DUP3 ADD MSTORE PUSH1 0x64 ADD PUSH2 0x980 JUMP JUMPDEST PUSH0 DUP4 DUP2 MSTORE PUSH1 0x8 PUSH1 0x20 SWAP1 DUP2 MSTORE PUSH1 0x40 DUP1 DUP4 KECCAK256 SLOAD DUP2 MLOAD PUSH32 0x0 DUP2 DUP6 ADD MSTORE PUSH1 0x1 PUSH1 0x1 PUSH1 0xA0 SHL SUB DUP10 AND DUP2 DUP5 ADD MSTORE PUSH1 0x60 DUP2 ADD DUP9 SWAP1 MSTORE PUSH1 0x80 DUP2 ADD SWAP2 SWAP1 SWAP2 MSTORE PUSH1 0xA0 DUP1 DUP3 ADD DUP8 SWAP1 MSTORE DUP3 MLOAD DUP1 DUP4 SUB SWAP1 SWAP2 ADD DUP2 MSTORE PUSH1 0xC0 SWAP1 SWAP2 ADD SWAP1 SWAP2 MSTORE DUP1 MLOAD SWAP2 ADD KECCAK256 SWAP1 PUSH2 0x3114 DUP3 PUSH2 0x49C2 JUMP JUMPDEST SWAP1 POP PUSH0 PUSH2 0x3121 DUP3 DUP6 PUSH2 0x49EE JUMP JUMPDEST POP SWAP1 POP PUSH0 PUSH1 0x1 PUSH1 0x1 PUSH1 0xA0 SHL SUB DUP3 AND ISZERO DUP1 ISZERO SWAP1 PUSH2 0x3142 JUMPI POP PUSH2 0x3142 DUP3 DUP9 PUSH2 0x2DBD JUMP JUMPDEST SWAP1 POP DUP1 DUP1 PUSH2 0x315E JUMPI POP PUSH2 0x315E PUSH2 0x3157 DUP9 PUSH2 0x1656 JUMP JUMPDEST DUP5 DUP8 PUSH2 0x4A30 JUMP JUMPDEST DUP1 PUSH2 0x3170 JUMPI POP PUSH2 0x3170 PUSH2 0x3157 DUP9 PUSH2 0x8E8 JUMP JUMPDEST PUSH2 0x31BC JUMPI PUSH1 0x40 MLOAD PUSH3 0x461BCD PUSH1 0xE5 SHL DUP2 MSTORE PUSH1 0x20 PUSH1 0x4 DUP3 ADD MSTORE PUSH1 0x1F PUSH1 0x24 DUP3 ADD MSTORE PUSH32 0x4552433732315065726D69743A20696E76616C6964207369676E617475726500 PUSH1 0x44 DUP3 ADD MSTORE PUSH1 0x64 ADD PUSH2 0x980 JUMP JUMPDEST PUSH2 0x31C6 DUP9 DUP9 PUSH2 0x2CAE JUMP JUMPDEST POP POP POP POP POP POP POP POP JUMP JUMPDEST PUSH0 ADDRESS PUSH1 0x1 PUSH1 0x1 PUSH1 0xA0 SHL SUB PUSH32 0x0 AND EQ DUP1 ISZERO PUSH2 0x3228 JUMPI POP PUSH32 0x0 CHAINID EQ JUMPDEST ISZERO PUSH2 0x3252 JUMPI POP PUSH32 0x0 SWAP1 JUMP JUMPDEST PUSH2 0xE58 PUSH1 0x40 DUP1 MLOAD PUSH32 0x8B73C3C69BB8FE3D512ECC4CF759CC79239F7B179B0FFACAA9A75D522B39400F PUSH1 0x20 DUP3 ADD MSTORE PUSH32 0x0 SWAP2 DUP2 ADD SWAP2 SWAP1 SWAP2 MSTORE PUSH32 0x0 PUSH1 0x60 DUP3 ADD MSTORE CHAINID PUSH1 0x80 DUP3 ADD MSTORE ADDRESS PUSH1 0xA0 DUP3 ADD MSTORE PUSH0 SWAP1 PUSH1 0xC0 ADD PUSH1 0x40 MLOAD PUSH1 0x20 DUP2 DUP4 SUB SUB DUP2 MSTORE SWAP1 PUSH1 0x40 MSTORE DUP1 MLOAD SWAP1 PUSH1 0x20 ADD KECCAK256 SWAP1 POP SWAP1 JUMP JUMPDEST PUSH0 DUP2 PUSH1 0x40 MLOAD PUSH1 0x20 ADD PUSH2 0x3329 SWAP2 SWAP1 DUP2 MLOAD PUSH1 0x1 PUSH1 0x1 PUSH1 0xA0 SHL SUB SWAP1 DUP2 AND DUP3 MSTORE PUSH1 0x20 SWAP3 DUP4 ADD MLOAD AND SWAP2 DUP2 ADD SWAP2 SWAP1 SWAP2 MSTORE PUSH1 0x40 ADD SWAP1 JUMP JUMPDEST PUSH1 0x40 DUP1 MLOAD PUSH1 0x1F NOT DUP2 DUP5 SUB ADD DUP2 MSTORE SWAP2 SWAP1 MSTORE DUP1 MLOAD PUSH1 0x20 SWAP1 SWAP2 ADD KECCAK256 SWAP3 SWAP2 POP POP JUMP JUMPDEST PUSH1 0x40 DUP1 MLOAD PUSH1 0x80 DUP2 ADD DUP3 MSTORE PUSH0 DUP1 DUP3 MSTORE PUSH1 0x20 DUP3 ADD DUP2 SWAP1 MSTORE SWAP2 DUP2 ADD DUP3 SWAP1 MSTORE PUSH1 0x60 DUP2 ADD SWAP2 SWAP1 SWAP2 MSTORE DUP3 SLOAD PUSH2 0x338B SWAP1 PUSH1 0x1 PUSH1 0x1 PUSH1 0x80 SHL SUB DUP5 AND PUSH2 0x2710 PUSH1 0xD9 SWAP3 SWAP1 SWAP3 SHR PUSH1 0x3F AND MUL DIV SWAP1 JUMP JUMPDEST PUSH1 0x1 PUSH1 0x1 PUSH1 0x80 SHL SUB AND DUP1 DUP3 MSTORE PUSH2 0x33A1 SWAP1 DUP4 PUSH2 0x5CF2 JUMP JUMPDEST PUSH1 0x1 PUSH1 0x1 PUSH1 0x80 SHL SUB AND PUSH1 0x60 DUP3 ADD DUP2 SWAP1 MSTORE PUSH1 0x3 DUP5 ADD SLOAD PUSH2 0x33BF SWAP2 PUSH2 0x4B21 JUMP JUMPDEST PUSH1 0x1 PUSH1 0x1 PUSH1 0x80 SHL SUB AND PUSH1 0x40 DUP3 ADD MSTORE PUSH1 0x60 DUP2 ADD MLOAD PUSH1 0x5 DUP5 ADD SLOAD PUSH2 0x33F3 SWAP2 SWAP1 PUSH2 0x33ED SWAP1 PUSH1 0x80 SHR PUSH1 0x4 DUP8 ADD SLOAD PUSH2 0x10EA JUMP JUMPDEST SWAP1 PUSH2 0x4B21 JUMP JUMPDEST PUSH1 0x1 PUSH1 0x1 PUSH1 0x80 SHL SUB AND PUSH1 0x20 DUP3 ADD DUP2 SWAP1 MSTORE PUSH1 0x5 DUP5 ADD SLOAD DUP3 MLOAD PUSH2 0x3434 SWAP3 PUSH2 0xC46 SWAP2 PUSH2 0x341C SWAP2 SWAP1 PUSH2 0x5C4A JUMP JUMPDEST PUSH1 0x20 DUP6 ADD MLOAD PUSH1 0x1 PUSH1 0x1 PUSH1 0x80 SHL SUB AND PUSH1 0x80 SWAP2 SWAP1 SWAP2 SHL OR SWAP1 JUMP JUMPDEST PUSH1 0x5 DUP5 ADD SSTORE PUSH1 0x3 DUP4 ADD SLOAD PUSH1 0x40 DUP3 ADD MLOAD PUSH1 0x60 DUP4 ADD MLOAD PUSH2 0x3461 SWAP3 SWAP2 PUSH1 0x80 SHL PUSH1 0x1 PUSH1 0x1 PUSH1 0x80 SHL SUB SWAP1 SWAP2 AND OR PUSH2 0x2D85 JUMP JUMPDEST PUSH1 0x3 DUP5 ADD SSTORE PUSH1 0x4 DUP4 ADD SLOAD PUSH1 0x40 DUP3 ADD MLOAD PUSH1 0x60 DUP4 ADD MLOAD PUSH2 0x348E SWAP3 SWAP2 PUSH1 0x80 SHL PUSH1 0x1 PUSH1 0x1 PUSH1 0x80 SHL SUB SWAP1 SWAP2 AND OR PUSH2 0x2D85 JUMP JUMPDEST PUSH1 0x4 SWAP1 SWAP4 ADD SWAP3 SWAP1 SWAP3 SSTORE POP SWAP1 JUMP JUMPDEST PUSH1 0x3 DUP5 ADD DUP4 SWAP1 SSTORE PUSH1 0x4 DUP5 ADD SWAP3 SWAP1 SWAP3 SSTORE PUSH1 0x1 PUSH1 0x1 PUSH1 0xDF SHL SUB SWAP1 SWAP2 AND DUP3 SSTORE PUSH1 0x2 DUP3 ADD DUP1 SLOAD PUSH1 0x1 PUSH1 0x1 PUSH1 0xA0 SHL SUB SWAP1 SWAP3 AND PUSH1 0x1 PUSH1 0x1 PUSH1 0xA0 SHL SUB NOT SWAP3 DUP4 AND OR SWAP1 SSTORE PUSH1 0x1 SWAP1 SWAP2 ADD DUP1 SLOAD SWAP1 SWAP2 AND CALLER OR SWAP1 SSTORE JUMP JUMPDEST PUSH1 0x40 DUP1 MLOAD DUP3 MLOAD PUSH1 0x1 PUSH1 0x1 PUSH1 0xA0 SHL SUB AND PUSH1 0x20 DUP1 DUP4 ADD SWAP2 SWAP1 SWAP2 MSTORE DUP4 ADD MLOAD DUP2 DUP4 ADD MSTORE SWAP1 DUP3 ADD MLOAD PUSH1 0x60 DUP3 ADD MSTORE PUSH0 SWAP1 PUSH1 0x80 ADD PUSH2 0x3329 JUMP JUMPDEST PUSH1 0x1 PUSH1 0x1 PUSH1 0xA0 SHL SUB DUP3 AND PUSH2 0x356F JUMPI PUSH1 0x40 MLOAD PUSH3 0x461BCD PUSH1 0xE5 SHL DUP2 MSTORE PUSH1 0x20 PUSH1 0x4 DUP3 ADD DUP2 SWAP1 MSTORE PUSH1 0x24 DUP3 ADD MSTORE PUSH32 0x4552433732313A206D696E7420746F20746865207A65726F2061646472657373 PUSH1 0x44 DUP3 ADD MSTORE PUSH1 0x64 ADD PUSH2 0x980 JUMP JUMPDEST PUSH0 DUP2 DUP2 MSTORE PUSH1 0x2 PUSH1 0x20 MSTORE PUSH1 0x40 SWAP1 KECCAK256 SLOAD PUSH1 0x1 PUSH1 0x1 PUSH1 0xA0 SHL SUB AND ISZERO PUSH2 0x35D3 JUMPI PUSH1 0x40 MLOAD PUSH3 0x461BCD PUSH1 0xE5 SHL DUP2 MSTORE PUSH1 0x20 PUSH1 0x4 DUP3 ADD MSTORE PUSH1 0x1C PUSH1 0x24 DUP3 ADD MSTORE PUSH32 0x4552433732313A20746F6B656E20616C7265616479206D696E74656400000000 PUSH1 0x44 DUP3 ADD MSTORE PUSH1 0x64 ADD PUSH2 0x980 JUMP JUMPDEST PUSH0 DUP2 DUP2 MSTORE PUSH1 0x2 PUSH1 0x20 MSTORE PUSH1 0x40 SWAP1 KECCAK256 SLOAD PUSH1 0x1 PUSH1 0x1 PUSH1 0xA0 SHL SUB AND ISZERO PUSH2 0x3637 JUMPI PUSH1 0x40 MLOAD PUSH3 0x461BCD PUSH1 0xE5 SHL DUP2 MSTORE PUSH1 0x20 PUSH1 0x4 DUP3 ADD MSTORE PUSH1 0x1C PUSH1 0x24 DUP3 ADD MSTORE PUSH32 0x4552433732313A20746F6B656E20616C7265616479206D696E74656400000000 PUSH1 0x44 DUP3 ADD MSTORE PUSH1 0x64 ADD PUSH2 0x980 JUMP JUMPDEST PUSH1 0x1 PUSH1 0x1 PUSH1 0xA0 SHL SUB DUP3 AND PUSH0 DUP2 DUP2 MSTORE PUSH1 0x3 PUSH1 0x20 SWAP1 DUP2 MSTORE PUSH1 0x40 DUP1 DUP4 KECCAK256 DUP1 SLOAD PUSH1 0x1 ADD SWAP1 SSTORE DUP5 DUP4 MSTORE PUSH1 0x2 SWAP1 SWAP2 MSTORE DUP1 DUP3 KECCAK256 DUP1 SLOAD PUSH1 0x1 PUSH1 0x1 PUSH1 0xA0 SHL SUB NOT AND DUP5 OR SWAP1 SSTORE MLOAD DUP4 SWAP3 SWAP2 SWAP1 PUSH32 0xDDF252AD1BE2C89B69C2B068FC378DAA952BA7F163C4A11628F55A4DF523B3EF SWAP1 DUP3 SWAP1 LOG4 POP POP JUMP JUMPDEST PUSH1 0x40 MLOAD PUSH4 0x67E356D PUSH1 0xE2 SHL DUP2 MSTORE PUSH1 0x1 PUSH1 0x1 PUSH1 0xA0 SHL SUB DUP4 DUP2 AND PUSH1 0x4 DUP4 ADD MSTORE PUSH1 0x1 PUSH1 0x1 PUSH1 0x80 SHL SUB DUP4 AND PUSH1 0x24 DUP4 ADD MSTORE PUSH0 SWAP2 SWAP1 DUP6 AND SWAP1 PUSH4 0x19F8D5B4 SWAP1 PUSH1 0x44 ADD PUSH1 0x20 PUSH1 0x40 MLOAD DUP1 DUP4 SUB DUP2 PUSH0 DUP8 GAS CALL ISZERO DUP1 ISZERO PUSH2 0x36F8 JUMPI RETURNDATASIZE PUSH0 DUP1 RETURNDATACOPY RETURNDATASIZE PUSH0 REVERT JUMPDEST POP POP POP POP PUSH1 0x40 MLOAD RETURNDATASIZE PUSH1 0x1F NOT PUSH1 0x1F DUP3 ADD AND DUP3 ADD DUP1 PUSH1 0x40 MSTORE POP DUP2 ADD SWAP1 PUSH2 0x131F SWAP2 SWAP1 PUSH2 0x5DDB JUMP JUMPDEST PUSH2 0x3724 PUSH2 0x53F5 JUMP JUMPDEST PUSH2 0x3737 DUP4 PUSH1 0x80 ADD MLOAD DUP5 PUSH1 0xC0 ADD MLOAD DUP5 PUSH2 0x40C0 JUMP JUMPDEST PUSH2 0x3742 JUMPI POP DUP2 PUSH2 0x853 JUMP JUMPDEST DUP3 MLOAD PUSH1 0xA0 DUP5 ADD MLOAD PUSH0 SWAP2 DUP3 SWAP2 PUSH2 0x376B SWAP2 PUSH1 0x1 PUSH1 0x1 PUSH1 0x80 SHL SUB AND PUSH2 0x2710 PUSH1 0xC5 SWAP3 SWAP1 SWAP3 SHR PUSH1 0x7F AND MUL DIV SWAP1 JUMP JUMPDEST PUSH1 0x1 PUSH1 0x1 PUSH1 0x80 SHL SUB AND PUSH1 0x40 DUP7 ADD DUP2 SWAP1 MSTORE DUP6 MLOAD DUP7 SWAP1 PUSH2 0x378A SWAP1 DUP4 SWAP1 PUSH2 0x5CF2 JUMP JUMPDEST PUSH1 0x1 PUSH1 0x1 PUSH1 0x80 SHL SUB AND SWAP1 MSTORE POP JUMPDEST DUP5 MLOAD PUSH1 0x1 PUSH1 0x1 PUSH1 0x80 SHL SUB AND ISZERO DUP1 ISZERO SWAP1 PUSH2 0x37BE JUMPI POP PUSH2 0x37BE DUP6 PUSH1 0x80 ADD MLOAD DUP7 PUSH1 0xC0 ADD MLOAD DUP7 PUSH2 0x40C0 JUMP JUMPDEST ISZERO PUSH2 0x39AC JUMPI PUSH2 0x37DF PUSH2 0x37D4 DUP7 PUSH1 0xC0 ADD MLOAD PUSH1 0x80 SHR SWAP1 JUMP JUMPDEST PUSH1 0xE0 DUP8 ADD MLOAD SWAP1 PUSH2 0x4B49 JUMP JUMPDEST PUSH1 0x1 PUSH1 0x1 PUSH1 0x80 SHL SUB AND PUSH2 0x3804 PUSH2 0x37F9 DUP8 PUSH1 0x80 ADD MLOAD PUSH1 0x80 SHR SWAP1 JUMP JUMPDEST PUSH1 0xA0 DUP9 ADD MLOAD SWAP1 PUSH2 0x4B49 JUMP JUMPDEST PUSH1 0x1 PUSH1 0x1 PUSH1 0x80 SHL SUB AND LT ISZERO PUSH2 0x3834 JUMPI PUSH2 0x382F PUSH2 0x3824 DUP7 PUSH1 0x80 ADD MLOAD PUSH1 0x80 SHR SWAP1 JUMP JUMPDEST PUSH1 0xA0 DUP8 ADD MLOAD SWAP1 PUSH2 0x4B49 JUMP JUMPDEST PUSH2 0x3845 JUMP JUMPDEST PUSH2 0x3845 PUSH2 0x37D4 DUP7 PUSH1 0xC0 ADD MLOAD PUSH1 0x80 SHR SWAP1 JUMP JUMPDEST PUSH1 0x80 DUP7 ADD MLOAD SWAP1 SWAP3 POP PUSH2 0x3857 SWAP1 DUP4 PUSH2 0x422E JUMP JUMPDEST SWAP1 POP DUP1 PUSH1 0x1 PUSH1 0x1 PUSH1 0x80 SHL SUB AND DUP6 PUSH0 ADD MLOAD PUSH1 0x1 PUSH1 0x1 PUSH1 0x80 SHL SUB AND GT ISZERO PUSH2 0x3909 JUMPI DUP1 DUP6 PUSH0 ADD DUP2 DUP2 MLOAD PUSH2 0x3887 SWAP2 SWAP1 PUSH2 0x5CF2 JUMP JUMPDEST PUSH1 0x1 PUSH1 0x1 PUSH1 0x80 SHL SUB AND SWAP1 MSTORE POP PUSH1 0xC0 DUP6 ADD MLOAD PUSH2 0x38A2 SWAP1 DUP4 PUSH2 0x422E JUMP JUMPDEST DUP6 PUSH1 0x20 ADD DUP2 DUP2 MLOAD PUSH2 0x38B3 SWAP2 SWAP1 PUSH2 0x5C4A JUMP JUMPDEST PUSH1 0x1 PUSH1 0x1 PUSH1 0x80 SHL SUB SWAP1 DUP2 AND SWAP1 SWAP2 MSTORE PUSH1 0x80 DUP8 DUP2 ADD MLOAD PUSH2 0x38DE SWAP4 POP SWAP2 DUP5 AND SWAP1 DUP6 SWAP1 SHL OR PUSH2 0x4B78 JUMP JUMPDEST PUSH2 0x4B78 JUMP JUMPDEST PUSH1 0x80 DUP7 ADD MSTORE PUSH1 0xC0 DUP6 ADD MLOAD PUSH2 0x38FF SWAP1 PUSH2 0x38FA DUP5 PUSH2 0x10EA DUP4 DUP3 PUSH2 0x422E JUMP JUMPDEST PUSH2 0x4B9E JUMP JUMPDEST PUSH1 0xC0 DUP7 ADD MSTORE PUSH2 0x3989 JUMP JUMPDEST DUP5 MLOAD PUSH1 0x80 DUP7 ADD MLOAD PUSH2 0x3919 SWAP2 PUSH2 0x4B21 JUMP JUMPDEST PUSH1 0xC0 DUP7 ADD MLOAD SWAP1 SWAP3 POP PUSH2 0x392B SWAP1 DUP4 PUSH2 0x422E JUMP JUMPDEST DUP6 PUSH1 0x20 ADD DUP2 DUP2 MLOAD PUSH2 0x393C SWAP2 SWAP1 PUSH2 0x5C4A JUMP JUMPDEST PUSH1 0x1 PUSH1 0x1 PUSH1 0x80 SHL SUB SWAP1 DUP2 AND SWAP1 SWAP2 MSTORE PUSH1 0x80 DUP8 DUP2 ADD MLOAD DUP9 MLOAD PUSH2 0x3964 SWAP5 POP SWAP1 SWAP3 AND SWAP1 DUP6 SWAP1 SHL OR PUSH2 0x4B78 JUMP JUMPDEST PUSH1 0x80 DUP7 ADD MSTORE PUSH1 0xC0 DUP6 ADD MLOAD PUSH2 0x3980 SWAP1 PUSH2 0x38FA DUP5 PUSH2 0x10EA DUP4 DUP3 PUSH2 0x422E JUMP JUMPDEST PUSH1 0xC0 DUP7 ADD MSTORE PUSH0 DUP6 MSTORE JUMPDEST DUP2 DUP6 PUSH1 0x60 ADD DUP2 DUP2 MLOAD PUSH2 0x399B SWAP2 SWAP1 PUSH2 0x5C4A JUMP JUMPDEST PUSH1 0x1 PUSH1 0x1 PUSH1 0x80 SHL SUB AND SWAP1 MSTORE POP PUSH2 0x3797 JUMP JUMPDEST DUP5 MLOAD PUSH1 0x1 PUSH1 0x1 PUSH1 0x80 SHL SUB AND ISZERO PUSH2 0x3A3B JUMPI DUP5 MLOAD PUSH1 0xA0 DUP7 ADD MLOAD PUSH2 0x39E1 SWAP2 PUSH1 0x1 PUSH1 0x1 PUSH1 0x80 SHL SUB AND PUSH2 0x2710 PUSH1 0xC5 SWAP3 SWAP1 SWAP3 SHR PUSH1 0x7F AND MUL DIV SWAP1 JUMP JUMPDEST DUP6 PUSH1 0x40 ADD DUP2 DUP2 MLOAD PUSH2 0x39F2 SWAP2 SWAP1 PUSH2 0x5CF2 JUMP JUMPDEST PUSH1 0x1 PUSH1 0x1 PUSH1 0x80 SHL SUB SWAP1 DUP2 AND SWAP1 SWAP2 MSTORE DUP7 MLOAD PUSH1 0xA0 DUP9 ADD MLOAD PUSH2 0x3A1F SWAP4 POP SWAP2 AND PUSH2 0x2710 PUSH1 0xC5 SWAP3 SWAP1 SWAP3 SHR PUSH1 0x7F AND MUL DIV SWAP1 JUMP JUMPDEST DUP6 MLOAD DUP7 SWAP1 PUSH2 0x3A2E SWAP1 DUP4 SWAP1 PUSH2 0x5C4A JUMP JUMPDEST PUSH1 0x1 PUSH1 0x1 PUSH1 0x80 SHL SUB AND SWAP1 MSTORE POP JUMPDEST POP SWAP3 SWAP4 SWAP3 POP POP POP JUMP JUMPDEST PUSH1 0x3 DUP4 ADD DUP3 SWAP1 SSTORE PUSH1 0x5 DUP4 ADD SLOAD PUSH2 0x3A5E SWAP1 PUSH1 0x80 DUP4 SWAP1 SHL PUSH2 0x2D85 JUMP JUMPDEST DUP4 PUSH1 0x5 ADD DUP2 SWAP1 SSTORE POP POP POP POP JUMP JUMPDEST PUSH0 PUSH1 0x1 PUSH1 0x1 PUSH1 0xA0 SHL SUB DUP5 AND PUSH2 0x3AA7 JUMPI PUSH0 DUP1 PUSH0 DUP1 DUP6 DUP8 GAS CALL SWAP1 POP DUP1 PUSH2 0x3AA2 JUMPI PUSH1 0x40 MLOAD PUSH4 0x3D2CEC6F PUSH1 0xE2 SHL DUP2 MSTORE PUSH1 0x4 ADD PUSH1 0x40 MLOAD DUP1 SWAP2 SUB SWAP1 REVERT JUMPDEST PUSH2 0x183D JUMP JUMPDEST PUSH1 0x40 MLOAD PUSH4 0xA9059CBB PUSH1 0xE0 SHL PUSH0 MSTORE DUP4 PUSH1 0x4 MSTORE DUP3 PUSH1 0x24 MSTORE PUSH1 0x20 PUSH0 PUSH1 0x44 PUSH0 DUP1 DUP10 GAS CALL RETURNDATASIZE ISZERO PUSH1 0x1F RETURNDATASIZE GT PUSH1 0x1 PUSH0 MLOAD EQ AND OR AND SWAP2 POP PUSH0 PUSH1 0x60 MSTORE DUP1 PUSH1 0x40 MSTORE POP DUP1 PUSH2 0x183D JUMPI PUSH1 0x40 MLOAD PUSH4 0x3C9FD939 PUSH1 0xE2 SHL DUP2 MSTORE PUSH1 0x4 ADD PUSH1 0x40 MLOAD DUP1 SWAP2 SUB SWAP1 REVERT JUMPDEST PUSH1 0x60 PUSH1 0xFF DUP4 EQ PUSH2 0x3B17 JUMPI PUSH2 0x3B10 DUP4 PUSH2 0x4BC4 JUMP JUMPDEST SWAP1 POP PUSH2 0x853 JUMP JUMPDEST DUP2 DUP1 SLOAD PUSH2 0x3B23 SWAP1 PUSH2 0x5BE7 JUMP JUMPDEST DUP1 PUSH1 0x1F ADD PUSH1 0x20 DUP1 SWAP2 DIV MUL PUSH1 0x20 ADD PUSH1 0x40 MLOAD SWAP1 DUP2 ADD PUSH1 0x40 MSTORE DUP1 SWAP3 SWAP2 SWAP1 DUP2 DUP2 MSTORE PUSH1 0x20 ADD DUP3 DUP1 SLOAD PUSH2 0x3B4F SWAP1 PUSH2 0x5BE7 JUMP JUMPDEST DUP1 ISZERO PUSH2 0x3B9A JUMPI DUP1 PUSH1 0x1F LT PUSH2 0x3B71 JUMPI PUSH2 0x100 DUP1 DUP4 SLOAD DIV MUL DUP4 MSTORE SWAP2 PUSH1 0x20 ADD SWAP2 PUSH2 0x3B9A JUMP JUMPDEST DUP3 ADD SWAP2 SWAP1 PUSH0 MSTORE PUSH1 0x20 PUSH0 KECCAK256 SWAP1 JUMPDEST DUP2 SLOAD DUP2 MSTORE SWAP1 PUSH1 0x1 ADD SWAP1 PUSH1 0x20 ADD DUP1 DUP4 GT PUSH2 0x3B7D JUMPI DUP3 SWAP1 SUB PUSH1 0x1F AND DUP3 ADD SWAP2 JUMPDEST POP POP POP POP POP SWAP1 POP PUSH2 0x853 JUMP JUMPDEST PUSH0 PUSH1 0x1 PUSH1 0x1 PUSH1 0xA0 SHL SUB DUP6 AND PUSH2 0x3BDA JUMPI DUP2 CALLVALUE EQ PUSH2 0x3BD5 JUMPI PUSH1 0x40 MLOAD PUSH4 0x3D2CEC6F PUSH1 0xE2 SHL DUP2 MSTORE PUSH1 0x4 ADD PUSH1 0x40 MLOAD DUP1 SWAP2 SUB SWAP1 REVERT JUMPDEST PUSH2 0x3C44 JUMP JUMPDEST PUSH1 0x40 MLOAD PUSH4 0x23B872DD PUSH1 0xE0 SHL DUP2 MSTORE PUSH1 0x1 PUSH1 0x1 PUSH1 0xA0 SHL SUB DUP6 AND PUSH1 0x4 DUP3 ADD MSTORE PUSH1 0x1 PUSH1 0x1 PUSH1 0xA0 SHL SUB DUP5 AND PUSH1 0x24 DUP3 ADD MSTORE DUP3 PUSH1 0x44 DUP3 ADD MSTORE PUSH1 0x20 PUSH0 PUSH1 0x64 DUP4 PUSH0 DUP11 GAS CALL RETURNDATASIZE ISZERO PUSH1 0x1F RETURNDATASIZE GT PUSH1 0x1 PUSH0 MLOAD EQ AND OR AND SWAP2 POP POP DUP1 PUSH2 0x3C44 JUMPI PUSH1 0x40 MLOAD PUSH4 0x3C9FD939 PUSH1 0xE2 SHL DUP2 MSTORE PUSH1 0x4 ADD PUSH1 0x40 MLOAD DUP1 SWAP2 SUB SWAP1 REVERT JUMPDEST POP POP POP POP POP JUMP JUMPDEST PUSH1 0x3 DUP7 ADD SLOAD PUSH1 0x1 PUSH1 0x1 PUSH1 0x80 SHL SUB AND PUSH0 SUB PUSH2 0x3C63 JUMPI DUP5 DUP7 SSTORE JUMPDEST DUP4 ISZERO PUSH2 0x3C71 JUMPI PUSH1 0x1 DUP7 ADD DUP5 SWAP1 SSTORE JUMPDEST PUSH2 0x3C7F DUP7 PUSH1 0x2 ADD SLOAD DUP5 PUSH2 0x2D85 JUMP JUMPDEST PUSH1 0x2 DUP8 ADD SSTORE PUSH1 0x3 DUP7 ADD SLOAD PUSH2 0x3C93 SWAP1 DUP4 PUSH2 0x2D85 JUMP JUMPDEST PUSH1 0x3 DUP8 ADD SSTORE DUP4 ISZERO PUSH2 0xD4D JUMPI PUSH2 0x3CAC DUP7 PUSH1 0x4 ADD SLOAD DUP3 PUSH2 0x2D85 JUMP JUMPDEST PUSH1 0x4 DUP8 ADD SSTORE POP POP POP POP POP POP JUMP JUMPDEST DUP2 PUSH1 0x1 PUSH1 0x1 PUSH1 0xA0 SHL SUB AND DUP4 PUSH1 0x1 PUSH1 0x1 PUSH1 0xA0 SHL SUB AND SUB PUSH2 0x3D1A JUMPI PUSH1 0x40 MLOAD PUSH3 0x461BCD PUSH1 0xE5 SHL DUP2 MSTORE PUSH1 0x20 PUSH1 0x4 DUP3 ADD MSTORE PUSH1 0x19 PUSH1 0x24 DUP3 ADD MSTORE PUSH32 0x4552433732313A20617070726F766520746F2063616C6C657200000000000000 PUSH1 0x44 DUP3 ADD MSTORE PUSH1 0x64 ADD PUSH2 0x980 JUMP JUMPDEST PUSH1 0x1 PUSH1 0x1 PUSH1 0xA0 SHL SUB DUP4 DUP2 AND PUSH0 DUP2 DUP2 MSTORE PUSH1 0x5 PUSH1 0x20 SWAP1 DUP2 MSTORE PUSH1 0x40 DUP1 DUP4 KECCAK256 SWAP5 DUP8 AND DUP1 DUP5 MSTORE SWAP5 DUP3 MSTORE SWAP2 DUP3 SWAP1 KECCAK256 DUP1 SLOAD PUSH1 0xFF NOT AND DUP7 ISZERO ISZERO SWAP1 DUP2 OR SWAP1 SWAP2 SSTORE SWAP2 MLOAD SWAP2 DUP3 MSTORE PUSH32 0x17307EAB39AB6107E8899845AD3D59BD9653F200F220920489CA2B5937696C31 SWAP2 ADD PUSH1 0x40 MLOAD DUP1 SWAP2 SUB SWAP1 LOG3 POP POP POP JUMP JUMPDEST PUSH0 DUP1 PUSH2 0x3D96 DUP8 PUSH1 0x3 ADD SLOAD PUSH1 0x80 SHR SWAP1 JUMP JUMPDEST PUSH2 0x3DBF PUSH2 0x3DA4 DUP10 PUSH1 0x3 ADD SLOAD SWAP1 JUMP JUMPDEST PUSH2 0x33ED PUSH2 0x3DB5 DUP14 PUSH1 0x5 ADD SLOAD PUSH1 0x80 SHR SWAP1 JUMP JUMPDEST PUSH1 0x4 DUP15 ADD SLOAD PUSH2 0x10EA JUMP JUMPDEST PUSH2 0x3DC9 SWAP2 SWAP1 PUSH2 0x5CF2 JUMP JUMPDEST PUSH1 0x5 DUP11 ADD SLOAD SWAP1 SWAP2 POP PUSH2 0x3DE4 SWAP1 PUSH1 0x1 PUSH1 0x1 PUSH1 0x80 SHL SUB DUP4 AND PUSH2 0x2D85 JUMP JUMPDEST PUSH1 0x5 DUP11 ADD SSTORE PUSH2 0x3DF8 DUP10 DUP3 DUP7 DUP10 DUP10 DUP9 PUSH0 PUSH2 0x4C01 JUMP JUMPDEST PUSH0 PUSH2 0x3E07 DUP9 PUSH1 0x4 ADD SLOAD PUSH1 0x80 SHR SWAP1 JUMP JUMPDEST PUSH2 0x3E15 PUSH2 0x3DA4 DUP11 PUSH1 0x4 ADD SLOAD SWAP1 JUMP JUMPDEST PUSH2 0x3E1F SWAP2 SWAP1 PUSH2 0x5CF2 JUMP JUMPDEST PUSH1 0x5 DUP11 ADD SLOAD SWAP1 SWAP2 POP PUSH2 0x3E3A SWAP1 PUSH1 0x1 PUSH1 0x1 PUSH1 0x80 SHL SUB DUP4 AND PUSH2 0x2D85 JUMP JUMPDEST PUSH1 0x5 DUP11 ADD SSTORE PUSH2 0x3E4E DUP10 DUP3 DUP8 DUP11 DUP11 DUP10 PUSH0 PUSH2 0x4C01 JUMP JUMPDEST PUSH1 0x1 PUSH1 0x1 PUSH1 0x80 SHL SUB DUP2 AND PUSH1 0x80 DUP4 SWAP1 SHL OR SWAP3 POP PUSH2 0x3E6A DUP9 DUP5 PUSH2 0x4FAF JUMP JUMPDEST POP POP SWAP8 SWAP7 POP POP POP POP POP POP POP JUMP JUMPDEST PUSH2 0x3E7F PUSH2 0x53F5 JUMP JUMPDEST PUSH2 0x3E92 DUP4 PUSH1 0x80 ADD MLOAD DUP5 PUSH1 0xC0 ADD MLOAD DUP5 PUSH2 0x40C0 JUMP JUMPDEST ISZERO PUSH2 0x3E9E JUMPI POP DUP2 PUSH2 0x853 JUMP JUMPDEST DUP3 MLOAD PUSH1 0xE0 DUP5 ADD MLOAD PUSH0 SWAP2 DUP3 SWAP2 PUSH2 0x3EC7 SWAP2 PUSH1 0x1 PUSH1 0x1 PUSH1 0x80 SHL SUB AND PUSH2 0x2710 PUSH1 0xCC SWAP3 SWAP1 SWAP3 SHR PUSH1 0x7F AND MUL DIV SWAP1 JUMP JUMPDEST PUSH1 0x1 PUSH1 0x1 PUSH1 0x80 SHL SUB AND PUSH1 0x40 DUP7 ADD MSTORE JUMPDEST DUP5 MLOAD PUSH1 0x1 PUSH1 0x1 PUSH1 0x80 SHL SUB AND ISZERO DUP1 ISZERO SWAP1 PUSH2 0x3EFD JUMPI POP PUSH2 0x3EFD DUP6 PUSH1 0x80 ADD MLOAD DUP7 PUSH1 0xC0 ADD MLOAD DUP7 PUSH2 0x40C0 JUMP JUMPDEST ISZERO PUSH2 0x3A3B JUMPI PUSH2 0x3F13 PUSH2 0x37D4 DUP7 PUSH1 0xC0 ADD MLOAD PUSH1 0x80 SHR SWAP1 JUMP JUMPDEST PUSH1 0x1 PUSH1 0x1 PUSH1 0x80 SHL SUB AND PUSH2 0x3F2D PUSH2 0x37F9 DUP8 PUSH1 0x80 ADD MLOAD PUSH1 0x80 SHR SWAP1 JUMP JUMPDEST PUSH1 0x1 PUSH1 0x1 PUSH1 0x80 SHL SUB AND LT ISZERO PUSH2 0x3F52 JUMPI PUSH2 0x3F4D PUSH2 0x3824 DUP7 PUSH1 0x80 ADD MLOAD PUSH1 0x80 SHR SWAP1 JUMP JUMPDEST PUSH2 0x3F63 JUMP JUMPDEST PUSH2 0x3F63 PUSH2 0x37D4 DUP7 PUSH1 0xC0 ADD MLOAD PUSH1 0x80 SHR SWAP1 JUMP JUMPDEST PUSH1 0xC0 DUP7 ADD MLOAD SWAP1 SWAP3 POP PUSH2 0x3F75 SWAP1 DUP4 PUSH2 0x422E JUMP JUMPDEST SWAP1 POP DUP1 PUSH1 0x1 PUSH1 0x1 PUSH1 0x80 SHL SUB AND DUP6 PUSH0 ADD MLOAD PUSH1 0x1 PUSH1 0x1 PUSH1 0x80 SHL SUB AND GT ISZERO PUSH2 0x401D JUMPI DUP1 DUP6 PUSH0 ADD DUP2 DUP2 MLOAD PUSH2 0x3FA5 SWAP2 SWAP1 PUSH2 0x5CF2 JUMP JUMPDEST PUSH1 0x1 PUSH1 0x1 PUSH1 0x80 SHL SUB AND SWAP1 MSTORE POP PUSH1 0x80 DUP6 ADD MLOAD PUSH2 0x3FC0 SWAP1 DUP4 PUSH2 0x422E JUMP JUMPDEST DUP6 PUSH1 0x20 ADD DUP2 DUP2 MLOAD PUSH2 0x3FD1 SWAP2 SWAP1 PUSH2 0x5C4A JUMP JUMPDEST PUSH1 0x1 PUSH1 0x1 PUSH1 0x80 SHL SUB SWAP1 DUP2 AND SWAP1 SWAP2 MSTORE PUSH1 0xC0 DUP8 ADD MLOAD PUSH2 0x3FF7 SWAP3 POP SWAP1 DUP4 AND PUSH1 0x80 DUP6 SWAP1 SHL OR PUSH2 0x4B9E JUMP JUMPDEST PUSH1 0xC0 DUP7 ADD MSTORE PUSH1 0x80 DUP6 ADD MLOAD PUSH2 0x4013 SWAP1 PUSH2 0x38D9 DUP5 PUSH2 0x10EA DUP4 DUP3 PUSH2 0x422E JUMP JUMPDEST PUSH1 0x80 DUP7 ADD MSTORE PUSH2 0x409D JUMP JUMPDEST DUP5 MLOAD PUSH1 0xC0 DUP7 ADD MLOAD PUSH2 0x402D SWAP2 PUSH2 0x4B21 JUMP JUMPDEST PUSH1 0x80 DUP7 ADD MLOAD SWAP1 SWAP3 POP PUSH2 0x403F SWAP1 DUP4 PUSH2 0x422E JUMP JUMPDEST DUP6 PUSH1 0x20 ADD DUP2 DUP2 MLOAD PUSH2 0x4050 SWAP2 SWAP1 PUSH2 0x5C4A JUMP JUMPDEST PUSH1 0x1 PUSH1 0x1 PUSH1 0x80 SHL SUB SWAP1 DUP2 AND SWAP1 SWAP2 MSTORE PUSH1 0xC0 DUP8 ADD MLOAD DUP8 MLOAD PUSH2 0x4078 SWAP4 POP SWAP1 SWAP2 AND PUSH1 0x80 DUP6 SWAP1 SHL OR PUSH2 0x4B9E JUMP JUMPDEST PUSH1 0xC0 DUP7 ADD MSTORE PUSH1 0x80 DUP6 ADD MLOAD PUSH2 0x4094 SWAP1 PUSH2 0x38D9 DUP5 PUSH2 0x10EA DUP4 DUP3 PUSH2 0x422E JUMP JUMPDEST PUSH1 0x80 DUP7 ADD MSTORE PUSH0 DUP6 MSTORE JUMPDEST DUP2 DUP6 PUSH1 0x60 ADD DUP2 DUP2 MLOAD PUSH2 0x40AF SWAP2 SWAP1 PUSH2 0x5C4A JUMP JUMPDEST PUSH1 0x1 PUSH1 0x1 PUSH1 0x80 SHL SUB AND SWAP1 MSTORE POP PUSH2 0x3ED6 JUMP JUMPDEST PUSH0 PUSH2 0x40CB DUP3 PUSH1 0x80 SHR SWAP1 JUMP JUMPDEST PUSH1 0x1 PUSH1 0x1 PUSH1 0x80 SHL SUB AND PUSH2 0x40DE DUP5 PUSH1 0x80 SHR SWAP1 JUMP JUMPDEST PUSH1 0x1 PUSH1 0x1 PUSH1 0x80 SHL SUB AND DUP6 PUSH1 0x1 PUSH1 0x1 PUSH1 0x80 SHL SUB AND PUSH2 0x40FB SWAP2 SWAP1 PUSH2 0x5DF6 JUMP JUMPDEST PUSH2 0x4105 SWAP2 SWAP1 PUSH2 0x5DF6 JUMP JUMPDEST DUP3 PUSH1 0x1 PUSH1 0x1 PUSH1 0x80 SHL SUB AND DUP5 PUSH1 0x1 PUSH1 0x1 PUSH1 0x80 SHL SUB AND PUSH2 0x4123 DUP8 PUSH1 0x80 SHR SWAP1 JUMP JUMPDEST PUSH1 0x1 PUSH1 0x1 PUSH1 0x80 SHL SUB AND PUSH2 0x4136 SWAP2 SWAP1 PUSH2 0x5DF6 JUMP JUMPDEST PUSH2 0x4140 SWAP2 SWAP1 PUSH2 0x5DF6 JUMP JUMPDEST GT PUSH2 0x1938 JUMPI PUSH0 PUSH2 0x131F JUMP JUMPDEST PUSH2 0x4156 DUP5 DUP5 DUP5 PUSH2 0x2EA3 JUMP JUMPDEST PUSH2 0x4162 DUP5 DUP5 DUP5 DUP5 PUSH2 0x4FE5 JUMP JUMPDEST PUSH2 0x183D JUMPI PUSH1 0x40 MLOAD PUSH3 0x461BCD PUSH1 0xE5 SHL DUP2 MSTORE PUSH1 0x4 ADD PUSH2 0x980 SWAP1 PUSH2 0x5E0D JUMP JUMPDEST PUSH1 0x60 PUSH1 0x40 MLOAD DUP1 PUSH1 0x60 ADD PUSH1 0x40 MSTORE DUP1 PUSH1 0x21 DUP2 MSTORE PUSH1 0x20 ADD PUSH2 0x5F62 PUSH1 0x21 SWAP2 CODECOPY SWAP1 POP SWAP1 JUMP JUMPDEST PUSH1 0x60 PUSH0 PUSH2 0x41AA DUP4 PUSH2 0x50DF JUMP JUMPDEST PUSH1 0x1 ADD SWAP1 POP PUSH0 DUP2 PUSH8 0xFFFFFFFFFFFFFFFF DUP2 GT ISZERO PUSH2 0x41C9 JUMPI PUSH2 0x41C9 PUSH2 0x55BB JUMP JUMPDEST PUSH1 0x40 MLOAD SWAP1 DUP1 DUP3 MSTORE DUP1 PUSH1 0x1F ADD PUSH1 0x1F NOT AND PUSH1 0x20 ADD DUP3 ADD PUSH1 0x40 MSTORE DUP1 ISZERO PUSH2 0x41F3 JUMPI PUSH1 0x20 DUP3 ADD DUP2 DUP1 CALLDATASIZE DUP4 CALLDATACOPY ADD SWAP1 POP JUMPDEST POP SWAP1 POP DUP2 DUP2 ADD PUSH1 0x20 ADD JUMPDEST PUSH0 NOT ADD PUSH16 0x181899199A1A9B1B9C1CB0B131B232B3 PUSH1 0x81 SHL PUSH1 0xA DUP7 MOD BYTE DUP2 MSTORE8 PUSH1 0xA DUP6 DIV SWAP5 POP DUP5 PUSH2 0x41FD JUMPI POP SWAP4 SWAP3 POP POP POP JUMP JUMPDEST PUSH0 PUSH2 0x193C DUP4 PUSH1 0x1 PUSH1 0x1 PUSH1 0x80 SHL SUB AND DUP4 PUSH1 0x1 PUSH1 0x1 PUSH1 0x80 SHL SUB AND PUSH2 0x4250 DUP7 PUSH1 0x80 SHR SWAP1 JUMP JUMPDEST PUSH1 0x1 PUSH1 0x1 PUSH1 0x80 SHL SUB AND PUSH2 0x51B6 JUMP JUMPDEST PUSH1 0x40 DUP1 MLOAD PUSH1 0x60 DUP2 ADD DUP3 MSTORE PUSH0 DUP1 DUP3 MSTORE PUSH1 0x20 DUP3 ADD DUP2 SWAP1 MSTORE SWAP2 DUP2 ADD SWAP2 SWAP1 SWAP2 MSTORE PUSH1 0x40 DUP1 MLOAD PUSH1 0x60 DUP2 ADD DUP3 MSTORE PUSH0 DUP1 DUP3 MSTORE PUSH1 0x20 DUP3 ADD DUP2 SWAP1 MSTORE SWAP2 DUP2 ADD SWAP2 SWAP1 SWAP2 MSTORE PUSH0 PUSH2 0x42B9 DUP5 PUSH0 ADD MLOAD PUSH2 0x33ED PUSH2 0x42AF DUP9 PUSH1 0x2 ADD SLOAD PUSH1 0x80 SHR SWAP1 JUMP JUMPDEST PUSH1 0x3 DUP10 ADD SLOAD PUSH2 0x10EA JUMP JUMPDEST SWAP1 POP PUSH1 0x40 MLOAD DUP1 PUSH1 0x60 ADD PUSH1 0x40 MSTORE DUP1 PUSH2 0x42E8 DUP7 PUSH0 ADD MLOAD PUSH2 0x33ED PUSH2 0x42DE DUP13 PUSH1 0x5 ADD SLOAD PUSH1 0x80 SHR SWAP1 JUMP JUMPDEST PUSH1 0x4 DUP14 ADD SLOAD PUSH2 0x10EA JUMP JUMPDEST PUSH1 0x1 PUSH1 0x1 PUSH1 0x80 SHL SUB AND DUP2 MSTORE PUSH1 0x20 ADD PUSH2 0x4318 DUP7 PUSH0 ADD MLOAD PUSH2 0x33ED PUSH2 0x430E DUP11 PUSH1 0x3 ADD SLOAD PUSH1 0x80 SHR SWAP1 JUMP JUMPDEST PUSH1 0x3 DUP12 ADD SLOAD PUSH2 0x10EA JUMP JUMPDEST PUSH1 0x1 PUSH1 0x1 PUSH1 0x80 SHL SUB SWAP1 DUP2 AND DUP3 MSTORE DUP7 MLOAD AND PUSH1 0x20 SWAP1 SWAP2 ADD MSTORE DUP8 SLOAD SWAP1 SWAP4 POP PUSH1 0x1 PUSH1 0xFF SHL AND ISZERO ISZERO DUP1 PUSH2 0x434C JUMPI POP DUP6 SLOAD PUSH1 0x1 PUSH1 0xFF SHL AND ISZERO ISZERO JUMPDEST DUP1 ISZERO PUSH2 0x4381 JUMPI POP PUSH2 0x436C PUSH2 0x4364 DUP9 PUSH1 0x3 ADD SLOAD PUSH1 0x80 SHR SWAP1 JUMP JUMPDEST DUP9 SLOAD SWAP1 PUSH2 0x51C7 JUMP JUMPDEST PUSH1 0x1 PUSH1 0x1 PUSH1 0x80 SHL SUB AND DUP2 PUSH1 0x1 PUSH1 0x1 PUSH1 0x80 SHL SUB AND LT JUMPDEST DUP1 ISZERO PUSH2 0x43AE JUMPI POP PUSH2 0x4396 PUSH2 0x4364 DUP9 PUSH1 0x3 ADD SLOAD SWAP1 JUMP JUMPDEST PUSH1 0x1 PUSH1 0x1 PUSH1 0x80 SHL SUB AND DUP5 PUSH0 ADD MLOAD PUSH1 0x1 PUSH1 0x1 PUSH1 0x80 SHL SUB AND LT JUMPDEST PUSH2 0x43E3 JUMPI PUSH1 0x40 MLOAD PUSH3 0x461BCD PUSH1 0xE5 SHL DUP2 MSTORE PUSH1 0x4 ADD PUSH2 0x980 SWAP1 PUSH1 0x20 DUP1 DUP3 MSTORE PUSH1 0x4 SWAP1 DUP3 ADD MSTORE PUSH4 0x47303131 PUSH1 0xE0 SHL PUSH1 0x40 DUP3 ADD MSTORE PUSH1 0x60 ADD SWAP1 JUMP JUMPDEST PUSH1 0x3 DUP8 ADD SLOAD PUSH1 0x40 DUP5 ADD MLOAD PUSH2 0x4406 SWAP2 SWAP1 PUSH1 0x1 PUSH1 0x1 PUSH1 0x80 SHL SUB AND PUSH1 0x80 DUP5 SWAP1 SHL OR PUSH2 0x51EB JUMP JUMPDEST PUSH1 0x3 DUP9 ADD SSTORE PUSH1 0x4 DUP8 ADD SLOAD PUSH1 0x40 DUP5 ADD MLOAD PUSH2 0x442E SWAP2 SWAP1 PUSH1 0x1 PUSH1 0x1 PUSH1 0x80 SHL SUB AND PUSH1 0x80 DUP5 SWAP1 SHL OR PUSH2 0x51EB JUMP JUMPDEST PUSH1 0x4 DUP9 ADD SSTORE PUSH1 0x5 DUP8 ADD SLOAD DUP4 MLOAD PUSH1 0x20 DUP6 ADD MLOAD PUSH2 0x4458 SWAP3 SWAP2 PUSH1 0x80 SHL PUSH1 0x1 PUSH1 0x1 PUSH1 0x80 SHL SUB SWAP1 SWAP2 AND OR PUSH2 0x51EB JUMP JUMPDEST PUSH1 0x5 DUP9 ADD SSTORE PUSH2 0x4467 DUP6 DUP3 PUSH2 0x5211 JUMP JUMPDEST PUSH1 0x20 DUP4 ADD MLOAD DUP4 MLOAD PUSH2 0x4478 SWAP2 SWAP1 PUSH2 0x5CF2 JUMP JUMPDEST PUSH1 0x1 PUSH1 0x1 PUSH1 0x80 SHL SUB SWAP1 DUP2 AND DUP5 MSTORE PUSH1 0x40 DUP5 ADD MLOAD DUP9 SLOAD PUSH2 0x44A4 SWAP3 SWAP1 SWAP2 AND PUSH2 0x2710 PUSH1 0xD3 SWAP3 SWAP1 SWAP3 SHR PUSH1 0x3F AND MUL DIV SWAP1 JUMP JUMPDEST PUSH1 0x1 PUSH1 0x1 PUSH1 0x80 SHL SUB AND PUSH1 0x20 DUP1 DUP6 ADD DUP3 SWAP1 MSTORE DUP5 MLOAD PUSH1 0x60 DUP8 ADD MLOAD SWAP2 DUP8 ADD MLOAD PUSH1 0x40 DUP1 DUP10 ADD MLOAD PUSH1 0x80 DUP11 ADD MLOAD SWAP2 DUP10 ADD MLOAD PUSH2 0x44E7 SWAP7 DUP15 SWAP7 SWAP5 SWAP4 SWAP2 PUSH2 0x44E2 SWAP2 SWAP1 PUSH2 0x5CF2 JUMP JUMPDEST PUSH2 0x4C01 JUMP JUMPDEST PUSH1 0x20 DUP4 ADD MLOAD PUSH1 0x1 PUSH1 0x1 PUSH1 0x80 SHL SUB AND ISZERO PUSH2 0x4517 JUMPI PUSH1 0x5 DUP8 ADD SLOAD PUSH1 0x20 DUP5 ADD MLOAD PUSH2 0x4511 SWAP2 SWAP1 PUSH1 0x80 SHL PUSH2 0x2D85 JUMP JUMPDEST PUSH1 0x5 DUP9 ADD SSTORE JUMPDEST PUSH1 0x1 DUP6 ADD SLOAD ISZERO PUSH2 0x4758 JUMPI PUSH1 0x40 MLOAD DUP1 PUSH1 0x60 ADD PUSH1 0x40 MSTORE DUP1 PUSH2 0x454B DUP4 PUSH2 0x33ED PUSH2 0x4541 DUP12 PUSH1 0x5 ADD SLOAD PUSH1 0x80 SHR SWAP1 JUMP JUMPDEST PUSH1 0x4 DUP13 ADD SLOAD PUSH2 0x10EA JUMP JUMPDEST PUSH1 0x1 PUSH1 0x1 PUSH1 0x80 SHL SUB AND DUP2 MSTORE PUSH1 0x20 ADD PUSH2 0x4578 DUP4 PUSH2 0x33ED PUSH2 0x456E DUP11 PUSH1 0x4 ADD SLOAD PUSH1 0x80 SHR SWAP1 JUMP JUMPDEST PUSH1 0x4 DUP12 ADD SLOAD PUSH2 0x10EA JUMP JUMPDEST PUSH1 0x1 PUSH1 0x1 PUSH1 0x80 SHL SUB AND DUP2 MSTORE PUSH1 0x20 ADD PUSH2 0x45A1 DUP4 PUSH2 0x459B PUSH2 0x456E DUP11 PUSH1 0x2 ADD SLOAD PUSH1 0x80 SHR SWAP1 JUMP JUMPDEST SWAP1 PUSH2 0x422E JUMP JUMPDEST PUSH1 0x1 PUSH1 0x1 PUSH1 0x80 SHL SUB AND DUP2 MSTORE POP SWAP2 POP PUSH2 0x45C8 PUSH2 0x45C0 DUP8 PUSH1 0x3 ADD SLOAD PUSH1 0x80 SHR SWAP1 JUMP JUMPDEST DUP8 SLOAD SWAP1 PUSH2 0x51C7 JUMP JUMPDEST PUSH1 0x1 PUSH1 0x1 PUSH1 0x80 SHL SUB AND DUP2 PUSH1 0x1 PUSH1 0x1 PUSH1 0x80 SHL SUB AND LT DUP1 ISZERO PUSH2 0x460A JUMPI POP PUSH2 0x45F1 PUSH2 0x45C0 DUP8 PUSH1 0x3 ADD SLOAD SWAP1 JUMP JUMPDEST PUSH1 0x1 PUSH1 0x1 PUSH1 0x80 SHL SUB AND DUP3 PUSH1 0x40 ADD MLOAD PUSH1 0x1 PUSH1 0x1 PUSH1 0x80 SHL SUB AND LT JUMPDEST PUSH2 0x463F JUMPI PUSH1 0x40 MLOAD PUSH3 0x461BCD PUSH1 0xE5 SHL DUP2 MSTORE PUSH1 0x4 ADD PUSH2 0x980 SWAP1 PUSH1 0x20 DUP1 DUP3 MSTORE PUSH1 0x4 SWAP1 DUP3 ADD MSTORE PUSH4 0x23981899 PUSH1 0xE1 SHL PUSH1 0x40 DUP3 ADD MSTORE PUSH1 0x60 ADD SWAP1 JUMP JUMPDEST PUSH1 0x3 DUP7 ADD SLOAD PUSH1 0x40 DUP4 ADD MLOAD PUSH2 0x4662 SWAP2 SWAP1 PUSH1 0x1 PUSH1 0x1 PUSH1 0x80 SHL SUB AND PUSH1 0x80 DUP5 SWAP1 SHL OR PUSH2 0x51EB JUMP JUMPDEST PUSH1 0x3 DUP8 ADD SSTORE PUSH1 0x4 DUP7 ADD SLOAD PUSH1 0x40 DUP4 ADD MLOAD PUSH2 0x468A SWAP2 SWAP1 PUSH1 0x1 PUSH1 0x1 PUSH1 0x80 SHL SUB AND PUSH1 0x80 DUP5 SWAP1 SHL OR PUSH2 0x51EB JUMP JUMPDEST PUSH1 0x4 DUP8 ADD SSTORE PUSH1 0x5 DUP7 ADD SLOAD DUP3 MLOAD PUSH1 0x20 DUP5 ADD MLOAD PUSH2 0x46B4 SWAP3 SWAP2 PUSH1 0x80 SHL PUSH1 0x1 PUSH1 0x1 PUSH1 0x80 SHL SUB SWAP1 SWAP2 AND OR PUSH2 0x51EB JUMP JUMPDEST PUSH1 0x5 DUP8 ADD SSTORE PUSH1 0x20 DUP3 ADD MLOAD DUP3 MLOAD PUSH2 0x46CA SWAP2 SWAP1 PUSH2 0x5CF2 JUMP JUMPDEST PUSH1 0x1 PUSH1 0x1 PUSH1 0x80 SHL SUB SWAP1 DUP2 AND DUP4 MSTORE PUSH1 0x40 DUP4 ADD MLOAD DUP8 SLOAD PUSH2 0x46F6 SWAP3 SWAP1 SWAP2 AND PUSH2 0x2710 PUSH1 0xD3 SWAP3 SWAP1 SWAP3 SHR PUSH1 0x3F AND MUL DIV SWAP1 JUMP JUMPDEST PUSH1 0x1 PUSH1 0x1 PUSH1 0x80 SHL SUB AND PUSH1 0x20 DUP4 ADD DUP2 SWAP1 MSTORE ISZERO PUSH2 0x4728 JUMPI PUSH1 0x5 DUP7 ADD SLOAD PUSH1 0x20 DUP4 ADD MLOAD PUSH2 0x4722 SWAP2 SWAP1 PUSH1 0x80 SHL PUSH2 0x2D85 JUMP JUMPDEST PUSH1 0x5 DUP8 ADD SSTORE JUMPDEST PUSH2 0x4758 DUP7 DUP4 PUSH0 ADD MLOAD DUP7 PUSH1 0x60 ADD MLOAD DUP8 PUSH1 0x20 ADD MLOAD DUP9 PUSH1 0x40 ADD MLOAD DUP10 PUSH1 0x80 ADD MLOAD DUP9 PUSH1 0x20 ADD MLOAD DUP10 PUSH1 0x40 ADD MLOAD PUSH2 0x44E2 SWAP2 SWAP1 PUSH2 0x5CF2 JUMP JUMPDEST SWAP5 POP SWAP5 POP SWAP5 SWAP2 POP POP JUMP JUMPDEST PUSH0 PUSH1 0x1 PUSH1 0x1 PUSH1 0x80 SHL SUB DUP3 GT ISZERO PUSH2 0x4778 JUMPI PUSH0 PUSH2 0x853 JUMP JUMPDEST POP SWAP1 JUMP JUMPDEST DUP3 PUSH1 0x1 PUSH1 0x1 PUSH1 0xA0 SHL SUB AND PUSH2 0x478F DUP3 PUSH2 0x1656 JUMP JUMPDEST PUSH1 0x1 PUSH1 0x1 PUSH1 0xA0 SHL SUB AND EQ PUSH2 0x47B5 JUMPI PUSH1 0x40 MLOAD PUSH3 0x461BCD PUSH1 0xE5 SHL DUP2 MSTORE PUSH1 0x4 ADD PUSH2 0x980 SWAP1 PUSH2 0x5E5F JUMP JUMPDEST PUSH1 0x1 PUSH1 0x1 PUSH1 0xA0 SHL SUB DUP3 AND PUSH2 0x4817 JUMPI PUSH1 0x40 MLOAD PUSH3 0x461BCD PUSH1 0xE5 SHL DUP2 MSTORE PUSH1 0x20 PUSH1 0x4 DUP3 ADD MSTORE PUSH1 0x24 DUP1 DUP3 ADD MSTORE PUSH32 0x4552433732313A207472616E7366657220746F20746865207A65726F20616464 PUSH1 0x44 DUP3 ADD MSTORE PUSH4 0x72657373 PUSH1 0xE0 SHL PUSH1 0x64 DUP3 ADD MSTORE PUSH1 0x84 ADD PUSH2 0x980 JUMP JUMPDEST DUP3 PUSH1 0x1 PUSH1 0x1 PUSH1 0xA0 SHL SUB AND PUSH2 0x482A DUP3 PUSH2 0x1656 JUMP JUMPDEST PUSH1 0x1 PUSH1 0x1 PUSH1 0xA0 SHL SUB AND EQ PUSH2 0x4850 JUMPI PUSH1 0x40 MLOAD PUSH3 0x461BCD PUSH1 0xE5 SHL DUP2 MSTORE PUSH1 0x4 ADD PUSH2 0x980 SWAP1 PUSH2 0x5E5F JUMP JUMPDEST PUSH0 DUP2 DUP2 MSTORE PUSH1 0x4 PUSH1 0x20 SWAP1 DUP2 MSTORE PUSH1 0x40 DUP1 DUP4 KECCAK256 DUP1 SLOAD PUSH1 0x1 PUSH1 0x1 PUSH1 0xA0 SHL SUB NOT SWAP1 DUP2 AND SWAP1 SWAP2 SSTORE PUSH1 0x1 PUSH1 0x1 PUSH1 0xA0 SHL SUB DUP8 DUP2 AND DUP1 DUP7 MSTORE PUSH1 0x3 DUP6 MSTORE DUP4 DUP7 KECCAK256 DUP1 SLOAD PUSH0 NOT ADD SWAP1 SSTORE SWAP1 DUP8 AND DUP1 DUP7 MSTORE DUP4 DUP7 KECCAK256 DUP1 SLOAD PUSH1 0x1 ADD SWAP1 SSTORE DUP7 DUP7 MSTORE PUSH1 0x2 SWAP1 SWAP5 MSTORE DUP3 DUP6 KECCAK256 DUP1 SLOAD SWAP1 SWAP3 AND DUP5 OR SWAP1 SWAP2 SSTORE SWAP1 MLOAD DUP5 SWAP4 PUSH32 0xDDF252AD1BE2C89B69C2B068FC378DAA952BA7F163C4A11628F55A4DF523B3EF SWAP2 LOG4 POP POP POP JUMP JUMPDEST PUSH2 0x48F0 DUP3 PUSH1 0x2 ADD SLOAD DUP3 PUSH1 0x2 ADD SLOAD PUSH2 0x2D85 JUMP JUMPDEST DUP3 PUSH1 0x2 ADD DUP2 SWAP1 SSTORE POP PUSH2 0x490A DUP3 PUSH1 0x3 ADD SLOAD DUP3 PUSH1 0x3 ADD SLOAD PUSH2 0x2D85 JUMP JUMPDEST DUP3 PUSH1 0x3 ADD DUP2 SWAP1 SSTORE POP PUSH2 0x4924 DUP3 PUSH1 0x4 ADD SLOAD DUP3 PUSH1 0x4 ADD SLOAD PUSH2 0x2D85 JUMP JUMPDEST DUP3 PUSH1 0x4 ADD DUP2 SWAP1 SSTORE POP POP POP JUMP JUMPDEST PUSH0 PUSH2 0x493A DUP3 PUSH2 0x1656 JUMP JUMPDEST SWAP1 POP PUSH2 0x4945 DUP3 PUSH2 0x1656 JUMP JUMPDEST PUSH0 DUP4 DUP2 MSTORE PUSH1 0x4 PUSH1 0x20 SWAP1 DUP2 MSTORE PUSH1 0x40 DUP1 DUP4 KECCAK256 DUP1 SLOAD PUSH1 0x1 PUSH1 0x1 PUSH1 0xA0 SHL SUB NOT SWAP1 DUP2 AND SWAP1 SWAP2 SSTORE PUSH1 0x1 PUSH1 0x1 PUSH1 0xA0 SHL SUB DUP6 AND DUP1 DUP6 MSTORE PUSH1 0x3 DUP5 MSTORE DUP3 DUP6 KECCAK256 DUP1 SLOAD PUSH0 NOT ADD SWAP1 SSTORE DUP8 DUP6 MSTORE PUSH1 0x2 SWAP1 SWAP4 MSTORE DUP2 DUP5 KECCAK256 DUP1 SLOAD SWAP1 SWAP2 AND SWAP1 SSTORE MLOAD SWAP3 SWAP4 POP DUP5 SWAP3 PUSH32 0xDDF252AD1BE2C89B69C2B068FC378DAA952BA7F163C4A11628F55A4DF523B3EF SWAP1 DUP4 SWAP1 LOG4 POP POP JUMP JUMPDEST PUSH0 PUSH2 0x853 PUSH2 0x49CE PUSH2 0x31D0 JUMP JUMPDEST DUP4 PUSH1 0x40 MLOAD PUSH2 0x1901 PUSH1 0xF0 SHL DUP2 MSTORE PUSH1 0x2 DUP2 ADD SWAP3 SWAP1 SWAP3 MSTORE PUSH1 0x22 DUP3 ADD MSTORE PUSH1 0x42 SWAP1 KECCAK256 SWAP1 JUMP JUMPDEST PUSH0 DUP1 DUP3 MLOAD PUSH1 0x41 SUB PUSH2 0x4A22 JUMPI PUSH1 0x20 DUP4 ADD MLOAD PUSH1 0x40 DUP5 ADD MLOAD PUSH1 0x60 DUP6 ADD MLOAD PUSH0 BYTE PUSH2 0x4A16 DUP8 DUP3 DUP6 DUP6 PUSH2 0x5311 JUMP JUMPDEST SWAP5 POP SWAP5 POP POP POP POP PUSH2 0x4A29 JUMP JUMPDEST POP PUSH0 SWAP1 POP PUSH1 0x2 JUMPDEST SWAP3 POP SWAP3 SWAP1 POP JUMP JUMPDEST PUSH0 DUP1 PUSH0 DUP6 PUSH1 0x1 PUSH1 0x1 PUSH1 0xA0 SHL SUB AND PUSH4 0x1626BA7E PUSH1 0xE0 SHL DUP7 DUP7 PUSH1 0x40 MLOAD PUSH1 0x24 ADD PUSH2 0x4A58 SWAP3 SWAP2 SWAP1 PUSH2 0x5EA4 JUMP JUMPDEST PUSH1 0x40 DUP1 MLOAD PUSH1 0x1F NOT DUP2 DUP5 SUB ADD DUP2 MSTORE SWAP2 DUP2 MSTORE PUSH1 0x20 DUP3 ADD DUP1 MLOAD PUSH1 0x1 PUSH1 0x1 PUSH1 0xE0 SHL SUB AND PUSH1 0x1 PUSH1 0x1 PUSH1 0xE0 SHL SUB NOT SWAP1 SWAP5 AND SWAP4 SWAP1 SWAP4 OR SWAP1 SWAP3 MSTORE SWAP1 MLOAD PUSH2 0x4A96 SWAP2 SWAP1 PUSH2 0x5EBC JUMP JUMPDEST PUSH0 PUSH1 0x40 MLOAD DUP1 DUP4 SUB DUP2 DUP6 GAS STATICCALL SWAP2 POP POP RETURNDATASIZE DUP1 PUSH0 DUP2 EQ PUSH2 0x4ACE JUMPI PUSH1 0x40 MLOAD SWAP2 POP PUSH1 0x1F NOT PUSH1 0x3F RETURNDATASIZE ADD AND DUP3 ADD PUSH1 0x40 MSTORE RETURNDATASIZE DUP3 MSTORE RETURNDATASIZE PUSH0 PUSH1 0x20 DUP5 ADD RETURNDATACOPY PUSH2 0x4AD3 JUMP JUMPDEST PUSH1 0x60 SWAP2 POP JUMPDEST POP SWAP2 POP SWAP2 POP DUP2 DUP1 ISZERO PUSH2 0x4AE6 JUMPI POP DUP1 MLOAD PUSH1 0x20 EQ JUMPDEST DUP1 ISZERO PUSH2 0x4B17 JUMPI POP DUP1 MLOAD PUSH4 0xB135D3F PUSH1 0xE1 SHL SWAP1 PUSH2 0x4B0B SWAP1 DUP4 ADD PUSH1 0x20 SWAP1 DUP2 ADD SWAP1 DUP5 ADD PUSH2 0x5EC7 JUMP JUMPDEST PUSH1 0x1 PUSH1 0x1 PUSH1 0xE0 SHL SUB NOT AND EQ JUMPDEST SWAP7 SWAP6 POP POP POP POP POP POP JUMP JUMPDEST PUSH0 PUSH2 0x193C PUSH2 0x4B2F DUP5 PUSH1 0x80 SHR SWAP1 JUMP JUMPDEST PUSH1 0x1 PUSH1 0x1 PUSH1 0x80 SHL SUB AND DUP4 PUSH1 0x1 PUSH1 0x1 PUSH1 0x80 SHL SUB AND PUSH2 0x4250 DUP7 SWAP1 JUMP JUMPDEST PUSH0 PUSH2 0x3FF PUSH1 0xBB DUP5 SWAP1 SHR AND DUP1 DUP3 SUB PUSH2 0x4B63 JUMPI DUP3 SWAP2 POP POP PUSH2 0x853 JUMP JUMPDEST PUSH2 0x4B6E DUP2 PUSH1 0x40 PUSH2 0x5CC9 JUMP JUMPDEST PUSH2 0x131F SWAP1 DUP5 PUSH2 0x5EE2 JUMP JUMPDEST PUSH0 PUSH1 0x80 DUP3 DUP2 SAR SWAP1 DUP5 SWAP1 SAR SUB PUSH1 0x1 PUSH1 0x1 PUSH1 0x80 SHL SUB DUP4 DUP2 AND SWAP1 DUP6 AND ADD PUSH2 0x2DB4 PUSH2 0x2DAB DUP4 PUSH2 0x4762 JUMP JUMPDEST PUSH0 PUSH1 0x80 DUP3 DUP2 SAR SWAP1 DUP5 SWAP1 SAR ADD PUSH1 0x1 PUSH1 0x1 PUSH1 0x80 SHL SUB DUP4 DUP2 AND SWAP1 DUP6 AND SUB PUSH2 0x2DB4 PUSH2 0x2DAB DUP4 PUSH2 0x4762 JUMP JUMPDEST PUSH1 0x60 PUSH0 PUSH2 0x4BD0 DUP4 PUSH2 0x53CE JUMP JUMPDEST PUSH1 0x40 DUP1 MLOAD PUSH1 0x20 DUP1 DUP3 MSTORE DUP2 DUP4 ADD SWAP1 SWAP3 MSTORE SWAP2 SWAP3 POP PUSH0 SWAP2 SWAP1 PUSH1 0x20 DUP3 ADD DUP2 DUP1 CALLDATASIZE DUP4 CALLDATACOPY POP POP POP SWAP2 DUP3 MSTORE POP PUSH1 0x20 DUP2 ADD SWAP3 SWAP1 SWAP3 MSTORE POP SWAP1 JUMP JUMPDEST PUSH1 0x64 PUSH1 0x1 PUSH1 0x1 PUSH1 0x80 SHL SUB DUP8 AND PUSH1 0xDD DUP8 SWAP1 SHR PUSH1 0x1F AND MUL DIV PUSH2 0x4C21 DUP2 DUP9 PUSH2 0x5CF2 JUMP JUMPDEST SWAP7 POP PUSH1 0x64 PUSH1 0x1 PUSH1 0x1 PUSH1 0x80 SHL SUB DUP9 AND PUSH1 0xFA DUP9 SWAP1 SHR DUP2 MUL DUP3 SWAP1 DIV SWAP2 PUSH1 0xF4 DUP10 SWAP1 SHR PUSH1 0x3F SWAP1 DUP2 AND DUP4 MUL DUP3 SWAP1 DIV SWAP3 PUSH1 0xEE DUP12 SWAP1 SHR DUP3 AND DUP2 MUL DUP4 SWAP1 DIV SWAP3 PUSH1 0xE8 DUP13 SWAP1 SHR DUP4 AND DUP3 MUL DUP2 SWAP1 DIV SWAP3 PUSH1 0xE2 DUP14 SWAP1 SHR AND SWAP1 SWAP2 MUL DIV PUSH1 0x1 PUSH1 0x1 PUSH1 0xA0 SHL SUB DUP10 AND PUSH2 0x4DAA JUMPI PUSH2 0x4CC2 CALLER PUSH2 0x4C8A DUP10 DUP9 PUSH2 0x5C4A JUMP JUMPDEST PUSH1 0x1 PUSH1 0x1 PUSH1 0x80 SHL SUB AND DUP16 PUSH1 0x2 ADD PUSH0 SWAP1 SLOAD SWAP1 PUSH2 0x100 EXP SWAP1 DIV PUSH1 0x1 PUSH1 0x1 PUSH1 0xA0 SHL SUB AND PUSH1 0x1 PUSH1 0x1 PUSH1 0xA0 SHL SUB AND PUSH2 0x3A6B SWAP1 SWAP3 SWAP2 SWAP1 PUSH4 0xFFFFFFFF AND JUMP JUMPDEST PUSH2 0x4CCC DUP2 DUP6 PUSH2 0x5C4A JUMP JUMPDEST PUSH1 0x1 PUSH1 0x1 PUSH1 0xA0 SHL SUB DUP12 AND PUSH0 SWAP1 DUP2 MSTORE PUSH1 0x6 DUP16 ADD PUSH1 0x20 MSTORE PUSH1 0x40 DUP2 KECCAK256 DUP1 SLOAD SWAP1 SWAP2 SWAP1 PUSH2 0x4CFE SWAP1 DUP5 SWAP1 PUSH1 0x1 PUSH1 0x1 PUSH1 0x80 SHL SUB AND PUSH2 0x5C4A JUMP JUMPDEST SWAP3 POP PUSH2 0x100 EXP DUP2 SLOAD DUP2 PUSH1 0x1 PUSH1 0x1 PUSH1 0x80 SHL SUB MUL NOT AND SWAP1 DUP4 PUSH1 0x1 PUSH1 0x1 PUSH1 0x80 SHL SUB AND MUL OR SWAP1 SSTORE POP DUP6 DUP2 DUP6 DUP8 DUP16 PUSH2 0x4D31 SWAP2 SWAP1 PUSH2 0x5CF2 JUMP JUMPDEST PUSH2 0x4D3B SWAP2 SWAP1 PUSH2 0x5CF2 JUMP JUMPDEST PUSH2 0x4D45 SWAP2 SWAP1 PUSH2 0x5CF2 JUMP JUMPDEST PUSH2 0x4D4F SWAP2 SWAP1 PUSH2 0x5C4A JUMP JUMPDEST PUSH1 0x1 PUSH1 0x1 PUSH1 0xA0 SHL SUB DUP10 AND PUSH0 SWAP1 DUP2 MSTORE PUSH1 0x6 DUP16 ADD PUSH1 0x20 MSTORE PUSH1 0x40 DUP2 KECCAK256 DUP1 SLOAD SWAP1 SWAP2 SWAP1 PUSH2 0x4D81 SWAP1 DUP5 SWAP1 PUSH1 0x1 PUSH1 0x1 PUSH1 0x80 SHL SUB AND PUSH2 0x5C4A JUMP JUMPDEST SWAP3 POP PUSH2 0x100 EXP DUP2 SLOAD DUP2 PUSH1 0x1 PUSH1 0x1 PUSH1 0x80 SHL SUB MUL NOT AND SWAP1 DUP4 PUSH1 0x1 PUSH1 0x1 PUSH1 0x80 SHL SUB AND MUL OR SWAP1 SSTORE POP PUSH2 0x4FA0 JUMP JUMPDEST PUSH1 0x1 DUP14 ADD SLOAD PUSH1 0x1 PUSH1 0x1 PUSH1 0xA0 SHL SUB DUP10 DUP2 AND SWAP2 AND EQ PUSH2 0x4E20 JUMPI PUSH1 0x1 DUP14 ADD SLOAD PUSH1 0x1 PUSH1 0x1 PUSH1 0xA0 SHL SUB AND PUSH0 SWAP1 DUP2 MSTORE PUSH1 0x6 DUP15 ADD PUSH1 0x20 MSTORE PUSH1 0x40 DUP2 KECCAK256 DUP1 SLOAD DUP7 SWAP3 SWAP1 PUSH2 0x4DF7 SWAP1 DUP5 SWAP1 PUSH1 0x1 PUSH1 0x1 PUSH1 0x80 SHL SUB AND PUSH2 0x5C4A JUMP JUMPDEST SWAP3 POP PUSH2 0x100 EXP DUP2 SLOAD DUP2 PUSH1 0x1 PUSH1 0x1 PUSH1 0x80 SHL SUB MUL NOT AND SWAP1 DUP4 PUSH1 0x1 PUSH1 0x1 PUSH1 0x80 SHL SUB AND MUL OR SWAP1 SSTORE POP PUSH2 0x4E2D JUMP JUMPDEST PUSH2 0x4E2A DUP5 DUP8 PUSH2 0x5C4A JUMP JUMPDEST SWAP6 POP JUMPDEST DUP8 PUSH1 0x1 PUSH1 0x1 PUSH1 0xA0 SHL SUB AND DUP11 PUSH1 0x1 PUSH1 0x1 PUSH1 0xA0 SHL SUB AND EQ PUSH2 0x4EA1 JUMPI PUSH1 0x1 PUSH1 0x1 PUSH1 0xA0 SHL SUB DUP11 AND PUSH0 SWAP1 DUP2 MSTORE PUSH1 0x6 DUP15 ADD PUSH1 0x20 MSTORE PUSH1 0x40 DUP2 KECCAK256 DUP1 SLOAD DUP6 SWAP3 SWAP1 PUSH2 0x4E78 SWAP1 DUP5 SWAP1 PUSH1 0x1 PUSH1 0x1 PUSH1 0x80 SHL SUB AND PUSH2 0x5C4A JUMP JUMPDEST SWAP3 POP PUSH2 0x100 EXP DUP2 SLOAD DUP2 PUSH1 0x1 PUSH1 0x1 PUSH1 0x80 SHL SUB MUL NOT AND SWAP1 DUP4 PUSH1 0x1 PUSH1 0x1 PUSH1 0x80 SHL SUB AND MUL OR SWAP1 SSTORE POP PUSH2 0x4EAE JUMP JUMPDEST PUSH2 0x4EAB DUP4 DUP8 PUSH2 0x5C4A JUMP JUMPDEST SWAP6 POP JUMPDEST DUP8 PUSH1 0x1 PUSH1 0x1 PUSH1 0xA0 SHL SUB AND DUP10 PUSH1 0x1 PUSH1 0x1 PUSH1 0xA0 SHL SUB AND EQ PUSH2 0x4F22 JUMPI PUSH1 0x1 PUSH1 0x1 PUSH1 0xA0 SHL SUB DUP10 AND PUSH0 SWAP1 DUP2 MSTORE PUSH1 0x6 DUP15 ADD PUSH1 0x20 MSTORE PUSH1 0x40 DUP2 KECCAK256 DUP1 SLOAD DUP5 SWAP3 SWAP1 PUSH2 0x4EF9 SWAP1 DUP5 SWAP1 PUSH1 0x1 PUSH1 0x1 PUSH1 0x80 SHL SUB AND PUSH2 0x5C4A JUMP JUMPDEST SWAP3 POP PUSH2 0x100 EXP DUP2 SLOAD DUP2 PUSH1 0x1 PUSH1 0x1 PUSH1 0x80 SHL SUB MUL NOT AND SWAP1 DUP4 PUSH1 0x1 PUSH1 0x1 PUSH1 0x80 SHL SUB AND MUL OR SWAP1 SSTORE POP PUSH2 0x4F2F JUMP JUMPDEST PUSH2 0x4F2C DUP3 DUP8 PUSH2 0x5C4A JUMP JUMPDEST SWAP6 POP JUMPDEST PUSH1 0x1 PUSH1 0x1 PUSH1 0xA0 SHL SUB DUP9 AND PUSH0 SWAP1 DUP2 MSTORE PUSH1 0x6 DUP15 ADD PUSH1 0x20 MSTORE PUSH1 0x40 DUP2 KECCAK256 DUP1 SLOAD DUP9 SWAP3 SWAP1 PUSH2 0x4F61 SWAP1 DUP5 SWAP1 PUSH1 0x1 PUSH1 0x1 PUSH1 0x80 SHL SUB AND PUSH2 0x5C4A JUMP JUMPDEST SWAP3 POP PUSH2 0x100 EXP DUP2 SLOAD DUP2 PUSH1 0x1 PUSH1 0x1 PUSH1 0x80 SHL SUB MUL NOT AND SWAP1 DUP4 PUSH1 0x1 PUSH1 0x1 PUSH1 0x80 SHL SUB AND MUL OR SWAP1 SSTORE POP PUSH2 0x4FA0 CALLER DUP9 DUP4 DUP9 PUSH2 0x4F96 SWAP2 SWAP1 PUSH2 0x5C4A JUMP JUMPDEST PUSH2 0x4C8A SWAP2 SWAP1 PUSH2 0x5C4A JUMP JUMPDEST POP POP POP POP POP POP POP POP POP POP POP POP POP JUMP JUMPDEST PUSH2 0x4FC4 DUP3 PUSH1 0x3 ADD SLOAD PUSH2 0xC46 PUSH2 0x1B1F DUP5 PUSH1 0x80 SHR SWAP1 JUMP JUMPDEST PUSH1 0x3 DUP4 ADD SSTORE PUSH1 0x1 DUP3 ADD SLOAD ISZERO PUSH2 0xCB4 JUMPI PUSH2 0x4924 DUP3 PUSH1 0x4 ADD SLOAD PUSH2 0xC46 PUSH2 0x1B1F DUP5 SWAP1 JUMP JUMPDEST PUSH0 PUSH1 0x1 PUSH1 0x1 PUSH1 0xA0 SHL SUB DUP5 AND EXTCODESIZE ISZERO PUSH2 0x50D7 JUMPI PUSH1 0x40 MLOAD PUSH4 0xA85BD01 PUSH1 0xE1 SHL DUP2 MSTORE PUSH1 0x1 PUSH1 0x1 PUSH1 0xA0 SHL SUB DUP6 AND SWAP1 PUSH4 0x150B7A02 SWAP1 PUSH2 0x5028 SWAP1 CALLER SWAP1 DUP10 SWAP1 DUP9 SWAP1 DUP9 SWAP1 PUSH1 0x4 ADD PUSH2 0x5F0F JUMP JUMPDEST PUSH1 0x20 PUSH1 0x40 MLOAD DUP1 DUP4 SUB DUP2 PUSH0 DUP8 GAS CALL SWAP3 POP POP POP DUP1 ISZERO PUSH2 0x5062 JUMPI POP PUSH1 0x40 DUP1 MLOAD PUSH1 0x1F RETURNDATASIZE SWAP1 DUP2 ADD PUSH1 0x1F NOT AND DUP3 ADD SWAP1 SWAP3 MSTORE PUSH2 0x505F SWAP2 DUP2 ADD SWAP1 PUSH2 0x5EC7 JUMP JUMPDEST PUSH1 0x1 JUMPDEST PUSH2 0x50BD JUMPI RETURNDATASIZE DUP1 DUP1 ISZERO PUSH2 0x508F JUMPI PUSH1 0x40 MLOAD SWAP2 POP PUSH1 0x1F NOT PUSH1 0x3F RETURNDATASIZE ADD AND DUP3 ADD PUSH1 0x40 MSTORE RETURNDATASIZE DUP3 MSTORE RETURNDATASIZE PUSH0 PUSH1 0x20 DUP5 ADD RETURNDATACOPY PUSH2 0x5094 JUMP JUMPDEST PUSH1 0x60 SWAP2 POP JUMPDEST POP DUP1 MLOAD PUSH0 SUB PUSH2 0x50B5 JUMPI PUSH1 0x40 MLOAD PUSH3 0x461BCD PUSH1 0xE5 SHL DUP2 MSTORE PUSH1 0x4 ADD PUSH2 0x980 SWAP1 PUSH2 0x5E0D JUMP JUMPDEST DUP1 MLOAD DUP2 PUSH1 0x20 ADD REVERT JUMPDEST PUSH1 0x1 PUSH1 0x1 PUSH1 0xE0 SHL SUB NOT AND PUSH4 0xA85BD01 PUSH1 0xE1 SHL EQ SWAP1 POP PUSH2 0x131F JUMP JUMPDEST POP PUSH1 0x1 PUSH2 0x131F JUMP JUMPDEST PUSH0 DUP1 PUSH19 0x184F03E93FF9F4DAA797ED6E38ED64BF6A1F01 PUSH1 0x40 SHL DUP4 LT PUSH2 0x511D JUMPI PUSH19 0x184F03E93FF9F4DAA797ED6E38ED64BF6A1F01 PUSH1 0x40 SHL DUP4 DIV SWAP3 POP PUSH1 0x40 ADD JUMPDEST PUSH14 0x4EE2D6D415B85ACEF8100000000 DUP4 LT PUSH2 0x5149 JUMPI PUSH14 0x4EE2D6D415B85ACEF8100000000 DUP4 DIV SWAP3 POP PUSH1 0x20 ADD JUMPDEST PUSH7 0x2386F26FC10000 DUP4 LT PUSH2 0x5167 JUMPI PUSH7 0x2386F26FC10000 DUP4 DIV SWAP3 POP PUSH1 0x10 ADD JUMPDEST PUSH4 0x5F5E100 DUP4 LT PUSH2 0x517F JUMPI PUSH4 0x5F5E100 DUP4 DIV SWAP3 POP PUSH1 0x8 ADD JUMPDEST PUSH2 0x2710 DUP4 LT PUSH2 0x5193 JUMPI PUSH2 0x2710 DUP4 DIV SWAP3 POP PUSH1 0x4 ADD JUMPDEST PUSH1 0x64 DUP4 LT PUSH2 0x51A5 JUMPI PUSH1 0x64 DUP4 DIV SWAP3 POP PUSH1 0x2 ADD JUMPDEST PUSH1 0xA DUP4 LT PUSH2 0x853 JUMPI PUSH1 0x1 ADD SWAP3 SWAP2 POP POP JUMP JUMPDEST SWAP2 DUP2 MUL SWAP2 PUSH0 DUP2 DUP5 DIV PUSH2 0x2DB4 DUP2 PUSH2 0x4762 JUMP JUMPDEST PUSH0 PUSH2 0x3FF PUSH1 0xB1 DUP5 SWAP1 SHR AND DUP1 DUP3 SUB PUSH2 0x51E1 JUMPI DUP3 SWAP2 POP POP PUSH2 0x853 JUMP JUMPDEST PUSH2 0x131F DUP2 DUP5 PUSH2 0x5EE2 JUMP JUMPDEST PUSH0 PUSH1 0x80 DUP3 DUP2 SAR SWAP1 DUP5 SWAP1 SAR SUB PUSH1 0x1 PUSH1 0x1 PUSH1 0x80 SHL SUB DUP4 DUP2 AND SWAP1 DUP6 AND SUB PUSH2 0x2DB4 PUSH2 0x2DAB DUP4 PUSH2 0x4762 JUMP JUMPDEST PUSH0 PUSH2 0x5276 PUSH2 0x5247 PUSH2 0x5226 DUP6 PUSH1 0x3 ADD SLOAD PUSH1 0x80 SHR SWAP1 JUMP JUMPDEST PUSH1 0x1 PUSH1 0x1 PUSH1 0x80 SHL SUB AND DUP5 PUSH1 0x1 PUSH1 0x1 PUSH1 0x80 SHL SUB AND PUSH2 0x4250 DUP8 PUSH1 0x2 ADD SLOAD PUSH1 0x80 SHR SWAP1 JUMP JUMPDEST PUSH2 0x10EA PUSH2 0x5255 DUP7 PUSH1 0x3 ADD SLOAD SWAP1 JUMP JUMPDEST PUSH1 0x1 PUSH1 0x1 PUSH1 0x80 SHL SUB AND DUP6 PUSH1 0x1 PUSH1 0x1 PUSH1 0x80 SHL SUB AND PUSH2 0x4250 DUP9 PUSH1 0x2 ADD SLOAD PUSH1 0x80 SHR SWAP1 JUMP JUMPDEST SWAP1 POP DUP3 PUSH1 0x1 ADD SLOAD PUSH0 EQ PUSH2 0x52DE JUMPI PUSH0 PUSH2 0x52C7 PUSH2 0x5298 PUSH2 0x5255 DUP7 PUSH1 0x4 ADD SLOAD PUSH1 0x80 SHR SWAP1 JUMP JUMPDEST PUSH2 0x10EA PUSH2 0x52A6 DUP8 PUSH1 0x4 ADD SLOAD SWAP1 JUMP JUMPDEST PUSH1 0x1 PUSH1 0x1 PUSH1 0x80 SHL SUB AND DUP7 PUSH1 0x1 PUSH1 0x1 PUSH1 0x80 SHL SUB AND PUSH2 0x4250 DUP10 PUSH1 0x2 ADD SLOAD PUSH1 0x80 SHR SWAP1 JUMP JUMPDEST SWAP1 POP PUSH2 0x52D7 DUP5 PUSH1 0x4 ADD SLOAD DUP3 PUSH2 0x51EB JUMP JUMPDEST PUSH1 0x4 DUP6 ADD SSTORE POP JUMPDEST PUSH2 0x52EC DUP4 PUSH1 0x3 ADD SLOAD DUP3 PUSH2 0x51EB JUMP JUMPDEST PUSH1 0x3 DUP5 ADD SSTORE PUSH1 0x2 DUP4 ADD SLOAD PUSH2 0x5304 SWAP1 PUSH1 0x80 DUP5 SWAP1 SHL PUSH2 0x51EB JUMP JUMPDEST DUP4 PUSH1 0x2 ADD DUP2 SWAP1 SSTORE POP POP POP POP JUMP JUMPDEST PUSH0 DUP1 PUSH32 0x7FFFFFFFFFFFFFFFFFFFFFFFFFFFFFFF5D576E7357A4501DDFE92F46681B20A0 DUP4 GT ISZERO PUSH2 0x5346 JUMPI POP PUSH0 SWAP1 POP PUSH1 0x3 PUSH2 0x53C5 JUMP JUMPDEST PUSH1 0x40 DUP1 MLOAD PUSH0 DUP1 DUP3 MSTORE PUSH1 0x20 DUP3 ADD DUP1 DUP5 MSTORE DUP10 SWAP1 MSTORE PUSH1 0xFF DUP9 AND SWAP3 DUP3 ADD SWAP3 SWAP1 SWAP3 MSTORE PUSH1 0x60 DUP2 ADD DUP7 SWAP1 MSTORE PUSH1 0x80 DUP2 ADD DUP6 SWAP1 MSTORE PUSH1 0x1 SWAP1 PUSH1 0xA0 ADD PUSH1 0x20 PUSH1 0x40 MLOAD PUSH1 0x20 DUP2 SUB SWAP1 DUP1 DUP5 SUB SWAP1 DUP6 GAS STATICCALL ISZERO DUP1 ISZERO PUSH2 0x5397 JUMPI RETURNDATASIZE PUSH0 DUP1 RETURNDATACOPY RETURNDATASIZE PUSH0 REVERT JUMPDEST POP POP PUSH1 0x40 MLOAD PUSH1 0x1F NOT ADD MLOAD SWAP2 POP POP PUSH1 0x1 PUSH1 0x1 PUSH1 0xA0 SHL SUB DUP2 AND PUSH2 0x53BF JUMPI PUSH0 PUSH1 0x1 SWAP3 POP SWAP3 POP POP PUSH2 0x53C5 JUMP JUMPDEST SWAP2 POP PUSH0 SWAP1 POP JUMPDEST SWAP5 POP SWAP5 SWAP3 POP POP POP JUMP JUMPDEST PUSH0 PUSH1 0xFF DUP3 AND PUSH1 0x1F DUP2 GT ISZERO PUSH2 0x853 JUMPI PUSH1 0x40 MLOAD PUSH4 0x2CD44AC3 PUSH1 0xE2 SHL DUP2 MSTORE PUSH1 0x4 ADD PUSH1 0x40 MLOAD DUP1 SWAP2 SUB SWAP1 REVERT JUMPDEST PUSH1 0x40 MLOAD DUP1 PUSH2 0x100 ADD PUSH1 0x40 MSTORE DUP1 PUSH0 PUSH1 0x1 PUSH1 0x1 PUSH1 0x80 SHL SUB AND DUP2 MSTORE PUSH1 0x20 ADD PUSH0 PUSH1 0x1 PUSH1 0x1 PUSH1 0x80 SHL SUB AND DUP2 MSTORE PUSH1 0x20 ADD PUSH0 PUSH1 0x1 PUSH1 0x1 PUSH1 0x80 SHL SUB AND DUP2 MSTORE PUSH1 0x20 ADD PUSH0 PUSH1 0x1 PUSH1 0x1 PUSH1 0x80 SHL SUB AND DUP2 MSTORE PUSH1 0x20 ADD PUSH0 DUP2 MSTORE PUSH1 0x20 ADD PUSH0 DUP2 MSTORE PUSH1 0x20 ADD PUSH0 DUP2 MSTORE PUSH1 0x20 ADD PUSH0 DUP2 MSTORE POP SWAP1 JUMP JUMPDEST PUSH1 0x1 PUSH1 0x1 PUSH1 0xE0 SHL SUB NOT DUP2 AND DUP2 EQ PUSH2 0x2CAB JUMPI PUSH0 DUP1 REVERT JUMPDEST PUSH0 PUSH1 0x20 DUP3 DUP5 SUB SLT ISZERO PUSH2 0x547B JUMPI PUSH0 DUP1 REVERT JUMPDEST DUP2 CALLDATALOAD PUSH2 0x193C DUP2 PUSH2 0x5456 JUMP JUMPDEST PUSH0 DUP2 MLOAD DUP1 DUP5 MSTORE DUP1 PUSH1 0x20 DUP5 ADD PUSH1 0x20 DUP7 ADD MCOPY PUSH0 PUSH1 0x20 DUP3 DUP7 ADD ADD MSTORE PUSH1 0x20 PUSH1 0x1F NOT PUSH1 0x1F DUP4 ADD AND DUP6 ADD ADD SWAP2 POP POP SWAP3 SWAP2 POP POP JUMP JUMPDEST PUSH1 0x20 DUP2 MSTORE PUSH0 PUSH2 0x193C PUSH1 0x20 DUP4 ADD DUP5 PUSH2 0x5486 JUMP JUMPDEST PUSH0 PUSH1 0x20 DUP3 DUP5 SUB SLT ISZERO PUSH2 0x54D6 JUMPI PUSH0 DUP1 REVERT JUMPDEST POP CALLDATALOAD SWAP2 SWAP1 POP JUMP JUMPDEST PUSH1 0x1 PUSH1 0x1 PUSH1 0xA0 SHL SUB DUP2 AND DUP2 EQ PUSH2 0x2CAB JUMPI PUSH0 DUP1 REVERT JUMPDEST PUSH0 DUP1 PUSH1 0x40 DUP4 DUP6 SUB SLT ISZERO PUSH2 0x5502 JUMPI PUSH0 DUP1 REVERT JUMPDEST DUP3 CALLDATALOAD PUSH2 0x550D DUP2 PUSH2 0x54DD JUMP JUMPDEST SWAP5 PUSH1 0x20 SWAP4 SWAP1 SWAP4 ADD CALLDATALOAD SWAP4 POP POP POP JUMP JUMPDEST PUSH0 DUP1 PUSH1 0x40 DUP4 DUP6 SUB SLT ISZERO PUSH2 0x552C JUMPI PUSH0 DUP1 REVERT JUMPDEST POP POP DUP1 CALLDATALOAD SWAP3 PUSH1 0x20 SWAP1 SWAP2 ADD CALLDATALOAD SWAP2 POP JUMP JUMPDEST PUSH1 0x1 PUSH1 0x1 PUSH1 0x80 SHL SUB DUP2 AND DUP2 EQ PUSH2 0x2CAB JUMPI PUSH0 DUP1 REVERT JUMPDEST PUSH0 DUP1 PUSH1 0x40 DUP4 DUP6 SUB SLT ISZERO PUSH2 0x5560 JUMPI PUSH0 DUP1 REVERT JUMPDEST DUP3 CALLDATALOAD SWAP2 POP PUSH1 0x20 DUP4 ADD CALLDATALOAD PUSH2 0x5572 DUP2 PUSH2 0x553B JUMP JUMPDEST DUP1 SWAP2 POP POP SWAP3 POP SWAP3 SWAP1 POP JUMP JUMPDEST PUSH0 DUP1 PUSH0 PUSH1 0x60 DUP5 DUP7 SUB SLT ISZERO PUSH2 0x558F JUMPI PUSH0 DUP1 REVERT JUMPDEST DUP4 CALLDATALOAD PUSH2 0x559A DUP2 PUSH2 0x54DD JUMP JUMPDEST SWAP3 POP PUSH1 0x20 DUP5 ADD CALLDATALOAD PUSH2 0x55AA DUP2 PUSH2 0x54DD JUMP JUMPDEST SWAP3 SWAP6 SWAP3 SWAP5 POP POP POP PUSH1 0x40 SWAP2 SWAP1 SWAP2 ADD CALLDATALOAD SWAP1 JUMP JUMPDEST PUSH4 0x4E487B71 PUSH1 0xE0 SHL PUSH0 MSTORE PUSH1 0x41 PUSH1 0x4 MSTORE PUSH1 0x24 PUSH0 REVERT JUMPDEST PUSH1 0x40 MLOAD PUSH1 0x1F DUP3 ADD PUSH1 0x1F NOT AND DUP2 ADD PUSH8 0xFFFFFFFFFFFFFFFF DUP2 GT DUP3 DUP3 LT OR ISZERO PUSH2 0x55F8 JUMPI PUSH2 0x55F8 PUSH2 0x55BB JUMP JUMPDEST PUSH1 0x40 MSTORE SWAP2 SWAP1 POP JUMP JUMPDEST PUSH0 DUP3 PUSH1 0x1F DUP4 ADD SLT PUSH2 0x560F JUMPI PUSH0 DUP1 REVERT JUMPDEST DUP2 CALLDATALOAD PUSH8 0xFFFFFFFFFFFFFFFF DUP2 GT ISZERO PUSH2 0x5629 JUMPI PUSH2 0x5629 PUSH2 0x55BB JUMP JUMPDEST PUSH2 0x563C PUSH1 0x1F DUP3 ADD PUSH1 0x1F NOT AND PUSH1 0x20 ADD PUSH2 0x55CF JUMP JUMPDEST DUP2 DUP2 MSTORE DUP5 PUSH1 0x20 DUP4 DUP7 ADD ADD GT ISZERO PUSH2 0x5650 JUMPI PUSH0 DUP1 REVERT JUMPDEST DUP2 PUSH1 0x20 DUP6 ADD PUSH1 0x20 DUP4 ADD CALLDATACOPY PUSH0 SWAP2 DUP2 ADD PUSH1 0x20 ADD SWAP2 SWAP1 SWAP2 MSTORE SWAP4 SWAP3 POP POP POP JUMP JUMPDEST PUSH0 DUP1 PUSH0 DUP1 PUSH0 DUP1 PUSH1 0xC0 DUP8 DUP10 SUB SLT ISZERO PUSH2 0x5681 JUMPI PUSH0 DUP1 REVERT JUMPDEST DUP7 CALLDATALOAD PUSH2 0x568C DUP2 PUSH2 0x54DD JUMP JUMPDEST SWAP6 POP PUSH1 0x20 DUP8 ADD CALLDATALOAD PUSH2 0x569C DUP2 PUSH2 0x54DD JUMP JUMPDEST SWAP5 POP PUSH1 0x40 DUP8 ADD CALLDATALOAD SWAP4 POP PUSH1 0x60 DUP8 ADD CALLDATALOAD PUSH8 0xFFFFFFFFFFFFFFFF DUP2 GT ISZERO PUSH2 0x56BE JUMPI PUSH0 DUP1 REVERT JUMPDEST PUSH2 0x56CA DUP10 DUP3 DUP11 ADD PUSH2 0x5600 JUMP JUMPDEST SWAP4 POP POP PUSH1 0x80 DUP8 ADD CALLDATALOAD SWAP2 POP PUSH1 0xA0 DUP8 ADD CALLDATALOAD PUSH8 0xFFFFFFFFFFFFFFFF DUP2 GT ISZERO PUSH2 0x56ED JUMPI PUSH0 DUP1 REVERT JUMPDEST PUSH2 0x56F9 DUP10 DUP3 DUP11 ADD PUSH2 0x5600 JUMP JUMPDEST SWAP2 POP POP SWAP3 SWAP6 POP SWAP3 SWAP6 POP SWAP3 SWAP6 JUMP JUMPDEST PUSH0 PUSH1 0x20 DUP3 DUP5 SUB SLT ISZERO PUSH2 0x5716 JUMPI PUSH0 DUP1 REVERT JUMPDEST DUP2 CALLDATALOAD PUSH2 0x193C DUP2 PUSH2 0x54DD JUMP JUMPDEST PUSH0 DUP1 PUSH1 0x40 DUP4 DUP6 SUB SLT ISZERO PUSH2 0x5732 JUMPI PUSH0 DUP1 REVERT JUMPDEST DUP3 CALLDATALOAD SWAP2 POP PUSH1 0x20 DUP4 ADD CALLDATALOAD PUSH2 0x5572 DUP2 PUSH2 0x54DD JUMP JUMPDEST PUSH0 DUP1 PUSH0 DUP1 PUSH1 0x80 DUP6 DUP8 SUB SLT ISZERO PUSH2 0x5757 JUMPI PUSH0 DUP1 REVERT JUMPDEST DUP5 CALLDATALOAD SWAP4 POP PUSH1 0x20 DUP6 ADD CALLDATALOAD SWAP3 POP PUSH1 0x40 DUP6 ADD CALLDATALOAD PUSH2 0x5770 DUP2 PUSH2 0x54DD JUMP JUMPDEST SWAP4 SWAP7 SWAP3 SWAP6 POP SWAP3 SWAP4 PUSH1 0x60 ADD CALLDATALOAD SWAP3 POP POP JUMP JUMPDEST DUP1 CALLDATALOAD DUP1 ISZERO ISZERO DUP2 EQ PUSH2 0xFC2 JUMPI PUSH0 DUP1 REVERT JUMPDEST PUSH0 DUP1 PUSH0 DUP1 PUSH0 DUP1 PUSH1 0xC0 DUP8 DUP10 SUB SLT ISZERO PUSH2 0x57A4 JUMPI PUSH0 DUP1 REVERT JUMPDEST DUP7 CALLDATALOAD SWAP6 POP PUSH1 0x20 DUP8 ADD CALLDATALOAD SWAP5 POP PUSH1 0x40 DUP8 ADD CALLDATALOAD PUSH2 0x57BD DUP2 PUSH2 0x553B JUMP JUMPDEST SWAP4 POP PUSH1 0x60 DUP8 ADD CALLDATALOAD SWAP3 POP PUSH2 0x57D2 PUSH1 0x80 DUP9 ADD PUSH2 0x5780 JUMP JUMPDEST SWAP2 POP PUSH1 0xA0 DUP8 ADD CALLDATALOAD PUSH2 0x57E2 DUP2 PUSH2 0x54DD JUMP JUMPDEST DUP1 SWAP2 POP POP SWAP3 SWAP6 POP SWAP3 SWAP6 POP SWAP3 SWAP6 JUMP JUMPDEST PUSH0 DUP3 PUSH1 0x1F DUP4 ADD SLT PUSH2 0x57FF JUMPI PUSH0 DUP1 REVERT JUMPDEST DUP2 CALLDATALOAD PUSH8 0xFFFFFFFFFFFFFFFF DUP2 GT ISZERO PUSH2 0x5819 JUMPI PUSH2 0x5819 PUSH2 0x55BB JUMP JUMPDEST DUP1 PUSH1 0x5 SHL PUSH2 0x5829 PUSH1 0x20 DUP3 ADD PUSH2 0x55CF JUMP JUMPDEST SWAP2 DUP3 MSTORE PUSH1 0x20 DUP2 DUP6 ADD DUP2 ADD SWAP3 SWAP1 DUP2 ADD SWAP1 DUP7 DUP5 GT ISZERO PUSH2 0x5844 JUMPI PUSH0 DUP1 REVERT JUMPDEST PUSH1 0x20 DUP7 ADD SWAP3 POP JUMPDEST DUP4 DUP4 LT ISZERO PUSH2 0x4B17 JUMPI DUP3 CALLDATALOAD DUP3 MSTORE PUSH1 0x20 SWAP3 DUP4 ADD SWAP3 SWAP1 SWAP2 ADD SWAP1 PUSH2 0x584B JUMP JUMPDEST PUSH0 DUP1 PUSH1 0x40 DUP4 DUP6 SUB SLT ISZERO PUSH2 0x5877 JUMPI PUSH0 DUP1 REVERT JUMPDEST DUP3 CALLDATALOAD PUSH8 0xFFFFFFFFFFFFFFFF DUP2 GT ISZERO PUSH2 0x588D JUMPI PUSH0 DUP1 REVERT JUMPDEST PUSH2 0x5899 DUP6 DUP3 DUP7 ADD PUSH2 0x57F0 JUMP JUMPDEST SWAP3 POP POP PUSH1 0x20 DUP4 ADD CALLDATALOAD PUSH2 0x5572 DUP2 PUSH2 0x54DD JUMP JUMPDEST PUSH0 DUP2 MLOAD DUP1 DUP5 MSTORE PUSH1 0x20 DUP5 ADD SWAP4 POP PUSH1 0x20 DUP4 ADD PUSH0 JUMPDEST DUP3 DUP2 LT ISZERO PUSH2 0x58DA JUMPI DUP2 MLOAD DUP7 MSTORE PUSH1 0x20 SWAP6 DUP7 ADD SWAP6 SWAP1 SWAP2 ADD SWAP1 PUSH1 0x1 ADD PUSH2 0x58BC JUMP JUMPDEST POP SWAP4 SWAP5 SWAP4 POP POP POP POP JUMP JUMPDEST PUSH1 0x20 DUP2 MSTORE PUSH0 PUSH2 0x193C PUSH1 0x20 DUP4 ADD DUP5 PUSH2 0x58AA JUMP JUMPDEST PUSH0 DUP1 PUSH0 DUP1 PUSH1 0x80 DUP6 DUP8 SUB SLT ISZERO PUSH2 0x5909 JUMPI PUSH0 DUP1 REVERT JUMPDEST DUP5 CALLDATALOAD PUSH2 0x5914 DUP2 PUSH2 0x54DD JUMP JUMPDEST SWAP4 POP PUSH1 0x20 DUP6 ADD CALLDATALOAD SWAP3 POP PUSH1 0x40 DUP6 ADD CALLDATALOAD SWAP2 POP PUSH1 0x60 DUP6 ADD CALLDATALOAD PUSH8 0xFFFFFFFFFFFFFFFF DUP2 GT ISZERO PUSH2 0x593D JUMPI PUSH0 DUP1 REVERT JUMPDEST PUSH2 0x5949 DUP8 DUP3 DUP9 ADD PUSH2 0x5600 JUMP JUMPDEST SWAP2 POP POP SWAP3 SWAP6 SWAP2 SWAP5 POP SWAP3 POP JUMP JUMPDEST PUSH1 0xFF PUSH1 0xF8 SHL DUP9 AND DUP2 MSTORE PUSH1 0xE0 PUSH1 0x20 DUP3 ADD MSTORE PUSH0 PUSH2 0x5973 PUSH1 0xE0 DUP4 ADD DUP10 PUSH2 0x5486 JUMP JUMPDEST DUP3 DUP2 SUB PUSH1 0x40 DUP5 ADD MSTORE PUSH2 0x5985 DUP2 DUP10 PUSH2 0x5486 JUMP JUMPDEST PUSH1 0x60 DUP5 ADD DUP9 SWAP1 MSTORE PUSH1 0x1 PUSH1 0x1 PUSH1 0xA0 SHL SUB DUP8 AND PUSH1 0x80 DUP6 ADD MSTORE PUSH1 0xA0 DUP5 ADD DUP7 SWAP1 MSTORE DUP4 DUP2 SUB PUSH1 0xC0 DUP6 ADD MSTORE SWAP1 POP PUSH2 0x59B6 DUP2 DUP6 PUSH2 0x58AA JUMP JUMPDEST SWAP11 SWAP10 POP POP POP POP POP POP POP POP POP POP JUMP JUMPDEST PUSH0 DUP1 PUSH0 PUSH1 0x60 DUP5 DUP7 SUB SLT ISZERO PUSH2 0x59D6 JUMPI PUSH0 DUP1 REVERT JUMPDEST DUP4 CALLDATALOAD SWAP3 POP PUSH1 0x20 DUP5 ADD CALLDATALOAD SWAP2 POP PUSH1 0x40 DUP5 ADD CALLDATALOAD PUSH2 0x59EF DUP2 PUSH2 0x54DD JUMP JUMPDEST DUP1 SWAP2 POP POP SWAP3 POP SWAP3 POP SWAP3 JUMP JUMPDEST PUSH0 DUP1 PUSH0 PUSH1 0x60 DUP5 DUP7 SUB SLT ISZERO PUSH2 0x5A0C JUMPI PUSH0 DUP1 REVERT JUMPDEST DUP4 CALLDATALOAD PUSH2 0x5A17 DUP2 PUSH2 0x54DD JUMP JUMPDEST SWAP6 PUSH1 0x20 DUP6 ADD CALLDATALOAD SWAP6 POP PUSH1 0x40 SWAP1 SWAP5 ADD CALLDATALOAD SWAP4 SWAP3 POP POP POP JUMP JUMPDEST PUSH0 DUP1 PUSH1 0x40 DUP4 DUP6 SUB SLT ISZERO PUSH2 0x5A3D JUMPI PUSH0 DUP1 REVERT JUMPDEST DUP3 CALLDATALOAD PUSH2 0x5A48 DUP2 PUSH2 0x54DD JUMP JUMPDEST SWAP2 POP PUSH2 0x5A56 PUSH1 0x20 DUP5 ADD PUSH2 0x5780 JUMP JUMPDEST SWAP1 POP SWAP3 POP SWAP3 SWAP1 POP JUMP JUMPDEST PUSH0 DUP1 PUSH0 DUP1 PUSH0 PUSH1 0xA0 DUP7 DUP9 SUB SLT ISZERO PUSH2 0x5A73 JUMPI PUSH0 DUP1 REVERT JUMPDEST DUP6 CALLDATALOAD SWAP5 POP PUSH1 0x20 DUP7 ADD CALLDATALOAD SWAP4 POP PUSH1 0x40 DUP7 ADD CALLDATALOAD PUSH2 0x5A8C DUP2 PUSH2 0x553B JUMP JUMPDEST SWAP3 POP PUSH1 0x60 DUP7 ADD CALLDATALOAD SWAP2 POP PUSH1 0x80 DUP7 ADD CALLDATALOAD PUSH2 0x5AA3 DUP2 PUSH2 0x54DD JUMP JUMPDEST DUP1 SWAP2 POP POP SWAP3 SWAP6 POP SWAP3 SWAP6 SWAP1 SWAP4 POP JUMP JUMPDEST PUSH0 DUP1 PUSH0 PUSH1 0x60 DUP5 DUP7 SUB SLT ISZERO PUSH2 0x5AC3 JUMPI PUSH0 DUP1 REVERT JUMPDEST POP POP DUP2 CALLDATALOAD SWAP4 PUSH1 0x20 DUP4 ADD CALLDATALOAD SWAP4 POP PUSH1 0x40 SWAP1 SWAP3 ADD CALLDATALOAD SWAP2 SWAP1 POP JUMP JUMPDEST PUSH0 DUP1 PUSH0 DUP1 PUSH1 0x80 DUP6 DUP8 SUB SLT ISZERO PUSH2 0x5AED JUMPI PUSH0 DUP1 REVERT JUMPDEST DUP5 CALLDATALOAD PUSH2 0x5AF8 DUP2 PUSH2 0x54DD JUMP JUMPDEST SWAP4 POP PUSH1 0x20 DUP6 ADD CALLDATALOAD PUSH2 0x5B08 DUP2 PUSH2 0x54DD JUMP JUMPDEST SWAP3 POP PUSH1 0x40 DUP6 ADD CALLDATALOAD SWAP2 POP PUSH1 0x60 DUP6 ADD CALLDATALOAD PUSH8 0xFFFFFFFFFFFFFFFF DUP2 GT ISZERO PUSH2 0x593D JUMPI PUSH0 DUP1 REVERT JUMPDEST PUSH0 DUP1 PUSH1 0x40 DUP4 DUP6 SUB SLT ISZERO PUSH2 0x5B3B JUMPI PUSH0 DUP1 REVERT JUMPDEST DUP3 CALLDATALOAD PUSH2 0x5B46 DUP2 PUSH2 0x54DD JUMP JUMPDEST SWAP2 POP PUSH1 0x20 DUP4 ADD CALLDATALOAD PUSH2 0x5572 DUP2 PUSH2 0x54DD JUMP JUMPDEST PUSH0 DUP1 PUSH0 PUSH1 0x60 DUP5 DUP7 SUB SLT ISZERO PUSH2 0x5B68 JUMPI PUSH0 DUP1 REVERT JUMPDEST DUP4 CALLDATALOAD SWAP3 POP PUSH1 0x20 DUP5 ADD CALLDATALOAD SWAP2 POP PUSH1 0x40 DUP5 ADD CALLDATALOAD PUSH2 0x59EF DUP2 PUSH2 0x553B JUMP JUMPDEST PUSH0 DUP1 PUSH0 PUSH1 0x60 DUP5 DUP7 SUB SLT ISZERO PUSH2 0x5B93 JUMPI PUSH0 DUP1 REVERT JUMPDEST DUP4 CALLDATALOAD SWAP3 POP PUSH1 0x20 DUP5 ADD CALLDATALOAD PUSH2 0x5BA5 DUP2 PUSH2 0x553B JUMP JUMPDEST SWAP2 POP PUSH1 0x40 DUP5 ADD CALLDATALOAD PUSH2 0x59EF DUP2 PUSH2 0x54DD JUMP JUMPDEST PUSH0 PUSH1 0x20 DUP3 DUP5 SUB SLT ISZERO PUSH2 0x5BC5 JUMPI PUSH0 DUP1 REVERT JUMPDEST DUP2 CALLDATALOAD PUSH8 0xFFFFFFFFFFFFFFFF DUP2 GT ISZERO PUSH2 0x5BDB JUMPI PUSH0 DUP1 REVERT JUMPDEST PUSH2 0x131F DUP5 DUP3 DUP6 ADD PUSH2 0x57F0 JUMP JUMPDEST PUSH1 0x1 DUP2 DUP2 SHR SWAP1 DUP3 AND DUP1 PUSH2 0x5BFB JUMPI PUSH1 0x7F DUP3 AND SWAP2 POP JUMPDEST PUSH1 0x20 DUP3 LT DUP2 SUB PUSH2 0x5C19 JUMPI PUSH4 0x4E487B71 PUSH1 0xE0 SHL PUSH0 MSTORE PUSH1 0x22 PUSH1 0x4 MSTORE PUSH1 0x24 PUSH0 REVERT JUMPDEST POP SWAP2 SWAP1 POP JUMP JUMPDEST PUSH0 PUSH1 0x20 DUP3 DUP5 SUB SLT ISZERO PUSH2 0x5C2F JUMPI PUSH0 DUP1 REVERT JUMPDEST POP MLOAD SWAP2 SWAP1 POP JUMP JUMPDEST PUSH4 0x4E487B71 PUSH1 0xE0 SHL PUSH0 MSTORE PUSH1 0x11 PUSH1 0x4 MSTORE PUSH1 0x24 PUSH0 REVERT JUMPDEST PUSH1 0x1 PUSH1 0x1 PUSH1 0x80 SHL SUB DUP2 DUP2 AND DUP4 DUP3 AND ADD SWAP1 DUP2 GT ISZERO PUSH2 0x853 JUMPI PUSH2 0x853 PUSH2 0x5C36 JUMP JUMPDEST PUSH1 0x20 DUP1 DUP3 MSTORE PUSH1 0x2D SWAP1 DUP3 ADD MSTORE PUSH32 0x4552433732313A2063616C6C6572206973206E6F7420746F6B656E206F776E65 PUSH1 0x40 DUP3 ADD MSTORE PUSH13 0x1C881BDC88185C1C1C9BDD9959 PUSH1 0x9A SHL PUSH1 0x60 DUP3 ADD MSTORE PUSH1 0x80 ADD SWAP1 JUMP JUMPDEST DUP1 DUP3 ADD DUP1 DUP3 GT ISZERO PUSH2 0x853 JUMPI PUSH2 0x853 PUSH2 0x5C36 JUMP JUMPDEST PUSH1 0x1 PUSH1 0x1 PUSH1 0x80 SHL SUB DUP2 DUP2 AND DUP4 DUP3 AND MUL SWAP1 DUP2 AND SWAP1 DUP2 DUP2 EQ PUSH2 0x5CEB JUMPI PUSH2 0x5CEB PUSH2 0x5C36 JUMP JUMPDEST POP SWAP3 SWAP2 POP POP JUMP JUMPDEST PUSH1 0x1 PUSH1 0x1 PUSH1 0x80 SHL SUB DUP3 DUP2 AND DUP3 DUP3 AND SUB SWAP1 DUP2 GT ISZERO PUSH2 0x853 JUMPI PUSH2 0x853 PUSH2 0x5C36 JUMP JUMPDEST PUSH4 0x4E487B71 PUSH1 0xE0 SHL PUSH0 MSTORE PUSH1 0x32 PUSH1 0x4 MSTORE PUSH1 0x24 PUSH0 REVERT JUMPDEST PUSH0 DUP1 PUSH1 0x40 DUP4 DUP6 SUB SLT ISZERO PUSH2 0x5D36 JUMPI PUSH0 DUP1 REVERT JUMPDEST DUP3 MLOAD PUSH2 0x5D41 DUP2 PUSH2 0x54DD JUMP JUMPDEST PUSH1 0x20 DUP5 ADD MLOAD SWAP1 SWAP3 POP PUSH2 0x5572 DUP2 PUSH2 0x54DD JUMP JUMPDEST PUSH0 DUP2 MLOAD DUP1 PUSH1 0x20 DUP5 ADD DUP6 MCOPY PUSH0 SWAP4 ADD SWAP3 DUP4 MSTORE POP SWAP1 SWAP2 SWAP1 POP JUMP JUMPDEST PUSH0 PUSH2 0x131F PUSH2 0x5D77 DUP4 DUP7 PUSH2 0x5D52 JUMP JUMPDEST DUP5 PUSH2 0x5D52 JUMP JUMPDEST DUP2 DUP2 SUB DUP2 DUP2 GT ISZERO PUSH2 0x853 JUMPI PUSH2 0x853 PUSH2 0x5C36 JUMP JUMPDEST PUSH1 0x40 DUP2 MSTORE PUSH0 PUSH2 0x5DA2 PUSH1 0x40 DUP4 ADD DUP6 PUSH2 0x58AA JUMP JUMPDEST DUP3 DUP2 SUB PUSH1 0x20 DUP5 ADD MSTORE PUSH2 0x2DB4 DUP2 DUP6 PUSH2 0x58AA JUMP JUMPDEST PUSH4 0x4E487B71 PUSH1 0xE0 SHL PUSH0 MSTORE PUSH1 0x12 PUSH1 0x4 MSTORE PUSH1 0x24 PUSH0 REVERT JUMPDEST PUSH0 DUP3 PUSH2 0x5DD6 JUMPI PUSH2 0x5DD6 PUSH2 0x5DB4 JUMP JUMPDEST POP MOD SWAP1 JUMP JUMPDEST PUSH0 PUSH1 0x20 DUP3 DUP5 SUB SLT ISZERO PUSH2 0x5DEB JUMPI PUSH0 DUP1 REVERT JUMPDEST DUP2 MLOAD PUSH2 0x193C DUP2 PUSH2 0x553B JUMP JUMPDEST DUP1 DUP3 MUL DUP2 ISZERO DUP3 DUP3 DIV DUP5 EQ OR PUSH2 0x853 JUMPI PUSH2 0x853 PUSH2 0x5C36 JUMP JUMPDEST PUSH1 0x20 DUP1 DUP3 MSTORE PUSH1 0x32 SWAP1 DUP3 ADD MSTORE PUSH32 0x4552433732313A207472616E7366657220746F206E6F6E204552433732315265 PUSH1 0x40 DUP3 ADD MSTORE PUSH18 0x31B2B4BB32B91034B6B83632B6B2B73A32B9 PUSH1 0x71 SHL PUSH1 0x60 DUP3 ADD MSTORE PUSH1 0x80 ADD SWAP1 JUMP JUMPDEST PUSH1 0x20 DUP1 DUP3 MSTORE PUSH1 0x25 SWAP1 DUP3 ADD MSTORE PUSH32 0x4552433732313A207472616E736665722066726F6D20696E636F727265637420 PUSH1 0x40 DUP3 ADD MSTORE PUSH5 0x37BBB732B9 PUSH1 0xD9 SHL PUSH1 0x60 DUP3 ADD MSTORE PUSH1 0x80 ADD SWAP1 JUMP JUMPDEST DUP3 DUP2 MSTORE PUSH1 0x40 PUSH1 0x20 DUP3 ADD MSTORE PUSH0 PUSH2 0x131F PUSH1 0x40 DUP4 ADD DUP5 PUSH2 0x5486 JUMP JUMPDEST PUSH0 PUSH2 0x193C DUP3 DUP5 PUSH2 0x5D52 JUMP JUMPDEST PUSH0 PUSH1 0x20 DUP3 DUP5 SUB SLT ISZERO PUSH2 0x5ED7 JUMPI PUSH0 DUP1 REVERT JUMPDEST DUP2 MLOAD PUSH2 0x193C DUP2 PUSH2 0x5456 JUMP JUMPDEST PUSH0 PUSH1 0x1 PUSH1 0x1 PUSH1 0x80 SHL SUB DUP4 AND DUP1 PUSH2 0x5EFA JUMPI PUSH2 0x5EFA PUSH2 0x5DB4 JUMP JUMPDEST DUP1 PUSH1 0x1 PUSH1 0x1 PUSH1 0x80 SHL SUB DUP5 AND DIV SWAP2 POP POP SWAP3 SWAP2 POP POP JUMP JUMPDEST PUSH1 0x1 PUSH1 0x1 PUSH1 0xA0 SHL SUB DUP6 DUP2 AND DUP3 MSTORE DUP5 AND PUSH1 0x20 DUP3 ADD MSTORE PUSH1 0x40 DUP2 ADD DUP4 SWAP1 MSTORE PUSH1 0x80 PUSH1 0x60 DUP3 ADD DUP2 SWAP1 MSTORE PUSH0 SWAP1 PUSH2 0x4B17 SWAP1 DUP4 ADD DUP5 PUSH2 0x5486 JUMP INVALID 0xCF 0xDB 0xE7 DUP16 BALANCE 0xBC MCOPY STATICCALL POP PUSH1 0x5E DUP12 GT 0xA7 0xB6 DUP5 CODECOPY PUSH18 0x370EA97EB24DE6E1A1EB9D23564568747470 GASPRICE 0x2F 0x2F PUSH24 0x77772E7474737761702E696F2F6E66743F70726F6F666964 RETURNDATASIZE LOG2 PUSH5 0x6970667358 0x22 SLT KECCAK256 DUP5 SWAP4 0xDA ADDMOD DUP11 DUP15 LOG2 0xB4 PUSH20 0x6CCD7B076ABB7CB6A8A739861F92DCA3ED805305 0x27 0xAE 0xD6 PUSH5 0x736F6C6343 STOP ADDMOD BYTE STOP CALLER "
		},
		"gasEstimates": {
			"creation": {
				"codeDepositCost": "4900800",
				"executionCost": "infinite",
				"totalCost": "infinite"
			},
			"external": {
				"DOMAIN_SEPARATOR()": "infinite",
				"addbanlist(address)": "infinite",
				"approve(address,uint256)": "infinite",
				"balanceOf(address)": "2669",
				"banlist(address)": "2578",
				"buyGood(uint256,uint256,uint128,uint256,bool,address)": "infinite",
				"buyGoodForPay(uint256,uint256,uint128,uint256,address)": "infinite",
				"changeGoodOwner(uint256,address)": "infinite",
				"collectCommission(uint256[])": "infinite",
				"collectProof(uint256,address)": "infinite",
				"disinvestProof(uint256,uint128,address)": "infinite",
				"eip712Domain()": "infinite",
				"getApproved(uint256)": "4810",
				"getGoodState(uint256)": "13612",
				"getProofState(uint256)": "11402",
				"goodWelfare(uint256,uint128)": "infinite",
				"initGood(uint256,uint256,address,uint256)": "infinite",
				"initMetaGood(address,uint256,uint256)": "infinite",
				"investGood(uint256,uint256,uint128)": "infinite",
				"isApprovedForAll(address,address)": "infinite",
				"ishigher(uint256,uint256,uint256)": "infinite",
				"marketconfig()": "2339",
				"modifyGoodConfig(uint256,uint256)": "infinite",
				"name()": "infinite",
				"nonces(uint256)": "2512",
				"ownerOf(uint256)": "2581",
				"payGood(uint256,uint256,address)": "infinite",
				"permit(address,uint256,uint256,bytes)": "infinite",
				"proofmapping(uint256)": "2590",
				"queryCommission(uint256[],address)": "infinite",
				"removebanlist(address)": "infinite",
				"safeTransferFrom(address,address,uint256)": "infinite",
				"safeTransferFrom(address,address,uint256,bytes)": "infinite",
				"safeTransferFromWithPermit(address,address,uint256,bytes,uint256,bytes)": "infinite",
				"setApprovalForAll(address,bool)": "26837",
				"setMarketConfig(uint256)": "infinite",
				"supportsInterface(bytes4)": "infinite",
				"symbol()": "infinite",
				"tokenURI(uint256)": "infinite",
				"totalSupply()": "2384",
				"transferFrom(address,address,uint256)": "infinite",
				"updateGoodConfig(uint256,uint256)": "28363"
			}
		},
		"methodIdentifiers": {
			"DOMAIN_SEPARATOR()": "3644e515",
			"addbanlist(address)": "b153b920",
			"approve(address,uint256)": "095ea7b3",
			"balanceOf(address)": "70a08231",
			"banlist(address)": "2973ada7",
			"buyGood(uint256,uint256,uint128,uint256,bool,address)": "578496ab",
			"buyGoodForPay(uint256,uint256,uint128,uint256,address)": "a7e11697",
			"changeGoodOwner(uint256,address)": "2a7c5a91",
			"collectCommission(uint256[])": "f88c3010",
			"collectProof(uint256,address)": "a676a600",
			"disinvestProof(uint256,uint128,address)": "f4662f20",
			"eip712Domain()": "84b0196e",
			"getApproved(uint256)": "081812fc",
			"getGoodState(uint256)": "a6f6a980",
			"getProofState(uint256)": "3f117740",
			"goodWelfare(uint256,uint128)": "18ad50d1",
			"initGood(uint256,uint256,address,uint256)": "4ffef907",
			"initMetaGood(address,uint256,uint256)": "97924ead",
			"investGood(uint256,uint256,uint128)": "f44733ad",
			"isApprovedForAll(address,address)": "e985e9c5",
			"ishigher(uint256,uint256,uint256)": "a7fed925",
			"marketconfig()": "402f5ab5",
			"modifyGoodConfig(uint256,uint256)": "0e21a1ac",
			"name()": "06fdde03",
			"nonces(uint256)": "141a468c",
			"ownerOf(uint256)": "6352211e",
			"payGood(uint256,uint256,address)": "920acbb8",
			"permit(address,uint256,uint256,bytes)": "745a41bc",
			"proofmapping(uint256)": "5e008cc4",
			"queryCommission(uint256[],address)": "6ff73c8e",
			"removebanlist(address)": "9551177a",
			"safeTransferFrom(address,address,uint256)": "42842e0e",
			"safeTransferFrom(address,address,uint256,bytes)": "b88d4fde",
			"safeTransferFromWithPermit(address,address,uint256,bytes,uint256,bytes)": "24744d54",
			"setApprovalForAll(address,bool)": "a22cb465",
			"setMarketConfig(uint256)": "45818e4c",
			"supportsInterface(bytes4)": "01ffc9a7",
			"symbol()": "95d89b41",
			"tokenURI(uint256)": "c87b56dd",
			"totalSupply()": "18160ddd",
			"transferFrom(address,address,uint256)": "23b872dd",
			"updateGoodConfig(uint256,uint256)": "144aeb83"
		}
	},
	"abi": [
		{
			"inputs": [
				{
					"internalType": "uint256",
					"name": "_marketconfig",
					"type": "uint256"
				},
				{
					"internalType": "address",
					"name": "_officialcontract",
					"type": "address"
				}
			],
			"stateMutability": "nonpayable",
			"type": "constructor"
		},
		{
			"inputs": [],
			"name": "ERC20TransferFailed",
			"type": "error"
		},
		{
			"inputs": [],
			"name": "InvalidShortString",
			"type": "error"
		},
		{
			"inputs": [],
			"name": "NativeTransferFailed",
			"type": "error"
		},
		{
			"inputs": [
				{
					"internalType": "string",
					"name": "str",
					"type": "string"
				}
			],
			"name": "StringTooLong",
			"type": "error"
		},
		{
			"anonymous": false,
			"inputs": [
				{
					"indexed": true,
					"internalType": "address",
					"name": "owner",
					"type": "address"
				},
				{
					"indexed": true,
					"internalType": "address",
					"name": "approved",
					"type": "address"
				},
				{
					"indexed": true,
					"internalType": "uint256",
					"name": "tokenId",
					"type": "uint256"
				}
			],
			"name": "Approval",
			"type": "event"
		},
		{
			"anonymous": false,
			"inputs": [
				{
					"indexed": true,
					"internalType": "address",
					"name": "owner",
					"type": "address"
				},
				{
					"indexed": true,
					"internalType": "address",
					"name": "operator",
					"type": "address"
				},
				{
					"indexed": false,
					"internalType": "bool",
					"name": "approved",
					"type": "bool"
				}
			],
			"name": "ApprovalForAll",
			"type": "event"
		},
		{
			"anonymous": false,
			"inputs": [],
			"name": "EIP712DomainChanged",
			"type": "event"
		},
		{
			"anonymous": false,
			"inputs": [
				{
					"indexed": true,
					"internalType": "address",
					"name": "from",
					"type": "address"
				},
				{
					"indexed": true,
					"internalType": "address",
					"name": "to",
					"type": "address"
				},
				{
					"indexed": true,
					"internalType": "uint256",
					"name": "tokenId",
					"type": "uint256"
				}
			],
			"name": "Transfer",
			"type": "event"
		},
		{
			"anonymous": false,
			"inputs": [
				{
					"indexed": false,
					"internalType": "address",
					"name": "_user",
					"type": "address"
				}
			],
			"name": "e_addbanlist",
			"type": "event"
		},
		{
			"anonymous": false,
			"inputs": [
				{
					"indexed": false,
					"internalType": "address",
					"name": "referals",
					"type": "address"
				}
			],
			"name": "e_addreferal",
			"type": "event"
		},
		{
			"anonymous": false,
			"inputs": [
				{
					"indexed": true,
					"internalType": "uint256",
					"name": "sellgood",
					"type": "uint256"
				},
				{
					"indexed": true,
					"internalType": "uint256",
					"name": "forgood",
					"type": "uint256"
				},
				{
					"indexed": false,
					"internalType": "address",
					"name": "fromer",
					"type": "address"
				},
				{
					"indexed": false,
					"internalType": "uint128",
					"name": "swapvalue",
					"type": "uint128"
				},
				{
					"indexed": false,
					"internalType": "T_BalanceUINT256",
					"name": "sellgoodstate",
					"type": "uint256"
				},
				{
					"indexed": false,
					"internalType": "T_BalanceUINT256",
					"name": "forgoodstate",
					"type": "uint256"
				}
			],
			"name": "e_buyGood",
			"type": "event"
		},
		{
			"anonymous": false,
			"inputs": [
				{
					"indexed": true,
					"internalType": "uint256",
					"name": "buygood",
					"type": "uint256"
				},
				{
					"indexed": true,
					"internalType": "uint256",
					"name": "usegood",
					"type": "uint256"
				},
				{
					"indexed": false,
					"internalType": "address",
					"name": "fromer",
					"type": "address"
				},
				{
					"indexed": false,
					"internalType": "address",
					"name": "receipt",
					"type": "address"
				},
				{
					"indexed": false,
					"internalType": "uint128",
					"name": "swapvalue",
					"type": "uint128"
				},
				{
					"indexed": false,
					"internalType": "T_BalanceUINT256",
					"name": "buygoodstate",
					"type": "uint256"
				},
				{
					"indexed": false,
					"internalType": "T_BalanceUINT256",
					"name": "usegoodstate",
					"type": "uint256"
				}
			],
			"name": "e_buyGoodForPay",
			"type": "event"
		},
		{
			"anonymous": false,
			"inputs": [
				{
					"indexed": true,
					"internalType": "uint256",
					"name": "_goodid",
					"type": "uint256"
				},
				{
					"indexed": false,
					"internalType": "address",
					"name": "_owner",
					"type": "address"
				},
				{
					"indexed": false,
					"internalType": "address",
					"name": "_to",
					"type": "address"
				}
			],
			"name": "e_changeOwner",
			"type": "event"
		},
		{
			"anonymous": false,
			"inputs": [
				{
					"indexed": false,
					"internalType": "uint256",
					"name": "goodid",
					"type": "uint256"
				},
				{
					"indexed": false,
					"internalType": "address",
					"name": "to",
					"type": "address"
				}
			],
			"name": "e_changegoodowner",
			"type": "event"
		},
		{
			"anonymous": false,
			"inputs": [
				{
					"indexed": true,
					"internalType": "uint256",
					"name": "_proofNo",
					"type": "uint256"
				},
				{
					"indexed": false,
					"internalType": "uint256",
					"name": "_normalGoodNo",
					"type": "uint256"
				},
				{
					"indexed": false,
					"internalType": "uint256",
					"name": "_valueGoodNo",
					"type": "uint256"
				},
				{
					"indexed": false,
					"internalType": "T_BalanceUINT256",
					"name": "_profit",
					"type": "uint256"
				}
			],
			"name": "e_collectProof",
			"type": "event"
		},
		{
			"anonymous": false,
			"inputs": [
				{
					"indexed": false,
					"internalType": "uint256",
					"name": "goodid",
					"type": "uint256"
				},
				{
					"indexed": false,
					"internalType": "uint256",
					"name": "feeamount",
					"type": "uint256"
				}
			],
			"name": "e_collectProtocolFee",
			"type": "event"
		},
		{
			"anonymous": false,
			"inputs": [
				{
					"indexed": false,
					"internalType": "uint256[]",
					"name": "_gooid",
					"type": "uint256[]"
				},
				{
					"indexed": false,
					"internalType": "uint256[]",
					"name": "_commisionamount",
					"type": "uint256[]"
				}
			],
			"name": "e_collectcommission",
			"type": "event"
		},
		{
			"anonymous": false,
			"inputs": [
				{
					"indexed": true,
					"internalType": "uint256",
					"name": "_proofNo",
					"type": "uint256"
				},
				{
					"indexed": false,
					"internalType": "uint256",
					"name": "_normalGoodNo",
					"type": "uint256"
				},
				{
					"indexed": false,
					"internalType": "uint256",
					"name": "_valueGoodNo",
					"type": "uint256"
				},
				{
					"indexed": false,
					"internalType": "T_BalanceUINT256",
					"name": "_value",
					"type": "uint256"
				},
				{
					"indexed": false,
					"internalType": "T_BalanceUINT256",
					"name": "_normalgood",
					"type": "uint256"
				},
				{
					"indexed": false,
					"internalType": "T_BalanceUINT256",
					"name": "_valuegood",
					"type": "uint256"
				},
				{
					"indexed": false,
					"internalType": "T_BalanceUINT256",
					"name": "_profit",
					"type": "uint256"
				}
			],
			"name": "e_disinvestProof",
			"type": "event"
		},
		{
			"anonymous": false,
			"inputs": [
				{
					"indexed": false,
					"internalType": "uint256",
					"name": "_goodid",
					"type": "uint256"
				},
				{
					"indexed": false,
					"internalType": "uint256",
					"name": "_valuegood",
					"type": "uint256"
				},
				{
					"indexed": false,
					"internalType": "uint256",
					"name": "_quantity",
					"type": "uint256"
				}
			],
			"name": "e_enpower",
			"type": "event"
		},
		{
			"anonymous": false,
			"inputs": [
				{
					"indexed": false,
					"internalType": "uint256",
					"name": "goodid",
					"type": "uint256"
				},
				{
					"indexed": false,
					"internalType": "uint128",
					"name": "welfare",
					"type": "uint128"
				}
			],
			"name": "e_goodWelfare",
			"type": "event"
		},
		{
			"anonymous": false,
			"inputs": [
				{
					"indexed": false,
					"internalType": "uint256",
					"name": "_proofNo",
					"type": "uint256"
				},
				{
					"indexed": false,
					"internalType": "uint256",
					"name": "_goodid",
					"type": "uint256"
				},
				{
					"indexed": false,
					"internalType": "uint256",
					"name": "_valuegoodNo",
					"type": "uint256"
				},
				{
					"indexed": false,
					"internalType": "address",
					"name": "_erc20address",
					"type": "address"
				},
				{
					"indexed": false,
					"internalType": "uint256",
					"name": "_goodConfig",
					"type": "uint256"
				},
				{
					"indexed": false,
					"internalType": "uint256",
					"name": "_construct",
					"type": "uint256"
				},
				{
					"indexed": false,
					"internalType": "T_BalanceUINT256",
					"name": "_normalinitial",
					"type": "uint256"
				},
				{
					"indexed": false,
					"internalType": "T_BalanceUINT256",
					"name": "_value",
					"type": "uint256"
				}
			],
			"name": "e_initGood",
			"type": "event"
		},
		{
			"anonymous": false,
			"inputs": [
				{
					"indexed": false,
					"internalType": "uint256",
					"name": "_proofNo",
					"type": "uint256"
				},
				{
					"indexed": false,
					"internalType": "uint256",
					"name": "_goodid",
					"type": "uint256"
				},
				{
					"indexed": false,
					"internalType": "uint256",
					"name": "_construct",
					"type": "uint256"
				},
				{
					"indexed": false,
					"internalType": "address",
					"name": "_erc20address",
					"type": "address"
				},
				{
					"indexed": false,
					"internalType": "uint256",
					"name": "_goodConfig",
					"type": "uint256"
				},
				{
					"indexed": false,
					"internalType": "T_BalanceUINT256",
					"name": "_initial",
					"type": "uint256"
				}
			],
			"name": "e_initMetaGood",
			"type": "event"
		},
		{
			"anonymous": false,
			"inputs": [
				{
					"indexed": true,
					"internalType": "uint256",
					"name": "_proofNo",
					"type": "uint256"
				},
				{
					"indexed": false,
					"internalType": "uint256",
					"name": "_normalgoodid",
					"type": "uint256"
				},
				{
					"indexed": false,
					"internalType": "uint256",
					"name": "_valueGoodNo",
					"type": "uint256"
				},
				{
					"indexed": false,
					"internalType": "T_BalanceUINT256",
					"name": "_value",
					"type": "uint256"
				},
				{
					"indexed": false,
					"internalType": "T_BalanceUINT256",
					"name": "_invest",
					"type": "uint256"
				},
				{
					"indexed": false,
					"internalType": "T_BalanceUINT256",
					"name": "_valueinvest",
					"type": "uint256"
				}
			],
			"name": "e_investGood",
			"type": "event"
		},
		{
			"anonymous": false,
			"inputs": [
				{
					"indexed": false,
					"internalType": "uint256",
					"name": "_goodid",
					"type": "uint256"
				},
				{
					"indexed": false,
					"internalType": "uint256",
					"name": "_goodconfig",
					"type": "uint256"
				}
			],
			"name": "e_modifyGoodConfig",
			"type": "event"
		},
		{
			"anonymous": false,
			"inputs": [
				{
					"indexed": false,
					"internalType": "address",
					"name": "_user",
					"type": "address"
				}
			],
			"name": "e_removebanlist",
			"type": "event"
		},
		{
			"anonymous": false,
			"inputs": [
				{
					"indexed": false,
					"internalType": "uint256",
					"name": "_marketconfig",
					"type": "uint256"
				}
			],
			"name": "e_setMarketConfig",
			"type": "event"
		},
		{
			"anonymous": false,
			"inputs": [
				{
					"indexed": false,
					"internalType": "uint256",
					"name": "_goodid",
					"type": "uint256"
				},
				{
					"indexed": false,
					"internalType": "uint256",
					"name": "_goodConfig",
					"type": "uint256"
				}
			],
			"name": "e_updateGoodConfig",
			"type": "event"
		},
		{
			"inputs": [],
			"name": "DOMAIN_SEPARATOR",
			"outputs": [
				{
					"internalType": "bytes32",
					"name": "",
					"type": "bytes32"
				}
			],
			"stateMutability": "view",
			"type": "function"
		},
		{
			"inputs": [
				{
					"internalType": "address",
					"name": "_user",
					"type": "address"
				}
			],
			"name": "addbanlist",
			"outputs": [
				{
					"internalType": "bool",
					"name": "",
					"type": "bool"
				}
			],
			"stateMutability": "nonpayable",
			"type": "function"
		},
		{
			"inputs": [
				{
					"internalType": "address",
					"name": "to",
					"type": "address"
				},
				{
					"internalType": "uint256",
					"name": "tokenId",
					"type": "uint256"
				}
			],
			"name": "approve",
			"outputs": [],
			"stateMutability": "nonpayable",
			"type": "function"
		},
		{
			"inputs": [
				{
					"internalType": "address",
					"name": "owner",
					"type": "address"
				}
			],
			"name": "balanceOf",
			"outputs": [
				{
					"internalType": "uint256",
					"name": "",
					"type": "uint256"
				}
			],
			"stateMutability": "view",
			"type": "function"
		},
		{
			"inputs": [
				{
					"internalType": "address",
					"name": "",
					"type": "address"
				}
			],
			"name": "banlist",
			"outputs": [
				{
					"internalType": "uint256",
					"name": "",
					"type": "uint256"
				}
			],
			"stateMutability": "view",
			"type": "function"
		},
		{
			"inputs": [
				{
					"internalType": "uint256",
					"name": "_goodid1",
					"type": "uint256"
				},
				{
					"internalType": "uint256",
					"name": "_goodid2",
					"type": "uint256"
				},
				{
					"internalType": "uint128",
					"name": "_swapQuantity",
					"type": "uint128"
				},
				{
					"internalType": "T_BalanceUINT256",
					"name": "_limitPrice",
					"type": "uint256"
				},
				{
					"internalType": "bool",
					"name": "_istotal",
					"type": "bool"
				},
				{
					"internalType": "address",
					"name": "_referal",
					"type": "address"
				}
			],
			"name": "buyGood",
			"outputs": [
				{
					"internalType": "uint128",
					"name": "goodid2Quantity_",
					"type": "uint128"
				},
				{
					"internalType": "uint128",
					"name": "goodid2FeeQuantity_",
					"type": "uint128"
				}
			],
			"stateMutability": "payable",
			"type": "function"
		},
		{
			"inputs": [
				{
					"internalType": "uint256",
					"name": "_goodid1",
					"type": "uint256"
				},
				{
					"internalType": "uint256",
					"name": "_goodid2",
					"type": "uint256"
				},
				{
					"internalType": "uint128",
					"name": "_swapQuantity",
					"type": "uint128"
				},
				{
					"internalType": "T_BalanceUINT256",
					"name": "_limitPrice",
					"type": "uint256"
				},
				{
					"internalType": "address",
					"name": "_recipient",
					"type": "address"
				}
			],
			"name": "buyGoodForPay",
			"outputs": [
				{
					"internalType": "uint128",
					"name": "goodid1Quantity_",
					"type": "uint128"
				},
				{
					"internalType": "uint128",
					"name": "goodid1FeeQuantity_",
					"type": "uint128"
				}
			],
			"stateMutability": "payable",
			"type": "function"
		},
		{
			"inputs": [
				{
					"internalType": "uint256",
					"name": "_goodid",
					"type": "uint256"
				},
				{
					"internalType": "address",
					"name": "_to",
					"type": "address"
				}
			],
			"name": "changeGoodOwner",
			"outputs": [],
			"stateMutability": "nonpayable",
			"type": "function"
		},
		{
			"inputs": [
				{
					"internalType": "uint256[]",
					"name": "_goodid",
					"type": "uint256[]"
				}
			],
			"name": "collectCommission",
			"outputs": [],
			"stateMutability": "nonpayable",
			"type": "function"
		},
		{
			"inputs": [
				{
					"internalType": "uint256",
					"name": "_proofid",
					"type": "uint256"
				},
				{
					"internalType": "address",
					"name": "_gater",
					"type": "address"
				}
			],
			"name": "collectProof",
			"outputs": [
				{
					"internalType": "T_BalanceUINT256",
					"name": "profit_",
					"type": "uint256"
				}
			],
			"stateMutability": "nonpayable",
			"type": "function"
		},
		{
			"inputs": [
				{
					"internalType": "uint256",
					"name": "_proofid",
					"type": "uint256"
				},
				{
					"internalType": "uint128",
					"name": "_goodQuantity",
					"type": "uint128"
				},
				{
					"internalType": "address",
					"name": "_gater",
					"type": "address"
				}
			],
			"name": "disinvestProof",
			"outputs": [
				{
					"internalType": "bool",
					"name": "",
					"type": "bool"
				}
			],
			"stateMutability": "nonpayable",
			"type": "function"
		},
		{
			"inputs": [],
			"name": "eip712Domain",
			"outputs": [
				{
					"internalType": "bytes1",
					"name": "fields",
					"type": "bytes1"
				},
				{
					"internalType": "string",
					"name": "name",
					"type": "string"
				},
				{
					"internalType": "string",
					"name": "version",
					"type": "string"
				},
				{
					"internalType": "uint256",
					"name": "chainId",
					"type": "uint256"
				},
				{
					"internalType": "address",
					"name": "verifyingContract",
					"type": "address"
				},
				{
					"internalType": "bytes32",
					"name": "salt",
					"type": "bytes32"
				},
				{
					"internalType": "uint256[]",
					"name": "extensions",
					"type": "uint256[]"
				}
			],
			"stateMutability": "view",
			"type": "function"
		},
		{
			"inputs": [
				{
					"internalType": "uint256",
					"name": "tokenId",
					"type": "uint256"
				}
			],
			"name": "getApproved",
			"outputs": [
				{
					"internalType": "address",
					"name": "",
					"type": "address"
				}
			],
			"stateMutability": "view",
			"type": "function"
		},
		{
			"inputs": [
				{
					"internalType": "uint256",
					"name": "goodkey",
					"type": "uint256"
				}
			],
			"name": "getGoodState",
			"outputs": [
				{
					"components": [
						{
							"internalType": "uint256",
							"name": "goodConfig",
							"type": "uint256"
						},
						{
							"internalType": "address",
							"name": "owner",
							"type": "address"
						},
						{
							"internalType": "address",
							"name": "erc20address",
							"type": "address"
						},
						{
							"internalType": "T_BalanceUINT256",
							"name": "currentState",
							"type": "uint256"
						},
						{
							"internalType": "T_BalanceUINT256",
							"name": "investState",
							"type": "uint256"
						},
						{
							"internalType": "T_BalanceUINT256",
							"name": "feeQuantityState",
							"type": "uint256"
						}
					],
					"internalType": "struct L_Good.S_GoodTmpState",
					"name": "",
					"type": "tuple"
				}
			],
			"stateMutability": "view",
			"type": "function"
		},
		{
			"inputs": [
				{
					"internalType": "uint256",
					"name": "proofid",
					"type": "uint256"
				}
			],
			"name": "getProofState",
			"outputs": [
				{
					"components": [
						{
							"internalType": "uint256",
							"name": "currentgood",
							"type": "uint256"
						},
						{
							"internalType": "uint256",
							"name": "valuegood",
							"type": "uint256"
						},
						{
							"internalType": "T_BalanceUINT256",
							"name": "state",
							"type": "uint256"
						},
						{
							"internalType": "T_BalanceUINT256",
							"name": "invest",
							"type": "uint256"
						},
						{
							"internalType": "T_BalanceUINT256",
							"name": "valueinvest",
							"type": "uint256"
						}
					],
					"internalType": "struct L_Proof.S_ProofState",
					"name": "",
					"type": "tuple"
				}
			],
			"stateMutability": "view",
			"type": "function"
		},
		{
			"inputs": [
				{
					"internalType": "uint256",
					"name": "goodid",
					"type": "uint256"
				},
				{
					"internalType": "uint128",
					"name": "welfare",
					"type": "uint128"
				}
			],
			"name": "goodWelfare",
			"outputs": [],
			"stateMutability": "payable",
			"type": "function"
		},
		{
			"inputs": [
				{
					"internalType": "uint256",
					"name": "_valuegood",
					"type": "uint256"
				},
				{
					"internalType": "T_BalanceUINT256",
					"name": "_initial",
					"type": "uint256"
				},
				{
					"internalType": "address",
					"name": "_erc20address",
					"type": "address"
				},
				{
					"internalType": "uint256",
					"name": "_goodConfig",
					"type": "uint256"
				}
			],
			"name": "initGood",
			"outputs": [
				{
					"internalType": "bool",
					"name": "",
					"type": "bool"
				}
			],
			"stateMutability": "payable",
			"type": "function"
		},
		{
			"inputs": [
				{
					"internalType": "address",
					"name": "_erc20address",
					"type": "address"
				},
				{
					"internalType": "T_BalanceUINT256",
					"name": "_initial",
					"type": "uint256"
				},
				{
					"internalType": "uint256",
					"name": "_goodConfig",
					"type": "uint256"
				}
			],
			"name": "initMetaGood",
			"outputs": [
				{
					"internalType": "bool",
					"name": "",
					"type": "bool"
				}
			],
			"stateMutability": "payable",
			"type": "function"
		},
		{
			"inputs": [
				{
					"internalType": "uint256",
					"name": "_togood",
					"type": "uint256"
				},
				{
					"internalType": "uint256",
					"name": "_valuegood",
					"type": "uint256"
				},
				{
					"internalType": "uint128",
					"name": "_quantity",
					"type": "uint128"
				}
			],
			"name": "investGood",
			"outputs": [
				{
					"internalType": "bool",
					"name": "",
					"type": "bool"
				}
			],
			"stateMutability": "payable",
			"type": "function"
		},
		{
			"inputs": [
				{
					"internalType": "address",
					"name": "owner",
					"type": "address"
				},
				{
					"internalType": "address",
					"name": "operator",
					"type": "address"
				}
			],
			"name": "isApprovedForAll",
			"outputs": [
				{
					"internalType": "bool",
					"name": "",
					"type": "bool"
				}
			],
			"stateMutability": "view",
			"type": "function"
		},
		{
			"inputs": [
				{
					"internalType": "uint256",
					"name": "goodid",
					"type": "uint256"
				},
				{
					"internalType": "uint256",
					"name": "valuegood",
					"type": "uint256"
				},
				{
					"internalType": "uint256",
					"name": "compareprice",
					"type": "uint256"
				}
			],
			"name": "ishigher",
			"outputs": [
				{
					"internalType": "bool",
					"name": "",
					"type": "bool"
				}
			],
			"stateMutability": "view",
			"type": "function"
		},
		{
			"inputs": [],
			"name": "marketconfig",
			"outputs": [
				{
					"internalType": "uint256",
					"name": "",
					"type": "uint256"
				}
			],
			"stateMutability": "view",
			"type": "function"
		},
		{
			"inputs": [
				{
					"internalType": "uint256",
					"name": "_goodid",
					"type": "uint256"
				},
				{
					"internalType": "uint256",
					"name": "_goodConfig",
					"type": "uint256"
				}
			],
			"name": "modifyGoodConfig",
			"outputs": [
				{
					"internalType": "bool",
					"name": "",
					"type": "bool"
				}
			],
			"stateMutability": "nonpayable",
			"type": "function"
		},
		{
			"inputs": [],
			"name": "name",
			"outputs": [
				{
					"internalType": "string",
					"name": "",
					"type": "string"
				}
			],
			"stateMutability": "view",
			"type": "function"
		},
		{
			"inputs": [
				{
					"internalType": "uint256",
					"name": "tokenId",
					"type": "uint256"
				}
			],
			"name": "nonces",
			"outputs": [
				{
					"internalType": "uint256",
					"name": "",
					"type": "uint256"
				}
			],
			"stateMutability": "view",
			"type": "function"
		},
		{
			"inputs": [
				{
					"internalType": "uint256",
					"name": "tokenId",
					"type": "uint256"
				}
			],
			"name": "ownerOf",
			"outputs": [
				{
					"internalType": "address",
					"name": "",
					"type": "address"
				}
			],
			"stateMutability": "view",
			"type": "function"
		},
		{
			"inputs": [
				{
					"internalType": "uint256",
					"name": "_goodid",
					"type": "uint256"
				},
				{
					"internalType": "uint256",
					"name": "_payquanity",
					"type": "uint256"
				},
				{
					"internalType": "address",
					"name": "_recipent",
					"type": "address"
				}
			],
			"name": "payGood",
			"outputs": [
				{
					"internalType": "bool",
					"name": "",
					"type": "bool"
				}
			],
			"stateMutability": "payable",
			"type": "function"
		},
		{
			"inputs": [
				{
					"internalType": "address",
					"name": "spender",
					"type": "address"
				},
				{
					"internalType": "uint256",
					"name": "tokenId",
					"type": "uint256"
				},
				{
					"internalType": "uint256",
					"name": "deadline",
					"type": "uint256"
				},
				{
					"internalType": "bytes",
					"name": "signature",
					"type": "bytes"
				}
			],
			"name": "permit",
			"outputs": [],
			"stateMutability": "nonpayable",
			"type": "function"
		},
		{
			"inputs": [
				{
					"internalType": "uint256",
					"name": "",
					"type": "uint256"
				}
			],
			"name": "proofmapping",
			"outputs": [
				{
					"internalType": "uint256",
					"name": "",
					"type": "uint256"
				}
			],
			"stateMutability": "view",
			"type": "function"
		},
		{
			"inputs": [
				{
					"internalType": "uint256[]",
					"name": "_goodid",
					"type": "uint256[]"
				},
				{
					"internalType": "address",
					"name": "_recipent",
					"type": "address"
				}
			],
			"name": "queryCommission",
			"outputs": [
				{
					"internalType": "uint256[]",
					"name": "",
					"type": "uint256[]"
				}
			],
			"stateMutability": "view",
			"type": "function"
		},
		{
			"inputs": [
				{
					"internalType": "address",
					"name": "_user",
					"type": "address"
				}
			],
			"name": "removebanlist",
			"outputs": [
				{
					"internalType": "bool",
					"name": "",
					"type": "bool"
				}
			],
			"stateMutability": "nonpayable",
			"type": "function"
		},
		{
			"inputs": [
				{
					"internalType": "address",
					"name": "from",
					"type": "address"
				},
				{
					"internalType": "address",
					"name": "to",
					"type": "address"
				},
				{
					"internalType": "uint256",
					"name": "tokenId",
					"type": "uint256"
				}
			],
			"name": "safeTransferFrom",
			"outputs": [],
			"stateMutability": "nonpayable",
			"type": "function"
		},
		{
			"inputs": [
				{
					"internalType": "address",
					"name": "from",
					"type": "address"
				},
				{
					"internalType": "address",
					"name": "to",
					"type": "address"
				},
				{
					"internalType": "uint256",
					"name": "tokenId",
					"type": "uint256"
				},
				{
					"internalType": "bytes",
					"name": "data",
					"type": "bytes"
				}
			],
			"name": "safeTransferFrom",
			"outputs": [],
			"stateMutability": "nonpayable",
			"type": "function"
		},
		{
			"inputs": [
				{
					"internalType": "address",
					"name": "from",
					"type": "address"
				},
				{
					"internalType": "address",
					"name": "to",
					"type": "address"
				},
				{
					"internalType": "uint256",
					"name": "tokenId",
					"type": "uint256"
				},
				{
					"internalType": "bytes",
					"name": "_data",
					"type": "bytes"
				},
				{
					"internalType": "uint256",
					"name": "deadline",
					"type": "uint256"
				},
				{
					"internalType": "bytes",
					"name": "signature",
					"type": "bytes"
				}
			],
			"name": "safeTransferFromWithPermit",
			"outputs": [],
			"stateMutability": "nonpayable",
			"type": "function"
		},
		{
			"inputs": [
				{
					"internalType": "address",
					"name": "operator",
					"type": "address"
				},
				{
					"internalType": "bool",
					"name": "approved",
					"type": "bool"
				}
			],
			"name": "setApprovalForAll",
			"outputs": [],
			"stateMutability": "nonpayable",
			"type": "function"
		},
		{
			"inputs": [
				{
					"internalType": "uint256",
					"name": "_marketconfig",
					"type": "uint256"
				}
			],
			"name": "setMarketConfig",
			"outputs": [
				{
					"internalType": "bool",
					"name": "",
					"type": "bool"
				}
			],
			"stateMutability": "nonpayable",
			"type": "function"
		},
		{
			"inputs": [
				{
					"internalType": "bytes4",
					"name": "interfaceId",
					"type": "bytes4"
				}
			],
			"name": "supportsInterface",
			"outputs": [
				{
					"internalType": "bool",
					"name": "",
					"type": "bool"
				}
			],
			"stateMutability": "view",
			"type": "function"
		},
		{
			"inputs": [],
			"name": "symbol",
			"outputs": [
				{
					"internalType": "string",
					"name": "",
					"type": "string"
				}
			],
			"stateMutability": "view",
			"type": "function"
		},
		{
			"inputs": [
				{
					"internalType": "uint256",
					"name": "tokenId",
					"type": "uint256"
				}
			],
			"name": "tokenURI",
			"outputs": [
				{
					"internalType": "string",
					"name": "",
					"type": "string"
				}
			],
			"stateMutability": "view",
			"type": "function"
		},
		{
			"inputs": [],
			"name": "totalSupply",
			"outputs": [
				{
					"internalType": "uint256",
					"name": "",
					"type": "uint256"
				}
			],
			"stateMutability": "view",
			"type": "function"
		},
		{
			"inputs": [
				{
					"internalType": "address",
					"name": "from",
					"type": "address"
				},
				{
					"internalType": "address",
					"name": "to",
					"type": "address"
				},
				{
					"internalType": "uint256",
					"name": "tokenId",
					"type": "uint256"
				}
			],
			"name": "transferFrom",
			"outputs": [],
			"stateMutability": "nonpayable",
			"type": "function"
		},
		{
			"inputs": [
				{
					"internalType": "uint256",
					"name": "_goodid",
					"type": "uint256"
				},
				{
					"internalType": "uint256",
					"name": "_goodConfig",
					"type": "uint256"
				}
			],
			"name": "updateGoodConfig",
			"outputs": [
				{
					"internalType": "bool",
					"name": "",
					"type": "bool"
				}
			],
			"stateMutability": "nonpayable",
			"type": "function"
		}
	]
}