{
	"data": {
		"bytecode": {
			"linkReferences": {},
			"object": "610180604052601380546001600160801b031916652d79883d2000179055348015610028575f80fd5b5060405161357538038061357583398101604081905261004791610273565b6040518060400160405280600c81526020016b2a2a29bbb0b8102a37b5b2b760a11b81525080604051806040016040528060018152602001603160f81b8152506040518060400160405280600c81526020016b2a2a29bbb0b8102a37b5b2b760a11b8152506040518060400160405280600381526020016254545360e81b81525081600390816100d79190610344565b5060046100e48282610344565b506100f4915083905060056101e0565b610120526101038160066101e0565b61014052815160208084019190912060e052815190820120610100524660a05261018f60e05161010051604080517f8b73c3c69bb8fe3d512ecc4cf759cc79239f7b179b0ffacaa9a75d522b39400f60208201529081019290925260608201524660808201523060a08201525f9060c00160405160208183030381529060405280519060200120905090565b60809081523060c0526001600160a01b0387166101605242901b92506101b3915050565b600b55601180546001600160a01b0319166001600160a01b03939093169290921790915560095550610456565b5f6020835110156101fb576101f483610212565b905061020c565b816102068482610344565b5060ff90505b92915050565b5f80829050601f81511115610245578260405163305a27a960e01b815260040161023c91906103fe565b60405180910390fd5b805161025082610433565b179392505050565b80516001600160a01b038116811461026e575f80fd5b919050565b5f805f60608486031215610285575f80fd5b61028e84610258565b925061029c60208501610258565b9150604084015190509250925092565b634e487b7160e01b5f52604160045260245ffd5b600181811c908216806102d457607f821691505b6020821081036102f257634e487b7160e01b5f52602260045260245ffd5b50919050565b601f82111561033f57805f5260205f20601f840160051c8101602085101561031d5750805b601f840160051c820191505b8181101561033c575f8155600101610329565b50505b505050565b81516001600160401b0381111561035d5761035d6102ac565b6103718161036b84546102c0565b846102f8565b6020601f8211600181146103a3575f831561038c5750848201515b5f19600385901b1c1916600184901b17845561033c565b5f84815260208120601f198516915b828110156103d257878501518255602094850194600190920191016103b2565b50848210156103ef57868401515f19600387901b60f8161c191681555b50505050600190811b01905550565b602081525f82518060208401528060208501604085015e5f604082850101526040601f19601f83011684010191505092915050565b805160208083015191908110156102f2575f1960209190910360031b1b16919050565b60805160a05160c05160e051610100516101205161014051610160516130b66104bf5f395f8181610340015281816109560152611a6b01525f61157901525f61154e01525f61258301525f61255b01525f6124b601525f6124e001525f61250a01526130b65ff3fe608060405234801561000f575f80fd5b506004361061026b575f3560e01c80637bd3ca351161014b578063c3bb7fff116100bf578063dd62ed3e11610084578063dd62ed3e1461067b578063de5712d41461068e578063e7b43e7d146106a8578063eca93cce146106bb578063f6f9b80d146106ce578063fb9dba65146106e1575f80fd5b8063c3bb7fff14610626578063c67e607814610639578063cae976401461064c578063cd993b1114610655578063d505accf14610668575f80fd5b806395d89b411161011057806395d89b41146105675780639dc29fac1461056f578063a457c2d714610582578063a9059cbb14610595578063a985901a146105a8578063b88e6d63146105d3575f80fd5b80637bd3ca35146104f55780637ecebe0014610508578063845fcee41461051b57806384b0196e1461052457806394c3c3331461053f575f80fd5b80633644e515116101e2578063542128dd116101a7578063542128dd146103f0578063623059a51461040357806369a5ac321461040c5780636c0deba11461041f5780636f55aece1461043257806370a08231146104cd575f80fd5b80633644e5151461039c57806339509351146103a45780633b107e21146103b75780633cba316b146103ca57806345fda707146103dd575f80fd5b806318160ddd1161023357806318160ddd146102eb57806319f8d5b4146102fd57806323b872dd146103285780632f48ab7d1461033b57806330fd6b291461037a578063313ce5671461038d575f80fd5b806301bddf1b1461026f57806306fdde0314610284578063095ea7b3146102a25780630a4273e6146102c55780630fffe72f146102d8575b5f80fd5b61028261027d3660046129ef565b6106f4565b005b61028c6107ba565b6040516102999190612a52565b60405180910390f35b6102b56102b0366004612a78565b61084a565b6040519015158152602001610299565b6102826102d3366004612aa2565b610863565b6102826102e6366004612ace565b6108aa565b6002545b604051908152602001610299565b61031061030b366004612ae5565b610abf565b6040516001600160801b039091168152602001610299565b6102b5610336366004612b01565b610bee565b6103627f000000000000000000000000000000000000000000000000000000000000000081565b6040516001600160a01b039091168152602001610299565b6103106103883660046129ef565b610c11565b60405160068152602001610299565b6102ef610f8f565b6102b56103b2366004612a78565b610f9d565b6102826103c5366004612b3f565b610fbe565b6102826103d8366004612b58565b6111b6565b601354610310906001600160801b031681565b6102826103fe366004612a78565b611223565b6102ef60095481565b61028261041a366004612b58565b611292565b61028261042d366004612b73565b6112ca565b61048a610440366004612b8e565b600a6020525f9081526040902080546001909101546001600160a01b03909116906001600160801b03811690600160801b81046001600160781b031690600160f81b900460ff1684565b604080516001600160a01b0390951685526001600160801b0390931660208501526001600160781b039091169183019190915260ff166060820152608001610299565b6102ef6104db366004612b58565b6001600160a01b03165f9081526020819052604090205490565b610282610503366004612ae5565b61130f565b6102ef610516366004612b58565b611524565b6102ef600c5481565b61052c611541565b6040516102999796959493929190612ba7565b6102ef61054d366004612b58565b6001600160a01b03165f9081526015602052604090205490565b61028c6115c8565b61028261057d366004612a78565b6115d7565b6102b5610590366004612a78565b6115e1565b6102b56105a3366004612a78565b611660565b6103626105b6366004612b58565b6001600160a01b039081165f908152601460205260409020541690565b6106066105e1366004612b58565b6011546001600160a01b039182165f9081526014602052604090205490821692911690565b604080516001600160a01b03938416815292909116602083015201610299565b6102826106343660046129ef565b61166d565b610282610647366004612b8e565b611746565b6102ef600b5481565b610282610663366004612aa2565b611845565b610282610676366004612c4b565b611888565b6102ef610689366004612cb7565b6119e9565b60135461031090600160801b90046001600160801b031681565b6102826106b6366004612cd3565b611a13565b6102826106c9366004612cb7565b611ada565b6102826106dc366004612cf6565b611b77565b6102826106ef366004612b8e565b611c05565b6106ff600954611e2a565b610707575f80fd5b335f90815260156020526040902054620186a514801561076e575063ffffffff82165f908152600e60205260409020600201546001600160a01b031633148061076e575063ffffffff82165f908152600e60205260409020600201546001600160a01b0316155b610776575f80fd5b63ffffffff82165f908152600e602052604090205461079e90608083901b611e48565b611e48565b63ffffffff9092165f908152600e602052604090209190915550565b6060600380546107c990612d2c565b80601f01602080910402602001604051908101604052809291908181526020018280546107f590612d2c565b80156108405780601f1061081757610100808354040283529160200191610840565b820191905f5260205f20905b81548152906001019060200180831161082357829003601f168201915b5050505050905090565b5f33610857818585611e80565b60019150505b92915050565b61086e600954611e2a565b15610877575f80fd5b335f90815260156020526040902054620186a514610893575f80fd5b6108a681836001600160801b0316611fa3565b5050565b6108b5600954611e2a565b6108bd575f80fd5b80601360108282829054906101000a90046001600160801b03166108e19190612d72565b92506101000a8154816001600160801b0302191690836001600160801b0316021790555064746a528800601360109054906101000a90046001600160801b03166001600160801b03161115610934575f80fd5b6040516323b872dd60e01b8152336004820152306024820152604481018290527f00000000000000000000000000000000000000000000000000000000000000006001600160a01b0316906323b872dd906064016020604051808303815f875af11580156109a4573d5f803e3d5ffd5b505050506040513d601f19601f820116820180604052508101906109c89190612d91565b15610abc576013545f906428bed01600600160801b9091046001600160801b031611610a15576109f9600583612dc4565b610a0490603c612dd7565b9050610a1033826120d3565b610a80565b601354644bab827200600160801b9091046001600160801b031611610a3f57610a0482600a612dd7565b60135464746a528800600160801b9091046001600160801b031611610a8057610a69600583612dc4565b610a74906028612dd7565b9050610a8033826120d3565b60408051838152602081018390527fcf0848d99e9b2ad96811072e657199bc9567c2cc9b614097727a852b27f5358d91015b60405180910390a1505b50565b335f90815260156020526040812054600114610ad9575f80fd5b610ae1612190565b604080516001600160a01b038516602080830191909152338284015282518083038401815260609092019092528051910120600c546001600160801b031615610b5f57610b5a610b30600c5490565b6001600160801b0316846001600160801b0316610b4c600b5490565b6001600160801b0316612259565b610b61565b5f5b600c54909250610b80906001600160801b038416608085901b1761226a565b600c55600b54610b99906001600160801b03851661226a565b600b555f818152600d6020526040902080546001600160a01b0319163317815560010154610bd690608085901b6001600160801b0385161761226a565b5f918252600d60205260409091206001015592915050565b5f33610bfb858285612290565b610c06858585612308565b506001949350505050565b5f610c1d600954611e2a565b610c25575f80fd5b335f90815260156020526040902054620186a5148015610c8c575063ffffffff83165f908152600e60205260409020600201546001600160a01b0316331480610c8c575063ffffffff83165f908152600e60205260409020600201546001600160a01b0316155b610c94575f80fd5b5f8363ffffffff165f03610d82576001601260188282829054906101000a900463ffffffff16610cc49190612dee565b92506101000a81548163ffffffff021916908363ffffffff160217905550601260189054906101000a900463ffffffff169350610d06610b30600c5460801c90565b600c54909150610d25906001600160801b038316608084901b1761226a565b600c55600b54610d3e906001600160801b03851661226a565b600b5563ffffffff84165f908152600e602052604090206001600160801b038216608085901b17600182015560020180546001600160a01b03191633179055610f27565b610dcb610d91600c5460801c90565b63ffffffff86165f908152600e60205260409020600101546001600160801b03919091169060801c6001600160801b0316610b4c600c5490565b600c5463ffffffff86165f908152600e6020526040902060010154919350610e07916107999085905b6001600160801b031660809190911b1790565b600c55600b5463ffffffff85165f908152600e6020526040812060010154610e3692916107999160801c610df4565b600b5563ffffffff84165f908152600e602052604090206001015460801c610e5e9083612e0a565b9150610e6f610b30600c5460801c90565b600c54909150610e8e906001600160801b038316608084901b1761226a565b600c55600b54610ea7906001600160801b03851661226a565b600b556001600160801b038116608084901b1763ffffffff85165f908152600e60205260409020600181019190915554610ef0906001600160801b038416608085901b1761226a565b63ffffffff85165f908152600e6020526040902090815560020154610f27906001600160a01b03166001600160801b0384166120d3565b63ffffffff84165f818152600e60209081526040918290206001015482519384526001600160801b0386169184019190915282820152517f2dbd6c60950a71a3b42582ce495af627a70477170cea6ce5bbd4017f3e9308929181900360600190a15092915050565b5f610f986124aa565b905090565b5f33610857818585610faf83836119e9565b610fb99190612e29565b611e80565b610fc9600954611e2a565b610fd1575f80fd5b5f610fe26040830160208401612b73565b601354610ff891906001600160801b0316612e0a565b6001600160801b03161015801561102257506011546001600160a01b0316336001600160a01b0316145b61102a575f80fd5b61103a6040820160208301612b73565b6013805467ffffffffffffffff92909216915f906110629084906001600160801b0316612e0a565b82546001600160801b039182166101009390930a92830291909202199091161790555060125463ffffffff600160a01b909104165f908152600a6020526040902081906110af8282612e50565b505060128054600191906014906110d4908490600160a01b900463ffffffff16612dee565b92506101000a81548163ffffffff021916908363ffffffff1602179055507f259b626a3ac57abbad46c244a9bc2a13c0b530c618e9654be9351bd104cffcae815f0160208101906111259190612b58565b6111356040840160208501612b73565b6111456060850160408601612ef3565b6111556080860160608701612f0e565b601254604080516001600160a01b0390961686526001600160801b0390941660208601526001600160781b039092169284019290925260ff9091166060830152600160a01b900463ffffffff16608082015260a0015b60405180910390a150565b6011546001600160a01b0316336001600160a01b0316146111d5575f80fd5b601180546001600160a01b0319166001600160a01b0383169081179091556040519081527f853baecd5c22fcf8a4d994474a066771c51cfe6022b046e92a09874610cd1281906020016111ab565b6011546001600160a01b0316336001600160a01b031614611242575f80fd5b6001600160a01b0382165f81815260156020908152604091829020849055815192835282018390527f967d50df84a5ebb45902fa277d5c3b0bc6403497c9fd6da2ecbd9ed420038f149101610ab2565b6011546001600160a01b0316336001600160a01b0316146112b1575f80fd5b6001600160a01b03165f90815260156020526040812055565b6112d5600954611e2a565b156112de575f80fd5b335f908152601560205260409020546005146112f8575f80fd5b600c5461130990608083901b61226a565b600c5550565b335f90815260156020526040902054600114611329575f80fd5b611331612190565b604080516001600160a01b0384166020808301919091523382840152825180830384018152606090920183528151918101919091205f818152600d909252918120600101549091829160801c6001600160801b038516106113c0575f818152600d6020526040812060018101805482546001600160a01b03191690925591909155608081901c9450915061141a565b5f818152600d60205260409020600101546113db90856125d3565b5f828152600d6020526040902060010154909250611408906001600160801b038416608087901b17611e48565b5f828152600d60205260409020600101555b61143b8461143561142d600c5460801c90565b600b54610df4565b906125f5565b600b54909350611454906001600160801b038616611e48565b600b55600c54611473906001600160801b038416608086901b17611e48565b600c556114808284612e0a565b92506001600160801b038316156114a4576114a485846001600160801b03166120d3565b7fcd22d1cb8932396ecce835a81db9f8f268ec6f820ba46a7d202f275064de27c485856001600160801b038616608086901b175f858152600d60209081526040918290206001015482516001600160a01b0390961686526001600160801b0390941690850152830152606082015260800160405180910390a15050505050565b6001600160a01b0381165f9081526007602052604081205461085d565b5f606080828080836115747f0000000000000000000000000000000000000000000000000000000000000000600561261d565b61159f7f0000000000000000000000000000000000000000000000000000000000000000600661261d565b604080515f80825260208201909252600f60f81b9b939a50919850469750309650945092509050565b6060600480546107c990612d2c565b6108a68282611fa3565b5f33816115ee82866119e9565b9050838110156116535760405162461bcd60e51b815260206004820152602560248201527f45524332303a2064656372656173656420616c6c6f77616e63652062656c6f77604482015264207a65726f60d81b60648201526084015b60405180910390fd5b610c068286868403611e80565b5f33610857818585612308565b611678600954611e2a565b611680575f80fd5b335f90815260156020526040902054620186a51480156116e7575063ffffffff82165f908152600e60205260409020600201546001600160a01b03163314806116e7575063ffffffff82165f908152600e60205260409020600201546001600160a01b0316155b6116ef575f80fd5b63ffffffff82165f908152600e602052604090205461171290608083901b61226a565b63ffffffff83165f908152600e602090815260408083208490553383529082905290205460809190911c11156108a6575f80fd5b611751600954611e2a565b611759575f80fd5b6011546001600160a01b0316336001600160a01b031614611778575f80fd5b63ffffffff81165f908152600a60205260408120600101546013805467ffffffffffffffff9092169290916117b79084906001600160801b0316612d72565b92506101000a8154816001600160801b0302191690836001600160801b031602179055507f568d364b674966bdb889933148a94e885581320f54b5d65d04bda235eea7fe4881604051611816919063ffffffff91909116815260200190565b60405180910390a163ffffffff165f908152600a6020526040812080546001600160a01b031916815560010155565b611850600954611e2a565b15611859575f80fd5b335f90815260156020526040902054620186a514611875575f80fd5b6108a681836001600160801b03166120d3565b834211156118d85760405162461bcd60e51b815260206004820152601d60248201527f45524332305065726d69743a206578706972656420646561646c696e65000000604482015260640161164a565b5f7f6e71edae12b1b97f4d1f60370fef10105fa2faae0126114a169c64845d6126c98888886119068c6126c6565b6040805160208101969096526001600160a01b0394851690860152929091166060840152608083015260a082015260c0810186905260e0016040516020818303038152906040528051906020012090505f611960826126ed565b90505f61196f82878787612719565b9050896001600160a01b0316816001600160a01b0316146119d25760405162461bcd60e51b815260206004820152601e60248201527f45524332305065726d69743a20696e76616c6964207369676e61747572650000604482015260640161164a565b6119dd8a8a8a611e80565b50505050505050505050565b6001600160a01b039182165f90815260016020908152604080832093909416825291909152205490565b611a1e600954611e2a565b611a26575f80fd5b6011546001600160a01b0316336001600160a01b031614611a45575f80fd5b60405163a9059cbb60e01b81526001600160a01b038281166004830152602482018490527f0000000000000000000000000000000000000000000000000000000000000000169063a9059cbb906044016020604051808303815f875af1158015611ab1573d5f803e3d5ffd5b505050506040513d601f19601f82011682018060405250810190611ad59190612d91565b505050565b335f908152601560205260409020546001148015611b0f57506001600160a01b038281165f9081526014602052604090205416155b156108a6576001600160a01b038281165f8181526014602090815260409182902080546001600160a01b031916948616948517905581519283528201929092527f0b5e322b4b5330962013e8d6519462c133d50320ee476828060995c1acadef629101610ab2565b6011546001600160a01b0316336001600160a01b031614611b96575f80fd5b600f8390556010829055601280546001600160a01b0319166001600160a01b0383169081179091556040805185815260208101859052908101919091527f2c13ec80363c5c6acca850e78e87c50c5f15ae0398a319963393eeb01c11045d9060600160405180910390a1505050565b611c10600954611e2a565b611c18575f80fd5b601254600f5460105463ffffffff84165f908152600a60205260409020600101546001600160a01b039093169263a7fed925929190611c6890600160801b90046001600160781b0316600261300c565b611c7690600160801b612dd7565b611c8190600a612e29565b6040516001600160e01b031960e086901b168152600481019390935260248301919091526044820152606401602060405180830381865afa158015611cc8573d5f803e3d5ffd5b505050506040513d601f19601f82011682018060405250810190611cec9190612d91565b8015611d14575063ffffffff81165f908152600a60205260409020546001600160a01b031633145b611d1c575f80fd5b63ffffffff81165f908152600a6020526040812060010154611d519060ff600160f81b820416906001600160801b0316613020565b63ffffffff83165f908152600a6020526040812060010180549293508392909190611d869084906001600160801b0316612e0a565b92506101000a8154816001600160801b0302191690836001600160801b031602179055506001600a5f8463ffffffff1663ffffffff1681526020019081526020015f2060010160108282829054906101000a90046001600160781b0316611ded919061304d565b92506101000a8154816001600160781b0302191690836001600160781b031602179055506108a6611e1b3390565b826001600160801b03166120d3565b5f60ff82901c60018114611e3e575f611e41565b60015b9392505050565b5f608082811d9084901d036001600160801b0383811690851603611e77611e6e8361273f565b610df48361273f565b95945050505050565b6001600160a01b038316611ee25760405162461bcd60e51b8152602060048201526024808201527f45524332303a20617070726f76652066726f6d20746865207a65726f206164646044820152637265737360e01b606482015260840161164a565b6001600160a01b038216611f435760405162461bcd60e51b815260206004820152602260248201527f45524332303a20617070726f766520746f20746865207a65726f206164647265604482015261737360f01b606482015260840161164a565b6001600160a01b038381165f8181526001602090815260408083209487168084529482529182902085905590518481527f8c5be1e5ebec7d5bd14f71427d1e84f3dd0314c0f7b2291e5b200ac8c7c3b925910160405180910390a3505050565b6001600160a01b0382166120035760405162461bcd60e51b815260206004820152602160248201527f45524332303a206275726e2066726f6d20746865207a65726f206164647265736044820152607360f81b606482015260840161164a565b6001600160a01b0382165f90815260208190526040902054818110156120765760405162461bcd60e51b815260206004820152602260248201527f45524332303a206275726e20616d6f756e7420657863656564732062616c616e604482015261636560f01b606482015260840161164a565b6001600160a01b0383165f818152602081815260408083208686039055600280548790039055518581529192917fddf252ad1be2c89b69c2b068fc378daa952ba7f163c4a11628f55a4df523b3ef910160405180910390a3505050565b6001600160a01b0382166121295760405162461bcd60e51b815260206004820152601f60248201527f45524332303a206d696e7420746f20746865207a65726f206164647265737300604482015260640161164a565b8060025f82825461213a9190612e29565b90915550506001600160a01b0382165f81815260208181526040808320805486019055518481527fddf252ad1be2c89b69c2b068fc378daa952ba7f163c4a11628f55a4df523b3ef910160405180910390a35050565b4261219d600b5460801c90565b6121aa9062015180612d72565b6001600160801b0316101561225757600b546121cb906102a360871b61226a565b600b555f652d79883d20006121df60025490565b116121ee5763a34ce6cb612204565b61477c6121fa60025490565b6122049190612dc4565b600c5490915061221890608083901b61226a565b600c819055600b546040517f8288d0d3063eba413cf9eea42df98c32074b7b6d554adf408bdb0546e468c404926111ab92908252602082015260400190565b565b918102915f818404611e778161273f565b5f608082811d9084901d016001600160801b0383811690851601611e77611e6e8361273f565b5f61229b84846119e9565b90505f19811461230257818110156122f55760405162461bcd60e51b815260206004820152601d60248201527f45524332303a20696e73756666696369656e7420616c6c6f77616e6365000000604482015260640161164a565b6123028484848403611e80565b50505050565b6001600160a01b03831661236c5760405162461bcd60e51b815260206004820152602560248201527f45524332303a207472616e736665722066726f6d20746865207a65726f206164604482015264647265737360d81b606482015260840161164a565b6001600160a01b0382166123ce5760405162461bcd60e51b815260206004820152602360248201527f45524332303a207472616e7366657220746f20746865207a65726f206164647260448201526265737360e81b606482015260840161164a565b6001600160a01b0383165f90815260208190526040902054818110156124455760405162461bcd60e51b815260206004820152602660248201527f45524332303a207472616e7366657220616d6f756e7420657863656564732062604482015265616c616e636560d01b606482015260840161164a565b6001600160a01b038481165f81815260208181526040808320878703905593871680835291849020805487019055925185815290927fddf252ad1be2c89b69c2b068fc378daa952ba7f163c4a11628f55a4df523b3ef910160405180910390a3612302565b5f306001600160a01b037f00000000000000000000000000000000000000000000000000000000000000001614801561250257507f000000000000000000000000000000000000000000000000000000000000000046145b1561252c57507f000000000000000000000000000000000000000000000000000000000000000090565b610f98604080517f8b73c3c69bb8fe3d512ecc4cf759cc79239f7b179b0ffacaa9a75d522b39400f60208201527f0000000000000000000000000000000000000000000000000000000000000000918101919091527f000000000000000000000000000000000000000000000000000000000000000060608201524660808201523060a08201525f9060c00160405160208183030381529060405280519060200120905090565b5f611e41836001600160801b0316836001600160801b0316610b4c8660801c90565b5f611e416126038460801c90565b6001600160801b0316836001600160801b0316610b4c8690565b606060ff83146126375761263083612759565b905061085d565b81805461264390612d2c565b80601f016020809104026020016040519081016040528092919081815260200182805461266f90612d2c565b80156126ba5780601f10612691576101008083540402835291602001916126ba565b820191905f5260205f20905b81548152906001019060200180831161269d57829003601f168201915b5050505050905061085d565b6001600160a01b0381165f9081526007602052604090208054600181018255905b50919050565b5f61085d6126f96124aa565b8360405161190160f01b8152600281019290925260228201526042902090565b5f805f61272887878787612796565b9150915061273581612853565b5095945050505050565b5f6001600160801b03821115612755575f61085d565b5090565b60605f6127658361299c565b6040805160208082528183019092529192505f91906020820181803683375050509182525060208101929092525090565b5f807f7fffffffffffffffffffffffffffffff5d576e7357a4501ddfe92f46681b20a08311156127cb57505f9050600361284a565b604080515f8082526020820180845289905260ff881692820192909252606081018690526080810185905260019060a0016020604051602081039080840390855afa15801561281c573d5f803e3d5ffd5b5050604051601f1901519150506001600160a01b038116612844575f6001925092505061284a565b91505f90505b94509492505050565b5f8160048111156128665761286661306c565b0361286e5750565b60018160048111156128825761288261306c565b036128cf5760405162461bcd60e51b815260206004820152601860248201527f45434453413a20696e76616c6964207369676e61747572650000000000000000604482015260640161164a565b60028160048111156128e3576128e361306c565b036129305760405162461bcd60e51b815260206004820152601f60248201527f45434453413a20696e76616c6964207369676e6174757265206c656e67746800604482015260640161164a565b60038160048111156129445761294461306c565b03610abc5760405162461bcd60e51b815260206004820152602260248201527f45434453413a20696e76616c6964207369676e6174757265202773272076616c604482015261756560f01b606482015260840161164a565b5f60ff8216601f81111561085d57604051632cd44ac360e21b815260040160405180910390fd5b803563ffffffff811681146129d6575f80fd5b919050565b6001600160801b0381168114610abc575f80fd5b5f8060408385031215612a00575f80fd5b612a09836129c3565b91506020830135612a19816129db565b809150509250929050565b5f81518084528060208401602086015e5f602082860101526020601f19601f83011685010191505092915050565b602081525f611e416020830184612a24565b6001600160a01b0381168114610abc575f80fd5b5f8060408385031215612a89575f80fd5b8235612a9481612a64565b946020939093013593505050565b5f8060408385031215612ab3575f80fd5b8235612abe816129db565b91506020830135612a1981612a64565b5f60208284031215612ade575f80fd5b5035919050565b5f8060408385031215612af6575f80fd5b8235612a0981612a64565b5f805f60608486031215612b13575f80fd5b8335612b1e81612a64565b92506020840135612b2e81612a64565b929592945050506040919091013590565b5f6080828403128015612b50575f80fd5b509092915050565b5f60208284031215612b68575f80fd5b8135611e4181612a64565b5f60208284031215612b83575f80fd5b8135611e41816129db565b5f60208284031215612b9e575f80fd5b611e41826129c3565b60ff60f81b8816815260e060208201525f612bc560e0830189612a24565b8281036040840152612bd78189612a24565b606084018890526001600160a01b038716608085015260a0840186905283810360c0850152845180825260208087019350909101905f5b81811015612c2c578351835260209384019390920191600101612c0e565b50909b9a5050505050505050505050565b60ff81168114610abc575f80fd5b5f805f805f805f60e0888a031215612c61575f80fd5b8735612c6c81612a64565b96506020880135612c7c81612a64565b955060408801359450606088013593506080880135612c9a81612c3d565b9699959850939692959460a0840135945060c09093013592915050565b5f8060408385031215612cc8575f80fd5b8235612abe81612a64565b5f8060408385031215612ce4575f80fd5b823591506020830135612a1981612a64565b5f805f60608486031215612d08575f80fd5b83359250602084013591506040840135612d2181612a64565b809150509250925092565b600181811c90821680612d4057607f821691505b6020821081036126e757634e487b7160e01b5f52602260045260245ffd5b634e487b7160e01b5f52601160045260245ffd5b6001600160801b03818116838216019081111561085d5761085d612d5e565b5f60208284031215612da1575f80fd5b81518015158114611e41575f80fd5b634e487b7160e01b5f52601260045260245ffd5b5f82612dd257612dd2612db0565b500490565b808202811582820484141761085d5761085d612d5e565b63ffffffff818116838216019081111561085d5761085d612d5e565b6001600160801b03828116828216039081111561085d5761085d612d5e565b8082018082111561085d5761085d612d5e565b6001600160781b0381168114610abc575f80fd5b8135612e5b81612a64565b81546001600160a01b0319166001600160a01b0391909116178155600181016020830135612e88816129db565b81546040850135612e9881612e3c565b6001600160781b0360801b8160801b166001600160801b03841660ff60f81b8416171784555050505f6060840135612ecf81612c3d565b82546001600160f81b031660f89190911b6001600160f81b03191617909155505050565b5f60208284031215612f03575f80fd5b8135611e4181612e3c565b5f60208284031215612f1e575f80fd5b8135611e4181612c3d565b6001815b6001841115612f6457808504811115612f4857612f48612d5e565b6001841615612f5657908102905b60019390931c928002612f2d565b935093915050565b5f82612f7a5750600161085d565b81612f8657505f61085d565b8160018114612f9c5760028114612fa657612fc2565b600191505061085d565b60ff841115612fb757612fb7612d5e565b50506001821b61085d565b5060208310610133831016604e8410600b8410161715612fe5575081810a61085d565b612ff15f198484612f29565b805f190482111561300457613004612d5e565b029392505050565b5f611e416001600160781b03841683612f6c565b5f6001600160801b0383168061303857613038612db0565b806001600160801b0384160491505092915050565b6001600160781b03818116838216019081111561085d5761085d612d5e565b634e487b7160e01b5f52602160045260245ffdfea26469706673582212204cebfe96379b713b346f8c98f08c94f13b69ea3a9c76a187206d211b295ad27664736f6c634300081a0033",
			"opcodes": "PUSH2 0x180 PUSH1 0x40 MSTORE PUSH1 0x13 DUP1 SLOAD PUSH1 0x1 PUSH1 0x1 PUSH1 0x80 SHL SUB NOT AND PUSH6 0x2D79883D2000 OR SWAP1 SSTORE CALLVALUE DUP1 ISZERO PUSH2 0x28 JUMPI PUSH0 DUP1 REVERT JUMPDEST POP PUSH1 0x40 MLOAD PUSH2 0x3575 CODESIZE SUB DUP1 PUSH2 0x3575 DUP4 CODECOPY DUP2 ADD PUSH1 0x40 DUP2 SWAP1 MSTORE PUSH2 0x47 SWAP2 PUSH2 0x273 JUMP JUMPDEST PUSH1 0x40 MLOAD DUP1 PUSH1 0x40 ADD PUSH1 0x40 MSTORE DUP1 PUSH1 0xC DUP2 MSTORE PUSH1 0x20 ADD PUSH12 0x2A2A29BBB0B8102A37B5B2B7 PUSH1 0xA1 SHL DUP2 MSTORE POP DUP1 PUSH1 0x40 MLOAD DUP1 PUSH1 0x40 ADD PUSH1 0x40 MSTORE DUP1 PUSH1 0x1 DUP2 MSTORE PUSH1 0x20 ADD PUSH1 0x31 PUSH1 0xF8 SHL DUP2 MSTORE POP PUSH1 0x40 MLOAD DUP1 PUSH1 0x40 ADD PUSH1 0x40 MSTORE DUP1 PUSH1 0xC DUP2 MSTORE PUSH1 0x20 ADD PUSH12 0x2A2A29BBB0B8102A37B5B2B7 PUSH1 0xA1 SHL DUP2 MSTORE POP PUSH1 0x40 MLOAD DUP1 PUSH1 0x40 ADD PUSH1 0x40 MSTORE DUP1 PUSH1 0x3 DUP2 MSTORE PUSH1 0x20 ADD PUSH3 0x545453 PUSH1 0xE8 SHL DUP2 MSTORE POP DUP2 PUSH1 0x3 SWAP1 DUP2 PUSH2 0xD7 SWAP2 SWAP1 PUSH2 0x344 JUMP JUMPDEST POP PUSH1 0x4 PUSH2 0xE4 DUP3 DUP3 PUSH2 0x344 JUMP JUMPDEST POP PUSH2 0xF4 SWAP2 POP DUP4 SWAP1 POP PUSH1 0x5 PUSH2 0x1E0 JUMP JUMPDEST PUSH2 0x120 MSTORE PUSH2 0x103 DUP2 PUSH1 0x6 PUSH2 0x1E0 JUMP JUMPDEST PUSH2 0x140 MSTORE DUP2 MLOAD PUSH1 0x20 DUP1 DUP5 ADD SWAP2 SWAP1 SWAP2 KECCAK256 PUSH1 0xE0 MSTORE DUP2 MLOAD SWAP1 DUP3 ADD KECCAK256 PUSH2 0x100 MSTORE CHAINID PUSH1 0xA0 MSTORE PUSH2 0x18F PUSH1 0xE0 MLOAD PUSH2 0x100 MLOAD PUSH1 0x40 DUP1 MLOAD PUSH32 0x8B73C3C69BB8FE3D512ECC4CF759CC79239F7B179B0FFACAA9A75D522B39400F PUSH1 0x20 DUP3 ADD MSTORE SWAP1 DUP2 ADD SWAP3 SWAP1 SWAP3 MSTORE PUSH1 0x60 DUP3 ADD MSTORE CHAINID PUSH1 0x80 DUP3 ADD MSTORE ADDRESS PUSH1 0xA0 DUP3 ADD MSTORE PUSH0 SWAP1 PUSH1 0xC0 ADD PUSH1 0x40 MLOAD PUSH1 0x20 DUP2 DUP4 SUB SUB DUP2 MSTORE SWAP1 PUSH1 0x40 MSTORE DUP1 MLOAD SWAP1 PUSH1 0x20 ADD KECCAK256 SWAP1 POP SWAP1 JUMP JUMPDEST PUSH1 0x80 SWAP1 DUP2 MSTORE ADDRESS PUSH1 0xC0 MSTORE PUSH1 0x1 PUSH1 0x1 PUSH1 0xA0 SHL SUB DUP8 AND PUSH2 0x160 MSTORE TIMESTAMP SWAP1 SHL SWAP3 POP PUSH2 0x1B3 SWAP2 POP POP JUMP JUMPDEST PUSH1 0xB SSTORE PUSH1 0x11 DUP1 SLOAD PUSH1 0x1 PUSH1 0x1 PUSH1 0xA0 SHL SUB NOT AND PUSH1 0x1 PUSH1 0x1 PUSH1 0xA0 SHL SUB SWAP4 SWAP1 SWAP4 AND SWAP3 SWAP1 SWAP3 OR SWAP1 SWAP2 SSTORE PUSH1 0x9 SSTORE POP PUSH2 0x456 JUMP JUMPDEST PUSH0 PUSH1 0x20 DUP4 MLOAD LT ISZERO PUSH2 0x1FB JUMPI PUSH2 0x1F4 DUP4 PUSH2 0x212 JUMP JUMPDEST SWAP1 POP PUSH2 0x20C JUMP JUMPDEST DUP2 PUSH2 0x206 DUP5 DUP3 PUSH2 0x344 JUMP JUMPDEST POP PUSH1 0xFF SWAP1 POP JUMPDEST SWAP3 SWAP2 POP POP JUMP JUMPDEST PUSH0 DUP1 DUP3 SWAP1 POP PUSH1 0x1F DUP2 MLOAD GT ISZERO PUSH2 0x245 JUMPI DUP3 PUSH1 0x40 MLOAD PUSH4 0x305A27A9 PUSH1 0xE0 SHL DUP2 MSTORE PUSH1 0x4 ADD PUSH2 0x23C SWAP2 SWAP1 PUSH2 0x3FE JUMP JUMPDEST PUSH1 0x40 MLOAD DUP1 SWAP2 SUB SWAP1 REVERT JUMPDEST DUP1 MLOAD PUSH2 0x250 DUP3 PUSH2 0x433 JUMP JUMPDEST OR SWAP4 SWAP3 POP POP POP JUMP JUMPDEST DUP1 MLOAD PUSH1 0x1 PUSH1 0x1 PUSH1 0xA0 SHL SUB DUP2 AND DUP2 EQ PUSH2 0x26E JUMPI PUSH0 DUP1 REVERT JUMPDEST SWAP2 SWAP1 POP JUMP JUMPDEST PUSH0 DUP1 PUSH0 PUSH1 0x60 DUP5 DUP7 SUB SLT ISZERO PUSH2 0x285 JUMPI PUSH0 DUP1 REVERT JUMPDEST PUSH2 0x28E DUP5 PUSH2 0x258 JUMP JUMPDEST SWAP3 POP PUSH2 0x29C PUSH1 0x20 DUP6 ADD PUSH2 0x258 JUMP JUMPDEST SWAP2 POP PUSH1 0x40 DUP5 ADD MLOAD SWAP1 POP SWAP3 POP SWAP3 POP SWAP3 JUMP JUMPDEST PUSH4 0x4E487B71 PUSH1 0xE0 SHL PUSH0 MSTORE PUSH1 0x41 PUSH1 0x4 MSTORE PUSH1 0x24 PUSH0 REVERT JUMPDEST PUSH1 0x1 DUP2 DUP2 SHR SWAP1 DUP3 AND DUP1 PUSH2 0x2D4 JUMPI PUSH1 0x7F DUP3 AND SWAP2 POP JUMPDEST PUSH1 0x20 DUP3 LT DUP2 SUB PUSH2 0x2F2 JUMPI PUSH4 0x4E487B71 PUSH1 0xE0 SHL PUSH0 MSTORE PUSH1 0x22 PUSH1 0x4 MSTORE PUSH1 0x24 PUSH0 REVERT JUMPDEST POP SWAP2 SWAP1 POP JUMP JUMPDEST PUSH1 0x1F DUP3 GT ISZERO PUSH2 0x33F JUMPI DUP1 PUSH0 MSTORE PUSH1 0x20 PUSH0 KECCAK256 PUSH1 0x1F DUP5 ADD PUSH1 0x5 SHR DUP2 ADD PUSH1 0x20 DUP6 LT ISZERO PUSH2 0x31D JUMPI POP DUP1 JUMPDEST PUSH1 0x1F DUP5 ADD PUSH1 0x5 SHR DUP3 ADD SWAP2 POP JUMPDEST DUP2 DUP2 LT ISZERO PUSH2 0x33C JUMPI PUSH0 DUP2 SSTORE PUSH1 0x1 ADD PUSH2 0x329 JUMP JUMPDEST POP POP JUMPDEST POP POP POP JUMP JUMPDEST DUP2 MLOAD PUSH1 0x1 PUSH1 0x1 PUSH1 0x40 SHL SUB DUP2 GT ISZERO PUSH2 0x35D JUMPI PUSH2 0x35D PUSH2 0x2AC JUMP JUMPDEST PUSH2 0x371 DUP2 PUSH2 0x36B DUP5 SLOAD PUSH2 0x2C0 JUMP JUMPDEST DUP5 PUSH2 0x2F8 JUMP JUMPDEST PUSH1 0x20 PUSH1 0x1F DUP3 GT PUSH1 0x1 DUP2 EQ PUSH2 0x3A3 JUMPI PUSH0 DUP4 ISZERO PUSH2 0x38C JUMPI POP DUP5 DUP3 ADD MLOAD JUMPDEST PUSH0 NOT PUSH1 0x3 DUP6 SWAP1 SHL SHR NOT AND PUSH1 0x1 DUP5 SWAP1 SHL OR DUP5 SSTORE PUSH2 0x33C JUMP JUMPDEST PUSH0 DUP5 DUP2 MSTORE PUSH1 0x20 DUP2 KECCAK256 PUSH1 0x1F NOT DUP6 AND SWAP2 JUMPDEST DUP3 DUP2 LT ISZERO PUSH2 0x3D2 JUMPI DUP8 DUP6 ADD MLOAD DUP3 SSTORE PUSH1 0x20 SWAP5 DUP6 ADD SWAP5 PUSH1 0x1 SWAP1 SWAP3 ADD SWAP2 ADD PUSH2 0x3B2 JUMP JUMPDEST POP DUP5 DUP3 LT ISZERO PUSH2 0x3EF JUMPI DUP7 DUP5 ADD MLOAD PUSH0 NOT PUSH1 0x3 DUP8 SWAP1 SHL PUSH1 0xF8 AND SHR NOT AND DUP2 SSTORE JUMPDEST POP POP POP POP PUSH1 0x1 SWAP1 DUP2 SHL ADD SWAP1 SSTORE POP JUMP JUMPDEST PUSH1 0x20 DUP2 MSTORE PUSH0 DUP3 MLOAD DUP1 PUSH1 0x20 DUP5 ADD MSTORE DUP1 PUSH1 0x20 DUP6 ADD PUSH1 0x40 DUP6 ADD MCOPY PUSH0 PUSH1 0x40 DUP3 DUP6 ADD ADD MSTORE PUSH1 0x40 PUSH1 0x1F NOT PUSH1 0x1F DUP4 ADD AND DUP5 ADD ADD SWAP2 POP POP SWAP3 SWAP2 POP POP JUMP JUMPDEST DUP1 MLOAD PUSH1 0x20 DUP1 DUP4 ADD MLOAD SWAP2 SWAP1 DUP2 LT ISZERO PUSH2 0x2F2 JUMPI PUSH0 NOT PUSH1 0x20 SWAP2 SWAP1 SWAP2 SUB PUSH1 0x3 SHL SHL AND SWAP2 SWAP1 POP JUMP JUMPDEST PUSH1 0x80 MLOAD PUSH1 0xA0 MLOAD PUSH1 0xC0 MLOAD PUSH1 0xE0 MLOAD PUSH2 0x100 MLOAD PUSH2 0x120 MLOAD PUSH2 0x140 MLOAD PUSH2 0x160 MLOAD PUSH2 0x30B6 PUSH2 0x4BF PUSH0 CODECOPY PUSH0 DUP2 DUP2 PUSH2 0x340 ADD MSTORE DUP2 DUP2 PUSH2 0x956 ADD MSTORE PUSH2 0x1A6B ADD MSTORE PUSH0 PUSH2 0x1579 ADD MSTORE PUSH0 PUSH2 0x154E ADD MSTORE PUSH0 PUSH2 0x2583 ADD MSTORE PUSH0 PUSH2 0x255B ADD MSTORE PUSH0 PUSH2 0x24B6 ADD MSTORE PUSH0 PUSH2 0x24E0 ADD MSTORE PUSH0 PUSH2 0x250A ADD MSTORE PUSH2 0x30B6 PUSH0 RETURN INVALID PUSH1 0x80 PUSH1 0x40 MSTORE CALLVALUE DUP1 ISZERO PUSH2 0xF JUMPI PUSH0 DUP1 REVERT JUMPDEST POP PUSH1 0x4 CALLDATASIZE LT PUSH2 0x26B JUMPI PUSH0 CALLDATALOAD PUSH1 0xE0 SHR DUP1 PUSH4 0x7BD3CA35 GT PUSH2 0x14B JUMPI DUP1 PUSH4 0xC3BB7FFF GT PUSH2 0xBF JUMPI DUP1 PUSH4 0xDD62ED3E GT PUSH2 0x84 JUMPI DUP1 PUSH4 0xDD62ED3E EQ PUSH2 0x67B JUMPI DUP1 PUSH4 0xDE5712D4 EQ PUSH2 0x68E JUMPI DUP1 PUSH4 0xE7B43E7D EQ PUSH2 0x6A8 JUMPI DUP1 PUSH4 0xECA93CCE EQ PUSH2 0x6BB JUMPI DUP1 PUSH4 0xF6F9B80D EQ PUSH2 0x6CE JUMPI DUP1 PUSH4 0xFB9DBA65 EQ PUSH2 0x6E1 JUMPI PUSH0 DUP1 REVERT JUMPDEST DUP1 PUSH4 0xC3BB7FFF EQ PUSH2 0x626 JUMPI DUP1 PUSH4 0xC67E6078 EQ PUSH2 0x639 JUMPI DUP1 PUSH4 0xCAE97640 EQ PUSH2 0x64C JUMPI DUP1 PUSH4 0xCD993B11 EQ PUSH2 0x655 JUMPI DUP1 PUSH4 0xD505ACCF EQ PUSH2 0x668 JUMPI PUSH0 DUP1 REVERT JUMPDEST DUP1 PUSH4 0x95D89B41 GT PUSH2 0x110 JUMPI DUP1 PUSH4 0x95D89B41 EQ PUSH2 0x567 JUMPI DUP1 PUSH4 0x9DC29FAC EQ PUSH2 0x56F JUMPI DUP1 PUSH4 0xA457C2D7 EQ PUSH2 0x582 JUMPI DUP1 PUSH4 0xA9059CBB EQ PUSH2 0x595 JUMPI DUP1 PUSH4 0xA985901A EQ PUSH2 0x5A8 JUMPI DUP1 PUSH4 0xB88E6D63 EQ PUSH2 0x5D3 JUMPI PUSH0 DUP1 REVERT JUMPDEST DUP1 PUSH4 0x7BD3CA35 EQ PUSH2 0x4F5 JUMPI DUP1 PUSH4 0x7ECEBE00 EQ PUSH2 0x508 JUMPI DUP1 PUSH4 0x845FCEE4 EQ PUSH2 0x51B JUMPI DUP1 PUSH4 0x84B0196E EQ PUSH2 0x524 JUMPI DUP1 PUSH4 0x94C3C333 EQ PUSH2 0x53F JUMPI PUSH0 DUP1 REVERT JUMPDEST DUP1 PUSH4 0x3644E515 GT PUSH2 0x1E2 JUMPI DUP1 PUSH4 0x542128DD GT PUSH2 0x1A7 JUMPI DUP1 PUSH4 0x542128DD EQ PUSH2 0x3F0 JUMPI DUP1 PUSH4 0x623059A5 EQ PUSH2 0x403 JUMPI DUP1 PUSH4 0x69A5AC32 EQ PUSH2 0x40C JUMPI DUP1 PUSH4 0x6C0DEBA1 EQ PUSH2 0x41F JUMPI DUP1 PUSH4 0x6F55AECE EQ PUSH2 0x432 JUMPI DUP1 PUSH4 0x70A08231 EQ PUSH2 0x4CD JUMPI PUSH0 DUP1 REVERT JUMPDEST DUP1 PUSH4 0x3644E515 EQ PUSH2 0x39C JUMPI DUP1 PUSH4 0x39509351 EQ PUSH2 0x3A4 JUMPI DUP1 PUSH4 0x3B107E21 EQ PUSH2 0x3B7 JUMPI DUP1 PUSH4 0x3CBA316B EQ PUSH2 0x3CA JUMPI DUP1 PUSH4 0x45FDA707 EQ PUSH2 0x3DD JUMPI PUSH0 DUP1 REVERT JUMPDEST DUP1 PUSH4 0x18160DDD GT PUSH2 0x233 JUMPI DUP1 PUSH4 0x18160DDD EQ PUSH2 0x2EB JUMPI DUP1 PUSH4 0x19F8D5B4 EQ PUSH2 0x2FD JUMPI DUP1 PUSH4 0x23B872DD EQ PUSH2 0x328 JUMPI DUP1 PUSH4 0x2F48AB7D EQ PUSH2 0x33B JUMPI DUP1 PUSH4 0x30FD6B29 EQ PUSH2 0x37A JUMPI DUP1 PUSH4 0x313CE567 EQ PUSH2 0x38D JUMPI PUSH0 DUP1 REVERT JUMPDEST DUP1 PUSH4 0x1BDDF1B EQ PUSH2 0x26F JUMPI DUP1 PUSH4 0x6FDDE03 EQ PUSH2 0x284 JUMPI DUP1 PUSH4 0x95EA7B3 EQ PUSH2 0x2A2 JUMPI DUP1 PUSH4 0xA4273E6 EQ PUSH2 0x2C5 JUMPI DUP1 PUSH4 0xFFFE72F EQ PUSH2 0x2D8 JUMPI JUMPDEST PUSH0 DUP1 REVERT JUMPDEST PUSH2 0x282 PUSH2 0x27D CALLDATASIZE PUSH1 0x4 PUSH2 0x29EF JUMP JUMPDEST PUSH2 0x6F4 JUMP JUMPDEST STOP JUMPDEST PUSH2 0x28C PUSH2 0x7BA JUMP JUMPDEST PUSH1 0x40 MLOAD PUSH2 0x299 SWAP2 SWAP1 PUSH2 0x2A52 JUMP JUMPDEST PUSH1 0x40 MLOAD DUP1 SWAP2 SUB SWAP1 RETURN JUMPDEST PUSH2 0x2B5 PUSH2 0x2B0 CALLDATASIZE PUSH1 0x4 PUSH2 0x2A78 JUMP JUMPDEST PUSH2 0x84A JUMP JUMPDEST PUSH1 0x40 MLOAD SWAP1 ISZERO ISZERO DUP2 MSTORE PUSH1 0x20 ADD PUSH2 0x299 JUMP JUMPDEST PUSH2 0x282 PUSH2 0x2D3 CALLDATASIZE PUSH1 0x4 PUSH2 0x2AA2 JUMP JUMPDEST PUSH2 0x863 JUMP JUMPDEST PUSH2 0x282 PUSH2 0x2E6 CALLDATASIZE PUSH1 0x4 PUSH2 0x2ACE JUMP JUMPDEST PUSH2 0x8AA JUMP JUMPDEST PUSH1 0x2 SLOAD JUMPDEST PUSH1 0x40 MLOAD SWAP1 DUP2 MSTORE PUSH1 0x20 ADD PUSH2 0x299 JUMP JUMPDEST PUSH2 0x310 PUSH2 0x30B CALLDATASIZE PUSH1 0x4 PUSH2 0x2AE5 JUMP JUMPDEST PUSH2 0xABF JUMP JUMPDEST PUSH1 0x40 MLOAD PUSH1 0x1 PUSH1 0x1 PUSH1 0x80 SHL SUB SWAP1 SWAP2 AND DUP2 MSTORE PUSH1 0x20 ADD PUSH2 0x299 JUMP JUMPDEST PUSH2 0x2B5 PUSH2 0x336 CALLDATASIZE PUSH1 0x4 PUSH2 0x2B01 JUMP JUMPDEST PUSH2 0xBEE JUMP JUMPDEST PUSH2 0x362 PUSH32 0x0 DUP2 JUMP JUMPDEST PUSH1 0x40 MLOAD PUSH1 0x1 PUSH1 0x1 PUSH1 0xA0 SHL SUB SWAP1 SWAP2 AND DUP2 MSTORE PUSH1 0x20 ADD PUSH2 0x299 JUMP JUMPDEST PUSH2 0x310 PUSH2 0x388 CALLDATASIZE PUSH1 0x4 PUSH2 0x29EF JUMP JUMPDEST PUSH2 0xC11 JUMP JUMPDEST PUSH1 0x40 MLOAD PUSH1 0x6 DUP2 MSTORE PUSH1 0x20 ADD PUSH2 0x299 JUMP JUMPDEST PUSH2 0x2EF PUSH2 0xF8F JUMP JUMPDEST PUSH2 0x2B5 PUSH2 0x3B2 CALLDATASIZE PUSH1 0x4 PUSH2 0x2A78 JUMP JUMPDEST PUSH2 0xF9D JUMP JUMPDEST PUSH2 0x282 PUSH2 0x3C5 CALLDATASIZE PUSH1 0x4 PUSH2 0x2B3F JUMP JUMPDEST PUSH2 0xFBE JUMP JUMPDEST PUSH2 0x282 PUSH2 0x3D8 CALLDATASIZE PUSH1 0x4 PUSH2 0x2B58 JUMP JUMPDEST PUSH2 0x11B6 JUMP JUMPDEST PUSH1 0x13 SLOAD PUSH2 0x310 SWAP1 PUSH1 0x1 PUSH1 0x1 PUSH1 0x80 SHL SUB AND DUP2 JUMP JUMPDEST PUSH2 0x282 PUSH2 0x3FE CALLDATASIZE PUSH1 0x4 PUSH2 0x2A78 JUMP JUMPDEST PUSH2 0x1223 JUMP JUMPDEST PUSH2 0x2EF PUSH1 0x9 SLOAD DUP2 JUMP JUMPDEST PUSH2 0x282 PUSH2 0x41A CALLDATASIZE PUSH1 0x4 PUSH2 0x2B58 JUMP JUMPDEST PUSH2 0x1292 JUMP JUMPDEST PUSH2 0x282 PUSH2 0x42D CALLDATASIZE PUSH1 0x4 PUSH2 0x2B73 JUMP JUMPDEST PUSH2 0x12CA JUMP JUMPDEST PUSH2 0x48A PUSH2 0x440 CALLDATASIZE PUSH1 0x4 PUSH2 0x2B8E JUMP JUMPDEST PUSH1 0xA PUSH1 0x20 MSTORE PUSH0 SWAP1 DUP2 MSTORE PUSH1 0x40 SWAP1 KECCAK256 DUP1 SLOAD PUSH1 0x1 SWAP1 SWAP2 ADD SLOAD PUSH1 0x1 PUSH1 0x1 PUSH1 0xA0 SHL SUB SWAP1 SWAP2 AND SWAP1 PUSH1 0x1 PUSH1 0x1 PUSH1 0x80 SHL SUB DUP2 AND SWAP1 PUSH1 0x1 PUSH1 0x80 SHL DUP2 DIV PUSH1 0x1 PUSH1 0x1 PUSH1 0x78 SHL SUB AND SWAP1 PUSH1 0x1 PUSH1 0xF8 SHL SWAP1 DIV PUSH1 0xFF AND DUP5 JUMP JUMPDEST PUSH1 0x40 DUP1 MLOAD PUSH1 0x1 PUSH1 0x1 PUSH1 0xA0 SHL SUB SWAP1 SWAP6 AND DUP6 MSTORE PUSH1 0x1 PUSH1 0x1 PUSH1 0x80 SHL SUB SWAP1 SWAP4 AND PUSH1 0x20 DUP6 ADD MSTORE PUSH1 0x1 PUSH1 0x1 PUSH1 0x78 SHL SUB SWAP1 SWAP2 AND SWAP2 DUP4 ADD SWAP2 SWAP1 SWAP2 MSTORE PUSH1 0xFF AND PUSH1 0x60 DUP3 ADD MSTORE PUSH1 0x80 ADD PUSH2 0x299 JUMP JUMPDEST PUSH2 0x2EF PUSH2 0x4DB CALLDATASIZE PUSH1 0x4 PUSH2 0x2B58 JUMP JUMPDEST PUSH1 0x1 PUSH1 0x1 PUSH1 0xA0 SHL SUB AND PUSH0 SWAP1 DUP2 MSTORE PUSH1 0x20 DUP2 SWAP1 MSTORE PUSH1 0x40 SWAP1 KECCAK256 SLOAD SWAP1 JUMP JUMPDEST PUSH2 0x282 PUSH2 0x503 CALLDATASIZE PUSH1 0x4 PUSH2 0x2AE5 JUMP JUMPDEST PUSH2 0x130F JUMP JUMPDEST PUSH2 0x2EF PUSH2 0x516 CALLDATASIZE PUSH1 0x4 PUSH2 0x2B58 JUMP JUMPDEST PUSH2 0x1524 JUMP JUMPDEST PUSH2 0x2EF PUSH1 0xC SLOAD DUP2 JUMP JUMPDEST PUSH2 0x52C PUSH2 0x1541 JUMP JUMPDEST PUSH1 0x40 MLOAD PUSH2 0x299 SWAP8 SWAP7 SWAP6 SWAP5 SWAP4 SWAP3 SWAP2 SWAP1 PUSH2 0x2BA7 JUMP JUMPDEST PUSH2 0x2EF PUSH2 0x54D CALLDATASIZE PUSH1 0x4 PUSH2 0x2B58 JUMP JUMPDEST PUSH1 0x1 PUSH1 0x1 PUSH1 0xA0 SHL SUB AND PUSH0 SWAP1 DUP2 MSTORE PUSH1 0x15 PUSH1 0x20 MSTORE PUSH1 0x40 SWAP1 KECCAK256 SLOAD SWAP1 JUMP JUMPDEST PUSH2 0x28C PUSH2 0x15C8 JUMP JUMPDEST PUSH2 0x282 PUSH2 0x57D CALLDATASIZE PUSH1 0x4 PUSH2 0x2A78 JUMP JUMPDEST PUSH2 0x15D7 JUMP JUMPDEST PUSH2 0x2B5 PUSH2 0x590 CALLDATASIZE PUSH1 0x4 PUSH2 0x2A78 JUMP JUMPDEST PUSH2 0x15E1 JUMP JUMPDEST PUSH2 0x2B5 PUSH2 0x5A3 CALLDATASIZE PUSH1 0x4 PUSH2 0x2A78 JUMP JUMPDEST PUSH2 0x1660 JUMP JUMPDEST PUSH2 0x362 PUSH2 0x5B6 CALLDATASIZE PUSH1 0x4 PUSH2 0x2B58 JUMP JUMPDEST PUSH1 0x1 PUSH1 0x1 PUSH1 0xA0 SHL SUB SWAP1 DUP2 AND PUSH0 SWAP1 DUP2 MSTORE PUSH1 0x14 PUSH1 0x20 MSTORE PUSH1 0x40 SWAP1 KECCAK256 SLOAD AND SWAP1 JUMP JUMPDEST PUSH2 0x606 PUSH2 0x5E1 CALLDATASIZE PUSH1 0x4 PUSH2 0x2B58 JUMP JUMPDEST PUSH1 0x11 SLOAD PUSH1 0x1 PUSH1 0x1 PUSH1 0xA0 SHL SUB SWAP2 DUP3 AND PUSH0 SWAP1 DUP2 MSTORE PUSH1 0x14 PUSH1 0x20 MSTORE PUSH1 0x40 SWAP1 KECCAK256 SLOAD SWAP1 DUP3 AND SWAP3 SWAP2 AND SWAP1 JUMP JUMPDEST PUSH1 0x40 DUP1 MLOAD PUSH1 0x1 PUSH1 0x1 PUSH1 0xA0 SHL SUB SWAP4 DUP5 AND DUP2 MSTORE SWAP3 SWAP1 SWAP2 AND PUSH1 0x20 DUP4 ADD MSTORE ADD PUSH2 0x299 JUMP JUMPDEST PUSH2 0x282 PUSH2 0x634 CALLDATASIZE PUSH1 0x4 PUSH2 0x29EF JUMP JUMPDEST PUSH2 0x166D JUMP JUMPDEST PUSH2 0x282 PUSH2 0x647 CALLDATASIZE PUSH1 0x4 PUSH2 0x2B8E JUMP JUMPDEST PUSH2 0x1746 JUMP JUMPDEST PUSH2 0x2EF PUSH1 0xB SLOAD DUP2 JUMP JUMPDEST PUSH2 0x282 PUSH2 0x663 CALLDATASIZE PUSH1 0x4 PUSH2 0x2AA2 JUMP JUMPDEST PUSH2 0x1845 JUMP JUMPDEST PUSH2 0x282 PUSH2 0x676 CALLDATASIZE PUSH1 0x4 PUSH2 0x2C4B JUMP JUMPDEST PUSH2 0x1888 JUMP JUMPDEST PUSH2 0x2EF PUSH2 0x689 CALLDATASIZE PUSH1 0x4 PUSH2 0x2CB7 JUMP JUMPDEST PUSH2 0x19E9 JUMP JUMPDEST PUSH1 0x13 SLOAD PUSH2 0x310 SWAP1 PUSH1 0x1 PUSH1 0x80 SHL SWAP1 DIV PUSH1 0x1 PUSH1 0x1 PUSH1 0x80 SHL SUB AND DUP2 JUMP JUMPDEST PUSH2 0x282 PUSH2 0x6B6 CALLDATASIZE PUSH1 0x4 PUSH2 0x2CD3 JUMP JUMPDEST PUSH2 0x1A13 JUMP JUMPDEST PUSH2 0x282 PUSH2 0x6C9 CALLDATASIZE PUSH1 0x4 PUSH2 0x2CB7 JUMP JUMPDEST PUSH2 0x1ADA JUMP JUMPDEST PUSH2 0x282 PUSH2 0x6DC CALLDATASIZE PUSH1 0x4 PUSH2 0x2CF6 JUMP JUMPDEST PUSH2 0x1B77 JUMP JUMPDEST PUSH2 0x282 PUSH2 0x6EF CALLDATASIZE PUSH1 0x4 PUSH2 0x2B8E JUMP JUMPDEST PUSH2 0x1C05 JUMP JUMPDEST PUSH2 0x6FF PUSH1 0x9 SLOAD PUSH2 0x1E2A JUMP JUMPDEST PUSH2 0x707 JUMPI PUSH0 DUP1 REVERT JUMPDEST CALLER PUSH0 SWAP1 DUP2 MSTORE PUSH1 0x15 PUSH1 0x20 MSTORE PUSH1 0x40 SWAP1 KECCAK256 SLOAD PUSH3 0x186A5 EQ DUP1 ISZERO PUSH2 0x76E JUMPI POP PUSH4 0xFFFFFFFF DUP3 AND PUSH0 SWAP1 DUP2 MSTORE PUSH1 0xE PUSH1 0x20 MSTORE PUSH1 0x40 SWAP1 KECCAK256 PUSH1 0x2 ADD SLOAD PUSH1 0x1 PUSH1 0x1 PUSH1 0xA0 SHL SUB AND CALLER EQ DUP1 PUSH2 0x76E JUMPI POP PUSH4 0xFFFFFFFF DUP3 AND PUSH0 SWAP1 DUP2 MSTORE PUSH1 0xE PUSH1 0x20 MSTORE PUSH1 0x40 SWAP1 KECCAK256 PUSH1 0x2 ADD SLOAD PUSH1 0x1 PUSH1 0x1 PUSH1 0xA0 SHL SUB AND ISZERO JUMPDEST PUSH2 0x776 JUMPI PUSH0 DUP1 REVERT JUMPDEST PUSH4 0xFFFFFFFF DUP3 AND PUSH0 SWAP1 DUP2 MSTORE PUSH1 0xE PUSH1 0x20 MSTORE PUSH1 0x40 SWAP1 KECCAK256 SLOAD PUSH2 0x79E SWAP1 PUSH1 0x80 DUP4 SWAP1 SHL PUSH2 0x1E48 JUMP JUMPDEST PUSH2 0x1E48 JUMP JUMPDEST PUSH4 0xFFFFFFFF SWAP1 SWAP3 AND PUSH0 SWAP1 DUP2 MSTORE PUSH1 0xE PUSH1 0x20 MSTORE PUSH1 0x40 SWAP1 KECCAK256 SWAP2 SWAP1 SWAP2 SSTORE POP JUMP JUMPDEST PUSH1 0x60 PUSH1 0x3 DUP1 SLOAD PUSH2 0x7C9 SWAP1 PUSH2 0x2D2C JUMP JUMPDEST DUP1 PUSH1 0x1F ADD PUSH1 0x20 DUP1 SWAP2 DIV MUL PUSH1 0x20 ADD PUSH1 0x40 MLOAD SWAP1 DUP2 ADD PUSH1 0x40 MSTORE DUP1 SWAP3 SWAP2 SWAP1 DUP2 DUP2 MSTORE PUSH1 0x20 ADD DUP3 DUP1 SLOAD PUSH2 0x7F5 SWAP1 PUSH2 0x2D2C JUMP JUMPDEST DUP1 ISZERO PUSH2 0x840 JUMPI DUP1 PUSH1 0x1F LT PUSH2 0x817 JUMPI PUSH2 0x100 DUP1 DUP4 SLOAD DIV MUL DUP4 MSTORE SWAP2 PUSH1 0x20 ADD SWAP2 PUSH2 0x840 JUMP JUMPDEST DUP3 ADD SWAP2 SWAP1 PUSH0 MSTORE PUSH1 0x20 PUSH0 KECCAK256 SWAP1 JUMPDEST DUP2 SLOAD DUP2 MSTORE SWAP1 PUSH1 0x1 ADD SWAP1 PUSH1 0x20 ADD DUP1 DUP4 GT PUSH2 0x823 JUMPI DUP3 SWAP1 SUB PUSH1 0x1F AND DUP3 ADD SWAP2 JUMPDEST POP POP POP POP POP SWAP1 POP SWAP1 JUMP JUMPDEST PUSH0 CALLER PUSH2 0x857 DUP2 DUP6 DUP6 PUSH2 0x1E80 JUMP JUMPDEST PUSH1 0x1 SWAP2 POP POP JUMPDEST SWAP3 SWAP2 POP POP JUMP JUMPDEST PUSH2 0x86E PUSH1 0x9 SLOAD PUSH2 0x1E2A JUMP JUMPDEST ISZERO PUSH2 0x877 JUMPI PUSH0 DUP1 REVERT JUMPDEST CALLER PUSH0 SWAP1 DUP2 MSTORE PUSH1 0x15 PUSH1 0x20 MSTORE PUSH1 0x40 SWAP1 KECCAK256 SLOAD PUSH3 0x186A5 EQ PUSH2 0x893 JUMPI PUSH0 DUP1 REVERT JUMPDEST PUSH2 0x8A6 DUP2 DUP4 PUSH1 0x1 PUSH1 0x1 PUSH1 0x80 SHL SUB AND PUSH2 0x1FA3 JUMP JUMPDEST POP POP JUMP JUMPDEST PUSH2 0x8B5 PUSH1 0x9 SLOAD PUSH2 0x1E2A JUMP JUMPDEST PUSH2 0x8BD JUMPI PUSH0 DUP1 REVERT JUMPDEST DUP1 PUSH1 0x13 PUSH1 0x10 DUP3 DUP3 DUP3 SWAP1 SLOAD SWAP1 PUSH2 0x100 EXP SWAP1 DIV PUSH1 0x1 PUSH1 0x1 PUSH1 0x80 SHL SUB AND PUSH2 0x8E1 SWAP2 SWAP1 PUSH2 0x2D72 JUMP JUMPDEST SWAP3 POP PUSH2 0x100 EXP DUP2 SLOAD DUP2 PUSH1 0x1 PUSH1 0x1 PUSH1 0x80 SHL SUB MUL NOT AND SWAP1 DUP4 PUSH1 0x1 PUSH1 0x1 PUSH1 0x80 SHL SUB AND MUL OR SWAP1 SSTORE POP PUSH5 0x746A528800 PUSH1 0x13 PUSH1 0x10 SWAP1 SLOAD SWAP1 PUSH2 0x100 EXP SWAP1 DIV PUSH1 0x1 PUSH1 0x1 PUSH1 0x80 SHL SUB AND PUSH1 0x1 PUSH1 0x1 PUSH1 0x80 SHL SUB AND GT ISZERO PUSH2 0x934 JUMPI PUSH0 DUP1 REVERT JUMPDEST PUSH1 0x40 MLOAD PUSH4 0x23B872DD PUSH1 0xE0 SHL DUP2 MSTORE CALLER PUSH1 0x4 DUP3 ADD MSTORE ADDRESS PUSH1 0x24 DUP3 ADD MSTORE PUSH1 0x44 DUP2 ADD DUP3 SWAP1 MSTORE PUSH32 0x0 PUSH1 0x1 PUSH1 0x1 PUSH1 0xA0 SHL SUB AND SWAP1 PUSH4 0x23B872DD SWAP1 PUSH1 0x64 ADD PUSH1 0x20 PUSH1 0x40 MLOAD DUP1 DUP4 SUB DUP2 PUSH0 DUP8 GAS CALL ISZERO DUP1 ISZERO PUSH2 0x9A4 JUMPI RETURNDATASIZE PUSH0 DUP1 RETURNDATACOPY RETURNDATASIZE PUSH0 REVERT JUMPDEST POP POP POP POP PUSH1 0x40 MLOAD RETURNDATASIZE PUSH1 0x1F NOT PUSH1 0x1F DUP3 ADD AND DUP3 ADD DUP1 PUSH1 0x40 MSTORE POP DUP2 ADD SWAP1 PUSH2 0x9C8 SWAP2 SWAP1 PUSH2 0x2D91 JUMP JUMPDEST ISZERO PUSH2 0xABC JUMPI PUSH1 0x13 SLOAD PUSH0 SWAP1 PUSH5 0x28BED01600 PUSH1 0x1 PUSH1 0x80 SHL SWAP1 SWAP2 DIV PUSH1 0x1 PUSH1 0x1 PUSH1 0x80 SHL SUB AND GT PUSH2 0xA15 JUMPI PUSH2 0x9F9 PUSH1 0x5 DUP4 PUSH2 0x2DC4 JUMP JUMPDEST PUSH2 0xA04 SWAP1 PUSH1 0x3C PUSH2 0x2DD7 JUMP JUMPDEST SWAP1 POP PUSH2 0xA10 CALLER DUP3 PUSH2 0x20D3 JUMP JUMPDEST PUSH2 0xA80 JUMP JUMPDEST PUSH1 0x13 SLOAD PUSH5 0x4BAB827200 PUSH1 0x1 PUSH1 0x80 SHL SWAP1 SWAP2 DIV PUSH1 0x1 PUSH1 0x1 PUSH1 0x80 SHL SUB AND GT PUSH2 0xA3F JUMPI PUSH2 0xA04 DUP3 PUSH1 0xA PUSH2 0x2DD7 JUMP JUMPDEST PUSH1 0x13 SLOAD PUSH5 0x746A528800 PUSH1 0x1 PUSH1 0x80 SHL SWAP1 SWAP2 DIV PUSH1 0x1 PUSH1 0x1 PUSH1 0x80 SHL SUB AND GT PUSH2 0xA80 JUMPI PUSH2 0xA69 PUSH1 0x5 DUP4 PUSH2 0x2DC4 JUMP JUMPDEST PUSH2 0xA74 SWAP1 PUSH1 0x28 PUSH2 0x2DD7 JUMP JUMPDEST SWAP1 POP PUSH2 0xA80 CALLER DUP3 PUSH2 0x20D3 JUMP JUMPDEST PUSH1 0x40 DUP1 MLOAD DUP4 DUP2 MSTORE PUSH1 0x20 DUP2 ADD DUP4 SWAP1 MSTORE PUSH32 0xCF0848D99E9B2AD96811072E657199BC9567C2CC9B614097727A852B27F5358D SWAP2 ADD JUMPDEST PUSH1 0x40 MLOAD DUP1 SWAP2 SUB SWAP1 LOG1 POP JUMPDEST POP JUMP JUMPDEST CALLER PUSH0 SWAP1 DUP2 MSTORE PUSH1 0x15 PUSH1 0x20 MSTORE PUSH1 0x40 DUP2 KECCAK256 SLOAD PUSH1 0x1 EQ PUSH2 0xAD9 JUMPI PUSH0 DUP1 REVERT JUMPDEST PUSH2 0xAE1 PUSH2 0x2190 JUMP JUMPDEST PUSH1 0x40 DUP1 MLOAD PUSH1 0x1 PUSH1 0x1 PUSH1 0xA0 SHL SUB DUP6 AND PUSH1 0x20 DUP1 DUP4 ADD SWAP2 SWAP1 SWAP2 MSTORE CALLER DUP3 DUP5 ADD MSTORE DUP3 MLOAD DUP1 DUP4 SUB DUP5 ADD DUP2 MSTORE PUSH1 0x60 SWAP1 SWAP3 ADD SWAP1 SWAP3 MSTORE DUP1 MLOAD SWAP2 ADD KECCAK256 PUSH1 0xC SLOAD PUSH1 0x1 PUSH1 0x1 PUSH1 0x80 SHL SUB AND ISZERO PUSH2 0xB5F JUMPI PUSH2 0xB5A PUSH2 0xB30 PUSH1 0xC SLOAD SWAP1 JUMP JUMPDEST PUSH1 0x1 PUSH1 0x1 PUSH1 0x80 SHL SUB AND DUP5 PUSH1 0x1 PUSH1 0x1 PUSH1 0x80 SHL SUB AND PUSH2 0xB4C PUSH1 0xB SLOAD SWAP1 JUMP JUMPDEST PUSH1 0x1 PUSH1 0x1 PUSH1 0x80 SHL SUB AND PUSH2 0x2259 JUMP JUMPDEST PUSH2 0xB61 JUMP JUMPDEST PUSH0 JUMPDEST PUSH1 0xC SLOAD SWAP1 SWAP3 POP PUSH2 0xB80 SWAP1 PUSH1 0x1 PUSH1 0x1 PUSH1 0x80 SHL SUB DUP5 AND PUSH1 0x80 DUP6 SWAP1 SHL OR PUSH2 0x226A JUMP JUMPDEST PUSH1 0xC SSTORE PUSH1 0xB SLOAD PUSH2 0xB99 SWAP1 PUSH1 0x1 PUSH1 0x1 PUSH1 0x80 SHL SUB DUP6 AND PUSH2 0x226A JUMP JUMPDEST PUSH1 0xB SSTORE PUSH0 DUP2 DUP2 MSTORE PUSH1 0xD PUSH1 0x20 MSTORE PUSH1 0x40 SWAP1 KECCAK256 DUP1 SLOAD PUSH1 0x1 PUSH1 0x1 PUSH1 0xA0 SHL SUB NOT AND CALLER OR DUP2 SSTORE PUSH1 0x1 ADD SLOAD PUSH2 0xBD6 SWAP1 PUSH1 0x80 DUP6 SWAP1 SHL PUSH1 0x1 PUSH1 0x1 PUSH1 0x80 SHL SUB DUP6 AND OR PUSH2 0x226A JUMP JUMPDEST PUSH0 SWAP2 DUP3 MSTORE PUSH1 0xD PUSH1 0x20 MSTORE PUSH1 0x40 SWAP1 SWAP2 KECCAK256 PUSH1 0x1 ADD SSTORE SWAP3 SWAP2 POP POP JUMP JUMPDEST PUSH0 CALLER PUSH2 0xBFB DUP6 DUP3 DUP6 PUSH2 0x2290 JUMP JUMPDEST PUSH2 0xC06 DUP6 DUP6 DUP6 PUSH2 0x2308 JUMP JUMPDEST POP PUSH1 0x1 SWAP5 SWAP4 POP POP POP POP JUMP JUMPDEST PUSH0 PUSH2 0xC1D PUSH1 0x9 SLOAD PUSH2 0x1E2A JUMP JUMPDEST PUSH2 0xC25 JUMPI PUSH0 DUP1 REVERT JUMPDEST CALLER PUSH0 SWAP1 DUP2 MSTORE PUSH1 0x15 PUSH1 0x20 MSTORE PUSH1 0x40 SWAP1 KECCAK256 SLOAD PUSH3 0x186A5 EQ DUP1 ISZERO PUSH2 0xC8C JUMPI POP PUSH4 0xFFFFFFFF DUP4 AND PUSH0 SWAP1 DUP2 MSTORE PUSH1 0xE PUSH1 0x20 MSTORE PUSH1 0x40 SWAP1 KECCAK256 PUSH1 0x2 ADD SLOAD PUSH1 0x1 PUSH1 0x1 PUSH1 0xA0 SHL SUB AND CALLER EQ DUP1 PUSH2 0xC8C JUMPI POP PUSH4 0xFFFFFFFF DUP4 AND PUSH0 SWAP1 DUP2 MSTORE PUSH1 0xE PUSH1 0x20 MSTORE PUSH1 0x40 SWAP1 KECCAK256 PUSH1 0x2 ADD SLOAD PUSH1 0x1 PUSH1 0x1 PUSH1 0xA0 SHL SUB AND ISZERO JUMPDEST PUSH2 0xC94 JUMPI PUSH0 DUP1 REVERT JUMPDEST PUSH0 DUP4 PUSH4 0xFFFFFFFF AND PUSH0 SUB PUSH2 0xD82 JUMPI PUSH1 0x1 PUSH1 0x12 PUSH1 0x18 DUP3 DUP3 DUP3 SWAP1 SLOAD SWAP1 PUSH2 0x100 EXP SWAP1 DIV PUSH4 0xFFFFFFFF AND PUSH2 0xCC4 SWAP2 SWAP1 PUSH2 0x2DEE JUMP JUMPDEST SWAP3 POP PUSH2 0x100 EXP DUP2 SLOAD DUP2 PUSH4 0xFFFFFFFF MUL NOT AND SWAP1 DUP4 PUSH4 0xFFFFFFFF AND MUL OR SWAP1 SSTORE POP PUSH1 0x12 PUSH1 0x18 SWAP1 SLOAD SWAP1 PUSH2 0x100 EXP SWAP1 DIV PUSH4 0xFFFFFFFF AND SWAP4 POP PUSH2 0xD06 PUSH2 0xB30 PUSH1 0xC SLOAD PUSH1 0x80 SHR SWAP1 JUMP JUMPDEST PUSH1 0xC SLOAD SWAP1 SWAP2 POP PUSH2 0xD25 SWAP1 PUSH1 0x1 PUSH1 0x1 PUSH1 0x80 SHL SUB DUP4 AND PUSH1 0x80 DUP5 SWAP1 SHL OR PUSH2 0x226A JUMP JUMPDEST PUSH1 0xC SSTORE PUSH1 0xB SLOAD PUSH2 0xD3E SWAP1 PUSH1 0x1 PUSH1 0x1 PUSH1 0x80 SHL SUB DUP6 AND PUSH2 0x226A JUMP JUMPDEST PUSH1 0xB SSTORE PUSH4 0xFFFFFFFF DUP5 AND PUSH0 SWAP1 DUP2 MSTORE PUSH1 0xE PUSH1 0x20 MSTORE PUSH1 0x40 SWAP1 KECCAK256 PUSH1 0x1 PUSH1 0x1 PUSH1 0x80 SHL SUB DUP3 AND PUSH1 0x80 DUP6 SWAP1 SHL OR PUSH1 0x1 DUP3 ADD SSTORE PUSH1 0x2 ADD DUP1 SLOAD PUSH1 0x1 PUSH1 0x1 PUSH1 0xA0 SHL SUB NOT AND CALLER OR SWAP1 SSTORE PUSH2 0xF27 JUMP JUMPDEST PUSH2 0xDCB PUSH2 0xD91 PUSH1 0xC SLOAD PUSH1 0x80 SHR SWAP1 JUMP JUMPDEST PUSH4 0xFFFFFFFF DUP7 AND PUSH0 SWAP1 DUP2 MSTORE PUSH1 0xE PUSH1 0x20 MSTORE PUSH1 0x40 SWAP1 KECCAK256 PUSH1 0x1 ADD SLOAD PUSH1 0x1 PUSH1 0x1 PUSH1 0x80 SHL SUB SWAP2 SWAP1 SWAP2 AND SWAP1 PUSH1 0x80 SHR PUSH1 0x1 PUSH1 0x1 PUSH1 0x80 SHL SUB AND PUSH2 0xB4C PUSH1 0xC SLOAD SWAP1 JUMP JUMPDEST PUSH1 0xC SLOAD PUSH4 0xFFFFFFFF DUP7 AND PUSH0 SWAP1 DUP2 MSTORE PUSH1 0xE PUSH1 0x20 MSTORE PUSH1 0x40 SWAP1 KECCAK256 PUSH1 0x1 ADD SLOAD SWAP2 SWAP4 POP PUSH2 0xE07 SWAP2 PUSH2 0x799 SWAP1 DUP6 SWAP1 JUMPDEST PUSH1 0x1 PUSH1 0x1 PUSH1 0x80 SHL SUB AND PUSH1 0x80 SWAP2 SWAP1 SWAP2 SHL OR SWAP1 JUMP JUMPDEST PUSH1 0xC SSTORE PUSH1 0xB SLOAD PUSH4 0xFFFFFFFF DUP6 AND PUSH0 SWAP1 DUP2 MSTORE PUSH1 0xE PUSH1 0x20 MSTORE PUSH1 0x40 DUP2 KECCAK256 PUSH1 0x1 ADD SLOAD PUSH2 0xE36 SWAP3 SWAP2 PUSH2 0x799 SWAP2 PUSH1 0x80 SHR PUSH2 0xDF4 JUMP JUMPDEST PUSH1 0xB SSTORE PUSH4 0xFFFFFFFF DUP5 AND PUSH0 SWAP1 DUP2 MSTORE PUSH1 0xE PUSH1 0x20 MSTORE PUSH1 0x40 SWAP1 KECCAK256 PUSH1 0x1 ADD SLOAD PUSH1 0x80 SHR PUSH2 0xE5E SWAP1 DUP4 PUSH2 0x2E0A JUMP JUMPDEST SWAP2 POP PUSH2 0xE6F PUSH2 0xB30 PUSH1 0xC SLOAD PUSH1 0x80 SHR SWAP1 JUMP JUMPDEST PUSH1 0xC SLOAD SWAP1 SWAP2 POP PUSH2 0xE8E SWAP1 PUSH1 0x1 PUSH1 0x1 PUSH1 0x80 SHL SUB DUP4 AND PUSH1 0x80 DUP5 SWAP1 SHL OR PUSH2 0x226A JUMP JUMPDEST PUSH1 0xC SSTORE PUSH1 0xB SLOAD PUSH2 0xEA7 SWAP1 PUSH1 0x1 PUSH1 0x1 PUSH1 0x80 SHL SUB DUP6 AND PUSH2 0x226A JUMP JUMPDEST PUSH1 0xB SSTORE PUSH1 0x1 PUSH1 0x1 PUSH1 0x80 SHL SUB DUP2 AND PUSH1 0x80 DUP5 SWAP1 SHL OR PUSH4 0xFFFFFFFF DUP6 AND PUSH0 SWAP1 DUP2 MSTORE PUSH1 0xE PUSH1 0x20 MSTORE PUSH1 0x40 SWAP1 KECCAK256 PUSH1 0x1 DUP2 ADD SWAP2 SWAP1 SWAP2 SSTORE SLOAD PUSH2 0xEF0 SWAP1 PUSH1 0x1 PUSH1 0x1 PUSH1 0x80 SHL SUB DUP5 AND PUSH1 0x80 DUP6 SWAP1 SHL OR PUSH2 0x226A JUMP JUMPDEST PUSH4 0xFFFFFFFF DUP6 AND PUSH0 SWAP1 DUP2 MSTORE PUSH1 0xE PUSH1 0x20 MSTORE PUSH1 0x40 SWAP1 KECCAK256 SWAP1 DUP2 SSTORE PUSH1 0x2 ADD SLOAD PUSH2 0xF27 SWAP1 PUSH1 0x1 PUSH1 0x1 PUSH1 0xA0 SHL SUB AND PUSH1 0x1 PUSH1 0x1 PUSH1 0x80 SHL SUB DUP5 AND PUSH2 0x20D3 JUMP JUMPDEST PUSH4 0xFFFFFFFF DUP5 AND PUSH0 DUP2 DUP2 MSTORE PUSH1 0xE PUSH1 0x20 SWAP1 DUP2 MSTORE PUSH1 0x40 SWAP2 DUP3 SWAP1 KECCAK256 PUSH1 0x1 ADD SLOAD DUP3 MLOAD SWAP4 DUP5 MSTORE PUSH1 0x1 PUSH1 0x1 PUSH1 0x80 SHL SUB DUP7 AND SWAP2 DUP5 ADD SWAP2 SWAP1 SWAP2 MSTORE DUP3 DUP3 ADD MSTORE MLOAD PUSH32 0x2DBD6C60950A71A3B42582CE495AF627A70477170CEA6CE5BBD4017F3E930892 SWAP2 DUP2 SWAP1 SUB PUSH1 0x60 ADD SWAP1 LOG1 POP SWAP3 SWAP2 POP POP JUMP JUMPDEST PUSH0 PUSH2 0xF98 PUSH2 0x24AA JUMP JUMPDEST SWAP1 POP SWAP1 JUMP JUMPDEST PUSH0 CALLER PUSH2 0x857 DUP2 DUP6 DUP6 PUSH2 0xFAF DUP4 DUP4 PUSH2 0x19E9 JUMP JUMPDEST PUSH2 0xFB9 SWAP2 SWAP1 PUSH2 0x2E29 JUMP JUMPDEST PUSH2 0x1E80 JUMP JUMPDEST PUSH2 0xFC9 PUSH1 0x9 SLOAD PUSH2 0x1E2A JUMP JUMPDEST PUSH2 0xFD1 JUMPI PUSH0 DUP1 REVERT JUMPDEST PUSH0 PUSH2 0xFE2 PUSH1 0x40 DUP4 ADD PUSH1 0x20 DUP5 ADD PUSH2 0x2B73 JUMP JUMPDEST PUSH1 0x13 SLOAD PUSH2 0xFF8 SWAP2 SWAP1 PUSH1 0x1 PUSH1 0x1 PUSH1 0x80 SHL SUB AND PUSH2 0x2E0A JUMP JUMPDEST PUSH1 0x1 PUSH1 0x1 PUSH1 0x80 SHL SUB AND LT ISZERO DUP1 ISZERO PUSH2 0x1022 JUMPI POP PUSH1 0x11 SLOAD PUSH1 0x1 PUSH1 0x1 PUSH1 0xA0 SHL SUB AND CALLER PUSH1 0x1 PUSH1 0x1 PUSH1 0xA0 SHL SUB AND EQ JUMPDEST PUSH2 0x102A JUMPI PUSH0 DUP1 REVERT JUMPDEST PUSH2 0x103A PUSH1 0x40 DUP3 ADD PUSH1 0x20 DUP4 ADD PUSH2 0x2B73 JUMP JUMPDEST PUSH1 0x13 DUP1 SLOAD PUSH8 0xFFFFFFFFFFFFFFFF SWAP3 SWAP1 SWAP3 AND SWAP2 PUSH0 SWAP1 PUSH2 0x1062 SWAP1 DUP5 SWAP1 PUSH1 0x1 PUSH1 0x1 PUSH1 0x80 SHL SUB AND PUSH2 0x2E0A JUMP JUMPDEST DUP3 SLOAD PUSH1 0x1 PUSH1 0x1 PUSH1 0x80 SHL SUB SWAP2 DUP3 AND PUSH2 0x100 SWAP4 SWAP1 SWAP4 EXP SWAP3 DUP4 MUL SWAP2 SWAP1 SWAP3 MUL NOT SWAP1 SWAP2 AND OR SWAP1 SSTORE POP PUSH1 0x12 SLOAD PUSH4 0xFFFFFFFF PUSH1 0x1 PUSH1 0xA0 SHL SWAP1 SWAP2 DIV AND PUSH0 SWAP1 DUP2 MSTORE PUSH1 0xA PUSH1 0x20 MSTORE PUSH1 0x40 SWAP1 KECCAK256 DUP2 SWAP1 PUSH2 0x10AF DUP3 DUP3 PUSH2 0x2E50 JUMP JUMPDEST POP POP PUSH1 0x12 DUP1 SLOAD PUSH1 0x1 SWAP2 SWAP1 PUSH1 0x14 SWAP1 PUSH2 0x10D4 SWAP1 DUP5 SWAP1 PUSH1 0x1 PUSH1 0xA0 SHL SWAP1 DIV PUSH4 0xFFFFFFFF AND PUSH2 0x2DEE JUMP JUMPDEST SWAP3 POP PUSH2 0x100 EXP DUP2 SLOAD DUP2 PUSH4 0xFFFFFFFF MUL NOT AND SWAP1 DUP4 PUSH4 0xFFFFFFFF AND MUL OR SWAP1 SSTORE POP PUSH32 0x259B626A3AC57ABBAD46C244A9BC2A13C0B530C618E9654BE9351BD104CFFCAE DUP2 PUSH0 ADD PUSH1 0x20 DUP2 ADD SWAP1 PUSH2 0x1125 SWAP2 SWAP1 PUSH2 0x2B58 JUMP JUMPDEST PUSH2 0x1135 PUSH1 0x40 DUP5 ADD PUSH1 0x20 DUP6 ADD PUSH2 0x2B73 JUMP JUMPDEST PUSH2 0x1145 PUSH1 0x60 DUP6 ADD PUSH1 0x40 DUP7 ADD PUSH2 0x2EF3 JUMP JUMPDEST PUSH2 0x1155 PUSH1 0x80 DUP7 ADD PUSH1 0x60 DUP8 ADD PUSH2 0x2F0E JUMP JUMPDEST PUSH1 0x12 SLOAD PUSH1 0x40 DUP1 MLOAD PUSH1 0x1 PUSH1 0x1 PUSH1 0xA0 SHL SUB SWAP1 SWAP7 AND DUP7 MSTORE PUSH1 0x1 PUSH1 0x1 PUSH1 0x80 SHL SUB SWAP1 SWAP5 AND PUSH1 0x20 DUP7 ADD MSTORE PUSH1 0x1 PUSH1 0x1 PUSH1 0x78 SHL SUB SWAP1 SWAP3 AND SWAP3 DUP5 ADD SWAP3 SWAP1 SWAP3 MSTORE PUSH1 0xFF SWAP1 SWAP2 AND PUSH1 0x60 DUP4 ADD MSTORE PUSH1 0x1 PUSH1 0xA0 SHL SWAP1 DIV PUSH4 0xFFFFFFFF AND PUSH1 0x80 DUP3 ADD MSTORE PUSH1 0xA0 ADD JUMPDEST PUSH1 0x40 MLOAD DUP1 SWAP2 SUB SWAP1 LOG1 POP JUMP JUMPDEST PUSH1 0x11 SLOAD PUSH1 0x1 PUSH1 0x1 PUSH1 0xA0 SHL SUB AND CALLER PUSH1 0x1 PUSH1 0x1 PUSH1 0xA0 SHL SUB AND EQ PUSH2 0x11D5 JUMPI PUSH0 DUP1 REVERT JUMPDEST PUSH1 0x11 DUP1 SLOAD PUSH1 0x1 PUSH1 0x1 PUSH1 0xA0 SHL SUB NOT AND PUSH1 0x1 PUSH1 0x1 PUSH1 0xA0 SHL SUB DUP4 AND SWAP1 DUP2 OR SWAP1 SWAP2 SSTORE PUSH1 0x40 MLOAD SWAP1 DUP2 MSTORE PUSH32 0x853BAECD5C22FCF8A4D994474A066771C51CFE6022B046E92A09874610CD1281 SWAP1 PUSH1 0x20 ADD PUSH2 0x11AB JUMP JUMPDEST PUSH1 0x11 SLOAD PUSH1 0x1 PUSH1 0x1 PUSH1 0xA0 SHL SUB AND CALLER PUSH1 0x1 PUSH1 0x1 PUSH1 0xA0 SHL SUB AND EQ PUSH2 0x1242 JUMPI PUSH0 DUP1 REVERT JUMPDEST PUSH1 0x1 PUSH1 0x1 PUSH1 0xA0 SHL SUB DUP3 AND PUSH0 DUP2 DUP2 MSTORE PUSH1 0x15 PUSH1 0x20 SWAP1 DUP2 MSTORE PUSH1 0x40 SWAP2 DUP3 SWAP1 KECCAK256 DUP5 SWAP1 SSTORE DUP2 MLOAD SWAP3 DUP4 MSTORE DUP3 ADD DUP4 SWAP1 MSTORE PUSH32 0x967D50DF84A5EBB45902FA277D5C3B0BC6403497C9FD6DA2ECBD9ED420038F14 SWAP2 ADD PUSH2 0xAB2 JUMP JUMPDEST PUSH1 0x11 SLOAD PUSH1 0x1 PUSH1 0x1 PUSH1 0xA0 SHL SUB AND CALLER PUSH1 0x1 PUSH1 0x1 PUSH1 0xA0 SHL SUB AND EQ PUSH2 0x12B1 JUMPI PUSH0 DUP1 REVERT JUMPDEST PUSH1 0x1 PUSH1 0x1 PUSH1 0xA0 SHL SUB AND PUSH0 SWAP1 DUP2 MSTORE PUSH1 0x15 PUSH1 0x20 MSTORE PUSH1 0x40 DUP2 KECCAK256 SSTORE JUMP JUMPDEST PUSH2 0x12D5 PUSH1 0x9 SLOAD PUSH2 0x1E2A JUMP JUMPDEST ISZERO PUSH2 0x12DE JUMPI PUSH0 DUP1 REVERT JUMPDEST CALLER PUSH0 SWAP1 DUP2 MSTORE PUSH1 0x15 PUSH1 0x20 MSTORE PUSH1 0x40 SWAP1 KECCAK256 SLOAD PUSH1 0x5 EQ PUSH2 0x12F8 JUMPI PUSH0 DUP1 REVERT JUMPDEST PUSH1 0xC SLOAD PUSH2 0x1309 SWAP1 PUSH1 0x80 DUP4 SWAP1 SHL PUSH2 0x226A JUMP JUMPDEST PUSH1 0xC SSTORE POP JUMP JUMPDEST CALLER PUSH0 SWAP1 DUP2 MSTORE PUSH1 0x15 PUSH1 0x20 MSTORE PUSH1 0x40 SWAP1 KECCAK256 SLOAD PUSH1 0x1 EQ PUSH2 0x1329 JUMPI PUSH0 DUP1 REVERT JUMPDEST PUSH2 0x1331 PUSH2 0x2190 JUMP JUMPDEST PUSH1 0x40 DUP1 MLOAD PUSH1 0x1 PUSH1 0x1 PUSH1 0xA0 SHL SUB DUP5 AND PUSH1 0x20 DUP1 DUP4 ADD SWAP2 SWAP1 SWAP2 MSTORE CALLER DUP3 DUP5 ADD MSTORE DUP3 MLOAD DUP1 DUP4 SUB DUP5 ADD DUP2 MSTORE PUSH1 0x60 SWAP1 SWAP3 ADD DUP4 MSTORE DUP2 MLOAD SWAP2 DUP2 ADD SWAP2 SWAP1 SWAP2 KECCAK256 PUSH0 DUP2 DUP2 MSTORE PUSH1 0xD SWAP1 SWAP3 MSTORE SWAP2 DUP2 KECCAK256 PUSH1 0x1 ADD SLOAD SWAP1 SWAP2 DUP3 SWAP2 PUSH1 0x80 SHR PUSH1 0x1 PUSH1 0x1 PUSH1 0x80 SHL SUB DUP6 AND LT PUSH2 0x13C0 JUMPI PUSH0 DUP2 DUP2 MSTORE PUSH1 0xD PUSH1 0x20 MSTORE PUSH1 0x40 DUP2 KECCAK256 PUSH1 0x1 DUP2 ADD DUP1 SLOAD DUP3 SLOAD PUSH1 0x1 PUSH1 0x1 PUSH1 0xA0 SHL SUB NOT AND SWAP1 SWAP3 SSTORE SWAP2 SWAP1 SWAP2 SSTORE PUSH1 0x80 DUP2 SWAP1 SHR SWAP5 POP SWAP2 POP PUSH2 0x141A JUMP JUMPDEST PUSH0 DUP2 DUP2 MSTORE PUSH1 0xD PUSH1 0x20 MSTORE PUSH1 0x40 SWAP1 KECCAK256 PUSH1 0x1 ADD SLOAD PUSH2 0x13DB SWAP1 DUP6 PUSH2 0x25D3 JUMP JUMPDEST PUSH0 DUP3 DUP2 MSTORE PUSH1 0xD PUSH1 0x20 MSTORE PUSH1 0x40 SWAP1 KECCAK256 PUSH1 0x1 ADD SLOAD SWAP1 SWAP3 POP PUSH2 0x1408 SWAP1 PUSH1 0x1 PUSH1 0x1 PUSH1 0x80 SHL SUB DUP5 AND PUSH1 0x80 DUP8 SWAP1 SHL OR PUSH2 0x1E48 JUMP JUMPDEST PUSH0 DUP3 DUP2 MSTORE PUSH1 0xD PUSH1 0x20 MSTORE PUSH1 0x40 SWAP1 KECCAK256 PUSH1 0x1 ADD SSTORE JUMPDEST PUSH2 0x143B DUP5 PUSH2 0x1435 PUSH2 0x142D PUSH1 0xC SLOAD PUSH1 0x80 SHR SWAP1 JUMP JUMPDEST PUSH1 0xB SLOAD PUSH2 0xDF4 JUMP JUMPDEST SWAP1 PUSH2 0x25F5 JUMP JUMPDEST PUSH1 0xB SLOAD SWAP1 SWAP4 POP PUSH2 0x1454 SWAP1 PUSH1 0x1 PUSH1 0x1 PUSH1 0x80 SHL SUB DUP7 AND PUSH2 0x1E48 JUMP JUMPDEST PUSH1 0xB SSTORE PUSH1 0xC SLOAD PUSH2 0x1473 SWAP1 PUSH1 0x1 PUSH1 0x1 PUSH1 0x80 SHL SUB DUP5 AND PUSH1 0x80 DUP7 SWAP1 SHL OR PUSH2 0x1E48 JUMP JUMPDEST PUSH1 0xC SSTORE PUSH2 0x1480 DUP3 DUP5 PUSH2 0x2E0A JUMP JUMPDEST SWAP3 POP PUSH1 0x1 PUSH1 0x1 PUSH1 0x80 SHL SUB DUP4 AND ISZERO PUSH2 0x14A4 JUMPI PUSH2 0x14A4 DUP6 DUP5 PUSH1 0x1 PUSH1 0x1 PUSH1 0x80 SHL SUB AND PUSH2 0x20D3 JUMP JUMPDEST PUSH32 0xCD22D1CB8932396ECCE835A81DB9F8F268EC6F820BA46A7D202F275064DE27C4 DUP6 DUP6 PUSH1 0x1 PUSH1 0x1 PUSH1 0x80 SHL SUB DUP7 AND PUSH1 0x80 DUP7 SWAP1 SHL OR PUSH0 DUP6 DUP2 MSTORE PUSH1 0xD PUSH1 0x20 SWAP1 DUP2 MSTORE PUSH1 0x40 SWAP2 DUP3 SWAP1 KECCAK256 PUSH1 0x1 ADD SLOAD DUP3 MLOAD PUSH1 0x1 PUSH1 0x1 PUSH1 0xA0 SHL SUB SWAP1 SWAP7 AND DUP7 MSTORE PUSH1 0x1 PUSH1 0x1 PUSH1 0x80 SHL SUB SWAP1 SWAP5 AND SWAP1 DUP6 ADD MSTORE DUP4 ADD MSTORE PUSH1 0x60 DUP3 ADD MSTORE PUSH1 0x80 ADD PUSH1 0x40 MLOAD DUP1 SWAP2 SUB SWAP1 LOG1 POP POP POP POP POP JUMP JUMPDEST PUSH1 0x1 PUSH1 0x1 PUSH1 0xA0 SHL SUB DUP2 AND PUSH0 SWAP1 DUP2 MSTORE PUSH1 0x7 PUSH1 0x20 MSTORE PUSH1 0x40 DUP2 KECCAK256 SLOAD PUSH2 0x85D JUMP JUMPDEST PUSH0 PUSH1 0x60 DUP1 DUP3 DUP1 DUP1 DUP4 PUSH2 0x1574 PUSH32 0x0 PUSH1 0x5 PUSH2 0x261D JUMP JUMPDEST PUSH2 0x159F PUSH32 0x0 PUSH1 0x6 PUSH2 0x261D JUMP JUMPDEST PUSH1 0x40 DUP1 MLOAD PUSH0 DUP1 DUP3 MSTORE PUSH1 0x20 DUP3 ADD SWAP1 SWAP3 MSTORE PUSH1 0xF PUSH1 0xF8 SHL SWAP12 SWAP4 SWAP11 POP SWAP2 SWAP9 POP CHAINID SWAP8 POP ADDRESS SWAP7 POP SWAP5 POP SWAP3 POP SWAP1 POP JUMP JUMPDEST PUSH1 0x60 PUSH1 0x4 DUP1 SLOAD PUSH2 0x7C9 SWAP1 PUSH2 0x2D2C JUMP JUMPDEST PUSH2 0x8A6 DUP3 DUP3 PUSH2 0x1FA3 JUMP JUMPDEST PUSH0 CALLER DUP2 PUSH2 0x15EE DUP3 DUP7 PUSH2 0x19E9 JUMP JUMPDEST SWAP1 POP DUP4 DUP2 LT ISZERO PUSH2 0x1653 JUMPI PUSH1 0x40 MLOAD PUSH3 0x461BCD PUSH1 0xE5 SHL DUP2 MSTORE PUSH1 0x20 PUSH1 0x4 DUP3 ADD MSTORE PUSH1 0x25 PUSH1 0x24 DUP3 ADD MSTORE PUSH32 0x45524332303A2064656372656173656420616C6C6F77616E63652062656C6F77 PUSH1 0x44 DUP3 ADD MSTORE PUSH5 0x207A65726F PUSH1 0xD8 SHL PUSH1 0x64 DUP3 ADD MSTORE PUSH1 0x84 ADD JUMPDEST PUSH1 0x40 MLOAD DUP1 SWAP2 SUB SWAP1 REVERT JUMPDEST PUSH2 0xC06 DUP3 DUP7 DUP7 DUP5 SUB PUSH2 0x1E80 JUMP JUMPDEST PUSH0 CALLER PUSH2 0x857 DUP2 DUP6 DUP6 PUSH2 0x2308 JUMP JUMPDEST PUSH2 0x1678 PUSH1 0x9 SLOAD PUSH2 0x1E2A JUMP JUMPDEST PUSH2 0x1680 JUMPI PUSH0 DUP1 REVERT JUMPDEST CALLER PUSH0 SWAP1 DUP2 MSTORE PUSH1 0x15 PUSH1 0x20 MSTORE PUSH1 0x40 SWAP1 KECCAK256 SLOAD PUSH3 0x186A5 EQ DUP1 ISZERO PUSH2 0x16E7 JUMPI POP PUSH4 0xFFFFFFFF DUP3 AND PUSH0 SWAP1 DUP2 MSTORE PUSH1 0xE PUSH1 0x20 MSTORE PUSH1 0x40 SWAP1 KECCAK256 PUSH1 0x2 ADD SLOAD PUSH1 0x1 PUSH1 0x1 PUSH1 0xA0 SHL SUB AND CALLER EQ DUP1 PUSH2 0x16E7 JUMPI POP PUSH4 0xFFFFFFFF DUP3 AND PUSH0 SWAP1 DUP2 MSTORE PUSH1 0xE PUSH1 0x20 MSTORE PUSH1 0x40 SWAP1 KECCAK256 PUSH1 0x2 ADD SLOAD PUSH1 0x1 PUSH1 0x1 PUSH1 0xA0 SHL SUB AND ISZERO JUMPDEST PUSH2 0x16EF JUMPI PUSH0 DUP1 REVERT JUMPDEST PUSH4 0xFFFFFFFF DUP3 AND PUSH0 SWAP1 DUP2 MSTORE PUSH1 0xE PUSH1 0x20 MSTORE PUSH1 0x40 SWAP1 KECCAK256 SLOAD PUSH2 0x1712 SWAP1 PUSH1 0x80 DUP4 SWAP1 SHL PUSH2 0x226A JUMP JUMPDEST PUSH4 0xFFFFFFFF DUP4 AND PUSH0 SWAP1 DUP2 MSTORE PUSH1 0xE PUSH1 0x20 SWAP1 DUP2 MSTORE PUSH1 0x40 DUP1 DUP4 KECCAK256 DUP5 SWAP1 SSTORE CALLER DUP4 MSTORE SWAP1 DUP3 SWAP1 MSTORE SWAP1 KECCAK256 SLOAD PUSH1 0x80 SWAP2 SWAP1 SWAP2 SHR GT ISZERO PUSH2 0x8A6 JUMPI PUSH0 DUP1 REVERT JUMPDEST PUSH2 0x1751 PUSH1 0x9 SLOAD PUSH2 0x1E2A JUMP JUMPDEST PUSH2 0x1759 JUMPI PUSH0 DUP1 REVERT JUMPDEST PUSH1 0x11 SLOAD PUSH1 0x1 PUSH1 0x1 PUSH1 0xA0 SHL SUB AND CALLER PUSH1 0x1 PUSH1 0x1 PUSH1 0xA0 SHL SUB AND EQ PUSH2 0x1778 JUMPI PUSH0 DUP1 REVERT JUMPDEST PUSH4 0xFFFFFFFF DUP2 AND PUSH0 SWAP1 DUP2 MSTORE PUSH1 0xA PUSH1 0x20 MSTORE PUSH1 0x40 DUP2 KECCAK256 PUSH1 0x1 ADD SLOAD PUSH1 0x13 DUP1 SLOAD PUSH8 0xFFFFFFFFFFFFFFFF SWAP1 SWAP3 AND SWAP3 SWAP1 SWAP2 PUSH2 0x17B7 SWAP1 DUP5 SWAP1 PUSH1 0x1 PUSH1 0x1 PUSH1 0x80 SHL SUB AND PUSH2 0x2D72 JUMP JUMPDEST SWAP3 POP PUSH2 0x100 EXP DUP2 SLOAD DUP2 PUSH1 0x1 PUSH1 0x1 PUSH1 0x80 SHL SUB MUL NOT AND SWAP1 DUP4 PUSH1 0x1 PUSH1 0x1 PUSH1 0x80 SHL SUB AND MUL OR SWAP1 SSTORE POP PUSH32 0x568D364B674966BDB889933148A94E885581320F54B5D65D04BDA235EEA7FE48 DUP2 PUSH1 0x40 MLOAD PUSH2 0x1816 SWAP2 SWAP1 PUSH4 0xFFFFFFFF SWAP2 SWAP1 SWAP2 AND DUP2 MSTORE PUSH1 0x20 ADD SWAP1 JUMP JUMPDEST PUSH1 0x40 MLOAD DUP1 SWAP2 SUB SWAP1 LOG1 PUSH4 0xFFFFFFFF AND PUSH0 SWAP1 DUP2 MSTORE PUSH1 0xA PUSH1 0x20 MSTORE PUSH1 0x40 DUP2 KECCAK256 DUP1 SLOAD PUSH1 0x1 PUSH1 0x1 PUSH1 0xA0 SHL SUB NOT AND DUP2 SSTORE PUSH1 0x1 ADD SSTORE JUMP JUMPDEST PUSH2 0x1850 PUSH1 0x9 SLOAD PUSH2 0x1E2A JUMP JUMPDEST ISZERO PUSH2 0x1859 JUMPI PUSH0 DUP1 REVERT JUMPDEST CALLER PUSH0 SWAP1 DUP2 MSTORE PUSH1 0x15 PUSH1 0x20 MSTORE PUSH1 0x40 SWAP1 KECCAK256 SLOAD PUSH3 0x186A5 EQ PUSH2 0x1875 JUMPI PUSH0 DUP1 REVERT JUMPDEST PUSH2 0x8A6 DUP2 DUP4 PUSH1 0x1 PUSH1 0x1 PUSH1 0x80 SHL SUB AND PUSH2 0x20D3 JUMP JUMPDEST DUP4 TIMESTAMP GT ISZERO PUSH2 0x18D8 JUMPI PUSH1 0x40 MLOAD PUSH3 0x461BCD PUSH1 0xE5 SHL DUP2 MSTORE PUSH1 0x20 PUSH1 0x4 DUP3 ADD MSTORE PUSH1 0x1D PUSH1 0x24 DUP3 ADD MSTORE PUSH32 0x45524332305065726D69743A206578706972656420646561646C696E65000000 PUSH1 0x44 DUP3 ADD MSTORE PUSH1 0x64 ADD PUSH2 0x164A JUMP JUMPDEST PUSH0 PUSH32 0x6E71EDAE12B1B97F4D1F60370FEF10105FA2FAAE0126114A169C64845D6126C9 DUP9 DUP9 DUP9 PUSH2 0x1906 DUP13 PUSH2 0x26C6 JUMP JUMPDEST PUSH1 0x40 DUP1 MLOAD PUSH1 0x20 DUP2 ADD SWAP7 SWAP1 SWAP7 MSTORE PUSH1 0x1 PUSH1 0x1 PUSH1 0xA0 SHL SUB SWAP5 DUP6 AND SWAP1 DUP7 ADD MSTORE SWAP3 SWAP1 SWAP2 AND PUSH1 0x60 DUP5 ADD MSTORE PUSH1 0x80 DUP4 ADD MSTORE PUSH1 0xA0 DUP3 ADD MSTORE PUSH1 0xC0 DUP2 ADD DUP7 SWAP1 MSTORE PUSH1 0xE0 ADD PUSH1 0x40 MLOAD PUSH1 0x20 DUP2 DUP4 SUB SUB DUP2 MSTORE SWAP1 PUSH1 0x40 MSTORE DUP1 MLOAD SWAP1 PUSH1 0x20 ADD KECCAK256 SWAP1 POP PUSH0 PUSH2 0x1960 DUP3 PUSH2 0x26ED JUMP JUMPDEST SWAP1 POP PUSH0 PUSH2 0x196F DUP3 DUP8 DUP8 DUP8 PUSH2 0x2719 JUMP JUMPDEST SWAP1 POP DUP10 PUSH1 0x1 PUSH1 0x1 PUSH1 0xA0 SHL SUB AND DUP2 PUSH1 0x1 PUSH1 0x1 PUSH1 0xA0 SHL SUB AND EQ PUSH2 0x19D2 JUMPI PUSH1 0x40 MLOAD PUSH3 0x461BCD PUSH1 0xE5 SHL DUP2 MSTORE PUSH1 0x20 PUSH1 0x4 DUP3 ADD MSTORE PUSH1 0x1E PUSH1 0x24 DUP3 ADD MSTORE PUSH32 0x45524332305065726D69743A20696E76616C6964207369676E61747572650000 PUSH1 0x44 DUP3 ADD MSTORE PUSH1 0x64 ADD PUSH2 0x164A JUMP JUMPDEST PUSH2 0x19DD DUP11 DUP11 DUP11 PUSH2 0x1E80 JUMP JUMPDEST POP POP POP POP POP POP POP POP POP POP JUMP JUMPDEST PUSH1 0x1 PUSH1 0x1 PUSH1 0xA0 SHL SUB SWAP2 DUP3 AND PUSH0 SWAP1 DUP2 MSTORE PUSH1 0x1 PUSH1 0x20 SWAP1 DUP2 MSTORE PUSH1 0x40 DUP1 DUP4 KECCAK256 SWAP4 SWAP1 SWAP5 AND DUP3 MSTORE SWAP2 SWAP1 SWAP2 MSTORE KECCAK256 SLOAD SWAP1 JUMP JUMPDEST PUSH2 0x1A1E PUSH1 0x9 SLOAD PUSH2 0x1E2A JUMP JUMPDEST PUSH2 0x1A26 JUMPI PUSH0 DUP1 REVERT JUMPDEST PUSH1 0x11 SLOAD PUSH1 0x1 PUSH1 0x1 PUSH1 0xA0 SHL SUB AND CALLER PUSH1 0x1 PUSH1 0x1 PUSH1 0xA0 SHL SUB AND EQ PUSH2 0x1A45 JUMPI PUSH0 DUP1 REVERT JUMPDEST PUSH1 0x40 MLOAD PUSH4 0xA9059CBB PUSH1 0xE0 SHL DUP2 MSTORE PUSH1 0x1 PUSH1 0x1 PUSH1 0xA0 SHL SUB DUP3 DUP2 AND PUSH1 0x4 DUP4 ADD MSTORE PUSH1 0x24 DUP3 ADD DUP5 SWAP1 MSTORE PUSH32 0x0 AND SWAP1 PUSH4 0xA9059CBB SWAP1 PUSH1 0x44 ADD PUSH1 0x20 PUSH1 0x40 MLOAD DUP1 DUP4 SUB DUP2 PUSH0 DUP8 GAS CALL ISZERO DUP1 ISZERO PUSH2 0x1AB1 JUMPI RETURNDATASIZE PUSH0 DUP1 RETURNDATACOPY RETURNDATASIZE PUSH0 REVERT JUMPDEST POP POP POP POP PUSH1 0x40 MLOAD RETURNDATASIZE PUSH1 0x1F NOT PUSH1 0x1F DUP3 ADD AND DUP3 ADD DUP1 PUSH1 0x40 MSTORE POP DUP2 ADD SWAP1 PUSH2 0x1AD5 SWAP2 SWAP1 PUSH2 0x2D91 JUMP JUMPDEST POP POP POP JUMP JUMPDEST CALLER PUSH0 SWAP1 DUP2 MSTORE PUSH1 0x15 PUSH1 0x20 MSTORE PUSH1 0x40 SWAP1 KECCAK256 SLOAD PUSH1 0x1 EQ DUP1 ISZERO PUSH2 0x1B0F JUMPI POP PUSH1 0x1 PUSH1 0x1 PUSH1 0xA0 SHL SUB DUP3 DUP2 AND PUSH0 SWAP1 DUP2 MSTORE PUSH1 0x14 PUSH1 0x20 MSTORE PUSH1 0x40 SWAP1 KECCAK256 SLOAD AND ISZERO JUMPDEST ISZERO PUSH2 0x8A6 JUMPI PUSH1 0x1 PUSH1 0x1 PUSH1 0xA0 SHL SUB DUP3 DUP2 AND PUSH0 DUP2 DUP2 MSTORE PUSH1 0x14 PUSH1 0x20 SWAP1 DUP2 MSTORE PUSH1 0x40 SWAP2 DUP3 SWAP1 KECCAK256 DUP1 SLOAD PUSH1 0x1 PUSH1 0x1 PUSH1 0xA0 SHL SUB NOT AND SWAP5 DUP7 AND SWAP5 DUP6 OR SWAP1 SSTORE DUP2 MLOAD SWAP3 DUP4 MSTORE DUP3 ADD SWAP3 SWAP1 SWAP3 MSTORE PUSH32 0xB5E322B4B5330962013E8D6519462C133D50320EE476828060995C1ACADEF62 SWAP2 ADD PUSH2 0xAB2 JUMP JUMPDEST PUSH1 0x11 SLOAD PUSH1 0x1 PUSH1 0x1 PUSH1 0xA0 SHL SUB AND CALLER PUSH1 0x1 PUSH1 0x1 PUSH1 0xA0 SHL SUB AND EQ PUSH2 0x1B96 JUMPI PUSH0 DUP1 REVERT JUMPDEST PUSH1 0xF DUP4 SWAP1 SSTORE PUSH1 0x10 DUP3 SWAP1 SSTORE PUSH1 0x12 DUP1 SLOAD PUSH1 0x1 PUSH1 0x1 PUSH1 0xA0 SHL SUB NOT AND PUSH1 0x1 PUSH1 0x1 PUSH1 0xA0 SHL SUB DUP4 AND SWAP1 DUP2 OR SWAP1 SWAP2 SSTORE PUSH1 0x40 DUP1 MLOAD DUP6 DUP2 MSTORE PUSH1 0x20 DUP2 ADD DUP6 SWAP1 MSTORE SWAP1 DUP2 ADD SWAP2 SWAP1 SWAP2 MSTORE PUSH32 0x2C13EC80363C5C6ACCA850E78E87C50C5F15AE0398A319963393EEB01C11045D SWAP1 PUSH1 0x60 ADD PUSH1 0x40 MLOAD DUP1 SWAP2 SUB SWAP1 LOG1 POP POP POP JUMP JUMPDEST PUSH2 0x1C10 PUSH1 0x9 SLOAD PUSH2 0x1E2A JUMP JUMPDEST PUSH2 0x1C18 JUMPI PUSH0 DUP1 REVERT JUMPDEST PUSH1 0x12 SLOAD PUSH1 0xF SLOAD PUSH1 0x10 SLOAD PUSH4 0xFFFFFFFF DUP5 AND PUSH0 SWAP1 DUP2 MSTORE PUSH1 0xA PUSH1 0x20 MSTORE PUSH1 0x40 SWAP1 KECCAK256 PUSH1 0x1 ADD SLOAD PUSH1 0x1 PUSH1 0x1 PUSH1 0xA0 SHL SUB SWAP1 SWAP4 AND SWAP3 PUSH4 0xA7FED925 SWAP3 SWAP2 SWAP1 PUSH2 0x1C68 SWAP1 PUSH1 0x1 PUSH1 0x80 SHL SWAP1 DIV PUSH1 0x1 PUSH1 0x1 PUSH1 0x78 SHL SUB AND PUSH1 0x2 PUSH2 0x300C JUMP JUMPDEST PUSH2 0x1C76 SWAP1 PUSH1 0x1 PUSH1 0x80 SHL PUSH2 0x2DD7 JUMP JUMPDEST PUSH2 0x1C81 SWAP1 PUSH1 0xA PUSH2 0x2E29 JUMP JUMPDEST PUSH1 0x40 MLOAD PUSH1 0x1 PUSH1 0x1 PUSH1 0xE0 SHL SUB NOT PUSH1 0xE0 DUP7 SWAP1 SHL AND DUP2 MSTORE PUSH1 0x4 DUP2 ADD SWAP4 SWAP1 SWAP4 MSTORE PUSH1 0x24 DUP4 ADD SWAP2 SWAP1 SWAP2 MSTORE PUSH1 0x44 DUP3 ADD MSTORE PUSH1 0x64 ADD PUSH1 0x20 PUSH1 0x40 MLOAD DUP1 DUP4 SUB DUP2 DUP7 GAS STATICCALL ISZERO DUP1 ISZERO PUSH2 0x1CC8 JUMPI RETURNDATASIZE PUSH0 DUP1 RETURNDATACOPY RETURNDATASIZE PUSH0 REVERT JUMPDEST POP POP POP POP PUSH1 0x40 MLOAD RETURNDATASIZE PUSH1 0x1F NOT PUSH1 0x1F DUP3 ADD AND DUP3 ADD DUP1 PUSH1 0x40 MSTORE POP DUP2 ADD SWAP1 PUSH2 0x1CEC SWAP2 SWAP1 PUSH2 0x2D91 JUMP JUMPDEST DUP1 ISZERO PUSH2 0x1D14 JUMPI POP PUSH4 0xFFFFFFFF DUP2 AND PUSH0 SWAP1 DUP2 MSTORE PUSH1 0xA PUSH1 0x20 MSTORE PUSH1 0x40 SWAP1 KECCAK256 SLOAD PUSH1 0x1 PUSH1 0x1 PUSH1 0xA0 SHL SUB AND CALLER EQ JUMPDEST PUSH2 0x1D1C JUMPI PUSH0 DUP1 REVERT JUMPDEST PUSH4 0xFFFFFFFF DUP2 AND PUSH0 SWAP1 DUP2 MSTORE PUSH1 0xA PUSH1 0x20 MSTORE PUSH1 0x40 DUP2 KECCAK256 PUSH1 0x1 ADD SLOAD PUSH2 0x1D51 SWAP1 PUSH1 0xFF PUSH1 0x1 PUSH1 0xF8 SHL DUP3 DIV AND SWAP1 PUSH1 0x1 PUSH1 0x1 PUSH1 0x80 SHL SUB AND PUSH2 0x3020 JUMP JUMPDEST PUSH4 0xFFFFFFFF DUP4 AND PUSH0 SWAP1 DUP2 MSTORE PUSH1 0xA PUSH1 0x20 MSTORE PUSH1 0x40 DUP2 KECCAK256 PUSH1 0x1 ADD DUP1 SLOAD SWAP3 SWAP4 POP DUP4 SWAP3 SWAP1 SWAP2 SWAP1 PUSH2 0x1D86 SWAP1 DUP5 SWAP1 PUSH1 0x1 PUSH1 0x1 PUSH1 0x80 SHL SUB AND PUSH2 0x2E0A JUMP JUMPDEST SWAP3 POP PUSH2 0x100 EXP DUP2 SLOAD DUP2 PUSH1 0x1 PUSH1 0x1 PUSH1 0x80 SHL SUB MUL NOT AND SWAP1 DUP4 PUSH1 0x1 PUSH1 0x1 PUSH1 0x80 SHL SUB AND MUL OR SWAP1 SSTORE POP PUSH1 0x1 PUSH1 0xA PUSH0 DUP5 PUSH4 0xFFFFFFFF AND PUSH4 0xFFFFFFFF AND DUP2 MSTORE PUSH1 0x20 ADD SWAP1 DUP2 MSTORE PUSH1 0x20 ADD PUSH0 KECCAK256 PUSH1 0x1 ADD PUSH1 0x10 DUP3 DUP3 DUP3 SWAP1 SLOAD SWAP1 PUSH2 0x100 EXP SWAP1 DIV PUSH1 0x1 PUSH1 0x1 PUSH1 0x78 SHL SUB AND PUSH2 0x1DED SWAP2 SWAP1 PUSH2 0x304D JUMP JUMPDEST SWAP3 POP PUSH2 0x100 EXP DUP2 SLOAD DUP2 PUSH1 0x1 PUSH1 0x1 PUSH1 0x78 SHL SUB MUL NOT AND SWAP1 DUP4 PUSH1 0x1 PUSH1 0x1 PUSH1 0x78 SHL SUB AND MUL OR SWAP1 SSTORE POP PUSH2 0x8A6 PUSH2 0x1E1B CALLER SWAP1 JUMP JUMPDEST DUP3 PUSH1 0x1 PUSH1 0x1 PUSH1 0x80 SHL SUB AND PUSH2 0x20D3 JUMP JUMPDEST PUSH0 PUSH1 0xFF DUP3 SWAP1 SHR PUSH1 0x1 DUP2 EQ PUSH2 0x1E3E JUMPI PUSH0 PUSH2 0x1E41 JUMP JUMPDEST PUSH1 0x1 JUMPDEST SWAP4 SWAP3 POP POP POP JUMP JUMPDEST PUSH0 PUSH1 0x80 DUP3 DUP2 SAR SWAP1 DUP5 SWAP1 SAR SUB PUSH1 0x1 PUSH1 0x1 PUSH1 0x80 SHL SUB DUP4 DUP2 AND SWAP1 DUP6 AND SUB PUSH2 0x1E77 PUSH2 0x1E6E DUP4 PUSH2 0x273F JUMP JUMPDEST PUSH2 0xDF4 DUP4 PUSH2 0x273F JUMP JUMPDEST SWAP6 SWAP5 POP POP POP POP POP JUMP JUMPDEST PUSH1 0x1 PUSH1 0x1 PUSH1 0xA0 SHL SUB DUP4 AND PUSH2 0x1EE2 JUMPI PUSH1 0x40 MLOAD PUSH3 0x461BCD PUSH1 0xE5 SHL DUP2 MSTORE PUSH1 0x20 PUSH1 0x4 DUP3 ADD MSTORE PUSH1 0x24 DUP1 DUP3 ADD MSTORE PUSH32 0x45524332303A20617070726F76652066726F6D20746865207A65726F20616464 PUSH1 0x44 DUP3 ADD MSTORE PUSH4 0x72657373 PUSH1 0xE0 SHL PUSH1 0x64 DUP3 ADD MSTORE PUSH1 0x84 ADD PUSH2 0x164A JUMP JUMPDEST PUSH1 0x1 PUSH1 0x1 PUSH1 0xA0 SHL SUB DUP3 AND PUSH2 0x1F43 JUMPI PUSH1 0x40 MLOAD PUSH3 0x461BCD PUSH1 0xE5 SHL DUP2 MSTORE PUSH1 0x20 PUSH1 0x4 DUP3 ADD MSTORE PUSH1 0x22 PUSH1 0x24 DUP3 ADD MSTORE PUSH32 0x45524332303A20617070726F766520746F20746865207A65726F206164647265 PUSH1 0x44 DUP3 ADD MSTORE PUSH2 0x7373 PUSH1 0xF0 SHL PUSH1 0x64 DUP3 ADD MSTORE PUSH1 0x84 ADD PUSH2 0x164A JUMP JUMPDEST PUSH1 0x1 PUSH1 0x1 PUSH1 0xA0 SHL SUB DUP4 DUP2 AND PUSH0 DUP2 DUP2 MSTORE PUSH1 0x1 PUSH1 0x20 SWAP1 DUP2 MSTORE PUSH1 0x40 DUP1 DUP4 KECCAK256 SWAP5 DUP8 AND DUP1 DUP5 MSTORE SWAP5 DUP3 MSTORE SWAP2 DUP3 SWAP1 KECCAK256 DUP6 SWAP1 SSTORE SWAP1 MLOAD DUP5 DUP2 MSTORE PUSH32 0x8C5BE1E5EBEC7D5BD14F71427D1E84F3DD0314C0F7B2291E5B200AC8C7C3B925 SWAP2 ADD PUSH1 0x40 MLOAD DUP1 SWAP2 SUB SWAP1 LOG3 POP POP POP JUMP JUMPDEST PUSH1 0x1 PUSH1 0x1 PUSH1 0xA0 SHL SUB DUP3 AND PUSH2 0x2003 JUMPI PUSH1 0x40 MLOAD PUSH3 0x461BCD PUSH1 0xE5 SHL DUP2 MSTORE PUSH1 0x20 PUSH1 0x4 DUP3 ADD MSTORE PUSH1 0x21 PUSH1 0x24 DUP3 ADD MSTORE PUSH32 0x45524332303A206275726E2066726F6D20746865207A65726F20616464726573 PUSH1 0x44 DUP3 ADD MSTORE PUSH1 0x73 PUSH1 0xF8 SHL PUSH1 0x64 DUP3 ADD MSTORE PUSH1 0x84 ADD PUSH2 0x164A JUMP JUMPDEST PUSH1 0x1 PUSH1 0x1 PUSH1 0xA0 SHL SUB DUP3 AND PUSH0 SWAP1 DUP2 MSTORE PUSH1 0x20 DUP2 SWAP1 MSTORE PUSH1 0x40 SWAP1 KECCAK256 SLOAD DUP2 DUP2 LT ISZERO PUSH2 0x2076 JUMPI PUSH1 0x40 MLOAD PUSH3 0x461BCD PUSH1 0xE5 SHL DUP2 MSTORE PUSH1 0x20 PUSH1 0x4 DUP3 ADD MSTORE PUSH1 0x22 PUSH1 0x24 DUP3 ADD MSTORE PUSH32 0x45524332303A206275726E20616D6F756E7420657863656564732062616C616E PUSH1 0x44 DUP3 ADD MSTORE PUSH2 0x6365 PUSH1 0xF0 SHL PUSH1 0x64 DUP3 ADD MSTORE PUSH1 0x84 ADD PUSH2 0x164A JUMP JUMPDEST PUSH1 0x1 PUSH1 0x1 PUSH1 0xA0 SHL SUB DUP4 AND PUSH0 DUP2 DUP2 MSTORE PUSH1 0x20 DUP2 DUP2 MSTORE PUSH1 0x40 DUP1 DUP4 KECCAK256 DUP7 DUP7 SUB SWAP1 SSTORE PUSH1 0x2 DUP1 SLOAD DUP8 SWAP1 SUB SWAP1 SSTORE MLOAD DUP6 DUP2 MSTORE SWAP2 SWAP3 SWAP2 PUSH32 0xDDF252AD1BE2C89B69C2B068FC378DAA952BA7F163C4A11628F55A4DF523B3EF SWAP2 ADD PUSH1 0x40 MLOAD DUP1 SWAP2 SUB SWAP1 LOG3 POP POP POP JUMP JUMPDEST PUSH1 0x1 PUSH1 0x1 PUSH1 0xA0 SHL SUB DUP3 AND PUSH2 0x2129 JUMPI PUSH1 0x40 MLOAD PUSH3 0x461BCD PUSH1 0xE5 SHL DUP2 MSTORE PUSH1 0x20 PUSH1 0x4 DUP3 ADD MSTORE PUSH1 0x1F PUSH1 0x24 DUP3 ADD MSTORE PUSH32 0x45524332303A206D696E7420746F20746865207A65726F206164647265737300 PUSH1 0x44 DUP3 ADD MSTORE PUSH1 0x64 ADD PUSH2 0x164A JUMP JUMPDEST DUP1 PUSH1 0x2 PUSH0 DUP3 DUP3 SLOAD PUSH2 0x213A SWAP2 SWAP1 PUSH2 0x2E29 JUMP JUMPDEST SWAP1 SWAP2 SSTORE POP POP PUSH1 0x1 PUSH1 0x1 PUSH1 0xA0 SHL SUB DUP3 AND PUSH0 DUP2 DUP2 MSTORE PUSH1 0x20 DUP2 DUP2 MSTORE PUSH1 0x40 DUP1 DUP4 KECCAK256 DUP1 SLOAD DUP7 ADD SWAP1 SSTORE MLOAD DUP5 DUP2 MSTORE PUSH32 0xDDF252AD1BE2C89B69C2B068FC378DAA952BA7F163C4A11628F55A4DF523B3EF SWAP2 ADD PUSH1 0x40 MLOAD DUP1 SWAP2 SUB SWAP1 LOG3 POP POP JUMP JUMPDEST TIMESTAMP PUSH2 0x219D PUSH1 0xB SLOAD PUSH1 0x80 SHR SWAP1 JUMP JUMPDEST PUSH2 0x21AA SWAP1 PUSH3 0x15180 PUSH2 0x2D72 JUMP JUMPDEST PUSH1 0x1 PUSH1 0x1 PUSH1 0x80 SHL SUB AND LT ISZERO PUSH2 0x2257 JUMPI PUSH1 0xB SLOAD PUSH2 0x21CB SWAP1 PUSH2 0x2A3 PUSH1 0x87 SHL PUSH2 0x226A JUMP JUMPDEST PUSH1 0xB SSTORE PUSH0 PUSH6 0x2D79883D2000 PUSH2 0x21DF PUSH1 0x2 SLOAD SWAP1 JUMP JUMPDEST GT PUSH2 0x21EE JUMPI PUSH4 0xA34CE6CB PUSH2 0x2204 JUMP JUMPDEST PUSH2 0x477C PUSH2 0x21FA PUSH1 0x2 SLOAD SWAP1 JUMP JUMPDEST PUSH2 0x2204 SWAP2 SWAP1 PUSH2 0x2DC4 JUMP JUMPDEST PUSH1 0xC SLOAD SWAP1 SWAP2 POP PUSH2 0x2218 SWAP1 PUSH1 0x80 DUP4 SWAP1 SHL PUSH2 0x226A JUMP JUMPDEST PUSH1 0xC DUP2 SWAP1 SSTORE PUSH1 0xB SLOAD PUSH1 0x40 MLOAD PUSH32 0x8288D0D3063EBA413CF9EEA42DF98C32074B7B6D554ADF408BDB0546E468C404 SWAP3 PUSH2 0x11AB SWAP3 SWAP1 DUP3 MSTORE PUSH1 0x20 DUP3 ADD MSTORE PUSH1 0x40 ADD SWAP1 JUMP JUMPDEST JUMP JUMPDEST SWAP2 DUP2 MUL SWAP2 PUSH0 DUP2 DUP5 DIV PUSH2 0x1E77 DUP2 PUSH2 0x273F JUMP JUMPDEST PUSH0 PUSH1 0x80 DUP3 DUP2 SAR SWAP1 DUP5 SWAP1 SAR ADD PUSH1 0x1 PUSH1 0x1 PUSH1 0x80 SHL SUB DUP4 DUP2 AND SWAP1 DUP6 AND ADD PUSH2 0x1E77 PUSH2 0x1E6E DUP4 PUSH2 0x273F JUMP JUMPDEST PUSH0 PUSH2 0x229B DUP5 DUP5 PUSH2 0x19E9 JUMP JUMPDEST SWAP1 POP PUSH0 NOT DUP2 EQ PUSH2 0x2302 JUMPI DUP2 DUP2 LT ISZERO PUSH2 0x22F5 JUMPI PUSH1 0x40 MLOAD PUSH3 0x461BCD PUSH1 0xE5 SHL DUP2 MSTORE PUSH1 0x20 PUSH1 0x4 DUP3 ADD MSTORE PUSH1 0x1D PUSH1 0x24 DUP3 ADD MSTORE PUSH32 0x45524332303A20696E73756666696369656E7420616C6C6F77616E6365000000 PUSH1 0x44 DUP3 ADD MSTORE PUSH1 0x64 ADD PUSH2 0x164A JUMP JUMPDEST PUSH2 0x2302 DUP5 DUP5 DUP5 DUP5 SUB PUSH2 0x1E80 JUMP JUMPDEST POP POP POP POP JUMP JUMPDEST PUSH1 0x1 PUSH1 0x1 PUSH1 0xA0 SHL SUB DUP4 AND PUSH2 0x236C JUMPI PUSH1 0x40 MLOAD PUSH3 0x461BCD PUSH1 0xE5 SHL DUP2 MSTORE PUSH1 0x20 PUSH1 0x4 DUP3 ADD MSTORE PUSH1 0x25 PUSH1 0x24 DUP3 ADD MSTORE PUSH32 0x45524332303A207472616E736665722066726F6D20746865207A65726F206164 PUSH1 0x44 DUP3 ADD MSTORE PUSH5 0x6472657373 PUSH1 0xD8 SHL PUSH1 0x64 DUP3 ADD MSTORE PUSH1 0x84 ADD PUSH2 0x164A JUMP JUMPDEST PUSH1 0x1 PUSH1 0x1 PUSH1 0xA0 SHL SUB DUP3 AND PUSH2 0x23CE JUMPI PUSH1 0x40 MLOAD PUSH3 0x461BCD PUSH1 0xE5 SHL DUP2 MSTORE PUSH1 0x20 PUSH1 0x4 DUP3 ADD MSTORE PUSH1 0x23 PUSH1 0x24 DUP3 ADD MSTORE PUSH32 0x45524332303A207472616E7366657220746F20746865207A65726F2061646472 PUSH1 0x44 DUP3 ADD MSTORE PUSH3 0x657373 PUSH1 0xE8 SHL PUSH1 0x64 DUP3 ADD MSTORE PUSH1 0x84 ADD PUSH2 0x164A JUMP JUMPDEST PUSH1 0x1 PUSH1 0x1 PUSH1 0xA0 SHL SUB DUP4 AND PUSH0 SWAP1 DUP2 MSTORE PUSH1 0x20 DUP2 SWAP1 MSTORE PUSH1 0x40 SWAP1 KECCAK256 SLOAD DUP2 DUP2 LT ISZERO PUSH2 0x2445 JUMPI PUSH1 0x40 MLOAD PUSH3 0x461BCD PUSH1 0xE5 SHL DUP2 MSTORE PUSH1 0x20 PUSH1 0x4 DUP3 ADD MSTORE PUSH1 0x26 PUSH1 0x24 DUP3 ADD MSTORE PUSH32 0x45524332303A207472616E7366657220616D6F756E7420657863656564732062 PUSH1 0x44 DUP3 ADD MSTORE PUSH6 0x616C616E6365 PUSH1 0xD0 SHL PUSH1 0x64 DUP3 ADD MSTORE PUSH1 0x84 ADD PUSH2 0x164A JUMP JUMPDEST PUSH1 0x1 PUSH1 0x1 PUSH1 0xA0 SHL SUB DUP5 DUP2 AND PUSH0 DUP2 DUP2 MSTORE PUSH1 0x20 DUP2 DUP2 MSTORE PUSH1 0x40 DUP1 DUP4 KECCAK256 DUP8 DUP8 SUB SWAP1 SSTORE SWAP4 DUP8 AND DUP1 DUP4 MSTORE SWAP2 DUP5 SWAP1 KECCAK256 DUP1 SLOAD DUP8 ADD SWAP1 SSTORE SWAP3 MLOAD DUP6 DUP2 MSTORE SWAP1 SWAP3 PUSH32 0xDDF252AD1BE2C89B69C2B068FC378DAA952BA7F163C4A11628F55A4DF523B3EF SWAP2 ADD PUSH1 0x40 MLOAD DUP1 SWAP2 SUB SWAP1 LOG3 PUSH2 0x2302 JUMP JUMPDEST PUSH0 ADDRESS PUSH1 0x1 PUSH1 0x1 PUSH1 0xA0 SHL SUB PUSH32 0x0 AND EQ DUP1 ISZERO PUSH2 0x2502 JUMPI POP PUSH32 0x0 CHAINID EQ JUMPDEST ISZERO PUSH2 0x252C JUMPI POP PUSH32 0x0 SWAP1 JUMP JUMPDEST PUSH2 0xF98 PUSH1 0x40 DUP1 MLOAD PUSH32 0x8B73C3C69BB8FE3D512ECC4CF759CC79239F7B179B0FFACAA9A75D522B39400F PUSH1 0x20 DUP3 ADD MSTORE PUSH32 0x0 SWAP2 DUP2 ADD SWAP2 SWAP1 SWAP2 MSTORE PUSH32 0x0 PUSH1 0x60 DUP3 ADD MSTORE CHAINID PUSH1 0x80 DUP3 ADD MSTORE ADDRESS PUSH1 0xA0 DUP3 ADD MSTORE PUSH0 SWAP1 PUSH1 0xC0 ADD PUSH1 0x40 MLOAD PUSH1 0x20 DUP2 DUP4 SUB SUB DUP2 MSTORE SWAP1 PUSH1 0x40 MSTORE DUP1 MLOAD SWAP1 PUSH1 0x20 ADD KECCAK256 SWAP1 POP SWAP1 JUMP JUMPDEST PUSH0 PUSH2 0x1E41 DUP4 PUSH1 0x1 PUSH1 0x1 PUSH1 0x80 SHL SUB AND DUP4 PUSH1 0x1 PUSH1 0x1 PUSH1 0x80 SHL SUB AND PUSH2 0xB4C DUP7 PUSH1 0x80 SHR SWAP1 JUMP JUMPDEST PUSH0 PUSH2 0x1E41 PUSH2 0x2603 DUP5 PUSH1 0x80 SHR SWAP1 JUMP JUMPDEST PUSH1 0x1 PUSH1 0x1 PUSH1 0x80 SHL SUB AND DUP4 PUSH1 0x1 PUSH1 0x1 PUSH1 0x80 SHL SUB AND PUSH2 0xB4C DUP7 SWAP1 JUMP JUMPDEST PUSH1 0x60 PUSH1 0xFF DUP4 EQ PUSH2 0x2637 JUMPI PUSH2 0x2630 DUP4 PUSH2 0x2759 JUMP JUMPDEST SWAP1 POP PUSH2 0x85D JUMP JUMPDEST DUP2 DUP1 SLOAD PUSH2 0x2643 SWAP1 PUSH2 0x2D2C JUMP JUMPDEST DUP1 PUSH1 0x1F ADD PUSH1 0x20 DUP1 SWAP2 DIV MUL PUSH1 0x20 ADD PUSH1 0x40 MLOAD SWAP1 DUP2 ADD PUSH1 0x40 MSTORE DUP1 SWAP3 SWAP2 SWAP1 DUP2 DUP2 MSTORE PUSH1 0x20 ADD DUP3 DUP1 SLOAD PUSH2 0x266F SWAP1 PUSH2 0x2D2C JUMP JUMPDEST DUP1 ISZERO PUSH2 0x26BA JUMPI DUP1 PUSH1 0x1F LT PUSH2 0x2691 JUMPI PUSH2 0x100 DUP1 DUP4 SLOAD DIV MUL DUP4 MSTORE SWAP2 PUSH1 0x20 ADD SWAP2 PUSH2 0x26BA JUMP JUMPDEST DUP3 ADD SWAP2 SWAP1 PUSH0 MSTORE PUSH1 0x20 PUSH0 KECCAK256 SWAP1 JUMPDEST DUP2 SLOAD DUP2 MSTORE SWAP1 PUSH1 0x1 ADD SWAP1 PUSH1 0x20 ADD DUP1 DUP4 GT PUSH2 0x269D JUMPI DUP3 SWAP1 SUB PUSH1 0x1F AND DUP3 ADD SWAP2 JUMPDEST POP POP POP POP POP SWAP1 POP PUSH2 0x85D JUMP JUMPDEST PUSH1 0x1 PUSH1 0x1 PUSH1 0xA0 SHL SUB DUP2 AND PUSH0 SWAP1 DUP2 MSTORE PUSH1 0x7 PUSH1 0x20 MSTORE PUSH1 0x40 SWAP1 KECCAK256 DUP1 SLOAD PUSH1 0x1 DUP2 ADD DUP3 SSTORE SWAP1 JUMPDEST POP SWAP2 SWAP1 POP JUMP JUMPDEST PUSH0 PUSH2 0x85D PUSH2 0x26F9 PUSH2 0x24AA JUMP JUMPDEST DUP4 PUSH1 0x40 MLOAD PUSH2 0x1901 PUSH1 0xF0 SHL DUP2 MSTORE PUSH1 0x2 DUP2 ADD SWAP3 SWAP1 SWAP3 MSTORE PUSH1 0x22 DUP3 ADD MSTORE PUSH1 0x42 SWAP1 KECCAK256 SWAP1 JUMP JUMPDEST PUSH0 DUP1 PUSH0 PUSH2 0x2728 DUP8 DUP8 DUP8 DUP8 PUSH2 0x2796 JUMP JUMPDEST SWAP2 POP SWAP2 POP PUSH2 0x2735 DUP2 PUSH2 0x2853 JUMP JUMPDEST POP SWAP6 SWAP5 POP POP POP POP POP JUMP JUMPDEST PUSH0 PUSH1 0x1 PUSH1 0x1 PUSH1 0x80 SHL SUB DUP3 GT ISZERO PUSH2 0x2755 JUMPI PUSH0 PUSH2 0x85D JUMP JUMPDEST POP SWAP1 JUMP JUMPDEST PUSH1 0x60 PUSH0 PUSH2 0x2765 DUP4 PUSH2 0x299C JUMP JUMPDEST PUSH1 0x40 DUP1 MLOAD PUSH1 0x20 DUP1 DUP3 MSTORE DUP2 DUP4 ADD SWAP1 SWAP3 MSTORE SWAP2 SWAP3 POP PUSH0 SWAP2 SWAP1 PUSH1 0x20 DUP3 ADD DUP2 DUP1 CALLDATASIZE DUP4 CALLDATACOPY POP POP POP SWAP2 DUP3 MSTORE POP PUSH1 0x20 DUP2 ADD SWAP3 SWAP1 SWAP3 MSTORE POP SWAP1 JUMP JUMPDEST PUSH0 DUP1 PUSH32 0x7FFFFFFFFFFFFFFFFFFFFFFFFFFFFFFF5D576E7357A4501DDFE92F46681B20A0 DUP4 GT ISZERO PUSH2 0x27CB JUMPI POP PUSH0 SWAP1 POP PUSH1 0x3 PUSH2 0x284A JUMP JUMPDEST PUSH1 0x40 DUP1 MLOAD PUSH0 DUP1 DUP3 MSTORE PUSH1 0x20 DUP3 ADD DUP1 DUP5 MSTORE DUP10 SWAP1 MSTORE PUSH1 0xFF DUP9 AND SWAP3 DUP3 ADD SWAP3 SWAP1 SWAP3 MSTORE PUSH1 0x60 DUP2 ADD DUP7 SWAP1 MSTORE PUSH1 0x80 DUP2 ADD DUP6 SWAP1 MSTORE PUSH1 0x1 SWAP1 PUSH1 0xA0 ADD PUSH1 0x20 PUSH1 0x40 MLOAD PUSH1 0x20 DUP2 SUB SWAP1 DUP1 DUP5 SUB SWAP1 DUP6 GAS STATICCALL ISZERO DUP1 ISZERO PUSH2 0x281C JUMPI RETURNDATASIZE PUSH0 DUP1 RETURNDATACOPY RETURNDATASIZE PUSH0 REVERT JUMPDEST POP POP PUSH1 0x40 MLOAD PUSH1 0x1F NOT ADD MLOAD SWAP2 POP POP PUSH1 0x1 PUSH1 0x1 PUSH1 0xA0 SHL SUB DUP2 AND PUSH2 0x2844 JUMPI PUSH0 PUSH1 0x1 SWAP3 POP SWAP3 POP POP PUSH2 0x284A JUMP JUMPDEST SWAP2 POP PUSH0 SWAP1 POP JUMPDEST SWAP5 POP SWAP5 SWAP3 POP POP POP JUMP JUMPDEST PUSH0 DUP2 PUSH1 0x4 DUP2 GT ISZERO PUSH2 0x2866 JUMPI PUSH2 0x2866 PUSH2 0x306C JUMP JUMPDEST SUB PUSH2 0x286E JUMPI POP JUMP JUMPDEST PUSH1 0x1 DUP2 PUSH1 0x4 DUP2 GT ISZERO PUSH2 0x2882 JUMPI PUSH2 0x2882 PUSH2 0x306C JUMP JUMPDEST SUB PUSH2 0x28CF JUMPI PUSH1 0x40 MLOAD PUSH3 0x461BCD PUSH1 0xE5 SHL DUP2 MSTORE PUSH1 0x20 PUSH1 0x4 DUP3 ADD MSTORE PUSH1 0x18 PUSH1 0x24 DUP3 ADD MSTORE PUSH32 0x45434453413A20696E76616C6964207369676E61747572650000000000000000 PUSH1 0x44 DUP3 ADD MSTORE PUSH1 0x64 ADD PUSH2 0x164A JUMP JUMPDEST PUSH1 0x2 DUP2 PUSH1 0x4 DUP2 GT ISZERO PUSH2 0x28E3 JUMPI PUSH2 0x28E3 PUSH2 0x306C JUMP JUMPDEST SUB PUSH2 0x2930 JUMPI PUSH1 0x40 MLOAD PUSH3 0x461BCD PUSH1 0xE5 SHL DUP2 MSTORE PUSH1 0x20 PUSH1 0x4 DUP3 ADD MSTORE PUSH1 0x1F PUSH1 0x24 DUP3 ADD MSTORE PUSH32 0x45434453413A20696E76616C6964207369676E6174757265206C656E67746800 PUSH1 0x44 DUP3 ADD MSTORE PUSH1 0x64 ADD PUSH2 0x164A JUMP JUMPDEST PUSH1 0x3 DUP2 PUSH1 0x4 DUP2 GT ISZERO PUSH2 0x2944 JUMPI PUSH2 0x2944 PUSH2 0x306C JUMP JUMPDEST SUB PUSH2 0xABC JUMPI PUSH1 0x40 MLOAD PUSH3 0x461BCD PUSH1 0xE5 SHL DUP2 MSTORE PUSH1 0x20 PUSH1 0x4 DUP3 ADD MSTORE PUSH1 0x22 PUSH1 0x24 DUP3 ADD MSTORE PUSH32 0x45434453413A20696E76616C6964207369676E6174757265202773272076616C PUSH1 0x44 DUP3 ADD MSTORE PUSH2 0x7565 PUSH1 0xF0 SHL PUSH1 0x64 DUP3 ADD MSTORE PUSH1 0x84 ADD PUSH2 0x164A JUMP JUMPDEST PUSH0 PUSH1 0xFF DUP3 AND PUSH1 0x1F DUP2 GT ISZERO PUSH2 0x85D JUMPI PUSH1 0x40 MLOAD PUSH4 0x2CD44AC3 PUSH1 0xE2 SHL DUP2 MSTORE PUSH1 0x4 ADD PUSH1 0x40 MLOAD DUP1 SWAP2 SUB SWAP1 REVERT JUMPDEST DUP1 CALLDATALOAD PUSH4 0xFFFFFFFF DUP2 AND DUP2 EQ PUSH2 0x29D6 JUMPI PUSH0 DUP1 REVERT JUMPDEST SWAP2 SWAP1 POP JUMP JUMPDEST PUSH1 0x1 PUSH1 0x1 PUSH1 0x80 SHL SUB DUP2 AND DUP2 EQ PUSH2 0xABC JUMPI PUSH0 DUP1 REVERT JUMPDEST PUSH0 DUP1 PUSH1 0x40 DUP4 DUP6 SUB SLT ISZERO PUSH2 0x2A00 JUMPI PUSH0 DUP1 REVERT JUMPDEST PUSH2 0x2A09 DUP4 PUSH2 0x29C3 JUMP JUMPDEST SWAP2 POP PUSH1 0x20 DUP4 ADD CALLDATALOAD PUSH2 0x2A19 DUP2 PUSH2 0x29DB JUMP JUMPDEST DUP1 SWAP2 POP POP SWAP3 POP SWAP3 SWAP1 POP JUMP JUMPDEST PUSH0 DUP2 MLOAD DUP1 DUP5 MSTORE DUP1 PUSH1 0x20 DUP5 ADD PUSH1 0x20 DUP7 ADD MCOPY PUSH0 PUSH1 0x20 DUP3 DUP7 ADD ADD MSTORE PUSH1 0x20 PUSH1 0x1F NOT PUSH1 0x1F DUP4 ADD AND DUP6 ADD ADD SWAP2 POP POP SWAP3 SWAP2 POP POP JUMP JUMPDEST PUSH1 0x20 DUP2 MSTORE PUSH0 PUSH2 0x1E41 PUSH1 0x20 DUP4 ADD DUP5 PUSH2 0x2A24 JUMP JUMPDEST PUSH1 0x1 PUSH1 0x1 PUSH1 0xA0 SHL SUB DUP2 AND DUP2 EQ PUSH2 0xABC JUMPI PUSH0 DUP1 REVERT JUMPDEST PUSH0 DUP1 PUSH1 0x40 DUP4 DUP6 SUB SLT ISZERO PUSH2 0x2A89 JUMPI PUSH0 DUP1 REVERT JUMPDEST DUP3 CALLDATALOAD PUSH2 0x2A94 DUP2 PUSH2 0x2A64 JUMP JUMPDEST SWAP5 PUSH1 0x20 SWAP4 SWAP1 SWAP4 ADD CALLDATALOAD SWAP4 POP POP POP JUMP JUMPDEST PUSH0 DUP1 PUSH1 0x40 DUP4 DUP6 SUB SLT ISZERO PUSH2 0x2AB3 JUMPI PUSH0 DUP1 REVERT JUMPDEST DUP3 CALLDATALOAD PUSH2 0x2ABE DUP2 PUSH2 0x29DB JUMP JUMPDEST SWAP2 POP PUSH1 0x20 DUP4 ADD CALLDATALOAD PUSH2 0x2A19 DUP2 PUSH2 0x2A64 JUMP JUMPDEST PUSH0 PUSH1 0x20 DUP3 DUP5 SUB SLT ISZERO PUSH2 0x2ADE JUMPI PUSH0 DUP1 REVERT JUMPDEST POP CALLDATALOAD SWAP2 SWAP1 POP JUMP JUMPDEST PUSH0 DUP1 PUSH1 0x40 DUP4 DUP6 SUB SLT ISZERO PUSH2 0x2AF6 JUMPI PUSH0 DUP1 REVERT JUMPDEST DUP3 CALLDATALOAD PUSH2 0x2A09 DUP2 PUSH2 0x2A64 JUMP JUMPDEST PUSH0 DUP1 PUSH0 PUSH1 0x60 DUP5 DUP7 SUB SLT ISZERO PUSH2 0x2B13 JUMPI PUSH0 DUP1 REVERT JUMPDEST DUP4 CALLDATALOAD PUSH2 0x2B1E DUP2 PUSH2 0x2A64 JUMP JUMPDEST SWAP3 POP PUSH1 0x20 DUP5 ADD CALLDATALOAD PUSH2 0x2B2E DUP2 PUSH2 0x2A64 JUMP JUMPDEST SWAP3 SWAP6 SWAP3 SWAP5 POP POP POP PUSH1 0x40 SWAP2 SWAP1 SWAP2 ADD CALLDATALOAD SWAP1 JUMP JUMPDEST PUSH0 PUSH1 0x80 DUP3 DUP5 SUB SLT DUP1 ISZERO PUSH2 0x2B50 JUMPI PUSH0 DUP1 REVERT JUMPDEST POP SWAP1 SWAP3 SWAP2 POP POP JUMP JUMPDEST PUSH0 PUSH1 0x20 DUP3 DUP5 SUB SLT ISZERO PUSH2 0x2B68 JUMPI PUSH0 DUP1 REVERT JUMPDEST DUP2 CALLDATALOAD PUSH2 0x1E41 DUP2 PUSH2 0x2A64 JUMP JUMPDEST PUSH0 PUSH1 0x20 DUP3 DUP5 SUB SLT ISZERO PUSH2 0x2B83 JUMPI PUSH0 DUP1 REVERT JUMPDEST DUP2 CALLDATALOAD PUSH2 0x1E41 DUP2 PUSH2 0x29DB JUMP JUMPDEST PUSH0 PUSH1 0x20 DUP3 DUP5 SUB SLT ISZERO PUSH2 0x2B9E JUMPI PUSH0 DUP1 REVERT JUMPDEST PUSH2 0x1E41 DUP3 PUSH2 0x29C3 JUMP JUMPDEST PUSH1 0xFF PUSH1 0xF8 SHL DUP9 AND DUP2 MSTORE PUSH1 0xE0 PUSH1 0x20 DUP3 ADD MSTORE PUSH0 PUSH2 0x2BC5 PUSH1 0xE0 DUP4 ADD DUP10 PUSH2 0x2A24 JUMP JUMPDEST DUP3 DUP2 SUB PUSH1 0x40 DUP5 ADD MSTORE PUSH2 0x2BD7 DUP2 DUP10 PUSH2 0x2A24 JUMP JUMPDEST PUSH1 0x60 DUP5 ADD DUP9 SWAP1 MSTORE PUSH1 0x1 PUSH1 0x1 PUSH1 0xA0 SHL SUB DUP8 AND PUSH1 0x80 DUP6 ADD MSTORE PUSH1 0xA0 DUP5 ADD DUP7 SWAP1 MSTORE DUP4 DUP2 SUB PUSH1 0xC0 DUP6 ADD MSTORE DUP5 MLOAD DUP1 DUP3 MSTORE PUSH1 0x20 DUP1 DUP8 ADD SWAP4 POP SWAP1 SWAP2 ADD SWAP1 PUSH0 JUMPDEST DUP2 DUP2 LT ISZERO PUSH2 0x2C2C JUMPI DUP4 MLOAD DUP4 MSTORE PUSH1 0x20 SWAP4 DUP5 ADD SWAP4 SWAP1 SWAP3 ADD SWAP2 PUSH1 0x1 ADD PUSH2 0x2C0E JUMP JUMPDEST POP SWAP1 SWAP12 SWAP11 POP POP POP POP POP POP POP POP POP POP POP JUMP JUMPDEST PUSH1 0xFF DUP2 AND DUP2 EQ PUSH2 0xABC JUMPI PUSH0 DUP1 REVERT JUMPDEST PUSH0 DUP1 PUSH0 DUP1 PUSH0 DUP1 PUSH0 PUSH1 0xE0 DUP9 DUP11 SUB SLT ISZERO PUSH2 0x2C61 JUMPI PUSH0 DUP1 REVERT JUMPDEST DUP8 CALLDATALOAD PUSH2 0x2C6C DUP2 PUSH2 0x2A64 JUMP JUMPDEST SWAP7 POP PUSH1 0x20 DUP9 ADD CALLDATALOAD PUSH2 0x2C7C DUP2 PUSH2 0x2A64 JUMP JUMPDEST SWAP6 POP PUSH1 0x40 DUP9 ADD CALLDATALOAD SWAP5 POP PUSH1 0x60 DUP9 ADD CALLDATALOAD SWAP4 POP PUSH1 0x80 DUP9 ADD CALLDATALOAD PUSH2 0x2C9A DUP2 PUSH2 0x2C3D JUMP JUMPDEST SWAP7 SWAP10 SWAP6 SWAP9 POP SWAP4 SWAP7 SWAP3 SWAP6 SWAP5 PUSH1 0xA0 DUP5 ADD CALLDATALOAD SWAP5 POP PUSH1 0xC0 SWAP1 SWAP4 ADD CALLDATALOAD SWAP3 SWAP2 POP POP JUMP JUMPDEST PUSH0 DUP1 PUSH1 0x40 DUP4 DUP6 SUB SLT ISZERO PUSH2 0x2CC8 JUMPI PUSH0 DUP1 REVERT JUMPDEST DUP3 CALLDATALOAD PUSH2 0x2ABE DUP2 PUSH2 0x2A64 JUMP JUMPDEST PUSH0 DUP1 PUSH1 0x40 DUP4 DUP6 SUB SLT ISZERO PUSH2 0x2CE4 JUMPI PUSH0 DUP1 REVERT JUMPDEST DUP3 CALLDATALOAD SWAP2 POP PUSH1 0x20 DUP4 ADD CALLDATALOAD PUSH2 0x2A19 DUP2 PUSH2 0x2A64 JUMP JUMPDEST PUSH0 DUP1 PUSH0 PUSH1 0x60 DUP5 DUP7 SUB SLT ISZERO PUSH2 0x2D08 JUMPI PUSH0 DUP1 REVERT JUMPDEST DUP4 CALLDATALOAD SWAP3 POP PUSH1 0x20 DUP5 ADD CALLDATALOAD SWAP2 POP PUSH1 0x40 DUP5 ADD CALLDATALOAD PUSH2 0x2D21 DUP2 PUSH2 0x2A64 JUMP JUMPDEST DUP1 SWAP2 POP POP SWAP3 POP SWAP3 POP SWAP3 JUMP JUMPDEST PUSH1 0x1 DUP2 DUP2 SHR SWAP1 DUP3 AND DUP1 PUSH2 0x2D40 JUMPI PUSH1 0x7F DUP3 AND SWAP2 POP JUMPDEST PUSH1 0x20 DUP3 LT DUP2 SUB PUSH2 0x26E7 JUMPI PUSH4 0x4E487B71 PUSH1 0xE0 SHL PUSH0 MSTORE PUSH1 0x22 PUSH1 0x4 MSTORE PUSH1 0x24 PUSH0 REVERT JUMPDEST PUSH4 0x4E487B71 PUSH1 0xE0 SHL PUSH0 MSTORE PUSH1 0x11 PUSH1 0x4 MSTORE PUSH1 0x24 PUSH0 REVERT JUMPDEST PUSH1 0x1 PUSH1 0x1 PUSH1 0x80 SHL SUB DUP2 DUP2 AND DUP4 DUP3 AND ADD SWAP1 DUP2 GT ISZERO PUSH2 0x85D JUMPI PUSH2 0x85D PUSH2 0x2D5E JUMP JUMPDEST PUSH0 PUSH1 0x20 DUP3 DUP5 SUB SLT ISZERO PUSH2 0x2DA1 JUMPI PUSH0 DUP1 REVERT JUMPDEST DUP2 MLOAD DUP1 ISZERO ISZERO DUP2 EQ PUSH2 0x1E41 JUMPI PUSH0 DUP1 REVERT JUMPDEST PUSH4 0x4E487B71 PUSH1 0xE0 SHL PUSH0 MSTORE PUSH1 0x12 PUSH1 0x4 MSTORE PUSH1 0x24 PUSH0 REVERT JUMPDEST PUSH0 DUP3 PUSH2 0x2DD2 JUMPI PUSH2 0x2DD2 PUSH2 0x2DB0 JUMP JUMPDEST POP DIV SWAP1 JUMP JUMPDEST DUP1 DUP3 MUL DUP2 ISZERO DUP3 DUP3 DIV DUP5 EQ OR PUSH2 0x85D JUMPI PUSH2 0x85D PUSH2 0x2D5E JUMP JUMPDEST PUSH4 0xFFFFFFFF DUP2 DUP2 AND DUP4 DUP3 AND ADD SWAP1 DUP2 GT ISZERO PUSH2 0x85D JUMPI PUSH2 0x85D PUSH2 0x2D5E JUMP JUMPDEST PUSH1 0x1 PUSH1 0x1 PUSH1 0x80 SHL SUB DUP3 DUP2 AND DUP3 DUP3 AND SUB SWAP1 DUP2 GT ISZERO PUSH2 0x85D JUMPI PUSH2 0x85D PUSH2 0x2D5E JUMP JUMPDEST DUP1 DUP3 ADD DUP1 DUP3 GT ISZERO PUSH2 0x85D JUMPI PUSH2 0x85D PUSH2 0x2D5E JUMP JUMPDEST PUSH1 0x1 PUSH1 0x1 PUSH1 0x78 SHL SUB DUP2 AND DUP2 EQ PUSH2 0xABC JUMPI PUSH0 DUP1 REVERT JUMPDEST DUP2 CALLDATALOAD PUSH2 0x2E5B DUP2 PUSH2 0x2A64 JUMP JUMPDEST DUP2 SLOAD PUSH1 0x1 PUSH1 0x1 PUSH1 0xA0 SHL SUB NOT AND PUSH1 0x1 PUSH1 0x1 PUSH1 0xA0 SHL SUB SWAP2 SWAP1 SWAP2 AND OR DUP2 SSTORE PUSH1 0x1 DUP2 ADD PUSH1 0x20 DUP4 ADD CALLDATALOAD PUSH2 0x2E88 DUP2 PUSH2 0x29DB JUMP JUMPDEST DUP2 SLOAD PUSH1 0x40 DUP6 ADD CALLDATALOAD PUSH2 0x2E98 DUP2 PUSH2 0x2E3C JUMP JUMPDEST PUSH1 0x1 PUSH1 0x1 PUSH1 0x78 SHL SUB PUSH1 0x80 SHL DUP2 PUSH1 0x80 SHL AND PUSH1 0x1 PUSH1 0x1 PUSH1 0x80 SHL SUB DUP5 AND PUSH1 0xFF PUSH1 0xF8 SHL DUP5 AND OR OR DUP5 SSTORE POP POP POP PUSH0 PUSH1 0x60 DUP5 ADD CALLDATALOAD PUSH2 0x2ECF DUP2 PUSH2 0x2C3D JUMP JUMPDEST DUP3 SLOAD PUSH1 0x1 PUSH1 0x1 PUSH1 0xF8 SHL SUB AND PUSH1 0xF8 SWAP2 SWAP1 SWAP2 SHL PUSH1 0x1 PUSH1 0x1 PUSH1 0xF8 SHL SUB NOT AND OR SWAP1 SWAP2 SSTORE POP POP POP JUMP JUMPDEST PUSH0 PUSH1 0x20 DUP3 DUP5 SUB SLT ISZERO PUSH2 0x2F03 JUMPI PUSH0 DUP1 REVERT JUMPDEST DUP2 CALLDATALOAD PUSH2 0x1E41 DUP2 PUSH2 0x2E3C JUMP JUMPDEST PUSH0 PUSH1 0x20 DUP3 DUP5 SUB SLT ISZERO PUSH2 0x2F1E JUMPI PUSH0 DUP1 REVERT JUMPDEST DUP2 CALLDATALOAD PUSH2 0x1E41 DUP2 PUSH2 0x2C3D JUMP JUMPDEST PUSH1 0x1 DUP2 JUMPDEST PUSH1 0x1 DUP5 GT ISZERO PUSH2 0x2F64 JUMPI DUP1 DUP6 DIV DUP2 GT ISZERO PUSH2 0x2F48 JUMPI PUSH2 0x2F48 PUSH2 0x2D5E JUMP JUMPDEST PUSH1 0x1 DUP5 AND ISZERO PUSH2 0x2F56 JUMPI SWAP1 DUP2 MUL SWAP1 JUMPDEST PUSH1 0x1 SWAP4 SWAP1 SWAP4 SHR SWAP3 DUP1 MUL PUSH2 0x2F2D JUMP JUMPDEST SWAP4 POP SWAP4 SWAP2 POP POP JUMP JUMPDEST PUSH0 DUP3 PUSH2 0x2F7A JUMPI POP PUSH1 0x1 PUSH2 0x85D JUMP JUMPDEST DUP2 PUSH2 0x2F86 JUMPI POP PUSH0 PUSH2 0x85D JUMP JUMPDEST DUP2 PUSH1 0x1 DUP2 EQ PUSH2 0x2F9C JUMPI PUSH1 0x2 DUP2 EQ PUSH2 0x2FA6 JUMPI PUSH2 0x2FC2 JUMP JUMPDEST PUSH1 0x1 SWAP2 POP POP PUSH2 0x85D JUMP JUMPDEST PUSH1 0xFF DUP5 GT ISZERO PUSH2 0x2FB7 JUMPI PUSH2 0x2FB7 PUSH2 0x2D5E JUMP JUMPDEST POP POP PUSH1 0x1 DUP3 SHL PUSH2 0x85D JUMP JUMPDEST POP PUSH1 0x20 DUP4 LT PUSH2 0x133 DUP4 LT AND PUSH1 0x4E DUP5 LT PUSH1 0xB DUP5 LT AND OR ISZERO PUSH2 0x2FE5 JUMPI POP DUP2 DUP2 EXP PUSH2 0x85D JUMP JUMPDEST PUSH2 0x2FF1 PUSH0 NOT DUP5 DUP5 PUSH2 0x2F29 JUMP JUMPDEST DUP1 PUSH0 NOT DIV DUP3 GT ISZERO PUSH2 0x3004 JUMPI PUSH2 0x3004 PUSH2 0x2D5E JUMP JUMPDEST MUL SWAP4 SWAP3 POP POP POP JUMP JUMPDEST PUSH0 PUSH2 0x1E41 PUSH1 0x1 PUSH1 0x1 PUSH1 0x78 SHL SUB DUP5 AND DUP4 PUSH2 0x2F6C JUMP JUMPDEST PUSH0 PUSH1 0x1 PUSH1 0x1 PUSH1 0x80 SHL SUB DUP4 AND DUP1 PUSH2 0x3038 JUMPI PUSH2 0x3038 PUSH2 0x2DB0 JUMP JUMPDEST DUP1 PUSH1 0x1 PUSH1 0x1 PUSH1 0x80 SHL SUB DUP5 AND DIV SWAP2 POP POP SWAP3 SWAP2 POP POP JUMP JUMPDEST PUSH1 0x1 PUSH1 0x1 PUSH1 0x78 SHL SUB DUP2 DUP2 AND DUP4 DUP3 AND ADD SWAP1 DUP2 GT ISZERO PUSH2 0x85D JUMPI PUSH2 0x85D PUSH2 0x2D5E JUMP JUMPDEST PUSH4 0x4E487B71 PUSH1 0xE0 SHL PUSH0 MSTORE PUSH1 0x21 PUSH1 0x4 MSTORE PUSH1 0x24 PUSH0 REVERT INVALID LOG2 PUSH5 0x6970667358 0x22 SLT KECCAK256 0x4C 0xEB INVALID SWAP7 CALLDATACOPY SWAP12 PUSH18 0x3B346F8C98F08C94F13B69EA3A9C76A18720 PUSH14 0x211B295AD27664736F6C63430008 BYTE STOP CALLER "
		},
		"gasEstimates": {
			"creation": {
				"codeDepositCost": "2494000",
				"executionCost": "infinite",
				"totalCost": "infinite"
			},
			"external": {
				"DOMAIN_SEPARATOR()": "infinite",
				"addShare((address,uint128,uint120,uint8))": "2512",
				"addauths(address,uint256)": "infinite",
				"addreferral(address,address)": "infinite",
				"allowance(address,address)": "infinite",
				"approve(address,uint256)": "24686",
				"balanceOf(address)": "2686",
				"burn(address,uint256)": "50910",
				"burnShare(uint32)": "infinite",
				"chain_deposit(uint32,uint128)": "2634",
				"chain_withdraw(uint32,uint128)": "2632",
				"changeDAOAdmin(address)": "27898",
				"decimals()": "332",
				"decreaseAllowance(address,uint256)": "27028",
				"eip712Domain()": "infinite",
				"getreferral(address)": "2691",
				"getreferralanddaoadmin(address)": "4858",
				"increaseAllowance(address,uint256)": "infinite",
				"isauths(address)": "2662",
				"left_share()": "2470",
				"name()": "infinite",
				"nonces(address)": "2630",
				"permit(address,address,uint256,uint256,uint8,bytes32,bytes32)": "infinite",
				"poolstate()": "2384",
				"publicSell(uint256)": "2552",
				"publicsell()": "2419",
				"rmauths(address)": "7627",
				"setEnv(uint256,uint256,address)": "72738",
				"shareMint(uint32)": "infinite",
				"shares(uint32)": "4996",
				"stake(address,uint128)": "infinite",
				"stakestate()": "2383",
				"subchainDeposit(uint128,address)": "infinite",
				"subchainWithdraw(uint128,address)": "infinite",
				"symbol()": "infinite",
				"syncChainStake(uint32,uint128)": "2723",
				"syncPoolAsset(uint128)": "infinite",
				"totalSupply()": "2326",
				"transfer(address,uint256)": "51150",
				"transferFrom(address,address,uint256)": "infinite",
				"ttstokenconfig()": "2361",
				"unstake(address,uint128)": "infinite",
				"usdt()": "infinite",
				"withdrawPublicSell(uint256,address)": "2611"
			},
			"internal": {
				"_stakeFee()": "infinite"
			}
		},
		"methodIdentifiers": {
			"DOMAIN_SEPARATOR()": "3644e515",
			"addShare((address,uint128,uint120,uint8))": "3b107e21",
			"addauths(address,uint256)": "542128dd",
			"addreferral(address,address)": "eca93cce",
			"allowance(address,address)": "dd62ed3e",
			"approve(address,uint256)": "095ea7b3",
			"balanceOf(address)": "70a08231",
			"burn(address,uint256)": "9dc29fac",
			"burnShare(uint32)": "c67e6078",
			"chain_deposit(uint32,uint128)": "01bddf1b",
			"chain_withdraw(uint32,uint128)": "c3bb7fff",
			"changeDAOAdmin(address)": "3cba316b",
			"decimals()": "313ce567",
			"decreaseAllowance(address,uint256)": "a457c2d7",
			"eip712Domain()": "84b0196e",
			"getreferral(address)": "a985901a",
			"getreferralanddaoadmin(address)": "b88e6d63",
			"increaseAllowance(address,uint256)": "39509351",
			"isauths(address)": "94c3c333",
			"left_share()": "45fda707",
			"name()": "06fdde03",
			"nonces(address)": "7ecebe00",
			"permit(address,address,uint256,uint256,uint8,bytes32,bytes32)": "d505accf",
			"poolstate()": "845fcee4",
			"publicSell(uint256)": "0fffe72f",
			"publicsell()": "de5712d4",
			"rmauths(address)": "69a5ac32",
			"setEnv(uint256,uint256,address)": "f6f9b80d",
			"shareMint(uint32)": "fb9dba65",
			"shares(uint32)": "6f55aece",
			"stake(address,uint128)": "19f8d5b4",
			"stakestate()": "cae97640",
			"subchainDeposit(uint128,address)": "cd993b11",
			"subchainWithdraw(uint128,address)": "0a4273e6",
			"symbol()": "95d89b41",
			"syncChainStake(uint32,uint128)": "30fd6b29",
			"syncPoolAsset(uint128)": "6c0deba1",
			"totalSupply()": "18160ddd",
			"transfer(address,uint256)": "a9059cbb",
			"transferFrom(address,address,uint256)": "23b872dd",
			"ttstokenconfig()": "623059a5",
			"unstake(address,uint128)": "7bd3ca35",
			"usdt()": "2f48ab7d",
			"withdrawPublicSell(uint256,address)": "e7b43e7d"
		}
	},
	"abi": [
		{
			"inputs": [
				{
					"internalType": "address",
					"name": "_usdt",
					"type": "address"
				},
				{
					"internalType": "address",
					"name": "_dao_admin",
					"type": "address"
				},
				{
					"internalType": "uint256",
					"name": "_ttsconfig",
					"type": "uint256"
				}
			],
			"stateMutability": "nonpayable",
			"type": "constructor"
		},
		{
			"inputs": [],
			"name": "InvalidShortString",
			"type": "error"
		},
		{
			"inputs": [
				{
					"internalType": "string",
					"name": "str",
					"type": "string"
				}
			],
			"name": "StringTooLong",
			"type": "error"
		},
		{
			"anonymous": false,
			"inputs": [
				{
					"indexed": true,
					"internalType": "address",
					"name": "owner",
					"type": "address"
				},
				{
					"indexed": true,
					"internalType": "address",
					"name": "spender",
					"type": "address"
				},
				{
					"indexed": false,
					"internalType": "uint256",
					"name": "value",
					"type": "uint256"
				}
			],
			"name": "Approval",
			"type": "event"
		},
		{
			"anonymous": false,
			"inputs": [],
			"name": "EIP712DomainChanged",
			"type": "event"
		},
		{
			"anonymous": false,
			"inputs": [
				{
					"indexed": true,
					"internalType": "address",
					"name": "from",
					"type": "address"
				},
				{
					"indexed": true,
					"internalType": "address",
					"name": "to",
					"type": "address"
				},
				{
					"indexed": false,
					"internalType": "uint256",
					"name": "value",
					"type": "uint256"
				}
			],
			"name": "Transfer",
			"type": "event"
		},
		{
			"anonymous": false,
			"inputs": [
				{
					"indexed": false,
					"internalType": "address",
					"name": "recipient",
					"type": "address"
				},
				{
					"indexed": false,
					"internalType": "uint256",
					"name": "leftamount",
					"type": "uint256"
				},
				{
					"indexed": false,
					"internalType": "uint120",
					"name": "metric",
					"type": "uint120"
				},
				{
					"indexed": false,
					"internalType": "uint8",
					"name": "chips",
					"type": "uint8"
				},
				{
					"indexed": false,
					"internalType": "uint32",
					"name": "index",
					"type": "uint32"
				}
			],
			"name": "e_addShare",
			"type": "event"
		},
		{
			"anonymous": false,
			"inputs": [
				{
					"indexed": false,
					"internalType": "address",
					"name": "auths",
					"type": "address"
				},
				{
					"indexed": false,
					"internalType": "uint256",
					"name": "priv",
					"type": "uint256"
				}
			],
			"name": "e_addauths",
			"type": "event"
		},
		{
			"anonymous": false,
			"inputs": [
				{
					"indexed": false,
					"internalType": "address",
					"name": "users",
					"type": "address"
				},
				{
					"indexed": false,
					"internalType": "address",
					"name": "referral",
					"type": "address"
				}
			],
			"name": "e_addreferral",
			"type": "event"
		},
		{
			"anonymous": false,
			"inputs": [
				{
					"indexed": false,
					"internalType": "uint32",
					"name": "index",
					"type": "uint32"
				}
			],
			"name": "e_burnShare",
			"type": "event"
		},
		{
			"anonymous": false,
			"inputs": [
				{
					"indexed": false,
					"internalType": "uint256",
					"name": "usdtamount",
					"type": "uint256"
				},
				{
					"indexed": false,
					"internalType": "uint256",
					"name": "ttsamount",
					"type": "uint256"
				}
			],
			"name": "e_publicsell",
			"type": "event"
		},
		{
			"anonymous": false,
			"inputs": [
				{
					"indexed": false,
					"internalType": "address",
					"name": "auths",
					"type": "address"
				}
			],
			"name": "e_rmauths",
			"type": "event"
		},
		{
			"anonymous": false,
			"inputs": [
				{
					"indexed": false,
					"internalType": "address",
					"name": "recipient",
					"type": "address"
				}
			],
			"name": "e_setdaoadmin",
			"type": "event"
		},
		{
			"anonymous": false,
			"inputs": [
				{
					"indexed": false,
					"internalType": "uint256",
					"name": "normalgoodid",
					"type": "uint256"
				},
				{
					"indexed": false,
					"internalType": "uint256",
					"name": "valuegoodid",
					"type": "uint256"
				},
				{
					"indexed": false,
					"internalType": "address",
					"name": "marketcontract",
					"type": "address"
				}
			],
			"name": "e_setenv",
			"type": "event"
		},
		{
			"anonymous": false,
			"inputs": [
				{
					"indexed": false,
					"internalType": "uint128",
					"name": "mintamount",
					"type": "uint128"
				},
				{
					"indexed": false,
					"internalType": "uint32",
					"name": "index",
					"type": "uint32"
				}
			],
			"name": "e_shareMint",
			"type": "event"
		},
		{
			"anonymous": false,
			"inputs": [
				{
					"indexed": false,
					"internalType": "uint32",
					"name": "chain",
					"type": "uint32"
				},
				{
					"indexed": false,
					"internalType": "uint128",
					"name": "poolasset",
					"type": "uint128"
				},
				{
					"indexed": false,
					"internalType": "T_BalanceUINT256",
					"name": "proofstate",
					"type": "uint256"
				}
			],
			"name": "e_syncChainStake",
			"type": "event"
		},
		{
			"anonymous": false,
			"inputs": [
				{
					"indexed": false,
					"internalType": "address",
					"name": "recipient",
					"type": "address"
				},
				{
					"indexed": false,
					"internalType": "uint128",
					"name": "proofvalue",
					"type": "uint128"
				},
				{
					"indexed": false,
					"internalType": "T_BalanceUINT256",
					"name": "unstakestate",
					"type": "uint256"
				},
				{
					"indexed": false,
					"internalType": "T_BalanceUINT256",
					"name": "stakestate",
					"type": "uint256"
				}
			],
			"name": "e_unstake",
			"type": "event"
		},
		{
			"anonymous": false,
			"inputs": [
				{
					"indexed": false,
					"internalType": "uint256",
					"name": "poolstate",
					"type": "uint256"
				},
				{
					"indexed": false,
					"internalType": "uint256",
					"name": "stakestate",
					"type": "uint256"
				}
			],
			"name": "e_updatepool",
			"type": "event"
		},
		{
			"inputs": [],
			"name": "DOMAIN_SEPARATOR",
			"outputs": [
				{
					"internalType": "bytes32",
					"name": "",
					"type": "bytes32"
				}
			],
			"stateMutability": "view",
			"type": "function"
		},
		{
			"inputs": [
				{
					"components": [
						{
							"internalType": "address",
							"name": "recipient",
							"type": "address"
						},
						{
							"internalType": "uint128",
							"name": "leftamount",
							"type": "uint128"
						},
						{
							"internalType": "uint120",
							"name": "metric",
							"type": "uint120"
						},
						{
							"internalType": "uint8",
							"name": "chips",
							"type": "uint8"
						}
					],
					"internalType": "struct s_share",
					"name": "_share",
					"type": "tuple"
				}
			],
			"name": "addShare",
			"outputs": [],
			"stateMutability": "nonpayable",
			"type": "function"
		},
		{
			"inputs": [
				{
					"internalType": "address",
					"name": "_auths",
					"type": "address"
				},
				{
					"internalType": "uint256",
					"name": "_priv",
					"type": "uint256"
				}
			],
			"name": "addauths",
			"outputs": [],
			"stateMutability": "nonpayable",
			"type": "function"
		},
		{
			"inputs": [
				{
					"internalType": "address",
					"name": "user",
					"type": "address"
				},
				{
					"internalType": "address",
					"name": "referral",
					"type": "address"
				}
			],
			"name": "addreferral",
			"outputs": [],
			"stateMutability": "nonpayable",
			"type": "function"
		},
		{
			"inputs": [
				{
					"internalType": "address",
					"name": "owner",
					"type": "address"
				},
				{
					"internalType": "address",
					"name": "spender",
					"type": "address"
				}
			],
			"name": "allowance",
			"outputs": [
				{
					"internalType": "uint256",
					"name": "",
					"type": "uint256"
				}
			],
			"stateMutability": "view",
			"type": "function"
		},
		{
			"inputs": [
				{
					"internalType": "address",
					"name": "spender",
					"type": "address"
				},
				{
					"internalType": "uint256",
					"name": "amount",
					"type": "uint256"
				}
			],
			"name": "approve",
			"outputs": [
				{
					"internalType": "bool",
					"name": "",
					"type": "bool"
				}
			],
			"stateMutability": "nonpayable",
			"type": "function"
		},
		{
			"inputs": [
				{
					"internalType": "address",
					"name": "account",
					"type": "address"
				}
			],
			"name": "balanceOf",
			"outputs": [
				{
					"internalType": "uint256",
					"name": "",
					"type": "uint256"
				}
			],
			"stateMutability": "view",
			"type": "function"
		},
		{
			"inputs": [
				{
					"internalType": "address",
					"name": "account",
					"type": "address"
				},
				{
					"internalType": "uint256",
					"name": "value",
					"type": "uint256"
				}
			],
			"name": "burn",
			"outputs": [],
			"stateMutability": "nonpayable",
			"type": "function"
		},
		{
			"inputs": [
				{
					"internalType": "uint32",
					"name": "index",
					"type": "uint32"
				}
			],
			"name": "burnShare",
			"outputs": [],
			"stateMutability": "nonpayable",
			"type": "function"
		},
		{
			"inputs": [
				{
					"internalType": "uint32",
					"name": "chainid",
					"type": "uint32"
				},
				{
					"internalType": "uint128",
					"name": "asset",
					"type": "uint128"
				}
			],
			"name": "chain_deposit",
			"outputs": [],
			"stateMutability": "nonpayable",
			"type": "function"
		},
		{
			"inputs": [
				{
					"internalType": "uint32",
					"name": "chainid",
					"type": "uint32"
				},
				{
					"internalType": "uint128",
					"name": "asset",
					"type": "uint128"
				}
			],
			"name": "chain_withdraw",
			"outputs": [],
			"stateMutability": "nonpayable",
			"type": "function"
		},
		{
			"inputs": [
				{
					"internalType": "address",
					"name": "_recipient",
					"type": "address"
				}
			],
			"name": "changeDAOAdmin",
			"outputs": [],
			"stateMutability": "nonpayable",
			"type": "function"
		},
		{
			"inputs": [],
			"name": "decimals",
			"outputs": [
				{
					"internalType": "uint8",
					"name": "",
					"type": "uint8"
				}
			],
			"stateMutability": "pure",
			"type": "function"
		},
		{
			"inputs": [
				{
					"internalType": "address",
					"name": "spender",
					"type": "address"
				},
				{
					"internalType": "uint256",
					"name": "subtractedValue",
					"type": "uint256"
				}
			],
			"name": "decreaseAllowance",
			"outputs": [
				{
					"internalType": "bool",
					"name": "",
					"type": "bool"
				}
			],
			"stateMutability": "nonpayable",
			"type": "function"
		},
		{
			"inputs": [],
			"name": "eip712Domain",
			"outputs": [
				{
					"internalType": "bytes1",
					"name": "fields",
					"type": "bytes1"
				},
				{
					"internalType": "string",
					"name": "name",
					"type": "string"
				},
				{
					"internalType": "string",
					"name": "version",
					"type": "string"
				},
				{
					"internalType": "uint256",
					"name": "chainId",
					"type": "uint256"
				},
				{
					"internalType": "address",
					"name": "verifyingContract",
					"type": "address"
				},
				{
					"internalType": "bytes32",
					"name": "salt",
					"type": "bytes32"
				},
				{
					"internalType": "uint256[]",
					"name": "extensions",
					"type": "uint256[]"
				}
			],
			"stateMutability": "view",
			"type": "function"
		},
		{
			"inputs": [
				{
					"internalType": "address",
					"name": "_customer",
					"type": "address"
				}
			],
			"name": "getreferral",
			"outputs": [
				{
					"internalType": "address",
					"name": "",
					"type": "address"
				}
			],
			"stateMutability": "view",
			"type": "function"
		},
		{
			"inputs": [
				{
					"internalType": "address",
					"name": "_customer",
					"type": "address"
				}
			],
			"name": "getreferralanddaoadmin",
			"outputs": [
				{
					"internalType": "address",
					"name": "",
					"type": "address"
				},
				{
					"internalType": "address",
					"name": "",
					"type": "address"
				}
			],
			"stateMutability": "view",
			"type": "function"
		},
		{
			"inputs": [
				{
					"internalType": "address",
					"name": "spender",
					"type": "address"
				},
				{
					"internalType": "uint256",
					"name": "addedValue",
					"type": "uint256"
				}
			],
			"name": "increaseAllowance",
			"outputs": [
				{
					"internalType": "bool",
					"name": "",
					"type": "bool"
				}
			],
			"stateMutability": "nonpayable",
			"type": "function"
		},
		{
			"inputs": [
				{
					"internalType": "address",
					"name": "recipient",
					"type": "address"
				}
			],
			"name": "isauths",
			"outputs": [
				{
					"internalType": "uint256",
					"name": "",
					"type": "uint256"
				}
			],
			"stateMutability": "view",
			"type": "function"
		},
		{
			"inputs": [],
			"name": "left_share",
			"outputs": [
				{
					"internalType": "uint128",
					"name": "",
					"type": "uint128"
				}
			],
			"stateMutability": "view",
			"type": "function"
		},
		{
			"inputs": [],
			"name": "name",
			"outputs": [
				{
					"internalType": "string",
					"name": "",
					"type": "string"
				}
			],
			"stateMutability": "view",
			"type": "function"
		},
		{
			"inputs": [
				{
					"internalType": "address",
					"name": "owner",
					"type": "address"
				}
			],
			"name": "nonces",
			"outputs": [
				{
					"internalType": "uint256",
					"name": "",
					"type": "uint256"
				}
			],
			"stateMutability": "view",
			"type": "function"
		},
		{
			"inputs": [
				{
					"internalType": "address",
					"name": "owner",
					"type": "address"
				},
				{
					"internalType": "address",
					"name": "spender",
					"type": "address"
				},
				{
					"internalType": "uint256",
					"name": "value",
					"type": "uint256"
				},
				{
					"internalType": "uint256",
					"name": "deadline",
					"type": "uint256"
				},
				{
					"internalType": "uint8",
					"name": "v",
					"type": "uint8"
				},
				{
					"internalType": "bytes32",
					"name": "r",
					"type": "bytes32"
				},
				{
					"internalType": "bytes32",
					"name": "s",
					"type": "bytes32"
				}
			],
			"name": "permit",
			"outputs": [],
			"stateMutability": "nonpayable",
			"type": "function"
		},
		{
			"inputs": [],
			"name": "poolstate",
			"outputs": [
				{
					"internalType": "T_BalanceUINT256",
					"name": "",
					"type": "uint256"
				}
			],
			"stateMutability": "view",
			"type": "function"
		},
		{
			"inputs": [
				{
					"internalType": "uint256",
					"name": "usdtamount",
					"type": "uint256"
				}
			],
			"name": "publicSell",
			"outputs": [],
			"stateMutability": "nonpayable",
			"type": "function"
		},
		{
			"inputs": [],
			"name": "publicsell",
			"outputs": [
				{
					"internalType": "uint128",
					"name": "",
					"type": "uint128"
				}
			],
			"stateMutability": "view",
			"type": "function"
		},
		{
			"inputs": [
				{
					"internalType": "address",
					"name": "_auths",
					"type": "address"
				}
			],
			"name": "rmauths",
			"outputs": [],
			"stateMutability": "nonpayable",
			"type": "function"
		},
		{
			"inputs": [
				{
					"internalType": "uint256",
					"name": "_normalgoodid",
					"type": "uint256"
				},
				{
					"internalType": "uint256",
					"name": "_valuegoodid",
					"type": "uint256"
				},
				{
					"internalType": "address",
					"name": "_marketcontract",
					"type": "address"
				}
			],
			"name": "setEnv",
			"outputs": [],
			"stateMutability": "nonpayable",
			"type": "function"
		},
		{
			"inputs": [
				{
					"internalType": "uint32",
					"name": "index",
					"type": "uint32"
				}
			],
			"name": "shareMint",
			"outputs": [],
			"stateMutability": "nonpayable",
			"type": "function"
		},
		{
			"inputs": [
				{
					"internalType": "uint32",
					"name": "",
					"type": "uint32"
				}
			],
			"name": "shares",
			"outputs": [
				{
					"internalType": "address",
					"name": "recipient",
					"type": "address"
				},
				{
					"internalType": "uint128",
					"name": "leftamount",
					"type": "uint128"
				},
				{
					"internalType": "uint120",
					"name": "metric",
					"type": "uint120"
				},
				{
					"internalType": "uint8",
					"name": "chips",
					"type": "uint8"
				}
			],
			"stateMutability": "view",
			"type": "function"
		},
		{
			"inputs": [
				{
					"internalType": "address",
					"name": "_staker",
					"type": "address"
				},
				{
					"internalType": "uint128",
					"name": "proofvalue",
					"type": "uint128"
				}
			],
			"name": "stake",
			"outputs": [
				{
					"internalType": "uint128",
					"name": "netconstruct",
					"type": "uint128"
				}
			],
			"stateMutability": "nonpayable",
			"type": "function"
		},
		{
			"inputs": [],
			"name": "stakestate",
			"outputs": [
				{
					"internalType": "T_BalanceUINT256",
					"name": "",
					"type": "uint256"
				}
			],
			"stateMutability": "view",
			"type": "function"
		},
		{
			"inputs": [
				{
					"internalType": "uint128",
					"name": "asset",
					"type": "uint128"
				},
				{
					"internalType": "address",
					"name": "recipient",
					"type": "address"
				}
			],
			"name": "subchainDeposit",
			"outputs": [],
			"stateMutability": "nonpayable",
			"type": "function"
		},
		{
			"inputs": [
				{
					"internalType": "uint128",
					"name": "asset",
					"type": "uint128"
				},
				{
					"internalType": "address",
					"name": "recipient",
					"type": "address"
				}
			],
			"name": "subchainWithdraw",
			"outputs": [],
			"stateMutability": "nonpayable",
			"type": "function"
		},
		{
			"inputs": [],
			"name": "symbol",
			"outputs": [
				{
					"internalType": "string",
					"name": "",
					"type": "string"
				}
			],
			"stateMutability": "view",
			"type": "function"
		},
		{
			"inputs": [
				{
					"internalType": "uint32",
					"name": "chainid",
					"type": "uint32"
				},
				{
					"internalType": "uint128",
					"name": "chainvalue",
					"type": "uint128"
				}
			],
			"name": "syncChainStake",
			"outputs": [
				{
					"internalType": "uint128",
					"name": "poolasset",
					"type": "uint128"
				}
			],
			"stateMutability": "nonpayable",
			"type": "function"
		},
		{
			"inputs": [
				{
					"internalType": "uint128",
					"name": "amount",
					"type": "uint128"
				}
			],
			"name": "syncPoolAsset",
			"outputs": [],
			"stateMutability": "nonpayable",
			"type": "function"
		},
		{
			"inputs": [],
			"name": "totalSupply",
			"outputs": [
				{
					"internalType": "uint256",
					"name": "",
					"type": "uint256"
				}
			],
			"stateMutability": "view",
			"type": "function"
		},
		{
			"inputs": [
				{
					"internalType": "address",
					"name": "to",
					"type": "address"
				},
				{
					"internalType": "uint256",
					"name": "amount",
					"type": "uint256"
				}
			],
			"name": "transfer",
			"outputs": [
				{
					"internalType": "bool",
					"name": "",
					"type": "bool"
				}
			],
			"stateMutability": "nonpayable",
			"type": "function"
		},
		{
			"inputs": [
				{
					"internalType": "address",
					"name": "from",
					"type": "address"
				},
				{
					"internalType": "address",
					"name": "to",
					"type": "address"
				},
				{
					"internalType": "uint256",
					"name": "amount",
					"type": "uint256"
				}
			],
			"name": "transferFrom",
			"outputs": [
				{
					"internalType": "bool",
					"name": "",
					"type": "bool"
				}
			],
			"stateMutability": "nonpayable",
			"type": "function"
		},
		{
			"inputs": [],
			"name": "ttstokenconfig",
			"outputs": [
				{
					"internalType": "uint256",
					"name": "",
					"type": "uint256"
				}
			],
			"stateMutability": "view",
			"type": "function"
		},
		{
			"inputs": [
				{
					"internalType": "address",
					"name": "_staker",
					"type": "address"
				},
				{
					"internalType": "uint128",
					"name": "proofvalue",
					"type": "uint128"
				}
			],
			"name": "unstake",
			"outputs": [],
			"stateMutability": "nonpayable",
			"type": "function"
		},
		{
			"inputs": [],
			"name": "usdt",
			"outputs": [
				{
					"internalType": "address",
					"name": "",
					"type": "address"
				}
			],
			"stateMutability": "view",
			"type": "function"
		},
		{
			"inputs": [
				{
					"internalType": "uint256",
					"name": "amount",
					"type": "uint256"
				},
				{
					"internalType": "address",
					"name": "recipient",
					"type": "address"
				}
			],
			"name": "withdrawPublicSell",
			"outputs": [],
			"stateMutability": "nonpayable",
			"type": "function"
		}
	]
}