{
	"src/test/MyToken.sol": {
		"MyToken": {
			"abi": [
				{
					"inputs": [
						{
							"internalType": "string",
							"name": "name",
							"type": "string"
						},
						{
							"internalType": "string",
							"name": "symbol",
							"type": "string"
						},
						{
							"internalType": "uint8",
							"name": "_decimals",
							"type": "uint8"
						}
					],
					"stateMutability": "nonpayable",
					"type": "constructor"
				},
				{
					"anonymous": false,
					"inputs": [
						{
							"indexed": true,
							"internalType": "address",
							"name": "owner",
							"type": "address"
						},
						{
							"indexed": true,
							"internalType": "address",
							"name": "spender",
							"type": "address"
						},
						{
							"indexed": false,
							"internalType": "uint256",
							"name": "amount",
							"type": "uint256"
						}
					],
					"name": "Approval",
					"type": "event"
				},
				{
					"anonymous": false,
					"inputs": [
						{
							"indexed": true,
							"internalType": "address",
							"name": "from",
							"type": "address"
						},
						{
							"indexed": false,
							"internalType": "uint256",
							"name": "amount",
							"type": "uint256"
						}
					],
					"name": "Deposit",
					"type": "event"
				},
				{
					"anonymous": false,
					"inputs": [
						{
							"indexed": true,
							"internalType": "address",
							"name": "from",
							"type": "address"
						},
						{
							"indexed": true,
							"internalType": "address",
							"name": "to",
							"type": "address"
						},
						{
							"indexed": false,
							"internalType": "uint256",
							"name": "amount",
							"type": "uint256"
						}
					],
					"name": "Transfer",
					"type": "event"
				},
				{
					"anonymous": false,
					"inputs": [
						{
							"indexed": true,
							"internalType": "address",
							"name": "to",
							"type": "address"
						},
						{
							"indexed": false,
							"internalType": "uint256",
							"name": "amount",
							"type": "uint256"
						}
					],
					"name": "Withdrawal",
					"type": "event"
				},
				{
					"inputs": [],
					"name": "DOMAIN_SEPARATOR",
					"outputs": [
						{
							"internalType": "bytes32",
							"name": "",
							"type": "bytes32"
						}
					],
					"stateMutability": "view",
					"type": "function"
				},
				{
					"inputs": [
						{
							"internalType": "address",
							"name": "",
							"type": "address"
						},
						{
							"internalType": "address",
							"name": "",
							"type": "address"
						}
					],
					"name": "allowance",
					"outputs": [
						{
							"internalType": "uint256",
							"name": "",
							"type": "uint256"
						}
					],
					"stateMutability": "view",
					"type": "function"
				},
				{
					"inputs": [
						{
							"internalType": "address",
							"name": "spender",
							"type": "address"
						},
						{
							"internalType": "uint256",
							"name": "amount",
							"type": "uint256"
						}
					],
					"name": "approve",
					"outputs": [
						{
							"internalType": "bool",
							"name": "",
							"type": "bool"
						}
					],
					"stateMutability": "nonpayable",
					"type": "function"
				},
				{
					"inputs": [
						{
							"internalType": "address",
							"name": "",
							"type": "address"
						}
					],
					"name": "balanceOf",
					"outputs": [
						{
							"internalType": "uint256",
							"name": "",
							"type": "uint256"
						}
					],
					"stateMutability": "view",
					"type": "function"
				},
				{
					"inputs": [],
					"name": "decimals",
					"outputs": [
						{
							"internalType": "uint8",
							"name": "",
							"type": "uint8"
						}
					],
					"stateMutability": "view",
					"type": "function"
				},
				{
					"inputs": [],
					"name": "deposit",
					"outputs": [],
					"stateMutability": "payable",
					"type": "function"
				},
				{
					"inputs": [
						{
							"internalType": "address",
							"name": "recipent",
							"type": "address"
						},
						{
							"internalType": "uint256",
							"name": "amount",
							"type": "uint256"
						}
					],
					"name": "mint",
					"outputs": [],
					"stateMutability": "nonpayable",
					"type": "function"
				},
				{
					"inputs": [],
					"name": "name",
					"outputs": [
						{
							"internalType": "string",
							"name": "",
							"type": "string"
						}
					],
					"stateMutability": "view",
					"type": "function"
				},
				{
					"inputs": [
						{
							"internalType": "address",
							"name": "",
							"type": "address"
						}
					],
					"name": "nonces",
					"outputs": [
						{
							"internalType": "uint256",
							"name": "",
							"type": "uint256"
						}
					],
					"stateMutability": "view",
					"type": "function"
				},
				{
					"inputs": [],
					"name": "owner",
					"outputs": [
						{
							"internalType": "address",
							"name": "",
							"type": "address"
						}
					],
					"stateMutability": "view",
					"type": "function"
				},
				{
					"inputs": [
						{
							"internalType": "address",
							"name": "owner",
							"type": "address"
						},
						{
							"internalType": "address",
							"name": "spender",
							"type": "address"
						},
						{
							"internalType": "uint256",
							"name": "value",
							"type": "uint256"
						},
						{
							"internalType": "uint256",
							"name": "deadline",
							"type": "uint256"
						},
						{
							"internalType": "uint8",
							"name": "v",
							"type": "uint8"
						},
						{
							"internalType": "bytes32",
							"name": "r",
							"type": "bytes32"
						},
						{
							"internalType": "bytes32",
							"name": "s",
							"type": "bytes32"
						}
					],
					"name": "permit",
					"outputs": [],
					"stateMutability": "nonpayable",
					"type": "function"
				},
				{
					"inputs": [],
					"name": "symbol",
					"outputs": [
						{
							"internalType": "string",
							"name": "",
							"type": "string"
						}
					],
					"stateMutability": "view",
					"type": "function"
				},
				{
					"inputs": [],
					"name": "totalSupply",
					"outputs": [
						{
							"internalType": "uint256",
							"name": "",
							"type": "uint256"
						}
					],
					"stateMutability": "view",
					"type": "function"
				},
				{
					"inputs": [
						{
							"internalType": "address",
							"name": "to",
							"type": "address"
						},
						{
							"internalType": "uint256",
							"name": "amount",
							"type": "uint256"
						}
					],
					"name": "transfer",
					"outputs": [
						{
							"internalType": "bool",
							"name": "",
							"type": "bool"
						}
					],
					"stateMutability": "nonpayable",
					"type": "function"
				},
				{
					"inputs": [
						{
							"internalType": "address",
							"name": "from",
							"type": "address"
						},
						{
							"internalType": "address",
							"name": "to",
							"type": "address"
						},
						{
							"internalType": "uint256",
							"name": "amount",
							"type": "uint256"
						}
					],
					"name": "transferFrom",
					"outputs": [
						{
							"internalType": "bool",
							"name": "",
							"type": "bool"
						}
					],
					"stateMutability": "nonpayable",
					"type": "function"
				},
				{
					"inputs": [
						{
							"internalType": "uint256",
							"name": "amount",
							"type": "uint256"
						}
					],
					"name": "withdraw",
					"outputs": [],
					"stateMutability": "nonpayable",
					"type": "function"
				},
				{
					"stateMutability": "payable",
					"type": "receive"
				}
			],
			"devdoc": {
				"kind": "dev",
				"methods": {},
				"version": 1
			},
			"evm": {
				"assembly": "    /* \"src/test/MyToken.sol\":104:1057  contract MyToken is ERC20 {... */\n  mstore(0x40, 0xe0)\n    /* \"src/test/MyToken.sol\":163:385  constructor(... */\n  callvalue\n  dup1\n  iszero\n  tag_1\n  jumpi\n  revert(0x00, 0x00)\ntag_1:\n  pop\n  mload(0x40)\n  sub(codesize, bytecodeSize)\n  dup1\n  bytecodeSize\n  dup4\n  codecopy\n  dup2\n  dup2\n  add\n  0x40\n  mstore\n  dup2\n  add\n  swap1\n  tag_2\n  swap2\n  swap1\n  tag_3\n  jump\t// in\ntag_2:\n    /* \"src/test/MyToken.sol\":270:274  name */\n  dup3\n    /* \"src/test/MyToken.sol\":276:282  symbol */\n  dup3\n    /* \"src/test/MyToken.sol\":284:293  _decimals */\n  dup3\n    /* \"src/base/ERC20.sol\":2071:2076  _name */\n  dup3\n    /* \"src/base/ERC20.sol\":2064:2068  name */\n  0x00\n    /* \"src/base/ERC20.sol\":2064:2076  name = _name */\n  swap1\n  dup2\n  tag_7\n  swap2\n  swap1\n  tag_8\n  jump\t// in\ntag_7:\n  pop\n    /* \"src/base/ERC20.sol\":2095:2102  _symbol */\n  dup2\n    /* \"src/base/ERC20.sol\":2086:2092  symbol */\n  0x01\n    /* \"src/base/ERC20.sol\":2086:2102  symbol = _symbol */\n  swap1\n  dup2\n  tag_9\n  swap2\n  swap1\n  tag_8\n  jump\t// in\ntag_9:\n  pop\n    /* \"src/base/ERC20.sol\":2123:2132  _decimals */\n  dup1\n    /* \"src/base/ERC20.sol\":2112:2132  decimals = _decimals */\n  0xff\n  and\n  0x80\n  dup2\n  0xff\n  and\n  dup2\n  mstore\n  pop\n  pop\n    /* \"src/base/ERC20.sol\":2162:2175  block.chainid */\n  chainid\n    /* \"src/base/ERC20.sol\":2143:2175  INITIAL_CHAIN_ID = block.chainid */\n  0xa0\n  dup2\n  dup2\n  mstore\n  pop\n  pop\n    /* \"src/base/ERC20.sol\":2212:2236  computeDomainSeparator() */\n  tag_10\n    /* \"src/base/ERC20.sol\":2212:2234  computeDomainSeparator */\n  shl(0x20, tag_11)\n    /* \"src/base/ERC20.sol\":2212:2236  computeDomainSeparator() */\n  0x20\n  shr\n  jump\t// in\ntag_10:\n    /* \"src/base/ERC20.sol\":2185:2236  INITIAL_DOMAIN_SEPARATOR = computeDomainSeparator() */\n  0xc0\n  dup2\n  dup2\n  mstore\n  pop\n  pop\n    /* \"src/base/ERC20.sol\":1981:2243  constructor(string memory _name, string memory _symbol, uint8 _decimals) {... */\n  pop\n  pop\n  pop\n    /* \"src/test/MyToken.sol\":313:323  msg.sender */\n  caller\n    /* \"src/test/MyToken.sol\":305:310  owner */\n  0x06\n  0x00\n    /* \"src/test/MyToken.sol\":305:323  owner = msg.sender */\n  0x0100\n  exp\n  dup2\n  sload\n  dup2\n  0xffffffffffffffffffffffffffffffffffffffff\n  mul\n  not\n  and\n  swap1\n  dup4\n  0xffffffffffffffffffffffffffffffffffffffff\n  and\n  mul\n  or\n  swap1\n  sstore\n  pop\n    /* \"src/test/MyToken.sol\":333:378  _mint(msg.sender, 100000000 * 10 ** decimals) */\n  tag_13\n    /* \"src/test/MyToken.sol\":339:349  msg.sender */\n  caller\n    /* \"src/test/MyToken.sol\":369:377  decimals */\n  mload(0x80)\n    /* \"src/test/MyToken.sol\":363:365  10 */\n  0x0a\n    /* \"src/test/MyToken.sol\":363:377  10 ** decimals */\n  tag_14\n  swap2\n  swap1\n  tag_15\n  jump\t// in\ntag_14:\n    /* \"src/test/MyToken.sol\":351:360  100000000 */\n  0x05f5e100\n    /* \"src/test/MyToken.sol\":351:377  100000000 * 10 ** decimals */\n  tag_16\n  swap2\n  swap1\n  tag_17\n  jump\t// in\ntag_16:\n    /* \"src/test/MyToken.sol\":333:338  _mint */\n  shl(0x20, tag_18)\n    /* \"src/test/MyToken.sol\":333:378  _mint(msg.sender, 100000000 * 10 ** decimals) */\n  0x20\n  shr\n  jump\t// in\ntag_13:\n    /* \"src/test/MyToken.sol\":163:385  constructor(... */\n  pop\n  pop\n  pop\n    /* \"src/test/MyToken.sol\":104:1057  contract MyToken is ERC20 {... */\n  jump(tag_19)\n    /* \"src/base/ERC20.sol\":5408:5810  function computeDomainSeparator() internal view virtual returns (bytes32) {... */\ntag_11:\n    /* \"src/base/ERC20.sol\":5473:5480  bytes32 */\n  0x00\n    /* \"src/base/ERC20.sol\":5550:5645  keccak256(\"EIP712Domain(string name,string version,uint256 chainId,address verifyingContract)\") */\n  0x8b73c3c69bb8fe3d512ecc4cf759cc79239f7b179b0ffacaa9a75d522b39400f\n    /* \"src/base/ERC20.sol\":5679:5683  name */\n  0x00\n    /* \"src/base/ERC20.sol\":5663:5685  keccak256(bytes(name)) */\n  mload(0x40)\n  tag_21\n  swap2\n  swap1\n  tag_22\n  jump\t// in\ntag_21:\n  mload(0x40)\n  dup1\n  swap2\n  sub\n  swap1\n  keccak256\n    /* \"src/base/ERC20.sol\":5703:5717  keccak256(\"1\") */\n  0xc89efdaa54c0f20c7adf612882df0950f5a951637e0307cdcb4c672f298b8bc6\n    /* \"src/base/ERC20.sol\":5735:5748  block.chainid */\n  chainid\n    /* \"src/base/ERC20.sol\":5774:5778  this */\n  address\n    /* \"src/base/ERC20.sol\":5522:5793  abi.encode(... */\n  add(0x20, mload(0x40))\n  tag_23\n  swap6\n  swap5\n  swap4\n  swap3\n  swap2\n  swap1\n  tag_24\n  jump\t// in\ntag_23:\n  mload(0x40)\n  0x20\n  dup2\n  dup4\n  sub\n  sub\n  dup2\n  mstore\n  swap1\n  0x40\n  mstore\n    /* \"src/base/ERC20.sol\":5499:5803  keccak256(... */\n  dup1\n  mload\n  swap1\n  0x20\n  add\n  keccak256\n    /* \"src/base/ERC20.sol\":5492:5803  return keccak256(... */\n  swap1\n  pop\n    /* \"src/base/ERC20.sol\":5408:5810  function computeDomainSeparator() internal view virtual returns (bytes32) {... */\n  swap1\n  jump\t// out\n    /* \"src/base/ERC20.sol\":6004:6329  function _mint(address to, uint256 amount) internal virtual {... */\ntag_18:\n    /* \"src/base/ERC20.sol\":6089:6095  amount */\n  dup1\n    /* \"src/base/ERC20.sol\":6074:6085  totalSupply */\n  0x02\n  0x00\n    /* \"src/base/ERC20.sol\":6074:6095  totalSupply += amount */\n  dup3\n  dup3\n  sload\n  tag_26\n  swap2\n  swap1\n  tag_27\n  jump\t// in\ntag_26:\n  swap3\n  pop\n  pop\n  dup2\n  swap1\n  sstore\n  pop\n    /* \"src/base/ERC20.sol\":6258:6264  amount */\n  dup1\n    /* \"src/base/ERC20.sol\":6241:6250  balanceOf */\n  0x03\n    /* \"src/base/ERC20.sol\":6241:6254  balanceOf[to] */\n  0x00\n    /* \"src/base/ERC20.sol\":6251:6253  to */\n  dup5\n    /* \"src/base/ERC20.sol\":6241:6254  balanceOf[to] */\n  0xffffffffffffffffffffffffffffffffffffffff\n  and\n  0xffffffffffffffffffffffffffffffffffffffff\n  and\n  dup2\n  mstore\n  0x20\n  add\n  swap1\n  dup2\n  mstore\n  0x20\n  add\n  0x00\n  keccak256\n  0x00\n    /* \"src/base/ERC20.sol\":6241:6264  balanceOf[to] += amount */\n  dup3\n  dup3\n  sload\n  add\n  swap3\n  pop\n  pop\n  dup2\n  swap1\n  sstore\n  pop\n    /* \"src/base/ERC20.sol\":6311:6313  to */\n  dup2\n    /* \"src/base/ERC20.sol\":6290:6322  Transfer(address(0), to, amount) */\n  0xffffffffffffffffffffffffffffffffffffffff\n  and\n    /* \"src/base/ERC20.sol\":6307:6308  0 */\n  0x00\n    /* \"src/base/ERC20.sol\":6290:6322  Transfer(address(0), to, amount) */\n  0xffffffffffffffffffffffffffffffffffffffff\n  and\n  0xddf252ad1be2c89b69c2b068fc378daa952ba7f163c4a11628f55a4df523b3ef\n    /* \"src/base/ERC20.sol\":6315:6321  amount */\n  dup4\n    /* \"src/base/ERC20.sol\":6290:6322  Transfer(address(0), to, amount) */\n  mload(0x40)\n  tag_28\n  swap2\n  swap1\n  tag_29\n  jump\t// in\ntag_28:\n  mload(0x40)\n  dup1\n  swap2\n  sub\n  swap1\n  log3\n    /* \"src/base/ERC20.sol\":6004:6329  function _mint(address to, uint256 amount) internal virtual {... */\n  pop\n  pop\n  jump\t// out\n    /* \"#utility.yul\":7:82   */\ntag_30:\n    /* \"#utility.yul\":40:46   */\n  0x00\n    /* \"#utility.yul\":73:75   */\n  0x40\n    /* \"#utility.yul\":67:76   */\n  mload\n    /* \"#utility.yul\":57:76   */\n  swap1\n  pop\n    /* \"#utility.yul\":7:82   */\n  swap1\n  jump\t// out\n    /* \"#utility.yul\":88:205   */\ntag_31:\n    /* \"#utility.yul\":197:198   */\n  0x00\n    /* \"#utility.yul\":194:195   */\n  0x00\n    /* \"#utility.yul\":187:199   */\n  revert\n    /* \"#utility.yul\":211:328   */\ntag_32:\n    /* \"#utility.yul\":320:321   */\n  0x00\n    /* \"#utility.yul\":317:318   */\n  0x00\n    /* \"#utility.yul\":310:322   */\n  revert\n    /* \"#utility.yul\":334:451   */\ntag_33:\n    /* \"#utility.yul\":443:444   */\n  0x00\n    /* \"#utility.yul\":440:441   */\n  0x00\n    /* \"#utility.yul\":433:445   */\n  revert\n    /* \"#utility.yul\":457:574   */\ntag_34:\n    /* \"#utility.yul\":566:567   */\n  0x00\n    /* \"#utility.yul\":563:564   */\n  0x00\n    /* \"#utility.yul\":556:568   */\n  revert\n    /* \"#utility.yul\":580:682   */\ntag_35:\n    /* \"#utility.yul\":621:627   */\n  0x00\n    /* \"#utility.yul\":672:674   */\n  0x1f\n    /* \"#utility.yul\":668:675   */\n  not\n    /* \"#utility.yul\":663:665   */\n  0x1f\n    /* \"#utility.yul\":656:661   */\n  dup4\n    /* \"#utility.yul\":652:666   */\n  add\n    /* \"#utility.yul\":648:676   */\n  and\n    /* \"#utility.yul\":638:676   */\n  swap1\n  pop\n    /* \"#utility.yul\":580:682   */\n  swap2\n  swap1\n  pop\n  jump\t// out\n    /* \"#utility.yul\":688:868   */\ntag_36:\n    /* \"#utility.yul\":736:813   */\n  0x4e487b7100000000000000000000000000000000000000000000000000000000\n    /* \"#utility.yul\":733:734   */\n  0x00\n    /* \"#utility.yul\":726:814   */\n  mstore\n    /* \"#utility.yul\":833:837   */\n  0x41\n    /* \"#utility.yul\":830:831   */\n  0x04\n    /* \"#utility.yul\":823:838   */\n  mstore\n    /* \"#utility.yul\":857:861   */\n  0x24\n    /* \"#utility.yul\":854:855   */\n  0x00\n    /* \"#utility.yul\":847:862   */\n  revert\n    /* \"#utility.yul\":874:1155   */\ntag_37:\n    /* \"#utility.yul\":957:984   */\n  tag_87\n    /* \"#utility.yul\":979:983   */\n  dup3\n    /* \"#utility.yul\":957:984   */\n  tag_35\n  jump\t// in\ntag_87:\n    /* \"#utility.yul\":949:955   */\n  dup2\n    /* \"#utility.yul\":945:985   */\n  add\n    /* \"#utility.yul\":1087:1093   */\n  dup2\n    /* \"#utility.yul\":1075:1085   */\n  dup2\n    /* \"#utility.yul\":1072:1094   */\n  lt\n    /* \"#utility.yul\":1051:1069   */\n  0xffffffffffffffff\n    /* \"#utility.yul\":1039:1049   */\n  dup3\n    /* \"#utility.yul\":1036:1070   */\n  gt\n    /* \"#utility.yul\":1033:1095   */\n  or\n    /* \"#utility.yul\":1030:1118   */\n  iszero\n  tag_88\n  jumpi\n    /* \"#utility.yul\":1098:1116   */\n  tag_89\n  tag_36\n  jump\t// in\ntag_89:\n    /* \"#utility.yul\":1030:1118   */\ntag_88:\n    /* \"#utility.yul\":1138:1148   */\n  dup1\n    /* \"#utility.yul\":1134:1136   */\n  0x40\n    /* \"#utility.yul\":1127:1149   */\n  mstore\n    /* \"#utility.yul\":917:1155   */\n  pop\n    /* \"#utility.yul\":874:1155   */\n  pop\n  pop\n  jump\t// out\n    /* \"#utility.yul\":1161:1290   */\ntag_38:\n    /* \"#utility.yul\":1195:1201   */\n  0x00\n    /* \"#utility.yul\":1222:1242   */\n  tag_91\n  tag_30\n  jump\t// in\ntag_91:\n    /* \"#utility.yul\":1212:1242   */\n  swap1\n  pop\n    /* \"#utility.yul\":1251:1284   */\n  tag_92\n    /* \"#utility.yul\":1279:1283   */\n  dup3\n    /* \"#utility.yul\":1271:1277   */\n  dup3\n    /* \"#utility.yul\":1251:1284   */\n  tag_37\n  jump\t// in\ntag_92:\n    /* \"#utility.yul\":1161:1290   */\n  swap2\n  swap1\n  pop\n  jump\t// out\n    /* \"#utility.yul\":1296:1604   */\ntag_39:\n    /* \"#utility.yul\":1358:1362   */\n  0x00\n    /* \"#utility.yul\":1448:1466   */\n  0xffffffffffffffff\n    /* \"#utility.yul\":1440:1446   */\n  dup3\n    /* \"#utility.yul\":1437:1467   */\n  gt\n    /* \"#utility.yul\":1434:1490   */\n  iszero\n  tag_94\n  jumpi\n    /* \"#utility.yul\":1470:1488   */\n  tag_95\n  tag_36\n  jump\t// in\ntag_95:\n    /* \"#utility.yul\":1434:1490   */\ntag_94:\n    /* \"#utility.yul\":1508:1537   */\n  tag_96\n    /* \"#utility.yul\":1530:1536   */\n  dup3\n    /* \"#utility.yul\":1508:1537   */\n  tag_35\n  jump\t// in\ntag_96:\n    /* \"#utility.yul\":1500:1537   */\n  swap1\n  pop\n    /* \"#utility.yul\":1592:1596   */\n  0x20\n    /* \"#utility.yul\":1586:1590   */\n  dup2\n    /* \"#utility.yul\":1582:1597   */\n  add\n    /* \"#utility.yul\":1574:1597   */\n  swap1\n  pop\n    /* \"#utility.yul\":1296:1604   */\n  swap2\n  swap1\n  pop\n  jump\t// out\n    /* \"#utility.yul\":1610:1749   */\ntag_40:\n    /* \"#utility.yul\":1699:1705   */\n  dup3\n    /* \"#utility.yul\":1694:1697   */\n  dup2\n    /* \"#utility.yul\":1689:1692   */\n  dup4\n    /* \"#utility.yul\":1683:1706   */\n  mcopy\n    /* \"#utility.yul\":1740:1741   */\n  0x00\n    /* \"#utility.yul\":1731:1737   */\n  dup4\n    /* \"#utility.yul\":1726:1729   */\n  dup4\n    /* \"#utility.yul\":1722:1738   */\n  add\n    /* \"#utility.yul\":1715:1742   */\n  mstore\n    /* \"#utility.yul\":1610:1749   */\n  pop\n  pop\n  pop\n  jump\t// out\n    /* \"#utility.yul\":1755:2189   */\ntag_41:\n    /* \"#utility.yul\":1844:1849   */\n  0x00\n    /* \"#utility.yul\":1869:1935   */\n  tag_99\n    /* \"#utility.yul\":1885:1934   */\n  tag_100\n    /* \"#utility.yul\":1927:1933   */\n  dup5\n    /* \"#utility.yul\":1885:1934   */\n  tag_39\n  jump\t// in\ntag_100:\n    /* \"#utility.yul\":1869:1935   */\n  tag_38\n  jump\t// in\ntag_99:\n    /* \"#utility.yul\":1860:1935   */\n  swap1\n  pop\n    /* \"#utility.yul\":1958:1964   */\n  dup3\n    /* \"#utility.yul\":1951:1956   */\n  dup2\n    /* \"#utility.yul\":1944:1965   */\n  mstore\n    /* \"#utility.yul\":1996:2000   */\n  0x20\n    /* \"#utility.yul\":1989:1994   */\n  dup2\n    /* \"#utility.yul\":1985:2001   */\n  add\n    /* \"#utility.yul\":2034:2037   */\n  dup5\n    /* \"#utility.yul\":2025:2031   */\n  dup5\n    /* \"#utility.yul\":2020:2023   */\n  dup5\n    /* \"#utility.yul\":2016:2032   */\n  add\n    /* \"#utility.yul\":2013:2038   */\n  gt\n    /* \"#utility.yul\":2010:2122   */\n  iszero\n  tag_101\n  jumpi\n    /* \"#utility.yul\":2041:2120   */\n  tag_102\n  tag_34\n  jump\t// in\ntag_102:\n    /* \"#utility.yul\":2010:2122   */\ntag_101:\n    /* \"#utility.yul\":2131:2183   */\n  tag_103\n    /* \"#utility.yul\":2176:2182   */\n  dup5\n    /* \"#utility.yul\":2171:2174   */\n  dup3\n    /* \"#utility.yul\":2166:2169   */\n  dup6\n    /* \"#utility.yul\":2131:2183   */\n  tag_40\n  jump\t// in\ntag_103:\n    /* \"#utility.yul\":1850:2189   */\n  pop\n    /* \"#utility.yul\":1755:2189   */\n  swap4\n  swap3\n  pop\n  pop\n  pop\n  jump\t// out\n    /* \"#utility.yul\":2209:2564   */\ntag_42:\n    /* \"#utility.yul\":2276:2281   */\n  0x00\n    /* \"#utility.yul\":2325:2328   */\n  dup3\n    /* \"#utility.yul\":2318:2322   */\n  0x1f\n    /* \"#utility.yul\":2310:2316   */\n  dup4\n    /* \"#utility.yul\":2306:2323   */\n  add\n    /* \"#utility.yul\":2302:2329   */\n  slt\n    /* \"#utility.yul\":2292:2414   */\n  tag_105\n  jumpi\n    /* \"#utility.yul\":2333:2412   */\n  tag_106\n  tag_33\n  jump\t// in\ntag_106:\n    /* \"#utility.yul\":2292:2414   */\ntag_105:\n    /* \"#utility.yul\":2443:2449   */\n  dup2\n    /* \"#utility.yul\":2437:2450   */\n  mload\n    /* \"#utility.yul\":2468:2558   */\n  tag_107\n    /* \"#utility.yul\":2554:2557   */\n  dup5\n    /* \"#utility.yul\":2546:2552   */\n  dup3\n    /* \"#utility.yul\":2539:2543   */\n  0x20\n    /* \"#utility.yul\":2531:2537   */\n  dup7\n    /* \"#utility.yul\":2527:2544   */\n  add\n    /* \"#utility.yul\":2468:2558   */\n  tag_41\n  jump\t// in\ntag_107:\n    /* \"#utility.yul\":2459:2558   */\n  swap2\n  pop\n    /* \"#utility.yul\":2282:2564   */\n  pop\n    /* \"#utility.yul\":2209:2564   */\n  swap3\n  swap2\n  pop\n  pop\n  jump\t// out\n    /* \"#utility.yul\":2570:2656   */\ntag_43:\n    /* \"#utility.yul\":2605:2612   */\n  0x00\n    /* \"#utility.yul\":2645:2649   */\n  0xff\n    /* \"#utility.yul\":2638:2643   */\n  dup3\n    /* \"#utility.yul\":2634:2650   */\n  and\n    /* \"#utility.yul\":2623:2650   */\n  swap1\n  pop\n    /* \"#utility.yul\":2570:2656   */\n  swap2\n  swap1\n  pop\n  jump\t// out\n    /* \"#utility.yul\":2662:2780   */\ntag_44:\n    /* \"#utility.yul\":2733:2755   */\n  tag_110\n    /* \"#utility.yul\":2749:2754   */\n  dup2\n    /* \"#utility.yul\":2733:2755   */\n  tag_43\n  jump\t// in\ntag_110:\n    /* \"#utility.yul\":2726:2731   */\n  dup2\n    /* \"#utility.yul\":2723:2756   */\n  eq\n    /* \"#utility.yul\":2713:2774   */\n  tag_111\n  jumpi\n    /* \"#utility.yul\":2770:2771   */\n  0x00\n    /* \"#utility.yul\":2767:2768   */\n  0x00\n    /* \"#utility.yul\":2760:2772   */\n  revert\n    /* \"#utility.yul\":2713:2774   */\ntag_111:\n    /* \"#utility.yul\":2662:2780   */\n  pop\n  jump\t// out\n    /* \"#utility.yul\":2786:2925   */\ntag_45:\n    /* \"#utility.yul\":2841:2846   */\n  0x00\n    /* \"#utility.yul\":2872:2878   */\n  dup2\n    /* \"#utility.yul\":2866:2879   */\n  mload\n    /* \"#utility.yul\":2857:2879   */\n  swap1\n  pop\n    /* \"#utility.yul\":2888:2919   */\n  tag_113\n    /* \"#utility.yul\":2913:2918   */\n  dup2\n    /* \"#utility.yul\":2888:2919   */\n  tag_44\n  jump\t// in\ntag_113:\n    /* \"#utility.yul\":2786:2925   */\n  swap3\n  swap2\n  pop\n  pop\n  jump\t// out\n    /* \"#utility.yul\":2931:3936   */\ntag_3:\n    /* \"#utility.yul\":3037:3043   */\n  0x00\n    /* \"#utility.yul\":3045:3051   */\n  0x00\n    /* \"#utility.yul\":3053:3059   */\n  0x00\n    /* \"#utility.yul\":3102:3104   */\n  0x60\n    /* \"#utility.yul\":3090:3099   */\n  dup5\n    /* \"#utility.yul\":3081:3088   */\n  dup7\n    /* \"#utility.yul\":3077:3100   */\n  sub\n    /* \"#utility.yul\":3073:3105   */\n  slt\n    /* \"#utility.yul\":3070:3189   */\n  iszero\n  tag_115\n  jumpi\n    /* \"#utility.yul\":3108:3187   */\n  tag_116\n  tag_31\n  jump\t// in\ntag_116:\n    /* \"#utility.yul\":3070:3189   */\ntag_115:\n    /* \"#utility.yul\":3249:3250   */\n  0x00\n    /* \"#utility.yul\":3238:3247   */\n  dup5\n    /* \"#utility.yul\":3234:3251   */\n  add\n    /* \"#utility.yul\":3228:3252   */\n  mload\n    /* \"#utility.yul\":3279:3297   */\n  0xffffffffffffffff\n    /* \"#utility.yul\":3271:3277   */\n  dup2\n    /* \"#utility.yul\":3268:3298   */\n  gt\n    /* \"#utility.yul\":3265:3382   */\n  iszero\n  tag_117\n  jumpi\n    /* \"#utility.yul\":3301:3380   */\n  tag_118\n  tag_32\n  jump\t// in\ntag_118:\n    /* \"#utility.yul\":3265:3382   */\ntag_117:\n    /* \"#utility.yul\":3406:3480   */\n  tag_119\n    /* \"#utility.yul\":3472:3479   */\n  dup7\n    /* \"#utility.yul\":3463:3469   */\n  dup3\n    /* \"#utility.yul\":3452:3461   */\n  dup8\n    /* \"#utility.yul\":3448:3470   */\n  add\n    /* \"#utility.yul\":3406:3480   */\n  tag_42\n  jump\t// in\ntag_119:\n    /* \"#utility.yul\":3396:3480   */\n  swap4\n  pop\n    /* \"#utility.yul\":3199:3490   */\n  pop\n    /* \"#utility.yul\":3550:3552   */\n  0x20\n    /* \"#utility.yul\":3539:3548   */\n  dup5\n    /* \"#utility.yul\":3535:3553   */\n  add\n    /* \"#utility.yul\":3529:3554   */\n  mload\n    /* \"#utility.yul\":3581:3599   */\n  0xffffffffffffffff\n    /* \"#utility.yul\":3573:3579   */\n  dup2\n    /* \"#utility.yul\":3570:3600   */\n  gt\n    /* \"#utility.yul\":3567:3684   */\n  iszero\n  tag_120\n  jumpi\n    /* \"#utility.yul\":3603:3682   */\n  tag_121\n  tag_32\n  jump\t// in\ntag_121:\n    /* \"#utility.yul\":3567:3684   */\ntag_120:\n    /* \"#utility.yul\":3708:3782   */\n  tag_122\n    /* \"#utility.yul\":3774:3781   */\n  dup7\n    /* \"#utility.yul\":3765:3771   */\n  dup3\n    /* \"#utility.yul\":3754:3763   */\n  dup8\n    /* \"#utility.yul\":3750:3772   */\n  add\n    /* \"#utility.yul\":3708:3782   */\n  tag_42\n  jump\t// in\ntag_122:\n    /* \"#utility.yul\":3698:3782   */\n  swap3\n  pop\n    /* \"#utility.yul\":3500:3792   */\n  pop\n    /* \"#utility.yul\":3831:3833   */\n  0x40\n    /* \"#utility.yul\":3857:3919   */\n  tag_123\n    /* \"#utility.yul\":3911:3918   */\n  dup7\n    /* \"#utility.yul\":3902:3908   */\n  dup3\n    /* \"#utility.yul\":3891:3900   */\n  dup8\n    /* \"#utility.yul\":3887:3909   */\n  add\n    /* \"#utility.yul\":3857:3919   */\n  tag_45\n  jump\t// in\ntag_123:\n    /* \"#utility.yul\":3847:3919   */\n  swap2\n  pop\n    /* \"#utility.yul\":3802:3929   */\n  pop\n    /* \"#utility.yul\":2931:3936   */\n  swap3\n  pop\n  swap3\n  pop\n  swap3\n  jump\t// out\n    /* \"#utility.yul\":3942:4041   */\ntag_46:\n    /* \"#utility.yul\":3994:4000   */\n  0x00\n    /* \"#utility.yul\":4028:4033   */\n  dup2\n    /* \"#utility.yul\":4022:4034   */\n  mload\n    /* \"#utility.yul\":4012:4034   */\n  swap1\n  pop\n    /* \"#utility.yul\":3942:4041   */\n  swap2\n  swap1\n  pop\n  jump\t// out\n    /* \"#utility.yul\":4047:4227   */\ntag_47:\n    /* \"#utility.yul\":4095:4172   */\n  0x4e487b7100000000000000000000000000000000000000000000000000000000\n    /* \"#utility.yul\":4092:4093   */\n  0x00\n    /* \"#utility.yul\":4085:4173   */\n  mstore\n    /* \"#utility.yul\":4192:4196   */\n  0x22\n    /* \"#utility.yul\":4189:4190   */\n  0x04\n    /* \"#utility.yul\":4182:4197   */\n  mstore\n    /* \"#utility.yul\":4216:4220   */\n  0x24\n    /* \"#utility.yul\":4213:4214   */\n  0x00\n    /* \"#utility.yul\":4206:4221   */\n  revert\n    /* \"#utility.yul\":4233:4553   */\ntag_48:\n    /* \"#utility.yul\":4277:4283   */\n  0x00\n    /* \"#utility.yul\":4314:4315   */\n  0x02\n    /* \"#utility.yul\":4308:4312   */\n  dup3\n    /* \"#utility.yul\":4304:4316   */\n  div\n    /* \"#utility.yul\":4294:4316   */\n  swap1\n  pop\n    /* \"#utility.yul\":4361:4362   */\n  0x01\n    /* \"#utility.yul\":4355:4359   */\n  dup3\n    /* \"#utility.yul\":4351:4363   */\n  and\n    /* \"#utility.yul\":4382:4400   */\n  dup1\n    /* \"#utility.yul\":4372:4453   */\n  tag_127\n  jumpi\n    /* \"#utility.yul\":4438:4442   */\n  0x7f\n    /* \"#utility.yul\":4430:4436   */\n  dup3\n    /* \"#utility.yul\":4426:4443   */\n  and\n    /* \"#utility.yul\":4416:4443   */\n  swap2\n  pop\n    /* \"#utility.yul\":4372:4453   */\ntag_127:\n    /* \"#utility.yul\":4500:4502   */\n  0x20\n    /* \"#utility.yul\":4492:4498   */\n  dup3\n    /* \"#utility.yul\":4489:4503   */\n  lt\n    /* \"#utility.yul\":4469:4487   */\n  dup2\n    /* \"#utility.yul\":4466:4504   */\n  sub\n    /* \"#utility.yul\":4463:4547   */\n  tag_128\n  jumpi\n    /* \"#utility.yul\":4519:4537   */\n  tag_129\n  tag_47\n  jump\t// in\ntag_129:\n    /* \"#utility.yul\":4463:4547   */\ntag_128:\n    /* \"#utility.yul\":4284:4553   */\n  pop\n    /* \"#utility.yul\":4233:4553   */\n  swap2\n  swap1\n  pop\n  jump\t// out\n    /* \"#utility.yul\":4559:4700   */\ntag_49:\n    /* \"#utility.yul\":4608:4612   */\n  0x00\n    /* \"#utility.yul\":4631:4634   */\n  dup2\n    /* \"#utility.yul\":4623:4634   */\n  swap1\n  pop\n    /* \"#utility.yul\":4654:4657   */\n  dup2\n    /* \"#utility.yul\":4651:4652   */\n  0x00\n    /* \"#utility.yul\":4644:4658   */\n  mstore\n    /* \"#utility.yul\":4688:4692   */\n  0x20\n    /* \"#utility.yul\":4685:4686   */\n  0x00\n    /* \"#utility.yul\":4675:4693   */\n  keccak256\n    /* \"#utility.yul\":4667:4693   */\n  swap1\n  pop\n    /* \"#utility.yul\":4559:4700   */\n  swap2\n  swap1\n  pop\n  jump\t// out\n    /* \"#utility.yul\":4706:4799   */\ntag_50:\n    /* \"#utility.yul\":4743:4749   */\n  0x00\n    /* \"#utility.yul\":4790:4792   */\n  0x20\n    /* \"#utility.yul\":4785:4787   */\n  0x1f\n    /* \"#utility.yul\":4778:4783   */\n  dup4\n    /* \"#utility.yul\":4774:4788   */\n  add\n    /* \"#utility.yul\":4770:4793   */\n  div\n    /* \"#utility.yul\":4760:4793   */\n  swap1\n  pop\n    /* \"#utility.yul\":4706:4799   */\n  swap2\n  swap1\n  pop\n  jump\t// out\n    /* \"#utility.yul\":4805:4912   */\ntag_51:\n    /* \"#utility.yul\":4849:4857   */\n  0x00\n    /* \"#utility.yul\":4899:4904   */\n  dup3\n    /* \"#utility.yul\":4893:4897   */\n  dup3\n    /* \"#utility.yul\":4889:4905   */\n  shl\n    /* \"#utility.yul\":4868:4905   */\n  swap1\n  pop\n    /* \"#utility.yul\":4805:4912   */\n  swap3\n  swap2\n  pop\n  pop\n  jump\t// out\n    /* \"#utility.yul\":4918:5311   */\ntag_52:\n    /* \"#utility.yul\":4987:4993   */\n  0x00\n    /* \"#utility.yul\":5037:5038   */\n  0x08\n    /* \"#utility.yul\":5025:5035   */\n  dup4\n    /* \"#utility.yul\":5021:5039   */\n  mul\n    /* \"#utility.yul\":5060:5157   */\n  tag_134\n    /* \"#utility.yul\":5090:5156   */\n  0xffffffffffffffffffffffffffffffffffffffffffffffffffffffffffffffff\n    /* \"#utility.yul\":5079:5088   */\n  dup3\n    /* \"#utility.yul\":5060:5157   */\n  tag_51\n  jump\t// in\ntag_134:\n    /* \"#utility.yul\":5178:5217   */\n  tag_135\n    /* \"#utility.yul\":5208:5216   */\n  dup7\n    /* \"#utility.yul\":5197:5206   */\n  dup4\n    /* \"#utility.yul\":5178:5217   */\n  tag_51\n  jump\t// in\ntag_135:\n    /* \"#utility.yul\":5166:5217   */\n  swap6\n  pop\n    /* \"#utility.yul\":5250:5254   */\n  dup1\n    /* \"#utility.yul\":5246:5255   */\n  not\n    /* \"#utility.yul\":5239:5244   */\n  dup5\n    /* \"#utility.yul\":5235:5256   */\n  and\n    /* \"#utility.yul\":5226:5256   */\n  swap4\n  pop\n    /* \"#utility.yul\":5299:5303   */\n  dup1\n    /* \"#utility.yul\":5289:5297   */\n  dup7\n    /* \"#utility.yul\":5285:5304   */\n  and\n    /* \"#utility.yul\":5278:5283   */\n  dup5\n    /* \"#utility.yul\":5275:5305   */\n  or\n    /* \"#utility.yul\":5265:5305   */\n  swap3\n  pop\n    /* \"#utility.yul\":4994:5311   */\n  pop\n  pop\n    /* \"#utility.yul\":4918:5311   */\n  swap4\n  swap3\n  pop\n  pop\n  pop\n  jump\t// out\n    /* \"#utility.yul\":5317:5394   */\ntag_53:\n    /* \"#utility.yul\":5354:5361   */\n  0x00\n    /* \"#utility.yul\":5383:5388   */\n  dup2\n    /* \"#utility.yul\":5372:5388   */\n  swap1\n  pop\n    /* \"#utility.yul\":5317:5394   */\n  swap2\n  swap1\n  pop\n  jump\t// out\n    /* \"#utility.yul\":5400:5460   */\ntag_54:\n    /* \"#utility.yul\":5428:5431   */\n  0x00\n    /* \"#utility.yul\":5449:5454   */\n  dup2\n    /* \"#utility.yul\":5442:5454   */\n  swap1\n  pop\n    /* \"#utility.yul\":5400:5460   */\n  swap2\n  swap1\n  pop\n  jump\t// out\n    /* \"#utility.yul\":5466:5608   */\ntag_55:\n    /* \"#utility.yul\":5516:5525   */\n  0x00\n    /* \"#utility.yul\":5549:5602   */\n  tag_139\n    /* \"#utility.yul\":5567:5601   */\n  tag_140\n    /* \"#utility.yul\":5576:5600   */\n  tag_141\n    /* \"#utility.yul\":5594:5599   */\n  dup5\n    /* \"#utility.yul\":5576:5600   */\n  tag_53\n  jump\t// in\ntag_141:\n    /* \"#utility.yul\":5567:5601   */\n  tag_54\n  jump\t// in\ntag_140:\n    /* \"#utility.yul\":5549:5602   */\n  tag_53\n  jump\t// in\ntag_139:\n    /* \"#utility.yul\":5536:5602   */\n  swap1\n  pop\n    /* \"#utility.yul\":5466:5608   */\n  swap2\n  swap1\n  pop\n  jump\t// out\n    /* \"#utility.yul\":5614:5689   */\ntag_56:\n    /* \"#utility.yul\":5657:5660   */\n  0x00\n    /* \"#utility.yul\":5678:5683   */\n  dup2\n    /* \"#utility.yul\":5671:5683   */\n  swap1\n  pop\n    /* \"#utility.yul\":5614:5689   */\n  swap2\n  swap1\n  pop\n  jump\t// out\n    /* \"#utility.yul\":5695:5964   */\ntag_57:\n    /* \"#utility.yul\":5805:5844   */\n  tag_144\n    /* \"#utility.yul\":5836:5843   */\n  dup4\n    /* \"#utility.yul\":5805:5844   */\n  tag_55\n  jump\t// in\ntag_144:\n    /* \"#utility.yul\":5866:5957   */\n  tag_145\n    /* \"#utility.yul\":5915:5956   */\n  tag_146\n    /* \"#utility.yul\":5939:5955   */\n  dup3\n    /* \"#utility.yul\":5915:5956   */\n  tag_56\n  jump\t// in\ntag_146:\n    /* \"#utility.yul\":5907:5913   */\n  dup5\n    /* \"#utility.yul\":5900:5904   */\n  dup5\n    /* \"#utility.yul\":5894:5905   */\n  sload\n    /* \"#utility.yul\":5866:5957   */\n  tag_52\n  jump\t// in\ntag_145:\n    /* \"#utility.yul\":5860:5864   */\n  dup3\n    /* \"#utility.yul\":5853:5958   */\n  sstore\n    /* \"#utility.yul\":5771:5964   */\n  pop\n    /* \"#utility.yul\":5695:5964   */\n  pop\n  pop\n  pop\n  jump\t// out\n    /* \"#utility.yul\":5970:6043   */\ntag_58:\n    /* \"#utility.yul\":6015:6018   */\n  0x00\n    /* \"#utility.yul\":6036:6037   */\n  0x00\n    /* \"#utility.yul\":6029:6037   */\n  swap1\n  pop\n    /* \"#utility.yul\":5970:6043   */\n  swap1\n  jump\t// out\n    /* \"#utility.yul\":6049:6238   */\ntag_59:\n    /* \"#utility.yul\":6126:6158   */\n  tag_149\n  tag_58\n  jump\t// in\ntag_149:\n    /* \"#utility.yul\":6167:6232   */\n  tag_150\n    /* \"#utility.yul\":6225:6231   */\n  dup2\n    /* \"#utility.yul\":6217:6223   */\n  dup5\n    /* \"#utility.yul\":6211:6215   */\n  dup5\n    /* \"#utility.yul\":6167:6232   */\n  tag_57\n  jump\t// in\ntag_150:\n    /* \"#utility.yul\":6102:6238   */\n  pop\n    /* \"#utility.yul\":6049:6238   */\n  pop\n  pop\n  jump\t// out\n    /* \"#utility.yul\":6244:6430   */\ntag_60:\n    /* \"#utility.yul\":6304:6424   */\ntag_152:\n    /* \"#utility.yul\":6321:6324   */\n  dup2\n    /* \"#utility.yul\":6314:6319   */\n  dup2\n    /* \"#utility.yul\":6311:6325   */\n  lt\n    /* \"#utility.yul\":6304:6424   */\n  iszero\n  tag_154\n  jumpi\n    /* \"#utility.yul\":6375:6414   */\n  tag_155\n    /* \"#utility.yul\":6412:6413   */\n  0x00\n    /* \"#utility.yul\":6405:6410   */\n  dup3\n    /* \"#utility.yul\":6375:6414   */\n  tag_59\n  jump\t// in\ntag_155:\n    /* \"#utility.yul\":6348:6349   */\n  0x01\n    /* \"#utility.yul\":6341:6346   */\n  dup2\n    /* \"#utility.yul\":6337:6350   */\n  add\n    /* \"#utility.yul\":6328:6350   */\n  swap1\n  pop\n    /* \"#utility.yul\":6304:6424   */\n  jump(tag_152)\ntag_154:\n    /* \"#utility.yul\":6244:6430   */\n  pop\n  pop\n  jump\t// out\n    /* \"#utility.yul\":6436:6979   */\ntag_61:\n    /* \"#utility.yul\":6537:6539   */\n  0x1f\n    /* \"#utility.yul\":6532:6535   */\n  dup3\n    /* \"#utility.yul\":6529:6540   */\n  gt\n    /* \"#utility.yul\":6526:6972   */\n  iszero\n  tag_157\n  jumpi\n    /* \"#utility.yul\":6571:6609   */\n  tag_158\n    /* \"#utility.yul\":6603:6608   */\n  dup2\n    /* \"#utility.yul\":6571:6609   */\n  tag_49\n  jump\t// in\ntag_158:\n    /* \"#utility.yul\":6655:6684   */\n  tag_159\n    /* \"#utility.yul\":6673:6683   */\n  dup5\n    /* \"#utility.yul\":6655:6684   */\n  tag_50\n  jump\t// in\ntag_159:\n    /* \"#utility.yul\":6645:6653   */\n  dup2\n    /* \"#utility.yul\":6641:6685   */\n  add\n    /* \"#utility.yul\":6838:6840   */\n  0x20\n    /* \"#utility.yul\":6826:6836   */\n  dup6\n    /* \"#utility.yul\":6823:6841   */\n  lt\n    /* \"#utility.yul\":6820:6869   */\n  iszero\n  tag_160\n  jumpi\n    /* \"#utility.yul\":6859:6867   */\n  dup2\n    /* \"#utility.yul\":6844:6867   */\n  swap1\n  pop\n    /* \"#utility.yul\":6820:6869   */\ntag_160:\n    /* \"#utility.yul\":6882:6962   */\n  tag_161\n    /* \"#utility.yul\":6938:6960   */\n  tag_162\n    /* \"#utility.yul\":6956:6959   */\n  dup6\n    /* \"#utility.yul\":6938:6960   */\n  tag_50\n  jump\t// in\ntag_162:\n    /* \"#utility.yul\":6928:6936   */\n  dup4\n    /* \"#utility.yul\":6924:6961   */\n  add\n    /* \"#utility.yul\":6911:6922   */\n  dup3\n    /* \"#utility.yul\":6882:6962   */\n  tag_60\n  jump\t// in\ntag_161:\n    /* \"#utility.yul\":6541:6972   */\n  pop\n  pop\n    /* \"#utility.yul\":6526:6972   */\ntag_157:\n    /* \"#utility.yul\":6436:6979   */\n  pop\n  pop\n  pop\n  jump\t// out\n    /* \"#utility.yul\":6985:7102   */\ntag_62:\n    /* \"#utility.yul\":7039:7047   */\n  0x00\n    /* \"#utility.yul\":7089:7094   */\n  dup3\n    /* \"#utility.yul\":7083:7087   */\n  dup3\n    /* \"#utility.yul\":7079:7095   */\n  shr\n    /* \"#utility.yul\":7058:7095   */\n  swap1\n  pop\n    /* \"#utility.yul\":6985:7102   */\n  swap3\n  swap2\n  pop\n  pop\n  jump\t// out\n    /* \"#utility.yul\":7108:7277   */\ntag_63:\n    /* \"#utility.yul\":7152:7158   */\n  0x00\n    /* \"#utility.yul\":7185:7236   */\n  tag_165\n    /* \"#utility.yul\":7233:7234   */\n  0x00\n    /* \"#utility.yul\":7229:7235   */\n  not\n    /* \"#utility.yul\":7221:7226   */\n  dup5\n    /* \"#utility.yul\":7218:7219   */\n  0x08\n    /* \"#utility.yul\":7214:7227   */\n  mul\n    /* \"#utility.yul\":7185:7236   */\n  tag_62\n  jump\t// in\ntag_165:\n    /* \"#utility.yul\":7181:7237   */\n  not\n    /* \"#utility.yul\":7266:7270   */\n  dup1\n    /* \"#utility.yul\":7260:7264   */\n  dup4\n    /* \"#utility.yul\":7256:7271   */\n  and\n    /* \"#utility.yul\":7246:7271   */\n  swap2\n  pop\n    /* \"#utility.yul\":7159:7277   */\n  pop\n    /* \"#utility.yul\":7108:7277   */\n  swap3\n  swap2\n  pop\n  pop\n  jump\t// out\n    /* \"#utility.yul\":7282:7577   */\ntag_64:\n    /* \"#utility.yul\":7358:7362   */\n  0x00\n    /* \"#utility.yul\":7504:7533   */\n  tag_167\n    /* \"#utility.yul\":7529:7532   */\n  dup4\n    /* \"#utility.yul\":7523:7527   */\n  dup4\n    /* \"#utility.yul\":7504:7533   */\n  tag_63\n  jump\t// in\ntag_167:\n    /* \"#utility.yul\":7496:7533   */\n  swap2\n  pop\n    /* \"#utility.yul\":7566:7569   */\n  dup3\n    /* \"#utility.yul\":7563:7564   */\n  0x02\n    /* \"#utility.yul\":7559:7570   */\n  mul\n    /* \"#utility.yul\":7553:7557   */\n  dup3\n    /* \"#utility.yul\":7550:7571   */\n  or\n    /* \"#utility.yul\":7542:7571   */\n  swap1\n  pop\n    /* \"#utility.yul\":7282:7577   */\n  swap3\n  swap2\n  pop\n  pop\n  jump\t// out\n    /* \"#utility.yul\":7582:8977   */\ntag_8:\n    /* \"#utility.yul\":7699:7736   */\n  tag_169\n    /* \"#utility.yul\":7732:7735   */\n  dup3\n    /* \"#utility.yul\":7699:7736   */\n  tag_46\n  jump\t// in\ntag_169:\n    /* \"#utility.yul\":7801:7819   */\n  0xffffffffffffffff\n    /* \"#utility.yul\":7793:7799   */\n  dup2\n    /* \"#utility.yul\":7790:7820   */\n  gt\n    /* \"#utility.yul\":7787:7843   */\n  iszero\n  tag_170\n  jumpi\n    /* \"#utility.yul\":7823:7841   */\n  tag_171\n  tag_36\n  jump\t// in\ntag_171:\n    /* \"#utility.yul\":7787:7843   */\ntag_170:\n    /* \"#utility.yul\":7867:7905   */\n  tag_172\n    /* \"#utility.yul\":7899:7903   */\n  dup3\n    /* \"#utility.yul\":7893:7904   */\n  sload\n    /* \"#utility.yul\":7867:7905   */\n  tag_48\n  jump\t// in\ntag_172:\n    /* \"#utility.yul\":7952:8019   */\n  tag_173\n    /* \"#utility.yul\":8012:8018   */\n  dup3\n    /* \"#utility.yul\":8004:8010   */\n  dup3\n    /* \"#utility.yul\":7998:8002   */\n  dup6\n    /* \"#utility.yul\":7952:8019   */\n  tag_61\n  jump\t// in\ntag_173:\n    /* \"#utility.yul\":8046:8047   */\n  0x00\n    /* \"#utility.yul\":8070:8074   */\n  0x20\n    /* \"#utility.yul\":8057:8074   */\n  swap1\n  pop\n    /* \"#utility.yul\":8102:8104   */\n  0x1f\n    /* \"#utility.yul\":8094:8100   */\n  dup4\n    /* \"#utility.yul\":8091:8105   */\n  gt\n    /* \"#utility.yul\":8119:8120   */\n  0x01\n    /* \"#utility.yul\":8114:8732   */\n  dup2\n  eq\n  tag_175\n  jumpi\n    /* \"#utility.yul\":8776:8777   */\n  0x00\n    /* \"#utility.yul\":8793:8799   */\n  dup5\n    /* \"#utility.yul\":8790:8867   */\n  iszero\n  tag_176\n  jumpi\n    /* \"#utility.yul\":8842:8851   */\n  dup3\n    /* \"#utility.yul\":8837:8840   */\n  dup8\n    /* \"#utility.yul\":8833:8852   */\n  add\n    /* \"#utility.yul\":8827:8853   */\n  mload\n    /* \"#utility.yul\":8818:8853   */\n  swap1\n  pop\n    /* \"#utility.yul\":8790:8867   */\ntag_176:\n    /* \"#utility.yul\":8893:8960   */\n  tag_177\n    /* \"#utility.yul\":8953:8959   */\n  dup6\n    /* \"#utility.yul\":8946:8951   */\n  dup3\n    /* \"#utility.yul\":8893:8960   */\n  tag_64\n  jump\t// in\ntag_177:\n    /* \"#utility.yul\":8887:8891   */\n  dup7\n    /* \"#utility.yul\":8880:8961   */\n  sstore\n    /* \"#utility.yul\":8749:8971   */\n  pop\n    /* \"#utility.yul\":8084:8971   */\n  jump(tag_174)\n    /* \"#utility.yul\":8114:8732   */\ntag_175:\n    /* \"#utility.yul\":8166:8170   */\n  0x1f\n    /* \"#utility.yul\":8162:8171   */\n  not\n    /* \"#utility.yul\":8154:8160   */\n  dup5\n    /* \"#utility.yul\":8150:8172   */\n  and\n    /* \"#utility.yul\":8200:8237   */\n  tag_178\n    /* \"#utility.yul\":8232:8236   */\n  dup7\n    /* \"#utility.yul\":8200:8237   */\n  tag_49\n  jump\t// in\ntag_178:\n    /* \"#utility.yul\":8259:8260   */\n  0x00\n    /* \"#utility.yul\":8273:8481   */\ntag_179:\n    /* \"#utility.yul\":8287:8294   */\n  dup3\n    /* \"#utility.yul\":8284:8285   */\n  dup2\n    /* \"#utility.yul\":8281:8295   */\n  lt\n    /* \"#utility.yul\":8273:8481   */\n  iszero\n  tag_181\n  jumpi\n    /* \"#utility.yul\":8366:8375   */\n  dup5\n    /* \"#utility.yul\":8361:8364   */\n  dup10\n    /* \"#utility.yul\":8357:8376   */\n  add\n    /* \"#utility.yul\":8351:8377   */\n  mload\n    /* \"#utility.yul\":8343:8349   */\n  dup3\n    /* \"#utility.yul\":8336:8378   */\n  sstore\n    /* \"#utility.yul\":8417:8418   */\n  0x01\n    /* \"#utility.yul\":8409:8415   */\n  dup3\n    /* \"#utility.yul\":8405:8419   */\n  add\n    /* \"#utility.yul\":8395:8419   */\n  swap2\n  pop\n    /* \"#utility.yul\":8464:8466   */\n  0x20\n    /* \"#utility.yul\":8453:8462   */\n  dup6\n    /* \"#utility.yul\":8449:8467   */\n  add\n    /* \"#utility.yul\":8436:8467   */\n  swap5\n  pop\n    /* \"#utility.yul\":8310:8314   */\n  0x20\n    /* \"#utility.yul\":8307:8308   */\n  dup2\n    /* \"#utility.yul\":8303:8315   */\n  add\n    /* \"#utility.yul\":8298:8315   */\n  swap1\n  pop\n    /* \"#utility.yul\":8273:8481   */\n  jump(tag_179)\ntag_181:\n    /* \"#utility.yul\":8509:8515   */\n  dup7\n    /* \"#utility.yul\":8500:8507   */\n  dup4\n    /* \"#utility.yul\":8497:8516   */\n  lt\n    /* \"#utility.yul\":8494:8673   */\n  iszero\n  tag_182\n  jumpi\n    /* \"#utility.yul\":8567:8576   */\n  dup5\n    /* \"#utility.yul\":8562:8565   */\n  dup10\n    /* \"#utility.yul\":8558:8577   */\n  add\n    /* \"#utility.yul\":8552:8578   */\n  mload\n    /* \"#utility.yul\":8610:8658   */\n  tag_183\n    /* \"#utility.yul\":8652:8656   */\n  0x1f\n    /* \"#utility.yul\":8644:8650   */\n  dup10\n    /* \"#utility.yul\":8640:8657   */\n  and\n    /* \"#utility.yul\":8629:8638   */\n  dup3\n    /* \"#utility.yul\":8610:8658   */\n  tag_63\n  jump\t// in\ntag_183:\n    /* \"#utility.yul\":8602:8608   */\n  dup4\n    /* \"#utility.yul\":8595:8659   */\n  sstore\n    /* \"#utility.yul\":8517:8673   */\n  pop\n    /* \"#utility.yul\":8494:8673   */\ntag_182:\n    /* \"#utility.yul\":8719:8720   */\n  0x01\n    /* \"#utility.yul\":8715:8716   */\n  0x02\n    /* \"#utility.yul\":8707:8713   */\n  dup9\n    /* \"#utility.yul\":8703:8717   */\n  mul\n    /* \"#utility.yul\":8699:8721   */\n  add\n    /* \"#utility.yul\":8693:8697   */\n  dup9\n    /* \"#utility.yul\":8686:8722   */\n  sstore\n    /* \"#utility.yul\":8121:8732   */\n  pop\n  pop\n  pop\n    /* \"#utility.yul\":8084:8971   */\ntag_174:\n  pop\n    /* \"#utility.yul\":7674:8977   */\n  pop\n  pop\n  pop\n    /* \"#utility.yul\":7582:8977   */\n  pop\n  pop\n  jump\t// out\n    /* \"#utility.yul\":8983:9163   */\ntag_65:\n    /* \"#utility.yul\":9031:9108   */\n  0x4e487b7100000000000000000000000000000000000000000000000000000000\n    /* \"#utility.yul\":9028:9029   */\n  0x00\n    /* \"#utility.yul\":9021:9109   */\n  mstore\n    /* \"#utility.yul\":9128:9132   */\n  0x11\n    /* \"#utility.yul\":9125:9126   */\n  0x04\n    /* \"#utility.yul\":9118:9133   */\n  mstore\n    /* \"#utility.yul\":9152:9156   */\n  0x24\n    /* \"#utility.yul\":9149:9150   */\n  0x00\n    /* \"#utility.yul\":9142:9157   */\n  revert\n    /* \"#utility.yul\":9169:9271   */\ntag_66:\n    /* \"#utility.yul\":9211:9219   */\n  0x00\n    /* \"#utility.yul\":9258:9263   */\n  dup2\n    /* \"#utility.yul\":9255:9256   */\n  0x01\n    /* \"#utility.yul\":9251:9264   */\n  shr\n    /* \"#utility.yul\":9230:9264   */\n  swap1\n  pop\n    /* \"#utility.yul\":9169:9271   */\n  swap2\n  swap1\n  pop\n  jump\t// out\n    /* \"#utility.yul\":9277:10125   */\ntag_67:\n    /* \"#utility.yul\":9338:9343   */\n  0x00\n    /* \"#utility.yul\":9345:9349   */\n  0x00\n    /* \"#utility.yul\":9369:9375   */\n  dup3\n    /* \"#utility.yul\":9360:9375   */\n  swap2\n  pop\n    /* \"#utility.yul\":9393:9398   */\n  dup4\n    /* \"#utility.yul\":9384:9398   */\n  swap1\n  pop\n    /* \"#utility.yul\":9407:10119   */\ntag_187:\n    /* \"#utility.yul\":9428:9429   */\n  0x01\n    /* \"#utility.yul\":9418:9426   */\n  dup6\n    /* \"#utility.yul\":9415:9430   */\n  gt\n    /* \"#utility.yul\":9407:10119   */\n  iszero\n  tag_189\n  jumpi\n    /* \"#utility.yul\":9523:9527   */\n  dup1\n    /* \"#utility.yul\":9518:9521   */\n  dup7\n    /* \"#utility.yul\":9514:9528   */\n  div\n    /* \"#utility.yul\":9508:9512   */\n  dup2\n    /* \"#utility.yul\":9505:9529   */\n  gt\n    /* \"#utility.yul\":9502:9552   */\n  iszero\n  tag_190\n  jumpi\n    /* \"#utility.yul\":9532:9550   */\n  tag_191\n  tag_65\n  jump\t// in\ntag_191:\n    /* \"#utility.yul\":9502:9552   */\ntag_190:\n    /* \"#utility.yul\":9582:9583   */\n  0x01\n    /* \"#utility.yul\":9572:9580   */\n  dup6\n    /* \"#utility.yul\":9568:9584   */\n  and\n    /* \"#utility.yul\":9565:10016   */\n  iszero\n  tag_192\n  jumpi\n    /* \"#utility.yul\":9997:10001   */\n  dup1\n    /* \"#utility.yul\":9990:9995   */\n  dup3\n    /* \"#utility.yul\":9986:10002   */\n  mul\n    /* \"#utility.yul\":9977:10002   */\n  swap2\n  pop\n    /* \"#utility.yul\":9565:10016   */\ntag_192:\n    /* \"#utility.yul\":10047:10051   */\n  dup1\n    /* \"#utility.yul\":10041:10045   */\n  dup2\n    /* \"#utility.yul\":10037:10052   */\n  mul\n    /* \"#utility.yul\":10029:10052   */\n  swap1\n  pop\n    /* \"#utility.yul\":10077:10109   */\n  tag_193\n    /* \"#utility.yul\":10100:10108   */\n  dup6\n    /* \"#utility.yul\":10077:10109   */\n  tag_66\n  jump\t// in\ntag_193:\n    /* \"#utility.yul\":10065:10109   */\n  swap5\n  pop\n    /* \"#utility.yul\":9407:10119   */\n  jump(tag_187)\ntag_189:\n    /* \"#utility.yul\":9277:10125   */\n  swap5\n  pop\n  swap5\n  swap3\n  pop\n  pop\n  pop\n  jump\t// out\n    /* \"#utility.yul\":10131:11204   */\ntag_68:\n    /* \"#utility.yul\":10185:10190   */\n  0x00\n    /* \"#utility.yul\":10376:10384   */\n  dup3\n    /* \"#utility.yul\":10366:10406   */\n  tag_195\n  jumpi\n    /* \"#utility.yul\":10397:10398   */\n  0x01\n    /* \"#utility.yul\":10388:10398   */\n  swap1\n  pop\n    /* \"#utility.yul\":10399:10404   */\n  jump(tag_194)\n    /* \"#utility.yul\":10366:10406   */\ntag_195:\n    /* \"#utility.yul\":10425:10429   */\n  dup2\n    /* \"#utility.yul\":10415:10451   */\n  tag_196\n  jumpi\n    /* \"#utility.yul\":10442:10443   */\n  0x00\n    /* \"#utility.yul\":10433:10443   */\n  swap1\n  pop\n    /* \"#utility.yul\":10444:10449   */\n  jump(tag_194)\n    /* \"#utility.yul\":10415:10451   */\ntag_196:\n    /* \"#utility.yul\":10511:10515   */\n  dup2\n    /* \"#utility.yul\":10559:10560   */\n  0x01\n    /* \"#utility.yul\":10554:10581   */\n  dup2\n  eq\n  tag_198\n  jumpi\n    /* \"#utility.yul\":10595:10596   */\n  0x02\n    /* \"#utility.yul\":10590:10781   */\n  dup2\n  eq\n  tag_199\n  jumpi\n    /* \"#utility.yul\":10504:10781   */\n  jump(tag_197)\n    /* \"#utility.yul\":10554:10581   */\ntag_198:\n    /* \"#utility.yul\":10572:10573   */\n  0x01\n    /* \"#utility.yul\":10563:10573   */\n  swap2\n  pop\n    /* \"#utility.yul\":10574:10579   */\n  pop\n  jump(tag_194)\n    /* \"#utility.yul\":10590:10781   */\ntag_199:\n    /* \"#utility.yul\":10635:10638   */\n  0xff\n    /* \"#utility.yul\":10625:10633   */\n  dup5\n    /* \"#utility.yul\":10622:10639   */\n  gt\n    /* \"#utility.yul\":10619:10662   */\n  iszero\n  tag_200\n  jumpi\n    /* \"#utility.yul\":10642:10660   */\n  tag_201\n  tag_65\n  jump\t// in\ntag_201:\n    /* \"#utility.yul\":10619:10662   */\ntag_200:\n    /* \"#utility.yul\":10691:10699   */\n  dup4\n    /* \"#utility.yul\":10688:10689   */\n  0x02\n    /* \"#utility.yul\":10684:10700   */\n  exp\n    /* \"#utility.yul\":10675:10700   */\n  swap2\n  pop\n    /* \"#utility.yul\":10726:10729   */\n  dup5\n    /* \"#utility.yul\":10719:10724   */\n  dup3\n    /* \"#utility.yul\":10716:10730   */\n  gt\n    /* \"#utility.yul\":10713:10753   */\n  iszero\n  tag_202\n  jumpi\n    /* \"#utility.yul\":10733:10751   */\n  tag_203\n  tag_65\n  jump\t// in\ntag_203:\n    /* \"#utility.yul\":10713:10753   */\ntag_202:\n    /* \"#utility.yul\":10766:10771   */\n  pop\n  jump(tag_194)\n    /* \"#utility.yul\":10504:10781   */\ntag_197:\n  pop\n    /* \"#utility.yul\":10890:10892   */\n  0x20\n    /* \"#utility.yul\":10880:10888   */\n  dup4\n    /* \"#utility.yul\":10877:10893   */\n  lt\n    /* \"#utility.yul\":10871:10874   */\n  0x0133\n    /* \"#utility.yul\":10865:10869   */\n  dup4\n    /* \"#utility.yul\":10862:10875   */\n  lt\n    /* \"#utility.yul\":10858:10894   */\n  and\n    /* \"#utility.yul\":10840:10842   */\n  0x4e\n    /* \"#utility.yul\":10830:10838   */\n  dup5\n    /* \"#utility.yul\":10827:10843   */\n  lt\n    /* \"#utility.yul\":10822:10824   */\n  0x0b\n    /* \"#utility.yul\":10816:10820   */\n  dup5\n    /* \"#utility.yul\":10813:10825   */\n  lt\n    /* \"#utility.yul\":10809:10844   */\n  and\n    /* \"#utility.yul\":10793:10904   */\n  or\n    /* \"#utility.yul\":10790:11036   */\n  iszero\n  tag_204\n  jumpi\n    /* \"#utility.yul\":10946:10954   */\n  dup3\n    /* \"#utility.yul\":10940:10944   */\n  dup3\n    /* \"#utility.yul\":10936:10955   */\n  exp\n    /* \"#utility.yul\":10927:10955   */\n  swap1\n  pop\n    /* \"#utility.yul\":10981:10984   */\n  dup4\n    /* \"#utility.yul\":10974:10979   */\n  dup2\n    /* \"#utility.yul\":10971:10985   */\n  gt\n    /* \"#utility.yul\":10968:11008   */\n  iszero\n  tag_205\n  jumpi\n    /* \"#utility.yul\":10988:11006   */\n  tag_206\n  tag_65\n  jump\t// in\ntag_206:\n    /* \"#utility.yul\":10968:11008   */\ntag_205:\n    /* \"#utility.yul\":11021:11026   */\n  jump(tag_194)\n    /* \"#utility.yul\":10790:11036   */\ntag_204:\n    /* \"#utility.yul\":11061:11103   */\n  tag_207\n    /* \"#utility.yul\":11099:11102   */\n  dup5\n    /* \"#utility.yul\":11089:11097   */\n  dup5\n    /* \"#utility.yul\":11083:11087   */\n  dup5\n    /* \"#utility.yul\":11080:11081   */\n  0x01\n    /* \"#utility.yul\":11061:11103   */\n  tag_67\n  jump\t// in\ntag_207:\n    /* \"#utility.yul\":11046:11103   */\n  swap3\n  pop\n  swap1\n  pop\n    /* \"#utility.yul\":11135:11139   */\n  dup2\n    /* \"#utility.yul\":11130:11133   */\n  dup5\n    /* \"#utility.yul\":11126:11140   */\n  div\n    /* \"#utility.yul\":11119:11124   */\n  dup2\n    /* \"#utility.yul\":11116:11141   */\n  gt\n    /* \"#utility.yul\":11113:11164   */\n  iszero\n  tag_208\n  jumpi\n    /* \"#utility.yul\":11144:11162   */\n  tag_209\n  tag_65\n  jump\t// in\ntag_209:\n    /* \"#utility.yul\":11113:11164   */\ntag_208:\n    /* \"#utility.yul\":11193:11197   */\n  dup2\n    /* \"#utility.yul\":11186:11191   */\n  dup2\n    /* \"#utility.yul\":11182:11198   */\n  mul\n    /* \"#utility.yul\":11173:11198   */\n  swap1\n  pop\n    /* \"#utility.yul\":10131:11204   */\ntag_194:\n  swap4\n  swap3\n  pop\n  pop\n  pop\n  jump\t// out\n    /* \"#utility.yul\":11210:11491   */\ntag_15:\n    /* \"#utility.yul\":11268:11273   */\n  0x00\n    /* \"#utility.yul\":11292:11315   */\n  tag_211\n    /* \"#utility.yul\":11310:11314   */\n  dup3\n    /* \"#utility.yul\":11292:11315   */\n  tag_53\n  jump\t// in\ntag_211:\n    /* \"#utility.yul\":11284:11315   */\n  swap2\n  pop\n    /* \"#utility.yul\":11336:11361   */\n  tag_212\n    /* \"#utility.yul\":11352:11360   */\n  dup4\n    /* \"#utility.yul\":11336:11361   */\n  tag_43\n  jump\t// in\ntag_212:\n    /* \"#utility.yul\":11324:11361   */\n  swap3\n  pop\n    /* \"#utility.yul\":11380:11484   */\n  tag_213\n    /* \"#utility.yul\":11417:11483   */\n  0xffffffffffffffffffffffffffffffffffffffffffffffffffffffffffffffff\n    /* \"#utility.yul\":11407:11415   */\n  dup5\n    /* \"#utility.yul\":11401:11405   */\n  dup5\n    /* \"#utility.yul\":11380:11484   */\n  tag_68\n  jump\t// in\ntag_213:\n    /* \"#utility.yul\":11371:11484   */\n  swap1\n  pop\n    /* \"#utility.yul\":11210:11491   */\n  swap3\n  swap2\n  pop\n  pop\n  jump\t// out\n    /* \"#utility.yul\":11497:11907   */\ntag_17:\n    /* \"#utility.yul\":11537:11544   */\n  0x00\n    /* \"#utility.yul\":11560:11580   */\n  tag_215\n    /* \"#utility.yul\":11578:11579   */\n  dup3\n    /* \"#utility.yul\":11560:11580   */\n  tag_53\n  jump\t// in\ntag_215:\n    /* \"#utility.yul\":11555:11580   */\n  swap2\n  pop\n    /* \"#utility.yul\":11594:11614   */\n  tag_216\n    /* \"#utility.yul\":11612:11613   */\n  dup4\n    /* \"#utility.yul\":11594:11614   */\n  tag_53\n  jump\t// in\ntag_216:\n    /* \"#utility.yul\":11589:11614   */\n  swap3\n  pop\n    /* \"#utility.yul\":11649:11650   */\n  dup3\n    /* \"#utility.yul\":11646:11647   */\n  dup3\n    /* \"#utility.yul\":11642:11651   */\n  mul\n    /* \"#utility.yul\":11671:11701   */\n  tag_217\n    /* \"#utility.yul\":11689:11700   */\n  dup2\n    /* \"#utility.yul\":11671:11701   */\n  tag_53\n  jump\t// in\ntag_217:\n    /* \"#utility.yul\":11660:11701   */\n  swap2\n  pop\n    /* \"#utility.yul\":11850:11851   */\n  dup3\n    /* \"#utility.yul\":11841:11848   */\n  dup3\n    /* \"#utility.yul\":11837:11852   */\n  div\n    /* \"#utility.yul\":11834:11835   */\n  dup5\n    /* \"#utility.yul\":11831:11853   */\n  eq\n    /* \"#utility.yul\":11811:11812   */\n  dup4\n    /* \"#utility.yul\":11804:11813   */\n  iszero\n    /* \"#utility.yul\":11784:11867   */\n  or\n    /* \"#utility.yul\":11761:11900   */\n  tag_218\n  jumpi\n    /* \"#utility.yul\":11880:11898   */\n  tag_219\n  tag_65\n  jump\t// in\ntag_219:\n    /* \"#utility.yul\":11761:11900   */\ntag_218:\n    /* \"#utility.yul\":11545:11907   */\n  pop\n    /* \"#utility.yul\":11497:11907   */\n  swap3\n  swap2\n  pop\n  pop\n  jump\t// out\n    /* \"#utility.yul\":11913:12060   */\ntag_69:\n    /* \"#utility.yul\":12014:12025   */\n  0x00\n    /* \"#utility.yul\":12051:12054   */\n  dup2\n    /* \"#utility.yul\":12036:12054   */\n  swap1\n  pop\n    /* \"#utility.yul\":11913:12060   */\n  swap3\n  swap2\n  pop\n  pop\n  jump\t// out\n    /* \"#utility.yul\":12066:12210   */\ntag_70:\n    /* \"#utility.yul\":12118:12122   */\n  0x00\n    /* \"#utility.yul\":12141:12144   */\n  dup2\n    /* \"#utility.yul\":12133:12144   */\n  swap1\n  pop\n    /* \"#utility.yul\":12164:12167   */\n  dup2\n    /* \"#utility.yul\":12161:12162   */\n  0x00\n    /* \"#utility.yul\":12154:12168   */\n  mstore\n    /* \"#utility.yul\":12198:12202   */\n  0x20\n    /* \"#utility.yul\":12195:12196   */\n  0x00\n    /* \"#utility.yul\":12185:12203   */\n  keccak256\n    /* \"#utility.yul\":12177:12203   */\n  swap1\n  pop\n    /* \"#utility.yul\":12066:12210   */\n  swap2\n  swap1\n  pop\n  jump\t// out\n    /* \"#utility.yul\":12238:13116   */\ntag_71:\n    /* \"#utility.yul\":12343:12346   */\n  0x00\n    /* \"#utility.yul\":12380:12385   */\n  dup2\n    /* \"#utility.yul\":12374:12386   */\n  sload\n    /* \"#utility.yul\":12409:12445   */\n  tag_223\n    /* \"#utility.yul\":12435:12444   */\n  dup2\n    /* \"#utility.yul\":12409:12445   */\n  tag_48\n  jump\t// in\ntag_223:\n    /* \"#utility.yul\":12461:12549   */\n  tag_224\n    /* \"#utility.yul\":12542:12548   */\n  dup2\n    /* \"#utility.yul\":12537:12540   */\n  dup7\n    /* \"#utility.yul\":12461:12549   */\n  tag_69\n  jump\t// in\ntag_224:\n    /* \"#utility.yul\":12454:12549   */\n  swap5\n  pop\n    /* \"#utility.yul\":12580:12581   */\n  0x01\n    /* \"#utility.yul\":12569:12578   */\n  dup3\n    /* \"#utility.yul\":12565:12582   */\n  and\n    /* \"#utility.yul\":12596:12597   */\n  0x00\n    /* \"#utility.yul\":12591:12757   */\n  dup2\n  eq\n  tag_226\n  jumpi\n    /* \"#utility.yul\":12771:12772   */\n  0x01\n    /* \"#utility.yul\":12766:13110   */\n  dup2\n  eq\n  tag_227\n  jumpi\n    /* \"#utility.yul\":12558:13110   */\n  jump(tag_225)\n    /* \"#utility.yul\":12591:12757   */\ntag_226:\n    /* \"#utility.yul\":12675:12679   */\n  0xff\n    /* \"#utility.yul\":12671:12680   */\n  not\n    /* \"#utility.yul\":12660:12669   */\n  dup4\n    /* \"#utility.yul\":12656:12681   */\n  and\n    /* \"#utility.yul\":12651:12654   */\n  dup7\n    /* \"#utility.yul\":12644:12682   */\n  mstore\n    /* \"#utility.yul\":12737:12743   */\n  dup2\n    /* \"#utility.yul\":12730:12744   */\n  iszero\n    /* \"#utility.yul\":12723:12745   */\n  iszero\n    /* \"#utility.yul\":12715:12721   */\n  dup3\n    /* \"#utility.yul\":12711:12746   */\n  mul\n    /* \"#utility.yul\":12706:12709   */\n  dup7\n    /* \"#utility.yul\":12702:12747   */\n  add\n    /* \"#utility.yul\":12695:12747   */\n  swap4\n  pop\n    /* \"#utility.yul\":12591:12757   */\n  jump(tag_225)\n    /* \"#utility.yul\":12766:13110   */\ntag_227:\n    /* \"#utility.yul\":12833:12874   */\n  tag_228\n    /* \"#utility.yul\":12868:12873   */\n  dup6\n    /* \"#utility.yul\":12833:12874   */\n  tag_70\n  jump\t// in\ntag_228:\n    /* \"#utility.yul\":12896:12897   */\n  0x00\n    /* \"#utility.yul\":12910:13064   */\ntag_229:\n    /* \"#utility.yul\":12924:12930   */\n  dup4\n    /* \"#utility.yul\":12921:12922   */\n  dup2\n    /* \"#utility.yul\":12918:12931   */\n  lt\n    /* \"#utility.yul\":12910:13064   */\n  iszero\n  tag_231\n  jumpi\n    /* \"#utility.yul\":12998:13005   */\n  dup2\n    /* \"#utility.yul\":12992:13006   */\n  sload\n    /* \"#utility.yul\":12988:12989   */\n  dup2\n    /* \"#utility.yul\":12983:12986   */\n  dup10\n    /* \"#utility.yul\":12979:12990   */\n  add\n    /* \"#utility.yul\":12972:13007   */\n  mstore\n    /* \"#utility.yul\":13048:13049   */\n  0x01\n    /* \"#utility.yul\":13039:13046   */\n  dup3\n    /* \"#utility.yul\":13035:13050   */\n  add\n    /* \"#utility.yul\":13024:13050   */\n  swap2\n  pop\n    /* \"#utility.yul\":12946:12950   */\n  0x20\n    /* \"#utility.yul\":12943:12944   */\n  dup2\n    /* \"#utility.yul\":12939:12951   */\n  add\n    /* \"#utility.yul\":12934:12951   */\n  swap1\n  pop\n    /* \"#utility.yul\":12910:13064   */\n  jump(tag_229)\ntag_231:\n    /* \"#utility.yul\":13093:13099   */\n  dup4\n    /* \"#utility.yul\":13088:13091   */\n  dup9\n    /* \"#utility.yul\":13084:13100   */\n  add\n    /* \"#utility.yul\":13077:13100   */\n  swap6\n  pop\n    /* \"#utility.yul\":12773:13110   */\n  pop\n  pop\n    /* \"#utility.yul\":12558:13110   */\ntag_225:\n  pop\n    /* \"#utility.yul\":12347:13116   */\n  pop\n  pop\n    /* \"#utility.yul\":12238:13116   */\n  swap3\n  swap2\n  pop\n  pop\n  jump\t// out\n    /* \"#utility.yul\":13122:13395   */\ntag_22:\n    /* \"#utility.yul\":13253:13256   */\n  0x00\n    /* \"#utility.yul\":13275:13369   */\n  tag_233\n    /* \"#utility.yul\":13365:13368   */\n  dup3\n    /* \"#utility.yul\":13356:13362   */\n  dup5\n    /* \"#utility.yul\":13275:13369   */\n  tag_71\n  jump\t// in\ntag_233:\n    /* \"#utility.yul\":13268:13369   */\n  swap2\n  pop\n    /* \"#utility.yul\":13386:13389   */\n  dup2\n    /* \"#utility.yul\":13379:13389   */\n  swap1\n  pop\n    /* \"#utility.yul\":13122:13395   */\n  swap3\n  swap2\n  pop\n  pop\n  jump\t// out\n    /* \"#utility.yul\":13401:13478   */\ntag_72:\n    /* \"#utility.yul\":13438:13445   */\n  0x00\n    /* \"#utility.yul\":13467:13472   */\n  dup2\n    /* \"#utility.yul\":13456:13472   */\n  swap1\n  pop\n    /* \"#utility.yul\":13401:13478   */\n  swap2\n  swap1\n  pop\n  jump\t// out\n    /* \"#utility.yul\":13484:13602   */\ntag_73:\n    /* \"#utility.yul\":13571:13595   */\n  tag_236\n    /* \"#utility.yul\":13589:13594   */\n  dup2\n    /* \"#utility.yul\":13571:13595   */\n  tag_72\n  jump\t// in\ntag_236:\n    /* \"#utility.yul\":13566:13569   */\n  dup3\n    /* \"#utility.yul\":13559:13596   */\n  mstore\n    /* \"#utility.yul\":13484:13602   */\n  pop\n  pop\n  jump\t// out\n    /* \"#utility.yul\":13608:13726   */\ntag_74:\n    /* \"#utility.yul\":13695:13719   */\n  tag_238\n    /* \"#utility.yul\":13713:13718   */\n  dup2\n    /* \"#utility.yul\":13695:13719   */\n  tag_53\n  jump\t// in\ntag_238:\n    /* \"#utility.yul\":13690:13693   */\n  dup3\n    /* \"#utility.yul\":13683:13720   */\n  mstore\n    /* \"#utility.yul\":13608:13726   */\n  pop\n  pop\n  jump\t// out\n    /* \"#utility.yul\":13732:13858   */\ntag_75:\n    /* \"#utility.yul\":13769:13776   */\n  0x00\n    /* \"#utility.yul\":13809:13851   */\n  0xffffffffffffffffffffffffffffffffffffffff\n    /* \"#utility.yul\":13802:13807   */\n  dup3\n    /* \"#utility.yul\":13798:13852   */\n  and\n    /* \"#utility.yul\":13787:13852   */\n  swap1\n  pop\n    /* \"#utility.yul\":13732:13858   */\n  swap2\n  swap1\n  pop\n  jump\t// out\n    /* \"#utility.yul\":13864:13960   */\ntag_76:\n    /* \"#utility.yul\":13901:13908   */\n  0x00\n    /* \"#utility.yul\":13930:13954   */\n  tag_241\n    /* \"#utility.yul\":13948:13953   */\n  dup3\n    /* \"#utility.yul\":13930:13954   */\n  tag_75\n  jump\t// in\ntag_241:\n    /* \"#utility.yul\":13919:13954   */\n  swap1\n  pop\n    /* \"#utility.yul\":13864:13960   */\n  swap2\n  swap1\n  pop\n  jump\t// out\n    /* \"#utility.yul\":13966:14084   */\ntag_77:\n    /* \"#utility.yul\":14053:14077   */\n  tag_243\n    /* \"#utility.yul\":14071:14076   */\n  dup2\n    /* \"#utility.yul\":14053:14077   */\n  tag_76\n  jump\t// in\ntag_243:\n    /* \"#utility.yul\":14048:14051   */\n  dup3\n    /* \"#utility.yul\":14041:14078   */\n  mstore\n    /* \"#utility.yul\":13966:14084   */\n  pop\n  pop\n  jump\t// out\n    /* \"#utility.yul\":14090:14754   */\ntag_24:\n    /* \"#utility.yul\":14295:14299   */\n  0x00\n    /* \"#utility.yul\":14333:14336   */\n  0xa0\n    /* \"#utility.yul\":14322:14331   */\n  dup3\n    /* \"#utility.yul\":14318:14337   */\n  add\n    /* \"#utility.yul\":14310:14337   */\n  swap1\n  pop\n    /* \"#utility.yul\":14347:14418   */\n  tag_245\n    /* \"#utility.yul\":14415:14416   */\n  0x00\n    /* \"#utility.yul\":14404:14413   */\n  dup4\n    /* \"#utility.yul\":14400:14417   */\n  add\n    /* \"#utility.yul\":14391:14397   */\n  dup9\n    /* \"#utility.yul\":14347:14418   */\n  tag_73\n  jump\t// in\ntag_245:\n    /* \"#utility.yul\":14428:14500   */\n  tag_246\n    /* \"#utility.yul\":14496:14498   */\n  0x20\n    /* \"#utility.yul\":14485:14494   */\n  dup4\n    /* \"#utility.yul\":14481:14499   */\n  add\n    /* \"#utility.yul\":14472:14478   */\n  dup8\n    /* \"#utility.yul\":14428:14500   */\n  tag_73\n  jump\t// in\ntag_246:\n    /* \"#utility.yul\":14510:14582   */\n  tag_247\n    /* \"#utility.yul\":14578:14580   */\n  0x40\n    /* \"#utility.yul\":14567:14576   */\n  dup4\n    /* \"#utility.yul\":14563:14581   */\n  add\n    /* \"#utility.yul\":14554:14560   */\n  dup7\n    /* \"#utility.yul\":14510:14582   */\n  tag_73\n  jump\t// in\ntag_247:\n    /* \"#utility.yul\":14592:14664   */\n  tag_248\n    /* \"#utility.yul\":14660:14662   */\n  0x60\n    /* \"#utility.yul\":14649:14658   */\n  dup4\n    /* \"#utility.yul\":14645:14663   */\n  add\n    /* \"#utility.yul\":14636:14642   */\n  dup6\n    /* \"#utility.yul\":14592:14664   */\n  tag_74\n  jump\t// in\ntag_248:\n    /* \"#utility.yul\":14674:14747   */\n  tag_249\n    /* \"#utility.yul\":14742:14745   */\n  0x80\n    /* \"#utility.yul\":14731:14740   */\n  dup4\n    /* \"#utility.yul\":14727:14746   */\n  add\n    /* \"#utility.yul\":14718:14724   */\n  dup5\n    /* \"#utility.yul\":14674:14747   */\n  tag_77\n  jump\t// in\ntag_249:\n    /* \"#utility.yul\":14090:14754   */\n  swap7\n  swap6\n  pop\n  pop\n  pop\n  pop\n  pop\n  pop\n  jump\t// out\n    /* \"#utility.yul\":14760:14951   */\ntag_27:\n    /* \"#utility.yul\":14800:14803   */\n  0x00\n    /* \"#utility.yul\":14819:14839   */\n  tag_251\n    /* \"#utility.yul\":14837:14838   */\n  dup3\n    /* \"#utility.yul\":14819:14839   */\n  tag_53\n  jump\t// in\ntag_251:\n    /* \"#utility.yul\":14814:14839   */\n  swap2\n  pop\n    /* \"#utility.yul\":14853:14873   */\n  tag_252\n    /* \"#utility.yul\":14871:14872   */\n  dup4\n    /* \"#utility.yul\":14853:14873   */\n  tag_53\n  jump\t// in\ntag_252:\n    /* \"#utility.yul\":14848:14873   */\n  swap3\n  pop\n    /* \"#utility.yul\":14896:14897   */\n  dup3\n    /* \"#utility.yul\":14893:14894   */\n  dup3\n    /* \"#utility.yul\":14889:14898   */\n  add\n    /* \"#utility.yul\":14882:14898   */\n  swap1\n  pop\n    /* \"#utility.yul\":14917:14920   */\n  dup1\n    /* \"#utility.yul\":14914:14915   */\n  dup3\n    /* \"#utility.yul\":14911:14921   */\n  gt\n    /* \"#utility.yul\":14908:14944   */\n  iszero\n  tag_253\n  jumpi\n    /* \"#utility.yul\":14924:14942   */\n  tag_254\n  tag_65\n  jump\t// in\ntag_254:\n    /* \"#utility.yul\":14908:14944   */\ntag_253:\n    /* \"#utility.yul\":14760:14951   */\n  swap3\n  swap2\n  pop\n  pop\n  jump\t// out\n    /* \"#utility.yul\":14957:15179   */\ntag_29:\n    /* \"#utility.yul\":15050:15054   */\n  0x00\n    /* \"#utility.yul\":15088:15090   */\n  0x20\n    /* \"#utility.yul\":15077:15086   */\n  dup3\n    /* \"#utility.yul\":15073:15091   */\n  add\n    /* \"#utility.yul\":15065:15091   */\n  swap1\n  pop\n    /* \"#utility.yul\":15101:15172   */\n  tag_256\n    /* \"#utility.yul\":15169:15170   */\n  0x00\n    /* \"#utility.yul\":15158:15167   */\n  dup4\n    /* \"#utility.yul\":15154:15171   */\n  add\n    /* \"#utility.yul\":15145:15151   */\n  dup5\n    /* \"#utility.yul\":15101:15172   */\n  tag_74\n  jump\t// in\ntag_256:\n    /* \"#utility.yul\":14957:15179   */\n  swap3\n  swap2\n  pop\n  pop\n  jump\t// out\n    /* \"src/test/MyToken.sol\":104:1057  contract MyToken is ERC20 {... */\ntag_19:\n  mload(0x80)\n  mload(0xa0)\n  mload(0xc0)\n  codecopy(0x00, dataOffset(sub_0), dataSize(sub_0))\n  0x00\n  assignImmutable(\"0x880de8116b3dfac28e9ff528a9fef1d1e0a51449c1addce011ffec1f302992b6\")\n  0x00\n  assignImmutable(\"0xd67d834462ca31eaef1f30157e31659f60355143b7441e6fc7d9eae1fa79f3f8\")\n  0x00\n  assignImmutable(\"0x6585423cb6456b1d4957f6454d2f004f0c4f58d53a00082412d5c2ef4b1b31fd\")\n  return(0x00, dataSize(sub_0))\nstop\n\nsub_0: assembly {\n        /* \"src/test/MyToken.sol\":104:1057  contract MyToken is ERC20 {... */\n      mstore(0x40, 0x80)\n      jumpi(tag_1, lt(calldatasize, 0x04))\n      shr(0xe0, calldataload(0x00))\n      dup1\n      0x70a08231\n      gt\n      tag_19\n      jumpi\n      dup1\n      0xa9059cbb\n      gt\n      tag_20\n      jumpi\n      dup1\n      0xa9059cbb\n      eq\n      tag_15\n      jumpi\n      dup1\n      0xd0e30db0\n      eq\n      tag_16\n      jumpi\n      dup1\n      0xd505accf\n      eq\n      tag_17\n      jumpi\n      dup1\n      0xdd62ed3e\n      eq\n      tag_18\n      jumpi\n      jump(tag_2)\n    tag_20:\n      dup1\n      0x70a08231\n      eq\n      tag_11\n      jumpi\n      dup1\n      0x7ecebe00\n      eq\n      tag_12\n      jumpi\n      dup1\n      0x8da5cb5b\n      eq\n      tag_13\n      jumpi\n      dup1\n      0x95d89b41\n      eq\n      tag_14\n      jumpi\n      jump(tag_2)\n    tag_19:\n      dup1\n      0x2e1a7d4d\n      gt\n      tag_21\n      jumpi\n      dup1\n      0x2e1a7d4d\n      eq\n      tag_7\n      jumpi\n      dup1\n      0x313ce567\n      eq\n      tag_8\n      jumpi\n      dup1\n      0x3644e515\n      eq\n      tag_9\n      jumpi\n      dup1\n      0x40c10f19\n      eq\n      tag_10\n      jumpi\n      jump(tag_2)\n    tag_21:\n      dup1\n      0x06fdde03\n      eq\n      tag_3\n      jumpi\n      dup1\n      0x095ea7b3\n      eq\n      tag_4\n      jumpi\n      dup1\n      0x18160ddd\n      eq\n      tag_5\n      jumpi\n      dup1\n      0x23b872dd\n      eq\n      tag_6\n      jumpi\n      jump(tag_2)\n    tag_1:\n      jumpi(tag_2, calldatasize)\n        /* \"src/test/MyToken.sol\":1039:1048  deposit() */\n      tag_24\n        /* \"src/test/MyToken.sol\":1039:1046  deposit */\n      tag_25\n        /* \"src/test/MyToken.sol\":1039:1048  deposit() */\n      jump\t// in\n    tag_24:\n        /* \"src/test/MyToken.sol\":104:1057  contract MyToken is ERC20 {... */\n      stop\n    tag_2:\n      revert(0x00, 0x00)\n        /* \"src/base/ERC20.sol\":1031:1049  string public name */\n    tag_3:\n      callvalue\n      dup1\n      iszero\n      tag_26\n      jumpi\n      revert(0x00, 0x00)\n    tag_26:\n      pop\n      tag_27\n      tag_28\n      jump\t// in\n    tag_27:\n      mload(0x40)\n      tag_29\n      swap2\n      swap1\n      tag_30\n      jump\t// in\n    tag_29:\n      mload(0x40)\n      dup1\n      swap2\n      sub\n      swap1\n      return\n        /* \"src/base/ERC20.sol\":2431:2642  function approve(address spender, uint256 amount) public virtual returns (bool) {... */\n    tag_4:\n      callvalue\n      dup1\n      iszero\n      tag_31\n      jumpi\n      revert(0x00, 0x00)\n    tag_31:\n      pop\n      tag_32\n      0x04\n      dup1\n      calldatasize\n      sub\n      dup2\n      add\n      swap1\n      tag_33\n      swap2\n      swap1\n      tag_34\n      jump\t// in\n    tag_33:\n      tag_35\n      jump\t// in\n    tag_32:\n      mload(0x40)\n      tag_36\n      swap2\n      swap1\n      tag_37\n      jump\t// in\n    tag_36:\n      mload(0x40)\n      dup1\n      swap2\n      sub\n      swap1\n      return\n        /* \"src/base/ERC20.sol\":1304:1330  uint256 public totalSupply */\n    tag_5:\n      callvalue\n      dup1\n      iszero\n      tag_38\n      jumpi\n      revert(0x00, 0x00)\n    tag_38:\n      pop\n      tag_39\n      tag_40\n      jump\t// in\n    tag_39:\n      mload(0x40)\n      tag_41\n      swap2\n      swap1\n      tag_42\n      jump\t// in\n    tag_41:\n      mload(0x40)\n      dup1\n      swap2\n      sub\n      swap1\n      return\n        /* \"src/base/ERC20.sol\":3027:3589  function transferFrom(address from, address to, uint256 amount) public virtual returns (bool) {... */\n    tag_6:\n      callvalue\n      dup1\n      iszero\n      tag_43\n      jumpi\n      revert(0x00, 0x00)\n    tag_43:\n      pop\n      tag_44\n      0x04\n      dup1\n      calldatasize\n      sub\n      dup2\n      add\n      swap1\n      tag_45\n      swap2\n      swap1\n      tag_46\n      jump\t// in\n    tag_45:\n      tag_47\n      jump\t// in\n    tag_44:\n      mload(0x40)\n      tag_48\n      swap2\n      swap1\n      tag_37\n      jump\t// in\n    tag_48:\n      mload(0x40)\n      dup1\n      swap2\n      sub\n      swap1\n      return\n        /* \"src/test/MyToken.sol\":804:988  function withdraw(uint256 amount) public virtual {... */\n    tag_7:\n      callvalue\n      dup1\n      iszero\n      tag_49\n      jumpi\n      revert(0x00, 0x00)\n    tag_49:\n      pop\n      tag_50\n      0x04\n      dup1\n      calldatasize\n      sub\n      dup2\n      add\n      swap1\n      tag_51\n      swap2\n      swap1\n      tag_52\n      jump\t// in\n    tag_51:\n      tag_53\n      jump\t// in\n    tag_50:\n      stop\n        /* \"src/base/ERC20.sol\":1083:1114  uint8 public immutable decimals */\n    tag_8:\n      callvalue\n      dup1\n      iszero\n      tag_54\n      jumpi\n      revert(0x00, 0x00)\n    tag_54:\n      pop\n      tag_55\n      tag_56\n      jump\t// in\n    tag_55:\n      mload(0x40)\n      tag_57\n      swap2\n      swap1\n      tag_58\n      jump\t// in\n    tag_57:\n      mload(0x40)\n      dup1\n      swap2\n      sub\n      swap1\n      return\n        /* \"src/base/ERC20.sol\":5225:5402  function DOMAIN_SEPARATOR() public view virtual returns (bytes32) {... */\n    tag_9:\n      callvalue\n      dup1\n      iszero\n      tag_59\n      jumpi\n      revert(0x00, 0x00)\n    tag_59:\n      pop\n      tag_60\n      tag_61\n      jump\t// in\n    tag_60:\n      mload(0x40)\n      tag_62\n      swap2\n      swap1\n      tag_63\n      jump\t// in\n    tag_62:\n      mload(0x40)\n      dup1\n      swap2\n      sub\n      swap1\n      return\n        /* \"src/test/MyToken.sol\":391:543  function mint(address recipent, uint256 amount) external {... */\n    tag_10:\n      callvalue\n      dup1\n      iszero\n      tag_64\n      jumpi\n      revert(0x00, 0x00)\n    tag_64:\n      pop\n      tag_65\n      0x04\n      dup1\n      calldatasize\n      sub\n      dup2\n      add\n      swap1\n      tag_66\n      swap2\n      swap1\n      tag_34\n      jump\t// in\n    tag_66:\n      tag_67\n      jump\t// in\n    tag_65:\n      stop\n        /* \"src/base/ERC20.sol\":1337:1381  mapping(address => uint256) public balanceOf */\n    tag_11:\n      callvalue\n      dup1\n      iszero\n      tag_68\n      jumpi\n      revert(0x00, 0x00)\n    tag_68:\n      pop\n      tag_69\n      0x04\n      dup1\n      calldatasize\n      sub\n      dup2\n      add\n      swap1\n      tag_70\n      swap2\n      swap1\n      tag_71\n      jump\t// in\n    tag_70:\n      tag_72\n      jump\t// in\n    tag_69:\n      mload(0x40)\n      tag_73\n      swap2\n      swap1\n      tag_42\n      jump\t// in\n    tag_73:\n      mload(0x40)\n      dup1\n      swap2\n      sub\n      swap1\n      return\n        /* \"src/base/ERC20.sol\":1751:1792  mapping(address => uint256) public nonces */\n    tag_12:\n      callvalue\n      dup1\n      iszero\n      tag_74\n      jumpi\n      revert(0x00, 0x00)\n    tag_74:\n      pop\n      tag_75\n      0x04\n      dup1\n      calldatasize\n      sub\n      dup2\n      add\n      swap1\n      tag_76\n      swap2\n      swap1\n      tag_71\n      jump\t// in\n    tag_76:\n      tag_77\n      jump\t// in\n    tag_75:\n      mload(0x40)\n      tag_78\n      swap2\n      swap1\n      tag_42\n      jump\t// in\n    tag_78:\n      mload(0x40)\n      dup1\n      swap2\n      sub\n      swap1\n      return\n        /* \"src/test/MyToken.sol\":136:156  address public owner */\n    tag_13:\n      callvalue\n      dup1\n      iszero\n      tag_79\n      jumpi\n      revert(0x00, 0x00)\n    tag_79:\n      pop\n      tag_80\n      tag_81\n      jump\t// in\n    tag_80:\n      mload(0x40)\n      tag_82\n      swap2\n      swap1\n      tag_83\n      jump\t// in\n    tag_82:\n      mload(0x40)\n      dup1\n      swap2\n      sub\n      swap1\n      return\n        /* \"src/base/ERC20.sol\":1056:1076  string public symbol */\n    tag_14:\n      callvalue\n      dup1\n      iszero\n      tag_84\n      jumpi\n      revert(0x00, 0x00)\n    tag_84:\n      pop\n      tag_85\n      tag_86\n      jump\t// in\n    tag_85:\n      mload(0x40)\n      tag_87\n      swap2\n      swap1\n      tag_30\n      jump\t// in\n    tag_87:\n      mload(0x40)\n      dup1\n      swap2\n      sub\n      swap1\n      return\n        /* \"src/base/ERC20.sol\":2648:3021  function transfer(address to, uint256 amount) public virtual returns (bool) {... */\n    tag_15:\n      callvalue\n      dup1\n      iszero\n      tag_88\n      jumpi\n      revert(0x00, 0x00)\n    tag_88:\n      pop\n      tag_89\n      0x04\n      dup1\n      calldatasize\n      sub\n      dup2\n      add\n      swap1\n      tag_90\n      swap2\n      swap1\n      tag_34\n      jump\t// in\n    tag_90:\n      tag_91\n      jump\t// in\n    tag_89:\n      mload(0x40)\n      tag_92\n      swap2\n      swap1\n      tag_37\n      jump\t// in\n    tag_92:\n      mload(0x40)\n      dup1\n      swap2\n      sub\n      swap1\n      return\n        /* \"src/test/MyToken.sol\":666:798  function deposit() public payable virtual {... */\n    tag_16:\n      tag_93\n      tag_25\n      jump\t// in\n    tag_93:\n      stop\n        /* \"src/base/ERC20.sol\":3778:5219  function permit(address owner, address spender, uint256 value, uint256 deadline, uint8 v, bytes32 r, bytes32 s)... */\n    tag_17:\n      callvalue\n      dup1\n      iszero\n      tag_94\n      jumpi\n      revert(0x00, 0x00)\n    tag_94:\n      pop\n      tag_95\n      0x04\n      dup1\n      calldatasize\n      sub\n      dup2\n      add\n      swap1\n      tag_96\n      swap2\n      swap1\n      tag_97\n      jump\t// in\n    tag_96:\n      tag_98\n      jump\t// in\n    tag_95:\n      stop\n        /* \"src/base/ERC20.sol\":1388:1452  mapping(address => mapping(address => uint256)) public allowance */\n    tag_18:\n      callvalue\n      dup1\n      iszero\n      tag_99\n      jumpi\n      revert(0x00, 0x00)\n    tag_99:\n      pop\n      tag_100\n      0x04\n      dup1\n      calldatasize\n      sub\n      dup2\n      add\n      swap1\n      tag_101\n      swap2\n      swap1\n      tag_102\n      jump\t// in\n    tag_101:\n      tag_103\n      jump\t// in\n    tag_100:\n      mload(0x40)\n      tag_104\n      swap2\n      swap1\n      tag_42\n      jump\t// in\n    tag_104:\n      mload(0x40)\n      dup1\n      swap2\n      sub\n      swap1\n      return\n        /* \"src/test/MyToken.sol\":666:798  function deposit() public payable virtual {... */\n    tag_25:\n        /* \"src/test/MyToken.sol\":731:741  msg.sender */\n      caller\n        /* \"src/test/MyToken.sol\":723:753  Deposit(msg.sender, msg.value) */\n      0xffffffffffffffffffffffffffffffffffffffff\n      and\n      0xe1fffcc4923d04b559f4d29a8bfc6cda04eb5b0d3c460751c2402c5c5cc9109c\n        /* \"src/test/MyToken.sol\":743:752  msg.value */\n      callvalue\n        /* \"src/test/MyToken.sol\":723:753  Deposit(msg.sender, msg.value) */\n      mload(0x40)\n      tag_106\n      swap2\n      swap1\n      tag_42\n      jump\t// in\n    tag_106:\n      mload(0x40)\n      dup1\n      swap2\n      sub\n      swap1\n      log2\n        /* \"src/test/MyToken.sol\":763:791  _mint(msg.sender, msg.value) */\n      tag_107\n        /* \"src/test/MyToken.sol\":769:779  msg.sender */\n      caller\n        /* \"src/test/MyToken.sol\":781:790  msg.value */\n      callvalue\n        /* \"src/test/MyToken.sol\":763:768  _mint */\n      tag_108\n        /* \"src/test/MyToken.sol\":763:791  _mint(msg.sender, msg.value) */\n      jump\t// in\n    tag_107:\n        /* \"src/test/MyToken.sol\":666:798  function deposit() public payable virtual {... */\n      jump\t// out\n        /* \"src/base/ERC20.sol\":1031:1049  string public name */\n    tag_28:\n      0x00\n      dup1\n      sload\n      tag_109\n      swap1\n      tag_110\n      jump\t// in\n    tag_109:\n      dup1\n      0x1f\n      add\n      0x20\n      dup1\n      swap2\n      div\n      mul\n      0x20\n      add\n      mload(0x40)\n      swap1\n      dup2\n      add\n      0x40\n      mstore\n      dup1\n      swap3\n      swap2\n      swap1\n      dup2\n      dup2\n      mstore\n      0x20\n      add\n      dup3\n      dup1\n      sload\n      tag_111\n      swap1\n      tag_110\n      jump\t// in\n    tag_111:\n      dup1\n      iszero\n      tag_112\n      jumpi\n      dup1\n      0x1f\n      lt\n      tag_113\n      jumpi\n      0x0100\n      dup1\n      dup4\n      sload\n      div\n      mul\n      dup4\n      mstore\n      swap2\n      0x20\n      add\n      swap2\n      jump(tag_112)\n    tag_113:\n      dup3\n      add\n      swap2\n      swap1\n      0x00\n      mstore\n      keccak256(0x00, 0x20)\n      swap1\n    tag_114:\n      dup2\n      sload\n      dup2\n      mstore\n      swap1\n      0x01\n      add\n      swap1\n      0x20\n      add\n      dup1\n      dup4\n      gt\n      tag_114\n      jumpi\n      dup3\n      swap1\n      sub\n      0x1f\n      and\n      dup3\n      add\n      swap2\n    tag_112:\n      pop\n      pop\n      pop\n      pop\n      pop\n      dup2\n      jump\t// out\n        /* \"src/base/ERC20.sol\":2431:2642  function approve(address spender, uint256 amount) public virtual returns (bool) {... */\n    tag_35:\n        /* \"src/base/ERC20.sol\":2505:2509  bool */\n      0x00\n        /* \"src/base/ERC20.sol\":2554:2560  amount */\n      dup2\n        /* \"src/base/ERC20.sol\":2521:2530  allowance */\n      0x04\n        /* \"src/base/ERC20.sol\":2521:2542  allowance[msg.sender] */\n      0x00\n        /* \"src/base/ERC20.sol\":2531:2541  msg.sender */\n      caller\n        /* \"src/base/ERC20.sol\":2521:2542  allowance[msg.sender] */\n      0xffffffffffffffffffffffffffffffffffffffff\n      and\n      0xffffffffffffffffffffffffffffffffffffffff\n      and\n      dup2\n      mstore\n      0x20\n      add\n      swap1\n      dup2\n      mstore\n      0x20\n      add\n      0x00\n      keccak256\n        /* \"src/base/ERC20.sol\":2521:2551  allowance[msg.sender][spender] */\n      0x00\n        /* \"src/base/ERC20.sol\":2543:2550  spender */\n      dup6\n        /* \"src/base/ERC20.sol\":2521:2551  allowance[msg.sender][spender] */\n      0xffffffffffffffffffffffffffffffffffffffff\n      and\n      0xffffffffffffffffffffffffffffffffffffffff\n      and\n      dup2\n      mstore\n      0x20\n      add\n      swap1\n      dup2\n      mstore\n      0x20\n      add\n      0x00\n      keccak256\n        /* \"src/base/ERC20.sol\":2521:2560  allowance[msg.sender][spender] = amount */\n      dup2\n      swap1\n      sstore\n      pop\n        /* \"src/base/ERC20.sol\":2597:2604  spender */\n      dup3\n        /* \"src/base/ERC20.sol\":2576:2613  Approval(msg.sender, spender, amount) */\n      0xffffffffffffffffffffffffffffffffffffffff\n      and\n        /* \"src/base/ERC20.sol\":2585:2595  msg.sender */\n      caller\n        /* \"src/base/ERC20.sol\":2576:2613  Approval(msg.sender, spender, amount) */\n      0xffffffffffffffffffffffffffffffffffffffff\n      and\n      0x8c5be1e5ebec7d5bd14f71427d1e84f3dd0314c0f7b2291e5b200ac8c7c3b925\n        /* \"src/base/ERC20.sol\":2606:2612  amount */\n      dup5\n        /* \"src/base/ERC20.sol\":2576:2613  Approval(msg.sender, spender, amount) */\n      mload(0x40)\n      tag_116\n      swap2\n      swap1\n      tag_42\n      jump\t// in\n    tag_116:\n      mload(0x40)\n      dup1\n      swap2\n      sub\n      swap1\n      log3\n        /* \"src/base/ERC20.sol\":2631:2635  true */\n      0x01\n        /* \"src/base/ERC20.sol\":2624:2635  return true */\n      swap1\n      pop\n        /* \"src/base/ERC20.sol\":2431:2642  function approve(address spender, uint256 amount) public virtual returns (bool) {... */\n      swap3\n      swap2\n      pop\n      pop\n      jump\t// out\n        /* \"src/base/ERC20.sol\":1304:1330  uint256 public totalSupply */\n    tag_40:\n      sload(0x02)\n      dup2\n      jump\t// out\n        /* \"src/base/ERC20.sol\":3027:3589  function transferFrom(address from, address to, uint256 amount) public virtual returns (bool) {... */\n    tag_47:\n        /* \"src/base/ERC20.sol\":3115:3119  bool */\n      0x00\n        /* \"src/base/ERC20.sol\":3131:3146  uint256 allowed */\n      0x00\n        /* \"src/base/ERC20.sol\":3149:3158  allowance */\n      0x04\n        /* \"src/base/ERC20.sol\":3149:3164  allowance[from] */\n      0x00\n        /* \"src/base/ERC20.sol\":3159:3163  from */\n      dup7\n        /* \"src/base/ERC20.sol\":3149:3164  allowance[from] */\n      0xffffffffffffffffffffffffffffffffffffffff\n      and\n      0xffffffffffffffffffffffffffffffffffffffff\n      and\n      dup2\n      mstore\n      0x20\n      add\n      swap1\n      dup2\n      mstore\n      0x20\n      add\n      0x00\n      keccak256\n        /* \"src/base/ERC20.sol\":3149:3176  allowance[from][msg.sender] */\n      0x00\n        /* \"src/base/ERC20.sol\":3165:3175  msg.sender */\n      caller\n        /* \"src/base/ERC20.sol\":3149:3176  allowance[from][msg.sender] */\n      0xffffffffffffffffffffffffffffffffffffffff\n      and\n      0xffffffffffffffffffffffffffffffffffffffff\n      and\n      dup2\n      mstore\n      0x20\n      add\n      swap1\n      dup2\n      mstore\n      0x20\n      add\n      0x00\n      keccak256\n      sload\n        /* \"src/base/ERC20.sol\":3131:3176  uint256 allowed = allowance[from][msg.sender] */\n      swap1\n      pop\n        /* \"src/base/ERC20.sol\":3238:3255  type(uint256).max */\n      0xffffffffffffffffffffffffffffffffffffffffffffffffffffffffffffffff\n        /* \"src/base/ERC20.sol\":3227:3234  allowed */\n      dup2\n        /* \"src/base/ERC20.sol\":3227:3255  allowed != type(uint256).max */\n      eq\n        /* \"src/base/ERC20.sol\":3223:3303  if (allowed != type(uint256).max) allowance[from][msg.sender] = allowed - amount */\n      tag_118\n      jumpi\n        /* \"src/base/ERC20.sol\":3297:3303  amount */\n      dup3\n        /* \"src/base/ERC20.sol\":3287:3294  allowed */\n      dup2\n        /* \"src/base/ERC20.sol\":3287:3303  allowed - amount */\n      tag_119\n      swap2\n      swap1\n      tag_120\n      jump\t// in\n    tag_119:\n        /* \"src/base/ERC20.sol\":3257:3266  allowance */\n      0x04\n        /* \"src/base/ERC20.sol\":3257:3272  allowance[from] */\n      0x00\n        /* \"src/base/ERC20.sol\":3267:3271  from */\n      dup8\n        /* \"src/base/ERC20.sol\":3257:3272  allowance[from] */\n      0xffffffffffffffffffffffffffffffffffffffff\n      and\n      0xffffffffffffffffffffffffffffffffffffffff\n      and\n      dup2\n      mstore\n      0x20\n      add\n      swap1\n      dup2\n      mstore\n      0x20\n      add\n      0x00\n      keccak256\n        /* \"src/base/ERC20.sol\":3257:3284  allowance[from][msg.sender] */\n      0x00\n        /* \"src/base/ERC20.sol\":3273:3283  msg.sender */\n      caller\n        /* \"src/base/ERC20.sol\":3257:3284  allowance[from][msg.sender] */\n      0xffffffffffffffffffffffffffffffffffffffff\n      and\n      0xffffffffffffffffffffffffffffffffffffffff\n      and\n      dup2\n      mstore\n      0x20\n      add\n      swap1\n      dup2\n      mstore\n      0x20\n      add\n      0x00\n      keccak256\n        /* \"src/base/ERC20.sol\":3257:3303  allowance[from][msg.sender] = allowed - amount */\n      dup2\n      swap1\n      sstore\n      pop\n        /* \"src/base/ERC20.sol\":3223:3303  if (allowed != type(uint256).max) allowance[from][msg.sender] = allowed - amount */\n    tag_118:\n        /* \"src/base/ERC20.sol\":3333:3339  amount */\n      dup3\n        /* \"src/base/ERC20.sol\":3314:3323  balanceOf */\n      0x03\n        /* \"src/base/ERC20.sol\":3314:3329  balanceOf[from] */\n      0x00\n        /* \"src/base/ERC20.sol\":3324:3328  from */\n      dup8\n        /* \"src/base/ERC20.sol\":3314:3329  balanceOf[from] */\n      0xffffffffffffffffffffffffffffffffffffffff\n      and\n      0xffffffffffffffffffffffffffffffffffffffff\n      and\n      dup2\n      mstore\n      0x20\n      add\n      swap1\n      dup2\n      mstore\n      0x20\n      add\n      0x00\n      keccak256\n      0x00\n        /* \"src/base/ERC20.sol\":3314:3339  balanceOf[from] -= amount */\n      dup3\n      dup3\n      sload\n      tag_121\n      swap2\n      swap1\n      tag_120\n      jump\t// in\n    tag_121:\n      swap3\n      pop\n      pop\n      dup2\n      swap1\n      sstore\n      pop\n        /* \"src/base/ERC20.sol\":3502:3508  amount */\n      dup3\n        /* \"src/base/ERC20.sol\":3485:3494  balanceOf */\n      0x03\n        /* \"src/base/ERC20.sol\":3485:3498  balanceOf[to] */\n      0x00\n        /* \"src/base/ERC20.sol\":3495:3497  to */\n      dup7\n        /* \"src/base/ERC20.sol\":3485:3498  balanceOf[to] */\n      0xffffffffffffffffffffffffffffffffffffffff\n      and\n      0xffffffffffffffffffffffffffffffffffffffff\n      and\n      dup2\n      mstore\n      0x20\n      add\n      swap1\n      dup2\n      mstore\n      0x20\n      add\n      0x00\n      keccak256\n      0x00\n        /* \"src/base/ERC20.sol\":3485:3508  balanceOf[to] += amount */\n      dup3\n      dup3\n      sload\n      add\n      swap3\n      pop\n      pop\n      dup2\n      swap1\n      sstore\n      pop\n        /* \"src/base/ERC20.sol\":3549:3551  to */\n      dup4\n        /* \"src/base/ERC20.sol\":3534:3560  Transfer(from, to, amount) */\n      0xffffffffffffffffffffffffffffffffffffffff\n      and\n        /* \"src/base/ERC20.sol\":3543:3547  from */\n      dup6\n        /* \"src/base/ERC20.sol\":3534:3560  Transfer(from, to, amount) */\n      0xffffffffffffffffffffffffffffffffffffffff\n      and\n      0xddf252ad1be2c89b69c2b068fc378daa952ba7f163c4a11628f55a4df523b3ef\n        /* \"src/base/ERC20.sol\":3553:3559  amount */\n      dup6\n        /* \"src/base/ERC20.sol\":3534:3560  Transfer(from, to, amount) */\n      mload(0x40)\n      tag_122\n      swap2\n      swap1\n      tag_42\n      jump\t// in\n    tag_122:\n      mload(0x40)\n      dup1\n      swap2\n      sub\n      swap1\n      log3\n        /* \"src/base/ERC20.sol\":3578:3582  true */\n      0x01\n        /* \"src/base/ERC20.sol\":3571:3582  return true */\n      swap2\n      pop\n      pop\n        /* \"src/base/ERC20.sol\":3027:3589  function transferFrom(address from, address to, uint256 amount) public virtual returns (bool) {... */\n      swap4\n      swap3\n      pop\n      pop\n      pop\n      jump\t// out\n        /* \"src/test/MyToken.sol\":804:988  function withdraw(uint256 amount) public virtual {... */\n    tag_53:\n        /* \"src/test/MyToken.sol\":863:888  _burn(msg.sender, amount) */\n      tag_124\n        /* \"src/test/MyToken.sol\":869:879  msg.sender */\n      caller\n        /* \"src/test/MyToken.sol\":881:887  amount */\n      dup3\n        /* \"src/test/MyToken.sol\":863:868  _burn */\n      tag_125\n        /* \"src/test/MyToken.sol\":863:888  _burn(msg.sender, amount) */\n      jump\t// in\n    tag_124:\n        /* \"src/test/MyToken.sol\":915:925  msg.sender */\n      caller\n        /* \"src/test/MyToken.sol\":904:934  Withdrawal(msg.sender, amount) */\n      0xffffffffffffffffffffffffffffffffffffffff\n      and\n      0x7fcf532c15f0a6db0bd6d0e038bea71d30d808c7d98cb3bf7268a95bf5081b65\n        /* \"src/test/MyToken.sol\":927:933  amount */\n      dup3\n        /* \"src/test/MyToken.sol\":904:934  Withdrawal(msg.sender, amount) */\n      mload(0x40)\n      tag_126\n      swap2\n      swap1\n      tag_42\n      jump\t// in\n    tag_126:\n      mload(0x40)\n      dup1\n      swap2\n      sub\n      swap1\n      log2\n        /* \"src/test/MyToken.sol\":953:963  msg.sender */\n      caller\n        /* \"src/test/MyToken.sol\":945:973  payable(msg.sender).transfer */\n      0xffffffffffffffffffffffffffffffffffffffff\n      and\n        /* \"src/test/MyToken.sol\":945:981  payable(msg.sender).transfer(amount) */\n      0x08fc\n        /* \"src/test/MyToken.sol\":974:980  amount */\n      dup3\n        /* \"src/test/MyToken.sol\":945:981  payable(msg.sender).transfer(amount) */\n      swap1\n      dup2\n      iszero\n      mul\n      swap1\n      mload(0x40)\n      0x00\n      mload(0x40)\n      dup1\n      dup4\n      sub\n      dup2\n      dup6\n      dup9\n      dup9\n      call\n      swap4\n      pop\n      pop\n      pop\n      pop\n      iszero\n      dup1\n      iszero\n      tag_128\n      jumpi\n      returndatacopy(0x00, 0x00, returndatasize)\n      revert(0x00, returndatasize)\n    tag_128:\n      pop\n        /* \"src/test/MyToken.sol\":804:988  function withdraw(uint256 amount) public virtual {... */\n      pop\n      jump\t// out\n        /* \"src/base/ERC20.sol\":1083:1114  uint8 public immutable decimals */\n    tag_56:\n      immutable(\"0x6585423cb6456b1d4957f6454d2f004f0c4f58d53a00082412d5c2ef4b1b31fd\")\n      dup2\n      jump\t// out\n        /* \"src/base/ERC20.sol\":5225:5402  function DOMAIN_SEPARATOR() public view virtual returns (bytes32) {... */\n    tag_61:\n        /* \"src/base/ERC20.sol\":5282:5289  bytes32 */\n      0x00\n        /* \"src/base/ERC20.sol\":5325:5341  INITIAL_CHAIN_ID */\n      immutable(\"0xd67d834462ca31eaef1f30157e31659f60355143b7441e6fc7d9eae1fa79f3f8\")\n        /* \"src/base/ERC20.sol\":5308:5321  block.chainid */\n      chainid\n        /* \"src/base/ERC20.sol\":5308:5341  block.chainid == INITIAL_CHAIN_ID */\n      eq\n        /* \"src/base/ERC20.sol\":5308:5395  block.chainid == INITIAL_CHAIN_ID ? INITIAL_DOMAIN_SEPARATOR : computeDomainSeparator() */\n      tag_130\n      jumpi\n        /* \"src/base/ERC20.sol\":5371:5395  computeDomainSeparator() */\n      tag_131\n        /* \"src/base/ERC20.sol\":5371:5393  computeDomainSeparator */\n      tag_132\n        /* \"src/base/ERC20.sol\":5371:5395  computeDomainSeparator() */\n      jump\t// in\n    tag_131:\n        /* \"src/base/ERC20.sol\":5308:5395  block.chainid == INITIAL_CHAIN_ID ? INITIAL_DOMAIN_SEPARATOR : computeDomainSeparator() */\n      jump(tag_133)\n    tag_130:\n        /* \"src/base/ERC20.sol\":5344:5368  INITIAL_DOMAIN_SEPARATOR */\n      immutable(\"0x880de8116b3dfac28e9ff528a9fef1d1e0a51449c1addce011ffec1f302992b6\")\n        /* \"src/base/ERC20.sol\":5308:5395  block.chainid == INITIAL_CHAIN_ID ? INITIAL_DOMAIN_SEPARATOR : computeDomainSeparator() */\n    tag_133:\n        /* \"src/base/ERC20.sol\":5301:5395  return block.chainid == INITIAL_CHAIN_ID ? INITIAL_DOMAIN_SEPARATOR : computeDomainSeparator() */\n      swap1\n      pop\n        /* \"src/base/ERC20.sol\":5225:5402  function DOMAIN_SEPARATOR() public view virtual returns (bytes32) {... */\n      swap1\n      jump\t// out\n        /* \"src/test/MyToken.sol\":391:543  function mint(address recipent, uint256 amount) external {... */\n    tag_67:\n        /* \"src/test/MyToken.sol\":476:485  100000000 */\n      0x05f5e100\n        /* \"src/test/MyToken.sol\":466:472  amount */\n      dup2\n        /* \"src/test/MyToken.sol\":466:485  amount <= 100000000 */\n      gt\n      iszero\n        /* \"src/test/MyToken.sol\":458:486  require(amount <= 100000000) */\n      tag_135\n      jumpi\n      revert(0x00, 0x00)\n    tag_135:\n        /* \"src/test/MyToken.sol\":496:536  _mint(recipent, amount * 10 ** decimals) */\n      tag_136\n        /* \"src/test/MyToken.sol\":502:510  recipent */\n      dup3\n        /* \"src/test/MyToken.sol\":527:535  decimals */\n      immutable(\"0x6585423cb6456b1d4957f6454d2f004f0c4f58d53a00082412d5c2ef4b1b31fd\")\n        /* \"src/test/MyToken.sol\":521:523  10 */\n      0x0a\n        /* \"src/test/MyToken.sol\":521:535  10 ** decimals */\n      tag_137\n      swap2\n      swap1\n      tag_138\n      jump\t// in\n    tag_137:\n        /* \"src/test/MyToken.sol\":512:518  amount */\n      dup4\n        /* \"src/test/MyToken.sol\":512:535  amount * 10 ** decimals */\n      tag_139\n      swap2\n      swap1\n      tag_140\n      jump\t// in\n    tag_139:\n        /* \"src/test/MyToken.sol\":496:501  _mint */\n      tag_108\n        /* \"src/test/MyToken.sol\":496:536  _mint(recipent, amount * 10 ** decimals) */\n      jump\t// in\n    tag_136:\n        /* \"src/test/MyToken.sol\":391:543  function mint(address recipent, uint256 amount) external {... */\n      pop\n      pop\n      jump\t// out\n        /* \"src/base/ERC20.sol\":1337:1381  mapping(address => uint256) public balanceOf */\n    tag_72:\n      mstore(0x20, 0x03)\n      dup1\n      0x00\n      mstore\n      keccak256(0x00, 0x40)\n      0x00\n      swap2\n      pop\n      swap1\n      pop\n      sload\n      dup2\n      jump\t// out\n        /* \"src/base/ERC20.sol\":1751:1792  mapping(address => uint256) public nonces */\n    tag_77:\n      mstore(0x20, 0x05)\n      dup1\n      0x00\n      mstore\n      keccak256(0x00, 0x40)\n      0x00\n      swap2\n      pop\n      swap1\n      pop\n      sload\n      dup2\n      jump\t// out\n        /* \"src/test/MyToken.sol\":136:156  address public owner */\n    tag_81:\n      0x06\n      0x00\n      swap1\n      sload\n      swap1\n      0x0100\n      exp\n      swap1\n      div\n      0xffffffffffffffffffffffffffffffffffffffff\n      and\n      dup2\n      jump\t// out\n        /* \"src/base/ERC20.sol\":1056:1076  string public symbol */\n    tag_86:\n      0x01\n      dup1\n      sload\n      tag_141\n      swap1\n      tag_110\n      jump\t// in\n    tag_141:\n      dup1\n      0x1f\n      add\n      0x20\n      dup1\n      swap2\n      div\n      mul\n      0x20\n      add\n      mload(0x40)\n      swap1\n      dup2\n      add\n      0x40\n      mstore\n      dup1\n      swap3\n      swap2\n      swap1\n      dup2\n      dup2\n      mstore\n      0x20\n      add\n      dup3\n      dup1\n      sload\n      tag_142\n      swap1\n      tag_110\n      jump\t// in\n    tag_142:\n      dup1\n      iszero\n      tag_143\n      jumpi\n      dup1\n      0x1f\n      lt\n      tag_144\n      jumpi\n      0x0100\n      dup1\n      dup4\n      sload\n      div\n      mul\n      dup4\n      mstore\n      swap2\n      0x20\n      add\n      swap2\n      jump(tag_143)\n    tag_144:\n      dup3\n      add\n      swap2\n      swap1\n      0x00\n      mstore\n      keccak256(0x00, 0x20)\n      swap1\n    tag_145:\n      dup2\n      sload\n      dup2\n      mstore\n      swap1\n      0x01\n      add\n      swap1\n      0x20\n      add\n      dup1\n      dup4\n      gt\n      tag_145\n      jumpi\n      dup3\n      swap1\n      sub\n      0x1f\n      and\n      dup3\n      add\n      swap2\n    tag_143:\n      pop\n      pop\n      pop\n      pop\n      pop\n      dup2\n      jump\t// out\n        /* \"src/base/ERC20.sol\":2648:3021  function transfer(address to, uint256 amount) public virtual returns (bool) {... */\n    tag_91:\n        /* \"src/base/ERC20.sol\":2718:2722  bool */\n      0x00\n        /* \"src/base/ERC20.sol\":2759:2765  amount */\n      dup2\n        /* \"src/base/ERC20.sol\":2734:2743  balanceOf */\n      0x03\n        /* \"src/base/ERC20.sol\":2734:2755  balanceOf[msg.sender] */\n      0x00\n        /* \"src/base/ERC20.sol\":2744:2754  msg.sender */\n      caller\n        /* \"src/base/ERC20.sol\":2734:2755  balanceOf[msg.sender] */\n      0xffffffffffffffffffffffffffffffffffffffff\n      and\n      0xffffffffffffffffffffffffffffffffffffffff\n      and\n      dup2\n      mstore\n      0x20\n      add\n      swap1\n      dup2\n      mstore\n      0x20\n      add\n      0x00\n      keccak256\n      0x00\n        /* \"src/base/ERC20.sol\":2734:2765  balanceOf[msg.sender] -= amount */\n      dup3\n      dup3\n      sload\n      tag_147\n      swap2\n      swap1\n      tag_120\n      jump\t// in\n    tag_147:\n      swap3\n      pop\n      pop\n      dup2\n      swap1\n      sstore\n      pop\n        /* \"src/base/ERC20.sol\":2928:2934  amount */\n      dup2\n        /* \"src/base/ERC20.sol\":2911:2920  balanceOf */\n      0x03\n        /* \"src/base/ERC20.sol\":2911:2924  balanceOf[to] */\n      0x00\n        /* \"src/base/ERC20.sol\":2921:2923  to */\n      dup6\n        /* \"src/base/ERC20.sol\":2911:2924  balanceOf[to] */\n      0xffffffffffffffffffffffffffffffffffffffff\n      and\n      0xffffffffffffffffffffffffffffffffffffffff\n      and\n      dup2\n      mstore\n      0x20\n      add\n      swap1\n      dup2\n      mstore\n      0x20\n      add\n      0x00\n      keccak256\n      0x00\n        /* \"src/base/ERC20.sol\":2911:2934  balanceOf[to] += amount */\n      dup3\n      dup3\n      sload\n      add\n      swap3\n      pop\n      pop\n      dup2\n      swap1\n      sstore\n      pop\n        /* \"src/base/ERC20.sol\":2981:2983  to */\n      dup3\n        /* \"src/base/ERC20.sol\":2960:2992  Transfer(msg.sender, to, amount) */\n      0xffffffffffffffffffffffffffffffffffffffff\n      and\n        /* \"src/base/ERC20.sol\":2969:2979  msg.sender */\n      caller\n        /* \"src/base/ERC20.sol\":2960:2992  Transfer(msg.sender, to, amount) */\n      0xffffffffffffffffffffffffffffffffffffffff\n      and\n      0xddf252ad1be2c89b69c2b068fc378daa952ba7f163c4a11628f55a4df523b3ef\n        /* \"src/base/ERC20.sol\":2985:2991  amount */\n      dup5\n        /* \"src/base/ERC20.sol\":2960:2992  Transfer(msg.sender, to, amount) */\n      mload(0x40)\n      tag_148\n      swap2\n      swap1\n      tag_42\n      jump\t// in\n    tag_148:\n      mload(0x40)\n      dup1\n      swap2\n      sub\n      swap1\n      log3\n        /* \"src/base/ERC20.sol\":3010:3014  true */\n      0x01\n        /* \"src/base/ERC20.sol\":3003:3014  return true */\n      swap1\n      pop\n        /* \"src/base/ERC20.sol\":2648:3021  function transfer(address to, uint256 amount) public virtual returns (bool) {... */\n      swap3\n      swap2\n      pop\n      pop\n      jump\t// out\n        /* \"src/base/ERC20.sol\":3778:5219  function permit(address owner, address spender, uint256 value, uint256 deadline, uint8 v, bytes32 r, bytes32 s)... */\n    tag_98:\n        /* \"src/base/ERC20.sol\":3955:3970  block.timestamp */\n      timestamp\n        /* \"src/base/ERC20.sol\":3943:3951  deadline */\n      dup5\n        /* \"src/base/ERC20.sol\":3943:3970  deadline >= block.timestamp */\n      lt\n      iszero\n        /* \"src/base/ERC20.sol\":3935:3998  require(deadline >= block.timestamp, \"PERMIT_DEADLINE_EXPIRED\") */\n      tag_150\n      jumpi\n      mload(0x40)\n      0x08c379a000000000000000000000000000000000000000000000000000000000\n      dup2\n      mstore\n      0x04\n      add\n      tag_151\n      swap1\n      tag_152\n      jump\t// in\n    tag_151:\n      mload(0x40)\n      dup1\n      swap2\n      sub\n      swap1\n      revert\n    tag_150:\n        /* \"src/base/ERC20.sol\":4163:4187  address recoveredAddress */\n      0x00\n        /* \"src/base/ERC20.sol\":4190:4995  ecrecover(... */\n      0x01\n        /* \"src/base/ERC20.sol\":4326:4344  DOMAIN_SEPARATOR() */\n      tag_153\n        /* \"src/base/ERC20.sol\":4326:4342  DOMAIN_SEPARATOR */\n      tag_61\n        /* \"src/base/ERC20.sol\":4326:4344  DOMAIN_SEPARATOR() */\n      jump\t// in\n    tag_153:\n        /* \"src/base/ERC20.sol\":4453:4618  keccak256(... */\n      0x6e71edae12b1b97f4d1f60370fef10105fa2faae0126114a169c64845d6126c9\n        /* \"src/base/ERC20.sol\":4652:4657  owner */\n      dup11\n        /* \"src/base/ERC20.sol\":4691:4698  spender */\n      dup11\n        /* \"src/base/ERC20.sol\":4732:4737  value */\n      dup11\n        /* \"src/base/ERC20.sol\":4771:4777  nonces */\n      0x05\n        /* \"src/base/ERC20.sol\":4771:4784  nonces[owner] */\n      0x00\n        /* \"src/base/ERC20.sol\":4778:4783  owner */\n      dup16\n        /* \"src/base/ERC20.sol\":4771:4784  nonces[owner] */\n      0xffffffffffffffffffffffffffffffffffffffff\n      and\n      0xffffffffffffffffffffffffffffffffffffffff\n      and\n      dup2\n      mstore\n      0x20\n      add\n      swap1\n      dup2\n      mstore\n      0x20\n      add\n      0x00\n      keccak256\n      0x00\n        /* \"src/base/ERC20.sol\":4771:4786  nonces[owner]++ */\n      dup2\n      sload\n      dup1\n      swap3\n      swap2\n      swap1\n      0x01\n      add\n      swap2\n      swap1\n      pop\n      sstore\n        /* \"src/base/ERC20.sol\":4820:4828  deadline */\n      dup12\n        /* \"src/base/ERC20.sol\":4409:4858  abi.encode(... */\n      add(0x20, mload(0x40))\n      tag_154\n      swap7\n      swap6\n      swap5\n      swap4\n      swap3\n      swap2\n      swap1\n      tag_155\n      jump\t// in\n    tag_154:\n      mload(0x40)\n      0x20\n      dup2\n      dup4\n      sub\n      sub\n      dup2\n      mstore\n      swap1\n      0x40\n      mstore\n        /* \"src/base/ERC20.sol\":4370:4884  keccak256(... */\n      dup1\n      mload\n      swap1\n      0x20\n      add\n      keccak256\n        /* \"src/base/ERC20.sol\":4248:4906  abi.encodePacked(... */\n      add(0x20, mload(0x40))\n      tag_156\n      swap3\n      swap2\n      swap1\n      tag_157\n      jump\t// in\n    tag_156:\n      mload(0x40)\n      0x20\n      dup2\n      dup4\n      sub\n      sub\n      dup2\n      mstore\n      swap1\n      0x40\n      mstore\n        /* \"src/base/ERC20.sol\":4217:4924  keccak256(... */\n      dup1\n      mload\n      swap1\n      0x20\n      add\n      keccak256\n        /* \"src/base/ERC20.sol\":4942:4943  v */\n      dup6\n        /* \"src/base/ERC20.sol\":4961:4962  r */\n      dup6\n        /* \"src/base/ERC20.sol\":4980:4981  s */\n      dup6\n        /* \"src/base/ERC20.sol\":4190:4995  ecrecover(... */\n      mload(0x40)\n      0x00\n      dup2\n      mstore\n      0x20\n      add\n      0x40\n      mstore\n      mload(0x40)\n      tag_158\n      swap5\n      swap4\n      swap3\n      swap2\n      swap1\n      tag_159\n      jump\t// in\n    tag_158:\n      0x20\n      mload(0x40)\n      0x20\n      dup2\n      sub\n      swap1\n      dup1\n      dup5\n      sub\n      swap1\n      dup6\n      gas\n      staticcall\n      iszero\n      dup1\n      iszero\n      tag_161\n      jumpi\n      returndatacopy(0x00, 0x00, returndatasize)\n      revert(0x00, returndatasize)\n    tag_161:\n      pop\n      pop\n      pop\n      mload(sub(mload(0x40), 0x20))\n        /* \"src/base/ERC20.sol\":4163:4995  address recoveredAddress = ecrecover(... */\n      swap1\n      pop\n        /* \"src/base/ERC20.sol\":5046:5047  0 */\n      0x00\n        /* \"src/base/ERC20.sol\":5018:5048  recoveredAddress != address(0) */\n      0xffffffffffffffffffffffffffffffffffffffff\n      and\n        /* \"src/base/ERC20.sol\":5018:5034  recoveredAddress */\n      dup2\n        /* \"src/base/ERC20.sol\":5018:5048  recoveredAddress != address(0) */\n      0xffffffffffffffffffffffffffffffffffffffff\n      and\n      eq\n      iszero\n        /* \"src/base/ERC20.sol\":5018:5077  recoveredAddress != address(0) && recoveredAddress == owner */\n      dup1\n      iszero\n      tag_162\n      jumpi\n      pop\n        /* \"src/base/ERC20.sol\":5072:5077  owner */\n      dup8\n        /* \"src/base/ERC20.sol\":5052:5077  recoveredAddress == owner */\n      0xffffffffffffffffffffffffffffffffffffffff\n      and\n        /* \"src/base/ERC20.sol\":5052:5068  recoveredAddress */\n      dup2\n        /* \"src/base/ERC20.sol\":5052:5077  recoveredAddress == owner */\n      0xffffffffffffffffffffffffffffffffffffffff\n      and\n      eq\n        /* \"src/base/ERC20.sol\":5018:5077  recoveredAddress != address(0) && recoveredAddress == owner */\n    tag_162:\n        /* \"src/base/ERC20.sol\":5010:5096  require(recoveredAddress != address(0) && recoveredAddress == owner, \"INVALID_SIGNER\") */\n      tag_163\n      jumpi\n      mload(0x40)\n      0x08c379a000000000000000000000000000000000000000000000000000000000\n      dup2\n      mstore\n      0x04\n      add\n      tag_164\n      swap1\n      tag_165\n      jump\t// in\n    tag_164:\n      mload(0x40)\n      dup1\n      swap2\n      sub\n      swap1\n      revert\n    tag_163:\n        /* \"src/base/ERC20.sol\":5150:5155  value */\n      dup6\n        /* \"src/base/ERC20.sol\":5111:5120  allowance */\n      0x04\n        /* \"src/base/ERC20.sol\":5111:5138  allowance[recoveredAddress] */\n      0x00\n        /* \"src/base/ERC20.sol\":5121:5137  recoveredAddress */\n      dup4\n        /* \"src/base/ERC20.sol\":5111:5138  allowance[recoveredAddress] */\n      0xffffffffffffffffffffffffffffffffffffffff\n      and\n      0xffffffffffffffffffffffffffffffffffffffff\n      and\n      dup2\n      mstore\n      0x20\n      add\n      swap1\n      dup2\n      mstore\n      0x20\n      add\n      0x00\n      keccak256\n        /* \"src/base/ERC20.sol\":5111:5147  allowance[recoveredAddress][spender] */\n      0x00\n        /* \"src/base/ERC20.sol\":5139:5146  spender */\n      dup10\n        /* \"src/base/ERC20.sol\":5111:5147  allowance[recoveredAddress][spender] */\n      0xffffffffffffffffffffffffffffffffffffffff\n      and\n      0xffffffffffffffffffffffffffffffffffffffff\n      and\n      dup2\n      mstore\n      0x20\n      add\n      swap1\n      dup2\n      mstore\n      0x20\n      add\n      0x00\n      keccak256\n        /* \"src/base/ERC20.sol\":5111:5155  allowance[recoveredAddress][spender] = value */\n      dup2\n      swap1\n      sstore\n      pop\n        /* \"src/base/ERC20.sol\":4139:5166  unchecked {... */\n      pop\n        /* \"src/base/ERC20.sol\":5197:5204  spender */\n      dup6\n        /* \"src/base/ERC20.sol\":5181:5212  Approval(owner, spender, value) */\n      0xffffffffffffffffffffffffffffffffffffffff\n      and\n        /* \"src/base/ERC20.sol\":5190:5195  owner */\n      dup8\n        /* \"src/base/ERC20.sol\":5181:5212  Approval(owner, spender, value) */\n      0xffffffffffffffffffffffffffffffffffffffff\n      and\n      0x8c5be1e5ebec7d5bd14f71427d1e84f3dd0314c0f7b2291e5b200ac8c7c3b925\n        /* \"src/base/ERC20.sol\":5206:5211  value */\n      dup8\n        /* \"src/base/ERC20.sol\":5181:5212  Approval(owner, spender, value) */\n      mload(0x40)\n      tag_166\n      swap2\n      swap1\n      tag_42\n      jump\t// in\n    tag_166:\n      mload(0x40)\n      dup1\n      swap2\n      sub\n      swap1\n      log3\n        /* \"src/base/ERC20.sol\":3778:5219  function permit(address owner, address spender, uint256 value, uint256 deadline, uint8 v, bytes32 r, bytes32 s)... */\n      pop\n      pop\n      pop\n      pop\n      pop\n      pop\n      pop\n      jump\t// out\n        /* \"src/base/ERC20.sol\":1388:1452  mapping(address => mapping(address => uint256)) public allowance */\n    tag_103:\n      mstore(0x20, 0x04)\n      dup2\n      0x00\n      mstore\n      mstore(0x20, keccak256(0x00, 0x40))\n      dup1\n      0x00\n      mstore\n      keccak256(0x00, 0x40)\n      0x00\n      swap2\n      pop\n      swap2\n      pop\n      pop\n      sload\n      dup2\n      jump\t// out\n        /* \"src/base/ERC20.sol\":6004:6329  function _mint(address to, uint256 amount) internal virtual {... */\n    tag_108:\n        /* \"src/base/ERC20.sol\":6089:6095  amount */\n      dup1\n        /* \"src/base/ERC20.sol\":6074:6085  totalSupply */\n      0x02\n      0x00\n        /* \"src/base/ERC20.sol\":6074:6095  totalSupply += amount */\n      dup3\n      dup3\n      sload\n      tag_168\n      swap2\n      swap1\n      tag_169\n      jump\t// in\n    tag_168:\n      swap3\n      pop\n      pop\n      dup2\n      swap1\n      sstore\n      pop\n        /* \"src/base/ERC20.sol\":6258:6264  amount */\n      dup1\n        /* \"src/base/ERC20.sol\":6241:6250  balanceOf */\n      0x03\n        /* \"src/base/ERC20.sol\":6241:6254  balanceOf[to] */\n      0x00\n        /* \"src/base/ERC20.sol\":6251:6253  to */\n      dup5\n        /* \"src/base/ERC20.sol\":6241:6254  balanceOf[to] */\n      0xffffffffffffffffffffffffffffffffffffffff\n      and\n      0xffffffffffffffffffffffffffffffffffffffff\n      and\n      dup2\n      mstore\n      0x20\n      add\n      swap1\n      dup2\n      mstore\n      0x20\n      add\n      0x00\n      keccak256\n      0x00\n        /* \"src/base/ERC20.sol\":6241:6264  balanceOf[to] += amount */\n      dup3\n      dup3\n      sload\n      add\n      swap3\n      pop\n      pop\n      dup2\n      swap1\n      sstore\n      pop\n        /* \"src/base/ERC20.sol\":6311:6313  to */\n      dup2\n        /* \"src/base/ERC20.sol\":6290:6322  Transfer(address(0), to, amount) */\n      0xffffffffffffffffffffffffffffffffffffffff\n      and\n        /* \"src/base/ERC20.sol\":6307:6308  0 */\n      0x00\n        /* \"src/base/ERC20.sol\":6290:6322  Transfer(address(0), to, amount) */\n      0xffffffffffffffffffffffffffffffffffffffff\n      and\n      0xddf252ad1be2c89b69c2b068fc378daa952ba7f163c4a11628f55a4df523b3ef\n        /* \"src/base/ERC20.sol\":6315:6321  amount */\n      dup4\n        /* \"src/base/ERC20.sol\":6290:6322  Transfer(address(0), to, amount) */\n      mload(0x40)\n      tag_170\n      swap2\n      swap1\n      tag_42\n      jump\t// in\n    tag_170:\n      mload(0x40)\n      dup1\n      swap2\n      sub\n      swap1\n      log3\n        /* \"src/base/ERC20.sol\":6004:6329  function _mint(address to, uint256 amount) internal virtual {... */\n      pop\n      pop\n      jump\t// out\n        /* \"src/base/ERC20.sol\":6335:6663  function _burn(address from, uint256 amount) internal virtual {... */\n    tag_125:\n        /* \"src/base/ERC20.sol\":6426:6432  amount */\n      dup1\n        /* \"src/base/ERC20.sol\":6407:6416  balanceOf */\n      0x03\n        /* \"src/base/ERC20.sol\":6407:6422  balanceOf[from] */\n      0x00\n        /* \"src/base/ERC20.sol\":6417:6421  from */\n      dup5\n        /* \"src/base/ERC20.sol\":6407:6422  balanceOf[from] */\n      0xffffffffffffffffffffffffffffffffffffffff\n      and\n      0xffffffffffffffffffffffffffffffffffffffff\n      and\n      dup2\n      mstore\n      0x20\n      add\n      swap1\n      dup2\n      mstore\n      0x20\n      add\n      0x00\n      keccak256\n      0x00\n        /* \"src/base/ERC20.sol\":6407:6432  balanceOf[from] -= amount */\n      dup3\n      dup3\n      sload\n      tag_172\n      swap2\n      swap1\n      tag_120\n      jump\t// in\n    tag_172:\n      swap3\n      pop\n      pop\n      dup2\n      swap1\n      sstore\n      pop\n        /* \"src/base/ERC20.sol\":6590:6596  amount */\n      dup1\n        /* \"src/base/ERC20.sol\":6575:6586  totalSupply */\n      0x02\n      0x00\n        /* \"src/base/ERC20.sol\":6575:6596  totalSupply -= amount */\n      dup3\n      dup3\n      sload\n      sub\n      swap3\n      pop\n      pop\n      dup2\n      swap1\n      sstore\n      pop\n        /* \"src/base/ERC20.sol\":6645:6646  0 */\n      0x00\n        /* \"src/base/ERC20.sol\":6622:6656  Transfer(from, address(0), amount) */\n      0xffffffffffffffffffffffffffffffffffffffff\n      and\n        /* \"src/base/ERC20.sol\":6631:6635  from */\n      dup3\n        /* \"src/base/ERC20.sol\":6622:6656  Transfer(from, address(0), amount) */\n      0xffffffffffffffffffffffffffffffffffffffff\n      and\n      0xddf252ad1be2c89b69c2b068fc378daa952ba7f163c4a11628f55a4df523b3ef\n        /* \"src/base/ERC20.sol\":6649:6655  amount */\n      dup4\n        /* \"src/base/ERC20.sol\":6622:6656  Transfer(from, address(0), amount) */\n      mload(0x40)\n      tag_173\n      swap2\n      swap1\n      tag_42\n      jump\t// in\n    tag_173:\n      mload(0x40)\n      dup1\n      swap2\n      sub\n      swap1\n      log3\n        /* \"src/base/ERC20.sol\":6335:6663  function _burn(address from, uint256 amount) internal virtual {... */\n      pop\n      pop\n      jump\t// out\n        /* \"src/base/ERC20.sol\":5408:5810  function computeDomainSeparator() internal view virtual returns (bytes32) {... */\n    tag_132:\n        /* \"src/base/ERC20.sol\":5473:5480  bytes32 */\n      0x00\n        /* \"src/base/ERC20.sol\":5550:5645  keccak256(\"EIP712Domain(string name,string version,uint256 chainId,address verifyingContract)\") */\n      0x8b73c3c69bb8fe3d512ecc4cf759cc79239f7b179b0ffacaa9a75d522b39400f\n        /* \"src/base/ERC20.sol\":5679:5683  name */\n      0x00\n        /* \"src/base/ERC20.sol\":5663:5685  keccak256(bytes(name)) */\n      mload(0x40)\n      tag_175\n      swap2\n      swap1\n      tag_176\n      jump\t// in\n    tag_175:\n      mload(0x40)\n      dup1\n      swap2\n      sub\n      swap1\n      keccak256\n        /* \"src/base/ERC20.sol\":5703:5717  keccak256(\"1\") */\n      0xc89efdaa54c0f20c7adf612882df0950f5a951637e0307cdcb4c672f298b8bc6\n        /* \"src/base/ERC20.sol\":5735:5748  block.chainid */\n      chainid\n        /* \"src/base/ERC20.sol\":5774:5778  this */\n      address\n        /* \"src/base/ERC20.sol\":5522:5793  abi.encode(... */\n      add(0x20, mload(0x40))\n      tag_177\n      swap6\n      swap5\n      swap4\n      swap3\n      swap2\n      swap1\n      tag_178\n      jump\t// in\n    tag_177:\n      mload(0x40)\n      0x20\n      dup2\n      dup4\n      sub\n      sub\n      dup2\n      mstore\n      swap1\n      0x40\n      mstore\n        /* \"src/base/ERC20.sol\":5499:5803  keccak256(... */\n      dup1\n      mload\n      swap1\n      0x20\n      add\n      keccak256\n        /* \"src/base/ERC20.sol\":5492:5803  return keccak256(... */\n      swap1\n      pop\n        /* \"src/base/ERC20.sol\":5408:5810  function computeDomainSeparator() internal view virtual returns (bytes32) {... */\n      swap1\n      jump\t// out\n        /* \"#utility.yul\":7:106   */\n    tag_179:\n        /* \"#utility.yul\":59:65   */\n      0x00\n        /* \"#utility.yul\":93:98   */\n      dup2\n        /* \"#utility.yul\":87:99   */\n      mload\n        /* \"#utility.yul\":77:99   */\n      swap1\n      pop\n        /* \"#utility.yul\":7:106   */\n      swap2\n      swap1\n      pop\n      jump\t// out\n        /* \"#utility.yul\":112:281   */\n    tag_180:\n        /* \"#utility.yul\":196:207   */\n      0x00\n        /* \"#utility.yul\":230:236   */\n      dup3\n        /* \"#utility.yul\":225:228   */\n      dup3\n        /* \"#utility.yul\":218:237   */\n      mstore\n        /* \"#utility.yul\":270:274   */\n      0x20\n        /* \"#utility.yul\":265:268   */\n      dup3\n        /* \"#utility.yul\":261:275   */\n      add\n        /* \"#utility.yul\":246:275   */\n      swap1\n      pop\n        /* \"#utility.yul\":112:281   */\n      swap3\n      swap2\n      pop\n      pop\n      jump\t// out\n        /* \"#utility.yul\":287:426   */\n    tag_181:\n        /* \"#utility.yul\":376:382   */\n      dup3\n        /* \"#utility.yul\":371:374   */\n      dup2\n        /* \"#utility.yul\":366:369   */\n      dup4\n        /* \"#utility.yul\":360:383   */\n      mcopy\n        /* \"#utility.yul\":417:418   */\n      0x00\n        /* \"#utility.yul\":408:414   */\n      dup4\n        /* \"#utility.yul\":403:406   */\n      dup4\n        /* \"#utility.yul\":399:415   */\n      add\n        /* \"#utility.yul\":392:419   */\n      mstore\n        /* \"#utility.yul\":287:426   */\n      pop\n      pop\n      pop\n      jump\t// out\n        /* \"#utility.yul\":432:534   */\n    tag_182:\n        /* \"#utility.yul\":473:479   */\n      0x00\n        /* \"#utility.yul\":524:526   */\n      0x1f\n        /* \"#utility.yul\":520:527   */\n      not\n        /* \"#utility.yul\":515:517   */\n      0x1f\n        /* \"#utility.yul\":508:513   */\n      dup4\n        /* \"#utility.yul\":504:518   */\n      add\n        /* \"#utility.yul\":500:528   */\n      and\n        /* \"#utility.yul\":490:528   */\n      swap1\n      pop\n        /* \"#utility.yul\":432:534   */\n      swap2\n      swap1\n      pop\n      jump\t// out\n        /* \"#utility.yul\":540:917   */\n    tag_183:\n        /* \"#utility.yul\":628:631   */\n      0x00\n        /* \"#utility.yul\":656:695   */\n      tag_229\n        /* \"#utility.yul\":689:694   */\n      dup3\n        /* \"#utility.yul\":656:695   */\n      tag_179\n      jump\t// in\n    tag_229:\n        /* \"#utility.yul\":711:782   */\n      tag_230\n        /* \"#utility.yul\":775:781   */\n      dup2\n        /* \"#utility.yul\":770:773   */\n      dup6\n        /* \"#utility.yul\":711:782   */\n      tag_180\n      jump\t// in\n    tag_230:\n        /* \"#utility.yul\":704:782   */\n      swap4\n      pop\n        /* \"#utility.yul\":791:856   */\n      tag_231\n        /* \"#utility.yul\":849:855   */\n      dup2\n        /* \"#utility.yul\":844:847   */\n      dup6\n        /* \"#utility.yul\":837:841   */\n      0x20\n        /* \"#utility.yul\":830:835   */\n      dup7\n        /* \"#utility.yul\":826:842   */\n      add\n        /* \"#utility.yul\":791:856   */\n      tag_181\n      jump\t// in\n    tag_231:\n        /* \"#utility.yul\":881:910   */\n      tag_232\n        /* \"#utility.yul\":903:909   */\n      dup2\n        /* \"#utility.yul\":881:910   */\n      tag_182\n      jump\t// in\n    tag_232:\n        /* \"#utility.yul\":876:879   */\n      dup5\n        /* \"#utility.yul\":872:911   */\n      add\n        /* \"#utility.yul\":865:911   */\n      swap2\n      pop\n        /* \"#utility.yul\":632:917   */\n      pop\n        /* \"#utility.yul\":540:917   */\n      swap3\n      swap2\n      pop\n      pop\n      jump\t// out\n        /* \"#utility.yul\":923:1236   */\n    tag_30:\n        /* \"#utility.yul\":1036:1040   */\n      0x00\n        /* \"#utility.yul\":1074:1076   */\n      0x20\n        /* \"#utility.yul\":1063:1072   */\n      dup3\n        /* \"#utility.yul\":1059:1077   */\n      add\n        /* \"#utility.yul\":1051:1077   */\n      swap1\n      pop\n        /* \"#utility.yul\":1123:1132   */\n      dup2\n        /* \"#utility.yul\":1117:1121   */\n      dup2\n        /* \"#utility.yul\":1113:1133   */\n      sub\n        /* \"#utility.yul\":1109:1110   */\n      0x00\n        /* \"#utility.yul\":1098:1107   */\n      dup4\n        /* \"#utility.yul\":1094:1111   */\n      add\n        /* \"#utility.yul\":1087:1134   */\n      mstore\n        /* \"#utility.yul\":1151:1229   */\n      tag_234\n        /* \"#utility.yul\":1224:1228   */\n      dup2\n        /* \"#utility.yul\":1215:1221   */\n      dup5\n        /* \"#utility.yul\":1151:1229   */\n      tag_183\n      jump\t// in\n    tag_234:\n        /* \"#utility.yul\":1143:1229   */\n      swap1\n      pop\n        /* \"#utility.yul\":923:1236   */\n      swap3\n      swap2\n      pop\n      pop\n      jump\t// out\n        /* \"#utility.yul\":1323:1440   */\n    tag_185:\n        /* \"#utility.yul\":1432:1433   */\n      0x00\n        /* \"#utility.yul\":1429:1430   */\n      0x00\n        /* \"#utility.yul\":1422:1434   */\n      revert\n        /* \"#utility.yul\":1569:1695   */\n    tag_187:\n        /* \"#utility.yul\":1606:1613   */\n      0x00\n        /* \"#utility.yul\":1646:1688   */\n      0xffffffffffffffffffffffffffffffffffffffff\n        /* \"#utility.yul\":1639:1644   */\n      dup3\n        /* \"#utility.yul\":1635:1689   */\n      and\n        /* \"#utility.yul\":1624:1689   */\n      swap1\n      pop\n        /* \"#utility.yul\":1569:1695   */\n      swap2\n      swap1\n      pop\n      jump\t// out\n        /* \"#utility.yul\":1701:1797   */\n    tag_188:\n        /* \"#utility.yul\":1738:1745   */\n      0x00\n        /* \"#utility.yul\":1767:1791   */\n      tag_240\n        /* \"#utility.yul\":1785:1790   */\n      dup3\n        /* \"#utility.yul\":1767:1791   */\n      tag_187\n      jump\t// in\n    tag_240:\n        /* \"#utility.yul\":1756:1791   */\n      swap1\n      pop\n        /* \"#utility.yul\":1701:1797   */\n      swap2\n      swap1\n      pop\n      jump\t// out\n        /* \"#utility.yul\":1803:1925   */\n    tag_189:\n        /* \"#utility.yul\":1876:1900   */\n      tag_242\n        /* \"#utility.yul\":1894:1899   */\n      dup2\n        /* \"#utility.yul\":1876:1900   */\n      tag_188\n      jump\t// in\n    tag_242:\n        /* \"#utility.yul\":1869:1874   */\n      dup2\n        /* \"#utility.yul\":1866:1901   */\n      eq\n        /* \"#utility.yul\":1856:1919   */\n      tag_243\n      jumpi\n        /* \"#utility.yul\":1915:1916   */\n      0x00\n        /* \"#utility.yul\":1912:1913   */\n      0x00\n        /* \"#utility.yul\":1905:1917   */\n      revert\n        /* \"#utility.yul\":1856:1919   */\n    tag_243:\n        /* \"#utility.yul\":1803:1925   */\n      pop\n      jump\t// out\n        /* \"#utility.yul\":1931:2070   */\n    tag_190:\n        /* \"#utility.yul\":1977:1982   */\n      0x00\n        /* \"#utility.yul\":2015:2021   */\n      dup2\n        /* \"#utility.yul\":2002:2022   */\n      calldataload\n        /* \"#utility.yul\":1993:2022   */\n      swap1\n      pop\n        /* \"#utility.yul\":2031:2064   */\n      tag_245\n        /* \"#utility.yul\":2058:2063   */\n      dup2\n        /* \"#utility.yul\":2031:2064   */\n      tag_189\n      jump\t// in\n    tag_245:\n        /* \"#utility.yul\":1931:2070   */\n      swap3\n      swap2\n      pop\n      pop\n      jump\t// out\n        /* \"#utility.yul\":2076:2153   */\n    tag_191:\n        /* \"#utility.yul\":2113:2120   */\n      0x00\n        /* \"#utility.yul\":2142:2147   */\n      dup2\n        /* \"#utility.yul\":2131:2147   */\n      swap1\n      pop\n        /* \"#utility.yul\":2076:2153   */\n      swap2\n      swap1\n      pop\n      jump\t// out\n        /* \"#utility.yul\":2159:2281   */\n    tag_192:\n        /* \"#utility.yul\":2232:2256   */\n      tag_248\n        /* \"#utility.yul\":2250:2255   */\n      dup2\n        /* \"#utility.yul\":2232:2256   */\n      tag_191\n      jump\t// in\n    tag_248:\n        /* \"#utility.yul\":2225:2230   */\n      dup2\n        /* \"#utility.yul\":2222:2257   */\n      eq\n        /* \"#utility.yul\":2212:2275   */\n      tag_249\n      jumpi\n        /* \"#utility.yul\":2271:2272   */\n      0x00\n        /* \"#utility.yul\":2268:2269   */\n      0x00\n        /* \"#utility.yul\":2261:2273   */\n      revert\n        /* \"#utility.yul\":2212:2275   */\n    tag_249:\n        /* \"#utility.yul\":2159:2281   */\n      pop\n      jump\t// out\n        /* \"#utility.yul\":2287:2426   */\n    tag_193:\n        /* \"#utility.yul\":2333:2338   */\n      0x00\n        /* \"#utility.yul\":2371:2377   */\n      dup2\n        /* \"#utility.yul\":2358:2378   */\n      calldataload\n        /* \"#utility.yul\":2349:2378   */\n      swap1\n      pop\n        /* \"#utility.yul\":2387:2420   */\n      tag_251\n        /* \"#utility.yul\":2414:2419   */\n      dup2\n        /* \"#utility.yul\":2387:2420   */\n      tag_192\n      jump\t// in\n    tag_251:\n        /* \"#utility.yul\":2287:2426   */\n      swap3\n      swap2\n      pop\n      pop\n      jump\t// out\n        /* \"#utility.yul\":2432:2906   */\n    tag_34:\n        /* \"#utility.yul\":2500:2506   */\n      0x00\n        /* \"#utility.yul\":2508:2514   */\n      0x00\n        /* \"#utility.yul\":2557:2559   */\n      0x40\n        /* \"#utility.yul\":2545:2554   */\n      dup4\n        /* \"#utility.yul\":2536:2543   */\n      dup6\n        /* \"#utility.yul\":2532:2555   */\n      sub\n        /* \"#utility.yul\":2528:2560   */\n      slt\n        /* \"#utility.yul\":2525:2644   */\n      iszero\n      tag_253\n      jumpi\n        /* \"#utility.yul\":2563:2642   */\n      tag_254\n      tag_185\n      jump\t// in\n    tag_254:\n        /* \"#utility.yul\":2525:2644   */\n    tag_253:\n        /* \"#utility.yul\":2683:2684   */\n      0x00\n        /* \"#utility.yul\":2708:2761   */\n      tag_255\n        /* \"#utility.yul\":2753:2760   */\n      dup6\n        /* \"#utility.yul\":2744:2750   */\n      dup3\n        /* \"#utility.yul\":2733:2742   */\n      dup7\n        /* \"#utility.yul\":2729:2751   */\n      add\n        /* \"#utility.yul\":2708:2761   */\n      tag_190\n      jump\t// in\n    tag_255:\n        /* \"#utility.yul\":2698:2761   */\n      swap3\n      pop\n        /* \"#utility.yul\":2654:2771   */\n      pop\n        /* \"#utility.yul\":2810:2812   */\n      0x20\n        /* \"#utility.yul\":2836:2889   */\n      tag_256\n        /* \"#utility.yul\":2881:2888   */\n      dup6\n        /* \"#utility.yul\":2872:2878   */\n      dup3\n        /* \"#utility.yul\":2861:2870   */\n      dup7\n        /* \"#utility.yul\":2857:2879   */\n      add\n        /* \"#utility.yul\":2836:2889   */\n      tag_193\n      jump\t// in\n    tag_256:\n        /* \"#utility.yul\":2826:2889   */\n      swap2\n      pop\n        /* \"#utility.yul\":2781:2899   */\n      pop\n        /* \"#utility.yul\":2432:2906   */\n      swap3\n      pop\n      swap3\n      swap1\n      pop\n      jump\t// out\n        /* \"#utility.yul\":2912:3002   */\n    tag_194:\n        /* \"#utility.yul\":2946:2953   */\n      0x00\n        /* \"#utility.yul\":2989:2994   */\n      dup2\n        /* \"#utility.yul\":2982:2995   */\n      iszero\n        /* \"#utility.yul\":2975:2996   */\n      iszero\n        /* \"#utility.yul\":2964:2996   */\n      swap1\n      pop\n        /* \"#utility.yul\":2912:3002   */\n      swap2\n      swap1\n      pop\n      jump\t// out\n        /* \"#utility.yul\":3008:3117   */\n    tag_195:\n        /* \"#utility.yul\":3089:3110   */\n      tag_259\n        /* \"#utility.yul\":3104:3109   */\n      dup2\n        /* \"#utility.yul\":3089:3110   */\n      tag_194\n      jump\t// in\n    tag_259:\n        /* \"#utility.yul\":3084:3087   */\n      dup3\n        /* \"#utility.yul\":3077:3111   */\n      mstore\n        /* \"#utility.yul\":3008:3117   */\n      pop\n      pop\n      jump\t// out\n        /* \"#utility.yul\":3123:3333   */\n    tag_37:\n        /* \"#utility.yul\":3210:3214   */\n      0x00\n        /* \"#utility.yul\":3248:3250   */\n      0x20\n        /* \"#utility.yul\":3237:3246   */\n      dup3\n        /* \"#utility.yul\":3233:3251   */\n      add\n        /* \"#utility.yul\":3225:3251   */\n      swap1\n      pop\n        /* \"#utility.yul\":3261:3326   */\n      tag_261\n        /* \"#utility.yul\":3323:3324   */\n      0x00\n        /* \"#utility.yul\":3312:3321   */\n      dup4\n        /* \"#utility.yul\":3308:3325   */\n      add\n        /* \"#utility.yul\":3299:3305   */\n      dup5\n        /* \"#utility.yul\":3261:3326   */\n      tag_195\n      jump\t// in\n    tag_261:\n        /* \"#utility.yul\":3123:3333   */\n      swap3\n      swap2\n      pop\n      pop\n      jump\t// out\n        /* \"#utility.yul\":3339:3457   */\n    tag_196:\n        /* \"#utility.yul\":3426:3450   */\n      tag_263\n        /* \"#utility.yul\":3444:3449   */\n      dup2\n        /* \"#utility.yul\":3426:3450   */\n      tag_191\n      jump\t// in\n    tag_263:\n        /* \"#utility.yul\":3421:3424   */\n      dup3\n        /* \"#utility.yul\":3414:3451   */\n      mstore\n        /* \"#utility.yul\":3339:3457   */\n      pop\n      pop\n      jump\t// out\n        /* \"#utility.yul\":3463:3685   */\n    tag_42:\n        /* \"#utility.yul\":3556:3560   */\n      0x00\n        /* \"#utility.yul\":3594:3596   */\n      0x20\n        /* \"#utility.yul\":3583:3592   */\n      dup3\n        /* \"#utility.yul\":3579:3597   */\n      add\n        /* \"#utility.yul\":3571:3597   */\n      swap1\n      pop\n        /* \"#utility.yul\":3607:3678   */\n      tag_265\n        /* \"#utility.yul\":3675:3676   */\n      0x00\n        /* \"#utility.yul\":3664:3673   */\n      dup4\n        /* \"#utility.yul\":3660:3677   */\n      add\n        /* \"#utility.yul\":3651:3657   */\n      dup5\n        /* \"#utility.yul\":3607:3678   */\n      tag_196\n      jump\t// in\n    tag_265:\n        /* \"#utility.yul\":3463:3685   */\n      swap3\n      swap2\n      pop\n      pop\n      jump\t// out\n        /* \"#utility.yul\":3691:4310   */\n    tag_46:\n        /* \"#utility.yul\":3768:3774   */\n      0x00\n        /* \"#utility.yul\":3776:3782   */\n      0x00\n        /* \"#utility.yul\":3784:3790   */\n      0x00\n        /* \"#utility.yul\":3833:3835   */\n      0x60\n        /* \"#utility.yul\":3821:3830   */\n      dup5\n        /* \"#utility.yul\":3812:3819   */\n      dup7\n        /* \"#utility.yul\":3808:3831   */\n      sub\n        /* \"#utility.yul\":3804:3836   */\n      slt\n        /* \"#utility.yul\":3801:3920   */\n      iszero\n      tag_267\n      jumpi\n        /* \"#utility.yul\":3839:3918   */\n      tag_268\n      tag_185\n      jump\t// in\n    tag_268:\n        /* \"#utility.yul\":3801:3920   */\n    tag_267:\n        /* \"#utility.yul\":3959:3960   */\n      0x00\n        /* \"#utility.yul\":3984:4037   */\n      tag_269\n        /* \"#utility.yul\":4029:4036   */\n      dup7\n        /* \"#utility.yul\":4020:4026   */\n      dup3\n        /* \"#utility.yul\":4009:4018   */\n      dup8\n        /* \"#utility.yul\":4005:4027   */\n      add\n        /* \"#utility.yul\":3984:4037   */\n      tag_190\n      jump\t// in\n    tag_269:\n        /* \"#utility.yul\":3974:4037   */\n      swap4\n      pop\n        /* \"#utility.yul\":3930:4047   */\n      pop\n        /* \"#utility.yul\":4086:4088   */\n      0x20\n        /* \"#utility.yul\":4112:4165   */\n      tag_270\n        /* \"#utility.yul\":4157:4164   */\n      dup7\n        /* \"#utility.yul\":4148:4154   */\n      dup3\n        /* \"#utility.yul\":4137:4146   */\n      dup8\n        /* \"#utility.yul\":4133:4155   */\n      add\n        /* \"#utility.yul\":4112:4165   */\n      tag_190\n      jump\t// in\n    tag_270:\n        /* \"#utility.yul\":4102:4165   */\n      swap3\n      pop\n        /* \"#utility.yul\":4057:4175   */\n      pop\n        /* \"#utility.yul\":4214:4216   */\n      0x40\n        /* \"#utility.yul\":4240:4293   */\n      tag_271\n        /* \"#utility.yul\":4285:4292   */\n      dup7\n        /* \"#utility.yul\":4276:4282   */\n      dup3\n        /* \"#utility.yul\":4265:4274   */\n      dup8\n        /* \"#utility.yul\":4261:4283   */\n      add\n        /* \"#utility.yul\":4240:4293   */\n      tag_193\n      jump\t// in\n    tag_271:\n        /* \"#utility.yul\":4230:4293   */\n      swap2\n      pop\n        /* \"#utility.yul\":4185:4303   */\n      pop\n        /* \"#utility.yul\":3691:4310   */\n      swap3\n      pop\n      swap3\n      pop\n      swap3\n      jump\t// out\n        /* \"#utility.yul\":4316:4645   */\n    tag_52:\n        /* \"#utility.yul\":4375:4381   */\n      0x00\n        /* \"#utility.yul\":4424:4426   */\n      0x20\n        /* \"#utility.yul\":4412:4421   */\n      dup3\n        /* \"#utility.yul\":4403:4410   */\n      dup5\n        /* \"#utility.yul\":4399:4422   */\n      sub\n        /* \"#utility.yul\":4395:4427   */\n      slt\n        /* \"#utility.yul\":4392:4511   */\n      iszero\n      tag_273\n      jumpi\n        /* \"#utility.yul\":4430:4509   */\n      tag_274\n      tag_185\n      jump\t// in\n    tag_274:\n        /* \"#utility.yul\":4392:4511   */\n    tag_273:\n        /* \"#utility.yul\":4550:4551   */\n      0x00\n        /* \"#utility.yul\":4575:4628   */\n      tag_275\n        /* \"#utility.yul\":4620:4627   */\n      dup5\n        /* \"#utility.yul\":4611:4617   */\n      dup3\n        /* \"#utility.yul\":4600:4609   */\n      dup6\n        /* \"#utility.yul\":4596:4618   */\n      add\n        /* \"#utility.yul\":4575:4628   */\n      tag_193\n      jump\t// in\n    tag_275:\n        /* \"#utility.yul\":4565:4628   */\n      swap2\n      pop\n        /* \"#utility.yul\":4521:4638   */\n      pop\n        /* \"#utility.yul\":4316:4645   */\n      swap3\n      swap2\n      pop\n      pop\n      jump\t// out\n        /* \"#utility.yul\":4651:4737   */\n    tag_197:\n        /* \"#utility.yul\":4686:4693   */\n      0x00\n        /* \"#utility.yul\":4726:4730   */\n      0xff\n        /* \"#utility.yul\":4719:4724   */\n      dup3\n        /* \"#utility.yul\":4715:4731   */\n      and\n        /* \"#utility.yul\":4704:4731   */\n      swap1\n      pop\n        /* \"#utility.yul\":4651:4737   */\n      swap2\n      swap1\n      pop\n      jump\t// out\n        /* \"#utility.yul\":4743:4855   */\n    tag_198:\n        /* \"#utility.yul\":4826:4848   */\n      tag_278\n        /* \"#utility.yul\":4842:4847   */\n      dup2\n        /* \"#utility.yul\":4826:4848   */\n      tag_197\n      jump\t// in\n    tag_278:\n        /* \"#utility.yul\":4821:4824   */\n      dup3\n        /* \"#utility.yul\":4814:4849   */\n      mstore\n        /* \"#utility.yul\":4743:4855   */\n      pop\n      pop\n      jump\t// out\n        /* \"#utility.yul\":4861:5075   */\n    tag_58:\n        /* \"#utility.yul\":4950:4954   */\n      0x00\n        /* \"#utility.yul\":4988:4990   */\n      0x20\n        /* \"#utility.yul\":4977:4986   */\n      dup3\n        /* \"#utility.yul\":4973:4991   */\n      add\n        /* \"#utility.yul\":4965:4991   */\n      swap1\n      pop\n        /* \"#utility.yul\":5001:5068   */\n      tag_280\n        /* \"#utility.yul\":5065:5066   */\n      0x00\n        /* \"#utility.yul\":5054:5063   */\n      dup4\n        /* \"#utility.yul\":5050:5067   */\n      add\n        /* \"#utility.yul\":5041:5047   */\n      dup5\n        /* \"#utility.yul\":5001:5068   */\n      tag_198\n      jump\t// in\n    tag_280:\n        /* \"#utility.yul\":4861:5075   */\n      swap3\n      swap2\n      pop\n      pop\n      jump\t// out\n        /* \"#utility.yul\":5081:5158   */\n    tag_199:\n        /* \"#utility.yul\":5118:5125   */\n      0x00\n        /* \"#utility.yul\":5147:5152   */\n      dup2\n        /* \"#utility.yul\":5136:5152   */\n      swap1\n      pop\n        /* \"#utility.yul\":5081:5158   */\n      swap2\n      swap1\n      pop\n      jump\t// out\n        /* \"#utility.yul\":5164:5282   */\n    tag_200:\n        /* \"#utility.yul\":5251:5275   */\n      tag_283\n        /* \"#utility.yul\":5269:5274   */\n      dup2\n        /* \"#utility.yul\":5251:5275   */\n      tag_199\n      jump\t// in\n    tag_283:\n        /* \"#utility.yul\":5246:5249   */\n      dup3\n        /* \"#utility.yul\":5239:5276   */\n      mstore\n        /* \"#utility.yul\":5164:5282   */\n      pop\n      pop\n      jump\t// out\n        /* \"#utility.yul\":5288:5510   */\n    tag_63:\n        /* \"#utility.yul\":5381:5385   */\n      0x00\n        /* \"#utility.yul\":5419:5421   */\n      0x20\n        /* \"#utility.yul\":5408:5417   */\n      dup3\n        /* \"#utility.yul\":5404:5422   */\n      add\n        /* \"#utility.yul\":5396:5422   */\n      swap1\n      pop\n        /* \"#utility.yul\":5432:5503   */\n      tag_285\n        /* \"#utility.yul\":5500:5501   */\n      0x00\n        /* \"#utility.yul\":5489:5498   */\n      dup4\n        /* \"#utility.yul\":5485:5502   */\n      add\n        /* \"#utility.yul\":5476:5482   */\n      dup5\n        /* \"#utility.yul\":5432:5503   */\n      tag_200\n      jump\t// in\n    tag_285:\n        /* \"#utility.yul\":5288:5510   */\n      swap3\n      swap2\n      pop\n      pop\n      jump\t// out\n        /* \"#utility.yul\":5516:5845   */\n    tag_71:\n        /* \"#utility.yul\":5575:5581   */\n      0x00\n        /* \"#utility.yul\":5624:5626   */\n      0x20\n        /* \"#utility.yul\":5612:5621   */\n      dup3\n        /* \"#utility.yul\":5603:5610   */\n      dup5\n        /* \"#utility.yul\":5599:5622   */\n      sub\n        /* \"#utility.yul\":5595:5627   */\n      slt\n        /* \"#utility.yul\":5592:5711   */\n      iszero\n      tag_287\n      jumpi\n        /* \"#utility.yul\":5630:5709   */\n      tag_288\n      tag_185\n      jump\t// in\n    tag_288:\n        /* \"#utility.yul\":5592:5711   */\n    tag_287:\n        /* \"#utility.yul\":5750:5751   */\n      0x00\n        /* \"#utility.yul\":5775:5828   */\n      tag_289\n        /* \"#utility.yul\":5820:5827   */\n      dup5\n        /* \"#utility.yul\":5811:5817   */\n      dup3\n        /* \"#utility.yul\":5800:5809   */\n      dup6\n        /* \"#utility.yul\":5796:5818   */\n      add\n        /* \"#utility.yul\":5775:5828   */\n      tag_190\n      jump\t// in\n    tag_289:\n        /* \"#utility.yul\":5765:5828   */\n      swap2\n      pop\n        /* \"#utility.yul\":5721:5838   */\n      pop\n        /* \"#utility.yul\":5516:5845   */\n      swap3\n      swap2\n      pop\n      pop\n      jump\t// out\n        /* \"#utility.yul\":5851:5969   */\n    tag_201:\n        /* \"#utility.yul\":5938:5962   */\n      tag_291\n        /* \"#utility.yul\":5956:5961   */\n      dup2\n        /* \"#utility.yul\":5938:5962   */\n      tag_188\n      jump\t// in\n    tag_291:\n        /* \"#utility.yul\":5933:5936   */\n      dup3\n        /* \"#utility.yul\":5926:5963   */\n      mstore\n        /* \"#utility.yul\":5851:5969   */\n      pop\n      pop\n      jump\t// out\n        /* \"#utility.yul\":5975:6197   */\n    tag_83:\n        /* \"#utility.yul\":6068:6072   */\n      0x00\n        /* \"#utility.yul\":6106:6108   */\n      0x20\n        /* \"#utility.yul\":6095:6104   */\n      dup3\n        /* \"#utility.yul\":6091:6109   */\n      add\n        /* \"#utility.yul\":6083:6109   */\n      swap1\n      pop\n        /* \"#utility.yul\":6119:6190   */\n      tag_293\n        /* \"#utility.yul\":6187:6188   */\n      0x00\n        /* \"#utility.yul\":6176:6185   */\n      dup4\n        /* \"#utility.yul\":6172:6189   */\n      add\n        /* \"#utility.yul\":6163:6169   */\n      dup5\n        /* \"#utility.yul\":6119:6190   */\n      tag_201\n      jump\t// in\n    tag_293:\n        /* \"#utility.yul\":5975:6197   */\n      swap3\n      swap2\n      pop\n      pop\n      jump\t// out\n        /* \"#utility.yul\":6203:6321   */\n    tag_202:\n        /* \"#utility.yul\":6274:6296   */\n      tag_295\n        /* \"#utility.yul\":6290:6295   */\n      dup2\n        /* \"#utility.yul\":6274:6296   */\n      tag_197\n      jump\t// in\n    tag_295:\n        /* \"#utility.yul\":6267:6272   */\n      dup2\n        /* \"#utility.yul\":6264:6297   */\n      eq\n        /* \"#utility.yul\":6254:6315   */\n      tag_296\n      jumpi\n        /* \"#utility.yul\":6311:6312   */\n      0x00\n        /* \"#utility.yul\":6308:6309   */\n      0x00\n        /* \"#utility.yul\":6301:6313   */\n      revert\n        /* \"#utility.yul\":6254:6315   */\n    tag_296:\n        /* \"#utility.yul\":6203:6321   */\n      pop\n      jump\t// out\n        /* \"#utility.yul\":6327:6462   */\n    tag_203:\n        /* \"#utility.yul\":6371:6376   */\n      0x00\n        /* \"#utility.yul\":6409:6415   */\n      dup2\n        /* \"#utility.yul\":6396:6416   */\n      calldataload\n        /* \"#utility.yul\":6387:6416   */\n      swap1\n      pop\n        /* \"#utility.yul\":6425:6456   */\n      tag_298\n        /* \"#utility.yul\":6450:6455   */\n      dup2\n        /* \"#utility.yul\":6425:6456   */\n      tag_202\n      jump\t// in\n    tag_298:\n        /* \"#utility.yul\":6327:6462   */\n      swap3\n      swap2\n      pop\n      pop\n      jump\t// out\n        /* \"#utility.yul\":6468:6590   */\n    tag_204:\n        /* \"#utility.yul\":6541:6565   */\n      tag_300\n        /* \"#utility.yul\":6559:6564   */\n      dup2\n        /* \"#utility.yul\":6541:6565   */\n      tag_199\n      jump\t// in\n    tag_300:\n        /* \"#utility.yul\":6534:6539   */\n      dup2\n        /* \"#utility.yul\":6531:6566   */\n      eq\n        /* \"#utility.yul\":6521:6584   */\n      tag_301\n      jumpi\n        /* \"#utility.yul\":6580:6581   */\n      0x00\n        /* \"#utility.yul\":6577:6578   */\n      0x00\n        /* \"#utility.yul\":6570:6582   */\n      revert\n        /* \"#utility.yul\":6521:6584   */\n    tag_301:\n        /* \"#utility.yul\":6468:6590   */\n      pop\n      jump\t// out\n        /* \"#utility.yul\":6596:6735   */\n    tag_205:\n        /* \"#utility.yul\":6642:6647   */\n      0x00\n        /* \"#utility.yul\":6680:6686   */\n      dup2\n        /* \"#utility.yul\":6667:6687   */\n      calldataload\n        /* \"#utility.yul\":6658:6687   */\n      swap1\n      pop\n        /* \"#utility.yul\":6696:6729   */\n      tag_303\n        /* \"#utility.yul\":6723:6728   */\n      dup2\n        /* \"#utility.yul\":6696:6729   */\n      tag_204\n      jump\t// in\n    tag_303:\n        /* \"#utility.yul\":6596:6735   */\n      swap3\n      swap2\n      pop\n      pop\n      jump\t// out\n        /* \"#utility.yul\":6741:7940   */\n    tag_97:\n        /* \"#utility.yul\":6852:6858   */\n      0x00\n        /* \"#utility.yul\":6860:6866   */\n      0x00\n        /* \"#utility.yul\":6868:6874   */\n      0x00\n        /* \"#utility.yul\":6876:6882   */\n      0x00\n        /* \"#utility.yul\":6884:6890   */\n      0x00\n        /* \"#utility.yul\":6892:6898   */\n      0x00\n        /* \"#utility.yul\":6900:6906   */\n      0x00\n        /* \"#utility.yul\":6949:6952   */\n      0xe0\n        /* \"#utility.yul\":6937:6946   */\n      dup9\n        /* \"#utility.yul\":6928:6935   */\n      dup11\n        /* \"#utility.yul\":6924:6947   */\n      sub\n        /* \"#utility.yul\":6920:6953   */\n      slt\n        /* \"#utility.yul\":6917:7037   */\n      iszero\n      tag_305\n      jumpi\n        /* \"#utility.yul\":6956:7035   */\n      tag_306\n      tag_185\n      jump\t// in\n    tag_306:\n        /* \"#utility.yul\":6917:7037   */\n    tag_305:\n        /* \"#utility.yul\":7076:7077   */\n      0x00\n        /* \"#utility.yul\":7101:7154   */\n      tag_307\n        /* \"#utility.yul\":7146:7153   */\n      dup11\n        /* \"#utility.yul\":7137:7143   */\n      dup3\n        /* \"#utility.yul\":7126:7135   */\n      dup12\n        /* \"#utility.yul\":7122:7144   */\n      add\n        /* \"#utility.yul\":7101:7154   */\n      tag_190\n      jump\t// in\n    tag_307:\n        /* \"#utility.yul\":7091:7154   */\n      swap8\n      pop\n        /* \"#utility.yul\":7047:7164   */\n      pop\n        /* \"#utility.yul\":7203:7205   */\n      0x20\n        /* \"#utility.yul\":7229:7282   */\n      tag_308\n        /* \"#utility.yul\":7274:7281   */\n      dup11\n        /* \"#utility.yul\":7265:7271   */\n      dup3\n        /* \"#utility.yul\":7254:7263   */\n      dup12\n        /* \"#utility.yul\":7250:7272   */\n      add\n        /* \"#utility.yul\":7229:7282   */\n      tag_190\n      jump\t// in\n    tag_308:\n        /* \"#utility.yul\":7219:7282   */\n      swap7\n      pop\n        /* \"#utility.yul\":7174:7292   */\n      pop\n        /* \"#utility.yul\":7331:7333   */\n      0x40\n        /* \"#utility.yul\":7357:7410   */\n      tag_309\n        /* \"#utility.yul\":7402:7409   */\n      dup11\n        /* \"#utility.yul\":7393:7399   */\n      dup3\n        /* \"#utility.yul\":7382:7391   */\n      dup12\n        /* \"#utility.yul\":7378:7400   */\n      add\n        /* \"#utility.yul\":7357:7410   */\n      tag_193\n      jump\t// in\n    tag_309:\n        /* \"#utility.yul\":7347:7410   */\n      swap6\n      pop\n        /* \"#utility.yul\":7302:7420   */\n      pop\n        /* \"#utility.yul\":7459:7461   */\n      0x60\n        /* \"#utility.yul\":7485:7538   */\n      tag_310\n        /* \"#utility.yul\":7530:7537   */\n      dup11\n        /* \"#utility.yul\":7521:7527   */\n      dup3\n        /* \"#utility.yul\":7510:7519   */\n      dup12\n        /* \"#utility.yul\":7506:7528   */\n      add\n        /* \"#utility.yul\":7485:7538   */\n      tag_193\n      jump\t// in\n    tag_310:\n        /* \"#utility.yul\":7475:7538   */\n      swap5\n      pop\n        /* \"#utility.yul\":7430:7548   */\n      pop\n        /* \"#utility.yul\":7587:7590   */\n      0x80\n        /* \"#utility.yul\":7614:7665   */\n      tag_311\n        /* \"#utility.yul\":7657:7664   */\n      dup11\n        /* \"#utility.yul\":7648:7654   */\n      dup3\n        /* \"#utility.yul\":7637:7646   */\n      dup12\n        /* \"#utility.yul\":7633:7655   */\n      add\n        /* \"#utility.yul\":7614:7665   */\n      tag_203\n      jump\t// in\n    tag_311:\n        /* \"#utility.yul\":7604:7665   */\n      swap4\n      pop\n        /* \"#utility.yul\":7558:7675   */\n      pop\n        /* \"#utility.yul\":7714:7717   */\n      0xa0\n        /* \"#utility.yul\":7741:7794   */\n      tag_312\n        /* \"#utility.yul\":7786:7793   */\n      dup11\n        /* \"#utility.yul\":7777:7783   */\n      dup3\n        /* \"#utility.yul\":7766:7775   */\n      dup12\n        /* \"#utility.yul\":7762:7784   */\n      add\n        /* \"#utility.yul\":7741:7794   */\n      tag_205\n      jump\t// in\n    tag_312:\n        /* \"#utility.yul\":7731:7794   */\n      swap3\n      pop\n        /* \"#utility.yul\":7685:7804   */\n      pop\n        /* \"#utility.yul\":7843:7846   */\n      0xc0\n        /* \"#utility.yul\":7870:7923   */\n      tag_313\n        /* \"#utility.yul\":7915:7922   */\n      dup11\n        /* \"#utility.yul\":7906:7912   */\n      dup3\n        /* \"#utility.yul\":7895:7904   */\n      dup12\n        /* \"#utility.yul\":7891:7913   */\n      add\n        /* \"#utility.yul\":7870:7923   */\n      tag_205\n      jump\t// in\n    tag_313:\n        /* \"#utility.yul\":7860:7923   */\n      swap2\n      pop\n        /* \"#utility.yul\":7814:7933   */\n      pop\n        /* \"#utility.yul\":6741:7940   */\n      swap3\n      swap6\n      swap9\n      swap2\n      swap5\n      swap8\n      pop\n      swap3\n      swap6\n      pop\n      jump\t// out\n        /* \"#utility.yul\":7946:8420   */\n    tag_102:\n        /* \"#utility.yul\":8014:8020   */\n      0x00\n        /* \"#utility.yul\":8022:8028   */\n      0x00\n        /* \"#utility.yul\":8071:8073   */\n      0x40\n        /* \"#utility.yul\":8059:8068   */\n      dup4\n        /* \"#utility.yul\":8050:8057   */\n      dup6\n        /* \"#utility.yul\":8046:8069   */\n      sub\n        /* \"#utility.yul\":8042:8074   */\n      slt\n        /* \"#utility.yul\":8039:8158   */\n      iszero\n      tag_315\n      jumpi\n        /* \"#utility.yul\":8077:8156   */\n      tag_316\n      tag_185\n      jump\t// in\n    tag_316:\n        /* \"#utility.yul\":8039:8158   */\n    tag_315:\n        /* \"#utility.yul\":8197:8198   */\n      0x00\n        /* \"#utility.yul\":8222:8275   */\n      tag_317\n        /* \"#utility.yul\":8267:8274   */\n      dup6\n        /* \"#utility.yul\":8258:8264   */\n      dup3\n        /* \"#utility.yul\":8247:8256   */\n      dup7\n        /* \"#utility.yul\":8243:8265   */\n      add\n        /* \"#utility.yul\":8222:8275   */\n      tag_190\n      jump\t// in\n    tag_317:\n        /* \"#utility.yul\":8212:8275   */\n      swap3\n      pop\n        /* \"#utility.yul\":8168:8285   */\n      pop\n        /* \"#utility.yul\":8324:8326   */\n      0x20\n        /* \"#utility.yul\":8350:8403   */\n      tag_318\n        /* \"#utility.yul\":8395:8402   */\n      dup6\n        /* \"#utility.yul\":8386:8392   */\n      dup3\n        /* \"#utility.yul\":8375:8384   */\n      dup7\n        /* \"#utility.yul\":8371:8393   */\n      add\n        /* \"#utility.yul\":8350:8403   */\n      tag_190\n      jump\t// in\n    tag_318:\n        /* \"#utility.yul\":8340:8403   */\n      swap2\n      pop\n        /* \"#utility.yul\":8295:8413   */\n      pop\n        /* \"#utility.yul\":7946:8420   */\n      swap3\n      pop\n      swap3\n      swap1\n      pop\n      jump\t// out\n        /* \"#utility.yul\":8426:8606   */\n    tag_206:\n        /* \"#utility.yul\":8474:8551   */\n      0x4e487b7100000000000000000000000000000000000000000000000000000000\n        /* \"#utility.yul\":8471:8472   */\n      0x00\n        /* \"#utility.yul\":8464:8552   */\n      mstore\n        /* \"#utility.yul\":8571:8575   */\n      0x22\n        /* \"#utility.yul\":8568:8569   */\n      0x04\n        /* \"#utility.yul\":8561:8576   */\n      mstore\n        /* \"#utility.yul\":8595:8599   */\n      0x24\n        /* \"#utility.yul\":8592:8593   */\n      0x00\n        /* \"#utility.yul\":8585:8600   */\n      revert\n        /* \"#utility.yul\":8612:8932   */\n    tag_110:\n        /* \"#utility.yul\":8656:8662   */\n      0x00\n        /* \"#utility.yul\":8693:8694   */\n      0x02\n        /* \"#utility.yul\":8687:8691   */\n      dup3\n        /* \"#utility.yul\":8683:8695   */\n      div\n        /* \"#utility.yul\":8673:8695   */\n      swap1\n      pop\n        /* \"#utility.yul\":8740:8741   */\n      0x01\n        /* \"#utility.yul\":8734:8738   */\n      dup3\n        /* \"#utility.yul\":8730:8742   */\n      and\n        /* \"#utility.yul\":8761:8779   */\n      dup1\n        /* \"#utility.yul\":8751:8832   */\n      tag_321\n      jumpi\n        /* \"#utility.yul\":8817:8821   */\n      0x7f\n        /* \"#utility.yul\":8809:8815   */\n      dup3\n        /* \"#utility.yul\":8805:8822   */\n      and\n        /* \"#utility.yul\":8795:8822   */\n      swap2\n      pop\n        /* \"#utility.yul\":8751:8832   */\n    tag_321:\n        /* \"#utility.yul\":8879:8881   */\n      0x20\n        /* \"#utility.yul\":8871:8877   */\n      dup3\n        /* \"#utility.yul\":8868:8882   */\n      lt\n        /* \"#utility.yul\":8848:8866   */\n      dup2\n        /* \"#utility.yul\":8845:8883   */\n      sub\n        /* \"#utility.yul\":8842:8926   */\n      tag_322\n      jumpi\n        /* \"#utility.yul\":8898:8916   */\n      tag_323\n      tag_206\n      jump\t// in\n    tag_323:\n        /* \"#utility.yul\":8842:8926   */\n    tag_322:\n        /* \"#utility.yul\":8663:8932   */\n      pop\n        /* \"#utility.yul\":8612:8932   */\n      swap2\n      swap1\n      pop\n      jump\t// out\n        /* \"#utility.yul\":8938:9118   */\n    tag_207:\n        /* \"#utility.yul\":8986:9063   */\n      0x4e487b7100000000000000000000000000000000000000000000000000000000\n        /* \"#utility.yul\":8983:8984   */\n      0x00\n        /* \"#utility.yul\":8976:9064   */\n      mstore\n        /* \"#utility.yul\":9083:9087   */\n      0x11\n        /* \"#utility.yul\":9080:9081   */\n      0x04\n        /* \"#utility.yul\":9073:9088   */\n      mstore\n        /* \"#utility.yul\":9107:9111   */\n      0x24\n        /* \"#utility.yul\":9104:9105   */\n      0x00\n        /* \"#utility.yul\":9097:9112   */\n      revert\n        /* \"#utility.yul\":9124:9318   */\n    tag_120:\n        /* \"#utility.yul\":9164:9168   */\n      0x00\n        /* \"#utility.yul\":9184:9204   */\n      tag_326\n        /* \"#utility.yul\":9202:9203   */\n      dup3\n        /* \"#utility.yul\":9184:9204   */\n      tag_191\n      jump\t// in\n    tag_326:\n        /* \"#utility.yul\":9179:9204   */\n      swap2\n      pop\n        /* \"#utility.yul\":9218:9238   */\n      tag_327\n        /* \"#utility.yul\":9236:9237   */\n      dup4\n        /* \"#utility.yul\":9218:9238   */\n      tag_191\n      jump\t// in\n    tag_327:\n        /* \"#utility.yul\":9213:9238   */\n      swap3\n      pop\n        /* \"#utility.yul\":9262:9263   */\n      dup3\n        /* \"#utility.yul\":9259:9260   */\n      dup3\n        /* \"#utility.yul\":9255:9264   */\n      sub\n        /* \"#utility.yul\":9247:9264   */\n      swap1\n      pop\n        /* \"#utility.yul\":9286:9287   */\n      dup2\n        /* \"#utility.yul\":9280:9284   */\n      dup2\n        /* \"#utility.yul\":9277:9288   */\n      gt\n        /* \"#utility.yul\":9274:9311   */\n      iszero\n      tag_328\n      jumpi\n        /* \"#utility.yul\":9291:9309   */\n      tag_329\n      tag_207\n      jump\t// in\n    tag_329:\n        /* \"#utility.yul\":9274:9311   */\n    tag_328:\n        /* \"#utility.yul\":9124:9318   */\n      swap3\n      swap2\n      pop\n      pop\n      jump\t// out\n        /* \"#utility.yul\":9324:9426   */\n    tag_208:\n        /* \"#utility.yul\":9366:9374   */\n      0x00\n        /* \"#utility.yul\":9413:9418   */\n      dup2\n        /* \"#utility.yul\":9410:9411   */\n      0x01\n        /* \"#utility.yul\":9406:9419   */\n      shr\n        /* \"#utility.yul\":9385:9419   */\n      swap1\n      pop\n        /* \"#utility.yul\":9324:9426   */\n      swap2\n      swap1\n      pop\n      jump\t// out\n        /* \"#utility.yul\":9432:10280   */\n    tag_209:\n        /* \"#utility.yul\":9493:9498   */\n      0x00\n        /* \"#utility.yul\":9500:9504   */\n      0x00\n        /* \"#utility.yul\":9524:9530   */\n      dup3\n        /* \"#utility.yul\":9515:9530   */\n      swap2\n      pop\n        /* \"#utility.yul\":9548:9553   */\n      dup4\n        /* \"#utility.yul\":9539:9553   */\n      swap1\n      pop\n        /* \"#utility.yul\":9562:10274   */\n    tag_332:\n        /* \"#utility.yul\":9583:9584   */\n      0x01\n        /* \"#utility.yul\":9573:9581   */\n      dup6\n        /* \"#utility.yul\":9570:9585   */\n      gt\n        /* \"#utility.yul\":9562:10274   */\n      iszero\n      tag_334\n      jumpi\n        /* \"#utility.yul\":9678:9682   */\n      dup1\n        /* \"#utility.yul\":9673:9676   */\n      dup7\n        /* \"#utility.yul\":9669:9683   */\n      div\n        /* \"#utility.yul\":9663:9667   */\n      dup2\n        /* \"#utility.yul\":9660:9684   */\n      gt\n        /* \"#utility.yul\":9657:9707   */\n      iszero\n      tag_335\n      jumpi\n        /* \"#utility.yul\":9687:9705   */\n      tag_336\n      tag_207\n      jump\t// in\n    tag_336:\n        /* \"#utility.yul\":9657:9707   */\n    tag_335:\n        /* \"#utility.yul\":9737:9738   */\n      0x01\n        /* \"#utility.yul\":9727:9735   */\n      dup6\n        /* \"#utility.yul\":9723:9739   */\n      and\n        /* \"#utility.yul\":9720:10171   */\n      iszero\n      tag_337\n      jumpi\n        /* \"#utility.yul\":10152:10156   */\n      dup1\n        /* \"#utility.yul\":10145:10150   */\n      dup3\n        /* \"#utility.yul\":10141:10157   */\n      mul\n        /* \"#utility.yul\":10132:10157   */\n      swap2\n      pop\n        /* \"#utility.yul\":9720:10171   */\n    tag_337:\n        /* \"#utility.yul\":10202:10206   */\n      dup1\n        /* \"#utility.yul\":10196:10200   */\n      dup2\n        /* \"#utility.yul\":10192:10207   */\n      mul\n        /* \"#utility.yul\":10184:10207   */\n      swap1\n      pop\n        /* \"#utility.yul\":10232:10264   */\n      tag_338\n        /* \"#utility.yul\":10255:10263   */\n      dup6\n        /* \"#utility.yul\":10232:10264   */\n      tag_208\n      jump\t// in\n    tag_338:\n        /* \"#utility.yul\":10220:10264   */\n      swap5\n      pop\n        /* \"#utility.yul\":9562:10274   */\n      jump(tag_332)\n    tag_334:\n        /* \"#utility.yul\":9432:10280   */\n      swap5\n      pop\n      swap5\n      swap3\n      pop\n      pop\n      pop\n      jump\t// out\n        /* \"#utility.yul\":10286:11359   */\n    tag_210:\n        /* \"#utility.yul\":10340:10345   */\n      0x00\n        /* \"#utility.yul\":10531:10539   */\n      dup3\n        /* \"#utility.yul\":10521:10561   */\n      tag_340\n      jumpi\n        /* \"#utility.yul\":10552:10553   */\n      0x01\n        /* \"#utility.yul\":10543:10553   */\n      swap1\n      pop\n        /* \"#utility.yul\":10554:10559   */\n      jump(tag_339)\n        /* \"#utility.yul\":10521:10561   */\n    tag_340:\n        /* \"#utility.yul\":10580:10584   */\n      dup2\n        /* \"#utility.yul\":10570:10606   */\n      tag_341\n      jumpi\n        /* \"#utility.yul\":10597:10598   */\n      0x00\n        /* \"#utility.yul\":10588:10598   */\n      swap1\n      pop\n        /* \"#utility.yul\":10599:10604   */\n      jump(tag_339)\n        /* \"#utility.yul\":10570:10606   */\n    tag_341:\n        /* \"#utility.yul\":10666:10670   */\n      dup2\n        /* \"#utility.yul\":10714:10715   */\n      0x01\n        /* \"#utility.yul\":10709:10736   */\n      dup2\n      eq\n      tag_343\n      jumpi\n        /* \"#utility.yul\":10750:10751   */\n      0x02\n        /* \"#utility.yul\":10745:10936   */\n      dup2\n      eq\n      tag_344\n      jumpi\n        /* \"#utility.yul\":10659:10936   */\n      jump(tag_342)\n        /* \"#utility.yul\":10709:10736   */\n    tag_343:\n        /* \"#utility.yul\":10727:10728   */\n      0x01\n        /* \"#utility.yul\":10718:10728   */\n      swap2\n      pop\n        /* \"#utility.yul\":10729:10734   */\n      pop\n      jump(tag_339)\n        /* \"#utility.yul\":10745:10936   */\n    tag_344:\n        /* \"#utility.yul\":10790:10793   */\n      0xff\n        /* \"#utility.yul\":10780:10788   */\n      dup5\n        /* \"#utility.yul\":10777:10794   */\n      gt\n        /* \"#utility.yul\":10774:10817   */\n      iszero\n      tag_345\n      jumpi\n        /* \"#utility.yul\":10797:10815   */\n      tag_346\n      tag_207\n      jump\t// in\n    tag_346:\n        /* \"#utility.yul\":10774:10817   */\n    tag_345:\n        /* \"#utility.yul\":10846:10854   */\n      dup4\n        /* \"#utility.yul\":10843:10844   */\n      0x02\n        /* \"#utility.yul\":10839:10855   */\n      exp\n        /* \"#utility.yul\":10830:10855   */\n      swap2\n      pop\n        /* \"#utility.yul\":10881:10884   */\n      dup5\n        /* \"#utility.yul\":10874:10879   */\n      dup3\n        /* \"#utility.yul\":10871:10885   */\n      gt\n        /* \"#utility.yul\":10868:10908   */\n      iszero\n      tag_347\n      jumpi\n        /* \"#utility.yul\":10888:10906   */\n      tag_348\n      tag_207\n      jump\t// in\n    tag_348:\n        /* \"#utility.yul\":10868:10908   */\n    tag_347:\n        /* \"#utility.yul\":10921:10926   */\n      pop\n      jump(tag_339)\n        /* \"#utility.yul\":10659:10936   */\n    tag_342:\n      pop\n        /* \"#utility.yul\":11045:11047   */\n      0x20\n        /* \"#utility.yul\":11035:11043   */\n      dup4\n        /* \"#utility.yul\":11032:11048   */\n      lt\n        /* \"#utility.yul\":11026:11029   */\n      0x0133\n        /* \"#utility.yul\":11020:11024   */\n      dup4\n        /* \"#utility.yul\":11017:11030   */\n      lt\n        /* \"#utility.yul\":11013:11049   */\n      and\n        /* \"#utility.yul\":10995:10997   */\n      0x4e\n        /* \"#utility.yul\":10985:10993   */\n      dup5\n        /* \"#utility.yul\":10982:10998   */\n      lt\n        /* \"#utility.yul\":10977:10979   */\n      0x0b\n        /* \"#utility.yul\":10971:10975   */\n      dup5\n        /* \"#utility.yul\":10968:10980   */\n      lt\n        /* \"#utility.yul\":10964:10999   */\n      and\n        /* \"#utility.yul\":10948:11059   */\n      or\n        /* \"#utility.yul\":10945:11191   */\n      iszero\n      tag_349\n      jumpi\n        /* \"#utility.yul\":11101:11109   */\n      dup3\n        /* \"#utility.yul\":11095:11099   */\n      dup3\n        /* \"#utility.yul\":11091:11110   */\n      exp\n        /* \"#utility.yul\":11082:11110   */\n      swap1\n      pop\n        /* \"#utility.yul\":11136:11139   */\n      dup4\n        /* \"#utility.yul\":11129:11134   */\n      dup2\n        /* \"#utility.yul\":11126:11140   */\n      gt\n        /* \"#utility.yul\":11123:11163   */\n      iszero\n      tag_350\n      jumpi\n        /* \"#utility.yul\":11143:11161   */\n      tag_351\n      tag_207\n      jump\t// in\n    tag_351:\n        /* \"#utility.yul\":11123:11163   */\n    tag_350:\n        /* \"#utility.yul\":11176:11181   */\n      jump(tag_339)\n        /* \"#utility.yul\":10945:11191   */\n    tag_349:\n        /* \"#utility.yul\":11216:11258   */\n      tag_352\n        /* \"#utility.yul\":11254:11257   */\n      dup5\n        /* \"#utility.yul\":11244:11252   */\n      dup5\n        /* \"#utility.yul\":11238:11242   */\n      dup5\n        /* \"#utility.yul\":11235:11236   */\n      0x01\n        /* \"#utility.yul\":11216:11258   */\n      tag_209\n      jump\t// in\n    tag_352:\n        /* \"#utility.yul\":11201:11258   */\n      swap3\n      pop\n      swap1\n      pop\n        /* \"#utility.yul\":11290:11294   */\n      dup2\n        /* \"#utility.yul\":11285:11288   */\n      dup5\n        /* \"#utility.yul\":11281:11295   */\n      div\n        /* \"#utility.yul\":11274:11279   */\n      dup2\n        /* \"#utility.yul\":11271:11296   */\n      gt\n        /* \"#utility.yul\":11268:11319   */\n      iszero\n      tag_353\n      jumpi\n        /* \"#utility.yul\":11299:11317   */\n      tag_354\n      tag_207\n      jump\t// in\n    tag_354:\n        /* \"#utility.yul\":11268:11319   */\n    tag_353:\n        /* \"#utility.yul\":11348:11352   */\n      dup2\n        /* \"#utility.yul\":11341:11346   */\n      dup2\n        /* \"#utility.yul\":11337:11353   */\n      mul\n        /* \"#utility.yul\":11328:11353   */\n      swap1\n      pop\n        /* \"#utility.yul\":10286:11359   */\n    tag_339:\n      swap4\n      swap3\n      pop\n      pop\n      pop\n      jump\t// out\n        /* \"#utility.yul\":11365:11646   */\n    tag_138:\n        /* \"#utility.yul\":11423:11428   */\n      0x00\n        /* \"#utility.yul\":11447:11470   */\n      tag_356\n        /* \"#utility.yul\":11465:11469   */\n      dup3\n        /* \"#utility.yul\":11447:11470   */\n      tag_191\n      jump\t// in\n    tag_356:\n        /* \"#utility.yul\":11439:11470   */\n      swap2\n      pop\n        /* \"#utility.yul\":11491:11516   */\n      tag_357\n        /* \"#utility.yul\":11507:11515   */\n      dup4\n        /* \"#utility.yul\":11491:11516   */\n      tag_197\n      jump\t// in\n    tag_357:\n        /* \"#utility.yul\":11479:11516   */\n      swap3\n      pop\n        /* \"#utility.yul\":11535:11639   */\n      tag_358\n        /* \"#utility.yul\":11572:11638   */\n      0xffffffffffffffffffffffffffffffffffffffffffffffffffffffffffffffff\n        /* \"#utility.yul\":11562:11570   */\n      dup5\n        /* \"#utility.yul\":11556:11560   */\n      dup5\n        /* \"#utility.yul\":11535:11639   */\n      tag_210\n      jump\t// in\n    tag_358:\n        /* \"#utility.yul\":11526:11639   */\n      swap1\n      pop\n        /* \"#utility.yul\":11365:11646   */\n      swap3\n      swap2\n      pop\n      pop\n      jump\t// out\n        /* \"#utility.yul\":11652:12062   */\n    tag_140:\n        /* \"#utility.yul\":11692:11699   */\n      0x00\n        /* \"#utility.yul\":11715:11735   */\n      tag_360\n        /* \"#utility.yul\":11733:11734   */\n      dup3\n        /* \"#utility.yul\":11715:11735   */\n      tag_191\n      jump\t// in\n    tag_360:\n        /* \"#utility.yul\":11710:11735   */\n      swap2\n      pop\n        /* \"#utility.yul\":11749:11769   */\n      tag_361\n        /* \"#utility.yul\":11767:11768   */\n      dup4\n        /* \"#utility.yul\":11749:11769   */\n      tag_191\n      jump\t// in\n    tag_361:\n        /* \"#utility.yul\":11744:11769   */\n      swap3\n      pop\n        /* \"#utility.yul\":11804:11805   */\n      dup3\n        /* \"#utility.yul\":11801:11802   */\n      dup3\n        /* \"#utility.yul\":11797:11806   */\n      mul\n        /* \"#utility.yul\":11826:11856   */\n      tag_362\n        /* \"#utility.yul\":11844:11855   */\n      dup2\n        /* \"#utility.yul\":11826:11856   */\n      tag_191\n      jump\t// in\n    tag_362:\n        /* \"#utility.yul\":11815:11856   */\n      swap2\n      pop\n        /* \"#utility.yul\":12005:12006   */\n      dup3\n        /* \"#utility.yul\":11996:12003   */\n      dup3\n        /* \"#utility.yul\":11992:12007   */\n      div\n        /* \"#utility.yul\":11989:11990   */\n      dup5\n        /* \"#utility.yul\":11986:12008   */\n      eq\n        /* \"#utility.yul\":11966:11967   */\n      dup4\n        /* \"#utility.yul\":11959:11968   */\n      iszero\n        /* \"#utility.yul\":11939:12022   */\n      or\n        /* \"#utility.yul\":11916:12055   */\n      tag_363\n      jumpi\n        /* \"#utility.yul\":12035:12053   */\n      tag_364\n      tag_207\n      jump\t// in\n    tag_364:\n        /* \"#utility.yul\":11916:12055   */\n    tag_363:\n        /* \"#utility.yul\":11700:12062   */\n      pop\n        /* \"#utility.yul\":11652:12062   */\n      swap3\n      swap2\n      pop\n      pop\n      jump\t// out\n        /* \"#utility.yul\":12068:12241   */\n    tag_211:\n        /* \"#utility.yul\":12208:12233   */\n      0x5045524d49545f444541444c494e455f45585049524544000000000000000000\n        /* \"#utility.yul\":12204:12205   */\n      0x00\n        /* \"#utility.yul\":12196:12202   */\n      dup3\n        /* \"#utility.yul\":12192:12206   */\n      add\n        /* \"#utility.yul\":12185:12234   */\n      mstore\n        /* \"#utility.yul\":12068:12241   */\n      pop\n      jump\t// out\n        /* \"#utility.yul\":12247:12613   */\n    tag_212:\n        /* \"#utility.yul\":12389:12392   */\n      0x00\n        /* \"#utility.yul\":12410:12477   */\n      tag_367\n        /* \"#utility.yul\":12474:12476   */\n      0x17\n        /* \"#utility.yul\":12469:12472   */\n      dup4\n        /* \"#utility.yul\":12410:12477   */\n      tag_180\n      jump\t// in\n    tag_367:\n        /* \"#utility.yul\":12403:12477   */\n      swap2\n      pop\n        /* \"#utility.yul\":12486:12579   */\n      tag_368\n        /* \"#utility.yul\":12575:12578   */\n      dup3\n        /* \"#utility.yul\":12486:12579   */\n      tag_211\n      jump\t// in\n    tag_368:\n        /* \"#utility.yul\":12604:12606   */\n      0x20\n        /* \"#utility.yul\":12599:12602   */\n      dup3\n        /* \"#utility.yul\":12595:12607   */\n      add\n        /* \"#utility.yul\":12588:12607   */\n      swap1\n      pop\n        /* \"#utility.yul\":12247:12613   */\n      swap2\n      swap1\n      pop\n      jump\t// out\n        /* \"#utility.yul\":12619:13038   */\n    tag_152:\n        /* \"#utility.yul\":12785:12789   */\n      0x00\n        /* \"#utility.yul\":12823:12825   */\n      0x20\n        /* \"#utility.yul\":12812:12821   */\n      dup3\n        /* \"#utility.yul\":12808:12826   */\n      add\n        /* \"#utility.yul\":12800:12826   */\n      swap1\n      pop\n        /* \"#utility.yul\":12872:12881   */\n      dup2\n        /* \"#utility.yul\":12866:12870   */\n      dup2\n        /* \"#utility.yul\":12862:12882   */\n      sub\n        /* \"#utility.yul\":12858:12859   */\n      0x00\n        /* \"#utility.yul\":12847:12856   */\n      dup4\n        /* \"#utility.yul\":12843:12860   */\n      add\n        /* \"#utility.yul\":12836:12883   */\n      mstore\n        /* \"#utility.yul\":12900:13031   */\n      tag_370\n        /* \"#utility.yul\":13026:13030   */\n      dup2\n        /* \"#utility.yul\":12900:13031   */\n      tag_212\n      jump\t// in\n    tag_370:\n        /* \"#utility.yul\":12892:13031   */\n      swap1\n      pop\n        /* \"#utility.yul\":12619:13038   */\n      swap2\n      swap1\n      pop\n      jump\t// out\n        /* \"#utility.yul\":13044:13819   */\n    tag_155:\n        /* \"#utility.yul\":13277:13281   */\n      0x00\n        /* \"#utility.yul\":13315:13318   */\n      0xc0\n        /* \"#utility.yul\":13304:13313   */\n      dup3\n        /* \"#utility.yul\":13300:13319   */\n      add\n        /* \"#utility.yul\":13292:13319   */\n      swap1\n      pop\n        /* \"#utility.yul\":13329:13400   */\n      tag_372\n        /* \"#utility.yul\":13397:13398   */\n      0x00\n        /* \"#utility.yul\":13386:13395   */\n      dup4\n        /* \"#utility.yul\":13382:13399   */\n      add\n        /* \"#utility.yul\":13373:13379   */\n      dup10\n        /* \"#utility.yul\":13329:13400   */\n      tag_200\n      jump\t// in\n    tag_372:\n        /* \"#utility.yul\":13410:13482   */\n      tag_373\n        /* \"#utility.yul\":13478:13480   */\n      0x20\n        /* \"#utility.yul\":13467:13476   */\n      dup4\n        /* \"#utility.yul\":13463:13481   */\n      add\n        /* \"#utility.yul\":13454:13460   */\n      dup9\n        /* \"#utility.yul\":13410:13482   */\n      tag_201\n      jump\t// in\n    tag_373:\n        /* \"#utility.yul\":13492:13564   */\n      tag_374\n        /* \"#utility.yul\":13560:13562   */\n      0x40\n        /* \"#utility.yul\":13549:13558   */\n      dup4\n        /* \"#utility.yul\":13545:13563   */\n      add\n        /* \"#utility.yul\":13536:13542   */\n      dup8\n        /* \"#utility.yul\":13492:13564   */\n      tag_201\n      jump\t// in\n    tag_374:\n        /* \"#utility.yul\":13574:13646   */\n      tag_375\n        /* \"#utility.yul\":13642:13644   */\n      0x60\n        /* \"#utility.yul\":13631:13640   */\n      dup4\n        /* \"#utility.yul\":13627:13645   */\n      add\n        /* \"#utility.yul\":13618:13624   */\n      dup7\n        /* \"#utility.yul\":13574:13646   */\n      tag_196\n      jump\t// in\n    tag_375:\n        /* \"#utility.yul\":13656:13729   */\n      tag_376\n        /* \"#utility.yul\":13724:13727   */\n      0x80\n        /* \"#utility.yul\":13713:13722   */\n      dup4\n        /* \"#utility.yul\":13709:13728   */\n      add\n        /* \"#utility.yul\":13700:13706   */\n      dup6\n        /* \"#utility.yul\":13656:13729   */\n      tag_196\n      jump\t// in\n    tag_376:\n        /* \"#utility.yul\":13739:13812   */\n      tag_377\n        /* \"#utility.yul\":13807:13810   */\n      0xa0\n        /* \"#utility.yul\":13796:13805   */\n      dup4\n        /* \"#utility.yul\":13792:13811   */\n      add\n        /* \"#utility.yul\":13783:13789   */\n      dup5\n        /* \"#utility.yul\":13739:13812   */\n      tag_196\n      jump\t// in\n    tag_377:\n        /* \"#utility.yul\":13044:13819   */\n      swap8\n      swap7\n      pop\n      pop\n      pop\n      pop\n      pop\n      pop\n      pop\n      jump\t// out\n        /* \"#utility.yul\":13825:13973   */\n    tag_213:\n        /* \"#utility.yul\":13927:13938   */\n      0x00\n        /* \"#utility.yul\":13964:13967   */\n      dup2\n        /* \"#utility.yul\":13949:13967   */\n      swap1\n      pop\n        /* \"#utility.yul\":13825:13973   */\n      swap3\n      swap2\n      pop\n      pop\n      jump\t// out\n        /* \"#utility.yul\":13979:14193   */\n    tag_214:\n        /* \"#utility.yul\":14119:14185   */\n      0x1901000000000000000000000000000000000000000000000000000000000000\n        /* \"#utility.yul\":14115:14116   */\n      0x00\n        /* \"#utility.yul\":14107:14113   */\n      dup3\n        /* \"#utility.yul\":14103:14117   */\n      add\n        /* \"#utility.yul\":14096:14186   */\n      mstore\n        /* \"#utility.yul\":13979:14193   */\n      pop\n      jump\t// out\n        /* \"#utility.yul\":14199:14599   */\n    tag_215:\n        /* \"#utility.yul\":14359:14362   */\n      0x00\n        /* \"#utility.yul\":14380:14464   */\n      tag_381\n        /* \"#utility.yul\":14462:14463   */\n      0x02\n        /* \"#utility.yul\":14457:14460   */\n      dup4\n        /* \"#utility.yul\":14380:14464   */\n      tag_213\n      jump\t// in\n    tag_381:\n        /* \"#utility.yul\":14373:14464   */\n      swap2\n      pop\n        /* \"#utility.yul\":14473:14566   */\n      tag_382\n        /* \"#utility.yul\":14562:14565   */\n      dup3\n        /* \"#utility.yul\":14473:14566   */\n      tag_214\n      jump\t// in\n    tag_382:\n        /* \"#utility.yul\":14591:14592   */\n      0x02\n        /* \"#utility.yul\":14586:14589   */\n      dup3\n        /* \"#utility.yul\":14582:14593   */\n      add\n        /* \"#utility.yul\":14575:14593   */\n      swap1\n      pop\n        /* \"#utility.yul\":14199:14599   */\n      swap2\n      swap1\n      pop\n      jump\t// out\n        /* \"#utility.yul\":14605:14684   */\n    tag_216:\n        /* \"#utility.yul\":14644:14651   */\n      0x00\n        /* \"#utility.yul\":14673:14678   */\n      dup2\n        /* \"#utility.yul\":14662:14678   */\n      swap1\n      pop\n        /* \"#utility.yul\":14605:14684   */\n      swap2\n      swap1\n      pop\n      jump\t// out\n        /* \"#utility.yul\":14690:14847   */\n    tag_217:\n        /* \"#utility.yul\":14795:14840   */\n      tag_385\n        /* \"#utility.yul\":14815:14839   */\n      tag_386\n        /* \"#utility.yul\":14833:14838   */\n      dup3\n        /* \"#utility.yul\":14815:14839   */\n      tag_199\n      jump\t// in\n    tag_386:\n        /* \"#utility.yul\":14795:14840   */\n      tag_216\n      jump\t// in\n    tag_385:\n        /* \"#utility.yul\":14790:14793   */\n      dup3\n        /* \"#utility.yul\":14783:14841   */\n      mstore\n        /* \"#utility.yul\":14690:14847   */\n      pop\n      pop\n      jump\t// out\n        /* \"#utility.yul\":14853:15516   */\n    tag_157:\n        /* \"#utility.yul\":15094:15097   */\n      0x00\n        /* \"#utility.yul\":15116:15264   */\n      tag_388\n        /* \"#utility.yul\":15260:15263   */\n      dup3\n        /* \"#utility.yul\":15116:15264   */\n      tag_215\n      jump\t// in\n    tag_388:\n        /* \"#utility.yul\":15109:15264   */\n      swap2\n      pop\n        /* \"#utility.yul\":15274:15349   */\n      tag_389\n        /* \"#utility.yul\":15345:15348   */\n      dup3\n        /* \"#utility.yul\":15336:15342   */\n      dup6\n        /* \"#utility.yul\":15274:15349   */\n      tag_217\n      jump\t// in\n    tag_389:\n        /* \"#utility.yul\":15374:15376   */\n      0x20\n        /* \"#utility.yul\":15369:15372   */\n      dup3\n        /* \"#utility.yul\":15365:15377   */\n      add\n        /* \"#utility.yul\":15358:15377   */\n      swap2\n      pop\n        /* \"#utility.yul\":15387:15462   */\n      tag_390\n        /* \"#utility.yul\":15458:15461   */\n      dup3\n        /* \"#utility.yul\":15449:15455   */\n      dup5\n        /* \"#utility.yul\":15387:15462   */\n      tag_217\n      jump\t// in\n    tag_390:\n        /* \"#utility.yul\":15487:15489   */\n      0x20\n        /* \"#utility.yul\":15482:15485   */\n      dup3\n        /* \"#utility.yul\":15478:15490   */\n      add\n        /* \"#utility.yul\":15471:15490   */\n      swap2\n      pop\n        /* \"#utility.yul\":15507:15510   */\n      dup2\n        /* \"#utility.yul\":15500:15510   */\n      swap1\n      pop\n        /* \"#utility.yul\":14853:15516   */\n      swap4\n      swap3\n      pop\n      pop\n      pop\n      jump\t// out\n        /* \"#utility.yul\":15522:16067   */\n    tag_159:\n        /* \"#utility.yul\":15695:15699   */\n      0x00\n        /* \"#utility.yul\":15733:15736   */\n      0x80\n        /* \"#utility.yul\":15722:15731   */\n      dup3\n        /* \"#utility.yul\":15718:15737   */\n      add\n        /* \"#utility.yul\":15710:15737   */\n      swap1\n      pop\n        /* \"#utility.yul\":15747:15818   */\n      tag_392\n        /* \"#utility.yul\":15815:15816   */\n      0x00\n        /* \"#utility.yul\":15804:15813   */\n      dup4\n        /* \"#utility.yul\":15800:15817   */\n      add\n        /* \"#utility.yul\":15791:15797   */\n      dup8\n        /* \"#utility.yul\":15747:15818   */\n      tag_200\n      jump\t// in\n    tag_392:\n        /* \"#utility.yul\":15828:15896   */\n      tag_393\n        /* \"#utility.yul\":15892:15894   */\n      0x20\n        /* \"#utility.yul\":15881:15890   */\n      dup4\n        /* \"#utility.yul\":15877:15895   */\n      add\n        /* \"#utility.yul\":15868:15874   */\n      dup7\n        /* \"#utility.yul\":15828:15896   */\n      tag_198\n      jump\t// in\n    tag_393:\n        /* \"#utility.yul\":15906:15978   */\n      tag_394\n        /* \"#utility.yul\":15974:15976   */\n      0x40\n        /* \"#utility.yul\":15963:15972   */\n      dup4\n        /* \"#utility.yul\":15959:15977   */\n      add\n        /* \"#utility.yul\":15950:15956   */\n      dup6\n        /* \"#utility.yul\":15906:15978   */\n      tag_200\n      jump\t// in\n    tag_394:\n        /* \"#utility.yul\":15988:16060   */\n      tag_395\n        /* \"#utility.yul\":16056:16058   */\n      0x60\n        /* \"#utility.yul\":16045:16054   */\n      dup4\n        /* \"#utility.yul\":16041:16059   */\n      add\n        /* \"#utility.yul\":16032:16038   */\n      dup5\n        /* \"#utility.yul\":15988:16060   */\n      tag_200\n      jump\t// in\n    tag_395:\n        /* \"#utility.yul\":15522:16067   */\n      swap6\n      swap5\n      pop\n      pop\n      pop\n      pop\n      pop\n      jump\t// out\n        /* \"#utility.yul\":16073:16237   */\n    tag_218:\n        /* \"#utility.yul\":16213:16229   */\n      0x494e56414c49445f5349474e4552000000000000000000000000000000000000\n        /* \"#utility.yul\":16209:16210   */\n      0x00\n        /* \"#utility.yul\":16201:16207   */\n      dup3\n        /* \"#utility.yul\":16197:16211   */\n      add\n        /* \"#utility.yul\":16190:16230   */\n      mstore\n        /* \"#utility.yul\":16073:16237   */\n      pop\n      jump\t// out\n        /* \"#utility.yul\":16243:16609   */\n    tag_219:\n        /* \"#utility.yul\":16385:16388   */\n      0x00\n        /* \"#utility.yul\":16406:16473   */\n      tag_398\n        /* \"#utility.yul\":16470:16472   */\n      0x0e\n        /* \"#utility.yul\":16465:16468   */\n      dup4\n        /* \"#utility.yul\":16406:16473   */\n      tag_180\n      jump\t// in\n    tag_398:\n        /* \"#utility.yul\":16399:16473   */\n      swap2\n      pop\n        /* \"#utility.yul\":16482:16575   */\n      tag_399\n        /* \"#utility.yul\":16571:16574   */\n      dup3\n        /* \"#utility.yul\":16482:16575   */\n      tag_218\n      jump\t// in\n    tag_399:\n        /* \"#utility.yul\":16600:16602   */\n      0x20\n        /* \"#utility.yul\":16595:16598   */\n      dup3\n        /* \"#utility.yul\":16591:16603   */\n      add\n        /* \"#utility.yul\":16584:16603   */\n      swap1\n      pop\n        /* \"#utility.yul\":16243:16609   */\n      swap2\n      swap1\n      pop\n      jump\t// out\n        /* \"#utility.yul\":16615:17034   */\n    tag_165:\n        /* \"#utility.yul\":16781:16785   */\n      0x00\n        /* \"#utility.yul\":16819:16821   */\n      0x20\n        /* \"#utility.yul\":16808:16817   */\n      dup3\n        /* \"#utility.yul\":16804:16822   */\n      add\n        /* \"#utility.yul\":16796:16822   */\n      swap1\n      pop\n        /* \"#utility.yul\":16868:16877   */\n      dup2\n        /* \"#utility.yul\":16862:16866   */\n      dup2\n        /* \"#utility.yul\":16858:16878   */\n      sub\n        /* \"#utility.yul\":16854:16855   */\n      0x00\n        /* \"#utility.yul\":16843:16852   */\n      dup4\n        /* \"#utility.yul\":16839:16856   */\n      add\n        /* \"#utility.yul\":16832:16879   */\n      mstore\n        /* \"#utility.yul\":16896:17027   */\n      tag_401\n        /* \"#utility.yul\":17022:17026   */\n      dup2\n        /* \"#utility.yul\":16896:17027   */\n      tag_219\n      jump\t// in\n    tag_401:\n        /* \"#utility.yul\":16888:17027   */\n      swap1\n      pop\n        /* \"#utility.yul\":16615:17034   */\n      swap2\n      swap1\n      pop\n      jump\t// out\n        /* \"#utility.yul\":17040:17231   */\n    tag_169:\n        /* \"#utility.yul\":17080:17083   */\n      0x00\n        /* \"#utility.yul\":17099:17119   */\n      tag_403\n        /* \"#utility.yul\":17117:17118   */\n      dup3\n        /* \"#utility.yul\":17099:17119   */\n      tag_191\n      jump\t// in\n    tag_403:\n        /* \"#utility.yul\":17094:17119   */\n      swap2\n      pop\n        /* \"#utility.yul\":17133:17153   */\n      tag_404\n        /* \"#utility.yul\":17151:17152   */\n      dup4\n        /* \"#utility.yul\":17133:17153   */\n      tag_191\n      jump\t// in\n    tag_404:\n        /* \"#utility.yul\":17128:17153   */\n      swap3\n      pop\n        /* \"#utility.yul\":17176:17177   */\n      dup3\n        /* \"#utility.yul\":17173:17174   */\n      dup3\n        /* \"#utility.yul\":17169:17178   */\n      add\n        /* \"#utility.yul\":17162:17178   */\n      swap1\n      pop\n        /* \"#utility.yul\":17197:17200   */\n      dup1\n        /* \"#utility.yul\":17194:17195   */\n      dup3\n        /* \"#utility.yul\":17191:17201   */\n      gt\n        /* \"#utility.yul\":17188:17224   */\n      iszero\n      tag_405\n      jumpi\n        /* \"#utility.yul\":17204:17222   */\n      tag_406\n      tag_207\n      jump\t// in\n    tag_406:\n        /* \"#utility.yul\":17188:17224   */\n    tag_405:\n        /* \"#utility.yul\":17040:17231   */\n      swap3\n      swap2\n      pop\n      pop\n      jump\t// out\n        /* \"#utility.yul\":17237:17384   */\n    tag_220:\n        /* \"#utility.yul\":17338:17349   */\n      0x00\n        /* \"#utility.yul\":17375:17378   */\n      dup2\n        /* \"#utility.yul\":17360:17378   */\n      swap1\n      pop\n        /* \"#utility.yul\":17237:17384   */\n      swap3\n      swap2\n      pop\n      pop\n      jump\t// out\n        /* \"#utility.yul\":17390:17534   */\n    tag_221:\n        /* \"#utility.yul\":17442:17446   */\n      0x00\n        /* \"#utility.yul\":17465:17468   */\n      dup2\n        /* \"#utility.yul\":17457:17468   */\n      swap1\n      pop\n        /* \"#utility.yul\":17488:17491   */\n      dup2\n        /* \"#utility.yul\":17485:17486   */\n      0x00\n        /* \"#utility.yul\":17478:17492   */\n      mstore\n        /* \"#utility.yul\":17522:17526   */\n      0x20\n        /* \"#utility.yul\":17519:17520   */\n      0x00\n        /* \"#utility.yul\":17509:17527   */\n      keccak256\n        /* \"#utility.yul\":17501:17527   */\n      swap1\n      pop\n        /* \"#utility.yul\":17390:17534   */\n      swap2\n      swap1\n      pop\n      jump\t// out\n        /* \"#utility.yul\":17562:18440   */\n    tag_222:\n        /* \"#utility.yul\":17667:17670   */\n      0x00\n        /* \"#utility.yul\":17704:17709   */\n      dup2\n        /* \"#utility.yul\":17698:17710   */\n      sload\n        /* \"#utility.yul\":17733:17769   */\n      tag_410\n        /* \"#utility.yul\":17759:17768   */\n      dup2\n        /* \"#utility.yul\":17733:17769   */\n      tag_110\n      jump\t// in\n    tag_410:\n        /* \"#utility.yul\":17785:17873   */\n      tag_411\n        /* \"#utility.yul\":17866:17872   */\n      dup2\n        /* \"#utility.yul\":17861:17864   */\n      dup7\n        /* \"#utility.yul\":17785:17873   */\n      tag_220\n      jump\t// in\n    tag_411:\n        /* \"#utility.yul\":17778:17873   */\n      swap5\n      pop\n        /* \"#utility.yul\":17904:17905   */\n      0x01\n        /* \"#utility.yul\":17893:17902   */\n      dup3\n        /* \"#utility.yul\":17889:17906   */\n      and\n        /* \"#utility.yul\":17920:17921   */\n      0x00\n        /* \"#utility.yul\":17915:18081   */\n      dup2\n      eq\n      tag_413\n      jumpi\n        /* \"#utility.yul\":18095:18096   */\n      0x01\n        /* \"#utility.yul\":18090:18434   */\n      dup2\n      eq\n      tag_414\n      jumpi\n        /* \"#utility.yul\":17882:18434   */\n      jump(tag_412)\n        /* \"#utility.yul\":17915:18081   */\n    tag_413:\n        /* \"#utility.yul\":17999:18003   */\n      0xff\n        /* \"#utility.yul\":17995:18004   */\n      not\n        /* \"#utility.yul\":17984:17993   */\n      dup4\n        /* \"#utility.yul\":17980:18005   */\n      and\n        /* \"#utility.yul\":17975:17978   */\n      dup7\n        /* \"#utility.yul\":17968:18006   */\n      mstore\n        /* \"#utility.yul\":18061:18067   */\n      dup2\n        /* \"#utility.yul\":18054:18068   */\n      iszero\n        /* \"#utility.yul\":18047:18069   */\n      iszero\n        /* \"#utility.yul\":18039:18045   */\n      dup3\n        /* \"#utility.yul\":18035:18070   */\n      mul\n        /* \"#utility.yul\":18030:18033   */\n      dup7\n        /* \"#utility.yul\":18026:18071   */\n      add\n        /* \"#utility.yul\":18019:18071   */\n      swap4\n      pop\n        /* \"#utility.yul\":17915:18081   */\n      jump(tag_412)\n        /* \"#utility.yul\":18090:18434   */\n    tag_414:\n        /* \"#utility.yul\":18157:18198   */\n      tag_415\n        /* \"#utility.yul\":18192:18197   */\n      dup6\n        /* \"#utility.yul\":18157:18198   */\n      tag_221\n      jump\t// in\n    tag_415:\n        /* \"#utility.yul\":18220:18221   */\n      0x00\n        /* \"#utility.yul\":18234:18388   */\n    tag_416:\n        /* \"#utility.yul\":18248:18254   */\n      dup4\n        /* \"#utility.yul\":18245:18246   */\n      dup2\n        /* \"#utility.yul\":18242:18255   */\n      lt\n        /* \"#utility.yul\":18234:18388   */\n      iszero\n      tag_418\n      jumpi\n        /* \"#utility.yul\":18322:18329   */\n      dup2\n        /* \"#utility.yul\":18316:18330   */\n      sload\n        /* \"#utility.yul\":18312:18313   */\n      dup2\n        /* \"#utility.yul\":18307:18310   */\n      dup10\n        /* \"#utility.yul\":18303:18314   */\n      add\n        /* \"#utility.yul\":18296:18331   */\n      mstore\n        /* \"#utility.yul\":18372:18373   */\n      0x01\n        /* \"#utility.yul\":18363:18370   */\n      dup3\n        /* \"#utility.yul\":18359:18374   */\n      add\n        /* \"#utility.yul\":18348:18374   */\n      swap2\n      pop\n        /* \"#utility.yul\":18270:18274   */\n      0x20\n        /* \"#utility.yul\":18267:18268   */\n      dup2\n        /* \"#utility.yul\":18263:18275   */\n      add\n        /* \"#utility.yul\":18258:18275   */\n      swap1\n      pop\n        /* \"#utility.yul\":18234:18388   */\n      jump(tag_416)\n    tag_418:\n        /* \"#utility.yul\":18417:18423   */\n      dup4\n        /* \"#utility.yul\":18412:18415   */\n      dup9\n        /* \"#utility.yul\":18408:18424   */\n      add\n        /* \"#utility.yul\":18401:18424   */\n      swap6\n      pop\n        /* \"#utility.yul\":18097:18434   */\n      pop\n      pop\n        /* \"#utility.yul\":17882:18434   */\n    tag_412:\n      pop\n        /* \"#utility.yul\":17671:18440   */\n      pop\n      pop\n        /* \"#utility.yul\":17562:18440   */\n      swap3\n      swap2\n      pop\n      pop\n      jump\t// out\n        /* \"#utility.yul\":18446:18719   */\n    tag_176:\n        /* \"#utility.yul\":18577:18580   */\n      0x00\n        /* \"#utility.yul\":18599:18693   */\n      tag_420\n        /* \"#utility.yul\":18689:18692   */\n      dup3\n        /* \"#utility.yul\":18680:18686   */\n      dup5\n        /* \"#utility.yul\":18599:18693   */\n      tag_222\n      jump\t// in\n    tag_420:\n        /* \"#utility.yul\":18592:18693   */\n      swap2\n      pop\n        /* \"#utility.yul\":18710:18713   */\n      dup2\n        /* \"#utility.yul\":18703:18713   */\n      swap1\n      pop\n        /* \"#utility.yul\":18446:18719   */\n      swap3\n      swap2\n      pop\n      pop\n      jump\t// out\n        /* \"#utility.yul\":18725:19389   */\n    tag_178:\n        /* \"#utility.yul\":18930:18934   */\n      0x00\n        /* \"#utility.yul\":18968:18971   */\n      0xa0\n        /* \"#utility.yul\":18957:18966   */\n      dup3\n        /* \"#utility.yul\":18953:18972   */\n      add\n        /* \"#utility.yul\":18945:18972   */\n      swap1\n      pop\n        /* \"#utility.yul\":18982:19053   */\n      tag_422\n        /* \"#utility.yul\":19050:19051   */\n      0x00\n        /* \"#utility.yul\":19039:19048   */\n      dup4\n        /* \"#utility.yul\":19035:19052   */\n      add\n        /* \"#utility.yul\":19026:19032   */\n      dup9\n        /* \"#utility.yul\":18982:19053   */\n      tag_200\n      jump\t// in\n    tag_422:\n        /* \"#utility.yul\":19063:19135   */\n      tag_423\n        /* \"#utility.yul\":19131:19133   */\n      0x20\n        /* \"#utility.yul\":19120:19129   */\n      dup4\n        /* \"#utility.yul\":19116:19134   */\n      add\n        /* \"#utility.yul\":19107:19113   */\n      dup8\n        /* \"#utility.yul\":19063:19135   */\n      tag_200\n      jump\t// in\n    tag_423:\n        /* \"#utility.yul\":19145:19217   */\n      tag_424\n        /* \"#utility.yul\":19213:19215   */\n      0x40\n        /* \"#utility.yul\":19202:19211   */\n      dup4\n        /* \"#utility.yul\":19198:19216   */\n      add\n        /* \"#utility.yul\":19189:19195   */\n      dup7\n        /* \"#utility.yul\":19145:19217   */\n      tag_200\n      jump\t// in\n    tag_424:\n        /* \"#utility.yul\":19227:19299   */\n      tag_425\n        /* \"#utility.yul\":19295:19297   */\n      0x60\n        /* \"#utility.yul\":19284:19293   */\n      dup4\n        /* \"#utility.yul\":19280:19298   */\n      add\n        /* \"#utility.yul\":19271:19277   */\n      dup6\n        /* \"#utility.yul\":19227:19299   */\n      tag_196\n      jump\t// in\n    tag_425:\n        /* \"#utility.yul\":19309:19382   */\n      tag_426\n        /* \"#utility.yul\":19377:19380   */\n      0x80\n        /* \"#utility.yul\":19366:19375   */\n      dup4\n        /* \"#utility.yul\":19362:19381   */\n      add\n        /* \"#utility.yul\":19353:19359   */\n      dup5\n        /* \"#utility.yul\":19309:19382   */\n      tag_201\n      jump\t// in\n    tag_426:\n        /* \"#utility.yul\":18725:19389   */\n      swap7\n      swap6\n      pop\n      pop\n      pop\n      pop\n      pop\n      pop\n      jump\t// out\n\n    auxdata: 0xa26469706673582212200a722a499baaff8133cf94df3134e08d734702aa4631350b07db8f500af8980664736f6c634300081d0033\n}\n",
				"bytecode": {
					"linkReferences": {},
					"object": "60e060405234801561000f575f5ffd5b506040516125a83803806125a8833981810160405281019061003191906103ce565b828282825f90816100429190610666565b5081600190816100529190610666565b508060ff1660808160ff16815250504660a081815250506100776100f660201b60201c565b60c081815250505050503360065f6101000a81548173ffffffffffffffffffffffffffffffffffffffff021916908373ffffffffffffffffffffffffffffffffffffffff1602179055506100ee33608051600a6100d49190610891565b6305f5e1006100e391906108db565b61018060201b60201c565b505050610ad1565b5f7f8b73c3c69bb8fe3d512ecc4cf759cc79239f7b179b0ffacaa9a75d522b39400f5f60405161012691906109b8565b60405180910390207fc89efdaa54c0f20c7adf612882df0950f5a951637e0307cdcb4c672f298b8bc64630604051602001610165959493929190610a34565b60405160208183030381529060405280519060200120905090565b8060025f8282546101919190610a85565b925050819055508060035f8473ffffffffffffffffffffffffffffffffffffffff1673ffffffffffffffffffffffffffffffffffffffff1681526020019081526020015f205f82825401925050819055508173ffffffffffffffffffffffffffffffffffffffff165f73ffffffffffffffffffffffffffffffffffffffff167fddf252ad1be2c89b69c2b068fc378daa952ba7f163c4a11628f55a4df523b3ef8360405161023f9190610ab8565b60405180910390a35050565b5f604051905090565b5f5ffd5b5f5ffd5b5f5ffd5b5f5ffd5b5f601f19601f8301169050919050565b7f4e487b71000000000000000000000000000000000000000000000000000000005f52604160045260245ffd5b6102aa82610264565b810181811067ffffffffffffffff821117156102c9576102c8610274565b5b80604052505050565b5f6102db61024b565b90506102e782826102a1565b919050565b5f67ffffffffffffffff82111561030657610305610274565b5b61030f82610264565b9050602081019050919050565b8281835e5f83830152505050565b5f61033c610337846102ec565b6102d2565b90508281526020810184848401111561035857610357610260565b5b61036384828561031c565b509392505050565b5f82601f83011261037f5761037e61025c565b5b815161038f84826020860161032a565b91505092915050565b5f60ff82169050919050565b6103ad81610398565b81146103b7575f5ffd5b50565b5f815190506103c8816103a4565b92915050565b5f5f5f606084860312156103e5576103e4610254565b5b5f84015167ffffffffffffffff81111561040257610401610258565b5b61040e8682870161036b565b935050602084015167ffffffffffffffff81111561042f5761042e610258565b5b61043b8682870161036b565b925050604061044c868287016103ba565b9150509250925092565b5f81519050919050565b7f4e487b71000000000000000000000000000000000000000000000000000000005f52602260045260245ffd5b5f60028204905060018216806104a457607f821691505b6020821081036104b7576104b6610460565b5b50919050565b5f819050815f5260205f209050919050565b5f6020601f8301049050919050565b5f82821b905092915050565b5f600883026105197fffffffffffffffffffffffffffffffffffffffffffffffffffffffffffffffff826104de565b61052386836104de565b95508019841693508086168417925050509392505050565b5f819050919050565b5f819050919050565b5f61056761056261055d8461053b565b610544565b61053b565b9050919050565b5f819050919050565b6105808361054d565b61059461058c8261056e565b8484546104ea565b825550505050565b5f5f905090565b6105ab61059c565b6105b6818484610577565b505050565b5b818110156105d9576105ce5f826105a3565b6001810190506105bc565b5050565b601f82111561061e576105ef816104bd565b6105f8846104cf565b81016020851015610607578190505b61061b610613856104cf565b8301826105bb565b50505b505050565b5f82821c905092915050565b5f61063e5f1984600802610623565b1980831691505092915050565b5f610656838361062f565b9150826002028217905092915050565b61066f82610456565b67ffffffffffffffff81111561068857610687610274565b5b610692825461048d565b61069d8282856105dd565b5f60209050601f8311600181146106ce575f84156106bc578287015190505b6106c6858261064b565b86555061072d565b601f1984166106dc866104bd565b5f5b82811015610703578489015182556001820191506020850194506020810190506106de565b86831015610720578489015161071c601f89168261062f565b8355505b6001600288020188555050505b505050505050565b7f4e487b71000000000000000000000000000000000000000000000000000000005f52601160045260245ffd5b5f8160011c9050919050565b5f5f8291508390505b60018511156107b75780860481111561079357610792610735565b5b60018516156107a25780820291505b80810290506107b085610762565b9450610777565b94509492505050565b5f826107cf576001905061088a565b816107dc575f905061088a565b81600181146107f257600281146107fc5761082b565b600191505061088a565b60ff84111561080e5761080d610735565b5b8360020a91508482111561082557610824610735565b5b5061088a565b5060208310610133831016604e8410600b84101617156108605782820a90508381111561085b5761085a610735565b5b61088a565b61086d848484600161076e565b9250905081840481111561088457610883610735565b5b81810290505b9392505050565b5f61089b8261053b565b91506108a683610398565b92506108d37fffffffffffffffffffffffffffffffffffffffffffffffffffffffffffffffff84846107c0565b905092915050565b5f6108e58261053b565b91506108f08361053b565b92508282026108fe8161053b565b9150828204841483151761091557610914610735565b5b5092915050565b5f81905092915050565b5f819050815f5260205f209050919050565b5f81546109448161048d565b61094e818661091c565b9450600182165f8114610968576001811461097d576109af565b60ff19831686528115158202860193506109af565b61098685610926565b5f5b838110156109a757815481890152600182019150602081019050610988565b838801955050505b50505092915050565b5f6109c38284610938565b915081905092915050565b5f819050919050565b6109e0816109ce565b82525050565b6109ef8161053b565b82525050565b5f73ffffffffffffffffffffffffffffffffffffffff82169050919050565b5f610a1e826109f5565b9050919050565b610a2e81610a14565b82525050565b5f60a082019050610a475f8301886109d7565b610a5460208301876109d7565b610a6160408301866109d7565b610a6e60608301856109e6565b610a7b6080830184610a25565b9695505050505050565b5f610a8f8261053b565b9150610a9a8361053b565b9250828201905080821115610ab257610ab1610735565b5b92915050565b5f602082019050610acb5f8301846109e6565b92915050565b60805160a05160c051611aa6610b025f395f6108fc01525f6108c801525f81816108a301526109370152611aa65ff3fe6080604052600436106100f6575f3560e01c806370a0823111610089578063a9059cbb11610058578063a9059cbb14610345578063d0e30db014610381578063d505accf1461038b578063dd62ed3e146103b357610105565b806370a08231146102795780637ecebe00146102b55780638da5cb5b146102f157806395d89b411461031b57610105565b80632e1a7d4d116100c55780632e1a7d4d146101d5578063313ce567146101fd5780633644e5151461022757806340c10f191461025157610105565b806306fdde0314610109578063095ea7b31461013357806318160ddd1461016f57806323b872dd1461019957610105565b36610105576101036103ef565b005b5f5ffd5b348015610114575f5ffd5b5061011d610449565b60405161012a91906110fb565b60405180910390f35b34801561013e575f5ffd5b50610159600480360381019061015491906111ac565b6104d4565b6040516101669190611204565b60405180910390f35b34801561017a575f5ffd5b506101836105c1565b604051610190919061122c565b60405180910390f35b3480156101a4575f5ffd5b506101bf60048036038101906101ba9190611245565b6105c7565b6040516101cc9190611204565b60405180910390f35b3480156101e0575f5ffd5b506101fb60048036038101906101f69190611295565b610802565b005b348015610208575f5ffd5b506102116108a1565b60405161021e91906112db565b60405180910390f35b348015610232575f5ffd5b5061023b6108c5565b604051610248919061130c565b60405180910390f35b34801561025c575f5ffd5b50610277600480360381019061027291906111ac565b610921565b005b348015610284575f5ffd5b5061029f600480360381019061029a9190611325565b610976565b6040516102ac919061122c565b60405180910390f35b3480156102c0575f5ffd5b506102db60048036038101906102d69190611325565b61098b565b6040516102e8919061122c565b60405180910390f35b3480156102fc575f5ffd5b506103056109a0565b604051610312919061135f565b60405180910390f35b348015610326575f5ffd5b5061032f6109c5565b60405161033c91906110fb565b60405180910390f35b348015610350575f5ffd5b5061036b600480360381019061036691906111ac565b610a51565b6040516103789190611204565b60405180910390f35b6103896103ef565b005b348015610396575f5ffd5b506103b160048036038101906103ac91906113cc565b610b5e565b005b3480156103be575f5ffd5b506103d960048036038101906103d49190611469565b610e4b565b6040516103e6919061122c565b60405180910390f35b3373ffffffffffffffffffffffffffffffffffffffff167fe1fffcc4923d04b559f4d29a8bfc6cda04eb5b0d3c460751c2402c5c5cc9109c34604051610435919061122c565b60405180910390a26104473334610e6b565b565b5f8054610455906114d4565b80601f0160208091040260200160405190810160405280929190818152602001828054610481906114d4565b80156104cc5780601f106104a3576101008083540402835291602001916104cc565b820191905f5260205f20905b8154815290600101906020018083116104af57829003601f168201915b505050505081565b5f8160045f3373ffffffffffffffffffffffffffffffffffffffff1673ffffffffffffffffffffffffffffffffffffffff1681526020019081526020015f205f8573ffffffffffffffffffffffffffffffffffffffff1673ffffffffffffffffffffffffffffffffffffffff1681526020019081526020015f20819055508273ffffffffffffffffffffffffffffffffffffffff163373ffffffffffffffffffffffffffffffffffffffff167f8c5be1e5ebec7d5bd14f71427d1e84f3dd0314c0f7b2291e5b200ac8c7c3b925846040516105af919061122c565b60405180910390a36001905092915050565b60025481565b5f5f60045f8673ffffffffffffffffffffffffffffffffffffffff1673ffffffffffffffffffffffffffffffffffffffff1681526020019081526020015f205f3373ffffffffffffffffffffffffffffffffffffffff1673ffffffffffffffffffffffffffffffffffffffff1681526020019081526020015f205490507fffffffffffffffffffffffffffffffffffffffffffffffffffffffffffffffff81146106f45782816106779190611531565b60045f8773ffffffffffffffffffffffffffffffffffffffff1673ffffffffffffffffffffffffffffffffffffffff1681526020019081526020015f205f3373ffffffffffffffffffffffffffffffffffffffff1673ffffffffffffffffffffffffffffffffffffffff1681526020019081526020015f20819055505b8260035f8773ffffffffffffffffffffffffffffffffffffffff1673ffffffffffffffffffffffffffffffffffffffff1681526020019081526020015f205f8282546107409190611531565b925050819055508260035f8673ffffffffffffffffffffffffffffffffffffffff1673ffffffffffffffffffffffffffffffffffffffff1681526020019081526020015f205f82825401925050819055508373ffffffffffffffffffffffffffffffffffffffff168573ffffffffffffffffffffffffffffffffffffffff167fddf252ad1be2c89b69c2b068fc378daa952ba7f163c4a11628f55a4df523b3ef856040516107ee919061122c565b60405180910390a360019150509392505050565b61080c3382610f36565b3373ffffffffffffffffffffffffffffffffffffffff167f7fcf532c15f0a6db0bd6d0e038bea71d30d808c7d98cb3bf7268a95bf5081b6582604051610852919061122c565b60405180910390a23373ffffffffffffffffffffffffffffffffffffffff166108fc8290811502906040515f60405180830381858888f1935050505015801561089d573d5f5f3e3d5ffd5b5050565b7f000000000000000000000000000000000000000000000000000000000000000081565b5f7f000000000000000000000000000000000000000000000000000000000000000046146108fa576108f5611001565b61091c565b7f00000000000000000000000000000000000000000000000000000000000000005b905090565b6305f5e100811115610931575f5ffd5b610972827f0000000000000000000000000000000000000000000000000000000000000000600a6109629190611693565b8361096d91906116dd565b610e6b565b5050565b6003602052805f5260405f205f915090505481565b6005602052805f5260405f205f915090505481565b60065f9054906101000a900473ffffffffffffffffffffffffffffffffffffffff1681565b600180546109d2906114d4565b80601f01602080910402602001604051908101604052809291908181526020018280546109fe906114d4565b8015610a495780601f10610a2057610100808354040283529160200191610a49565b820191905f5260205f20905b815481529060010190602001808311610a2c57829003601f168201915b505050505081565b5f8160035f3373ffffffffffffffffffffffffffffffffffffffff1673ffffffffffffffffffffffffffffffffffffffff1681526020019081526020015f205f828254610a9e9190611531565b925050819055508160035f8573ffffffffffffffffffffffffffffffffffffffff1673ffffffffffffffffffffffffffffffffffffffff1681526020019081526020015f205f82825401925050819055508273ffffffffffffffffffffffffffffffffffffffff163373ffffffffffffffffffffffffffffffffffffffff167fddf252ad1be2c89b69c2b068fc378daa952ba7f163c4a11628f55a4df523b3ef84604051610b4c919061122c565b60405180910390a36001905092915050565b42841015610ba1576040517f08c379a0000000000000000000000000000000000000000000000000000000008152600401610b9890611768565b60405180910390fd5b5f6001610bac6108c5565b7f6e71edae12b1b97f4d1f60370fef10105fa2faae0126114a169c64845d6126c98a8a8a60055f8f73ffffffffffffffffffffffffffffffffffffffff1673ffffffffffffffffffffffffffffffffffffffff1681526020019081526020015f205f815480929190600101919050558b604051602001610c3196959493929190611786565b60405160208183030381529060405280519060200120604051602001610c58929190611859565b604051602081830303815290604052805190602001208585856040515f8152602001604052604051610c8d949392919061188f565b6020604051602081039080840390855afa158015610cad573d5f5f3e3d5ffd5b5050506020604051035190505f73ffffffffffffffffffffffffffffffffffffffff168173ffffffffffffffffffffffffffffffffffffffff1614158015610d2057508773ffffffffffffffffffffffffffffffffffffffff168173ffffffffffffffffffffffffffffffffffffffff16145b610d5f576040517f08c379a0000000000000000000000000000000000000000000000000000000008152600401610d569061191c565b60405180910390fd5b8560045f8373ffffffffffffffffffffffffffffffffffffffff1673ffffffffffffffffffffffffffffffffffffffff1681526020019081526020015f205f8973ffffffffffffffffffffffffffffffffffffffff1673ffffffffffffffffffffffffffffffffffffffff1681526020019081526020015f2081905550508573ffffffffffffffffffffffffffffffffffffffff168773ffffffffffffffffffffffffffffffffffffffff167f8c5be1e5ebec7d5bd14f71427d1e84f3dd0314c0f7b2291e5b200ac8c7c3b92587604051610e3a919061122c565b60405180910390a350505050505050565b6004602052815f5260405f20602052805f5260405f205f91509150505481565b8060025f828254610e7c919061193a565b925050819055508060035f8473ffffffffffffffffffffffffffffffffffffffff1673ffffffffffffffffffffffffffffffffffffffff1681526020019081526020015f205f82825401925050819055508173ffffffffffffffffffffffffffffffffffffffff165f73ffffffffffffffffffffffffffffffffffffffff167fddf252ad1be2c89b69c2b068fc378daa952ba7f163c4a11628f55a4df523b3ef83604051610f2a919061122c565b60405180910390a35050565b8060035f8473ffffffffffffffffffffffffffffffffffffffff1673ffffffffffffffffffffffffffffffffffffffff1681526020019081526020015f205f828254610f829190611531565b925050819055508060025f82825403925050819055505f73ffffffffffffffffffffffffffffffffffffffff168273ffffffffffffffffffffffffffffffffffffffff167fddf252ad1be2c89b69c2b068fc378daa952ba7f163c4a11628f55a4df523b3ef83604051610ff5919061122c565b60405180910390a35050565b5f7f8b73c3c69bb8fe3d512ecc4cf759cc79239f7b179b0ffacaa9a75d522b39400f5f6040516110319190611a09565b60405180910390207fc89efdaa54c0f20c7adf612882df0950f5a951637e0307cdcb4c672f298b8bc64630604051602001611070959493929190611a1f565b60405160208183030381529060405280519060200120905090565b5f81519050919050565b5f82825260208201905092915050565b8281835e5f83830152505050565b5f601f19601f8301169050919050565b5f6110cd8261108b565b6110d78185611095565b93506110e78185602086016110a5565b6110f0816110b3565b840191505092915050565b5f6020820190508181035f83015261111381846110c3565b905092915050565b5f5ffd5b5f73ffffffffffffffffffffffffffffffffffffffff82169050919050565b5f6111488261111f565b9050919050565b6111588161113e565b8114611162575f5ffd5b50565b5f813590506111738161114f565b92915050565b5f819050919050565b61118b81611179565b8114611195575f5ffd5b50565b5f813590506111a681611182565b92915050565b5f5f604083850312156111c2576111c161111b565b5b5f6111cf85828601611165565b92505060206111e085828601611198565b9150509250929050565b5f8115159050919050565b6111fe816111ea565b82525050565b5f6020820190506112175f8301846111f5565b92915050565b61122681611179565b82525050565b5f60208201905061123f5f83018461121d565b92915050565b5f5f5f6060848603121561125c5761125b61111b565b5b5f61126986828701611165565b935050602061127a86828701611165565b925050604061128b86828701611198565b9150509250925092565b5f602082840312156112aa576112a961111b565b5b5f6112b784828501611198565b91505092915050565b5f60ff82169050919050565b6112d5816112c0565b82525050565b5f6020820190506112ee5f8301846112cc565b92915050565b5f819050919050565b611306816112f4565b82525050565b5f60208201905061131f5f8301846112fd565b92915050565b5f6020828403121561133a5761133961111b565b5b5f61134784828501611165565b91505092915050565b6113598161113e565b82525050565b5f6020820190506113725f830184611350565b92915050565b611381816112c0565b811461138b575f5ffd5b50565b5f8135905061139c81611378565b92915050565b6113ab816112f4565b81146113b5575f5ffd5b50565b5f813590506113c6816113a2565b92915050565b5f5f5f5f5f5f5f60e0888a0312156113e7576113e661111b565b5b5f6113f48a828b01611165565b97505060206114058a828b01611165565b96505060406114168a828b01611198565b95505060606114278a828b01611198565b94505060806114388a828b0161138e565b93505060a06114498a828b016113b8565b92505060c061145a8a828b016113b8565b91505092959891949750929550565b5f5f6040838503121561147f5761147e61111b565b5b5f61148c85828601611165565b925050602061149d85828601611165565b9150509250929050565b7f4e487b71000000000000000000000000000000000000000000000000000000005f52602260045260245ffd5b5f60028204905060018216806114eb57607f821691505b6020821081036114fe576114fd6114a7565b5b50919050565b7f4e487b71000000000000000000000000000000000000000000000000000000005f52601160045260245ffd5b5f61153b82611179565b915061154683611179565b925082820390508181111561155e5761155d611504565b5b92915050565b5f8160011c9050919050565b5f5f8291508390505b60018511156115b95780860481111561159557611594611504565b5b60018516156115a45780820291505b80810290506115b285611564565b9450611579565b94509492505050565b5f826115d1576001905061168c565b816115de575f905061168c565b81600181146115f457600281146115fe5761162d565b600191505061168c565b60ff8411156116105761160f611504565b5b8360020a91508482111561162757611626611504565b5b5061168c565b5060208310610133831016604e8410600b84101617156116625782820a90508381111561165d5761165c611504565b5b61168c565b61166f8484846001611570565b9250905081840481111561168657611685611504565b5b81810290505b9392505050565b5f61169d82611179565b91506116a8836112c0565b92506116d57fffffffffffffffffffffffffffffffffffffffffffffffffffffffffffffffff84846115c2565b905092915050565b5f6116e782611179565b91506116f283611179565b925082820261170081611179565b9150828204841483151761171757611716611504565b5b5092915050565b7f5045524d49545f444541444c494e455f455850495245440000000000000000005f82015250565b5f611752601783611095565b915061175d8261171e565b602082019050919050565b5f6020820190508181035f83015261177f81611746565b9050919050565b5f60c0820190506117995f8301896112fd565b6117a66020830188611350565b6117b36040830187611350565b6117c0606083018661121d565b6117cd608083018561121d565b6117da60a083018461121d565b979650505050505050565b5f81905092915050565b7f19010000000000000000000000000000000000000000000000000000000000005f82015250565b5f6118236002836117e5565b915061182e826117ef565b600282019050919050565b5f819050919050565b61185361184e826112f4565b611839565b82525050565b5f61186382611817565b915061186f8285611842565b60208201915061187f8284611842565b6020820191508190509392505050565b5f6080820190506118a25f8301876112fd565b6118af60208301866112cc565b6118bc60408301856112fd565b6118c960608301846112fd565b95945050505050565b7f494e56414c49445f5349474e45520000000000000000000000000000000000005f82015250565b5f611906600e83611095565b9150611911826118d2565b602082019050919050565b5f6020820190508181035f830152611933816118fa565b9050919050565b5f61194482611179565b915061194f83611179565b925082820190508082111561196757611966611504565b5b92915050565b5f81905092915050565b5f819050815f5260205f209050919050565b5f8154611995816114d4565b61199f818661196d565b9450600182165f81146119b957600181146119ce57611a00565b60ff1983168652811515820286019350611a00565b6119d785611977565b5f5b838110156119f8578154818901526001820191506020810190506119d9565b838801955050505b50505092915050565b5f611a148284611989565b915081905092915050565b5f60a082019050611a325f8301886112fd565b611a3f60208301876112fd565b611a4c60408301866112fd565b611a59606083018561121d565b611a666080830184611350565b969550505050505056fea26469706673582212200a722a499baaff8133cf94df3134e08d734702aa4631350b07db8f500af8980664736f6c634300081d0033",
					"opcodes": "PUSH1 0xE0 PUSH1 0x40 MSTORE CALLVALUE DUP1 ISZERO PUSH2 0xF JUMPI PUSH0 PUSH0 REVERT JUMPDEST POP PUSH1 0x40 MLOAD PUSH2 0x25A8 CODESIZE SUB DUP1 PUSH2 0x25A8 DUP4 CODECOPY DUP2 DUP2 ADD PUSH1 0x40 MSTORE DUP2 ADD SWAP1 PUSH2 0x31 SWAP2 SWAP1 PUSH2 0x3CE JUMP JUMPDEST DUP3 DUP3 DUP3 DUP3 PUSH0 SWAP1 DUP2 PUSH2 0x42 SWAP2 SWAP1 PUSH2 0x666 JUMP JUMPDEST POP DUP2 PUSH1 0x1 SWAP1 DUP2 PUSH2 0x52 SWAP2 SWAP1 PUSH2 0x666 JUMP JUMPDEST POP DUP1 PUSH1 0xFF AND PUSH1 0x80 DUP2 PUSH1 0xFF AND DUP2 MSTORE POP POP CHAINID PUSH1 0xA0 DUP2 DUP2 MSTORE POP POP PUSH2 0x77 PUSH2 0xF6 PUSH1 0x20 SHL PUSH1 0x20 SHR JUMP JUMPDEST PUSH1 0xC0 DUP2 DUP2 MSTORE POP POP POP POP POP CALLER PUSH1 0x6 PUSH0 PUSH2 0x100 EXP DUP2 SLOAD DUP2 PUSH20 0xFFFFFFFFFFFFFFFFFFFFFFFFFFFFFFFFFFFFFFFF MUL NOT AND SWAP1 DUP4 PUSH20 0xFFFFFFFFFFFFFFFFFFFFFFFFFFFFFFFFFFFFFFFF AND MUL OR SWAP1 SSTORE POP PUSH2 0xEE CALLER PUSH1 0x80 MLOAD PUSH1 0xA PUSH2 0xD4 SWAP2 SWAP1 PUSH2 0x891 JUMP JUMPDEST PUSH4 0x5F5E100 PUSH2 0xE3 SWAP2 SWAP1 PUSH2 0x8DB JUMP JUMPDEST PUSH2 0x180 PUSH1 0x20 SHL PUSH1 0x20 SHR JUMP JUMPDEST POP POP POP PUSH2 0xAD1 JUMP JUMPDEST PUSH0 PUSH32 0x8B73C3C69BB8FE3D512ECC4CF759CC79239F7B179B0FFACAA9A75D522B39400F PUSH0 PUSH1 0x40 MLOAD PUSH2 0x126 SWAP2 SWAP1 PUSH2 0x9B8 JUMP JUMPDEST PUSH1 0x40 MLOAD DUP1 SWAP2 SUB SWAP1 KECCAK256 PUSH32 0xC89EFDAA54C0F20C7ADF612882DF0950F5A951637E0307CDCB4C672F298B8BC6 CHAINID ADDRESS PUSH1 0x40 MLOAD PUSH1 0x20 ADD PUSH2 0x165 SWAP6 SWAP5 SWAP4 SWAP3 SWAP2 SWAP1 PUSH2 0xA34 JUMP JUMPDEST PUSH1 0x40 MLOAD PUSH1 0x20 DUP2 DUP4 SUB SUB DUP2 MSTORE SWAP1 PUSH1 0x40 MSTORE DUP1 MLOAD SWAP1 PUSH1 0x20 ADD KECCAK256 SWAP1 POP SWAP1 JUMP JUMPDEST DUP1 PUSH1 0x2 PUSH0 DUP3 DUP3 SLOAD PUSH2 0x191 SWAP2 SWAP1 PUSH2 0xA85 JUMP JUMPDEST SWAP3 POP POP DUP2 SWAP1 SSTORE POP DUP1 PUSH1 0x3 PUSH0 DUP5 PUSH20 0xFFFFFFFFFFFFFFFFFFFFFFFFFFFFFFFFFFFFFFFF AND PUSH20 0xFFFFFFFFFFFFFFFFFFFFFFFFFFFFFFFFFFFFFFFF AND DUP2 MSTORE PUSH1 0x20 ADD SWAP1 DUP2 MSTORE PUSH1 0x20 ADD PUSH0 KECCAK256 PUSH0 DUP3 DUP3 SLOAD ADD SWAP3 POP POP DUP2 SWAP1 SSTORE POP DUP2 PUSH20 0xFFFFFFFFFFFFFFFFFFFFFFFFFFFFFFFFFFFFFFFF AND PUSH0 PUSH20 0xFFFFFFFFFFFFFFFFFFFFFFFFFFFFFFFFFFFFFFFF AND PUSH32 0xDDF252AD1BE2C89B69C2B068FC378DAA952BA7F163C4A11628F55A4DF523B3EF DUP4 PUSH1 0x40 MLOAD PUSH2 0x23F SWAP2 SWAP1 PUSH2 0xAB8 JUMP JUMPDEST PUSH1 0x40 MLOAD DUP1 SWAP2 SUB SWAP1 LOG3 POP POP JUMP JUMPDEST PUSH0 PUSH1 0x40 MLOAD SWAP1 POP SWAP1 JUMP JUMPDEST PUSH0 PUSH0 REVERT JUMPDEST PUSH0 PUSH0 REVERT JUMPDEST PUSH0 PUSH0 REVERT JUMPDEST PUSH0 PUSH0 REVERT JUMPDEST PUSH0 PUSH1 0x1F NOT PUSH1 0x1F DUP4 ADD AND SWAP1 POP SWAP2 SWAP1 POP JUMP JUMPDEST PUSH32 0x4E487B7100000000000000000000000000000000000000000000000000000000 PUSH0 MSTORE PUSH1 0x41 PUSH1 0x4 MSTORE PUSH1 0x24 PUSH0 REVERT JUMPDEST PUSH2 0x2AA DUP3 PUSH2 0x264 JUMP JUMPDEST DUP2 ADD DUP2 DUP2 LT PUSH8 0xFFFFFFFFFFFFFFFF DUP3 GT OR ISZERO PUSH2 0x2C9 JUMPI PUSH2 0x2C8 PUSH2 0x274 JUMP JUMPDEST JUMPDEST DUP1 PUSH1 0x40 MSTORE POP POP POP JUMP JUMPDEST PUSH0 PUSH2 0x2DB PUSH2 0x24B JUMP JUMPDEST SWAP1 POP PUSH2 0x2E7 DUP3 DUP3 PUSH2 0x2A1 JUMP JUMPDEST SWAP2 SWAP1 POP JUMP JUMPDEST PUSH0 PUSH8 0xFFFFFFFFFFFFFFFF DUP3 GT ISZERO PUSH2 0x306 JUMPI PUSH2 0x305 PUSH2 0x274 JUMP JUMPDEST JUMPDEST PUSH2 0x30F DUP3 PUSH2 0x264 JUMP JUMPDEST SWAP1 POP PUSH1 0x20 DUP2 ADD SWAP1 POP SWAP2 SWAP1 POP JUMP JUMPDEST DUP3 DUP2 DUP4 MCOPY PUSH0 DUP4 DUP4 ADD MSTORE POP POP POP JUMP JUMPDEST PUSH0 PUSH2 0x33C PUSH2 0x337 DUP5 PUSH2 0x2EC JUMP JUMPDEST PUSH2 0x2D2 JUMP JUMPDEST SWAP1 POP DUP3 DUP2 MSTORE PUSH1 0x20 DUP2 ADD DUP5 DUP5 DUP5 ADD GT ISZERO PUSH2 0x358 JUMPI PUSH2 0x357 PUSH2 0x260 JUMP JUMPDEST JUMPDEST PUSH2 0x363 DUP5 DUP3 DUP6 PUSH2 0x31C JUMP JUMPDEST POP SWAP4 SWAP3 POP POP POP JUMP JUMPDEST PUSH0 DUP3 PUSH1 0x1F DUP4 ADD SLT PUSH2 0x37F JUMPI PUSH2 0x37E PUSH2 0x25C JUMP JUMPDEST JUMPDEST DUP2 MLOAD PUSH2 0x38F DUP5 DUP3 PUSH1 0x20 DUP7 ADD PUSH2 0x32A JUMP JUMPDEST SWAP2 POP POP SWAP3 SWAP2 POP POP JUMP JUMPDEST PUSH0 PUSH1 0xFF DUP3 AND SWAP1 POP SWAP2 SWAP1 POP JUMP JUMPDEST PUSH2 0x3AD DUP2 PUSH2 0x398 JUMP JUMPDEST DUP2 EQ PUSH2 0x3B7 JUMPI PUSH0 PUSH0 REVERT JUMPDEST POP JUMP JUMPDEST PUSH0 DUP2 MLOAD SWAP1 POP PUSH2 0x3C8 DUP2 PUSH2 0x3A4 JUMP JUMPDEST SWAP3 SWAP2 POP POP JUMP JUMPDEST PUSH0 PUSH0 PUSH0 PUSH1 0x60 DUP5 DUP7 SUB SLT ISZERO PUSH2 0x3E5 JUMPI PUSH2 0x3E4 PUSH2 0x254 JUMP JUMPDEST JUMPDEST PUSH0 DUP5 ADD MLOAD PUSH8 0xFFFFFFFFFFFFFFFF DUP2 GT ISZERO PUSH2 0x402 JUMPI PUSH2 0x401 PUSH2 0x258 JUMP JUMPDEST JUMPDEST PUSH2 0x40E DUP7 DUP3 DUP8 ADD PUSH2 0x36B JUMP JUMPDEST SWAP4 POP POP PUSH1 0x20 DUP5 ADD MLOAD PUSH8 0xFFFFFFFFFFFFFFFF DUP2 GT ISZERO PUSH2 0x42F JUMPI PUSH2 0x42E PUSH2 0x258 JUMP JUMPDEST JUMPDEST PUSH2 0x43B DUP7 DUP3 DUP8 ADD PUSH2 0x36B JUMP JUMPDEST SWAP3 POP POP PUSH1 0x40 PUSH2 0x44C DUP7 DUP3 DUP8 ADD PUSH2 0x3BA JUMP JUMPDEST SWAP2 POP POP SWAP3 POP SWAP3 POP SWAP3 JUMP JUMPDEST PUSH0 DUP2 MLOAD SWAP1 POP SWAP2 SWAP1 POP JUMP JUMPDEST PUSH32 0x4E487B7100000000000000000000000000000000000000000000000000000000 PUSH0 MSTORE PUSH1 0x22 PUSH1 0x4 MSTORE PUSH1 0x24 PUSH0 REVERT JUMPDEST PUSH0 PUSH1 0x2 DUP3 DIV SWAP1 POP PUSH1 0x1 DUP3 AND DUP1 PUSH2 0x4A4 JUMPI PUSH1 0x7F DUP3 AND SWAP2 POP JUMPDEST PUSH1 0x20 DUP3 LT DUP2 SUB PUSH2 0x4B7 JUMPI PUSH2 0x4B6 PUSH2 0x460 JUMP JUMPDEST JUMPDEST POP SWAP2 SWAP1 POP JUMP JUMPDEST PUSH0 DUP2 SWAP1 POP DUP2 PUSH0 MSTORE PUSH1 0x20 PUSH0 KECCAK256 SWAP1 POP SWAP2 SWAP1 POP JUMP JUMPDEST PUSH0 PUSH1 0x20 PUSH1 0x1F DUP4 ADD DIV SWAP1 POP SWAP2 SWAP1 POP JUMP JUMPDEST PUSH0 DUP3 DUP3 SHL SWAP1 POP SWAP3 SWAP2 POP POP JUMP JUMPDEST PUSH0 PUSH1 0x8 DUP4 MUL PUSH2 0x519 PUSH32 0xFFFFFFFFFFFFFFFFFFFFFFFFFFFFFFFFFFFFFFFFFFFFFFFFFFFFFFFFFFFFFFFF DUP3 PUSH2 0x4DE JUMP JUMPDEST PUSH2 0x523 DUP7 DUP4 PUSH2 0x4DE JUMP JUMPDEST SWAP6 POP DUP1 NOT DUP5 AND SWAP4 POP DUP1 DUP7 AND DUP5 OR SWAP3 POP POP POP SWAP4 SWAP3 POP POP POP JUMP JUMPDEST PUSH0 DUP2 SWAP1 POP SWAP2 SWAP1 POP JUMP JUMPDEST PUSH0 DUP2 SWAP1 POP SWAP2 SWAP1 POP JUMP JUMPDEST PUSH0 PUSH2 0x567 PUSH2 0x562 PUSH2 0x55D DUP5 PUSH2 0x53B JUMP JUMPDEST PUSH2 0x544 JUMP JUMPDEST PUSH2 0x53B JUMP JUMPDEST SWAP1 POP SWAP2 SWAP1 POP JUMP JUMPDEST PUSH0 DUP2 SWAP1 POP SWAP2 SWAP1 POP JUMP JUMPDEST PUSH2 0x580 DUP4 PUSH2 0x54D JUMP JUMPDEST PUSH2 0x594 PUSH2 0x58C DUP3 PUSH2 0x56E JUMP JUMPDEST DUP5 DUP5 SLOAD PUSH2 0x4EA JUMP JUMPDEST DUP3 SSTORE POP POP POP POP JUMP JUMPDEST PUSH0 PUSH0 SWAP1 POP SWAP1 JUMP JUMPDEST PUSH2 0x5AB PUSH2 0x59C JUMP JUMPDEST PUSH2 0x5B6 DUP2 DUP5 DUP5 PUSH2 0x577 JUMP JUMPDEST POP POP POP JUMP JUMPDEST JUMPDEST DUP2 DUP2 LT ISZERO PUSH2 0x5D9 JUMPI PUSH2 0x5CE PUSH0 DUP3 PUSH2 0x5A3 JUMP JUMPDEST PUSH1 0x1 DUP2 ADD SWAP1 POP PUSH2 0x5BC JUMP JUMPDEST POP POP JUMP JUMPDEST PUSH1 0x1F DUP3 GT ISZERO PUSH2 0x61E JUMPI PUSH2 0x5EF DUP2 PUSH2 0x4BD JUMP JUMPDEST PUSH2 0x5F8 DUP5 PUSH2 0x4CF JUMP JUMPDEST DUP2 ADD PUSH1 0x20 DUP6 LT ISZERO PUSH2 0x607 JUMPI DUP2 SWAP1 POP JUMPDEST PUSH2 0x61B PUSH2 0x613 DUP6 PUSH2 0x4CF JUMP JUMPDEST DUP4 ADD DUP3 PUSH2 0x5BB JUMP JUMPDEST POP POP JUMPDEST POP POP POP JUMP JUMPDEST PUSH0 DUP3 DUP3 SHR SWAP1 POP SWAP3 SWAP2 POP POP JUMP JUMPDEST PUSH0 PUSH2 0x63E PUSH0 NOT DUP5 PUSH1 0x8 MUL PUSH2 0x623 JUMP JUMPDEST NOT DUP1 DUP4 AND SWAP2 POP POP SWAP3 SWAP2 POP POP JUMP JUMPDEST PUSH0 PUSH2 0x656 DUP4 DUP4 PUSH2 0x62F JUMP JUMPDEST SWAP2 POP DUP3 PUSH1 0x2 MUL DUP3 OR SWAP1 POP SWAP3 SWAP2 POP POP JUMP JUMPDEST PUSH2 0x66F DUP3 PUSH2 0x456 JUMP JUMPDEST PUSH8 0xFFFFFFFFFFFFFFFF DUP2 GT ISZERO PUSH2 0x688 JUMPI PUSH2 0x687 PUSH2 0x274 JUMP JUMPDEST JUMPDEST PUSH2 0x692 DUP3 SLOAD PUSH2 0x48D JUMP JUMPDEST PUSH2 0x69D DUP3 DUP3 DUP6 PUSH2 0x5DD JUMP JUMPDEST PUSH0 PUSH1 0x20 SWAP1 POP PUSH1 0x1F DUP4 GT PUSH1 0x1 DUP2 EQ PUSH2 0x6CE JUMPI PUSH0 DUP5 ISZERO PUSH2 0x6BC JUMPI DUP3 DUP8 ADD MLOAD SWAP1 POP JUMPDEST PUSH2 0x6C6 DUP6 DUP3 PUSH2 0x64B JUMP JUMPDEST DUP7 SSTORE POP PUSH2 0x72D JUMP JUMPDEST PUSH1 0x1F NOT DUP5 AND PUSH2 0x6DC DUP7 PUSH2 0x4BD JUMP JUMPDEST PUSH0 JUMPDEST DUP3 DUP2 LT ISZERO PUSH2 0x703 JUMPI DUP5 DUP10 ADD MLOAD DUP3 SSTORE PUSH1 0x1 DUP3 ADD SWAP2 POP PUSH1 0x20 DUP6 ADD SWAP5 POP PUSH1 0x20 DUP2 ADD SWAP1 POP PUSH2 0x6DE JUMP JUMPDEST DUP7 DUP4 LT ISZERO PUSH2 0x720 JUMPI DUP5 DUP10 ADD MLOAD PUSH2 0x71C PUSH1 0x1F DUP10 AND DUP3 PUSH2 0x62F JUMP JUMPDEST DUP4 SSTORE POP JUMPDEST PUSH1 0x1 PUSH1 0x2 DUP9 MUL ADD DUP9 SSTORE POP POP POP JUMPDEST POP POP POP POP POP POP JUMP JUMPDEST PUSH32 0x4E487B7100000000000000000000000000000000000000000000000000000000 PUSH0 MSTORE PUSH1 0x11 PUSH1 0x4 MSTORE PUSH1 0x24 PUSH0 REVERT JUMPDEST PUSH0 DUP2 PUSH1 0x1 SHR SWAP1 POP SWAP2 SWAP1 POP JUMP JUMPDEST PUSH0 PUSH0 DUP3 SWAP2 POP DUP4 SWAP1 POP JUMPDEST PUSH1 0x1 DUP6 GT ISZERO PUSH2 0x7B7 JUMPI DUP1 DUP7 DIV DUP2 GT ISZERO PUSH2 0x793 JUMPI PUSH2 0x792 PUSH2 0x735 JUMP JUMPDEST JUMPDEST PUSH1 0x1 DUP6 AND ISZERO PUSH2 0x7A2 JUMPI DUP1 DUP3 MUL SWAP2 POP JUMPDEST DUP1 DUP2 MUL SWAP1 POP PUSH2 0x7B0 DUP6 PUSH2 0x762 JUMP JUMPDEST SWAP5 POP PUSH2 0x777 JUMP JUMPDEST SWAP5 POP SWAP5 SWAP3 POP POP POP JUMP JUMPDEST PUSH0 DUP3 PUSH2 0x7CF JUMPI PUSH1 0x1 SWAP1 POP PUSH2 0x88A JUMP JUMPDEST DUP2 PUSH2 0x7DC JUMPI PUSH0 SWAP1 POP PUSH2 0x88A JUMP JUMPDEST DUP2 PUSH1 0x1 DUP2 EQ PUSH2 0x7F2 JUMPI PUSH1 0x2 DUP2 EQ PUSH2 0x7FC JUMPI PUSH2 0x82B JUMP JUMPDEST PUSH1 0x1 SWAP2 POP POP PUSH2 0x88A JUMP JUMPDEST PUSH1 0xFF DUP5 GT ISZERO PUSH2 0x80E JUMPI PUSH2 0x80D PUSH2 0x735 JUMP JUMPDEST JUMPDEST DUP4 PUSH1 0x2 EXP SWAP2 POP DUP5 DUP3 GT ISZERO PUSH2 0x825 JUMPI PUSH2 0x824 PUSH2 0x735 JUMP JUMPDEST JUMPDEST POP PUSH2 0x88A JUMP JUMPDEST POP PUSH1 0x20 DUP4 LT PUSH2 0x133 DUP4 LT AND PUSH1 0x4E DUP5 LT PUSH1 0xB DUP5 LT AND OR ISZERO PUSH2 0x860 JUMPI DUP3 DUP3 EXP SWAP1 POP DUP4 DUP2 GT ISZERO PUSH2 0x85B JUMPI PUSH2 0x85A PUSH2 0x735 JUMP JUMPDEST JUMPDEST PUSH2 0x88A JUMP JUMPDEST PUSH2 0x86D DUP5 DUP5 DUP5 PUSH1 0x1 PUSH2 0x76E JUMP JUMPDEST SWAP3 POP SWAP1 POP DUP2 DUP5 DIV DUP2 GT ISZERO PUSH2 0x884 JUMPI PUSH2 0x883 PUSH2 0x735 JUMP JUMPDEST JUMPDEST DUP2 DUP2 MUL SWAP1 POP JUMPDEST SWAP4 SWAP3 POP POP POP JUMP JUMPDEST PUSH0 PUSH2 0x89B DUP3 PUSH2 0x53B JUMP JUMPDEST SWAP2 POP PUSH2 0x8A6 DUP4 PUSH2 0x398 JUMP JUMPDEST SWAP3 POP PUSH2 0x8D3 PUSH32 0xFFFFFFFFFFFFFFFFFFFFFFFFFFFFFFFFFFFFFFFFFFFFFFFFFFFFFFFFFFFFFFFF DUP5 DUP5 PUSH2 0x7C0 JUMP JUMPDEST SWAP1 POP SWAP3 SWAP2 POP POP JUMP JUMPDEST PUSH0 PUSH2 0x8E5 DUP3 PUSH2 0x53B JUMP JUMPDEST SWAP2 POP PUSH2 0x8F0 DUP4 PUSH2 0x53B JUMP JUMPDEST SWAP3 POP DUP3 DUP3 MUL PUSH2 0x8FE DUP2 PUSH2 0x53B JUMP JUMPDEST SWAP2 POP DUP3 DUP3 DIV DUP5 EQ DUP4 ISZERO OR PUSH2 0x915 JUMPI PUSH2 0x914 PUSH2 0x735 JUMP JUMPDEST JUMPDEST POP SWAP3 SWAP2 POP POP JUMP JUMPDEST PUSH0 DUP2 SWAP1 POP SWAP3 SWAP2 POP POP JUMP JUMPDEST PUSH0 DUP2 SWAP1 POP DUP2 PUSH0 MSTORE PUSH1 0x20 PUSH0 KECCAK256 SWAP1 POP SWAP2 SWAP1 POP JUMP JUMPDEST PUSH0 DUP2 SLOAD PUSH2 0x944 DUP2 PUSH2 0x48D JUMP JUMPDEST PUSH2 0x94E DUP2 DUP7 PUSH2 0x91C JUMP JUMPDEST SWAP5 POP PUSH1 0x1 DUP3 AND PUSH0 DUP2 EQ PUSH2 0x968 JUMPI PUSH1 0x1 DUP2 EQ PUSH2 0x97D JUMPI PUSH2 0x9AF JUMP JUMPDEST PUSH1 0xFF NOT DUP4 AND DUP7 MSTORE DUP2 ISZERO ISZERO DUP3 MUL DUP7 ADD SWAP4 POP PUSH2 0x9AF JUMP JUMPDEST PUSH2 0x986 DUP6 PUSH2 0x926 JUMP JUMPDEST PUSH0 JUMPDEST DUP4 DUP2 LT ISZERO PUSH2 0x9A7 JUMPI DUP2 SLOAD DUP2 DUP10 ADD MSTORE PUSH1 0x1 DUP3 ADD SWAP2 POP PUSH1 0x20 DUP2 ADD SWAP1 POP PUSH2 0x988 JUMP JUMPDEST DUP4 DUP9 ADD SWAP6 POP POP POP JUMPDEST POP POP POP SWAP3 SWAP2 POP POP JUMP JUMPDEST PUSH0 PUSH2 0x9C3 DUP3 DUP5 PUSH2 0x938 JUMP JUMPDEST SWAP2 POP DUP2 SWAP1 POP SWAP3 SWAP2 POP POP JUMP JUMPDEST PUSH0 DUP2 SWAP1 POP SWAP2 SWAP1 POP JUMP JUMPDEST PUSH2 0x9E0 DUP2 PUSH2 0x9CE JUMP JUMPDEST DUP3 MSTORE POP POP JUMP JUMPDEST PUSH2 0x9EF DUP2 PUSH2 0x53B JUMP JUMPDEST DUP3 MSTORE POP POP JUMP JUMPDEST PUSH0 PUSH20 0xFFFFFFFFFFFFFFFFFFFFFFFFFFFFFFFFFFFFFFFF DUP3 AND SWAP1 POP SWAP2 SWAP1 POP JUMP JUMPDEST PUSH0 PUSH2 0xA1E DUP3 PUSH2 0x9F5 JUMP JUMPDEST SWAP1 POP SWAP2 SWAP1 POP JUMP JUMPDEST PUSH2 0xA2E DUP2 PUSH2 0xA14 JUMP JUMPDEST DUP3 MSTORE POP POP JUMP JUMPDEST PUSH0 PUSH1 0xA0 DUP3 ADD SWAP1 POP PUSH2 0xA47 PUSH0 DUP4 ADD DUP9 PUSH2 0x9D7 JUMP JUMPDEST PUSH2 0xA54 PUSH1 0x20 DUP4 ADD DUP8 PUSH2 0x9D7 JUMP JUMPDEST PUSH2 0xA61 PUSH1 0x40 DUP4 ADD DUP7 PUSH2 0x9D7 JUMP JUMPDEST PUSH2 0xA6E PUSH1 0x60 DUP4 ADD DUP6 PUSH2 0x9E6 JUMP JUMPDEST PUSH2 0xA7B PUSH1 0x80 DUP4 ADD DUP5 PUSH2 0xA25 JUMP JUMPDEST SWAP7 SWAP6 POP POP POP POP POP POP JUMP JUMPDEST PUSH0 PUSH2 0xA8F DUP3 PUSH2 0x53B JUMP JUMPDEST SWAP2 POP PUSH2 0xA9A DUP4 PUSH2 0x53B JUMP JUMPDEST SWAP3 POP DUP3 DUP3 ADD SWAP1 POP DUP1 DUP3 GT ISZERO PUSH2 0xAB2 JUMPI PUSH2 0xAB1 PUSH2 0x735 JUMP JUMPDEST JUMPDEST SWAP3 SWAP2 POP POP JUMP JUMPDEST PUSH0 PUSH1 0x20 DUP3 ADD SWAP1 POP PUSH2 0xACB PUSH0 DUP4 ADD DUP5 PUSH2 0x9E6 JUMP JUMPDEST SWAP3 SWAP2 POP POP JUMP JUMPDEST PUSH1 0x80 MLOAD PUSH1 0xA0 MLOAD PUSH1 0xC0 MLOAD PUSH2 0x1AA6 PUSH2 0xB02 PUSH0 CODECOPY PUSH0 PUSH2 0x8FC ADD MSTORE PUSH0 PUSH2 0x8C8 ADD MSTORE PUSH0 DUP2 DUP2 PUSH2 0x8A3 ADD MSTORE PUSH2 0x937 ADD MSTORE PUSH2 0x1AA6 PUSH0 RETURN INVALID PUSH1 0x80 PUSH1 0x40 MSTORE PUSH1 0x4 CALLDATASIZE LT PUSH2 0xF6 JUMPI PUSH0 CALLDATALOAD PUSH1 0xE0 SHR DUP1 PUSH4 0x70A08231 GT PUSH2 0x89 JUMPI DUP1 PUSH4 0xA9059CBB GT PUSH2 0x58 JUMPI DUP1 PUSH4 0xA9059CBB EQ PUSH2 0x345 JUMPI DUP1 PUSH4 0xD0E30DB0 EQ PUSH2 0x381 JUMPI DUP1 PUSH4 0xD505ACCF EQ PUSH2 0x38B JUMPI DUP1 PUSH4 0xDD62ED3E EQ PUSH2 0x3B3 JUMPI PUSH2 0x105 JUMP JUMPDEST DUP1 PUSH4 0x70A08231 EQ PUSH2 0x279 JUMPI DUP1 PUSH4 0x7ECEBE00 EQ PUSH2 0x2B5 JUMPI DUP1 PUSH4 0x8DA5CB5B EQ PUSH2 0x2F1 JUMPI DUP1 PUSH4 0x95D89B41 EQ PUSH2 0x31B JUMPI PUSH2 0x105 JUMP JUMPDEST DUP1 PUSH4 0x2E1A7D4D GT PUSH2 0xC5 JUMPI DUP1 PUSH4 0x2E1A7D4D EQ PUSH2 0x1D5 JUMPI DUP1 PUSH4 0x313CE567 EQ PUSH2 0x1FD JUMPI DUP1 PUSH4 0x3644E515 EQ PUSH2 0x227 JUMPI DUP1 PUSH4 0x40C10F19 EQ PUSH2 0x251 JUMPI PUSH2 0x105 JUMP JUMPDEST DUP1 PUSH4 0x6FDDE03 EQ PUSH2 0x109 JUMPI DUP1 PUSH4 0x95EA7B3 EQ PUSH2 0x133 JUMPI DUP1 PUSH4 0x18160DDD EQ PUSH2 0x16F JUMPI DUP1 PUSH4 0x23B872DD EQ PUSH2 0x199 JUMPI PUSH2 0x105 JUMP JUMPDEST CALLDATASIZE PUSH2 0x105 JUMPI PUSH2 0x103 PUSH2 0x3EF JUMP JUMPDEST STOP JUMPDEST PUSH0 PUSH0 REVERT JUMPDEST CALLVALUE DUP1 ISZERO PUSH2 0x114 JUMPI PUSH0 PUSH0 REVERT JUMPDEST POP PUSH2 0x11D PUSH2 0x449 JUMP JUMPDEST PUSH1 0x40 MLOAD PUSH2 0x12A SWAP2 SWAP1 PUSH2 0x10FB JUMP JUMPDEST PUSH1 0x40 MLOAD DUP1 SWAP2 SUB SWAP1 RETURN JUMPDEST CALLVALUE DUP1 ISZERO PUSH2 0x13E JUMPI PUSH0 PUSH0 REVERT JUMPDEST POP PUSH2 0x159 PUSH1 0x4 DUP1 CALLDATASIZE SUB DUP2 ADD SWAP1 PUSH2 0x154 SWAP2 SWAP1 PUSH2 0x11AC JUMP JUMPDEST PUSH2 0x4D4 JUMP JUMPDEST PUSH1 0x40 MLOAD PUSH2 0x166 SWAP2 SWAP1 PUSH2 0x1204 JUMP JUMPDEST PUSH1 0x40 MLOAD DUP1 SWAP2 SUB SWAP1 RETURN JUMPDEST CALLVALUE DUP1 ISZERO PUSH2 0x17A JUMPI PUSH0 PUSH0 REVERT JUMPDEST POP PUSH2 0x183 PUSH2 0x5C1 JUMP JUMPDEST PUSH1 0x40 MLOAD PUSH2 0x190 SWAP2 SWAP1 PUSH2 0x122C JUMP JUMPDEST PUSH1 0x40 MLOAD DUP1 SWAP2 SUB SWAP1 RETURN JUMPDEST CALLVALUE DUP1 ISZERO PUSH2 0x1A4 JUMPI PUSH0 PUSH0 REVERT JUMPDEST POP PUSH2 0x1BF PUSH1 0x4 DUP1 CALLDATASIZE SUB DUP2 ADD SWAP1 PUSH2 0x1BA SWAP2 SWAP1 PUSH2 0x1245 JUMP JUMPDEST PUSH2 0x5C7 JUMP JUMPDEST PUSH1 0x40 MLOAD PUSH2 0x1CC SWAP2 SWAP1 PUSH2 0x1204 JUMP JUMPDEST PUSH1 0x40 MLOAD DUP1 SWAP2 SUB SWAP1 RETURN JUMPDEST CALLVALUE DUP1 ISZERO PUSH2 0x1E0 JUMPI PUSH0 PUSH0 REVERT JUMPDEST POP PUSH2 0x1FB PUSH1 0x4 DUP1 CALLDATASIZE SUB DUP2 ADD SWAP1 PUSH2 0x1F6 SWAP2 SWAP1 PUSH2 0x1295 JUMP JUMPDEST PUSH2 0x802 JUMP JUMPDEST STOP JUMPDEST CALLVALUE DUP1 ISZERO PUSH2 0x208 JUMPI PUSH0 PUSH0 REVERT JUMPDEST POP PUSH2 0x211 PUSH2 0x8A1 JUMP JUMPDEST PUSH1 0x40 MLOAD PUSH2 0x21E SWAP2 SWAP1 PUSH2 0x12DB JUMP JUMPDEST PUSH1 0x40 MLOAD DUP1 SWAP2 SUB SWAP1 RETURN JUMPDEST CALLVALUE DUP1 ISZERO PUSH2 0x232 JUMPI PUSH0 PUSH0 REVERT JUMPDEST POP PUSH2 0x23B PUSH2 0x8C5 JUMP JUMPDEST PUSH1 0x40 MLOAD PUSH2 0x248 SWAP2 SWAP1 PUSH2 0x130C JUMP JUMPDEST PUSH1 0x40 MLOAD DUP1 SWAP2 SUB SWAP1 RETURN JUMPDEST CALLVALUE DUP1 ISZERO PUSH2 0x25C JUMPI PUSH0 PUSH0 REVERT JUMPDEST POP PUSH2 0x277 PUSH1 0x4 DUP1 CALLDATASIZE SUB DUP2 ADD SWAP1 PUSH2 0x272 SWAP2 SWAP1 PUSH2 0x11AC JUMP JUMPDEST PUSH2 0x921 JUMP JUMPDEST STOP JUMPDEST CALLVALUE DUP1 ISZERO PUSH2 0x284 JUMPI PUSH0 PUSH0 REVERT JUMPDEST POP PUSH2 0x29F PUSH1 0x4 DUP1 CALLDATASIZE SUB DUP2 ADD SWAP1 PUSH2 0x29A SWAP2 SWAP1 PUSH2 0x1325 JUMP JUMPDEST PUSH2 0x976 JUMP JUMPDEST PUSH1 0x40 MLOAD PUSH2 0x2AC SWAP2 SWAP1 PUSH2 0x122C JUMP JUMPDEST PUSH1 0x40 MLOAD DUP1 SWAP2 SUB SWAP1 RETURN JUMPDEST CALLVALUE DUP1 ISZERO PUSH2 0x2C0 JUMPI PUSH0 PUSH0 REVERT JUMPDEST POP PUSH2 0x2DB PUSH1 0x4 DUP1 CALLDATASIZE SUB DUP2 ADD SWAP1 PUSH2 0x2D6 SWAP2 SWAP1 PUSH2 0x1325 JUMP JUMPDEST PUSH2 0x98B JUMP JUMPDEST PUSH1 0x40 MLOAD PUSH2 0x2E8 SWAP2 SWAP1 PUSH2 0x122C JUMP JUMPDEST PUSH1 0x40 MLOAD DUP1 SWAP2 SUB SWAP1 RETURN JUMPDEST CALLVALUE DUP1 ISZERO PUSH2 0x2FC JUMPI PUSH0 PUSH0 REVERT JUMPDEST POP PUSH2 0x305 PUSH2 0x9A0 JUMP JUMPDEST PUSH1 0x40 MLOAD PUSH2 0x312 SWAP2 SWAP1 PUSH2 0x135F JUMP JUMPDEST PUSH1 0x40 MLOAD DUP1 SWAP2 SUB SWAP1 RETURN JUMPDEST CALLVALUE DUP1 ISZERO PUSH2 0x326 JUMPI PUSH0 PUSH0 REVERT JUMPDEST POP PUSH2 0x32F PUSH2 0x9C5 JUMP JUMPDEST PUSH1 0x40 MLOAD PUSH2 0x33C SWAP2 SWAP1 PUSH2 0x10FB JUMP JUMPDEST PUSH1 0x40 MLOAD DUP1 SWAP2 SUB SWAP1 RETURN JUMPDEST CALLVALUE DUP1 ISZERO PUSH2 0x350 JUMPI PUSH0 PUSH0 REVERT JUMPDEST POP PUSH2 0x36B PUSH1 0x4 DUP1 CALLDATASIZE SUB DUP2 ADD SWAP1 PUSH2 0x366 SWAP2 SWAP1 PUSH2 0x11AC JUMP JUMPDEST PUSH2 0xA51 JUMP JUMPDEST PUSH1 0x40 MLOAD PUSH2 0x378 SWAP2 SWAP1 PUSH2 0x1204 JUMP JUMPDEST PUSH1 0x40 MLOAD DUP1 SWAP2 SUB SWAP1 RETURN JUMPDEST PUSH2 0x389 PUSH2 0x3EF JUMP JUMPDEST STOP JUMPDEST CALLVALUE DUP1 ISZERO PUSH2 0x396 JUMPI PUSH0 PUSH0 REVERT JUMPDEST POP PUSH2 0x3B1 PUSH1 0x4 DUP1 CALLDATASIZE SUB DUP2 ADD SWAP1 PUSH2 0x3AC SWAP2 SWAP1 PUSH2 0x13CC JUMP JUMPDEST PUSH2 0xB5E JUMP JUMPDEST STOP JUMPDEST CALLVALUE DUP1 ISZERO PUSH2 0x3BE JUMPI PUSH0 PUSH0 REVERT JUMPDEST POP PUSH2 0x3D9 PUSH1 0x4 DUP1 CALLDATASIZE SUB DUP2 ADD SWAP1 PUSH2 0x3D4 SWAP2 SWAP1 PUSH2 0x1469 JUMP JUMPDEST PUSH2 0xE4B JUMP JUMPDEST PUSH1 0x40 MLOAD PUSH2 0x3E6 SWAP2 SWAP1 PUSH2 0x122C JUMP JUMPDEST PUSH1 0x40 MLOAD DUP1 SWAP2 SUB SWAP1 RETURN JUMPDEST CALLER PUSH20 0xFFFFFFFFFFFFFFFFFFFFFFFFFFFFFFFFFFFFFFFF AND PUSH32 0xE1FFFCC4923D04B559F4D29A8BFC6CDA04EB5B0D3C460751C2402C5C5CC9109C CALLVALUE PUSH1 0x40 MLOAD PUSH2 0x435 SWAP2 SWAP1 PUSH2 0x122C JUMP JUMPDEST PUSH1 0x40 MLOAD DUP1 SWAP2 SUB SWAP1 LOG2 PUSH2 0x447 CALLER CALLVALUE PUSH2 0xE6B JUMP JUMPDEST JUMP JUMPDEST PUSH0 DUP1 SLOAD PUSH2 0x455 SWAP1 PUSH2 0x14D4 JUMP JUMPDEST DUP1 PUSH1 0x1F ADD PUSH1 0x20 DUP1 SWAP2 DIV MUL PUSH1 0x20 ADD PUSH1 0x40 MLOAD SWAP1 DUP2 ADD PUSH1 0x40 MSTORE DUP1 SWAP3 SWAP2 SWAP1 DUP2 DUP2 MSTORE PUSH1 0x20 ADD DUP3 DUP1 SLOAD PUSH2 0x481 SWAP1 PUSH2 0x14D4 JUMP JUMPDEST DUP1 ISZERO PUSH2 0x4CC JUMPI DUP1 PUSH1 0x1F LT PUSH2 0x4A3 JUMPI PUSH2 0x100 DUP1 DUP4 SLOAD DIV MUL DUP4 MSTORE SWAP2 PUSH1 0x20 ADD SWAP2 PUSH2 0x4CC JUMP JUMPDEST DUP3 ADD SWAP2 SWAP1 PUSH0 MSTORE PUSH1 0x20 PUSH0 KECCAK256 SWAP1 JUMPDEST DUP2 SLOAD DUP2 MSTORE SWAP1 PUSH1 0x1 ADD SWAP1 PUSH1 0x20 ADD DUP1 DUP4 GT PUSH2 0x4AF JUMPI DUP3 SWAP1 SUB PUSH1 0x1F AND DUP3 ADD SWAP2 JUMPDEST POP POP POP POP POP DUP2 JUMP JUMPDEST PUSH0 DUP2 PUSH1 0x4 PUSH0 CALLER PUSH20 0xFFFFFFFFFFFFFFFFFFFFFFFFFFFFFFFFFFFFFFFF AND PUSH20 0xFFFFFFFFFFFFFFFFFFFFFFFFFFFFFFFFFFFFFFFF AND DUP2 MSTORE PUSH1 0x20 ADD SWAP1 DUP2 MSTORE PUSH1 0x20 ADD PUSH0 KECCAK256 PUSH0 DUP6 PUSH20 0xFFFFFFFFFFFFFFFFFFFFFFFFFFFFFFFFFFFFFFFF AND PUSH20 0xFFFFFFFFFFFFFFFFFFFFFFFFFFFFFFFFFFFFFFFF AND DUP2 MSTORE PUSH1 0x20 ADD SWAP1 DUP2 MSTORE PUSH1 0x20 ADD PUSH0 KECCAK256 DUP2 SWAP1 SSTORE POP DUP3 PUSH20 0xFFFFFFFFFFFFFFFFFFFFFFFFFFFFFFFFFFFFFFFF AND CALLER PUSH20 0xFFFFFFFFFFFFFFFFFFFFFFFFFFFFFFFFFFFFFFFF AND PUSH32 0x8C5BE1E5EBEC7D5BD14F71427D1E84F3DD0314C0F7B2291E5B200AC8C7C3B925 DUP5 PUSH1 0x40 MLOAD PUSH2 0x5AF SWAP2 SWAP1 PUSH2 0x122C JUMP JUMPDEST PUSH1 0x40 MLOAD DUP1 SWAP2 SUB SWAP1 LOG3 PUSH1 0x1 SWAP1 POP SWAP3 SWAP2 POP POP JUMP JUMPDEST PUSH1 0x2 SLOAD DUP2 JUMP JUMPDEST PUSH0 PUSH0 PUSH1 0x4 PUSH0 DUP7 PUSH20 0xFFFFFFFFFFFFFFFFFFFFFFFFFFFFFFFFFFFFFFFF AND PUSH20 0xFFFFFFFFFFFFFFFFFFFFFFFFFFFFFFFFFFFFFFFF AND DUP2 MSTORE PUSH1 0x20 ADD SWAP1 DUP2 MSTORE PUSH1 0x20 ADD PUSH0 KECCAK256 PUSH0 CALLER PUSH20 0xFFFFFFFFFFFFFFFFFFFFFFFFFFFFFFFFFFFFFFFF AND PUSH20 0xFFFFFFFFFFFFFFFFFFFFFFFFFFFFFFFFFFFFFFFF AND DUP2 MSTORE PUSH1 0x20 ADD SWAP1 DUP2 MSTORE PUSH1 0x20 ADD PUSH0 KECCAK256 SLOAD SWAP1 POP PUSH32 0xFFFFFFFFFFFFFFFFFFFFFFFFFFFFFFFFFFFFFFFFFFFFFFFFFFFFFFFFFFFFFFFF DUP2 EQ PUSH2 0x6F4 JUMPI DUP3 DUP2 PUSH2 0x677 SWAP2 SWAP1 PUSH2 0x1531 JUMP JUMPDEST PUSH1 0x4 PUSH0 DUP8 PUSH20 0xFFFFFFFFFFFFFFFFFFFFFFFFFFFFFFFFFFFFFFFF AND PUSH20 0xFFFFFFFFFFFFFFFFFFFFFFFFFFFFFFFFFFFFFFFF AND DUP2 MSTORE PUSH1 0x20 ADD SWAP1 DUP2 MSTORE PUSH1 0x20 ADD PUSH0 KECCAK256 PUSH0 CALLER PUSH20 0xFFFFFFFFFFFFFFFFFFFFFFFFFFFFFFFFFFFFFFFF AND PUSH20 0xFFFFFFFFFFFFFFFFFFFFFFFFFFFFFFFFFFFFFFFF AND DUP2 MSTORE PUSH1 0x20 ADD SWAP1 DUP2 MSTORE PUSH1 0x20 ADD PUSH0 KECCAK256 DUP2 SWAP1 SSTORE POP JUMPDEST DUP3 PUSH1 0x3 PUSH0 DUP8 PUSH20 0xFFFFFFFFFFFFFFFFFFFFFFFFFFFFFFFFFFFFFFFF AND PUSH20 0xFFFFFFFFFFFFFFFFFFFFFFFFFFFFFFFFFFFFFFFF AND DUP2 MSTORE PUSH1 0x20 ADD SWAP1 DUP2 MSTORE PUSH1 0x20 ADD PUSH0 KECCAK256 PUSH0 DUP3 DUP3 SLOAD PUSH2 0x740 SWAP2 SWAP1 PUSH2 0x1531 JUMP JUMPDEST SWAP3 POP POP DUP2 SWAP1 SSTORE POP DUP3 PUSH1 0x3 PUSH0 DUP7 PUSH20 0xFFFFFFFFFFFFFFFFFFFFFFFFFFFFFFFFFFFFFFFF AND PUSH20 0xFFFFFFFFFFFFFFFFFFFFFFFFFFFFFFFFFFFFFFFF AND DUP2 MSTORE PUSH1 0x20 ADD SWAP1 DUP2 MSTORE PUSH1 0x20 ADD PUSH0 KECCAK256 PUSH0 DUP3 DUP3 SLOAD ADD SWAP3 POP POP DUP2 SWAP1 SSTORE POP DUP4 PUSH20 0xFFFFFFFFFFFFFFFFFFFFFFFFFFFFFFFFFFFFFFFF AND DUP6 PUSH20 0xFFFFFFFFFFFFFFFFFFFFFFFFFFFFFFFFFFFFFFFF AND PUSH32 0xDDF252AD1BE2C89B69C2B068FC378DAA952BA7F163C4A11628F55A4DF523B3EF DUP6 PUSH1 0x40 MLOAD PUSH2 0x7EE SWAP2 SWAP1 PUSH2 0x122C JUMP JUMPDEST PUSH1 0x40 MLOAD DUP1 SWAP2 SUB SWAP1 LOG3 PUSH1 0x1 SWAP2 POP POP SWAP4 SWAP3 POP POP POP JUMP JUMPDEST PUSH2 0x80C CALLER DUP3 PUSH2 0xF36 JUMP JUMPDEST CALLER PUSH20 0xFFFFFFFFFFFFFFFFFFFFFFFFFFFFFFFFFFFFFFFF AND PUSH32 0x7FCF532C15F0A6DB0BD6D0E038BEA71D30D808C7D98CB3BF7268A95BF5081B65 DUP3 PUSH1 0x40 MLOAD PUSH2 0x852 SWAP2 SWAP1 PUSH2 0x122C JUMP JUMPDEST PUSH1 0x40 MLOAD DUP1 SWAP2 SUB SWAP1 LOG2 CALLER PUSH20 0xFFFFFFFFFFFFFFFFFFFFFFFFFFFFFFFFFFFFFFFF AND PUSH2 0x8FC DUP3 SWAP1 DUP2 ISZERO MUL SWAP1 PUSH1 0x40 MLOAD PUSH0 PUSH1 0x40 MLOAD DUP1 DUP4 SUB DUP2 DUP6 DUP9 DUP9 CALL SWAP4 POP POP POP POP ISZERO DUP1 ISZERO PUSH2 0x89D JUMPI RETURNDATASIZE PUSH0 PUSH0 RETURNDATACOPY RETURNDATASIZE PUSH0 REVERT JUMPDEST POP POP JUMP JUMPDEST PUSH32 0x0 DUP2 JUMP JUMPDEST PUSH0 PUSH32 0x0 CHAINID EQ PUSH2 0x8FA JUMPI PUSH2 0x8F5 PUSH2 0x1001 JUMP JUMPDEST PUSH2 0x91C JUMP JUMPDEST PUSH32 0x0 JUMPDEST SWAP1 POP SWAP1 JUMP JUMPDEST PUSH4 0x5F5E100 DUP2 GT ISZERO PUSH2 0x931 JUMPI PUSH0 PUSH0 REVERT JUMPDEST PUSH2 0x972 DUP3 PUSH32 0x0 PUSH1 0xA PUSH2 0x962 SWAP2 SWAP1 PUSH2 0x1693 JUMP JUMPDEST DUP4 PUSH2 0x96D SWAP2 SWAP1 PUSH2 0x16DD JUMP JUMPDEST PUSH2 0xE6B JUMP JUMPDEST POP POP JUMP JUMPDEST PUSH1 0x3 PUSH1 0x20 MSTORE DUP1 PUSH0 MSTORE PUSH1 0x40 PUSH0 KECCAK256 PUSH0 SWAP2 POP SWAP1 POP SLOAD DUP2 JUMP JUMPDEST PUSH1 0x5 PUSH1 0x20 MSTORE DUP1 PUSH0 MSTORE PUSH1 0x40 PUSH0 KECCAK256 PUSH0 SWAP2 POP SWAP1 POP SLOAD DUP2 JUMP JUMPDEST PUSH1 0x6 PUSH0 SWAP1 SLOAD SWAP1 PUSH2 0x100 EXP SWAP1 DIV PUSH20 0xFFFFFFFFFFFFFFFFFFFFFFFFFFFFFFFFFFFFFFFF AND DUP2 JUMP JUMPDEST PUSH1 0x1 DUP1 SLOAD PUSH2 0x9D2 SWAP1 PUSH2 0x14D4 JUMP JUMPDEST DUP1 PUSH1 0x1F ADD PUSH1 0x20 DUP1 SWAP2 DIV MUL PUSH1 0x20 ADD PUSH1 0x40 MLOAD SWAP1 DUP2 ADD PUSH1 0x40 MSTORE DUP1 SWAP3 SWAP2 SWAP1 DUP2 DUP2 MSTORE PUSH1 0x20 ADD DUP3 DUP1 SLOAD PUSH2 0x9FE SWAP1 PUSH2 0x14D4 JUMP JUMPDEST DUP1 ISZERO PUSH2 0xA49 JUMPI DUP1 PUSH1 0x1F LT PUSH2 0xA20 JUMPI PUSH2 0x100 DUP1 DUP4 SLOAD DIV MUL DUP4 MSTORE SWAP2 PUSH1 0x20 ADD SWAP2 PUSH2 0xA49 JUMP JUMPDEST DUP3 ADD SWAP2 SWAP1 PUSH0 MSTORE PUSH1 0x20 PUSH0 KECCAK256 SWAP1 JUMPDEST DUP2 SLOAD DUP2 MSTORE SWAP1 PUSH1 0x1 ADD SWAP1 PUSH1 0x20 ADD DUP1 DUP4 GT PUSH2 0xA2C JUMPI DUP3 SWAP1 SUB PUSH1 0x1F AND DUP3 ADD SWAP2 JUMPDEST POP POP POP POP POP DUP2 JUMP JUMPDEST PUSH0 DUP2 PUSH1 0x3 PUSH0 CALLER PUSH20 0xFFFFFFFFFFFFFFFFFFFFFFFFFFFFFFFFFFFFFFFF AND PUSH20 0xFFFFFFFFFFFFFFFFFFFFFFFFFFFFFFFFFFFFFFFF AND DUP2 MSTORE PUSH1 0x20 ADD SWAP1 DUP2 MSTORE PUSH1 0x20 ADD PUSH0 KECCAK256 PUSH0 DUP3 DUP3 SLOAD PUSH2 0xA9E SWAP2 SWAP1 PUSH2 0x1531 JUMP JUMPDEST SWAP3 POP POP DUP2 SWAP1 SSTORE POP DUP2 PUSH1 0x3 PUSH0 DUP6 PUSH20 0xFFFFFFFFFFFFFFFFFFFFFFFFFFFFFFFFFFFFFFFF AND PUSH20 0xFFFFFFFFFFFFFFFFFFFFFFFFFFFFFFFFFFFFFFFF AND DUP2 MSTORE PUSH1 0x20 ADD SWAP1 DUP2 MSTORE PUSH1 0x20 ADD PUSH0 KECCAK256 PUSH0 DUP3 DUP3 SLOAD ADD SWAP3 POP POP DUP2 SWAP1 SSTORE POP DUP3 PUSH20 0xFFFFFFFFFFFFFFFFFFFFFFFFFFFFFFFFFFFFFFFF AND CALLER PUSH20 0xFFFFFFFFFFFFFFFFFFFFFFFFFFFFFFFFFFFFFFFF AND PUSH32 0xDDF252AD1BE2C89B69C2B068FC378DAA952BA7F163C4A11628F55A4DF523B3EF DUP5 PUSH1 0x40 MLOAD PUSH2 0xB4C SWAP2 SWAP1 PUSH2 0x122C JUMP JUMPDEST PUSH1 0x40 MLOAD DUP1 SWAP2 SUB SWAP1 LOG3 PUSH1 0x1 SWAP1 POP SWAP3 SWAP2 POP POP JUMP JUMPDEST TIMESTAMP DUP5 LT ISZERO PUSH2 0xBA1 JUMPI PUSH1 0x40 MLOAD PUSH32 0x8C379A000000000000000000000000000000000000000000000000000000000 DUP2 MSTORE PUSH1 0x4 ADD PUSH2 0xB98 SWAP1 PUSH2 0x1768 JUMP JUMPDEST PUSH1 0x40 MLOAD DUP1 SWAP2 SUB SWAP1 REVERT JUMPDEST PUSH0 PUSH1 0x1 PUSH2 0xBAC PUSH2 0x8C5 JUMP JUMPDEST PUSH32 0x6E71EDAE12B1B97F4D1F60370FEF10105FA2FAAE0126114A169C64845D6126C9 DUP11 DUP11 DUP11 PUSH1 0x5 PUSH0 DUP16 PUSH20 0xFFFFFFFFFFFFFFFFFFFFFFFFFFFFFFFFFFFFFFFF AND PUSH20 0xFFFFFFFFFFFFFFFFFFFFFFFFFFFFFFFFFFFFFFFF AND DUP2 MSTORE PUSH1 0x20 ADD SWAP1 DUP2 MSTORE PUSH1 0x20 ADD PUSH0 KECCAK256 PUSH0 DUP2 SLOAD DUP1 SWAP3 SWAP2 SWAP1 PUSH1 0x1 ADD SWAP2 SWAP1 POP SSTORE DUP12 PUSH1 0x40 MLOAD PUSH1 0x20 ADD PUSH2 0xC31 SWAP7 SWAP6 SWAP5 SWAP4 SWAP3 SWAP2 SWAP1 PUSH2 0x1786 JUMP JUMPDEST PUSH1 0x40 MLOAD PUSH1 0x20 DUP2 DUP4 SUB SUB DUP2 MSTORE SWAP1 PUSH1 0x40 MSTORE DUP1 MLOAD SWAP1 PUSH1 0x20 ADD KECCAK256 PUSH1 0x40 MLOAD PUSH1 0x20 ADD PUSH2 0xC58 SWAP3 SWAP2 SWAP1 PUSH2 0x1859 JUMP JUMPDEST PUSH1 0x40 MLOAD PUSH1 0x20 DUP2 DUP4 SUB SUB DUP2 MSTORE SWAP1 PUSH1 0x40 MSTORE DUP1 MLOAD SWAP1 PUSH1 0x20 ADD KECCAK256 DUP6 DUP6 DUP6 PUSH1 0x40 MLOAD PUSH0 DUP2 MSTORE PUSH1 0x20 ADD PUSH1 0x40 MSTORE PUSH1 0x40 MLOAD PUSH2 0xC8D SWAP5 SWAP4 SWAP3 SWAP2 SWAP1 PUSH2 0x188F JUMP JUMPDEST PUSH1 0x20 PUSH1 0x40 MLOAD PUSH1 0x20 DUP2 SUB SWAP1 DUP1 DUP5 SUB SWAP1 DUP6 GAS STATICCALL ISZERO DUP1 ISZERO PUSH2 0xCAD JUMPI RETURNDATASIZE PUSH0 PUSH0 RETURNDATACOPY RETURNDATASIZE PUSH0 REVERT JUMPDEST POP POP POP PUSH1 0x20 PUSH1 0x40 MLOAD SUB MLOAD SWAP1 POP PUSH0 PUSH20 0xFFFFFFFFFFFFFFFFFFFFFFFFFFFFFFFFFFFFFFFF AND DUP2 PUSH20 0xFFFFFFFFFFFFFFFFFFFFFFFFFFFFFFFFFFFFFFFF AND EQ ISZERO DUP1 ISZERO PUSH2 0xD20 JUMPI POP DUP8 PUSH20 0xFFFFFFFFFFFFFFFFFFFFFFFFFFFFFFFFFFFFFFFF AND DUP2 PUSH20 0xFFFFFFFFFFFFFFFFFFFFFFFFFFFFFFFFFFFFFFFF AND EQ JUMPDEST PUSH2 0xD5F JUMPI PUSH1 0x40 MLOAD PUSH32 0x8C379A000000000000000000000000000000000000000000000000000000000 DUP2 MSTORE PUSH1 0x4 ADD PUSH2 0xD56 SWAP1 PUSH2 0x191C JUMP JUMPDEST PUSH1 0x40 MLOAD DUP1 SWAP2 SUB SWAP1 REVERT JUMPDEST DUP6 PUSH1 0x4 PUSH0 DUP4 PUSH20 0xFFFFFFFFFFFFFFFFFFFFFFFFFFFFFFFFFFFFFFFF AND PUSH20 0xFFFFFFFFFFFFFFFFFFFFFFFFFFFFFFFFFFFFFFFF AND DUP2 MSTORE PUSH1 0x20 ADD SWAP1 DUP2 MSTORE PUSH1 0x20 ADD PUSH0 KECCAK256 PUSH0 DUP10 PUSH20 0xFFFFFFFFFFFFFFFFFFFFFFFFFFFFFFFFFFFFFFFF AND PUSH20 0xFFFFFFFFFFFFFFFFFFFFFFFFFFFFFFFFFFFFFFFF AND DUP2 MSTORE PUSH1 0x20 ADD SWAP1 DUP2 MSTORE PUSH1 0x20 ADD PUSH0 KECCAK256 DUP2 SWAP1 SSTORE POP POP DUP6 PUSH20 0xFFFFFFFFFFFFFFFFFFFFFFFFFFFFFFFFFFFFFFFF AND DUP8 PUSH20 0xFFFFFFFFFFFFFFFFFFFFFFFFFFFFFFFFFFFFFFFF AND PUSH32 0x8C5BE1E5EBEC7D5BD14F71427D1E84F3DD0314C0F7B2291E5B200AC8C7C3B925 DUP8 PUSH1 0x40 MLOAD PUSH2 0xE3A SWAP2 SWAP1 PUSH2 0x122C JUMP JUMPDEST PUSH1 0x40 MLOAD DUP1 SWAP2 SUB SWAP1 LOG3 POP POP POP POP POP POP POP JUMP JUMPDEST PUSH1 0x4 PUSH1 0x20 MSTORE DUP2 PUSH0 MSTORE PUSH1 0x40 PUSH0 KECCAK256 PUSH1 0x20 MSTORE DUP1 PUSH0 MSTORE PUSH1 0x40 PUSH0 KECCAK256 PUSH0 SWAP2 POP SWAP2 POP POP SLOAD DUP2 JUMP JUMPDEST DUP1 PUSH1 0x2 PUSH0 DUP3 DUP3 SLOAD PUSH2 0xE7C SWAP2 SWAP1 PUSH2 0x193A JUMP JUMPDEST SWAP3 POP POP DUP2 SWAP1 SSTORE POP DUP1 PUSH1 0x3 PUSH0 DUP5 PUSH20 0xFFFFFFFFFFFFFFFFFFFFFFFFFFFFFFFFFFFFFFFF AND PUSH20 0xFFFFFFFFFFFFFFFFFFFFFFFFFFFFFFFFFFFFFFFF AND DUP2 MSTORE PUSH1 0x20 ADD SWAP1 DUP2 MSTORE PUSH1 0x20 ADD PUSH0 KECCAK256 PUSH0 DUP3 DUP3 SLOAD ADD SWAP3 POP POP DUP2 SWAP1 SSTORE POP DUP2 PUSH20 0xFFFFFFFFFFFFFFFFFFFFFFFFFFFFFFFFFFFFFFFF AND PUSH0 PUSH20 0xFFFFFFFFFFFFFFFFFFFFFFFFFFFFFFFFFFFFFFFF AND PUSH32 0xDDF252AD1BE2C89B69C2B068FC378DAA952BA7F163C4A11628F55A4DF523B3EF DUP4 PUSH1 0x40 MLOAD PUSH2 0xF2A SWAP2 SWAP1 PUSH2 0x122C JUMP JUMPDEST PUSH1 0x40 MLOAD DUP1 SWAP2 SUB SWAP1 LOG3 POP POP JUMP JUMPDEST DUP1 PUSH1 0x3 PUSH0 DUP5 PUSH20 0xFFFFFFFFFFFFFFFFFFFFFFFFFFFFFFFFFFFFFFFF AND PUSH20 0xFFFFFFFFFFFFFFFFFFFFFFFFFFFFFFFFFFFFFFFF AND DUP2 MSTORE PUSH1 0x20 ADD SWAP1 DUP2 MSTORE PUSH1 0x20 ADD PUSH0 KECCAK256 PUSH0 DUP3 DUP3 SLOAD PUSH2 0xF82 SWAP2 SWAP1 PUSH2 0x1531 JUMP JUMPDEST SWAP3 POP POP DUP2 SWAP1 SSTORE POP DUP1 PUSH1 0x2 PUSH0 DUP3 DUP3 SLOAD SUB SWAP3 POP POP DUP2 SWAP1 SSTORE POP PUSH0 PUSH20 0xFFFFFFFFFFFFFFFFFFFFFFFFFFFFFFFFFFFFFFFF AND DUP3 PUSH20 0xFFFFFFFFFFFFFFFFFFFFFFFFFFFFFFFFFFFFFFFF AND PUSH32 0xDDF252AD1BE2C89B69C2B068FC378DAA952BA7F163C4A11628F55A4DF523B3EF DUP4 PUSH1 0x40 MLOAD PUSH2 0xFF5 SWAP2 SWAP1 PUSH2 0x122C JUMP JUMPDEST PUSH1 0x40 MLOAD DUP1 SWAP2 SUB SWAP1 LOG3 POP POP JUMP JUMPDEST PUSH0 PUSH32 0x8B73C3C69BB8FE3D512ECC4CF759CC79239F7B179B0FFACAA9A75D522B39400F PUSH0 PUSH1 0x40 MLOAD PUSH2 0x1031 SWAP2 SWAP1 PUSH2 0x1A09 JUMP JUMPDEST PUSH1 0x40 MLOAD DUP1 SWAP2 SUB SWAP1 KECCAK256 PUSH32 0xC89EFDAA54C0F20C7ADF612882DF0950F5A951637E0307CDCB4C672F298B8BC6 CHAINID ADDRESS PUSH1 0x40 MLOAD PUSH1 0x20 ADD PUSH2 0x1070 SWAP6 SWAP5 SWAP4 SWAP3 SWAP2 SWAP1 PUSH2 0x1A1F JUMP JUMPDEST PUSH1 0x40 MLOAD PUSH1 0x20 DUP2 DUP4 SUB SUB DUP2 MSTORE SWAP1 PUSH1 0x40 MSTORE DUP1 MLOAD SWAP1 PUSH1 0x20 ADD KECCAK256 SWAP1 POP SWAP1 JUMP JUMPDEST PUSH0 DUP2 MLOAD SWAP1 POP SWAP2 SWAP1 POP JUMP JUMPDEST PUSH0 DUP3 DUP3 MSTORE PUSH1 0x20 DUP3 ADD SWAP1 POP SWAP3 SWAP2 POP POP JUMP JUMPDEST DUP3 DUP2 DUP4 MCOPY PUSH0 DUP4 DUP4 ADD MSTORE POP POP POP JUMP JUMPDEST PUSH0 PUSH1 0x1F NOT PUSH1 0x1F DUP4 ADD AND SWAP1 POP SWAP2 SWAP1 POP JUMP JUMPDEST PUSH0 PUSH2 0x10CD DUP3 PUSH2 0x108B JUMP JUMPDEST PUSH2 0x10D7 DUP2 DUP6 PUSH2 0x1095 JUMP JUMPDEST SWAP4 POP PUSH2 0x10E7 DUP2 DUP6 PUSH1 0x20 DUP7 ADD PUSH2 0x10A5 JUMP JUMPDEST PUSH2 0x10F0 DUP2 PUSH2 0x10B3 JUMP JUMPDEST DUP5 ADD SWAP2 POP POP SWAP3 SWAP2 POP POP JUMP JUMPDEST PUSH0 PUSH1 0x20 DUP3 ADD SWAP1 POP DUP2 DUP2 SUB PUSH0 DUP4 ADD MSTORE PUSH2 0x1113 DUP2 DUP5 PUSH2 0x10C3 JUMP JUMPDEST SWAP1 POP SWAP3 SWAP2 POP POP JUMP JUMPDEST PUSH0 PUSH0 REVERT JUMPDEST PUSH0 PUSH20 0xFFFFFFFFFFFFFFFFFFFFFFFFFFFFFFFFFFFFFFFF DUP3 AND SWAP1 POP SWAP2 SWAP1 POP JUMP JUMPDEST PUSH0 PUSH2 0x1148 DUP3 PUSH2 0x111F JUMP JUMPDEST SWAP1 POP SWAP2 SWAP1 POP JUMP JUMPDEST PUSH2 0x1158 DUP2 PUSH2 0x113E JUMP JUMPDEST DUP2 EQ PUSH2 0x1162 JUMPI PUSH0 PUSH0 REVERT JUMPDEST POP JUMP JUMPDEST PUSH0 DUP2 CALLDATALOAD SWAP1 POP PUSH2 0x1173 DUP2 PUSH2 0x114F JUMP JUMPDEST SWAP3 SWAP2 POP POP JUMP JUMPDEST PUSH0 DUP2 SWAP1 POP SWAP2 SWAP1 POP JUMP JUMPDEST PUSH2 0x118B DUP2 PUSH2 0x1179 JUMP JUMPDEST DUP2 EQ PUSH2 0x1195 JUMPI PUSH0 PUSH0 REVERT JUMPDEST POP JUMP JUMPDEST PUSH0 DUP2 CALLDATALOAD SWAP1 POP PUSH2 0x11A6 DUP2 PUSH2 0x1182 JUMP JUMPDEST SWAP3 SWAP2 POP POP JUMP JUMPDEST PUSH0 PUSH0 PUSH1 0x40 DUP4 DUP6 SUB SLT ISZERO PUSH2 0x11C2 JUMPI PUSH2 0x11C1 PUSH2 0x111B JUMP JUMPDEST JUMPDEST PUSH0 PUSH2 0x11CF DUP6 DUP3 DUP7 ADD PUSH2 0x1165 JUMP JUMPDEST SWAP3 POP POP PUSH1 0x20 PUSH2 0x11E0 DUP6 DUP3 DUP7 ADD PUSH2 0x1198 JUMP JUMPDEST SWAP2 POP POP SWAP3 POP SWAP3 SWAP1 POP JUMP JUMPDEST PUSH0 DUP2 ISZERO ISZERO SWAP1 POP SWAP2 SWAP1 POP JUMP JUMPDEST PUSH2 0x11FE DUP2 PUSH2 0x11EA JUMP JUMPDEST DUP3 MSTORE POP POP JUMP JUMPDEST PUSH0 PUSH1 0x20 DUP3 ADD SWAP1 POP PUSH2 0x1217 PUSH0 DUP4 ADD DUP5 PUSH2 0x11F5 JUMP JUMPDEST SWAP3 SWAP2 POP POP JUMP JUMPDEST PUSH2 0x1226 DUP2 PUSH2 0x1179 JUMP JUMPDEST DUP3 MSTORE POP POP JUMP JUMPDEST PUSH0 PUSH1 0x20 DUP3 ADD SWAP1 POP PUSH2 0x123F PUSH0 DUP4 ADD DUP5 PUSH2 0x121D JUMP JUMPDEST SWAP3 SWAP2 POP POP JUMP JUMPDEST PUSH0 PUSH0 PUSH0 PUSH1 0x60 DUP5 DUP7 SUB SLT ISZERO PUSH2 0x125C JUMPI PUSH2 0x125B PUSH2 0x111B JUMP JUMPDEST JUMPDEST PUSH0 PUSH2 0x1269 DUP7 DUP3 DUP8 ADD PUSH2 0x1165 JUMP JUMPDEST SWAP4 POP POP PUSH1 0x20 PUSH2 0x127A DUP7 DUP3 DUP8 ADD PUSH2 0x1165 JUMP JUMPDEST SWAP3 POP POP PUSH1 0x40 PUSH2 0x128B DUP7 DUP3 DUP8 ADD PUSH2 0x1198 JUMP JUMPDEST SWAP2 POP POP SWAP3 POP SWAP3 POP SWAP3 JUMP JUMPDEST PUSH0 PUSH1 0x20 DUP3 DUP5 SUB SLT ISZERO PUSH2 0x12AA JUMPI PUSH2 0x12A9 PUSH2 0x111B JUMP JUMPDEST JUMPDEST PUSH0 PUSH2 0x12B7 DUP5 DUP3 DUP6 ADD PUSH2 0x1198 JUMP JUMPDEST SWAP2 POP POP SWAP3 SWAP2 POP POP JUMP JUMPDEST PUSH0 PUSH1 0xFF DUP3 AND SWAP1 POP SWAP2 SWAP1 POP JUMP JUMPDEST PUSH2 0x12D5 DUP2 PUSH2 0x12C0 JUMP JUMPDEST DUP3 MSTORE POP POP JUMP JUMPDEST PUSH0 PUSH1 0x20 DUP3 ADD SWAP1 POP PUSH2 0x12EE PUSH0 DUP4 ADD DUP5 PUSH2 0x12CC JUMP JUMPDEST SWAP3 SWAP2 POP POP JUMP JUMPDEST PUSH0 DUP2 SWAP1 POP SWAP2 SWAP1 POP JUMP JUMPDEST PUSH2 0x1306 DUP2 PUSH2 0x12F4 JUMP JUMPDEST DUP3 MSTORE POP POP JUMP JUMPDEST PUSH0 PUSH1 0x20 DUP3 ADD SWAP1 POP PUSH2 0x131F PUSH0 DUP4 ADD DUP5 PUSH2 0x12FD JUMP JUMPDEST SWAP3 SWAP2 POP POP JUMP JUMPDEST PUSH0 PUSH1 0x20 DUP3 DUP5 SUB SLT ISZERO PUSH2 0x133A JUMPI PUSH2 0x1339 PUSH2 0x111B JUMP JUMPDEST JUMPDEST PUSH0 PUSH2 0x1347 DUP5 DUP3 DUP6 ADD PUSH2 0x1165 JUMP JUMPDEST SWAP2 POP POP SWAP3 SWAP2 POP POP JUMP JUMPDEST PUSH2 0x1359 DUP2 PUSH2 0x113E JUMP JUMPDEST DUP3 MSTORE POP POP JUMP JUMPDEST PUSH0 PUSH1 0x20 DUP3 ADD SWAP1 POP PUSH2 0x1372 PUSH0 DUP4 ADD DUP5 PUSH2 0x1350 JUMP JUMPDEST SWAP3 SWAP2 POP POP JUMP JUMPDEST PUSH2 0x1381 DUP2 PUSH2 0x12C0 JUMP JUMPDEST DUP2 EQ PUSH2 0x138B JUMPI PUSH0 PUSH0 REVERT JUMPDEST POP JUMP JUMPDEST PUSH0 DUP2 CALLDATALOAD SWAP1 POP PUSH2 0x139C DUP2 PUSH2 0x1378 JUMP JUMPDEST SWAP3 SWAP2 POP POP JUMP JUMPDEST PUSH2 0x13AB DUP2 PUSH2 0x12F4 JUMP JUMPDEST DUP2 EQ PUSH2 0x13B5 JUMPI PUSH0 PUSH0 REVERT JUMPDEST POP JUMP JUMPDEST PUSH0 DUP2 CALLDATALOAD SWAP1 POP PUSH2 0x13C6 DUP2 PUSH2 0x13A2 JUMP JUMPDEST SWAP3 SWAP2 POP POP JUMP JUMPDEST PUSH0 PUSH0 PUSH0 PUSH0 PUSH0 PUSH0 PUSH0 PUSH1 0xE0 DUP9 DUP11 SUB SLT ISZERO PUSH2 0x13E7 JUMPI PUSH2 0x13E6 PUSH2 0x111B JUMP JUMPDEST JUMPDEST PUSH0 PUSH2 0x13F4 DUP11 DUP3 DUP12 ADD PUSH2 0x1165 JUMP JUMPDEST SWAP8 POP POP PUSH1 0x20 PUSH2 0x1405 DUP11 DUP3 DUP12 ADD PUSH2 0x1165 JUMP JUMPDEST SWAP7 POP POP PUSH1 0x40 PUSH2 0x1416 DUP11 DUP3 DUP12 ADD PUSH2 0x1198 JUMP JUMPDEST SWAP6 POP POP PUSH1 0x60 PUSH2 0x1427 DUP11 DUP3 DUP12 ADD PUSH2 0x1198 JUMP JUMPDEST SWAP5 POP POP PUSH1 0x80 PUSH2 0x1438 DUP11 DUP3 DUP12 ADD PUSH2 0x138E JUMP JUMPDEST SWAP4 POP POP PUSH1 0xA0 PUSH2 0x1449 DUP11 DUP3 DUP12 ADD PUSH2 0x13B8 JUMP JUMPDEST SWAP3 POP POP PUSH1 0xC0 PUSH2 0x145A DUP11 DUP3 DUP12 ADD PUSH2 0x13B8 JUMP JUMPDEST SWAP2 POP POP SWAP3 SWAP6 SWAP9 SWAP2 SWAP5 SWAP8 POP SWAP3 SWAP6 POP JUMP JUMPDEST PUSH0 PUSH0 PUSH1 0x40 DUP4 DUP6 SUB SLT ISZERO PUSH2 0x147F JUMPI PUSH2 0x147E PUSH2 0x111B JUMP JUMPDEST JUMPDEST PUSH0 PUSH2 0x148C DUP6 DUP3 DUP7 ADD PUSH2 0x1165 JUMP JUMPDEST SWAP3 POP POP PUSH1 0x20 PUSH2 0x149D DUP6 DUP3 DUP7 ADD PUSH2 0x1165 JUMP JUMPDEST SWAP2 POP POP SWAP3 POP SWAP3 SWAP1 POP JUMP JUMPDEST PUSH32 0x4E487B7100000000000000000000000000000000000000000000000000000000 PUSH0 MSTORE PUSH1 0x22 PUSH1 0x4 MSTORE PUSH1 0x24 PUSH0 REVERT JUMPDEST PUSH0 PUSH1 0x2 DUP3 DIV SWAP1 POP PUSH1 0x1 DUP3 AND DUP1 PUSH2 0x14EB JUMPI PUSH1 0x7F DUP3 AND SWAP2 POP JUMPDEST PUSH1 0x20 DUP3 LT DUP2 SUB PUSH2 0x14FE JUMPI PUSH2 0x14FD PUSH2 0x14A7 JUMP JUMPDEST JUMPDEST POP SWAP2 SWAP1 POP JUMP JUMPDEST PUSH32 0x4E487B7100000000000000000000000000000000000000000000000000000000 PUSH0 MSTORE PUSH1 0x11 PUSH1 0x4 MSTORE PUSH1 0x24 PUSH0 REVERT JUMPDEST PUSH0 PUSH2 0x153B DUP3 PUSH2 0x1179 JUMP JUMPDEST SWAP2 POP PUSH2 0x1546 DUP4 PUSH2 0x1179 JUMP JUMPDEST SWAP3 POP DUP3 DUP3 SUB SWAP1 POP DUP2 DUP2 GT ISZERO PUSH2 0x155E JUMPI PUSH2 0x155D PUSH2 0x1504 JUMP JUMPDEST JUMPDEST SWAP3 SWAP2 POP POP JUMP JUMPDEST PUSH0 DUP2 PUSH1 0x1 SHR SWAP1 POP SWAP2 SWAP1 POP JUMP JUMPDEST PUSH0 PUSH0 DUP3 SWAP2 POP DUP4 SWAP1 POP JUMPDEST PUSH1 0x1 DUP6 GT ISZERO PUSH2 0x15B9 JUMPI DUP1 DUP7 DIV DUP2 GT ISZERO PUSH2 0x1595 JUMPI PUSH2 0x1594 PUSH2 0x1504 JUMP JUMPDEST JUMPDEST PUSH1 0x1 DUP6 AND ISZERO PUSH2 0x15A4 JUMPI DUP1 DUP3 MUL SWAP2 POP JUMPDEST DUP1 DUP2 MUL SWAP1 POP PUSH2 0x15B2 DUP6 PUSH2 0x1564 JUMP JUMPDEST SWAP5 POP PUSH2 0x1579 JUMP JUMPDEST SWAP5 POP SWAP5 SWAP3 POP POP POP JUMP JUMPDEST PUSH0 DUP3 PUSH2 0x15D1 JUMPI PUSH1 0x1 SWAP1 POP PUSH2 0x168C JUMP JUMPDEST DUP2 PUSH2 0x15DE JUMPI PUSH0 SWAP1 POP PUSH2 0x168C JUMP JUMPDEST DUP2 PUSH1 0x1 DUP2 EQ PUSH2 0x15F4 JUMPI PUSH1 0x2 DUP2 EQ PUSH2 0x15FE JUMPI PUSH2 0x162D JUMP JUMPDEST PUSH1 0x1 SWAP2 POP POP PUSH2 0x168C JUMP JUMPDEST PUSH1 0xFF DUP5 GT ISZERO PUSH2 0x1610 JUMPI PUSH2 0x160F PUSH2 0x1504 JUMP JUMPDEST JUMPDEST DUP4 PUSH1 0x2 EXP SWAP2 POP DUP5 DUP3 GT ISZERO PUSH2 0x1627 JUMPI PUSH2 0x1626 PUSH2 0x1504 JUMP JUMPDEST JUMPDEST POP PUSH2 0x168C JUMP JUMPDEST POP PUSH1 0x20 DUP4 LT PUSH2 0x133 DUP4 LT AND PUSH1 0x4E DUP5 LT PUSH1 0xB DUP5 LT AND OR ISZERO PUSH2 0x1662 JUMPI DUP3 DUP3 EXP SWAP1 POP DUP4 DUP2 GT ISZERO PUSH2 0x165D JUMPI PUSH2 0x165C PUSH2 0x1504 JUMP JUMPDEST JUMPDEST PUSH2 0x168C JUMP JUMPDEST PUSH2 0x166F DUP5 DUP5 DUP5 PUSH1 0x1 PUSH2 0x1570 JUMP JUMPDEST SWAP3 POP SWAP1 POP DUP2 DUP5 DIV DUP2 GT ISZERO PUSH2 0x1686 JUMPI PUSH2 0x1685 PUSH2 0x1504 JUMP JUMPDEST JUMPDEST DUP2 DUP2 MUL SWAP1 POP JUMPDEST SWAP4 SWAP3 POP POP POP JUMP JUMPDEST PUSH0 PUSH2 0x169D DUP3 PUSH2 0x1179 JUMP JUMPDEST SWAP2 POP PUSH2 0x16A8 DUP4 PUSH2 0x12C0 JUMP JUMPDEST SWAP3 POP PUSH2 0x16D5 PUSH32 0xFFFFFFFFFFFFFFFFFFFFFFFFFFFFFFFFFFFFFFFFFFFFFFFFFFFFFFFFFFFFFFFF DUP5 DUP5 PUSH2 0x15C2 JUMP JUMPDEST SWAP1 POP SWAP3 SWAP2 POP POP JUMP JUMPDEST PUSH0 PUSH2 0x16E7 DUP3 PUSH2 0x1179 JUMP JUMPDEST SWAP2 POP PUSH2 0x16F2 DUP4 PUSH2 0x1179 JUMP JUMPDEST SWAP3 POP DUP3 DUP3 MUL PUSH2 0x1700 DUP2 PUSH2 0x1179 JUMP JUMPDEST SWAP2 POP DUP3 DUP3 DIV DUP5 EQ DUP4 ISZERO OR PUSH2 0x1717 JUMPI PUSH2 0x1716 PUSH2 0x1504 JUMP JUMPDEST JUMPDEST POP SWAP3 SWAP2 POP POP JUMP JUMPDEST PUSH32 0x5045524D49545F444541444C494E455F45585049524544000000000000000000 PUSH0 DUP3 ADD MSTORE POP JUMP JUMPDEST PUSH0 PUSH2 0x1752 PUSH1 0x17 DUP4 PUSH2 0x1095 JUMP JUMPDEST SWAP2 POP PUSH2 0x175D DUP3 PUSH2 0x171E JUMP JUMPDEST PUSH1 0x20 DUP3 ADD SWAP1 POP SWAP2 SWAP1 POP JUMP JUMPDEST PUSH0 PUSH1 0x20 DUP3 ADD SWAP1 POP DUP2 DUP2 SUB PUSH0 DUP4 ADD MSTORE PUSH2 0x177F DUP2 PUSH2 0x1746 JUMP JUMPDEST SWAP1 POP SWAP2 SWAP1 POP JUMP JUMPDEST PUSH0 PUSH1 0xC0 DUP3 ADD SWAP1 POP PUSH2 0x1799 PUSH0 DUP4 ADD DUP10 PUSH2 0x12FD JUMP JUMPDEST PUSH2 0x17A6 PUSH1 0x20 DUP4 ADD DUP9 PUSH2 0x1350 JUMP JUMPDEST PUSH2 0x17B3 PUSH1 0x40 DUP4 ADD DUP8 PUSH2 0x1350 JUMP JUMPDEST PUSH2 0x17C0 PUSH1 0x60 DUP4 ADD DUP7 PUSH2 0x121D JUMP JUMPDEST PUSH2 0x17CD PUSH1 0x80 DUP4 ADD DUP6 PUSH2 0x121D JUMP JUMPDEST PUSH2 0x17DA PUSH1 0xA0 DUP4 ADD DUP5 PUSH2 0x121D JUMP JUMPDEST SWAP8 SWAP7 POP POP POP POP POP POP POP JUMP JUMPDEST PUSH0 DUP2 SWAP1 POP SWAP3 SWAP2 POP POP JUMP JUMPDEST PUSH32 0x1901000000000000000000000000000000000000000000000000000000000000 PUSH0 DUP3 ADD MSTORE POP JUMP JUMPDEST PUSH0 PUSH2 0x1823 PUSH1 0x2 DUP4 PUSH2 0x17E5 JUMP JUMPDEST SWAP2 POP PUSH2 0x182E DUP3 PUSH2 0x17EF JUMP JUMPDEST PUSH1 0x2 DUP3 ADD SWAP1 POP SWAP2 SWAP1 POP JUMP JUMPDEST PUSH0 DUP2 SWAP1 POP SWAP2 SWAP1 POP JUMP JUMPDEST PUSH2 0x1853 PUSH2 0x184E DUP3 PUSH2 0x12F4 JUMP JUMPDEST PUSH2 0x1839 JUMP JUMPDEST DUP3 MSTORE POP POP JUMP JUMPDEST PUSH0 PUSH2 0x1863 DUP3 PUSH2 0x1817 JUMP JUMPDEST SWAP2 POP PUSH2 0x186F DUP3 DUP6 PUSH2 0x1842 JUMP JUMPDEST PUSH1 0x20 DUP3 ADD SWAP2 POP PUSH2 0x187F DUP3 DUP5 PUSH2 0x1842 JUMP JUMPDEST PUSH1 0x20 DUP3 ADD SWAP2 POP DUP2 SWAP1 POP SWAP4 SWAP3 POP POP POP JUMP JUMPDEST PUSH0 PUSH1 0x80 DUP3 ADD SWAP1 POP PUSH2 0x18A2 PUSH0 DUP4 ADD DUP8 PUSH2 0x12FD JUMP JUMPDEST PUSH2 0x18AF PUSH1 0x20 DUP4 ADD DUP7 PUSH2 0x12CC JUMP JUMPDEST PUSH2 0x18BC PUSH1 0x40 DUP4 ADD DUP6 PUSH2 0x12FD JUMP JUMPDEST PUSH2 0x18C9 PUSH1 0x60 DUP4 ADD DUP5 PUSH2 0x12FD JUMP JUMPDEST SWAP6 SWAP5 POP POP POP POP POP JUMP JUMPDEST PUSH32 0x494E56414C49445F5349474E4552000000000000000000000000000000000000 PUSH0 DUP3 ADD MSTORE POP JUMP JUMPDEST PUSH0 PUSH2 0x1906 PUSH1 0xE DUP4 PUSH2 0x1095 JUMP JUMPDEST SWAP2 POP PUSH2 0x1911 DUP3 PUSH2 0x18D2 JUMP JUMPDEST PUSH1 0x20 DUP3 ADD SWAP1 POP SWAP2 SWAP1 POP JUMP JUMPDEST PUSH0 PUSH1 0x20 DUP3 ADD SWAP1 POP DUP2 DUP2 SUB PUSH0 DUP4 ADD MSTORE PUSH2 0x1933 DUP2 PUSH2 0x18FA JUMP JUMPDEST SWAP1 POP SWAP2 SWAP1 POP JUMP JUMPDEST PUSH0 PUSH2 0x1944 DUP3 PUSH2 0x1179 JUMP JUMPDEST SWAP2 POP PUSH2 0x194F DUP4 PUSH2 0x1179 JUMP JUMPDEST SWAP3 POP DUP3 DUP3 ADD SWAP1 POP DUP1 DUP3 GT ISZERO PUSH2 0x1967 JUMPI PUSH2 0x1966 PUSH2 0x1504 JUMP JUMPDEST JUMPDEST SWAP3 SWAP2 POP POP JUMP JUMPDEST PUSH0 DUP2 SWAP1 POP SWAP3 SWAP2 POP POP JUMP JUMPDEST PUSH0 DUP2 SWAP1 POP DUP2 PUSH0 MSTORE PUSH1 0x20 PUSH0 KECCAK256 SWAP1 POP SWAP2 SWAP1 POP JUMP JUMPDEST PUSH0 DUP2 SLOAD PUSH2 0x1995 DUP2 PUSH2 0x14D4 JUMP JUMPDEST PUSH2 0x199F DUP2 DUP7 PUSH2 0x196D JUMP JUMPDEST SWAP5 POP PUSH1 0x1 DUP3 AND PUSH0 DUP2 EQ PUSH2 0x19B9 JUMPI PUSH1 0x1 DUP2 EQ PUSH2 0x19CE JUMPI PUSH2 0x1A00 JUMP JUMPDEST PUSH1 0xFF NOT DUP4 AND DUP7 MSTORE DUP2 ISZERO ISZERO DUP3 MUL DUP7 ADD SWAP4 POP PUSH2 0x1A00 JUMP JUMPDEST PUSH2 0x19D7 DUP6 PUSH2 0x1977 JUMP JUMPDEST PUSH0 JUMPDEST DUP4 DUP2 LT ISZERO PUSH2 0x19F8 JUMPI DUP2 SLOAD DUP2 DUP10 ADD MSTORE PUSH1 0x1 DUP3 ADD SWAP2 POP PUSH1 0x20 DUP2 ADD SWAP1 POP PUSH2 0x19D9 JUMP JUMPDEST DUP4 DUP9 ADD SWAP6 POP POP POP JUMPDEST POP POP POP SWAP3 SWAP2 POP POP JUMP JUMPDEST PUSH0 PUSH2 0x1A14 DUP3 DUP5 PUSH2 0x1989 JUMP JUMPDEST SWAP2 POP DUP2 SWAP1 POP SWAP3 SWAP2 POP POP JUMP JUMPDEST PUSH0 PUSH1 0xA0 DUP3 ADD SWAP1 POP PUSH2 0x1A32 PUSH0 DUP4 ADD DUP9 PUSH2 0x12FD JUMP JUMPDEST PUSH2 0x1A3F PUSH1 0x20 DUP4 ADD DUP8 PUSH2 0x12FD JUMP JUMPDEST PUSH2 0x1A4C PUSH1 0x40 DUP4 ADD DUP7 PUSH2 0x12FD JUMP JUMPDEST PUSH2 0x1A59 PUSH1 0x60 DUP4 ADD DUP6 PUSH2 0x121D JUMP JUMPDEST PUSH2 0x1A66 PUSH1 0x80 DUP4 ADD DUP5 PUSH2 0x1350 JUMP JUMPDEST SWAP7 SWAP6 POP POP POP POP POP POP JUMP INVALID LOG2 PUSH5 0x6970667358 0x22 SLT KECCAK256 EXP PUSH19 0x2A499BAAFF8133CF94DF3134E08D734702AA46 BALANCE CALLDATALOAD SIGNEXTEND SMOD 0xDB DUP16 POP EXP EXTCALL SWAP9 MOD PUSH5 0x736F6C6343 STOP ADDMOD SAR STOP CALLER "
				},
				"gasEstimates": {
					"creation": {
						"codeDepositCost": "1364400",
						"executionCost": "infinite",
						"totalCost": "infinite"
					},
					"external": {
						"DOMAIN_SEPARATOR()": "infinite",
						"allowance(address,address)": "infinite",
						"approve(address,uint256)": "infinite",
						"balanceOf(address)": "2825",
						"decimals()": "infinite",
						"deposit()": "infinite",
						"mint(address,uint256)": "infinite",
						"name()": "infinite",
						"nonces(address)": "2847",
						"owner()": "2575",
						"permit(address,address,uint256,uint256,uint8,bytes32,bytes32)": "infinite",
						"symbol()": "infinite",
						"totalSupply()": "2493",
						"transfer(address,uint256)": "infinite",
						"transferFrom(address,address,uint256)": "infinite",
						"withdraw(uint256)": "infinite"
					}
				},
				"methodIdentifiers": {
					"DOMAIN_SEPARATOR()": "3644e515",
					"allowance(address,address)": "dd62ed3e",
					"approve(address,uint256)": "095ea7b3",
					"balanceOf(address)": "70a08231",
					"decimals()": "313ce567",
					"deposit()": "d0e30db0",
					"mint(address,uint256)": "40c10f19",
					"name()": "06fdde03",
					"nonces(address)": "7ecebe00",
					"owner()": "8da5cb5b",
					"permit(address,address,uint256,uint256,uint8,bytes32,bytes32)": "d505accf",
					"symbol()": "95d89b41",
					"totalSupply()": "18160ddd",
					"transfer(address,uint256)": "a9059cbb",
					"transferFrom(address,address,uint256)": "23b872dd",
					"withdraw(uint256)": "2e1a7d4d"
				}
			},
			"storageLayout": {
				"storage": [
					{
						"astId": 20,
						"contract": "src/test/MyToken.sol:MyToken",
						"label": "name",
						"offset": 0,
						"slot": "0",
						"type": "t_string_storage"
					},
					{
						"astId": 22,
						"contract": "src/test/MyToken.sol:MyToken",
						"label": "symbol",
						"offset": 0,
						"slot": "1",
						"type": "t_string_storage"
					},
					{
						"astId": 26,
						"contract": "src/test/MyToken.sol:MyToken",
						"label": "totalSupply",
						"offset": 0,
						"slot": "2",
						"type": "t_uint256"
					},
					{
						"astId": 30,
						"contract": "src/test/MyToken.sol:MyToken",
						"label": "balanceOf",
						"offset": 0,
						"slot": "3",
						"type": "t_mapping(t_address,t_uint256)"
					},
					{
						"astId": 36,
						"contract": "src/test/MyToken.sol:MyToken",
						"label": "allowance",
						"offset": 0,
						"slot": "4",
						"type": "t_mapping(t_address,t_mapping(t_address,t_uint256))"
					},
					{
						"astId": 44,
						"contract": "src/test/MyToken.sol:MyToken",
						"label": "nonces",
						"offset": 0,
						"slot": "5",
						"type": "t_mapping(t_address,t_uint256)"
					},
					{
						"astId": 395,
						"contract": "src/test/MyToken.sol:MyToken",
						"label": "owner",
						"offset": 0,
						"slot": "6",
						"type": "t_address"
					}
				],
				"types": {
					"t_address": {
						"encoding": "inplace",
						"label": "address",
						"numberOfBytes": "20"
					},
					"t_mapping(t_address,t_mapping(t_address,t_uint256))": {
						"encoding": "mapping",
						"key": "t_address",
						"label": "mapping(address => mapping(address => uint256))",
						"numberOfBytes": "32",
						"value": "t_mapping(t_address,t_uint256)"
					},
					"t_mapping(t_address,t_uint256)": {
						"encoding": "mapping",
						"key": "t_address",
						"label": "mapping(address => uint256)",
						"numberOfBytes": "32",
						"value": "t_uint256"
					},
					"t_string_storage": {
						"encoding": "bytes",
						"label": "string",
						"numberOfBytes": "32"
					},
					"t_uint256": {
						"encoding": "inplace",
						"label": "uint256",
						"numberOfBytes": "32"
					}
				}
			},
			"userdoc": {
				"kind": "user",
				"methods": {},
				"version": 1
			}
		}
	}
}