{
    "contractName": "L_CurrencyLibrary",
    "abi": [
        {
            "inputs": [],
            "name": "ERC20TransferFailed",
            "type": "error"
        },
        {
            "inputs": [],
            "name": "NativeTransferFailed",
            "type": "error"
        },
        {
            "inputs": [],
            "name": "NATIVE",
            "outputs": [
                {
                    "internalType": "address",
                    "name": "",
                    "type": "address"
                }
            ],
            "stateMutability": "view",
            "type": "function"
        }
    ],
    "bytecode": "608e610033600b8282823980515f1a607314602757634e487b7160e01b5f525f60045260245ffd5b305f52607381538281f3fe73000000000000000000000000000000000000000030146080604052600436106032575f3560e01c8063a0cf0aea146036575b5f80fd5b603c5f81565b6040516001600160a01b03909116815260200160405180910390f3fea26469706673582212201ecc6e7c7b5a7ee824c86ebf10ee94c8fcaa9c30ff1fcc861a4553acedc3d18164736f6c63430008180033",
    "sourcePath": "/Users/admin/workspace/50Self_project/ttswap-core/Contracts/libraries/L_Currency.sol",
    "compiler": {
        "name": "solc",
        "version": "0.8.24+commit.e11b9ed9"
    },
    "functionHashes": {
        "NATIVE()": "a0cf0aea"
    },
    "gasEstimates": {
        "creation": {
            "codeDepositCost": "28400",
            "executionCost": "108",
            "totalCost": "28508"
        },
        "external": {
            "NATIVE()": "164"
        },
        "internal": {
            "isNative(address)": "infinite",
            "safeTransfer(address,address,uint256)": "infinite",
            "transferFrom(address,address,uint256)": "infinite"
        }
    }
}