{
    "contractName": "MyGoodTriggerAction",
    "abi": [
        {
            "inputs": [],
            "stateMutability": "nonpayable",
            "type": "constructor"
        },
        {
            "anonymous": false,
            "inputs": [
                {
                    "indexed": false,
                    "internalType": "bytes",
                    "name": "",
                    "type": "bytes"
                },
                {
                    "indexed": false,
                    "internalType": "uint256",
                    "name": "",
                    "type": "uint256"
                },
                {
                    "indexed": false,
                    "internalType": "uint256",
                    "name": "",
                    "type": "uint256"
                },
                {
                    "indexed": false,
                    "internalType": "address",
                    "name": "",
                    "type": "address"
                },
                {
                    "indexed": false,
                    "internalType": "address",
                    "name": "",
                    "type": "address"
                }
            ],
            "name": "debuginvesttrigger",
            "type": "event"
        },
        {
            "anonymous": false,
            "inputs": [
                {
                    "indexed": false,
                    "internalType": "bytes",
                    "name": "",
                    "type": "bytes"
                },
                {
                    "indexed": false,
                    "internalType": "uint256",
                    "name": "",
                    "type": "uint256"
                },
                {
                    "indexed": false,
                    "internalType": "uint256",
                    "name": "",
                    "type": "uint256"
                },
                {
                    "indexed": false,
                    "internalType": "uint256",
                    "name": "",
                    "type": "uint256"
                },
                {
                    "indexed": false,
                    "internalType": "uint256",
                    "name": "",
                    "type": "uint256"
                },
                {
                    "indexed": false,
                    "internalType": "uint256",
                    "name": "",
                    "type": "uint256"
                },
                {
                    "indexed": false,
                    "internalType": "address",
                    "name": "",
                    "type": "address"
                },
                {
                    "indexed": false,
                    "internalType": "address",
                    "name": "",
                    "type": "address"
                }
            ],
            "name": "debugtradestrigger",
            "type": "event"
        },
        {
            "inputs": [
                {
                    "internalType": "uint256",
                    "name": "opgood",
                    "type": "uint256"
                },
                {
                    "internalType": "uint256",
                    "name": "trade",
                    "type": "uint256"
                },
                {
                    "internalType": "uint256",
                    "name": "currentstate",
                    "type": "uint256"
                },
                {
                    "internalType": "uint256",
                    "name": "opstate",
                    "type": "uint256"
                },
                {
                    "internalType": "address",
                    "name": "recipent",
                    "type": "address"
                }
            ],
            "name": "afterswapmake",
            "outputs": [
                {
                    "internalType": "bool",
                    "name": "",
                    "type": "bool"
                }
            ],
            "stateMutability": "nonpayable",
            "type": "function"
        },
        {
            "inputs": [
                {
                    "internalType": "uint256",
                    "name": "opgood",
                    "type": "uint256"
                },
                {
                    "internalType": "uint256",
                    "name": "trade",
                    "type": "uint256"
                },
                {
                    "internalType": "uint256",
                    "name": "currentstate",
                    "type": "uint256"
                },
                {
                    "internalType": "uint256",
                    "name": "opstate",
                    "type": "uint256"
                },
                {
                    "internalType": "address",
                    "name": "recipent",
                    "type": "address"
                }
            ],
            "name": "afterswaptake",
            "outputs": [
                {
                    "internalType": "bool",
                    "name": "",
                    "type": "bool"
                }
            ],
            "stateMutability": "nonpayable",
            "type": "function"
        },
        {
            "inputs": [],
            "name": "aftertradeamountmake",
            "outputs": [
                {
                    "internalType": "uint256",
                    "name": "",
                    "type": "uint256"
                }
            ],
            "stateMutability": "view",
            "type": "function"
        },
        {
            "inputs": [],
            "name": "aftertradeamounttake",
            "outputs": [
                {
                    "internalType": "uint256",
                    "name": "",
                    "type": "uint256"
                }
            ],
            "stateMutability": "view",
            "type": "function"
        },
        {
            "inputs": [
                {
                    "internalType": "uint256",
                    "name": "opgood",
                    "type": "uint256"
                },
                {
                    "internalType": "uint256",
                    "name": "trade",
                    "type": "uint256"
                },
                {
                    "internalType": "uint256",
                    "name": "currentstate",
                    "type": "uint256"
                },
                {
                    "internalType": "uint256",
                    "name": "opstate",
                    "type": "uint256"
                },
                {
                    "internalType": "address",
                    "name": "recipent",
                    "type": "address"
                }
            ],
            "name": "beforeswapmake",
            "outputs": [
                {
                    "internalType": "bool",
                    "name": "",
                    "type": "bool"
                }
            ],
            "stateMutability": "nonpayable",
            "type": "function"
        },
        {
            "inputs": [
                {
                    "internalType": "uint256",
                    "name": "opgood",
                    "type": "uint256"
                },
                {
                    "internalType": "uint256",
                    "name": "trade",
                    "type": "uint256"
                },
                {
                    "internalType": "uint256",
                    "name": "currentstate",
                    "type": "uint256"
                },
                {
                    "internalType": "uint256",
                    "name": "opstate",
                    "type": "uint256"
                },
                {
                    "internalType": "address",
                    "name": "recipent",
                    "type": "address"
                }
            ],
            "name": "beforeswaptake",
            "outputs": [
                {
                    "internalType": "bool",
                    "name": "",
                    "type": "bool"
                }
            ],
            "stateMutability": "nonpayable",
            "type": "function"
        },
        {
            "inputs": [],
            "name": "befortradeamountmake",
            "outputs": [
                {
                    "internalType": "uint256",
                    "name": "",
                    "type": "uint256"
                }
            ],
            "stateMutability": "view",
            "type": "function"
        },
        {
            "inputs": [],
            "name": "befortradeamounttake",
            "outputs": [
                {
                    "internalType": "uint256",
                    "name": "",
                    "type": "uint256"
                }
            ],
            "stateMutability": "view",
            "type": "function"
        },
        {
            "inputs": [
                {
                    "internalType": "uint256",
                    "name": "divestquanity",
                    "type": "uint256"
                },
                {
                    "internalType": "uint256",
                    "name": "currentstate",
                    "type": "uint256"
                },
                {
                    "internalType": "address",
                    "name": "recipent",
                    "type": "address"
                }
            ],
            "name": "divest",
            "outputs": [
                {
                    "internalType": "bool",
                    "name": "",
                    "type": "bool"
                }
            ],
            "stateMutability": "nonpayable",
            "type": "function"
        },
        {
            "inputs": [],
            "name": "divestamount",
            "outputs": [
                {
                    "internalType": "uint256",
                    "name": "",
                    "type": "uint256"
                }
            ],
            "stateMutability": "view",
            "type": "function"
        },
        {
            "inputs": [
                {
                    "internalType": "uint256",
                    "name": "investquanity",
                    "type": "uint256"
                },
                {
                    "internalType": "uint256",
                    "name": "currentstate",
                    "type": "uint256"
                },
                {
                    "internalType": "address",
                    "name": "recipent",
                    "type": "address"
                }
            ],
            "name": "invest",
            "outputs": [
                {
                    "internalType": "bool",
                    "name": "",
                    "type": "bool"
                }
            ],
            "stateMutability": "nonpayable",
            "type": "function"
        },
        {
            "inputs": [],
            "name": "investamount",
            "outputs": [
                {
                    "internalType": "uint256",
                    "name": "",
                    "type": "uint256"
                }
            ],
            "stateMutability": "view",
            "type": "function"
        }
    ],
    "bytecode": "60808060405234601557610580908161001a8239f35b5f80fdfe60806040526004361015610011575f80fd5b5f3560e01c8063290b6a981461041a578063643135fe146103fe5780636ac05e6c1461036d5780638ddcf6691461035057806399395dcf14610333578063b96ef5bd14610316578063bf2f96c11461028c578063c4e97154146101f9578063ca7d3a0714610165578063cce0e21714610148578063ce705458146100be5763de905ca01461009d575f80fd5b346100ba575f3660031901126100ba576020600554604051908152f35b5f80fd5b346100ba577fde52f5460119502c37e0a0bda4cd208cf3dd930606d3ff0848d14d75b8054f2860e06100ef366104df565b906100fc83600454610509565b6004556040805160a0808252600690820152651a5b9d995cdd60d21b60c082015260208101949094528301526001600160a01b03166060820152336080820152a1602060405160018152f35b346100ba575f3660031901126100ba576020600154604051908152f35b346100ba575f8051602061052b833981519152610140610184366104ad565b929161019283600254610509565b6002555f5492604051956101008752600e6101008801526d6265666f7265737761706d616b6560901b610120880152602087015260408601526060850152608084015260a083015260018060a01b031660c08201523360e0820152a1602060405160018152f35b346100ba575f8051602061052b833981519152610140610218366104ad565b929161022683600354610509565b6003555f5492604051956101008752600d6101008801526c6166746572737761706d616b6560981b610120880152602087015260408601526060850152608084015260a083015260018060a01b031660c08201523360e0820152a1602060405160018152f35b346100ba577fde52f5460119502c37e0a0bda4cd208cf3dd930606d3ff0848d14d75b8054f2860e06102bd366104df565b906102ca83600554610509565b6005556040805160a080825260069082015265191a5d995cdd60d21b60c082015260208101949094528301526001600160a01b03166060820152336080820152a1602060405160018152f35b346100ba575f3660031901126100ba576020600354604051908152f35b346100ba575f3660031901126100ba576020600254604051908152f35b346100ba575f3660031901126100ba576020600454604051908152f35b346100ba575f8051602061052b83398151915261014061038c366104ad565b9291610399835f54610509565b92835f55604051956101008752600e6101008801526d6265666f72657377617074616b6560901b610120880152602087015260408601526060850152608084015260a083015260018060a01b031660c08201523360e0820152a1602060405160018152f35b346100ba575f3660031901126100ba5760205f54604051908152f35b346100ba575f8051602061052b833981519152610140610439366104ad565b929161044783600154610509565b6001555f5492604051956101008752600d6101008801526c61667465727377617074616b6560981b610120880152602087015260408601526060850152608084015260a083015260018060a01b031660c08201523360e0820152a1602060405160018152f35b60a09060031901126100ba57600435906024359060443590606435906084356001600160a01b03811681036100ba5790565b60609060031901126100ba5760043590602435906044356001600160a01b03811681036100ba5790565b9190820180921161051657565b634e487b7160e01b5f52601160045260245ffdfe52a28ff2a55ac50b042bbfc27635783112a33656dab710f90c274f915aae7640a26469706673582212202d037cf4fc3087dfd917ae5bdf707d7c2bfd5c86b0340b317dd380d21a06066e64736f6c634300081a0033",
    "sourcePath": "/Users/admin/workspace/50Self_project/ttswap-core/src/example/MyGoodTriggerAction.sol",
    "compiler": {
        "name": "solc",
        "version": "0.8.26+commit.8a97fa7a"
    },
    "functionHashes": {
        "afterswapmake(uint256,uint256,uint256,uint256,address)": "c4e97154",
        "afterswaptake(uint256,uint256,uint256,uint256,address)": "290b6a98",
        "aftertradeamountmake()": "b96ef5bd",
        "aftertradeamounttake()": "cce0e217",
        "beforeswapmake(uint256,uint256,uint256,uint256,address)": "ca7d3a07",
        "beforeswaptake(uint256,uint256,uint256,uint256,address)": "6ac05e6c",
        "befortradeamountmake()": "99395dcf",
        "befortradeamounttake()": "643135fe",
        "divest(uint256,uint256,address)": "bf2f96c1",
        "divestamount()": "de905ca0",
        "invest(uint256,uint256,address)": "ce705458",
        "investamount()": "8ddcf669"
    },
    "gasEstimates": {
        "creation": {
            "codeDepositCost": "281600",
            "executionCost": "325",
            "totalCost": "281925"
        },
        "external": {
            "afterswapmake(uint256,uint256,uint256,uint256,address)": "infinite",
            "afterswaptake(uint256,uint256,uint256,uint256,address)": "infinite",
            "aftertradeamountmake()": "2358",
            "aftertradeamounttake()": "2446",
            "beforeswapmake(uint256,uint256,uint256,uint256,address)": "infinite",
            "beforeswaptake(uint256,uint256,uint256,uint256,address)": "infinite",
            "befortradeamountmake()": "2336",
            "befortradeamounttake()": "2269",
            "divest(uint256,uint256,address)": "27339",
            "divestamount()": "2487",
            "invest(uint256,uint256,address)": "27427",
            "investamount()": "2314"
        }
    }
}